{
  "contractName": "BattleLogic",
  "abi": [
    {
      "inputs": [
        {
          "components": [
            {
              "components": [
                {
                  "internalType": "uint256",
                  "name": "hp",
                  "type": "uint256"
                },
                {
                  "internalType": "uint256",
                  "name": "attack",
                  "type": "uint256"
                },
                {
                  "internalType": "uint256",
                  "name": "defense",
                  "type": "uint256"
                },
                {
                  "internalType": "uint256",
                  "name": "regen",
                  "type": "uint256"
                },
                {
                  "internalType": "uint256",
                  "name": "pa",
                  "type": "uint256"
                },
                {
                  "internalType": "uint256",
                  "name": "gradeValue",
                  "type": "uint256"
                },
                {
                  "internalType": "enum NokaiStats.Rarity",
                  "name": "grade",
                  "type": "uint8"
                },
                {
                  "internalType": "enum NokaiTechnique.Technique",
                  "name": "technique1",
                  "type": "uint8"
                },
                {
                  "internalType": "enum NokaiTechnique.Technique",
                  "name": "technique2",
                  "type": "uint8"
                }
              ],
              "internalType": "struct NokaiStats.Stats",
              "name": "stats",
              "type": "tuple"
            },
            {
              "internalType": "uint256",
              "name": "currentHp",
              "type": "uint256"
            },
            {
              "internalType": "uint256",
              "name": "currentPa",
              "type": "uint256"
            },
            {
              "internalType": "bool",
              "name": "dead",
              "type": "bool"
            },
            {
              "internalType": "bool",
              "name": "burned",
              "type": "bool"
            },
            {
              "internalType": "uint256",
              "name": "lastHpSet",
              "type": "uint256"
            },
            {
              "internalType": "uint256",
              "name": "lastPaSet",
              "type": "uint256"
            }
          ],
          "internalType": "struct NokaiStats.Profile",
          "name": "attacker",
          "type": "tuple"
        },
        {
          "components": [
            {
              "components": [
                {
                  "internalType": "uint256",
                  "name": "hp",
                  "type": "uint256"
                },
                {
                  "internalType": "uint256",
                  "name": "attack",
                  "type": "uint256"
                },
                {
                  "internalType": "uint256",
                  "name": "defense",
                  "type": "uint256"
                },
                {
                  "internalType": "uint256",
                  "name": "regen",
                  "type": "uint256"
                },
                {
                  "internalType": "uint256",
                  "name": "pa",
                  "type": "uint256"
                },
                {
                  "internalType": "uint256",
                  "name": "gradeValue",
                  "type": "uint256"
                },
                {
                  "internalType": "enum NokaiStats.Rarity",
                  "name": "grade",
                  "type": "uint8"
                },
                {
                  "internalType": "enum NokaiTechnique.Technique",
                  "name": "technique1",
                  "type": "uint8"
                },
                {
                  "internalType": "enum NokaiTechnique.Technique",
                  "name": "technique2",
                  "type": "uint8"
                }
              ],
              "internalType": "struct NokaiStats.Stats",
              "name": "stats",
              "type": "tuple"
            },
            {
              "internalType": "uint256",
              "name": "currentHp",
              "type": "uint256"
            },
            {
              "internalType": "uint256",
              "name": "currentPa",
              "type": "uint256"
            },
            {
              "internalType": "bool",
              "name": "dead",
              "type": "bool"
            },
            {
              "internalType": "bool",
              "name": "burned",
              "type": "bool"
            },
            {
              "internalType": "uint256",
              "name": "lastHpSet",
              "type": "uint256"
            },
            {
              "internalType": "uint256",
              "name": "lastPaSet",
              "type": "uint256"
            }
          ],
          "internalType": "struct NokaiStats.Profile",
          "name": "defender",
          "type": "tuple"
        }
      ],
      "name": "battle",
      "outputs": [
        {
          "internalType": "uint256",
          "name": "",
          "type": "uint256"
        },
        {
          "internalType": "uint256",
          "name": "",
          "type": "uint256"
        },
        {
          "internalType": "uint256",
          "name": "",
          "type": "uint256"
        }
      ],
      "stateMutability": "pure",
      "type": "function"
    }
  ],
  "bytecode": "0x608060405234801561001057600080fd5b50610b95806100206000396000f3fe608060405234801561001057600080fd5b5060043610610048576000357c010000000000000000000000000000000000000000000000000000000090048063731095b61461004d575b600080fd5b610067600480360381019061006291906108a4565b61007f565b604051610076939291906108f1565b60405180910390f35b6000806000808560200151905060008560200151905060006100a18888610268565b905060006100af888a610268565b9050600082846100bf91906109af565b9050600082866100cf91906109af565b905080821161015457600094506100e78a600861041c565b1561013757610130866002606486606461010191906109e0565b61010b91906109af565b61011591906109e0565b858561012191906109e0565b61012b9190610959565b610524565b955061014f565b61014c86848461014791906109e0565b610524565b95505b6101cc565b600095506101638b600861041c565b156101b3576002606485606461017991906109e0565b61018391906109af565b61018d91906109e0565b6101a286868461019d91906109e0565b610524565b6101ac9190610959565b94506101cb565b6101c88585836101c391906109e0565b610524565b94505b5b6000861480156101eb5750896000015160a001518b6000015160a00151115b80156101fe57506101fd8b600761041c565b5b1561020857600195505b60008514801561022757508a6000015160a001518a6000015160a00151115b801561023a57506102398a600761041c565b5b1561024457600194505b8082116102515781610253565b805b86869850985098505050505050509250925092565b600080836000015160200151905060008360000151602001519050600084600001516040015190506000606490506102a187600561054b565b156102e3576102b186600161041c565b156102c4576102c1816028610524565b90505b6102cf86600361041c565b156102e2576102df846014610656565b93505b5b6102ee86600561054b565b15610382576102fe87600261041c565b1561031c5761030e83601e610681565b846103199190610959565b93505b61032787600361041c565b1561033a57610337826014610656565b91505b61034587600461041c565b1561035857610355826032610656565b91505b61036387600661041c565b1561038157610373846028610681565b8461037e9190610959565b93505b5b61038d87600061041c565b80156103a0575061039f86600561054b565b5b156103f2576028816103b29190610a3a565b90506103e76103e060026103d06103ca88604b610681565b86610524565b6103da91906109e0565b83610681565b60016106a3565b945050505050610416565b61040f6104086104028685610524565b83610681565b60016106a3565b9450505050505b92915050565b6000816009811115610457577f4e487b7100000000000000000000000000000000000000000000000000000000600052602160045260246000fd5b836000015160e001516009811115610498577f4e487b7100000000000000000000000000000000000000000000000000000000600052602160045260246000fd5b148061051c57508160098111156104d8577f4e487b7100000000000000000000000000000000000000000000000000000000600052602160045260246000fd5b83600001516101000151600981111561051a577f4e487b7100000000000000000000000000000000000000000000000000000000600052602160045260246000fd5b145b905092915050565b60008282106105365760009050610545565b81836105429190610a3a565b90505b92915050565b6000816009811115610586577f4e487b7100000000000000000000000000000000000000000000000000000000600052602160045260246000fd5b836000015160e0015160098111156105c7577f4e487b7100000000000000000000000000000000000000000000000000000000600052602160045260246000fd5b1415801561064e5750816009811115610609577f4e487b7100000000000000000000000000000000000000000000000000000000600052602160045260246000fd5b83600001516101000151600981111561064b577f4e487b7100000000000000000000000000000000000000000000000000000000600052602160045260246000fd5b14155b905092915050565b6000610679836064848661066a91906109e0565b61067491906109af565b610524565b905092915050565b60006064828461069191906109e0565b61069b91906109af565b905092915050565b6000818310156106b357816106b5565b825b905092915050565b6000813590506106cc81610b11565b92915050565b6000813590506106e181610b28565b92915050565b6000813590506106f681610b38565b92915050565b60006101e0828403121561070f57600080fd5b61071960e0610928565b90506000610729848285016107b3565b60008301525061012061073e8482850161088f565b6020830152506101406107538482850161088f565b604083015250610160610768848285016106bd565b60608301525061018061077d848285016106bd565b6080830152506101a06107928482850161088f565b60a0830152506101c06107a78482850161088f565b60c08301525092915050565b600061012082840312156107c657600080fd5b6107d1610120610928565b905060006107e18482850161088f565b60008301525060206107f58482850161088f565b60208301525060406108098482850161088f565b604083015250606061081d8482850161088f565b60608301525060806108318482850161088f565b60808301525060a06108458482850161088f565b60a08301525060c0610859848285016106d2565b60c08301525060e061086d848285016106e7565b60e083015250610100610882848285016106e7565b6101008301525092915050565b60008135905061089e81610b48565b92915050565b6000806103c083850312156108b857600080fd5b60006108c6858286016106fc565b9250506101e06108d8858286016106fc565b9150509250929050565b6108eb81610a7a565b82525050565b600060608201905061090660008301866108e2565b61091360208301856108e2565b61092060408301846108e2565b949350505050565b6000604051905081810181811067ffffffffffffffff8211171561094f5761094e610ae2565b5b8060405250919050565b600061096482610a7a565b915061096f83610a7a565b9250827fffffffffffffffffffffffffffffffffffffffffffffffffffffffffffffffff038211156109a4576109a3610a84565b5b828201905092915050565b60006109ba82610a7a565b91506109c583610a7a565b9250826109d5576109d4610ab3565b5b828204905092915050565b60006109eb82610a7a565b91506109f683610a7a565b9250817fffffffffffffffffffffffffffffffffffffffffffffffffffffffffffffffff0483118215151615610a2f57610a2e610a84565b5b828202905092915050565b6000610a4582610a7a565b9150610a5083610a7a565b925082821015610a6357610a62610a84565b5b828203905092915050565b60008115159050919050565b6000819050919050565b7f4e487b7100000000000000000000000000000000000000000000000000000000600052601160045260246000fd5b7f4e487b7100000000000000000000000000000000000000000000000000000000600052601260045260246000fd5b7f4e487b7100000000000000000000000000000000000000000000000000000000600052604160045260246000fd5b610b1a81610a6e565b8114610b2557600080fd5b50565b60058110610b3557600080fd5b50565b600a8110610b4557600080fd5b50565b610b5181610a7a565b8114610b5c57600080fd5b5056fea2646970667358221220c6007ef9edabd752b30cd88007a20427e567c1a0aa4c25f526188afbea2e892e64736f6c63430008000033",
  "immutableReferences": {},
  "source": "pragma solidity ^0.8.0;\r\n\r\nimport \"../character/NokaiStats.sol\";\r\nimport \"@openzeppelin/contracts/utils/math/Math.sol\";\r\n\r\n// SPDX-License-Identifier: MIT\r\ncontract BattleLogic {\r\n\r\n    uint256 constant _specialist = 75;\r\n    uint256 constant _guardian = 40;\r\n    uint256 constant _glutton = 30;\r\n    uint256 constant _buffoon = 20;\r\n    uint256 constant _destroyer = 50;\r\n    uint256 constant _deadly = 40;\r\n    uint256 constant _authority = 1;\r\n    uint256 constant _revenger = 100;\r\n\r\n    function battle(NokaiStats.Profile memory attacker, NokaiStats.Profile memory defender) external pure returns (uint256, uint256, uint256) {\r\n        uint256 attackerHp = attacker.currentHp;\r\n        uint256 defenderHp = defender.currentHp;\r\n\r\n        uint256 attackerDPS = _calculateDPS(attacker, defender);\r\n        uint256 defenderDPS = _calculateDPS(defender, attacker);\r\n\r\n        uint256 attackerTurns = defenderHp / attackerDPS;\r\n        uint256 defenderTurns = attackerHp / defenderDPS;\r\n\r\n        if (attackerTurns <= defenderTurns) {\r\n            defenderHp = 0;\r\n            if (hasTechnique(defender, NokaiTechnique.Technique.REVENGER)) {\r\n                attackerHp = minus(attackerHp, (attackerTurns * defenderDPS) + ((_revenger * defenderDPS / 100) * 2));\r\n            } else {\r\n                attackerHp = minus(attackerHp, attackerTurns * defenderDPS);\r\n            }\r\n        } else {\r\n            attackerHp = 0;\r\n            if (hasTechnique(attacker, NokaiTechnique.Technique.REVENGER)) {\r\n                defenderHp = minus(defenderHp, defenderTurns * attackerDPS) + ((_revenger * attackerDPS / 100) * 2);\r\n            } else {\r\n                defenderHp = minus(defenderHp, defenderTurns * attackerDPS);\r\n            }\r\n        }\r\n\r\n        if (attackerHp == 0 && attacker.stats.gradeValue > defender.stats.gradeValue && hasTechnique(attacker, NokaiTechnique.Technique.AUTHORITY)) {\r\n            attackerHp = _authority;\r\n        }\r\n        if (defenderHp == 0 && defender.stats.gradeValue > attacker.stats.gradeValue && hasTechnique(defender, NokaiTechnique.Technique.AUTHORITY)) {\r\n            defenderHp = _authority;\r\n        }\r\n\r\n        return (attackerTurns > defenderTurns ? defenderTurns : attackerTurns, attackerHp, defenderHp);\r\n    }\r\n\r\n    function _calculateDPS(NokaiStats.Profile memory nokai, NokaiStats.Profile memory opponent) internal pure returns (uint256) {\r\n        uint256 nokaiAttack = nokai.stats.attack;\r\n        uint256 opponentAttack = opponent.stats.attack;\r\n        uint256 opponentDefense = opponent.stats.defense;\r\n        uint256 output = 100;\r\n\r\n        // apply MALUS\r\n        if (missTechnique(nokai, NokaiTechnique.Technique.FOOL)) {\r\n            if (hasTechnique(opponent, NokaiTechnique.Technique.GUARDIAN)) {\r\n                output = minus(output, _guardian);\r\n            }\r\n            if (hasTechnique(opponent, NokaiTechnique.Technique.BUFFOON)) {\r\n                nokaiAttack = reduce(nokaiAttack, _buffoon);\r\n            }\r\n        }\r\n        // apply BONUS\r\n        if (missTechnique(opponent, NokaiTechnique.Technique.FOOL)) {\r\n\r\n            if (hasTechnique(nokai, NokaiTechnique.Technique.GLUTTON)) {\r\n                nokaiAttack += percent(opponentAttack, _glutton);\r\n            }\r\n            if (hasTechnique(nokai, NokaiTechnique.Technique.BUFFOON)) {\r\n                opponentDefense = reduce(opponentDefense, _buffoon);\r\n            }\r\n            if (hasTechnique(nokai, NokaiTechnique.Technique.DESTROYER)) {\r\n                opponentDefense = reduce(opponentDefense, _destroyer);\r\n            }\r\n            if (hasTechnique(nokai, NokaiTechnique.Technique.DEADLY)) {\r\n                nokaiAttack += percent(nokaiAttack, _deadly);\r\n            }\r\n        }\r\n\r\n        if (hasTechnique(nokai, NokaiTechnique.Technique.SPECIALIST) && missTechnique(opponent, NokaiTechnique.Technique.FOOL)) {\r\n            output -= _guardian;\r\n            return Math.max(percent(minus(percent(nokaiAttack, _specialist), opponentDefense) * 2, output), 1);\r\n        } else {\r\n            return Math.max(percent(minus(nokaiAttack, opponentDefense), output), 1);\r\n        }\r\n    }\r\n\r\n    function hasTechnique(NokaiStats.Profile memory nokai, NokaiTechnique.Technique technique) internal pure returns (bool) {\r\n        return nokai.stats.technique1 == technique || nokai.stats.technique2 == technique;\r\n    }\r\n\r\n    function missTechnique(NokaiStats.Profile memory nokai, NokaiTechnique.Technique technique) internal pure returns (bool) {\r\n        return nokai.stats.technique1 != technique && nokai.stats.technique2 != technique;\r\n    }\r\n\r\n    function minus(uint256 a, uint256 b) internal pure returns (uint256) {\r\n        if (b >= a) return 0;\r\n        return a - b;\r\n    }\r\n\r\n    function percent(uint256 v, uint256 p) internal pure returns (uint256) {\r\n        return v * p / 100;\r\n    }\r\n\r\n    function reduce(uint256 v, uint256 p) internal pure returns (uint256) {\r\n        return minus(v, v * p / 100);\r\n    }\r\n}\r\n",
  "sourcePath": "C:\\Users\\KevinGeorgesAndres\\Documents\\projects\\perso\\blackhole-evm\\contracts\\game\\BattleLogic.sol",
  "compiler": {
    "name": "solc",
    "version": "0.8.0+commit.c7dfd78e.Emscripten.clang"
  },
  "schemaVersion": "3.4.3",
  "updatedAt": "2021-12-03T11:00:21.953Z",
  "devdoc": {
    "kind": "dev",
    "methods": {},
    "version": 1
  },
  "userdoc": {
    "kind": "user",
    "methods": {},
    "version": 1
  }
}