{
  "contractName": "BlackHole",
  "abi": [
    {
      "inputs": [
        {
          "internalType": "uint16",
          "name": "_width",
          "type": "uint16"
        },
        {
          "internalType": "uint16",
          "name": "_height",
          "type": "uint16"
        }
      ],
      "stateMutability": "nonpayable",
      "type": "constructor"
    },
    {
      "anonymous": false,
      "inputs": [
        {
          "indexed": false,
          "internalType": "uint16",
          "name": "x",
          "type": "uint16"
        },
        {
          "indexed": false,
          "internalType": "uint16",
          "name": "y",
          "type": "uint16"
        },
        {
          "indexed": false,
          "internalType": "address",
          "name": "by",
          "type": "address"
        },
        {
          "indexed": false,
          "internalType": "uint256",
          "name": "level",
          "type": "uint256"
        }
      ],
      "name": "ExtractorUpgraded",
      "type": "event"
    },
    {
      "anonymous": false,
      "inputs": [
        {
          "indexed": false,
          "internalType": "uint16",
          "name": "fromX",
          "type": "uint16"
        },
        {
          "indexed": false,
          "internalType": "uint16",
          "name": "fromY",
          "type": "uint16"
        },
        {
          "indexed": false,
          "internalType": "uint16",
          "name": "toX",
          "type": "uint16"
        },
        {
          "indexed": false,
          "internalType": "uint16",
          "name": "toY",
          "type": "uint16"
        },
        {
          "indexed": true,
          "internalType": "uint256",
          "name": "nokai",
          "type": "uint256"
        },
        {
          "indexed": true,
          "internalType": "address",
          "name": "owner",
          "type": "address"
        }
      ],
      "name": "NokaiMoved",
      "type": "event"
    },
    {
      "anonymous": false,
      "inputs": [
        {
          "indexed": true,
          "internalType": "bytes32",
          "name": "role",
          "type": "bytes32"
        },
        {
          "indexed": true,
          "internalType": "bytes32",
          "name": "previousAdminRole",
          "type": "bytes32"
        },
        {
          "indexed": true,
          "internalType": "bytes32",
          "name": "newAdminRole",
          "type": "bytes32"
        }
      ],
      "name": "RoleAdminChanged",
      "type": "event"
    },
    {
      "anonymous": false,
      "inputs": [
        {
          "indexed": true,
          "internalType": "bytes32",
          "name": "role",
          "type": "bytes32"
        },
        {
          "indexed": true,
          "internalType": "address",
          "name": "account",
          "type": "address"
        },
        {
          "indexed": true,
          "internalType": "address",
          "name": "sender",
          "type": "address"
        }
      ],
      "name": "RoleGranted",
      "type": "event"
    },
    {
      "anonymous": false,
      "inputs": [
        {
          "indexed": true,
          "internalType": "bytes32",
          "name": "role",
          "type": "bytes32"
        },
        {
          "indexed": true,
          "internalType": "address",
          "name": "account",
          "type": "address"
        },
        {
          "indexed": true,
          "internalType": "address",
          "name": "sender",
          "type": "address"
        }
      ],
      "name": "RoleRevoked",
      "type": "event"
    },
    {
      "anonymous": false,
      "inputs": [
        {
          "indexed": false,
          "internalType": "uint16",
          "name": "x",
          "type": "uint16"
        },
        {
          "indexed": false,
          "internalType": "uint16",
          "name": "y",
          "type": "uint16"
        },
        {
          "indexed": true,
          "internalType": "address",
          "name": "previousOwner",
          "type": "address"
        },
        {
          "indexed": true,
          "internalType": "address",
          "name": "newOwner",
          "type": "address"
        }
      ],
      "name": "SlotConquered",
      "type": "event"
    },
    {
      "anonymous": false,
      "inputs": [
        {
          "indexed": false,
          "internalType": "uint16",
          "name": "x",
          "type": "uint16"
        },
        {
          "indexed": false,
          "internalType": "uint16",
          "name": "y",
          "type": "uint16"
        },
        {
          "indexed": false,
          "internalType": "address",
          "name": "by",
          "type": "address"
        }
      ],
      "name": "SlotDiscovered",
      "type": "event"
    },
    {
      "anonymous": false,
      "inputs": [
        {
          "indexed": false,
          "internalType": "uint16",
          "name": "x",
          "type": "uint16"
        },
        {
          "indexed": false,
          "internalType": "uint16",
          "name": "y",
          "type": "uint16"
        },
        {
          "indexed": false,
          "internalType": "address",
          "name": "by",
          "type": "address"
        }
      ],
      "name": "TerritoryExtracted",
      "type": "event"
    },
    {
      "inputs": [],
      "name": "DEFAULT_ADMIN_ROLE",
      "outputs": [
        {
          "internalType": "bytes32",
          "name": "",
          "type": "bytes32"
        }
      ],
      "stateMutability": "view",
      "type": "function"
    },
    {
      "inputs": [],
      "name": "GAME_MANAGER_ROLE",
      "outputs": [
        {
          "internalType": "bytes32",
          "name": "",
          "type": "bytes32"
        }
      ],
      "stateMutability": "view",
      "type": "function"
    },
    {
      "inputs": [
        {
          "internalType": "bytes32",
          "name": "role",
          "type": "bytes32"
        }
      ],
      "name": "getRoleAdmin",
      "outputs": [
        {
          "internalType": "bytes32",
          "name": "",
          "type": "bytes32"
        }
      ],
      "stateMutability": "view",
      "type": "function"
    },
    {
      "inputs": [
        {
          "internalType": "bytes32",
          "name": "role",
          "type": "bytes32"
        },
        {
          "internalType": "address",
          "name": "account",
          "type": "address"
        }
      ],
      "name": "grantRole",
      "outputs": [],
      "stateMutability": "nonpayable",
      "type": "function"
    },
    {
      "inputs": [
        {
          "internalType": "bytes32",
          "name": "role",
          "type": "bytes32"
        },
        {
          "internalType": "address",
          "name": "account",
          "type": "address"
        }
      ],
      "name": "hasRole",
      "outputs": [
        {
          "internalType": "bool",
          "name": "",
          "type": "bool"
        }
      ],
      "stateMutability": "view",
      "type": "function"
    },
    {
      "inputs": [],
      "name": "maxX",
      "outputs": [
        {
          "internalType": "uint16",
          "name": "",
          "type": "uint16"
        }
      ],
      "stateMutability": "view",
      "type": "function"
    },
    {
      "inputs": [],
      "name": "maxY",
      "outputs": [
        {
          "internalType": "uint16",
          "name": "",
          "type": "uint16"
        }
      ],
      "stateMutability": "view",
      "type": "function"
    },
    {
      "inputs": [
        {
          "internalType": "bytes32",
          "name": "role",
          "type": "bytes32"
        },
        {
          "internalType": "address",
          "name": "account",
          "type": "address"
        }
      ],
      "name": "renounceRole",
      "outputs": [],
      "stateMutability": "nonpayable",
      "type": "function"
    },
    {
      "inputs": [
        {
          "internalType": "bytes32",
          "name": "role",
          "type": "bytes32"
        },
        {
          "internalType": "address",
          "name": "account",
          "type": "address"
        }
      ],
      "name": "revokeRole",
      "outputs": [],
      "stateMutability": "nonpayable",
      "type": "function"
    },
    {
      "inputs": [
        {
          "internalType": "bytes4",
          "name": "interfaceId",
          "type": "bytes4"
        }
      ],
      "name": "supportsInterface",
      "outputs": [
        {
          "internalType": "bool",
          "name": "",
          "type": "bool"
        }
      ],
      "stateMutability": "view",
      "type": "function"
    },
    {
      "inputs": [],
      "name": "totalPos",
      "outputs": [
        {
          "internalType": "uint256",
          "name": "",
          "type": "uint256"
        }
      ],
      "stateMutability": "view",
      "type": "function"
    },
    {
      "inputs": [
        {
          "internalType": "uint16",
          "name": "x",
          "type": "uint16"
        },
        {
          "internalType": "uint16",
          "name": "y",
          "type": "uint16"
        },
        {
          "internalType": "address",
          "name": "by",
          "type": "address"
        }
      ],
      "name": "completeExtraction",
      "outputs": [
        {
          "internalType": "uint256",
          "name": "",
          "type": "uint256"
        },
        {
          "internalType": "uint256",
          "name": "",
          "type": "uint256"
        },
        {
          "internalType": "uint256",
          "name": "",
          "type": "uint256"
        },
        {
          "internalType": "uint256",
          "name": "",
          "type": "uint256"
        }
      ],
      "stateMutability": "nonpayable",
      "type": "function"
    },
    {
      "inputs": [
        {
          "internalType": "uint16",
          "name": "x",
          "type": "uint16"
        },
        {
          "internalType": "uint16",
          "name": "y",
          "type": "uint16"
        },
        {
          "internalType": "address",
          "name": "by",
          "type": "address"
        }
      ],
      "name": "upgradeExtractor",
      "outputs": [],
      "stateMutability": "nonpayable",
      "type": "function"
    },
    {
      "inputs": [
        {
          "internalType": "uint16",
          "name": "x",
          "type": "uint16"
        },
        {
          "internalType": "uint16",
          "name": "y",
          "type": "uint16"
        },
        {
          "internalType": "uint256",
          "name": "nokaiId",
          "type": "uint256"
        },
        {
          "internalType": "address",
          "name": "by",
          "type": "address"
        }
      ],
      "name": "assignNokai",
      "outputs": [],
      "stateMutability": "nonpayable",
      "type": "function"
    },
    {
      "inputs": [
        {
          "internalType": "uint16",
          "name": "x",
          "type": "uint16"
        },
        {
          "internalType": "uint16",
          "name": "y",
          "type": "uint16"
        },
        {
          "internalType": "uint256",
          "name": "nokaiId",
          "type": "uint256"
        }
      ],
      "name": "withdrawDeadNokai",
      "outputs": [],
      "stateMutability": "nonpayable",
      "type": "function"
    },
    {
      "inputs": [
        {
          "internalType": "uint16",
          "name": "x",
          "type": "uint16"
        },
        {
          "internalType": "uint16",
          "name": "y",
          "type": "uint16"
        },
        {
          "internalType": "uint256",
          "name": "nokaiId",
          "type": "uint256"
        },
        {
          "internalType": "address",
          "name": "by",
          "type": "address"
        }
      ],
      "name": "withdrawNokai",
      "outputs": [],
      "stateMutability": "nonpayable",
      "type": "function"
    },
    {
      "inputs": [
        {
          "internalType": "uint16",
          "name": "fromX",
          "type": "uint16"
        },
        {
          "internalType": "uint16",
          "name": "fromY",
          "type": "uint16"
        },
        {
          "internalType": "uint16",
          "name": "toX",
          "type": "uint16"
        },
        {
          "internalType": "uint16",
          "name": "toY",
          "type": "uint16"
        },
        {
          "internalType": "address",
          "name": "by",
          "type": "address"
        }
      ],
      "name": "conquest",
      "outputs": [],
      "stateMutability": "nonpayable",
      "type": "function"
    },
    {
      "inputs": [
        {
          "internalType": "uint16",
          "name": "fromX",
          "type": "uint16"
        },
        {
          "internalType": "uint16",
          "name": "fromY",
          "type": "uint16"
        },
        {
          "internalType": "uint16",
          "name": "toX",
          "type": "uint16"
        },
        {
          "internalType": "uint16",
          "name": "toY",
          "type": "uint16"
        },
        {
          "internalType": "address",
          "name": "by",
          "type": "address"
        }
      ],
      "name": "move",
      "outputs": [],
      "stateMutability": "nonpayable",
      "type": "function"
    },
    {
      "inputs": [
        {
          "internalType": "uint16",
          "name": "x",
          "type": "uint16"
        },
        {
          "internalType": "uint16",
          "name": "y",
          "type": "uint16"
        }
      ],
      "name": "nokaiAt",
      "outputs": [
        {
          "internalType": "uint256",
          "name": "",
          "type": "uint256"
        }
      ],
      "stateMutability": "view",
      "type": "function"
    },
    {
      "inputs": [
        {
          "internalType": "uint256",
          "name": "nokaiId",
          "type": "uint256"
        }
      ],
      "name": "nokaiPos",
      "outputs": [
        {
          "components": [
            {
              "internalType": "bool",
              "name": "onBoard",
              "type": "bool"
            },
            {
              "internalType": "uint16",
              "name": "x",
              "type": "uint16"
            },
            {
              "internalType": "uint16",
              "name": "y",
              "type": "uint16"
            }
          ],
          "internalType": "struct BlackHole.Position",
          "name": "",
          "type": "tuple"
        }
      ],
      "stateMutability": "view",
      "type": "function"
    },
    {
      "inputs": [
        {
          "internalType": "address",
          "name": "user",
          "type": "address"
        }
      ],
      "name": "territoryCount",
      "outputs": [
        {
          "internalType": "uint256",
          "name": "",
          "type": "uint256"
        }
      ],
      "stateMutability": "view",
      "type": "function"
    },
    {
      "inputs": [
        {
          "internalType": "uint16",
          "name": "x",
          "type": "uint16"
        },
        {
          "internalType": "uint16",
          "name": "y",
          "type": "uint16"
        }
      ],
      "name": "extractorCostAt",
      "outputs": [
        {
          "internalType": "uint256",
          "name": "",
          "type": "uint256"
        }
      ],
      "stateMutability": "view",
      "type": "function"
    },
    {
      "inputs": [
        {
          "internalType": "uint16",
          "name": "x",
          "type": "uint16"
        },
        {
          "internalType": "uint16",
          "name": "y",
          "type": "uint16"
        }
      ],
      "name": "get",
      "outputs": [
        {
          "components": [
            {
              "internalType": "uint16",
              "name": "x",
              "type": "uint16"
            },
            {
              "internalType": "uint16",
              "name": "y",
              "type": "uint16"
            },
            {
              "internalType": "uint256",
              "name": "darkEnergy",
              "type": "uint256"
            },
            {
              "internalType": "uint256",
              "name": "darkMatter",
              "type": "uint256"
            },
            {
              "internalType": "uint256",
              "name": "plasmaEnergy",
              "type": "uint256"
            },
            {
              "internalType": "uint256",
              "name": "voidEssence",
              "type": "uint256"
            },
            {
              "components": [
                {
                  "internalType": "uint256",
                  "name": "level",
                  "type": "uint256"
                },
                {
                  "internalType": "uint256",
                  "name": "cost",
                  "type": "uint256"
                },
                {
                  "internalType": "uint256",
                  "name": "lastExtract",
                  "type": "uint256"
                }
              ],
              "internalType": "struct BlackHole.Extractor",
              "name": "extractor",
              "type": "tuple"
            },
            {
              "internalType": "uint256",
              "name": "nokai",
              "type": "uint256"
            },
            {
              "internalType": "address",
              "name": "owner",
              "type": "address"
            },
            {
              "internalType": "bool",
              "name": "discovered",
              "type": "bool"
            }
          ],
          "internalType": "struct BlackHole.Territory",
          "name": "",
          "type": "tuple"
        }
      ],
      "stateMutability": "view",
      "type": "function"
    },
    {
      "inputs": [],
      "name": "getBlackHole",
      "outputs": [
        {
          "components": [
            {
              "internalType": "uint16",
              "name": "x",
              "type": "uint16"
            },
            {
              "internalType": "uint16",
              "name": "y",
              "type": "uint16"
            },
            {
              "internalType": "uint256",
              "name": "darkEnergy",
              "type": "uint256"
            },
            {
              "internalType": "uint256",
              "name": "darkMatter",
              "type": "uint256"
            },
            {
              "internalType": "uint256",
              "name": "plasmaEnergy",
              "type": "uint256"
            },
            {
              "internalType": "uint256",
              "name": "voidEssence",
              "type": "uint256"
            },
            {
              "components": [
                {
                  "internalType": "uint256",
                  "name": "level",
                  "type": "uint256"
                },
                {
                  "internalType": "uint256",
                  "name": "cost",
                  "type": "uint256"
                },
                {
                  "internalType": "uint256",
                  "name": "lastExtract",
                  "type": "uint256"
                }
              ],
              "internalType": "struct BlackHole.Extractor",
              "name": "extractor",
              "type": "tuple"
            },
            {
              "internalType": "uint256",
              "name": "nokai",
              "type": "uint256"
            },
            {
              "internalType": "address",
              "name": "owner",
              "type": "address"
            },
            {
              "internalType": "bool",
              "name": "discovered",
              "type": "bool"
            }
          ],
          "internalType": "struct BlackHole.Territory[]",
          "name": "",
          "type": "tuple[]"
        }
      ],
      "stateMutability": "view",
      "type": "function"
    }
  ],
  "bytecode": "0x60806040523480156200001157600080fd5b5060405162004889380380620048898339818101604052810190620000379190620004cb565b81600160006101000a81548161ffff021916908361ffff16021790555080600160026101000a81548161ffff021916908361ffff160217905550600160029054906101000a900461ffff16600160009054906101000a900461ffff166200009f919062000583565b61ffff16600281905550620000c860006001023362000320640100000000026401000000009004565b6040518061014001604052806002600160009054906101000a900461ffff16620000f391906200054b565b61ffff1681526020016002600160029054906101000a900461ffff166200011b91906200054b565b61ffff168152602001600a81526020016064815260200160648152602001606481526020016040518060600160405280600181526020016103e8815260200142815250815260200160008152602001600073ffffffffffffffffffffffffffffffffffffffff16815260200160011515815250600460006002600160009054906101000a900461ffff16620001b191906200054b565b600160009054906101000a900461ffff166002600160029054906101000a900461ffff16620001e191906200054b565b620001ed919062000583565b620001f991906200050c565b61ffff16815260200190815260200160002060008201518160000160006101000a81548161ffff021916908361ffff16021790555060208201518160000160026101000a81548161ffff021916908361ffff16021790555060408201518160010155606082015181600201556080820151816003015560a0820151816004015560c082015181600501600082015181600001556020820151816001015560408201518160020155505060e082015181600801556101008201518160090160006101000a81548173ffffffffffffffffffffffffffffffffffffffff021916908373ffffffffffffffffffffffffffffffffffffffff1602179055506101208201518160090160146101000a81548160ff02191690831515021790555090505050506200064c565b6200033b82826200033f640100000000026401000000009004565b5050565b6200035a828262000442640100000000026401000000009004565b6200043e57600160008084815260200190815260200160002060000160008373ffffffffffffffffffffffffffffffffffffffff1673ffffffffffffffffffffffffffffffffffffffff16815260200190815260200160002060006101000a81548160ff021916908315150217905550620003e3620004ac640100000000026401000000009004565b73ffffffffffffffffffffffffffffffffffffffff168173ffffffffffffffffffffffffffffffffffffffff16837f2f8788117e7eff1d82e926ec794901d17c78024a50270940304540a733656f0d60405160405180910390a45b5050565b600080600084815260200190815260200160002060000160008373ffffffffffffffffffffffffffffffffffffffff1673ffffffffffffffffffffffffffffffffffffffff16815260200190815260200160002060009054906101000a900460ff16905092915050565b600033905090565b600081519050620004c58162000632565b92915050565b60008060408385031215620004df57600080fd5b6000620004ef85828601620004b4565b92505060206200050285828601620004b4565b9150509250929050565b60006200051982620005c6565b91506200052683620005c6565b92508261ffff0382111562000540576200053f620005d4565b5b828201905092915050565b60006200055882620005c6565b91506200056583620005c6565b92508262000578576200057762000603565b5b828204905092915050565b60006200059082620005c6565b91506200059d83620005c6565b92508161ffff0483118215151615620005bb57620005ba620005d4565b5b828202905092915050565b600061ffff82169050919050565b7f4e487b7100000000000000000000000000000000000000000000000000000000600052601160045260246000fd5b7f4e487b7100000000000000000000000000000000000000000000000000000000600052601260045260246000fd5b6200063d81620005c6565b81146200064957600080fd5b50565b61422d806200065c6000396000f3fe608060405234801561001057600080fd5b5060043610610175576000357c0100000000000000000000000000000000000000000000000000000000900480638b04f647116100e0578063b24baccb11610099578063b24baccb1461041d578063cad86e511461044d578063d547741f14610469578063e86a59c414610485578063ff6fcdbd146104a3578063ff7ae6ee146104c157610175565b80638b04f647146103495780638e817b411461036757806391d148541461038357806394951550146103b35780639bd0f28b146103e3578063a217fddf146103ff57610175565b80634be4f486116101325780634be4f4861461027557806367ed369714610291578063684fad90146102c157806370d20d3e146102f157806385fc69401461030f5780638ad6dfdf1461032b57610175565b806301ffc9a71461017a57806308be8abb146101aa5780630f2fb69d146101dd578063248a9ca31461020d5780632f2ff15d1461023d57806336568abe14610259575b600080fd5b610194600480360381019061018f9190612ddf565b6104dd565b6040516101a191906139ba565b60405180910390f35b6101c460048036038101906101bf9190612e44565b610557565b6040516101d49493929190613d09565b60405180910390f35b6101f760048036038101906101f29190612d51565b6108cd565b6040516102049190613cee565b60405180910390f35b61022760048036038101906102229190612d7a565b610916565b60405161023491906139d5565b60405180910390f35b61025760048036038101906102529190612da3565b610935565b005b610273600480360381019061026e9190612da3565b61095e565b005b61028f600480360381019061028a9190612e44565b6109e1565b005b6102ab60048036038101906102a69190612fbc565b610bc3565b6040516102b89190613bb2565b60405180910390f35b6102db60048036038101906102d69190612e08565b610c4b565b6040516102e89190613cee565b60405180910390f35b6102f9610c96565b6040516103069190613be9565b60405180910390f35b61032960048036038101906103249190612e93565b610caa565b005b6103336112c4565b6040516103409190613998565b60405180910390f35b610351611517565b60405161035e9190613be9565b60405180910390f35b610381600480360381019061037c9190612f0a565b61152b565b005b61039d60048036038101906103989190612da3565b611597565b6040516103aa91906139ba565b60405180910390f35b6103cd60048036038101906103c89190612e08565b611601565b6040516103da9190613cee565b60405180910390f35b6103fd60048036038101906103f89190612f59565b61164f565b005b6104076117bf565b60405161041491906139d5565b60405180910390f35b61043760048036038101906104329190612e08565b6117c7565b6040516104449190613bcd565b60405180910390f35b61046760048036038101906104629190612f59565b611935565b005b610483600480360381019061047e9190612da3565b611a05565b005b61048d611a2e565b60405161049a9190613cee565b60405180910390f35b6104ab611a34565b6040516104b891906139d5565b60405180910390f35b6104db60048036038101906104d69190612e93565b611a58565b005b60007f7965db0b000000000000000000000000000000000000000000000000000000007bffffffffffffffffffffffffffffffffffffffffffffffffffffffff1916827bffffffffffffffffffffffffffffffffffffffffffffffffffffffff19161480610550575061054f82611d47565b5b9050919050565b6000806000807fef17b1f3c5a412f9c8e887e3abd186802afec7dc657fd3b7002bf87b128dd0b161058f8161058a611db1565b611db9565b600088600160009054906101000a900461ffff16896105ae9190613e6d565b6105b89190613dae565b61ffff1690508673ffffffffffffffffffffffffffffffffffffffff166004600083815260200190815260200160002060090160009054906101000a900473ffffffffffffffffffffffffffffffffffffffff1673ffffffffffffffffffffffffffffffffffffffff1614610662576040517f08c379a000000000000000000000000000000000000000000000000000000000815260040161065990613b12565b60405180910390fd5b6000610e1060046000848152602001908152602001600020600501600201544261068c9190613f37565b6106969190613e3c565b9050426004600084815260200190815260200160002060050160020181905550600080600460008581526020019081526020016000206001015414156106dd576000610724565b81600460008581526020019081526020016000206005016000015460046000868152602001908152602001600020600101546107199190613ea9565b6107239190613ea9565b5b90506000806004600086815260200190815260200160002060020154141561074d576000610794565b82600460008681526020019081526020016000206005016000015460046000878152602001908152602001600020600201546107899190613ea9565b6107939190613ea9565b5b9050600080600460008781526020019081526020016000206003015414156107bd576000610804565b83600460008781526020019081526020016000206005016000015460046000888152602001908152602001600020600301546107f99190613ea9565b6108039190613ea9565b5b90506000806004600088815260200190815260200160002060040154141561082d576000610874565b84600460008881526020019081526020016000206005016000015460046000898152602001908152602001600020600401546108699190613ea9565b6108739190613ea9565b5b90507f49f00360f1bf5498a47c8bca06199209dcc94e1d9087f2d36afc4c0a30f7f1aa8e8e8e6040516108a993929190613c2d565b60405180910390a1838383839a509a509a509a505050505050505093509350935093565b6000600360008373ffffffffffffffffffffffffffffffffffffffff1673ffffffffffffffffffffffffffffffffffffffff168152602001908152602001600020549050919050565b6000806000838152602001908152602001600020600101549050919050565b61093e82610916565b61094f8161094a611db1565b611db9565b6109598383611e57565b505050565b610966611db1565b73ffffffffffffffffffffffffffffffffffffffff168173ffffffffffffffffffffffffffffffffffffffff16146109d3576040517f08c379a00000000000000000000000000000000000000000000000000000000081526004016109ca90613b92565b60405180910390fd5b6109dd8282611f37565b5050565b7fef17b1f3c5a412f9c8e887e3abd186802afec7dc657fd3b7002bf87b128dd0b1610a1381610a0e611db1565b611db9565b600084600160009054906101000a900461ffff1685610a329190613e6d565b610a3c9190613dae565b61ffff1690508273ffffffffffffffffffffffffffffffffffffffff166004600083815260200190815260200160002060090160009054906101000a900473ffffffffffffffffffffffffffffffffffffffff1673ffffffffffffffffffffffffffffffffffffffff1614610ae6576040517f08c379a0000000000000000000000000000000000000000000000000000000008152600401610add90613b12565b60405180910390fd5b6001600460008381526020019081526020016000206005016000016000828254610b109190613de6565b925050819055506002600460008381526020019081526020016000206005016001016000828254610b419190613ea9565b925050819055504260046000838152602001908152602001600020600501600201819055507fb01f61f96739051313598e07a91ff2905b43a10aea863413abec3e20f00e41f88585856004600086815260200190815260200160002060050160000154604051610bb49493929190613c64565b60405180910390a15050505050565b610bcb612c23565b600560008381526020019081526020016000206040518060600160405290816000820160009054906101000a900460ff161515151581526020016000820160019054906101000a900461ffff1661ffff1661ffff1681526020016000820160039054906101000a900461ffff1661ffff1661ffff16815250509050919050565b60006004600084600160009054906101000a900461ffff1685610c6e9190613e6d565b610c789190613dae565b61ffff16815260200190815260200160002060080154905092915050565b600160009054906101000a900461ffff1681565b7fef17b1f3c5a412f9c8e887e3abd186802afec7dc657fd3b7002bf87b128dd0b1610cdc81610cd7611db1565b611db9565b600084600160009054906101000a900461ffff1685610cfb9190613e6d565b610d059190613dae565b61ffff169050600085600160009054906101000a900461ffff1686610d2a9190613e6d565b610d349190613dae565b61ffff1690508373ffffffffffffffffffffffffffffffffffffffff166004600084815260200190815260200160002060090160009054906101000a900473ffffffffffffffffffffffffffffffffffffffff1673ffffffffffffffffffffffffffffffffffffffff1614610dde576040517f08c379a0000000000000000000000000000000000000000000000000000000008152600401610dd590613ab2565b60405180910390fd5b6004600082815260200190815260200160002060090160009054906101000a900473ffffffffffffffffffffffffffffffffffffffff1673ffffffffffffffffffffffffffffffffffffffff166004600084815260200190815260200160002060090160009054906101000a900473ffffffffffffffffffffffffffffffffffffffff1673ffffffffffffffffffffffffffffffffffffffff161415610eb9576040517f08c379a0000000000000000000000000000000000000000000000000000000008152600401610eb090613af2565b60405180910390fd5b6000600460008381526020019081526020016000206008015414610f12576040517f08c379a0000000000000000000000000000000000000000000000000000000008152600401610f0990613a52565b60405180910390fd5b600060046000848152602001908152602001600020600801541415610f6c576040517f08c379a0000000000000000000000000000000000000000000000000000000008152600401610f6390613a32565b60405180910390fd5b60006004600083815260200190815260200160002060090160009054906101000a900473ffffffffffffffffffffffffffffffffffffffff1690506000600360008373ffffffffffffffffffffffffffffffffffffffff1673ffffffffffffffffffffffffffffffffffffffff1681526020019081526020016000205411610ff5576000611042565b6001600360008373ffffffffffffffffffffffffffffffffffffffff1673ffffffffffffffffffffffffffffffffffffffff168152602001908152602001600020546110419190613f37565b5b600360008373ffffffffffffffffffffffffffffffffffffffff1673ffffffffffffffffffffffffffffffffffffffff168152602001908152602001600020819055506001600360008773ffffffffffffffffffffffffffffffffffffffff1673ffffffffffffffffffffffffffffffffffffffff16815260200190815260200160002060008282546110d59190613de6565b92505081905550846004600084815260200190815260200160002060090160006101000a81548173ffffffffffffffffffffffffffffffffffffffff021916908373ffffffffffffffffffffffffffffffffffffffff160217905550611154828888600460008881526020019081526020016000206008015489612018565b600060046000858152602001908152602001600020600801819055506111b187876004600087815260200190815260200160002060090160009054906101000a900473ffffffffffffffffffffffffffffffffffffffff166121c8565b6004600084815260200190815260200160002060090160009054906101000a900473ffffffffffffffffffffffffffffffffffffffff1673ffffffffffffffffffffffffffffffffffffffff1660046000848152602001908152602001600020600801547f67a6f2fb053652dd7425e63562e24bdf462b177cd1b8dff273fe8b77916a242e8b8b8b8b60405161124a9493929190613ca9565b60405180910390a38473ffffffffffffffffffffffffffffffffffffffff168173ffffffffffffffffffffffffffffffffffffffff167fea589a3cca623dcd8e51689d3b9eb0134fe2019a64e8bc9a76d281a63a95ff0789896040516112b1929190613c04565b60405180910390a3505050505050505050565b60606000600160009054906101000a900461ffff16600160029054906101000a900461ffff166112f49190613e6d565b61ffff16905060008167ffffffffffffffff81111561133c577f4e487b7100000000000000000000000000000000000000000000000000000000600052604160045260246000fd5b60405190808252806020026020018201604052801561137557816020015b611362612c4e565b81526020019060019003908161135a5790505b50905060005b8281101561150e5760046000828152602001908152602001600020604051806101400160405290816000820160009054906101000a900461ffff1661ffff1661ffff1681526020016000820160029054906101000a900461ffff1661ffff1661ffff168152602001600182015481526020016002820154815260200160038201548152602001600482015481526020016005820160405180606001604052908160008201548152602001600182015481526020016002820154815250508152602001600882015481526020016009820160009054906101000a900473ffffffffffffffffffffffffffffffffffffffff1673ffffffffffffffffffffffffffffffffffffffff1673ffffffffffffffffffffffffffffffffffffffff1681526020016009820160149054906101000a900460ff1615151515815250508282815181106114f0577f4e487b7100000000000000000000000000000000000000000000000000000000600052603260045260246000fd5b6020026020010181905250808061150690614054565b91505061137b565b50809250505090565b600160029054906101000a900461ffff1681565b7fef17b1f3c5a412f9c8e887e3abd186802afec7dc657fd3b7002bf87b128dd0b161155d81611558611db1565b611db9565b61159184600160009054906101000a900461ffff168561157d9190613e6d565b6115879190613dae565b61ffff168361226f565b50505050565b600080600084815260200190815260200160002060000160008373ffffffffffffffffffffffffffffffffffffffff1673ffffffffffffffffffffffffffffffffffffffff16815260200190815260200160002060009054906101000a900460ff16905092915050565b60006004600084600160009054906101000a900461ffff16856116249190613e6d565b61162e9190613dae565b61ffff16815260200190815260200160002060050160010154905092915050565b7fef17b1f3c5a412f9c8e887e3abd186802afec7dc657fd3b7002bf87b128dd0b16116818161167c611db1565b611db9565b600085600160009054906101000a900461ffff16866116a09190613e6d565b6116aa9190613dae565b61ffff1690508273ffffffffffffffffffffffffffffffffffffffff166004600083815260200190815260200160002060090160009054906101000a900473ffffffffffffffffffffffffffffffffffffffff1673ffffffffffffffffffffffffffffffffffffffff1614611754576040517f08c379a000000000000000000000000000000000000000000000000000000000815260040161174b90613a92565b60405180910390fd5b60016004600083815260200190815260200160002060080154146117ad576040517f08c379a00000000000000000000000000000000000000000000000000000000081526004016117a490613a72565b60405180910390fd5b6117b7818561226f565b505050505050565b600060010281565b6117cf612c4e565b6004600084600160009054906101000a900461ffff16856117f09190613e6d565b6117fa9190613dae565b61ffff168152602001908152602001600020604051806101400160405290816000820160009054906101000a900461ffff1661ffff1661ffff1681526020016000820160029054906101000a900461ffff1661ffff1661ffff168152602001600182015481526020016002820154815260200160038201548152602001600482015481526020016005820160405180606001604052908160008201548152602001600182015481526020016002820154815250508152602001600882015481526020016009820160009054906101000a900473ffffffffffffffffffffffffffffffffffffffff1673ffffffffffffffffffffffffffffffffffffffff1673ffffffffffffffffffffffffffffffffffffffff1681526020016009820160149054906101000a900460ff161515151581525050905092915050565b7fef17b1f3c5a412f9c8e887e3abd186802afec7dc657fd3b7002bf87b128dd0b161196781611962611db1565b611db9565b600085600160009054906101000a900461ffff16866119869190613e6d565b6119909190613dae565b61ffff1690506000600360008573ffffffffffffffffffffffffffffffffffffffff1673ffffffffffffffffffffffffffffffffffffffff1681526020019081526020016000205411156119f0576119eb8187878787612018565b6119fd565b6119fc8187878761237a565b5b505050505050565b611a0e82610916565b611a1f81611a1a611db1565b611db9565b611a298383611f37565b505050565b60025481565b7fef17b1f3c5a412f9c8e887e3abd186802afec7dc657fd3b7002bf87b128dd0b181565b7fef17b1f3c5a412f9c8e887e3abd186802afec7dc657fd3b7002bf87b128dd0b1611a8a81611a85611db1565b611db9565b600084600160009054906101000a900461ffff1685611aa99190613e6d565b611ab39190613dae565b61ffff169050600085600160009054906101000a900461ffff1686611ad89190613e6d565b611ae29190613dae565b61ffff1690506004600082815260200190815260200160002060090160009054906101000a900473ffffffffffffffffffffffffffffffffffffffff1673ffffffffffffffffffffffffffffffffffffffff166004600084815260200190815260200160002060090160009054906101000a900473ffffffffffffffffffffffffffffffffffffffff1673ffffffffffffffffffffffffffffffffffffffff1614611bc2576040517f08c379a0000000000000000000000000000000000000000000000000000000008152600401611bb990613b72565b60405180910390fd5b600060046000848152602001908152602001600020600801541415611c1c576040517f08c379a0000000000000000000000000000000000000000000000000000000008152600401611c1390613a32565b60405180910390fd5b611c3f818787600460008781526020019081526020016000206008015488612018565b60006004600084815260200190815260200160002060080181905550611c9c86866004600086815260200190815260200160002060090160009054906101000a900473ffffffffffffffffffffffffffffffffffffffff166121c8565b6004600083815260200190815260200160002060090160009054906101000a900473ffffffffffffffffffffffffffffffffffffffff1673ffffffffffffffffffffffffffffffffffffffff1660046000838152602001908152602001600020600801547f67a6f2fb053652dd7425e63562e24bdf462b177cd1b8dff273fe8b77916a242e8a8a8a8a604051611d359493929190613ca9565b60405180910390a35050505050505050565b60007f01ffc9a7000000000000000000000000000000000000000000000000000000007bffffffffffffffffffffffffffffffffffffffffffffffffffffffff1916827bffffffffffffffffffffffffffffffffffffffffffffffffffffffff1916149050919050565b600033905090565b611dc38282611597565b611e5357611de88173ffffffffffffffffffffffffffffffffffffffff16601461252a565b611df78360019004602061252a565b604051602001611e08929190613921565b6040516020818303038152906040526040517f08c379a0000000000000000000000000000000000000000000000000000000008152600401611e4a91906139f0565b60405180910390fd5b5050565b611e618282611597565b611f3357600160008084815260200190815260200160002060000160008373ffffffffffffffffffffffffffffffffffffffff1673ffffffffffffffffffffffffffffffffffffffff16815260200190815260200160002060006101000a81548160ff021916908315150217905550611ed8611db1565b73ffffffffffffffffffffffffffffffffffffffff168173ffffffffffffffffffffffffffffffffffffffff16837f2f8788117e7eff1d82e926ec794901d17c78024a50270940304540a733656f0d60405160405180910390a45b5050565b611f418282611597565b1561201457600080600084815260200190815260200160002060000160008373ffffffffffffffffffffffffffffffffffffffff1673ffffffffffffffffffffffffffffffffffffffff16815260200190815260200160002060006101000a81548160ff021916908315150217905550611fb9611db1565b73ffffffffffffffffffffffffffffffffffffffff168173ffffffffffffffffffffffffffffffffffffffff16837ff6391f5c32d9c69d2a47ea670b442974b53935d1edc7fd64eb21e047a839171b60405160405180910390a45b5050565b8073ffffffffffffffffffffffffffffffffffffffff166004600087815260200190815260200160002060090160009054906101000a900473ffffffffffffffffffffffffffffffffffffffff1673ffffffffffffffffffffffffffffffffffffffff16146120bc576040517f08c379a00000000000000000000000000000000000000000000000000000000081526004016120b390613a92565b60405180910390fd5b6000600460008781526020019081526020016000206008015414612115576040517f08c379a000000000000000000000000000000000000000000000000000000000815260040161210c90613b52565b60405180910390fd5b81600460008781526020019081526020016000206008018190555060016005600084815260200190815260200160002060000160006101000a81548160ff021916908315150217905550836005600084815260200190815260200160002060000160016101000a81548161ffff021916908361ffff160217905550826005600084815260200190815260200160002060000160036101000a81548161ffff021916908361ffff1602179055505050505050565b6121df6001846121d89190613f03565b838361284b565b6121f6836001846121f09190613f03565b8361284b565b6122196001846122069190613dae565b6001846122139190613f03565b8361284b565b6122306001846122299190613dae565b838361284b565b6122536001846122409190613dae565b60018461224d9190613dae565b8361284b565b61226a836001846122649190613dae565b8361284b565b505050565b806004600084815260200190815260200160002060080154146122c7576040517f08c379a00000000000000000000000000000000000000000000000000000000081526004016122be90613b32565b60405180910390fd5b6000600460008481526020019081526020016000206008018190555060006005600083815260200190815260200160002060000160006101000a81548160ff02191690831515021790555060006005600083815260200190815260200160002060000160016101000a81548161ffff021916908361ffff16021790555060006005600083815260200190815260200160002060000160036101000a81548161ffff021916908361ffff1602179055505050565b600073ffffffffffffffffffffffffffffffffffffffff166004600086815260200190815260200160002060090160009054906101000a900473ffffffffffffffffffffffffffffffffffffffff1673ffffffffffffffffffffffffffffffffffffffff161461241f576040517f08c379a000000000000000000000000000000000000000000000000000000000815260040161241690613ad2565b60405180910390fd5b6000600460008681526020019081526020016000206008015414612478576040517f08c379a000000000000000000000000000000000000000000000000000000000815260040161246f90613b52565b60405180910390fd5b80600460008681526020019081526020016000206008018190555060016005600083815260200190815260200160002060000160006101000a81548160ff021916908315150217905550826005600083815260200190815260200160002060000160016101000a81548161ffff021916908361ffff160217905550816005600083815260200190815260200160002060000160036101000a81548161ffff021916908361ffff16021790555050505050565b60606000600283600261253d9190613ea9565b6125479190613de6565b67ffffffffffffffff811115612586577f4e487b7100000000000000000000000000000000000000000000000000000000600052604160045260246000fd5b6040519080825280601f01601f1916602001820160405280156125b85781602001600182028036833780820191505090505b5090507f300000000000000000000000000000000000000000000000000000000000000081600081518110612616577f4e487b7100000000000000000000000000000000000000000000000000000000600052603260045260246000fd5b60200101907effffffffffffffffffffffffffffffffffffffffffffffffffffffffffffff1916908160001a9053507f7800000000000000000000000000000000000000000000000000000000000000816001815181106126a0577f4e487b7100000000000000000000000000000000000000000000000000000000600052603260045260246000fd5b60200101907effffffffffffffffffffffffffffffffffffffffffffffffffffffffffffff1916908160001a905350600060018460026126e09190613ea9565b6126ea9190613de6565b90505b60018111156127fd577f3031323334353637383961626364656600000000000000000000000000000000600f861660108110612752577f4e487b7100000000000000000000000000000000000000000000000000000000600052603260045260246000fd5b1a7f0100000000000000000000000000000000000000000000000000000000000000028282815181106127ae577f4e487b7100000000000000000000000000000000000000000000000000000000600052603260045260246000fd5b60200101907effffffffffffffffffffffffffffffffffffffffffffffffffffffffffffff1916908160001a905350600485908060020a82049150509450806127f69061402a565b90506126ed565b5060008414612841576040517f08c379a000000000000000000000000000000000000000000000000000000000815260040161283890613a12565b60405180910390fd5b8091505092915050565b600083600160009054906101000a900461ffff168461286a9190613e6d565b6128749190613dae565b61ffff1690506000600a9050600460025461288f9190613e3c565b811180156128b65750600360046002546128a99190613e3c565b6128b39190613ea9565b81105b156128c057602890505b600260056002546128d19190613e3c565b6128db9190613ea9565b811180156129025750600360056002546128f59190613e3c565b6128ff9190613ea9565b81105b1561290c57605090505b60008161291a846064612bdf565b6129249190613de6565b90506000826129406001866129399190613de6565b6064612bdf565b61294a9190613de6565b905060008361296660028761295f9190613de6565b6064612bdf565b6129709190613de6565b90508183108061297f57508083105b1561298957600092505b8282108061299657508082105b156129a057600091505b828110806129ad57508181105b156129b757600090505b600015156004600087815260200190815260200160002060090160149054906101000a900460ff1615151415612bd5576040518061014001604052808961ffff1681526020018861ffff16815260200160008152602001848152602001838152602001600a83612a279190613e3c565b81526020016040518060600160405280600081526020016101f48152602001428152508152602001600081526020018773ffffffffffffffffffffffffffffffffffffffff168152602001600115158152506004600087815260200190815260200160002060008201518160000160006101000a81548161ffff021916908361ffff16021790555060208201518160000160026101000a81548161ffff021916908361ffff16021790555060408201518160010155606082015181600201556080820151816003015560a0820151816004015560c082015181600501600082015181600001556020820151816001015560408201518160020155505060e082015181600801556101008201518160090160006101000a81548173ffffffffffffffffffffffffffffffffffffffff021916908373ffffffffffffffffffffffffffffffffffffffff1602179055506101208201518160090160146101000a81548160ff0219169083151502179055509050507fcfc47dcefc6f1ec1fd8ed1662ac24698fe911253fa1ce3460f7e7c83bf8d64b5888888604051612bcc93929190613c2d565b60405180910390a15b5050505050505050565b600081423385604051602001612bf79392919061395b565b6040516020818303038152906040528051906020012060019004612c1b91906140cb565b905092915050565b6040518060600160405280600015158152602001600061ffff168152602001600061ffff1681525090565b604051806101400160405280600061ffff168152602001600061ffff16815260200160008152602001600081526020016000815260200160008152602001612c94612cc7565b815260200160008152602001600073ffffffffffffffffffffffffffffffffffffffff1681526020016000151581525090565b60405180606001604052806000815260200160008152602001600081525090565b600081359050612cf781614184565b92915050565b600081359050612d0c8161419b565b92915050565b600081359050612d21816141b2565b92915050565b600081359050612d36816141c9565b92915050565b600081359050612d4b816141e0565b92915050565b600060208284031215612d6357600080fd5b6000612d7184828501612ce8565b91505092915050565b600060208284031215612d8c57600080fd5b6000612d9a84828501612cfd565b91505092915050565b60008060408385031215612db657600080fd5b6000612dc485828601612cfd565b9250506020612dd585828601612ce8565b9150509250929050565b600060208284031215612df157600080fd5b6000612dff84828501612d12565b91505092915050565b60008060408385031215612e1b57600080fd5b6000612e2985828601612d27565b9250506020612e3a85828601612d27565b9150509250929050565b600080600060608486031215612e5957600080fd5b6000612e6786828701612d27565b9350506020612e7886828701612d27565b9250506040612e8986828701612ce8565b9150509250925092565b600080600080600060a08688031215612eab57600080fd5b6000612eb988828901612d27565b9550506020612eca88828901612d27565b9450506040612edb88828901612d27565b9350506060612eec88828901612d27565b9250506080612efd88828901612ce8565b9150509295509295909350565b600080600060608486031215612f1f57600080fd5b6000612f2d86828701612d27565b9350506020612f3e86828701612d27565b9250506040612f4f86828701612d3c565b9150509250925092565b60008060008060808587031215612f6f57600080fd5b6000612f7d87828801612d27565b9450506020612f8e87828801612d27565b9350506040612f9f87828801612d3c565b9250506060612fb087828801612ce8565b91505092959194509250565b600060208284031215612fce57600080fd5b6000612fdc84828501612d3c565b91505092915050565b6000612ff18383613734565b6101808301905092915050565b61300781613f6b565b82525050565b61301681613f6b565b82525050565b61302d61302882613f6b565b61409d565b82525050565b600061303e82613d5e565b6130488185613d81565b935061305383613d4e565b8060005b8381101561308457815161306b8882612fe5565b975061307683613d74565b925050600181019050613057565b5085935050505092915050565b61309a81613f7d565b82525050565b6130a981613f7d565b82525050565b6130b881613f89565b82525050565b60006130c982613d69565b6130d38185613d92565b93506130e3818560208601613ff7565b6130ec8161415a565b840191505092915050565b600061310282613d69565b61310c8185613da3565b935061311c818560208601613ff7565b80840191505092915050565b6000613135602083613d92565b91507f537472696e67733a20686578206c656e67746820696e73756666696369656e746000830152602082019050919050565b6000613175603283613d92565b91507f43757272656e74207465727269746f727920646f6573206e6f7420686176652060008301527f616e79204e6f6b616920746f206d6f76652e00000000000000000000000000006020830152604082019050919050565b60006131db602e83613d92565b91507f546172676574207465727269746f7279206973207374696c6c20646566656e6460008301527f65642062792061204e6f6b61692e0000000000000000000000000000000000006020830152604082019050919050565b6000613241602f83613d92565b91507f537065636966696564207465727269746f7279206973206e6f74206f6363757060008301527f6965642062792061204e6f6b61692e00000000000000000000000000000000006020830152604082019050919050565b60006132a7603183613d92565b91507f596f7520617265206e6f7420746865206f776e6572206f66207468652073706560008301527f636966696564207465727269746f72792e0000000000000000000000000000006020830152604082019050919050565b600061330d603083613d92565b91507f596f7520617265206e6f7420746865206f776e6572206f6620746865206f726960008301527f67696e616c207465727269746f72792e000000000000000000000000000000006020830152604082019050919050565b6000613373603383613d92565b91507f54686520737065636966696564207465727269746f7279206973206f776e656460008301527f20627920616e6f7468657220706c617965722e000000000000000000000000006020830152604082019050919050565b60006133d9603783613d92565b91507f43757272656e7420616e6420746172676574207465727269746f72696573206160008301527f72652066726f6d207468652073616d65206f776e65722e0000000000000000006020830152604082019050919050565b600061343f603183613d92565b91507f796f7520617265206e6f7420746865206f776e6572206f66207468652073706560008301527f636966696564207465727269746f72792e0000000000000000000000000000006020830152604082019050919050565b60006134a5602e83613d92565b91507f537065636966696564204e6f6b6169206973206e6f74206f6e2073706563696660008301527f696564207465727269746f72792e0000000000000000000000000000000000006020830152604082019050919050565b600061350b603383613d92565b91507f537065636966696564207465727269746f727920697320616c7265616479206f60008301527f636375706965642062792061204e6f6b61692e000000000000000000000000006020830152604082019050919050565b6000613571601783613da3565b91507f416363657373436f6e74726f6c3a206163636f756e74200000000000000000006000830152601782019050919050565b60006135b1603b83613d92565b91507f43757272656e7420616e6420746172676574207465727269746f72696573206160008301527f7265206e6f742066726f6d207468652073616d65206f776e65722e00000000006020830152604082019050919050565b6000613617601183613da3565b91507f206973206d697373696e6720726f6c65200000000000000000000000000000006000830152601182019050919050565b6000613657602f83613d92565b91507f416363657373436f6e74726f6c3a2063616e206f6e6c792072656e6f756e636560008301527f20726f6c657320666f722073656c6600000000000000000000000000000000006020830152604082019050919050565b6060820160008201516136c660008501826138ec565b5060208201516136d960208501826138ec565b5060408201516136ec60408501826138ec565b50505050565b6060820160008201516137086000850182613091565b50602082015161371b60208501826138ce565b50604082015161372e60408501826138ce565b50505050565b6101808201600082015161374b60008501826138ce565b50602082015161375e60208501826138ce565b50604082015161377160408501826138ec565b50606082015161378460608501826138ec565b50608082015161379760808501826138ec565b5060a08201516137aa60a08501826138ec565b5060c08201516137bd60c08501826136b0565b5060e08201516137d16101208501826138ec565b506101008201516137e6610140850182612ffe565b506101208201516137fb610160850182613091565b50505050565b6101808201600082015161381860008501826138ce565b50602082015161382b60208501826138ce565b50604082015161383e60408501826138ec565b50606082015161385160608501826138ec565b50608082015161386460808501826138ec565b5060a082015161387760a08501826138ec565b5060c082015161388a60c08501826136b0565b5060e082015161389e6101208501826138ec565b506101008201516138b3610140850182612ffe565b506101208201516138c8610160850182613091565b50505050565b6138d781613fbf565b82525050565b6138e681613fbf565b82525050565b6138f581613fed565b82525050565b61390481613fed565b82525050565b61391b61391682613fed565b6140c1565b82525050565b600061392c82613564565b915061393882856130f7565b91506139438261360a565b915061394f82846130f7565b91508190509392505050565b6000613967828661390a565b602082019150613977828561301c565b601482019150613987828461390a565b602082019150819050949350505050565b600060208201905081810360008301526139b28184613033565b905092915050565b60006020820190506139cf60008301846130a0565b92915050565b60006020820190506139ea60008301846130af565b92915050565b60006020820190508181036000830152613a0a81846130be565b905092915050565b60006020820190508181036000830152613a2b81613128565b9050919050565b60006020820190508181036000830152613a4b81613168565b9050919050565b60006020820190508181036000830152613a6b816131ce565b9050919050565b60006020820190508181036000830152613a8b81613234565b9050919050565b60006020820190508181036000830152613aab8161329a565b9050919050565b60006020820190508181036000830152613acb81613300565b9050919050565b60006020820190508181036000830152613aeb81613366565b9050919050565b60006020820190508181036000830152613b0b816133cc565b9050919050565b60006020820190508181036000830152613b2b81613432565b9050919050565b60006020820190508181036000830152613b4b81613498565b9050919050565b60006020820190508181036000830152613b6b816134fe565b9050919050565b60006020820190508181036000830152613b8b816135a4565b9050919050565b60006020820190508181036000830152613bab8161364a565b9050919050565b6000606082019050613bc760008301846136f2565b92915050565b600061018082019050613be36000830184613801565b92915050565b6000602082019050613bfe60008301846138dd565b92915050565b6000604082019050613c1960008301856138dd565b613c2660208301846138dd565b9392505050565b6000606082019050613c4260008301866138dd565b613c4f60208301856138dd565b613c5c604083018461300d565b949350505050565b6000608082019050613c7960008301876138dd565b613c8660208301866138dd565b613c93604083018561300d565b613ca060608301846138fb565b95945050505050565b6000608082019050613cbe60008301876138dd565b613ccb60208301866138dd565b613cd860408301856138dd565b613ce560608301846138dd565b95945050505050565b6000602082019050613d0360008301846138fb565b92915050565b6000608082019050613d1e60008301876138fb565b613d2b60208301866138fb565b613d3860408301856138fb565b613d4560608301846138fb565b95945050505050565b6000819050602082019050919050565b600081519050919050565b600081519050919050565b6000602082019050919050565b600082825260208201905092915050565b600082825260208201905092915050565b600081905092915050565b6000613db982613fbf565b9150613dc483613fbf565b92508261ffff03821115613ddb57613dda6140fc565b5b828201905092915050565b6000613df182613fed565b9150613dfc83613fed565b9250827fffffffffffffffffffffffffffffffffffffffffffffffffffffffffffffffff03821115613e3157613e306140fc565b5b828201905092915050565b6000613e4782613fed565b9150613e5283613fed565b925082613e6257613e6161412b565b5b828204905092915050565b6000613e7882613fbf565b9150613e8383613fbf565b92508161ffff0483118215151615613e9e57613e9d6140fc565b5b828202905092915050565b6000613eb482613fed565b9150613ebf83613fed565b9250817fffffffffffffffffffffffffffffffffffffffffffffffffffffffffffffffff0483118215151615613ef857613ef76140fc565b5b828202905092915050565b6000613f0e82613fbf565b9150613f1983613fbf565b925082821015613f2c57613f2b6140fc565b5b828203905092915050565b6000613f4282613fed565b9150613f4d83613fed565b925082821015613f6057613f5f6140fc565b5b828203905092915050565b6000613f7682613fcd565b9050919050565b60008115159050919050565b6000819050919050565b60007fffffffff0000000000000000000000000000000000000000000000000000000082169050919050565b600061ffff82169050919050565b600073ffffffffffffffffffffffffffffffffffffffff82169050919050565b6000819050919050565b60005b83811015614015578082015181840152602081019050613ffa565b83811115614024576000848401525b50505050565b600061403582613fed565b91506000821415614049576140486140fc565b5b600182039050919050565b600061405f82613fed565b91507fffffffffffffffffffffffffffffffffffffffffffffffffffffffffffffffff821415614092576140916140fc565b5b600182019050919050565b60006140a8826140af565b9050919050565b60006140ba8261416b565b9050919050565b6000819050919050565b60006140d682613fed565b91506140e183613fed565b9250826140f1576140f061412b565b5b828206905092915050565b7f4e487b7100000000000000000000000000000000000000000000000000000000600052601160045260246000fd5b7f4e487b7100000000000000000000000000000000000000000000000000000000600052601260045260246000fd5b6000601f19601f8301169050919050565b60006c0100000000000000000000000082029050919050565b61418d81613f6b565b811461419857600080fd5b50565b6141a481613f89565b81146141af57600080fd5b50565b6141bb81613f93565b81146141c657600080fd5b50565b6141d281613fbf565b81146141dd57600080fd5b50565b6141e981613fed565b81146141f457600080fd5b5056fea2646970667358221220917712e04acd98056045093dabe3a9cab415c45b07297fb94ed45350a370557c64736f6c63430008000033",
  "immutableReferences": {},
  "source": "pragma solidity ^0.8.0;\r\n\r\nimport \"@openzeppelin/contracts/access/AccessControl.sol\";\r\nimport \"../utils/RandomUtils.sol\";\r\n\r\n// SPDX-License-Identifier: MIT\r\ncontract BlackHole is AccessControl {\r\n    bytes32 public constant GAME_MANAGER_ROLE = keccak256(\"GAME_MANAGER_ROLE\");\r\n\r\n    uint16 public maxX;\r\n    uint16 public maxY;\r\n    uint256 public totalPos;\r\n\r\n    struct Extractor {\r\n        uint256 level;\r\n        uint256 cost;\r\n        uint256 lastExtract;\r\n    }\r\n\r\n    struct Territory {\r\n        uint16 x;\r\n        uint16 y;\r\n        uint256 darkEnergy;\r\n        uint256 darkMatter;\r\n        uint256 plasmaEnergy;\r\n        uint256 voidEssence;\r\n        Extractor extractor; // extract resources\r\n        uint256 nokai;\r\n        address owner;\r\n        bool discovered;\r\n    }\r\n\r\n    struct Position {\r\n        bool onBoard;\r\n        uint16 x;\r\n        uint16 y;\r\n    }\r\n\r\n    mapping(address => uint256) private userTerritoryCount;\r\n    mapping(uint256 => Territory) private blackhole;\r\n    mapping(uint256 => Position) private nokaiPosition;\r\n\r\n    constructor(uint16 _width, uint16 _height)  {\r\n        maxX = _width;\r\n        maxY = _height;\r\n        totalPos = maxX * maxY;\r\n        _setupRole(DEFAULT_ADMIN_ROLE, msg.sender);\r\n\r\n        blackhole[((maxY / 2) * maxX) + maxX / 2] = Territory({\r\n        x : maxX / 2,\r\n        y : maxY / 2,\r\n        darkEnergy : 10,\r\n        darkMatter : 100,\r\n        plasmaEnergy : 100,\r\n        voidEssence : 100,\r\n        extractor : Extractor({level : 1, cost : 1000, lastExtract : block.timestamp}),\r\n        nokai : 0,\r\n        owner : address(0),\r\n        discovered : true\r\n        });\r\n    }\r\n\r\n    function completeExtraction(uint16 x, uint16 y, address by) external onlyRole(GAME_MANAGER_ROLE) returns (uint256, uint256, uint256, uint256) {\r\n        uint256 pos = (y * maxX) + x;\r\n        require(blackhole[pos].owner == by, \"you are not the owner of the specified territory.\");\r\n        uint256 nbHours = (block.timestamp - blackhole[pos].extractor.lastExtract) / 3600;\r\n        blackhole[pos].extractor.lastExtract = block.timestamp;\r\n        uint256 _darkEnergy = blackhole[pos].darkEnergy != 0 ? blackhole[pos].darkEnergy * blackhole[pos].extractor.level * nbHours : 0;\r\n        uint256 _darkMatter = blackhole[pos].darkMatter != 0 ? blackhole[pos].darkMatter * blackhole[pos].extractor.level * nbHours : 0;\r\n        uint256 _plasmaEnergy = blackhole[pos].plasmaEnergy != 0 ? blackhole[pos].plasmaEnergy * blackhole[pos].extractor.level * nbHours : 0;\r\n        uint256 _voidEssence = blackhole[pos].voidEssence != 0 ? blackhole[pos].voidEssence * blackhole[pos].extractor.level * nbHours : 0;\r\n        emit TerritoryExtracted(x, y, by);\r\n        return (_darkEnergy, _darkMatter, _plasmaEnergy, _voidEssence);\r\n    }\r\n\r\n    function upgradeExtractor(uint16 x, uint16 y, address by) external onlyRole(GAME_MANAGER_ROLE) {\r\n        uint256 pos = (y * maxX) + x;\r\n        require(blackhole[pos].owner == by, \"you are not the owner of the specified territory.\");\r\n        blackhole[pos].extractor.level += 1;\r\n        blackhole[pos].extractor.cost *= 2;\r\n        blackhole[pos].extractor.lastExtract = block.timestamp;\r\n        emit ExtractorUpgraded(x, y, by, blackhole[pos].extractor.level);\r\n    }\r\n\r\n\r\n    function assignNokai(uint16 x, uint16 y, uint256 nokaiId, address by) external onlyRole(GAME_MANAGER_ROLE) {\r\n        uint256 pos = (y * maxX) + x;\r\n        if (userTerritoryCount[by] > 0) {\r\n            _assignNokai(pos, x, y, nokaiId, by);\r\n        } else {\r\n            _assignNokaiNewTerritory(pos, x, y, nokaiId);\r\n        }\r\n    }\r\n\r\n    function _assignNokaiNewTerritory(uint256 pos, uint16 x, uint16 y, uint256 nokaiId) private {\r\n        require(blackhole[pos].owner == address(0), \"The specified territory is owned by another player.\");\r\n        require(blackhole[pos].nokai == 0, \"Specified territory is already occupied by a Nokai.\");\r\n        blackhole[pos].nokai = nokaiId;\r\n        nokaiPosition[nokaiId].onBoard = true;\r\n        nokaiPosition[nokaiId].x = x;\r\n        nokaiPosition[nokaiId].y = y;\r\n    }\r\n\r\n    function _assignNokai(uint256 pos, uint16 x, uint16 y, uint256 nokaiId, address by) private {\r\n        require(blackhole[pos].owner == by, \"You are not the owner of the specified territory.\");\r\n        require(blackhole[pos].nokai == 0, \"Specified territory is already occupied by a Nokai.\");\r\n        blackhole[pos].nokai = nokaiId;\r\n        nokaiPosition[nokaiId].onBoard = true;\r\n        nokaiPosition[nokaiId].x = x;\r\n        nokaiPosition[nokaiId].y = y;\r\n    }\r\n\r\n    function withdrawDeadNokai(uint16 x, uint16 y, uint256 nokaiId) external onlyRole(GAME_MANAGER_ROLE) {\r\n        _withdrawNokai((y * maxX) + x, nokaiId);\r\n    }\r\n\r\n    function withdrawNokai(uint16 x, uint16 y, uint256 nokaiId, address by) external onlyRole(GAME_MANAGER_ROLE) {\r\n        uint256 pos = (y * maxX) + x;\r\n        require(blackhole[pos].owner == by, \"You are not the owner of the specified territory.\");\r\n        require(blackhole[pos].nokai == 1, \"Specified territory is not occupied by a Nokai.\");\r\n        _withdrawNokai(pos, nokaiId);\r\n    }\r\n\r\n    function _withdrawNokai(uint256 pos, uint256 nokaiId) internal {\r\n        require(blackhole[pos].nokai == nokaiId, \"Specified Nokai is not on specified territory.\");\r\n        blackhole[pos].nokai = 0;\r\n        nokaiPosition[nokaiId].onBoard = false;\r\n        nokaiPosition[nokaiId].x = 0;\r\n        nokaiPosition[nokaiId].y = 0;\r\n    }\r\n\r\n\r\n    function conquest(uint16 fromX, uint16 fromY, uint16 toX, uint16 toY, address by) external onlyRole(GAME_MANAGER_ROLE) {\r\n        uint256 from = (toY * maxX) + toX;\r\n        uint256 to = (toY * maxX) + toX;\r\n        require(blackhole[from].owner == by, \"You are not the owner of the original territory.\");\r\n        require(blackhole[from].owner != blackhole[to].owner, \"Current and target territories are from the same owner.\");\r\n        require(blackhole[to].nokai == 0, \"Target territory is still defended by a Nokai.\");\r\n        require(blackhole[from].nokai != 0, \"Current territory does not have any Nokai to move.\");\r\n\r\n        address previousOwner = blackhole[to].owner;\r\n\r\n        userTerritoryCount[previousOwner] = userTerritoryCount[previousOwner] > 0 ? userTerritoryCount[previousOwner] - 1 : 0;\r\n        userTerritoryCount[by] += 1;\r\n\r\n        blackhole[to].owner = by;\r\n        _assignNokai(to, toX, toY, blackhole[from].nokai, by);\r\n        blackhole[from].nokai = 0;\r\n\r\n        _discover(toX, toY, blackhole[from].owner);\r\n        emit NokaiMoved(fromX, fromY, toX, toY, blackhole[to].nokai, blackhole[from].owner);\r\n        emit SlotConquered(toX, toY, previousOwner, by);\r\n    }\r\n\r\n    function move(uint16 fromX, uint16 fromY, uint16 toX, uint16 toY, address by) external onlyRole(GAME_MANAGER_ROLE) {\r\n        uint256 from = (toY * maxX) + toX;\r\n        uint256 to = (toY * maxX) + toX;\r\n        require(blackhole[from].owner == blackhole[to].owner, \"Current and target territories are not from the same owner.\");\r\n        require(blackhole[from].nokai != 0, \"Current territory does not have any Nokai to move.\");\r\n\r\n        _assignNokai(to, toX, toY, blackhole[from].nokai, by);\r\n        blackhole[from].nokai = 0;\r\n\r\n        _discover(toX, toY, blackhole[from].owner);\r\n        emit NokaiMoved(fromX, fromY, toX, toY, blackhole[to].nokai, blackhole[from].owner);\r\n    }\r\n\r\n    function _discover(uint16 x, uint16 y, address by) private {\r\n        _discoverSlot(x - 1, y, by);\r\n        _discoverSlot(x, y - 1, by);\r\n        _discoverSlot(x + 1, y - 1, by);\r\n        _discoverSlot(x + 1, y, by);\r\n        _discoverSlot(x + 1, y + 1, by);\r\n        _discoverSlot(x, y + 1, by);\r\n    }\r\n\r\n    function _discoverSlot(uint16 x, uint16 y, address by) private {\r\n        uint256 pos = (y * maxX) + x;\r\n        uint256 wealth = 10;\r\n        if (wealth > totalPos / 4 && wealth < (totalPos / 4) * 3) {\r\n            wealth = 40;\r\n        }\r\n        if (wealth > ((totalPos / 5) * 2) && wealth < (totalPos / 5) * 3) {\r\n            wealth = 80;\r\n        }\r\n        uint256 darkMatter = RandomUtils._rand(pos, 100) + wealth;\r\n        uint256 plasmaEnergy = RandomUtils._rand(pos + 1, 100) + wealth;\r\n        uint256 voidEssence = RandomUtils._rand(pos + 2, 100) + wealth;\r\n        if (darkMatter < plasmaEnergy || darkMatter < voidEssence) {\r\n            darkMatter = 0;\r\n        }\r\n        if (plasmaEnergy < darkMatter || plasmaEnergy < voidEssence) {\r\n            plasmaEnergy = 0;\r\n        }\r\n        if (voidEssence < darkMatter || voidEssence < plasmaEnergy) {\r\n            voidEssence = 0;\r\n        }\r\n        if (blackhole[pos].discovered == false) {\r\n            blackhole[pos] = Territory({\r\n            x : x,\r\n            y : y,\r\n            darkEnergy : 0,\r\n            darkMatter : darkMatter,\r\n            plasmaEnergy : plasmaEnergy,\r\n            voidEssence : voidEssence / 10,\r\n            nokai : 0,\r\n            extractor : Extractor({level : 0, cost : 500, lastExtract : block.timestamp}),\r\n            owner : by,\r\n            discovered : true\r\n            });\r\n            emit SlotDiscovered(x, y, by);\r\n        }\r\n    }\r\n\r\n    function nokaiAt(uint16 x, uint16 y) external view returns (uint256) {\r\n        return blackhole[(y * maxX) + x].nokai;\r\n    }\r\n\r\n    function nokaiPos(uint256 nokaiId) external view returns (Position memory) {\r\n        return nokaiPosition[nokaiId];\r\n    }\r\n\r\n    function territoryCount(address user) external view returns (uint256) {\r\n        return userTerritoryCount[user];\r\n    }\r\n\r\n    function extractorCostAt(uint16 x, uint16 y) external view returns (uint256) {\r\n        return blackhole[(y * maxX) + x].extractor.cost;\r\n    }\r\n\r\n    function get(uint16 x, uint16 y) external view returns (Territory memory) {\r\n        return blackhole[(y * maxX) + x];\r\n    }\r\n\r\n    function getBlackHole() external view returns (Territory[] memory) {\r\n        uint256 max = maxY * maxX;\r\n        Territory[] memory _blackhole = new Territory[](max);\r\n        for (uint256 i = 0; i < max; i++) {\r\n            _blackhole[i] = blackhole[i];\r\n        }\r\n        return _blackhole;\r\n    }\r\n\r\n    event SlotDiscovered(uint16 x, uint16 y, address by);\r\n    event SlotConquered(uint16 x, uint16 y, address indexed previousOwner, address indexed newOwner);\r\n    event NokaiMoved(uint16 fromX, uint16 fromY, uint16 toX, uint16 toY, uint256 indexed nokai, address indexed owner);\r\n    event TerritoryExtracted(uint16 x, uint16 y, address by);\r\n    event ExtractorUpgraded(uint16 x, uint16 y, address by, uint256 level);\r\n}",
  "sourcePath": "C:\\Users\\KevinGeorgesAndres\\Documents\\projects\\perso\\blackhole-evm\\contracts\\game\\BlackHole.sol",
  "compiler": {
    "name": "solc",
    "version": "0.8.0+commit.c7dfd78e.Emscripten.clang"
  },
  "schemaVersion": "3.4.3",
  "updatedAt": "2021-12-03T11:00:21.966Z",
  "devdoc": {
    "kind": "dev",
    "methods": {
      "getRoleAdmin(bytes32)": {
        "details": "Returns the admin role that controls `role`. See {grantRole} and {revokeRole}. To change a role's admin, use {_setRoleAdmin}."
      },
      "grantRole(bytes32,address)": {
        "details": "Grants `role` to `account`. If `account` had not been already granted `role`, emits a {RoleGranted} event. Requirements: - the caller must have ``role``'s admin role."
      },
      "hasRole(bytes32,address)": {
        "details": "Returns `true` if `account` has been granted `role`."
      },
      "renounceRole(bytes32,address)": {
        "details": "Revokes `role` from the calling account. Roles are often managed via {grantRole} and {revokeRole}: this function's purpose is to provide a mechanism for accounts to lose their privileges if they are compromised (such as when a trusted device is misplaced). If the calling account had been revoked `role`, emits a {RoleRevoked} event. Requirements: - the caller must be `account`."
      },
      "revokeRole(bytes32,address)": {
        "details": "Revokes `role` from `account`. If `account` had been granted `role`, emits a {RoleRevoked} event. Requirements: - the caller must have ``role``'s admin role."
      },
      "supportsInterface(bytes4)": {
        "details": "See {IERC165-supportsInterface}."
      }
    },
    "version": 1
  },
  "userdoc": {
    "kind": "user",
    "methods": {},
    "version": 1
  }
}