{
  "contractName": "CraftManager",
  "abi": [
    {
      "inputs": [
        {
          "internalType": "address",
          "name": "_holyCore",
          "type": "address"
        },
        {
          "internalType": "address",
          "name": "_holyArtefact",
          "type": "address"
        },
        {
          "internalType": "address",
          "name": "_potionEssence",
          "type": "address"
        },
        {
          "internalType": "address",
          "name": "_lifeEssence",
          "type": "address"
        },
        {
          "internalType": "address",
          "name": "_energyShock",
          "type": "address"
        },
        {
          "internalType": "address",
          "name": "_darkEnergy",
          "type": "address"
        },
        {
          "internalType": "address",
          "name": "_darkMatter",
          "type": "address"
        },
        {
          "internalType": "address",
          "name": "_plasmaEnergy",
          "type": "address"
        },
        {
          "internalType": "address",
          "name": "_voidEssence",
          "type": "address"
        }
      ],
      "stateMutability": "nonpayable",
      "type": "constructor"
    },
    {
      "inputs": [
        {
          "internalType": "uint256",
          "name": "_number",
          "type": "uint256"
        }
      ],
      "name": "craftHolyCore",
      "outputs": [],
      "stateMutability": "nonpayable",
      "type": "function"
    },
    {
      "inputs": [
        {
          "internalType": "uint256",
          "name": "_number",
          "type": "uint256"
        }
      ],
      "name": "craftHolyArtifact",
      "outputs": [],
      "stateMutability": "nonpayable",
      "type": "function"
    },
    {
      "inputs": [
        {
          "internalType": "uint256",
          "name": "_number",
          "type": "uint256"
        }
      ],
      "name": "craftPotionEssence",
      "outputs": [],
      "stateMutability": "nonpayable",
      "type": "function"
    },
    {
      "inputs": [
        {
          "internalType": "uint256",
          "name": "_number",
          "type": "uint256"
        }
      ],
      "name": "craftLifeEssence",
      "outputs": [],
      "stateMutability": "nonpayable",
      "type": "function"
    },
    {
      "inputs": [
        {
          "internalType": "uint256",
          "name": "_number",
          "type": "uint256"
        }
      ],
      "name": "craftEnergyShock",
      "outputs": [],
      "stateMutability": "nonpayable",
      "type": "function"
    }
  ],
  "bytecode": "0x608060405234801561001057600080fd5b506040516105643803806105648339818101604052810190610032919061029d565b886000806101000a81548173ffffffffffffffffffffffffffffffffffffffff021916908373ffffffffffffffffffffffffffffffffffffffff16021790555087600160006101000a81548173ffffffffffffffffffffffffffffffffffffffff021916908373ffffffffffffffffffffffffffffffffffffffff16021790555086600260006101000a81548173ffffffffffffffffffffffffffffffffffffffff021916908373ffffffffffffffffffffffffffffffffffffffff16021790555085600360006101000a81548173ffffffffffffffffffffffffffffffffffffffff021916908373ffffffffffffffffffffffffffffffffffffffff16021790555084600460006101000a81548173ffffffffffffffffffffffffffffffffffffffff021916908373ffffffffffffffffffffffffffffffffffffffff16021790555083600560006101000a81548173ffffffffffffffffffffffffffffffffffffffff021916908373ffffffffffffffffffffffffffffffffffffffff16021790555082600660006101000a81548173ffffffffffffffffffffffffffffffffffffffff021916908373ffffffffffffffffffffffffffffffffffffffff16021790555081600760006101000a81548173ffffffffffffffffffffffffffffffffffffffff021916908373ffffffffffffffffffffffffffffffffffffffff16021790555080600860006101000a81548173ffffffffffffffffffffffffffffffffffffffff021916908373ffffffffffffffffffffffffffffffffffffffff1602179055505050505050505050506103ac565b60008151905061029781610395565b92915050565b60008060008060008060008060006101208a8c0312156102bc57600080fd5b60006102ca8c828d01610288565b99505060206102db8c828d01610288565b98505060406102ec8c828d01610288565b97505060606102fd8c828d01610288565b965050608061030e8c828d01610288565b95505060a061031f8c828d01610288565b94505060c06103308c828d01610288565b93505060e06103418c828d01610288565b9250506101006103538c828d01610288565b9150509295985092959850929598565b600061036e82610375565b9050919050565b600073ffffffffffffffffffffffffffffffffffffffff82169050919050565b61039e81610363565b81146103a957600080fd5b50565b6101a9806103bb6000396000f3fe608060405234801561001057600080fd5b5060043610610074576000357c010000000000000000000000000000000000000000000000000000000090048063219badc214610079578063a399fc5814610095578063c17bf8dc146100b1578063cc3b85c1146100cd578063f6de3024146100e9575b600080fd5b610093600480360381019061008e9190610129565b610105565b005b6100af60048036038101906100aa9190610129565b610108565b005b6100cb60048036038101906100c69190610129565b61010b565b005b6100e760048036038101906100e29190610129565b61010e565b005b61010360048036038101906100fe9190610129565b610111565b005b50565b50565b50565b50565b50565b6000813590506101238161015c565b92915050565b60006020828403121561013b57600080fd5b600061014984828501610114565b91505092915050565b6000819050919050565b61016581610152565b811461017057600080fd5b5056fea2646970667358221220f5f6c891d5d1a33657f97252a1dfb6ea13cad35a22b1a96b78e6f36697cd535764736f6c63430008000033",
  "immutableReferences": {},
  "source": "pragma solidity ^0.8.0;\r\n\r\nimport \"../tokens/ticket/HolyCore.sol\";\r\nimport \"../tokens/Item.sol\";\r\nimport \"../tokens/Resource.sol\";\r\nimport \"../tokens/ticket/HolyArtefact.sol\";\r\n\r\n// SPDX-License-Identifier: MIT\r\ncontract CraftManager {\r\n    HolyCore private holyCore;\r\n    HolyArtefact private holyArtefact;\r\n    Item private potionEssence;\r\n    Item private lifeEssence;\r\n    Item private energyShock;\r\n    Resource private darkEnergy;\r\n    Resource private darkMatter;\r\n    Resource private plasmaEnergy;\r\n    Resource private voidEssence;\r\n\r\n    constructor(address _holyCore, address _holyArtefact, address _potionEssence, address _lifeEssence, address _energyShock, address _darkEnergy, address _darkMatter, address _plasmaEnergy, address _voidEssence) {\r\n        holyCore = HolyCore(_holyCore);\r\n        holyArtefact = HolyArtefact(_holyArtefact);\r\n        potionEssence = Item(_potionEssence);\r\n        lifeEssence = Item(_lifeEssence);\r\n        energyShock = Item(_energyShock);\r\n        darkEnergy = Resource(_darkEnergy);\r\n        darkMatter = Resource(_darkMatter);\r\n        plasmaEnergy = Resource(_plasmaEnergy);\r\n        voidEssence = Resource(_voidEssence);\r\n    }\r\n\r\n    function craftHolyCore(uint256 _number) external {\r\n\r\n    }\r\n\r\n    function craftHolyArtifact(uint256 _number) external {\r\n\r\n    }\r\n\r\n    function craftPotionEssence(uint256 _number) external {\r\n\r\n    }\r\n\r\n    function craftLifeEssence(uint256 _number) external {\r\n\r\n    }\r\n\r\n    function craftEnergyShock(uint256 _number) external {\r\n\r\n    }\r\n}",
  "sourcePath": "C:\\Users\\KevinGeorgesAndres\\Documents\\projects\\perso\\blackhole-evm\\contracts\\game\\CraftManager.sol",
  "compiler": {
    "name": "solc",
    "version": "0.8.0+commit.c7dfd78e.Emscripten.clang"
  },
  "schemaVersion": "3.4.3",
  "updatedAt": "2021-12-03T08:18:39.148Z",
  "devdoc": {
    "kind": "dev",
    "methods": {},
    "version": 1
  },
  "userdoc": {
    "kind": "user",
    "methods": {},
    "version": 1
  }
}