{
  "contractName": "Nokai",
  "abi": [
    {
      "inputs": [
        {
          "internalType": "address",
          "name": "_nokaiStats",
          "type": "address"
        },
        {
          "internalType": "string",
          "name": "baseUri",
          "type": "string"
        }
      ],
      "stateMutability": "nonpayable",
      "type": "constructor"
    },
    {
      "anonymous": false,
      "inputs": [
        {
          "indexed": true,
          "internalType": "address",
          "name": "owner",
          "type": "address"
        },
        {
          "indexed": true,
          "internalType": "address",
          "name": "approved",
          "type": "address"
        },
        {
          "indexed": true,
          "internalType": "uint256",
          "name": "tokenId",
          "type": "uint256"
        }
      ],
      "name": "Approval",
      "type": "event"
    },
    {
      "anonymous": false,
      "inputs": [
        {
          "indexed": true,
          "internalType": "address",
          "name": "owner",
          "type": "address"
        },
        {
          "indexed": true,
          "internalType": "address",
          "name": "operator",
          "type": "address"
        },
        {
          "indexed": false,
          "internalType": "bool",
          "name": "approved",
          "type": "bool"
        }
      ],
      "name": "ApprovalForAll",
      "type": "event"
    },
    {
      "anonymous": false,
      "inputs": [
        {
          "indexed": true,
          "internalType": "uint256",
          "name": "nokaiId",
          "type": "uint256"
        },
        {
          "indexed": true,
          "internalType": "address",
          "name": "owner",
          "type": "address"
        }
      ],
      "name": "NokaiBorn",
      "type": "event"
    },
    {
      "anonymous": false,
      "inputs": [
        {
          "indexed": true,
          "internalType": "uint256",
          "name": "nokaiId",
          "type": "uint256"
        },
        {
          "indexed": true,
          "internalType": "address",
          "name": "owner",
          "type": "address"
        }
      ],
      "name": "NokaiUpgraded",
      "type": "event"
    },
    {
      "anonymous": false,
      "inputs": [
        {
          "indexed": true,
          "internalType": "bytes32",
          "name": "role",
          "type": "bytes32"
        },
        {
          "indexed": true,
          "internalType": "bytes32",
          "name": "previousAdminRole",
          "type": "bytes32"
        },
        {
          "indexed": true,
          "internalType": "bytes32",
          "name": "newAdminRole",
          "type": "bytes32"
        }
      ],
      "name": "RoleAdminChanged",
      "type": "event"
    },
    {
      "anonymous": false,
      "inputs": [
        {
          "indexed": true,
          "internalType": "bytes32",
          "name": "role",
          "type": "bytes32"
        },
        {
          "indexed": true,
          "internalType": "address",
          "name": "account",
          "type": "address"
        },
        {
          "indexed": true,
          "internalType": "address",
          "name": "sender",
          "type": "address"
        }
      ],
      "name": "RoleGranted",
      "type": "event"
    },
    {
      "anonymous": false,
      "inputs": [
        {
          "indexed": true,
          "internalType": "bytes32",
          "name": "role",
          "type": "bytes32"
        },
        {
          "indexed": true,
          "internalType": "address",
          "name": "account",
          "type": "address"
        },
        {
          "indexed": true,
          "internalType": "address",
          "name": "sender",
          "type": "address"
        }
      ],
      "name": "RoleRevoked",
      "type": "event"
    },
    {
      "anonymous": false,
      "inputs": [
        {
          "indexed": true,
          "internalType": "address",
          "name": "from",
          "type": "address"
        },
        {
          "indexed": true,
          "internalType": "address",
          "name": "to",
          "type": "address"
        },
        {
          "indexed": true,
          "internalType": "uint256",
          "name": "tokenId",
          "type": "uint256"
        }
      ],
      "name": "Transfer",
      "type": "event"
    },
    {
      "inputs": [],
      "name": "DEFAULT_ADMIN_ROLE",
      "outputs": [
        {
          "internalType": "bytes32",
          "name": "",
          "type": "bytes32"
        }
      ],
      "stateMutability": "view",
      "type": "function"
    },
    {
      "inputs": [],
      "name": "MINT_ROLE",
      "outputs": [
        {
          "internalType": "bytes32",
          "name": "",
          "type": "bytes32"
        }
      ],
      "stateMutability": "view",
      "type": "function"
    },
    {
      "inputs": [
        {
          "internalType": "address",
          "name": "to",
          "type": "address"
        },
        {
          "internalType": "uint256",
          "name": "tokenId",
          "type": "uint256"
        }
      ],
      "name": "approve",
      "outputs": [],
      "stateMutability": "nonpayable",
      "type": "function"
    },
    {
      "inputs": [
        {
          "internalType": "address",
          "name": "owner",
          "type": "address"
        }
      ],
      "name": "balanceOf",
      "outputs": [
        {
          "internalType": "uint256",
          "name": "",
          "type": "uint256"
        }
      ],
      "stateMutability": "view",
      "type": "function"
    },
    {
      "inputs": [
        {
          "internalType": "uint256",
          "name": "tokenId",
          "type": "uint256"
        }
      ],
      "name": "getApproved",
      "outputs": [
        {
          "internalType": "address",
          "name": "",
          "type": "address"
        }
      ],
      "stateMutability": "view",
      "type": "function"
    },
    {
      "inputs": [
        {
          "internalType": "bytes32",
          "name": "role",
          "type": "bytes32"
        }
      ],
      "name": "getRoleAdmin",
      "outputs": [
        {
          "internalType": "bytes32",
          "name": "",
          "type": "bytes32"
        }
      ],
      "stateMutability": "view",
      "type": "function"
    },
    {
      "inputs": [
        {
          "internalType": "bytes32",
          "name": "role",
          "type": "bytes32"
        },
        {
          "internalType": "address",
          "name": "account",
          "type": "address"
        }
      ],
      "name": "grantRole",
      "outputs": [],
      "stateMutability": "nonpayable",
      "type": "function"
    },
    {
      "inputs": [
        {
          "internalType": "bytes32",
          "name": "role",
          "type": "bytes32"
        },
        {
          "internalType": "address",
          "name": "account",
          "type": "address"
        }
      ],
      "name": "hasRole",
      "outputs": [
        {
          "internalType": "bool",
          "name": "",
          "type": "bool"
        }
      ],
      "stateMutability": "view",
      "type": "function"
    },
    {
      "inputs": [
        {
          "internalType": "address",
          "name": "owner",
          "type": "address"
        },
        {
          "internalType": "address",
          "name": "operator",
          "type": "address"
        }
      ],
      "name": "isApprovedForAll",
      "outputs": [
        {
          "internalType": "bool",
          "name": "",
          "type": "bool"
        }
      ],
      "stateMutability": "view",
      "type": "function"
    },
    {
      "inputs": [],
      "name": "name",
      "outputs": [
        {
          "internalType": "string",
          "name": "",
          "type": "string"
        }
      ],
      "stateMutability": "view",
      "type": "function"
    },
    {
      "inputs": [
        {
          "internalType": "uint256",
          "name": "tokenId",
          "type": "uint256"
        }
      ],
      "name": "ownerOf",
      "outputs": [
        {
          "internalType": "address",
          "name": "",
          "type": "address"
        }
      ],
      "stateMutability": "view",
      "type": "function"
    },
    {
      "inputs": [
        {
          "internalType": "bytes32",
          "name": "role",
          "type": "bytes32"
        },
        {
          "internalType": "address",
          "name": "account",
          "type": "address"
        }
      ],
      "name": "renounceRole",
      "outputs": [],
      "stateMutability": "nonpayable",
      "type": "function"
    },
    {
      "inputs": [
        {
          "internalType": "bytes32",
          "name": "role",
          "type": "bytes32"
        },
        {
          "internalType": "address",
          "name": "account",
          "type": "address"
        }
      ],
      "name": "revokeRole",
      "outputs": [],
      "stateMutability": "nonpayable",
      "type": "function"
    },
    {
      "inputs": [
        {
          "internalType": "address",
          "name": "from",
          "type": "address"
        },
        {
          "internalType": "address",
          "name": "to",
          "type": "address"
        },
        {
          "internalType": "uint256",
          "name": "tokenId",
          "type": "uint256"
        }
      ],
      "name": "safeTransferFrom",
      "outputs": [],
      "stateMutability": "nonpayable",
      "type": "function"
    },
    {
      "inputs": [
        {
          "internalType": "address",
          "name": "from",
          "type": "address"
        },
        {
          "internalType": "address",
          "name": "to",
          "type": "address"
        },
        {
          "internalType": "uint256",
          "name": "tokenId",
          "type": "uint256"
        },
        {
          "internalType": "bytes",
          "name": "_data",
          "type": "bytes"
        }
      ],
      "name": "safeTransferFrom",
      "outputs": [],
      "stateMutability": "nonpayable",
      "type": "function"
    },
    {
      "inputs": [
        {
          "internalType": "address",
          "name": "operator",
          "type": "address"
        },
        {
          "internalType": "bool",
          "name": "approved",
          "type": "bool"
        }
      ],
      "name": "setApprovalForAll",
      "outputs": [],
      "stateMutability": "nonpayable",
      "type": "function"
    },
    {
      "inputs": [],
      "name": "symbol",
      "outputs": [
        {
          "internalType": "string",
          "name": "",
          "type": "string"
        }
      ],
      "stateMutability": "view",
      "type": "function"
    },
    {
      "inputs": [
        {
          "internalType": "uint256",
          "name": "index",
          "type": "uint256"
        }
      ],
      "name": "tokenByIndex",
      "outputs": [
        {
          "internalType": "uint256",
          "name": "",
          "type": "uint256"
        }
      ],
      "stateMutability": "view",
      "type": "function"
    },
    {
      "inputs": [
        {
          "internalType": "address",
          "name": "owner",
          "type": "address"
        },
        {
          "internalType": "uint256",
          "name": "index",
          "type": "uint256"
        }
      ],
      "name": "tokenOfOwnerByIndex",
      "outputs": [
        {
          "internalType": "uint256",
          "name": "",
          "type": "uint256"
        }
      ],
      "stateMutability": "view",
      "type": "function"
    },
    {
      "inputs": [
        {
          "internalType": "uint256",
          "name": "tokenId",
          "type": "uint256"
        }
      ],
      "name": "tokenURI",
      "outputs": [
        {
          "internalType": "string",
          "name": "",
          "type": "string"
        }
      ],
      "stateMutability": "view",
      "type": "function"
    },
    {
      "inputs": [],
      "name": "totalSupply",
      "outputs": [
        {
          "internalType": "uint256",
          "name": "",
          "type": "uint256"
        }
      ],
      "stateMutability": "view",
      "type": "function"
    },
    {
      "inputs": [
        {
          "internalType": "address",
          "name": "from",
          "type": "address"
        },
        {
          "internalType": "address",
          "name": "to",
          "type": "address"
        },
        {
          "internalType": "uint256",
          "name": "tokenId",
          "type": "uint256"
        }
      ],
      "name": "transferFrom",
      "outputs": [],
      "stateMutability": "nonpayable",
      "type": "function"
    },
    {
      "inputs": [
        {
          "internalType": "bytes4",
          "name": "interfaceId",
          "type": "bytes4"
        }
      ],
      "name": "supportsInterface",
      "outputs": [
        {
          "internalType": "bool",
          "name": "",
          "type": "bool"
        }
      ],
      "stateMutability": "view",
      "type": "function"
    },
    {
      "inputs": [
        {
          "internalType": "bool",
          "name": "isRare",
          "type": "bool"
        }
      ],
      "name": "generateNokai",
      "outputs": [
        {
          "internalType": "uint256",
          "name": "",
          "type": "uint256"
        }
      ],
      "stateMutability": "nonpayable",
      "type": "function"
    },
    {
      "inputs": [
        {
          "internalType": "uint256",
          "name": "nokaiId",
          "type": "uint256"
        },
        {
          "internalType": "uint256",
          "name": "targetId",
          "type": "uint256"
        },
        {
          "internalType": "enum NokaiStats.StatType",
          "name": "upgradeChoice",
          "type": "uint8"
        }
      ],
      "name": "absorb",
      "outputs": [],
      "stateMutability": "nonpayable",
      "type": "function"
    },
    {
      "inputs": [
        {
          "internalType": "uint256",
          "name": "nbLegendary",
          "type": "uint256"
        }
      ],
      "name": "setup",
      "outputs": [],
      "stateMutability": "nonpayable",
      "type": "function"
    },
    {
      "inputs": [],
      "name": "lockMint",
      "outputs": [],
      "stateMutability": "nonpayable",
      "type": "function"
    },
    {
      "inputs": [],
      "name": "unlockMint",
      "outputs": [],
      "stateMutability": "nonpayable",
      "type": "function"
    },
    {
      "inputs": [],
      "name": "lockTransfer",
      "outputs": [],
      "stateMutability": "nonpayable",
      "type": "function"
    },
    {
      "inputs": [],
      "name": "unlockTransfer",
      "outputs": [],
      "stateMutability": "nonpayable",
      "type": "function"
    },
    {
      "inputs": [
        {
          "internalType": "string",
          "name": "baseUri",
          "type": "string"
        }
      ],
      "name": "setUri",
      "outputs": [],
      "stateMutability": "nonpayable",
      "type": "function"
    }
  ],
  "bytecode": "0x60806040523480156200001157600080fd5b5060405162004fbc38038062004fbc833981810160405281019062000037919062000427565b6040518060400160405280600581526020017f4e6f6b61690000000000000000000000000000000000000000000000000000008152506040518060400160405280600381526020017f4b414900000000000000000000000000000000000000000000000000000000008152508160009080519060200190620000bb929190620002ee565b508060019080519060200190620000d4929190620002ee565b50505081600c60006101000a81548173ffffffffffffffffffffffffffffffffffffffff021916908373ffffffffffffffffffffffffffffffffffffffff1602179055506200013760006001023362000158640100000000026401000000009004565b80600d90805190602001906200014f929190620002ee565b50505062000600565b62000173828262000177640100000000026401000000009004565b5050565b6200019282826200027b640100000000026401000000009004565b62000277576001600a600084815260200190815260200160002060000160008373ffffffffffffffffffffffffffffffffffffffff1673ffffffffffffffffffffffffffffffffffffffff16815260200190815260200160002060006101000a81548160ff0219169083151502179055506200021c620002e6640100000000026401000000009004565b73ffffffffffffffffffffffffffffffffffffffff168173ffffffffffffffffffffffffffffffffffffffff16837f2f8788117e7eff1d82e926ec794901d17c78024a50270940304540a733656f0d60405160405180910390a45b5050565b6000600a600084815260200190815260200160002060000160008373ffffffffffffffffffffffffffffffffffffffff1673ffffffffffffffffffffffffffffffffffffffff16815260200190815260200160002060009054906101000a900460ff16905092915050565b600033905090565b828054620002fc9062000552565b90600052602060002090601f0160209004810192826200032057600085556200036c565b82601f106200033b57805160ff19168380011785556200036c565b828001600101855582156200036c579182015b828111156200036b5782518255916020019190600101906200034e565b5b5090506200037b91906200037f565b5090565b5b808211156200039a57600081600090555060010162000380565b5090565b6000620003b5620003af84620004b5565b62000481565b905082815260208101848484011115620003ce57600080fd5b620003db8482856200051c565b509392505050565b600081519050620003f481620005e6565b92915050565b600082601f8301126200040c57600080fd5b81516200041e8482602086016200039e565b91505092915050565b600080604083850312156200043b57600080fd5b60006200044b85828601620003e3565b925050602083015167ffffffffffffffff8111156200046957600080fd5b6200047785828601620003fa565b9150509250929050565b6000604051905081810181811067ffffffffffffffff82111715620004ab57620004aa620005b7565b5b8060405250919050565b600067ffffffffffffffff821115620004d357620004d2620005b7565b5b601f19601f8301169050602081019050919050565b6000620004f582620004fc565b9050919050565b600073ffffffffffffffffffffffffffffffffffffffff82169050919050565b60005b838110156200053c5780820151818401526020810190506200051f565b838111156200054c576000848401525b50505050565b600060028204905060018216806200056b57607f821691505b6020821081141562000582576200058162000588565b5b50919050565b7f4e487b7100000000000000000000000000000000000000000000000000000000600052602260045260246000fd5b7f4e487b7100000000000000000000000000000000000000000000000000000000600052604160045260246000fd5b620005f181620004e8565b8114620005fd57600080fd5b50565b6149ac80620006106000396000f3fe608060405234801561001057600080fd5b5060043610610202576000357c0100000000000000000000000000000000000000000000000000000000900480634fd17c6d1161012c578063a22cb465116100bf578063d547741f1161008e578063d547741f14610595578063e0b6bb67146105b1578063e985e9c5146105bb578063e9a9c850146105eb57610202565b8063a22cb46514610523578063b88d4fde1461053f578063bf6d9abd1461055b578063c87b56dd1461056557610202565b806391d14854116100fb57806391d148541461049b57806395d89b41146104cb5780639b642de1146104e9578063a217fddf1461050557610202565b80634fd17c6d146104155780635a9a664f146104315780636352211e1461043b57806370a082311461046b57610202565b8063248a9ca3116101a457806342842e0e1161017357806342842e0e1461037d5780634313b9e51461039957806346e482e4146103b55780634f6ccce7146103e557610202565b8063248a9ca3146102e55780632f2ff15d146103155780632f745c591461033157806336568abe1461036157610202565b8063095ea7b3116101e0578063095ea7b31461028557806318160ddd146102a15780631a9aea0a146102bf57806323b872dd146102c957610202565b806301ffc9a71461020757806306fdde0314610237578063081812fc14610255575b600080fd5b610221600480360381019061021c9190613523565b610609565b60405161022e91906140c5565b60405180910390f35b61023f61061b565b60405161024c91906140fb565b60405180910390f35b61026f600480360381019061026a91906135ba565b6106ad565b60405161027c919061405e565b60405180910390f35b61029f600480360381019061029a9190613459565b610732565b005b6102a961084a565b6040516102b6919061441d565b60405180910390f35b6102c7610857565b005b6102e360048036038101906102de9190613353565b61088b565b005b6102ff60048036038101906102fa91906134be565b6108eb565b60405161030c91906140e0565b60405180910390f35b61032f600480360381019061032a91906134e7565b61090b565b005b61034b60048036038101906103469190613459565b610934565b604051610358919061441d565b60405180910390f35b61037b600480360381019061037691906134e7565b6109d9565b005b61039760048036038101906103929190613353565b610a5c565b005b6103b360048036038101906103ae91906135ba565b610a7c565b005b6103cf60048036038101906103ca9190613495565b610bf2565b6040516103dc919061441d565b60405180910390f35b6103ff60048036038101906103fa91906135ba565b610ea7565b60405161040c919061441d565b60405180910390f35b61042f600480360381019061042a91906135e3565b610f3e565b005b610439611129565b005b610455600480360381019061045091906135ba565b61115d565b604051610462919061405e565b60405180910390f35b610485600480360381019061048091906132ee565b61120f565b604051610492919061441d565b60405180910390f35b6104b560048036038101906104b091906134e7565b6112c7565b6040516104c291906140c5565b60405180910390f35b6104d3611332565b6040516104e091906140fb565b60405180910390f35b61050360048036038101906104fe9190613575565b6113c4565b005b61050d6113f1565b60405161051a91906140e0565b60405180910390f35b61053d6004803603810190610538919061341d565b6113f9565b005b610559600480360381019061055491906133a2565b61140f565b005b610563611471565b005b61057f600480360381019061057a91906135ba565b6114a5565b60405161058c91906140fb565b60405180910390f35b6105af60048036038101906105aa91906134e7565b61154c565b005b6105b9611575565b005b6105d560048036038101906105d09190613317565b6115a9565b6040516105e291906140c5565b60405180910390f35b6105f361163d565b60405161060091906140e0565b60405180910390f35b600061061482611661565b9050919050565b60606000805461062a90614737565b80601f016020809104026020016040519081016040528092919081815260200182805461065690614737565b80156106a35780601f10610678576101008083540402835291602001916106a3565b820191906000526020600020905b81548152906001019060200180831161068657829003601f168201915b5050505050905090565b60006106b8826116db565b6106f7576040517f08c379a00000000000000000000000000000000000000000000000000000000081526004016106ee906142fd565b60405180910390fd5b6004600083815260200190815260200160002060009054906101000a900473ffffffffffffffffffffffffffffffffffffffff169050919050565b600061073d8261115d565b90508073ffffffffffffffffffffffffffffffffffffffff168373ffffffffffffffffffffffffffffffffffffffff1614156107ae576040517f08c379a00000000000000000000000000000000000000000000000000000000081526004016107a59061435d565b60405180910390fd5b8073ffffffffffffffffffffffffffffffffffffffff166107cd611747565b73ffffffffffffffffffffffffffffffffffffffff1614806107fc57506107fb816107f6611747565b6115a9565b5b61083b576040517f08c379a00000000000000000000000000000000000000000000000000000000081526004016108329061423d565b60405180910390fd5b610845838361174f565b505050565b6000600880549050905090565b600060010261086d81610868611747565b611808565b6001600c60166101000a81548160ff02191690831515021790555050565b61089c610896611747565b826118a6565b6108db576040517f08c379a00000000000000000000000000000000000000000000000000000000081526004016108d29061439d565b60405180910390fd5b6108e6838383611984565b505050565b6000600a6000838152602001908152602001600020600101549050919050565b610914826108eb565b61092581610920611747565b611808565b61092f8383611be0565b505050565b600061093f8361120f565b8210610980576040517f08c379a00000000000000000000000000000000000000000000000000000000081526004016109779061415d565b60405180910390fd5b600660008473ffffffffffffffffffffffffffffffffffffffff1673ffffffffffffffffffffffffffffffffffffffff168152602001908152602001600020600083815260200190815260200160002054905092915050565b6109e1611747565b73ffffffffffffffffffffffffffffffffffffffff168173ffffffffffffffffffffffffffffffffffffffff1614610a4e576040517f08c379a0000000000000000000000000000000000000000000000000000000008152600401610a45906143fd565b60405180910390fd5b610a588282611cc1565b5050565b610a778383836040518060200160405280600081525061140f565b505050565b6000600102610a9281610a8d611747565b611808565b60001515600c60149054906101000a900460ff16151514610ae8576040517f08c379a0000000000000000000000000000000000000000000000000000000008152600401610adf906143dd565b60405180910390fd5b60005b82811015610bd257610afd600b611da3565b6000610b09600b611db9565b9050610b153382611dc7565b600c60009054906101000a900473ffffffffffffffffffffffffffffffffffffffff1673ffffffffffffffffffffffffffffffffffffffff16639ac3da14826040518263ffffffff167c0100000000000000000000000000000000000000000000000000000000028152600401610b8c919061441d565b600060405180830381600087803b158015610ba657600080fd5b505af1158015610bba573d6000803e3d6000fd5b50505050508080610bca90614769565b915050610aeb565b506001600c60146101000a81548160ff0219169083151502179055505050565b60007f154c00819833dac601ee5ddded6fda79d9d8b506b911b3dbd54cdb95fe6c3686610c2681610c21611747565b611808565b60011515600c60149054906101000a900460ff16151514610c7c576040517f08c379a0000000000000000000000000000000000000000000000000000000008152600401610c739061413d565b60405180910390fd5b60001515600c60159054906101000a900460ff16151514610cd2576040517f08c379a0000000000000000000000000000000000000000000000000000000008152600401610cc9906142dd565b60405180910390fd5b610cdc600b611da3565b6000610ce8600b611db9565b9050610cf43382611dc7565b600115158415151415610daf57600c60009054906101000a900473ffffffffffffffffffffffffffffffffffffffff1673ffffffffffffffffffffffffffffffffffffffff166376c312dd826040518263ffffffff167c0100000000000000000000000000000000000000000000000000000000028152600401610d78919061441d565b600060405180830381600087803b158015610d9257600080fd5b505af1158015610da6573d6000803e3d6000fd5b50505050610e59565b600c60009054906101000a900473ffffffffffffffffffffffffffffffffffffffff1673ffffffffffffffffffffffffffffffffffffffff1663f6e253e3826040518263ffffffff167c0100000000000000000000000000000000000000000000000000000000028152600401610e26919061441d565b600060405180830381600087803b158015610e4057600080fd5b505af1158015610e54573d6000803e3d6000fd5b505050505b3373ffffffffffffffffffffffffffffffffffffffff16817f52da863152d7e18ffbf279f989249d1ee34ca632b946f9c653faff86ee0ade4a60405160405180910390a38092505050919050565b6000610eb161084a565b8210610ef2576040517f08c379a0000000000000000000000000000000000000000000000000000000008152600401610ee9906143bd565b60405180910390fd5b60088281548110610f2c577f4e487b7100000000000000000000000000000000000000000000000000000000600052603260045260246000fd5b90600052602060002001549050919050565b3373ffffffffffffffffffffffffffffffffffffffff16610f5e8461115d565b73ffffffffffffffffffffffffffffffffffffffff1614610fb4576040517f08c379a0000000000000000000000000000000000000000000000000000000008152600401610fab9061429d565b60405180910390fd5b3373ffffffffffffffffffffffffffffffffffffffff16610fd48361115d565b73ffffffffffffffffffffffffffffffffffffffff161461102a576040517f08c379a00000000000000000000000000000000000000000000000000000000081526004016110219061421d565b60405180910390fd5b61103382611de5565b600c60009054906101000a900473ffffffffffffffffffffffffffffffffffffffff1673ffffffffffffffffffffffffffffffffffffffff16631093a0128484846040518463ffffffff167c01000000000000000000000000000000000000000000000000000000000281526004016110ae93929190614438565b600060405180830381600087803b1580156110c857600080fd5b505af11580156110dc573d6000803e3d6000fd5b505050503373ffffffffffffffffffffffffffffffffffffffff16837f656148db9f7b42d4b7ab953b1dc9b571383b10640555cb126aad2db21502793460405160405180910390a3505050565b600060010261113f8161113a611747565b611808565b6001600c60156101000a81548160ff02191690831515021790555050565b6000806002600084815260200190815260200160002060009054906101000a900473ffffffffffffffffffffffffffffffffffffffff169050600073ffffffffffffffffffffffffffffffffffffffff168173ffffffffffffffffffffffffffffffffffffffff161415611206576040517f08c379a00000000000000000000000000000000000000000000000000000000081526004016111fd9061427d565b60405180910390fd5b80915050919050565b60008073ffffffffffffffffffffffffffffffffffffffff168273ffffffffffffffffffffffffffffffffffffffff161415611280576040517f08c379a00000000000000000000000000000000000000000000000000000000081526004016112779061425d565b60405180910390fd5b600360008373ffffffffffffffffffffffffffffffffffffffff1673ffffffffffffffffffffffffffffffffffffffff168152602001908152602001600020549050919050565b6000600a600084815260200190815260200160002060000160008373ffffffffffffffffffffffffffffffffffffffff1673ffffffffffffffffffffffffffffffffffffffff16815260200190815260200160002060009054906101000a900460ff16905092915050565b60606001805461134190614737565b80601f016020809104026020016040519081016040528092919081815260200182805461136d90614737565b80156113ba5780601f1061138f576101008083540402835291602001916113ba565b820191906000526020600020905b81548152906001019060200180831161139d57829003601f168201915b5050505050905090565b60006001026113da816113d5611747565b611808565b8282600d91906113eb929190613106565b50505050565b600060010281565b61140b611404611747565b8383611ef6565b5050565b61142061141a611747565b836118a6565b61145f576040517f08c379a00000000000000000000000000000000000000000000000000000000081526004016114569061439d565b60405180910390fd5b61146b84848484612063565b50505050565b600060010261148781611482611747565b611808565b6000600c60166101000a81548160ff02191690831515021790555050565b60606114b0826116db565b6114ef576040517f08c379a00000000000000000000000000000000000000000000000000000000081526004016114e69061433d565b60405180910390fd5b60006114f96120bf565b905060008151116115195760405180602001604052806000815250611544565b8061152384612151565b604051602001611534929190614000565b6040516020818303038152906040525b915050919050565b611555826108eb565b61156681611561611747565b611808565b6115708383611cc1565b505050565b600060010261158b81611586611747565b611808565b6001600c60156101000a81548160ff02191690831515021790555050565b6000600560008473ffffffffffffffffffffffffffffffffffffffff1673ffffffffffffffffffffffffffffffffffffffff16815260200190815260200160002060008373ffffffffffffffffffffffffffffffffffffffff1673ffffffffffffffffffffffffffffffffffffffff16815260200190815260200160002060009054906101000a900460ff16905092915050565b7f154c00819833dac601ee5ddded6fda79d9d8b506b911b3dbd54cdb95fe6c368681565b60007f7965db0b000000000000000000000000000000000000000000000000000000007bffffffffffffffffffffffffffffffffffffffffffffffffffffffff1916827bffffffffffffffffffffffffffffffffffffffffffffffffffffffff191614806116d457506116d38261231d565b5b9050919050565b60008073ffffffffffffffffffffffffffffffffffffffff166002600084815260200190815260200160002060009054906101000a900473ffffffffffffffffffffffffffffffffffffffff1673ffffffffffffffffffffffffffffffffffffffff1614159050919050565b600033905090565b816004600083815260200190815260200160002060006101000a81548173ffffffffffffffffffffffffffffffffffffffff021916908373ffffffffffffffffffffffffffffffffffffffff160217905550808273ffffffffffffffffffffffffffffffffffffffff166117c28361115d565b73ffffffffffffffffffffffffffffffffffffffff167f8c5be1e5ebec7d5bd14f71427d1e84f3dd0314c0f7b2291e5b200ac8c7c3b92560405160405180910390a45050565b61181282826112c7565b6118a2576118378173ffffffffffffffffffffffffffffffffffffffff166014612397565b61184683600190046020612397565b604051602001611857929190614024565b6040516020818303038152906040526040517f08c379a000000000000000000000000000000000000000000000000000000000815260040161189991906140fb565b60405180910390fd5b5050565b60006118b1826116db565b6118f0576040517f08c379a00000000000000000000000000000000000000000000000000000000081526004016118e7906141fd565b60405180910390fd5b60006118fb8361115d565b90508073ffffffffffffffffffffffffffffffffffffffff168473ffffffffffffffffffffffffffffffffffffffff16148061196a57508373ffffffffffffffffffffffffffffffffffffffff16611952846106ad565b73ffffffffffffffffffffffffffffffffffffffff16145b8061197b575061197a81856115a9565b5b91505092915050565b8273ffffffffffffffffffffffffffffffffffffffff166119a48261115d565b73ffffffffffffffffffffffffffffffffffffffff16146119fa576040517f08c379a00000000000000000000000000000000000000000000000000000000081526004016119f19061431d565b60405180910390fd5b600073ffffffffffffffffffffffffffffffffffffffff168273ffffffffffffffffffffffffffffffffffffffff161415611a6a576040517f08c379a0000000000000000000000000000000000000000000000000000000008152600401611a61906141bd565b60405180910390fd5b611a758383836126b8565b611a8060008261174f565b6001600360008573ffffffffffffffffffffffffffffffffffffffff1673ffffffffffffffffffffffffffffffffffffffff1681526020019081526020016000206000828254611ad091906145f4565b925050819055506001600360008473ffffffffffffffffffffffffffffffffffffffff1673ffffffffffffffffffffffffffffffffffffffff1681526020019081526020016000206000828254611b279190614513565b92505081905550816002600083815260200190815260200160002060006101000a81548173ffffffffffffffffffffffffffffffffffffffff021916908373ffffffffffffffffffffffffffffffffffffffff160217905550808273ffffffffffffffffffffffffffffffffffffffff168473ffffffffffffffffffffffffffffffffffffffff167fddf252ad1be2c89b69c2b068fc378daa952ba7f163c4a11628f55a4df523b3ef60405160405180910390a4505050565b611bea82826112c7565b611cbd576001600a600084815260200190815260200160002060000160008373ffffffffffffffffffffffffffffffffffffffff1673ffffffffffffffffffffffffffffffffffffffff16815260200190815260200160002060006101000a81548160ff021916908315150217905550611c62611747565b73ffffffffffffffffffffffffffffffffffffffff168173ffffffffffffffffffffffffffffffffffffffff16837f2f8788117e7eff1d82e926ec794901d17c78024a50270940304540a733656f0d60405160405180910390a45b5050565b611ccb82826112c7565b15611d9f576000600a600084815260200190815260200160002060000160008373ffffffffffffffffffffffffffffffffffffffff1673ffffffffffffffffffffffffffffffffffffffff16815260200190815260200160002060006101000a81548160ff021916908315150217905550611d44611747565b73ffffffffffffffffffffffffffffffffffffffff168173ffffffffffffffffffffffffffffffffffffffff16837ff6391f5c32d9c69d2a47ea670b442974b53935d1edc7fd64eb21e047a839171b60405160405180910390a45b5050565b6001816000016000828254019250508190555050565b600081600001549050919050565b611de182826040518060200160405280600081525061271e565b5050565b6000611df08261115d565b9050611dfe816000846126b8565b611e0960008361174f565b6001600360008373ffffffffffffffffffffffffffffffffffffffff1673ffffffffffffffffffffffffffffffffffffffff1681526020019081526020016000206000828254611e5991906145f4565b925050819055506002600083815260200190815260200160002060006101000a81549073ffffffffffffffffffffffffffffffffffffffff021916905581600073ffffffffffffffffffffffffffffffffffffffff168273ffffffffffffffffffffffffffffffffffffffff167fddf252ad1be2c89b69c2b068fc378daa952ba7f163c4a11628f55a4df523b3ef60405160405180910390a45050565b8173ffffffffffffffffffffffffffffffffffffffff168373ffffffffffffffffffffffffffffffffffffffff161415611f65576040517f08c379a0000000000000000000000000000000000000000000000000000000008152600401611f5c906141dd565b60405180910390fd5b80600560008573ffffffffffffffffffffffffffffffffffffffff1673ffffffffffffffffffffffffffffffffffffffff16815260200190815260200160002060008473ffffffffffffffffffffffffffffffffffffffff1673ffffffffffffffffffffffffffffffffffffffff16815260200190815260200160002060006101000a81548160ff0219169083151502179055508173ffffffffffffffffffffffffffffffffffffffff168373ffffffffffffffffffffffffffffffffffffffff167f17307eab39ab6107e8899845ad3d59bd9653f200f220920489ca2b5937696c318360405161205691906140c5565b60405180910390a3505050565b61206e848484611984565b61207a84848484612779565b6120b9576040517f08c379a00000000000000000000000000000000000000000000000000000000081526004016120b09061417d565b60405180910390fd5b50505050565b6060600d80546120ce90614737565b80601f01602080910402602001604051908101604052809291908181526020018280546120fa90614737565b80156121475780601f1061211c57610100808354040283529160200191612147565b820191906000526020600020905b81548152906001019060200180831161212a57829003601f168201915b5050505050905090565b60606000821415612199576040518060400160405280600181526020017f30000000000000000000000000000000000000000000000000000000000000008152509050612318565b600082905060005b600082146121cb5780806121b490614769565b915050600a826121c49190614569565b91506121a1565b60008167ffffffffffffffff81111561220d577f4e487b7100000000000000000000000000000000000000000000000000000000600052604160045260246000fd5b6040519080825280601f01601f19166020018201604052801561223f5781602001600182028036833780820191505090505b5090505b600085146123115760018261225891906145f4565b9150600a8561226791906147b2565b60306122739190614513565b7f0100000000000000000000000000000000000000000000000000000000000000028183815181106122ce577f4e487b7100000000000000000000000000000000000000000000000000000000600052603260045260246000fd5b60200101907effffffffffffffffffffffffffffffffffffffffffffffffffffffffffffff1916908160001a905350600a8561230a9190614569565b9450612243565b8093505050505b919050565b60007f780e9d63000000000000000000000000000000000000000000000000000000007bffffffffffffffffffffffffffffffffffffffffffffffffffffffff1916827bffffffffffffffffffffffffffffffffffffffffffffffffffffffff19161480612390575061238f82612948565b5b9050919050565b6060600060028360026123aa919061459a565b6123b49190614513565b67ffffffffffffffff8111156123f3577f4e487b7100000000000000000000000000000000000000000000000000000000600052604160045260246000fd5b6040519080825280601f01601f1916602001820160405280156124255781602001600182028036833780820191505090505b5090507f300000000000000000000000000000000000000000000000000000000000000081600081518110612483577f4e487b7100000000000000000000000000000000000000000000000000000000600052603260045260246000fd5b60200101907effffffffffffffffffffffffffffffffffffffffffffffffffffffffffffff1916908160001a9053507f78000000000000000000000000000000000000000000000000000000000000008160018151811061250d577f4e487b7100000000000000000000000000000000000000000000000000000000600052603260045260246000fd5b60200101907effffffffffffffffffffffffffffffffffffffffffffffffffffffffffffff1916908160001a9053506000600184600261254d919061459a565b6125579190614513565b90505b600181111561266a577f3031323334353637383961626364656600000000000000000000000000000000600f8616601081106125bf577f4e487b7100000000000000000000000000000000000000000000000000000000600052603260045260246000fd5b1a7f01000000000000000000000000000000000000000000000000000000000000000282828151811061261b577f4e487b7100000000000000000000000000000000000000000000000000000000600052603260045260246000fd5b60200101907effffffffffffffffffffffffffffffffffffffffffffffffffffffffffffff1916908160001a905350600485908060020a82049150509450806126639061470d565b905061255a565b50600084146126ae576040517f08c379a00000000000000000000000000000000000000000000000000000000081526004016126a59061411d565b60405180910390fd5b8091505092915050565b60001515600c60169054906101000a900460ff1615151461270e576040517f08c379a00000000000000000000000000000000000000000000000000000000081526004016127059061437d565b60405180910390fd5b612719838383612a2a565b505050565b6127288383612b3e565b6127356000848484612779565b612774576040517f08c379a000000000000000000000000000000000000000000000000000000000815260040161276b9061417d565b60405180910390fd5b505050565b600061279a8473ffffffffffffffffffffffffffffffffffffffff16612d0c565b1561293b578373ffffffffffffffffffffffffffffffffffffffff1663150b7a026127c3611747565b8786866040518563ffffffff167c01000000000000000000000000000000000000000000000000000000000281526004016128019493929190614079565b602060405180830381600087803b15801561281b57600080fd5b505af192505050801561284c57506040513d601f19601f82011682018060405250810190612849919061354c565b60015b6128cf573d806000811461287c576040519150601f19603f3d011682016040523d82523d6000602084013e612881565b606091505b506000815114156128c7576040517f08c379a00000000000000000000000000000000000000000000000000000000081526004016128be9061417d565b60405180910390fd5b805181602001fd5b63150b7a027c0100000000000000000000000000000000000000000000000000000000027bffffffffffffffffffffffffffffffffffffffffffffffffffffffff1916817bffffffffffffffffffffffffffffffffffffffffffffffffffffffff191614915050612940565b600190505b949350505050565b60007f80ac58cd000000000000000000000000000000000000000000000000000000007bffffffffffffffffffffffffffffffffffffffffffffffffffffffff1916827bffffffffffffffffffffffffffffffffffffffffffffffffffffffff19161480612a1357507f5b5e139f000000000000000000000000000000000000000000000000000000007bffffffffffffffffffffffffffffffffffffffffffffffffffffffff1916827bffffffffffffffffffffffffffffffffffffffffffffffffffffffff1916145b80612a235750612a2282612d1f565b5b9050919050565b612a35838383612d89565b600073ffffffffffffffffffffffffffffffffffffffff168373ffffffffffffffffffffffffffffffffffffffff161415612a7857612a7381612d8e565b612ab7565b8173ffffffffffffffffffffffffffffffffffffffff168373ffffffffffffffffffffffffffffffffffffffff1614612ab657612ab58382612dd7565b5b5b600073ffffffffffffffffffffffffffffffffffffffff168273ffffffffffffffffffffffffffffffffffffffff161415612afa57612af581612f44565b612b39565b8273ffffffffffffffffffffffffffffffffffffffff168273ffffffffffffffffffffffffffffffffffffffff1614612b3857612b378282613087565b5b5b505050565b600073ffffffffffffffffffffffffffffffffffffffff168273ffffffffffffffffffffffffffffffffffffffff161415612bae576040517f08c379a0000000000000000000000000000000000000000000000000000000008152600401612ba5906142bd565b60405180910390fd5b612bb7816116db565b15612bf7576040517f08c379a0000000000000000000000000000000000000000000000000000000008152600401612bee9061419d565b60405180910390fd5b612c03600083836126b8565b6001600360008473ffffffffffffffffffffffffffffffffffffffff1673ffffffffffffffffffffffffffffffffffffffff1681526020019081526020016000206000828254612c539190614513565b92505081905550816002600083815260200190815260200160002060006101000a81548173ffffffffffffffffffffffffffffffffffffffff021916908373ffffffffffffffffffffffffffffffffffffffff160217905550808273ffffffffffffffffffffffffffffffffffffffff16600073ffffffffffffffffffffffffffffffffffffffff167fddf252ad1be2c89b69c2b068fc378daa952ba7f163c4a11628f55a4df523b3ef60405160405180910390a45050565b600080823b905060008111915050919050565b60007f01ffc9a7000000000000000000000000000000000000000000000000000000007bffffffffffffffffffffffffffffffffffffffffffffffffffffffff1916827bffffffffffffffffffffffffffffffffffffffffffffffffffffffff1916149050919050565b505050565b6008805490506009600083815260200190815260200160002081905550600881908060018154018082558091505060019003906000526020600020016000909190919091505550565b60006001612de48461120f565b612dee91906145f4565b9050600060076000848152602001908152602001600020549050818114612ed3576000600660008673ffffffffffffffffffffffffffffffffffffffff1673ffffffffffffffffffffffffffffffffffffffff168152602001908152602001600020600084815260200190815260200160002054905080600660008773ffffffffffffffffffffffffffffffffffffffff1673ffffffffffffffffffffffffffffffffffffffff168152602001908152602001600020600084815260200190815260200160002081905550816007600083815260200190815260200160002081905550505b6007600084815260200190815260200160002060009055600660008573ffffffffffffffffffffffffffffffffffffffff1673ffffffffffffffffffffffffffffffffffffffff16815260200190815260200160002060008381526020019081526020016000206000905550505050565b60006001600880549050612f5891906145f4565b9050600060096000848152602001908152602001600020549050600060088381548110612fae577f4e487b7100000000000000000000000000000000000000000000000000000000600052603260045260246000fd5b906000526020600020015490508060088381548110612ff6577f4e487b7100000000000000000000000000000000000000000000000000000000600052603260045260246000fd5b90600052602060002001819055508160096000838152602001908152602001600020819055506009600085815260200190815260200160002060009055600880548061306b577f4e487b7100000000000000000000000000000000000000000000000000000000600052603160045260246000fd5b6001900381819060005260206000200160009055905550505050565b60006130928361120f565b905081600660008573ffffffffffffffffffffffffffffffffffffffff1673ffffffffffffffffffffffffffffffffffffffff168152602001908152602001600020600083815260200190815260200160002081905550806007600084815260200190815260200160002081905550505050565b82805461311290614737565b90600052602060002090601f016020900481019282613134576000855561317b565b82601f1061314d57803560ff191683800117855561317b565b8280016001018555821561317b579182015b8281111561317a57823582559160200191906001019061315f565b5b509050613188919061318c565b5090565b5b808211156131a557600081600090555060010161318d565b5090565b60006131bc6131b7846144a0565b61446f565b9050828152602081018484840111156131d457600080fd5b6131df8482856146cb565b509392505050565b6000813590506131f6816148f3565b92915050565b60008135905061320b8161490a565b92915050565b60008135905061322081614921565b92915050565b60008135905061323581614938565b92915050565b60008151905061324a81614938565b92915050565b600082601f83011261326157600080fd5b81356132718482602086016131a9565b91505092915050565b6000813590506132898161494f565b92915050565b60008083601f8401126132a157600080fd5b8235905067ffffffffffffffff8111156132ba57600080fd5b6020830191508360018202830111156132d257600080fd5b9250929050565b6000813590506132e88161495f565b92915050565b60006020828403121561330057600080fd5b600061330e848285016131e7565b91505092915050565b6000806040838503121561332a57600080fd5b6000613338858286016131e7565b9250506020613349858286016131e7565b9150509250929050565b60008060006060848603121561336857600080fd5b6000613376868287016131e7565b9350506020613387868287016131e7565b9250506040613398868287016132d9565b9150509250925092565b600080600080608085870312156133b857600080fd5b60006133c6878288016131e7565b94505060206133d7878288016131e7565b93505060406133e8878288016132d9565b925050606085013567ffffffffffffffff81111561340557600080fd5b61341187828801613250565b91505092959194509250565b6000806040838503121561343057600080fd5b600061343e858286016131e7565b925050602061344f858286016131fc565b9150509250929050565b6000806040838503121561346c57600080fd5b600061347a858286016131e7565b925050602061348b858286016132d9565b9150509250929050565b6000602082840312156134a757600080fd5b60006134b5848285016131fc565b91505092915050565b6000602082840312156134d057600080fd5b60006134de84828501613211565b91505092915050565b600080604083850312156134fa57600080fd5b600061350885828601613211565b9250506020613519858286016131e7565b9150509250929050565b60006020828403121561353557600080fd5b600061354384828501613226565b91505092915050565b60006020828403121561355e57600080fd5b600061356c8482850161323b565b91505092915050565b6000806020838503121561358857600080fd5b600083013567ffffffffffffffff8111156135a257600080fd5b6135ae8582860161328f565b92509250509250929050565b6000602082840312156135cc57600080fd5b60006135da848285016132d9565b91505092915050565b6000806000606084860312156135f857600080fd5b6000613606868287016132d9565b9350506020613617868287016132d9565b92505060406136288682870161327a565b9150509250925092565b61363b81614628565b82525050565b61364a8161463a565b82525050565b61365981614646565b82525050565b600061366a826144d0565b61367481856144e6565b93506136848185602086016146da565b61368d816148ce565b840191505092915050565b6136a1816146b9565b82525050565b60006136b2826144db565b6136bc81856144f7565b93506136cc8185602086016146da565b6136d5816148ce565b840191505092915050565b60006136eb826144db565b6136f58185614508565b93506137058185602086016146da565b80840191505092915050565b600061371e6020836144f7565b91507f537472696e67733a20686578206c656e67746820696e73756666696369656e746000830152602082019050919050565b600061375e601a836144f7565b91507f6d696e74206973206e6f7420617661696c61626c65207965742e0000000000006000830152602082019050919050565b600061379e602b836144f7565b91507f455243373231456e756d657261626c653a206f776e657220696e646578206f7560008301527f74206f6620626f756e64730000000000000000000000000000000000000000006020830152604082019050919050565b60006138046032836144f7565b91507f4552433732313a207472616e7366657220746f206e6f6e20455243373231526560008301527f63656976657220696d706c656d656e74657200000000000000000000000000006020830152604082019050919050565b600061386a601c836144f7565b91507f4552433732313a20746f6b656e20616c7265616479206d696e746564000000006000830152602082019050919050565b60006138aa6024836144f7565b91507f4552433732313a207472616e7366657220746f20746865207a65726f2061646460008301527f72657373000000000000000000000000000000000000000000000000000000006020830152604082019050919050565b60006139106019836144f7565b91507f4552433732313a20617070726f766520746f2063616c6c6572000000000000006000830152602082019050919050565b6000613950602c836144f7565b91507f4552433732313a206f70657261746f7220717565727920666f72206e6f6e657860008301527f697374656e7420746f6b656e00000000000000000000000000000000000000006020830152604082019050919050565b60006139b66029836144f7565b91507f796f7520646f206e6f742068617665206f776e657273686970206f6e2074686960008301527f73207461726765742e00000000000000000000000000000000000000000000006020830152604082019050919050565b6000613a1c6038836144f7565b91507f4552433732313a20617070726f76652063616c6c6572206973206e6f74206f7760008301527f6e6572206e6f7220617070726f76656420666f7220616c6c00000000000000006020830152604082019050919050565b6000613a82602a836144f7565b91507f4552433732313a2062616c616e636520717565727920666f7220746865207a6560008301527f726f2061646472657373000000000000000000000000000000000000000000006020830152604082019050919050565b6000613ae86029836144f7565b91507f4552433732313a206f776e657220717565727920666f72206e6f6e657869737460008301527f656e7420746f6b656e00000000000000000000000000000000000000000000006020830152604082019050919050565b6000613b4e6028836144f7565b91507f796f7520646f206e6f742068617665206f776e657273686970206f6e2074686960008301527f73204e6f6b61692e0000000000000000000000000000000000000000000000006020830152604082019050919050565b6000613bb46020836144f7565b91507f4552433732313a206d696e7420746f20746865207a65726f20616464726573736000830152602082019050919050565b6000613bf46015836144f7565b91507f6d696e7420686173206265656e206c6f636b65642e00000000000000000000006000830152602082019050919050565b6000613c34602c836144f7565b91507f4552433732313a20617070726f76656420717565727920666f72206e6f6e657860008301527f697374656e7420746f6b656e00000000000000000000000000000000000000006020830152604082019050919050565b6000613c9a6029836144f7565b91507f4552433732313a207472616e73666572206f6620746f6b656e2074686174206960008301527f73206e6f74206f776e00000000000000000000000000000000000000000000006020830152604082019050919050565b6000613d00602f836144f7565b91507f4552433732314d657461646174613a2055524920717565727920666f72206e6f60008301527f6e6578697374656e7420746f6b656e00000000000000000000000000000000006020830152604082019050919050565b6000613d666021836144f7565b91507f4552433732313a20617070726f76616c20746f2063757272656e74206f776e6560008301527f72000000000000000000000000000000000000000000000000000000000000006020830152604082019050919050565b6000613dcc6019836144f7565b91507f7472616e7366657220686173206265656e206c6f636b65642e000000000000006000830152602082019050919050565b6000613e0c6031836144f7565b91507f4552433732313a207472616e736665722063616c6c6572206973206e6f74206f60008301527f776e6572206e6f7220617070726f7665640000000000000000000000000000006020830152604082019050919050565b6000613e72602c836144f7565b91507f455243373231456e756d657261626c653a20676c6f62616c20696e646578206f60008301527f7574206f6620626f756e647300000000000000000000000000000000000000006020830152604082019050919050565b6000613ed86018836144f7565b91507f736574757020616c726561647920636f6d706c657465642e00000000000000006000830152602082019050919050565b6000613f18601783614508565b91507f416363657373436f6e74726f6c3a206163636f756e74200000000000000000006000830152601782019050919050565b6000613f58601183614508565b91507f206973206d697373696e6720726f6c65200000000000000000000000000000006000830152601182019050919050565b6000613f98602f836144f7565b91507f416363657373436f6e74726f6c3a2063616e206f6e6c792072656e6f756e636560008301527f20726f6c657320666f722073656c6600000000000000000000000000000000006020830152604082019050919050565b613ffa816146af565b82525050565b600061400c82856136e0565b915061401882846136e0565b91508190509392505050565b600061402f82613f0b565b915061403b82856136e0565b915061404682613f4b565b915061405282846136e0565b91508190509392505050565b60006020820190506140736000830184613632565b92915050565b600060808201905061408e6000830187613632565b61409b6020830186613632565b6140a86040830185613ff1565b81810360608301526140ba818461365f565b905095945050505050565b60006020820190506140da6000830184613641565b92915050565b60006020820190506140f56000830184613650565b92915050565b6000602082019050818103600083015261411581846136a7565b905092915050565b6000602082019050818103600083015261413681613711565b9050919050565b6000602082019050818103600083015261415681613751565b9050919050565b6000602082019050818103600083015261417681613791565b9050919050565b60006020820190508181036000830152614196816137f7565b9050919050565b600060208201905081810360008301526141b68161385d565b9050919050565b600060208201905081810360008301526141d68161389d565b9050919050565b600060208201905081810360008301526141f681613903565b9050919050565b6000602082019050818103600083015261421681613943565b9050919050565b60006020820190508181036000830152614236816139a9565b9050919050565b6000602082019050818103600083015261425681613a0f565b9050919050565b6000602082019050818103600083015261427681613a75565b9050919050565b6000602082019050818103600083015261429681613adb565b9050919050565b600060208201905081810360008301526142b681613b41565b9050919050565b600060208201905081810360008301526142d681613ba7565b9050919050565b600060208201905081810360008301526142f681613be7565b9050919050565b6000602082019050818103600083015261431681613c27565b9050919050565b6000602082019050818103600083015261433681613c8d565b9050919050565b6000602082019050818103600083015261435681613cf3565b9050919050565b6000602082019050818103600083015261437681613d59565b9050919050565b6000602082019050818103600083015261439681613dbf565b9050919050565b600060208201905081810360008301526143b681613dff565b9050919050565b600060208201905081810360008301526143d681613e65565b9050919050565b600060208201905081810360008301526143f681613ecb565b9050919050565b6000602082019050818103600083015261441681613f8b565b9050919050565b60006020820190506144326000830184613ff1565b92915050565b600060608201905061444d6000830186613ff1565b61445a6020830185613ff1565b6144676040830184613698565b949350505050565b6000604051905081810181811067ffffffffffffffff821117156144965761449561489f565b5b8060405250919050565b600067ffffffffffffffff8211156144bb576144ba61489f565b5b601f19601f8301169050602081019050919050565b600081519050919050565b600081519050919050565b600082825260208201905092915050565b600082825260208201905092915050565b600081905092915050565b600061451e826146af565b9150614529836146af565b9250827fffffffffffffffffffffffffffffffffffffffffffffffffffffffffffffffff0382111561455e5761455d6147e3565b5b828201905092915050565b6000614574826146af565b915061457f836146af565b92508261458f5761458e614812565b5b828204905092915050565b60006145a5826146af565b91506145b0836146af565b9250817fffffffffffffffffffffffffffffffffffffffffffffffffffffffffffffffff04831182151516156145e9576145e86147e3565b5b828202905092915050565b60006145ff826146af565b915061460a836146af565b92508282101561461d5761461c6147e3565b5b828203905092915050565b60006146338261468f565b9050919050565b60008115159050919050565b6000819050919050565b60007fffffffff0000000000000000000000000000000000000000000000000000000082169050919050565b600081905061468a826148df565b919050565b600073ffffffffffffffffffffffffffffffffffffffff82169050919050565b6000819050919050565b60006146c48261467c565b9050919050565b82818337600083830152505050565b60005b838110156146f85780820151818401526020810190506146dd565b83811115614707576000848401525b50505050565b6000614718826146af565b9150600082141561472c5761472b6147e3565b5b600182039050919050565b6000600282049050600182168061474f57607f821691505b6020821081141561476357614762614870565b5b50919050565b6000614774826146af565b91507fffffffffffffffffffffffffffffffffffffffffffffffffffffffffffffffff8214156147a7576147a66147e3565b5b600182019050919050565b60006147bd826146af565b91506147c8836146af565b9250826147d8576147d7614812565b5b828206905092915050565b7f4e487b7100000000000000000000000000000000000000000000000000000000600052601160045260246000fd5b7f4e487b7100000000000000000000000000000000000000000000000000000000600052601260045260246000fd5b7f4e487b7100000000000000000000000000000000000000000000000000000000600052602160045260246000fd5b7f4e487b7100000000000000000000000000000000000000000000000000000000600052602260045260246000fd5b7f4e487b7100000000000000000000000000000000000000000000000000000000600052604160045260246000fd5b6000601f19601f8301169050919050565b600581106148f0576148ef614841565b5b50565b6148fc81614628565b811461490757600080fd5b50565b6149138161463a565b811461491e57600080fd5b50565b61492a81614646565b811461493557600080fd5b50565b61494181614650565b811461494c57600080fd5b50565b6005811061495c57600080fd5b50565b614968816146af565b811461497357600080fd5b5056fea2646970667358221220bdc005decbb7ab79b90fd82e3c66fb37ecfd4a302daf845fc48fe8d10072893a64736f6c63430008000033",
  "immutableReferences": {},
  "source": "pragma solidity ^0.8.0;\r\npragma experimental ABIEncoderV2;\r\n\r\nimport \"@openzeppelin/contracts/access/AccessControl.sol\";\r\nimport \"@openzeppelin/contracts/token/ERC721/extensions/ERC721Enumerable.sol\";\r\nimport \"@openzeppelin/contracts/utils/Counters.sol\";\r\nimport \"./NokaiStats.sol\";\r\n\r\n// SPDX-License-Identifier: MIT\r\ncontract Nokai is ERC721Enumerable, AccessControl {\r\n    bytes32 public constant MINT_ROLE = keccak256(\"MINT_ROLE\");\r\n\r\n    using Counters for Counters.Counter;\r\n    Counters.Counter private _tokenIds;\r\n\r\n    NokaiStats private nokaiStats;\r\n\r\n    bool isSetup;\r\n    bool mintLocked;\r\n    bool transferLocked;\r\n    string uri;\r\n\r\n    constructor(address _nokaiStats, string memory baseUri) ERC721(\"Nokai\", \"KAI\") {\r\n        nokaiStats = NokaiStats(_nokaiStats);\r\n        _setupRole(DEFAULT_ADMIN_ROLE, msg.sender);\r\n        uri = baseUri;\r\n    }\r\n\r\n    function supportsInterface(bytes4 interfaceId) public view virtual override(ERC721Enumerable, AccessControl) returns (bool) {\r\n        return super.supportsInterface(interfaceId);\r\n    }\r\n\r\n    function generateNokai(bool isRare) external onlyRole(MINT_ROLE) returns (uint256) {\r\n        require(isSetup == true, \"mint is not available yet.\");\r\n        require(mintLocked == false, \"mint has been locked.\");\r\n        _tokenIds.increment();\r\n\r\n        uint256 _newNokaiId = _tokenIds.current();\r\n        _safeMint(msg.sender, _newNokaiId);\r\n\r\n        if (isRare == true) {\r\n            nokaiStats.generateHighNokai(_newNokaiId);\r\n        } else {\r\n            nokaiStats.generateNokai(_newNokaiId);\r\n        }\r\n        emit NokaiBorn(_newNokaiId, msg.sender);\r\n        return _newNokaiId;\r\n    }\r\n\r\n    function absorb(uint256 nokaiId, uint256 targetId, NokaiStats.StatType upgradeChoice) external {\r\n        require(ownerOf(nokaiId) == msg.sender, \"you do not have ownership on this Nokai.\");\r\n        require(ownerOf(targetId) == msg.sender, \"you do not have ownership on this target.\");\r\n\r\n        _burn(targetId);\r\n\r\n        nokaiStats.upgradeFromNokaiBurn(nokaiId, targetId, upgradeChoice);\r\n\r\n        emit NokaiUpgraded(nokaiId, msg.sender);\r\n    }\r\n\r\n    function setup(uint256 nbLegendary) external onlyRole(DEFAULT_ADMIN_ROLE) {\r\n        require(isSetup == false, \"setup already completed.\");\r\n\r\n        for (uint256 i = 0; i < nbLegendary; i++) {\r\n            _tokenIds.increment();\r\n            uint256 _newNokaiId = _tokenIds.current();\r\n            _safeMint(msg.sender, _newNokaiId);\r\n            nokaiStats.generateLegendNokai(_newNokaiId);\r\n        }\r\n        isSetup = true;\r\n    }\r\n\r\n    function lockMint() external onlyRole(DEFAULT_ADMIN_ROLE) {\r\n        mintLocked = true;\r\n    }\r\n\r\n    function unlockMint() external onlyRole(DEFAULT_ADMIN_ROLE) {\r\n        mintLocked = true;\r\n    }\r\n\r\n    function lockTransfer() external onlyRole(DEFAULT_ADMIN_ROLE) {\r\n        transferLocked = true;\r\n    }\r\n\r\n    function unlockTransfer() external onlyRole(DEFAULT_ADMIN_ROLE) {\r\n        transferLocked = false;\r\n    }\r\n\r\n    function setUri(string calldata baseUri) external onlyRole(DEFAULT_ADMIN_ROLE) {\r\n        uri = baseUri;\r\n    }\r\n\r\n    function _baseURI() internal view override returns (string memory) {\r\n        return uri;\r\n    }\r\n\r\n    function _beforeTokenTransfer(\r\n        address from,\r\n        address to,\r\n        uint256 tokenId\r\n    ) internal virtual override {\r\n        require(transferLocked == false, \"transfer has been locked.\");\r\n        super._beforeTokenTransfer(from, to, tokenId);\r\n    }\r\n\r\n    event NokaiBorn(uint256 indexed nokaiId, address indexed owner);\r\n    event NokaiUpgraded(uint256 indexed nokaiId, address indexed owner);\r\n}",
  "sourcePath": "C:\\Users\\KevinGeorgesAndres\\Documents\\projects\\perso\\blackhole-evm\\contracts\\character\\Nokai.sol",
  "compiler": {
    "name": "solc",
    "version": "0.8.0+commit.c7dfd78e.Emscripten.clang"
  },
  "schemaVersion": "3.4.3",
  "updatedAt": "2021-12-03T08:18:39.083Z",
  "devdoc": {
    "kind": "dev",
    "methods": {
      "approve(address,uint256)": {
        "details": "See {IERC721-approve}."
      },
      "balanceOf(address)": {
        "details": "See {IERC721-balanceOf}."
      },
      "getApproved(uint256)": {
        "details": "See {IERC721-getApproved}."
      },
      "getRoleAdmin(bytes32)": {
        "details": "Returns the admin role that controls `role`. See {grantRole} and {revokeRole}. To change a role's admin, use {_setRoleAdmin}."
      },
      "grantRole(bytes32,address)": {
        "details": "Grants `role` to `account`. If `account` had not been already granted `role`, emits a {RoleGranted} event. Requirements: - the caller must have ``role``'s admin role."
      },
      "hasRole(bytes32,address)": {
        "details": "Returns `true` if `account` has been granted `role`."
      },
      "isApprovedForAll(address,address)": {
        "details": "See {IERC721-isApprovedForAll}."
      },
      "name()": {
        "details": "See {IERC721Metadata-name}."
      },
      "ownerOf(uint256)": {
        "details": "See {IERC721-ownerOf}."
      },
      "renounceRole(bytes32,address)": {
        "details": "Revokes `role` from the calling account. Roles are often managed via {grantRole} and {revokeRole}: this function's purpose is to provide a mechanism for accounts to lose their privileges if they are compromised (such as when a trusted device is misplaced). If the calling account had been revoked `role`, emits a {RoleRevoked} event. Requirements: - the caller must be `account`."
      },
      "revokeRole(bytes32,address)": {
        "details": "Revokes `role` from `account`. If `account` had been granted `role`, emits a {RoleRevoked} event. Requirements: - the caller must have ``role``'s admin role."
      },
      "safeTransferFrom(address,address,uint256)": {
        "details": "See {IERC721-safeTransferFrom}."
      },
      "safeTransferFrom(address,address,uint256,bytes)": {
        "details": "See {IERC721-safeTransferFrom}."
      },
      "setApprovalForAll(address,bool)": {
        "details": "See {IERC721-setApprovalForAll}."
      },
      "symbol()": {
        "details": "See {IERC721Metadata-symbol}."
      },
      "tokenByIndex(uint256)": {
        "details": "See {IERC721Enumerable-tokenByIndex}."
      },
      "tokenOfOwnerByIndex(address,uint256)": {
        "details": "See {IERC721Enumerable-tokenOfOwnerByIndex}."
      },
      "tokenURI(uint256)": {
        "details": "See {IERC721Metadata-tokenURI}."
      },
      "totalSupply()": {
        "details": "See {IERC721Enumerable-totalSupply}."
      },
      "transferFrom(address,address,uint256)": {
        "details": "See {IERC721-transferFrom}."
      }
    },
    "version": 1
  },
  "userdoc": {
    "kind": "user",
    "methods": {},
    "version": 1
  }
}