{
  "contractName": "NokaiStats",
  "abi": [
    {
      "inputs": [
        {
          "internalType": "address",
          "name": "_techniquePicker",
          "type": "address"
        }
      ],
      "stateMutability": "nonpayable",
      "type": "constructor"
    },
    {
      "anonymous": false,
      "inputs": [
        {
          "indexed": true,
          "internalType": "uint256",
          "name": "nokaiId",
          "type": "uint256"
        },
        {
          "indexed": false,
          "internalType": "uint256",
          "name": "newHp",
          "type": "uint256"
        }
      ],
      "name": "NokaiDamaged",
      "type": "event"
    },
    {
      "anonymous": false,
      "inputs": [
        {
          "indexed": true,
          "internalType": "uint256",
          "name": "nokaiId",
          "type": "uint256"
        }
      ],
      "name": "NokaiEmptyEnergy",
      "type": "event"
    },
    {
      "anonymous": false,
      "inputs": [
        {
          "indexed": true,
          "internalType": "uint256",
          "name": "nokaiId",
          "type": "uint256"
        }
      ],
      "name": "NokaiEnergized",
      "type": "event"
    },
    {
      "anonymous": false,
      "inputs": [
        {
          "indexed": true,
          "internalType": "uint256",
          "name": "nokaiId",
          "type": "uint256"
        },
        {
          "indexed": false,
          "internalType": "uint256",
          "name": "amount",
          "type": "uint256"
        }
      ],
      "name": "NokaiHealed",
      "type": "event"
    },
    {
      "anonymous": false,
      "inputs": [
        {
          "indexed": true,
          "internalType": "uint256",
          "name": "nokaiId",
          "type": "uint256"
        }
      ],
      "name": "NokaiKilled",
      "type": "event"
    },
    {
      "anonymous": false,
      "inputs": [
        {
          "indexed": true,
          "internalType": "uint256",
          "name": "nokaiId",
          "type": "uint256"
        }
      ],
      "name": "NokaiReborn",
      "type": "event"
    },
    {
      "anonymous": false,
      "inputs": [
        {
          "indexed": true,
          "internalType": "bytes32",
          "name": "role",
          "type": "bytes32"
        },
        {
          "indexed": true,
          "internalType": "bytes32",
          "name": "previousAdminRole",
          "type": "bytes32"
        },
        {
          "indexed": true,
          "internalType": "bytes32",
          "name": "newAdminRole",
          "type": "bytes32"
        }
      ],
      "name": "RoleAdminChanged",
      "type": "event"
    },
    {
      "anonymous": false,
      "inputs": [
        {
          "indexed": true,
          "internalType": "bytes32",
          "name": "role",
          "type": "bytes32"
        },
        {
          "indexed": true,
          "internalType": "address",
          "name": "account",
          "type": "address"
        },
        {
          "indexed": true,
          "internalType": "address",
          "name": "sender",
          "type": "address"
        }
      ],
      "name": "RoleGranted",
      "type": "event"
    },
    {
      "anonymous": false,
      "inputs": [
        {
          "indexed": true,
          "internalType": "bytes32",
          "name": "role",
          "type": "bytes32"
        },
        {
          "indexed": true,
          "internalType": "address",
          "name": "account",
          "type": "address"
        },
        {
          "indexed": true,
          "internalType": "address",
          "name": "sender",
          "type": "address"
        }
      ],
      "name": "RoleRevoked",
      "type": "event"
    },
    {
      "inputs": [],
      "name": "DEFAULT_ADMIN_ROLE",
      "outputs": [
        {
          "internalType": "bytes32",
          "name": "",
          "type": "bytes32"
        }
      ],
      "stateMutability": "view",
      "type": "function"
    },
    {
      "inputs": [],
      "name": "GAME_MANAGER_ROLE",
      "outputs": [
        {
          "internalType": "bytes32",
          "name": "",
          "type": "bytes32"
        }
      ],
      "stateMutability": "view",
      "type": "function"
    },
    {
      "inputs": [],
      "name": "INVENTORY_MANAGER_ROLE",
      "outputs": [
        {
          "internalType": "bytes32",
          "name": "",
          "type": "bytes32"
        }
      ],
      "stateMutability": "view",
      "type": "function"
    },
    {
      "inputs": [],
      "name": "NOKAI_MANAGER_ROLE",
      "outputs": [
        {
          "internalType": "bytes32",
          "name": "",
          "type": "bytes32"
        }
      ],
      "stateMutability": "view",
      "type": "function"
    },
    {
      "inputs": [
        {
          "internalType": "bytes32",
          "name": "role",
          "type": "bytes32"
        }
      ],
      "name": "getRoleAdmin",
      "outputs": [
        {
          "internalType": "bytes32",
          "name": "",
          "type": "bytes32"
        }
      ],
      "stateMutability": "view",
      "type": "function"
    },
    {
      "inputs": [
        {
          "internalType": "bytes32",
          "name": "role",
          "type": "bytes32"
        },
        {
          "internalType": "address",
          "name": "account",
          "type": "address"
        }
      ],
      "name": "grantRole",
      "outputs": [],
      "stateMutability": "nonpayable",
      "type": "function"
    },
    {
      "inputs": [
        {
          "internalType": "bytes32",
          "name": "role",
          "type": "bytes32"
        },
        {
          "internalType": "address",
          "name": "account",
          "type": "address"
        }
      ],
      "name": "hasRole",
      "outputs": [
        {
          "internalType": "bool",
          "name": "",
          "type": "bool"
        }
      ],
      "stateMutability": "view",
      "type": "function"
    },
    {
      "inputs": [
        {
          "internalType": "uint256",
          "name": "",
          "type": "uint256"
        }
      ],
      "name": "profiles",
      "outputs": [
        {
          "components": [
            {
              "internalType": "uint256",
              "name": "hp",
              "type": "uint256"
            },
            {
              "internalType": "uint256",
              "name": "attack",
              "type": "uint256"
            },
            {
              "internalType": "uint256",
              "name": "defense",
              "type": "uint256"
            },
            {
              "internalType": "uint256",
              "name": "regen",
              "type": "uint256"
            },
            {
              "internalType": "uint256",
              "name": "pa",
              "type": "uint256"
            },
            {
              "internalType": "uint256",
              "name": "gradeValue",
              "type": "uint256"
            },
            {
              "internalType": "enum NokaiStats.Rarity",
              "name": "grade",
              "type": "uint8"
            },
            {
              "internalType": "enum NokaiTechnique.Technique",
              "name": "technique1",
              "type": "uint8"
            },
            {
              "internalType": "enum NokaiTechnique.Technique",
              "name": "technique2",
              "type": "uint8"
            }
          ],
          "internalType": "struct NokaiStats.Stats",
          "name": "stats",
          "type": "tuple"
        },
        {
          "internalType": "uint256",
          "name": "currentHp",
          "type": "uint256"
        },
        {
          "internalType": "uint256",
          "name": "currentPa",
          "type": "uint256"
        },
        {
          "internalType": "bool",
          "name": "dead",
          "type": "bool"
        },
        {
          "internalType": "bool",
          "name": "burned",
          "type": "bool"
        },
        {
          "internalType": "uint256",
          "name": "lastHpSet",
          "type": "uint256"
        },
        {
          "internalType": "uint256",
          "name": "lastPaSet",
          "type": "uint256"
        }
      ],
      "stateMutability": "view",
      "type": "function"
    },
    {
      "inputs": [
        {
          "internalType": "bytes32",
          "name": "role",
          "type": "bytes32"
        },
        {
          "internalType": "address",
          "name": "account",
          "type": "address"
        }
      ],
      "name": "renounceRole",
      "outputs": [],
      "stateMutability": "nonpayable",
      "type": "function"
    },
    {
      "inputs": [
        {
          "internalType": "bytes32",
          "name": "role",
          "type": "bytes32"
        },
        {
          "internalType": "address",
          "name": "account",
          "type": "address"
        }
      ],
      "name": "revokeRole",
      "outputs": [],
      "stateMutability": "nonpayable",
      "type": "function"
    },
    {
      "inputs": [
        {
          "internalType": "bytes4",
          "name": "interfaceId",
          "type": "bytes4"
        }
      ],
      "name": "supportsInterface",
      "outputs": [
        {
          "internalType": "bool",
          "name": "",
          "type": "bool"
        }
      ],
      "stateMutability": "view",
      "type": "function"
    },
    {
      "inputs": [
        {
          "internalType": "address",
          "name": "_techniquePicker",
          "type": "address"
        }
      ],
      "name": "migrateNokaiTechnique",
      "outputs": [],
      "stateMutability": "nonpayable",
      "type": "function"
    },
    {
      "inputs": [
        {
          "internalType": "uint256",
          "name": "newNokaiId",
          "type": "uint256"
        }
      ],
      "name": "generateNokai",
      "outputs": [],
      "stateMutability": "nonpayable",
      "type": "function"
    },
    {
      "inputs": [
        {
          "internalType": "uint256",
          "name": "newNokaiId",
          "type": "uint256"
        }
      ],
      "name": "generateHighNokai",
      "outputs": [],
      "stateMutability": "nonpayable",
      "type": "function"
    },
    {
      "inputs": [
        {
          "internalType": "uint256",
          "name": "newNokaiId",
          "type": "uint256"
        }
      ],
      "name": "generateLegendNokai",
      "outputs": [],
      "stateMutability": "nonpayable",
      "type": "function"
    },
    {
      "inputs": [
        {
          "internalType": "uint256",
          "name": "nokaiId",
          "type": "uint256"
        },
        {
          "internalType": "uint256",
          "name": "targetId",
          "type": "uint256"
        },
        {
          "internalType": "enum NokaiStats.StatType",
          "name": "upgradeChoice",
          "type": "uint8"
        }
      ],
      "name": "upgradeFromNokaiBurn",
      "outputs": [],
      "stateMutability": "nonpayable",
      "type": "function"
    },
    {
      "inputs": [
        {
          "internalType": "uint256",
          "name": "nokaiId",
          "type": "uint256"
        },
        {
          "internalType": "uint256",
          "name": "newHp",
          "type": "uint256"
        }
      ],
      "name": "damage",
      "outputs": [],
      "stateMutability": "nonpayable",
      "type": "function"
    },
    {
      "inputs": [
        {
          "internalType": "uint256",
          "name": "nokaiId",
          "type": "uint256"
        }
      ],
      "name": "reborn",
      "outputs": [],
      "stateMutability": "nonpayable",
      "type": "function"
    },
    {
      "inputs": [
        {
          "internalType": "uint256",
          "name": "nokaiId",
          "type": "uint256"
        },
        {
          "internalType": "uint256",
          "name": "amount",
          "type": "uint256"
        }
      ],
      "name": "heal",
      "outputs": [],
      "stateMutability": "nonpayable",
      "type": "function"
    },
    {
      "inputs": [
        {
          "internalType": "uint256",
          "name": "nokaiId",
          "type": "uint256"
        },
        {
          "internalType": "uint256",
          "name": "pa",
          "type": "uint256"
        }
      ],
      "name": "energize",
      "outputs": [],
      "stateMutability": "nonpayable",
      "type": "function"
    },
    {
      "inputs": [
        {
          "internalType": "uint256",
          "name": "nokaiId",
          "type": "uint256"
        },
        {
          "internalType": "uint256",
          "name": "_pa",
          "type": "uint256"
        }
      ],
      "name": "didAction",
      "outputs": [],
      "stateMutability": "nonpayable",
      "type": "function"
    },
    {
      "inputs": [
        {
          "internalType": "uint256",
          "name": "nokaiId",
          "type": "uint256"
        }
      ],
      "name": "profile",
      "outputs": [
        {
          "components": [
            {
              "components": [
                {
                  "internalType": "uint256",
                  "name": "hp",
                  "type": "uint256"
                },
                {
                  "internalType": "uint256",
                  "name": "attack",
                  "type": "uint256"
                },
                {
                  "internalType": "uint256",
                  "name": "defense",
                  "type": "uint256"
                },
                {
                  "internalType": "uint256",
                  "name": "regen",
                  "type": "uint256"
                },
                {
                  "internalType": "uint256",
                  "name": "pa",
                  "type": "uint256"
                },
                {
                  "internalType": "uint256",
                  "name": "gradeValue",
                  "type": "uint256"
                },
                {
                  "internalType": "enum NokaiStats.Rarity",
                  "name": "grade",
                  "type": "uint8"
                },
                {
                  "internalType": "enum NokaiTechnique.Technique",
                  "name": "technique1",
                  "type": "uint8"
                },
                {
                  "internalType": "enum NokaiTechnique.Technique",
                  "name": "technique2",
                  "type": "uint8"
                }
              ],
              "internalType": "struct NokaiStats.Stats",
              "name": "stats",
              "type": "tuple"
            },
            {
              "internalType": "uint256",
              "name": "currentHp",
              "type": "uint256"
            },
            {
              "internalType": "uint256",
              "name": "currentPa",
              "type": "uint256"
            },
            {
              "internalType": "bool",
              "name": "dead",
              "type": "bool"
            },
            {
              "internalType": "bool",
              "name": "burned",
              "type": "bool"
            },
            {
              "internalType": "uint256",
              "name": "lastHpSet",
              "type": "uint256"
            },
            {
              "internalType": "uint256",
              "name": "lastPaSet",
              "type": "uint256"
            }
          ],
          "internalType": "struct NokaiStats.Profile",
          "name": "",
          "type": "tuple"
        }
      ],
      "stateMutability": "view",
      "type": "function"
    }
  ],
  "bytecode": "0x60806040523480156200001157600080fd5b5060405162003e2938038062003e29833981810160405281019062000037919062000249565b80600160006101000a81548173ffffffffffffffffffffffffffffffffffffffff021916908373ffffffffffffffffffffffffffffffffffffffff160217905550620000976000600102336200009e640100000000026401000000009004565b50620002c3565b620000b98282620000bd640100000000026401000000009004565b5050565b620000d88282620001c0640100000000026401000000009004565b620001bc57600160008084815260200190815260200160002060000160008373ffffffffffffffffffffffffffffffffffffffff1673ffffffffffffffffffffffffffffffffffffffff16815260200190815260200160002060006101000a81548160ff021916908315150217905550620001616200022a640100000000026401000000009004565b73ffffffffffffffffffffffffffffffffffffffff168173ffffffffffffffffffffffffffffffffffffffff16837f2f8788117e7eff1d82e926ec794901d17c78024a50270940304540a733656f0d60405160405180910390a45b5050565b600080600084815260200190815260200160002060000160008373ffffffffffffffffffffffffffffffffffffffff1673ffffffffffffffffffffffffffffffffffffffff16815260200190815260200160002060009054906101000a900460ff16905092915050565b600033905090565b6000815190506200024381620002a9565b92915050565b6000602082840312156200025c57600080fd5b60006200026c8482850162000232565b91505092915050565b6000620002828262000289565b9050919050565b600073ffffffffffffffffffffffffffffffffffffffff82169050919050565b620002b48162000275565b8114620002c057600080fd5b50565b613b5680620002d36000396000f3fe608060405234801561001057600080fd5b506004361061015f576000357c01000000000000000000000000000000000000000000000000000000009004806376c312dd116100d5578063c36fe3d611610099578063c36fe3d61461037a578063d547741f146103b0578063eebb92f5146103cc578063f3fc7b24146103e8578063f6e253e314610404578063ff6fcdbd146104205761015f565b806376c312dd146102d857806391d14854146102f45780639ac3da1414610324578063a217fddf14610340578063bddb95c11461035e5761015f565b8063248a9ca311610127578063248a9ca3146102065780632f2ff15d1461023657806336568abe146102525780633dc9dcaf1461026e578063599ecd851461028c57806372cd2b1a146102a85761015f565b806301ffc9a7146101645780630cac7f7c146101945780631093a012146101b0578063125fcabe146101cc57806315a2bf6f146101ea575b600080fd5b61017e60048036038101906101799190612db3565b61043e565b60405161018b9190613500565b60405180910390f35b6101ae60048036038101906101a99190612e2e565b6104b8565b005b6101ca60048036038101906101c59190612e6a565b6105a0565b005b6101d4610cd1565b6040516101e1919061351b565b60405180910390f35b61020460048036038101906101ff9190612d25565b610cf5565b005b610220600480360381019061021b9190612d4e565b610d50565b60405161022d919061351b565b60405180910390f35b610250600480360381019061024b9190612d77565b610d6f565b005b61026c60048036038101906102679190612d77565b610d98565b005b610276610e1b565b604051610283919061351b565b60405180910390f35b6102a660048036038101906102a19190612e2e565b610e3f565b005b6102c260048036038101906102bd9190612e05565b61102c565b6040516102cf9190613658565b60405180910390f35b6102f260048036038101906102ed9190612e05565b6112e6565b005b61030e60048036038101906103099190612d77565b6113f6565b60405161031b9190613500565b60405180910390f35b61033e60048036038101906103399190612e05565b611460565b005b61034861152e565b604051610355919061351b565b60405180910390f35b61037860048036038101906103739190612e2e565b611536565b005b610394600480360381019061038f9190612e05565b61172e565b6040516103a79796959493929190613674565b60405180910390f35b6103ca60048036038101906103c59190612d77565b611966565b005b6103e660048036038101906103e19190612e05565b61198f565b005b61040260048036038101906103fd9190612e2e565b611b44565b005b61041e60048036038101906104199190612e05565b611d44565b005b610428611e51565b604051610435919061351b565b60405180910390f35b60007f7965db0b000000000000000000000000000000000000000000000000000000007bffffffffffffffffffffffffffffffffffffffffffffffffffffffff1916827bffffffffffffffffffffffffffffffffffffffffffffffffffffffff191614806104b157506104b082611e75565b5b9050919050565b7fef17b1f3c5a412f9c8e887e3abd186802afec7dc657fd3b7002bf87b128dd0b16104ea816104e5611edf565b611ee7565b60006104f584611f85565b90504260026000868152602001908152602001600020600b018190555060008382610520919061380d565b116105735760006002600086815260200190815260200160002060080181905550837f1aa643fe068ff179d442fe9f05de8dafb322853165c2d669796210e44cdd41e060405160405180910390a261059a565b828161057f919061380d565b60026000868152602001908152602001600020600801819055505b50505050565b7f8148235029d65678fdc6628a7b47cd99e73930cd0850fa4f5f1371b66f605a896105d2816105cd611edf565b611ee7565b600015156002600086815260200190815260200160002060090160009054906101000a900460ff1615151461063c576040517f08c379a000000000000000000000000000000000000000000000000000000000815260040161063390613618565b60405180910390fd5b600015156002600085815260200190815260200160002060090160009054906101000a900460ff161515146106a6576040517f08c379a000000000000000000000000000000000000000000000000000000000815260040161069d90613598565b60405180910390fd5b600015156002600086815260200190815260200160002060090160019054906101000a900460ff16151514610710576040517f08c379a0000000000000000000000000000000000000000000000000000000008152600401610707906135b8565b60405180910390fd5b600015156002600085815260200190815260200160002060090160019054906101000a900460ff1615151461077a576040517f08c379a000000000000000000000000000000000000000000000000000000000815260040161077190613578565b60405180910390fd5b6002600084815260200190815260200160002060000160050154600260008681526020019081526020016000206000016005015410156107ef576040517f08c379a00000000000000000000000000000000000000000000000000000000081526004016107e6906135d8565b60405180910390fd5b60016002600085815260200190815260200160002060090160016101000a81548160ff02191690831515021790555060006004811115610858577f4e487b7100000000000000000000000000000000000000000000000000000000600052602160045260246000fd5b826004811115610891577f4e487b7100000000000000000000000000000000000000000000000000000000600052602160045260246000fd5b1415610915576064600260008581526020019081526020016000206000016005015460026000868152602001908152602001600020600001600001546108d791906137b3565b6108e19190613782565b600260008681526020019081526020016000206000016000016000828254610909919061372c565b92505081905550610ccb565b6001600481111561094f577f4e487b7100000000000000000000000000000000000000000000000000000000600052602160045260246000fd5b826004811115610988577f4e487b7100000000000000000000000000000000000000000000000000000000600052602160045260246000fd5b1415610a0c576064600260008581526020019081526020016000206000016005015460026000868152602001908152602001600020600001600101546109ce91906137b3565b6109d89190613782565b600260008681526020019081526020016000206000016001016000828254610a00919061372c565b92505081905550610cca565b60026004811115610a46577f4e487b7100000000000000000000000000000000000000000000000000000000600052602160045260246000fd5b826004811115610a7f577f4e487b7100000000000000000000000000000000000000000000000000000000600052602160045260246000fd5b1415610b0357606460026000858152602001908152602001600020600001600501546002600086815260200190815260200160002060000160020154610ac591906137b3565b610acf9190613782565b600260008681526020019081526020016000206000016002016000828254610af7919061372c565b92505081905550610cc9565b60036004811115610b3d577f4e487b7100000000000000000000000000000000000000000000000000000000600052602160045260246000fd5b826004811115610b76577f4e487b7100000000000000000000000000000000000000000000000000000000600052602160045260246000fd5b1415610bfa57606460026000858152602001908152602001600020600001600501546002600086815260200190815260200160002060000160030154610bbc91906137b3565b610bc69190613782565b600260008681526020019081526020016000206000016003016000828254610bee919061372c565b92505081905550610cc8565b600480811115610c33577f4e487b7100000000000000000000000000000000000000000000000000000000600052602160045260246000fd5b826004811115610c6c577f4e487b7100000000000000000000000000000000000000000000000000000000600052602160045260246000fd5b1415610cc757600280600085815260200190815260200160002060000160050154610c979190613782565b600260008681526020019081526020016000206000016004016000828254610cbf919061372c565b925050819055505b5b5b5b5b50505050565b7f70d2ef7b36d4d736c45b93d416eb05228e962106468d1bcabdf09a53d30ad8f681565b6000600102610d0b81610d06611edf565b611ee7565b81600160006101000a81548173ffffffffffffffffffffffffffffffffffffffff021916908373ffffffffffffffffffffffffffffffffffffffff1602179055505050565b6000806000838152602001908152602001600020600101549050919050565b610d7882610d50565b610d8981610d84611edf565b611ee7565b610d938383611fde565b505050565b610da0611edf565b73ffffffffffffffffffffffffffffffffffffffff168173ffffffffffffffffffffffffffffffffffffffff1614610e0d576040517f08c379a0000000000000000000000000000000000000000000000000000000008152600401610e0490613638565b60405180910390fd5b610e1782826120be565b5050565b7f8148235029d65678fdc6628a7b47cd99e73930cd0850fa4f5f1371b66f605a8981565b7f70d2ef7b36d4d736c45b93d416eb05228e962106468d1bcabdf09a53d30ad8f6610e7181610e6c611edf565b611ee7565b600015156002600085815260200190815260200160002060090160009054906101000a900460ff16151514610edb576040517f08c379a0000000000000000000000000000000000000000000000000000000008152600401610ed290613618565b60405180910390fd5b600015156002600085815260200190815260200160002060090160019054906101000a900460ff16151514610f45576040517f08c379a0000000000000000000000000000000000000000000000000000000008152600401610f3c906135b8565b60405180910390fd5b6000610f5084611f85565b90504260026000868152602001908152602001600020600b018190555060026000858152602001908152602001600020600001600401548382610f93919061372c565b1115610fd25760026000858152602001908152602001600020600001600401546002600086815260200190815260200160002060080181905550610ff9565b8281610fde919061372c565b60026000868152602001908152602001600020600801819055505b837f7b1c614d83562a30b8f2320242e1bf3883fcbb15dec65aa139fdef6a93f8870660405160405180910390a250505050565b611034612b6c565b6040518060e0016040528060026000858152602001908152602001600020600001604051806101200160405290816000820154815260200160018201548152602001600282015481526020016003820154815260200160048201548152602001600582015481526020016006820160009054906101000a900460ff1660048111156110e8577f4e487b7100000000000000000000000000000000000000000000000000000000600052602160045260246000fd5b6004811115611120577f4e487b7100000000000000000000000000000000000000000000000000000000600052602160045260246000fd5b81526020016006820160019054906101000a900460ff16600981111561116f577f4e487b7100000000000000000000000000000000000000000000000000000000600052602160045260246000fd5b60098111156111a7577f4e487b7100000000000000000000000000000000000000000000000000000000600052602160045260246000fd5b81526020016006820160029054906101000a900460ff1660098111156111f6577f4e487b7100000000000000000000000000000000000000000000000000000000600052602160045260246000fd5b600981111561122e577f4e487b7100000000000000000000000000000000000000000000000000000000600052602160045260246000fd5b8152505081526020016112408461219f565b815260200161124e84611f85565b81526020016002600085815260200190815260200160002060090160009054906101000a900460ff16151581526020016002600085815260200190815260200160002060090160019054906101000a900460ff161515815260200160026000858152602001908152602001600020600a0154815260200160026000858152602001908152602001600020600b01548152509050919050565b7f8148235029d65678fdc6628a7b47cd99e73930cd0850fa4f5f1371b66f605a8961131881611313611edf565b611ee7565b6113f28261134c6101f46002611330876103e861221c565b61133a9190613782565b611344919061372c565b6103e8612260565b6113796064611368600188611361919061372c565b606461221c565b611372919061372c565b60c8612260565b6113b26032600261139760028a611390919061372c565b606461221c565b6113a19190613782565b6113ab919061372c565b6064612260565b6113eb603260026113d060038b6113c9919061372c565b606461221c565b6113da9190613782565b6113e4919061372c565b6064612260565b6005612279565b5050565b600080600084815260200190815260200160002060000160008373ffffffffffffffffffffffffffffffffffffffff1673ffffffffffffffffffffffffffffffffffffffff16815260200190815260200160002060009054906101000a900460ff16905092915050565b7f8148235029d65678fdc6628a7b47cd99e73930cd0850fa4f5f1371b66f605a896114928161148d611edf565b611ee7565b61152a826103846114a485606461221c565b6114ae919061372c565b60b460026114c96001886114c2919061372c565b600a61221c565b6114d391906137b3565b6114dd919061372c565b605a6114f66002886114ef919061372c565b600a61221c565b611500919061372c565b605a611519600389611512919061372c565b600a61221c565b611523919061372c565b600a612279565b5050565b600060010281565b7f70d2ef7b36d4d736c45b93d416eb05228e962106468d1bcabdf09a53d30ad8f661156881611563611edf565b611ee7565b600015156002600085815260200190815260200160002060090160009054906101000a900460ff161515146115d2576040517f08c379a00000000000000000000000000000000000000000000000000000000081526004016115c990613618565b60405180910390fd5b600015156002600085815260200190815260200160002060090160019054906101000a900460ff1615151461163c576040517f08c379a0000000000000000000000000000000000000000000000000000000008152600401611633906135b8565b60405180910390fd5b60006116478461219f565b90504260026000868152602001908152602001600020600a01819055506002600085815260200190815260200160002060000160000154838261168a919061372c565b11156116c957600260008581526020019081526020016000206000016000015460026000868152602001908152602001600020600701819055506116f0565b82816116d5919061372c565b60026000868152602001908152602001600020600701819055505b837f768c62cbb4f04d72e0da3f6fdc173729920788d5f0ece38ec2439b68c1e5cd5c8460405161172091906136ea565b60405180910390a250505050565b600260205280600052604060002060009150905080600001604051806101200160405290816000820154815260200160018201548152602001600282015481526020016003820154815260200160048201548152602001600582015481526020016006820160009054906101000a900460ff1660048111156117d9577f4e487b7100000000000000000000000000000000000000000000000000000000600052602160045260246000fd5b6004811115611811577f4e487b7100000000000000000000000000000000000000000000000000000000600052602160045260246000fd5b81526020016006820160019054906101000a900460ff166009811115611860577f4e487b7100000000000000000000000000000000000000000000000000000000600052602160045260246000fd5b6009811115611898577f4e487b7100000000000000000000000000000000000000000000000000000000600052602160045260246000fd5b81526020016006820160029054906101000a900460ff1660098111156118e7577f4e487b7100000000000000000000000000000000000000000000000000000000600052602160045260246000fd5b600981111561191f577f4e487b7100000000000000000000000000000000000000000000000000000000600052602160045260246000fd5b81525050908060070154908060080154908060090160009054906101000a900460ff16908060090160019054906101000a900460ff169080600a01549080600b0154905087565b61196f82610d50565b6119808161197b611edf565b611ee7565b61198a83836120be565b505050565b7f70d2ef7b36d4d736c45b93d416eb05228e962106468d1bcabdf09a53d30ad8f66119c1816119bc611edf565b611ee7565b600115156002600084815260200190815260200160002060090160009054906101000a900460ff16151514611a2b576040517f08c379a0000000000000000000000000000000000000000000000000000000008152600401611a22906135f8565b60405180910390fd5b600015156002600084815260200190815260200160002060090160019054906101000a900460ff16151514611a95576040517f08c379a0000000000000000000000000000000000000000000000000000000008152600401611a8c906135b8565b60405180910390fd5b4260026000848152602001908152602001600020600a01819055506002600083815260200190815260200160002060000160000154600260008481526020019081526020016000206007018190555060006002600084815260200190815260200160002060090160006101000a81548160ff021916908315150217905550817fb9361f9981ef0c1c1f7eb5f84ddc5c86856399e50544a74c4974cf0b31ad80d360405160405180910390a25050565b7fef17b1f3c5a412f9c8e887e3abd186802afec7dc657fd3b7002bf87b128dd0b1611b7681611b71611edf565b611ee7565b600015156002600085815260200190815260200160002060090160009054906101000a900460ff16151514611be0576040517f08c379a0000000000000000000000000000000000000000000000000000000008152600401611bd790613618565b60405180910390fd5b600015156002600085815260200190815260200160002060090160019054906101000a900460ff16151514611c4a576040517f08c379a0000000000000000000000000000000000000000000000000000000008152600401611c41906135b8565b60405180910390fd5b4260026000858152602001908152602001600020600a01819055506000821415611ceb576000600260008581526020019081526020016000206007018190555060016002600085815260200190815260200160002060090160006101000a81548160ff021916908315150217905550827fbf807412a0d12ad8247319f96b9e2e6e6550c7fac3563024db59ae868b9bdd1560405160405180910390a2611d3f565b816002600085815260200190815260200160002060070181905550827f963956ffc98b7d1f745416434f4737fb6e8b1316f26e96a9c04431f2235b642183604051611d3691906136ea565b60405180910390a25b505050565b7f8148235029d65678fdc6628a7b47cd99e73930cd0850fa4f5f1371b66f605a89611d7681611d71611edf565b611ee7565b611e4d82611d9d60c8611d8b866103e861221c565b611d95919061372c565b6103e8612260565b611dd760146002611dbb600189611db4919061372c565b606461221c565b611dc591906137b3565b611dcf919061372c565b610898612260565b611e04600a611df3600289611dec919061372c565b606461221c565b611dfd919061372c565b6064612260565b611e316014611e2060038a611e19919061372c565b606461221c565b611e2a919061372c565b6064612260565b611e48600489611e41919061372c565b600a61221c565b612279565b5050565b7fef17b1f3c5a412f9c8e887e3abd186802afec7dc657fd3b7002bf87b128dd0b181565b60007f01ffc9a7000000000000000000000000000000000000000000000000000000007bffffffffffffffffffffffffffffffffffffffffffffffffffffffff1916827bffffffffffffffffffffffffffffffffffffffffffffffffffffffff1916149050919050565b600033905090565b611ef182826113f6565b611f8157611f168173ffffffffffffffffffffffffffffffffffffffff16601461278a565b611f258360019004602061278a565b604051602001611f36929190613489565b6040516020818303038152906040526040517f08c379a0000000000000000000000000000000000000000000000000000000008152600401611f789190613536565b60405180910390fd5b5050565b6000611c2060026000848152602001908152602001600020600a015442611fac919061380d565b611fb69190613782565b6002600084815260200190815260200160002060080154611fd7919061372c565b9050919050565b611fe882826113f6565b6120ba57600160008084815260200190815260200160002060000160008373ffffffffffffffffffffffffffffffffffffffff1673ffffffffffffffffffffffffffffffffffffffff16815260200190815260200160002060006101000a81548160ff02191690831515021790555061205f611edf565b73ffffffffffffffffffffffffffffffffffffffff168173ffffffffffffffffffffffffffffffffffffffff16837f2f8788117e7eff1d82e926ec794901d17c78024a50270940304540a733656f0d60405160405180910390a45b5050565b6120c882826113f6565b1561219b57600080600084815260200190815260200160002060000160008373ffffffffffffffffffffffffffffffffffffffff1673ffffffffffffffffffffffffffffffffffffffff16815260200190815260200160002060006101000a81548160ff021916908315150217905550612140611edf565b73ffffffffffffffffffffffffffffffffffffffff168173ffffffffffffffffffffffffffffffffffffffff16837ff6391f5c32d9c69d2a47ea670b442974b53935d1edc7fd64eb21e047a839171b60405160405180910390a45b5050565b6000610e1060026000848152602001908152602001600020600a0154426121c6919061380d565b6121d09190613782565b60026000848152602001908152602001600020600001600301546121f491906137b3565b6002600084815260200190815260200160002060070154612215919061372c565b9050919050565b600081423385604051602001612234939291906134c3565b60405160208183030381529060405280519060200120600190046122589190613994565b905092915050565b600081831061226f5781612271565b825b905092915050565b60008190506002811015612290576002905061229f565b600881111561229e57600890505b5b60006122ae8787878786612aab565b90506040518060e001604052806040518061012001604052808a81526020018981526020018881526020018781526020018581526020016001856004811115612320577f4e487b7100000000000000000000000000000000000000000000000000000000600052602160045260246000fd5b61232a919061372c565b8152602001846004811115612368577f4e487b7100000000000000000000000000000000000000000000000000000000600052602160045260246000fd5b8152602001600160009054906101000a900473ffffffffffffffffffffffffffffffffffffffff1673ffffffffffffffffffffffffffffffffffffffff16639507d39a60058e6123b8919061372c565b6040518263ffffffff167c01000000000000000000000000000000000000000000000000000000000281526004016123f091906136ea565b60206040518083038186803b15801561240857600080fd5b505afa15801561241c573d6000803e3d6000fd5b505050506040513d601f19601f820116820180604052508101906124409190612ddc565b6009811115612478577f4e487b7100000000000000000000000000000000000000000000000000000000600052602160045260246000fd5b8152602001600160009054906101000a900473ffffffffffffffffffffffffffffffffffffffff1673ffffffffffffffffffffffffffffffffffffffff16639507d39a60068e6124c8919061372c565b6040518263ffffffff167c010000000000000000000000000000000000000000000000000000000002815260040161250091906136ea565b60206040518083038186803b15801561251857600080fd5b505afa15801561252c573d6000803e3d6000fd5b505050506040513d601f19601f820116820180604052508101906125509190612ddc565b6009811115612588577f4e487b7100000000000000000000000000000000000000000000000000000000600052602160045260246000fd5b815250815260200188815260200183815260200160001515815260200160001515815260200142815260200142815250600260008a8152602001908152602001600020600082015181600001600082015181600001556020820151816001015560408201518160020155606082015181600301556080820151816004015560a0820151816005015560c08201518160060160006101000a81548160ff02191690836004811115612661577f4e487b7100000000000000000000000000000000000000000000000000000000600052602160045260246000fd5b021790555060e08201518160060160016101000a81548160ff021916908360098111156126b7577f4e487b7100000000000000000000000000000000000000000000000000000000600052602160045260246000fd5b02179055506101008201518160060160026101000a81548160ff0219169083600981111561270e577f4e487b7100000000000000000000000000000000000000000000000000000000600052602160045260246000fd5b02179055505050602082015181600701556040820151816008015560608201518160090160006101000a81548160ff02191690831515021790555060808201518160090160016101000a81548160ff02191690831515021790555060a082015181600a015560c082015181600b01559050505050505050505050565b60606000600283600261279d91906137b3565b6127a7919061372c565b67ffffffffffffffff8111156127e6577f4e487b7100000000000000000000000000000000000000000000000000000000600052604160045260246000fd5b6040519080825280601f01601f1916602001820160405280156128185781602001600182028036833780820191505090505b5090507f300000000000000000000000000000000000000000000000000000000000000081600081518110612876577f4e487b7100000000000000000000000000000000000000000000000000000000600052603260045260246000fd5b60200101907effffffffffffffffffffffffffffffffffffffffffffffffffffffffffffff1916908160001a9053507f780000000000000000000000000000000000000000000000000000000000000081600181518110612900577f4e487b7100000000000000000000000000000000000000000000000000000000600052603260045260246000fd5b60200101907effffffffffffffffffffffffffffffffffffffffffffffffffffffffffffff1916908160001a9053506000600184600261294091906137b3565b61294a919061372c565b90505b6001811115612a5d577f3031323334353637383961626364656600000000000000000000000000000000600f8616601081106129b2577f4e487b7100000000000000000000000000000000000000000000000000000000600052603260045260246000fd5b1a7f010000000000000000000000000000000000000000000000000000000000000002828281518110612a0e577f4e487b7100000000000000000000000000000000000000000000000000000000600052603260045260246000fd5b60200101907effffffffffffffffffffffffffffffffffffffffffffffffffffffffffffff1916908160001a905350600485908060020a8204915050945080612a569061393c565b905061294d565b5060008414612aa1576040517f08c379a0000000000000000000000000000000000000000000000000000000008152600401612a9890613558565b60405180910390fd5b8091505092915050565b600080600a84612abb91906137b3565b606484612ac891906137b3565b600a87612ad591906137b3565b600589612ae291906137b3565b8a612aed919061372c565b612af7919061372c565b612b01919061372c565b612b0b919061372c565b9050611324811115612b21576004915050612b63565b611068811115612b35576003915050612b63565b610ce4811115612b49576002915050612b63565b61076c811115612b5d576001915050612b63565b60009150505b95945050505050565b6040518060e00160405280612b7f612bb3565b8152602001600081526020016000815260200160001515815260200160001515815260200160008152602001600081525090565b60405180610120016040528060008152602001600081526020016000815260200160008152602001600081526020016000815260200160006004811115612c23577f4e487b7100000000000000000000000000000000000000000000000000000000600052602160045260246000fd5b815260200160006009811115612c62577f4e487b7100000000000000000000000000000000000000000000000000000000600052602160045260246000fd5b815260200160006009811115612ca1577f4e487b7100000000000000000000000000000000000000000000000000000000600052602160045260246000fd5b81525090565b600081359050612cb681613aa4565b92915050565b600081359050612ccb81613abb565b92915050565b600081359050612ce081613ad2565b92915050565b600081359050612cf581613ae9565b92915050565b600081519050612d0a81613af9565b92915050565b600081359050612d1f81613b09565b92915050565b600060208284031215612d3757600080fd5b6000612d4584828501612ca7565b91505092915050565b600060208284031215612d6057600080fd5b6000612d6e84828501612cbc565b91505092915050565b60008060408385031215612d8a57600080fd5b6000612d9885828601612cbc565b9250506020612da985828601612ca7565b9150509250929050565b600060208284031215612dc557600080fd5b6000612dd384828501612cd1565b91505092915050565b600060208284031215612dee57600080fd5b6000612dfc84828501612cfb565b91505092915050565b600060208284031215612e1757600080fd5b6000612e2584828501612d10565b91505092915050565b60008060408385031215612e4157600080fd5b6000612e4f85828601612d10565b9250506020612e6085828601612d10565b9150509250929050565b600080600060608486031215612e7f57600080fd5b6000612e8d86828701612d10565b9350506020612e9e86828701612d10565b9250506040612eaf86828701612ce6565b9150509250925092565b612eca612ec582613841565b613966565b82525050565b612ed981613853565b82525050565b612ee881613853565b82525050565b612ef78161385f565b82525050565b612f06816138e5565b82525050565b612f15816138f7565b82525050565b6000612f2682613705565b612f308185613710565b9350612f40818560208601613909565b612f4981613a52565b840191505092915050565b6000612f5f82613705565b612f698185613721565b9350612f79818560208601613909565b80840191505092915050565b6000612f92602083613710565b91507f537472696e67733a20686578206c656e67746820696e73756666696369656e746000830152602082019050919050565b6000612fd2601f83613710565b91507f676976656e2074617267657420697320616c7265616479206275726e65642e006000830152602082019050919050565b6000613012601d83613710565b91507f676976656e2074617267657420697320616c726561647920646561642e0000006000830152602082019050919050565b6000613052601e83613710565b91507f676976656e204e6f6b616920697320616c7265616479206275726e65642e00006000830152602082019050919050565b6000613092602283613710565b91507f7461726765742073686f756c64206265206f662061206c6f776572206772616460008301527f652e0000000000000000000000000000000000000000000000000000000000006020830152604082019050919050565b60006130f8601783613721565b91507f416363657373436f6e74726f6c3a206163636f756e74200000000000000000006000830152601782019050919050565b6000613138601883613710565b91507f676976656e204e6f6b6169206973206e6f7420646561642e00000000000000006000830152602082019050919050565b6000613178601183613721565b91507f206973206d697373696e6720726f6c65200000000000000000000000000000006000830152601182019050919050565b60006131b8601c83613710565b91507f676976656e204e6f6b616920697320616c726561647920646561642e000000006000830152602082019050919050565b60006131f8602f83613710565b91507f416363657373436f6e74726f6c3a2063616e206f6e6c792072656e6f756e636560008301527f20726f6c657320666f722073656c6600000000000000000000000000000000006020830152604082019050919050565b6101e08201600082015161326860008501826132e6565b50602082015161327c610120850182613454565b506040820151613290610140850182613454565b5060608201516132a4610160850182612ed0565b5060808201516132b8610180850182612ed0565b5060a08201516132cc6101a0850182613454565b5060c08201516132e06101c0850182613454565b50505050565b610120820160008201516132fd6000850182613454565b5060208201516133106020850182613454565b5060408201516133236040850182613454565b5060608201516133366060850182613454565b5060808201516133496080850182613454565b5060a082015161335c60a0850182613454565b5060c082015161336f60c0850182612efd565b5060e082015161338260e0850182612f0c565b50610100820151613397610100850182612f0c565b50505050565b610120820160008201516133b46000850182613454565b5060208201516133c76020850182613454565b5060408201516133da6040850182613454565b5060608201516133ed6060850182613454565b5060808201516134006080850182613454565b5060a082015161341360a0850182613454565b5060c082015161342660c0850182612efd565b5060e082015161343960e0850182612f0c565b5061010082015161344e610100850182612f0c565b50505050565b61345d816138db565b82525050565b61346c816138db565b82525050565b61348361347e826138db565b61398a565b82525050565b6000613494826130eb565b91506134a08285612f54565b91506134ab8261316b565b91506134b78284612f54565b91508190509392505050565b60006134cf8286613472565b6020820191506134df8285612eb9565b6014820191506134ef8284613472565b602082019150819050949350505050565b60006020820190506135156000830184612edf565b92915050565b60006020820190506135306000830184612eee565b92915050565b600060208201905081810360008301526135508184612f1b565b905092915050565b6000602082019050818103600083015261357181612f85565b9050919050565b6000602082019050818103600083015261359181612fc5565b9050919050565b600060208201905081810360008301526135b181613005565b9050919050565b600060208201905081810360008301526135d181613045565b9050919050565b600060208201905081810360008301526135f181613085565b9050919050565b600060208201905081810360008301526136118161312b565b9050919050565b60006020820190508181036000830152613631816131ab565b9050919050565b60006020820190508181036000830152613651816131eb565b9050919050565b60006101e08201905061366e6000830184613251565b92915050565b60006101e08201905061368a600083018a61339d565b613698610120830189613463565b6136a6610140830188613463565b6136b4610160830187612edf565b6136c2610180830186612edf565b6136d06101a0830185613463565b6136de6101c0830184613463565b98975050505050505050565b60006020820190506136ff6000830184613463565b92915050565b600081519050919050565b600082825260208201905092915050565b600081905092915050565b6000613737826138db565b9150613742836138db565b9250827fffffffffffffffffffffffffffffffffffffffffffffffffffffffffffffffff03821115613777576137766139c5565b5b828201905092915050565b600061378d826138db565b9150613798836138db565b9250826137a8576137a76139f4565b5b828204905092915050565b60006137be826138db565b91506137c9836138db565b9250817fffffffffffffffffffffffffffffffffffffffffffffffffffffffffffffffff0483118215151615613802576138016139c5565b5b828202905092915050565b6000613818826138db565b9150613823836138db565b925082821015613836576138356139c5565b5b828203905092915050565b600061384c826138bb565b9050919050565b60008115159050919050565b6000819050919050565b60007fffffffff0000000000000000000000000000000000000000000000000000000082169050919050565b60008190506138a382613a7c565b919050565b60008190506138b682613a90565b919050565b600073ffffffffffffffffffffffffffffffffffffffff82169050919050565b6000819050919050565b60006138f082613895565b9050919050565b6000613902826138a8565b9050919050565b60005b8381101561392757808201518184015260208101905061390c565b83811115613936576000848401525b50505050565b6000613947826138db565b9150600082141561395b5761395a6139c5565b5b600182039050919050565b600061397182613978565b9050919050565b600061398382613a63565b9050919050565b6000819050919050565b600061399f826138db565b91506139aa836138db565b9250826139ba576139b96139f4565b5b828206905092915050565b7f4e487b7100000000000000000000000000000000000000000000000000000000600052601160045260246000fd5b7f4e487b7100000000000000000000000000000000000000000000000000000000600052601260045260246000fd5b7f4e487b7100000000000000000000000000000000000000000000000000000000600052602160045260246000fd5b6000601f19601f8301169050919050565b60006c0100000000000000000000000082029050919050565b60058110613a8d57613a8c613a23565b5b50565b600a8110613aa157613aa0613a23565b5b50565b613aad81613841565b8114613ab857600080fd5b50565b613ac48161385f565b8114613acf57600080fd5b50565b613adb81613869565b8114613ae657600080fd5b50565b60058110613af657600080fd5b50565b600a8110613b0657600080fd5b50565b613b12816138db565b8114613b1d57600080fd5b5056fea264697066735822122027a856b62dce9cada873a8dc966e3946facb24875da3ef0e33cffb7caf68316c64736f6c63430008000033",
  "immutableReferences": {},
  "source": "pragma solidity ^0.8.0;\r\npragma experimental ABIEncoderV2;\r\n\r\nimport \"@openzeppelin/contracts/access/AccessControl.sol\";\r\nimport \"@openzeppelin/contracts/utils/math/Math.sol\";\r\nimport \"../utils/RandomUtils.sol\";\r\nimport \"./NokaiTechnique.sol\";\r\n\r\n// SPDX-License-Identifier: MIT\r\ncontract NokaiStats is AccessControl {\r\n    bytes32 public constant NOKAI_MANAGER_ROLE = keccak256(\"NOKAI_MANAGER_ROLE\");\r\n    bytes32 public constant GAME_MANAGER_ROLE = keccak256(\"GAME_MANAGER_ROLE\");\r\n    bytes32 public constant INVENTORY_MANAGER_ROLE = keccak256(\"INVENTORY_MANAGER_ROLE\");\r\n\r\n    enum Rarity {\r\n        Spirit,\r\n        Champion,\r\n        Overlord,\r\n        Astral,\r\n        Legend\r\n    }\r\n\r\n    enum StatType {\r\n        HP,\r\n        ATTACK,\r\n        DEFENSE,\r\n        REGEN,\r\n        PA\r\n    }\r\n\r\n    struct Profile {\r\n        Stats stats;\r\n        uint256 currentHp;\r\n        uint256 currentPa;\r\n        bool dead;\r\n        bool burned;\r\n        uint256 lastHpSet;\r\n        uint256 lastPaSet;\r\n    }\r\n\r\n    struct Stats {\r\n        uint256 hp;\r\n        uint256 attack;\r\n        uint256 defense;\r\n        uint256 regen;\r\n        uint256 pa;\r\n        uint256 gradeValue;\r\n        Rarity grade;\r\n        NokaiTechnique.Technique technique1;\r\n        NokaiTechnique.Technique technique2;\r\n    }\r\n\r\n    NokaiTechnique private techniquePicker;\r\n    mapping(uint256 => Profile) public profiles;\r\n\r\n    constructor(address _techniquePicker) {\r\n        techniquePicker = NokaiTechnique(_techniquePicker);\r\n        _setupRole(DEFAULT_ADMIN_ROLE, msg.sender);\r\n    }\r\n\r\n    function migrateNokaiTechnique(address _techniquePicker) external onlyRole(DEFAULT_ADMIN_ROLE) {\r\n        techniquePicker = NokaiTechnique(_techniquePicker);\r\n    }\r\n\r\n    function generateNokai(uint256 newNokaiId) external onlyRole(NOKAI_MANAGER_ROLE) {\r\n        _saveNokaiProfile(\r\n            newNokaiId,\r\n            Math.min(RandomUtils._rand(newNokaiId, 1000) + 200, 1000),\r\n            Math.min(RandomUtils._rand(newNokaiId + 1, 100) * 2 + 20, 2200),\r\n            Math.min(RandomUtils._rand(newNokaiId + 2, 100) + 10, 100),\r\n            Math.min(RandomUtils._rand(newNokaiId + 3, 100) + 20, 100),\r\n            RandomUtils._rand(newNokaiId + 4, 10)\r\n        );\r\n    }\r\n\r\n    function generateHighNokai(uint256 newNokaiId) external onlyRole(NOKAI_MANAGER_ROLE) {\r\n        _saveNokaiProfile(\r\n            newNokaiId,\r\n            Math.min(RandomUtils._rand(newNokaiId, 1000) / 2 + 500, 1000),\r\n            Math.min(RandomUtils._rand(newNokaiId + 1, 100) + 100, 200),\r\n            Math.min(RandomUtils._rand(newNokaiId + 2, 100) / 2 + 50, 100),\r\n            Math.min(RandomUtils._rand(newNokaiId + 3, 100) / 2 + 50, 100),\r\n            5\r\n        );\r\n    }\r\n\r\n    function generateLegendNokai(uint256 newNokaiId) external onlyRole(NOKAI_MANAGER_ROLE) {\r\n        _saveNokaiProfile(\r\n            newNokaiId,\r\n            RandomUtils._rand(newNokaiId, 100) + 900,\r\n            RandomUtils._rand(newNokaiId + 1, 10) * 2 + 180,\r\n            RandomUtils._rand(newNokaiId + 2, 10) + 90,\r\n            RandomUtils._rand(newNokaiId + 3, 10) + 90,\r\n            10\r\n        );\r\n    }\r\n\r\n    function _saveNokaiProfile(uint256 newNokaiId, uint256 hp, uint256 attack, uint256 defense, uint256 regen, uint256 _pa) private {\r\n        uint256 pa = _pa;\r\n        if (pa < 2) {\r\n            pa = 2;\r\n        } else if (pa > 8) {\r\n            pa = 8;\r\n        }\r\n        Rarity grade = _getBirthGrade(hp, attack, defense, regen, pa);\r\n\r\n        profiles[newNokaiId] = Profile({\r\n        stats : Stats({\r\n        hp : hp,\r\n        attack : attack,\r\n        defense : defense,\r\n        regen : regen,\r\n        pa : pa,\r\n        technique1 : techniquePicker.get(newNokaiId + 5),\r\n        technique2 : techniquePicker.get(newNokaiId + 6),\r\n        grade : grade,\r\n        gradeValue : uint256(grade) + 1\r\n        }),\r\n        currentHp : hp,\r\n        currentPa : pa,\r\n        dead : false,\r\n        burned : false,\r\n        lastHpSet : block.timestamp,\r\n        lastPaSet : block.timestamp\r\n        });\r\n    }\r\n\r\n    function upgradeFromNokaiBurn(uint256 nokaiId, uint256 targetId, StatType upgradeChoice) external onlyRole(NOKAI_MANAGER_ROLE) {\r\n        require(profiles[nokaiId].dead == false, \"given Nokai is already dead.\");\r\n        require(profiles[targetId].dead == false, \"given target is already dead.\");\r\n        require(profiles[nokaiId].burned == false, \"given Nokai is already burned.\");\r\n        require(profiles[targetId].burned == false, \"given target is already burned.\");\r\n        require(profiles[nokaiId].stats.gradeValue >= profiles[targetId].stats.gradeValue, \"target should be of a lower grade.\");\r\n\r\n        profiles[targetId].burned = true;\r\n\r\n        if (upgradeChoice == StatType.HP) {\r\n            profiles[nokaiId].stats.hp += profiles[targetId].stats.hp * profiles[targetId].stats.gradeValue / 100;\r\n        } else if (upgradeChoice == StatType.ATTACK) {\r\n            profiles[nokaiId].stats.attack += profiles[targetId].stats.attack * profiles[targetId].stats.gradeValue / 100;\r\n        } else if (upgradeChoice == StatType.DEFENSE) {\r\n            profiles[nokaiId].stats.defense += profiles[targetId].stats.defense * profiles[targetId].stats.gradeValue / 100;\r\n        } else if (upgradeChoice == StatType.REGEN) {\r\n            profiles[nokaiId].stats.regen += profiles[targetId].stats.regen * profiles[targetId].stats.gradeValue / 100;\r\n        } else if (upgradeChoice == StatType.PA) {\r\n            profiles[nokaiId].stats.pa += profiles[targetId].stats.gradeValue / 2;\r\n        }\r\n    }\r\n\r\n    function _getBirthGrade(uint256 hp, uint256 attack, uint256 defense, uint256 regen, uint256 pa) private pure returns (Rarity) {\r\n        uint256 total = hp + (attack * 5) + (defense * 10) + (pa * 100) + (regen * 10);\r\n        // max should be 5000\r\n        if (total > 4900) {\r\n            return Rarity.Legend;\r\n        } else if (total > 4200) {\r\n            return Rarity.Astral;\r\n        } else if (total > 3300) {\r\n            return Rarity.Overlord;\r\n        } else if (total > 1900) {\r\n            return Rarity.Champion;\r\n        } else {\r\n            return Rarity.Spirit;\r\n        }\r\n    }\r\n\r\n    function damage(uint256 nokaiId, uint256 newHp) external onlyRole(GAME_MANAGER_ROLE) {\r\n        require(profiles[nokaiId].dead == false, \"given Nokai is already dead.\");\r\n        require(profiles[nokaiId].burned == false, \"given Nokai is already burned.\");\r\n        profiles[nokaiId].lastHpSet = block.timestamp;\r\n        if (newHp == 0) {\r\n            profiles[nokaiId].currentHp = 0;\r\n            profiles[nokaiId].dead = true;\r\n            emit NokaiKilled(nokaiId);\r\n        } else {\r\n            profiles[nokaiId].currentHp = newHp;\r\n            emit NokaiDamaged(nokaiId, newHp);\r\n        }\r\n    }\r\n\r\n    function reborn(uint256 nokaiId) external onlyRole(INVENTORY_MANAGER_ROLE) {\r\n        require(profiles[nokaiId].dead == true, \"given Nokai is not dead.\");\r\n        require(profiles[nokaiId].burned == false, \"given Nokai is already burned.\");\r\n        profiles[nokaiId].lastHpSet = block.timestamp;\r\n        profiles[nokaiId].currentHp = profiles[nokaiId].stats.hp;\r\n        profiles[nokaiId].dead = false;\r\n        emit NokaiReborn(nokaiId);\r\n    }\r\n\r\n    function heal(uint256 nokaiId, uint256 amount) external onlyRole(INVENTORY_MANAGER_ROLE) {\r\n        require(profiles[nokaiId].dead == false, \"given Nokai is already dead.\");\r\n        require(profiles[nokaiId].burned == false, \"given Nokai is already burned.\");\r\n        uint256 currentHp = _calculateHp(nokaiId);\r\n        profiles[nokaiId].lastHpSet = block.timestamp;\r\n        if (currentHp + amount > profiles[nokaiId].stats.hp) {\r\n            profiles[nokaiId].currentHp = profiles[nokaiId].stats.hp;\r\n        } else {\r\n            profiles[nokaiId].currentHp = currentHp + amount;\r\n        }\r\n        emit NokaiHealed(nokaiId, amount);\r\n    }\r\n\r\n    function energize(uint256 nokaiId, uint256 pa) external onlyRole(INVENTORY_MANAGER_ROLE) {\r\n        require(profiles[nokaiId].dead == false, \"given Nokai is already dead.\");\r\n        require(profiles[nokaiId].burned == false, \"given Nokai is already burned.\");\r\n        uint256 currentPa = _calculatePa(nokaiId);\r\n        profiles[nokaiId].lastPaSet = block.timestamp;\r\n        if (currentPa + pa > profiles[nokaiId].stats.pa) {\r\n            profiles[nokaiId].currentPa = profiles[nokaiId].stats.pa;\r\n        } else {\r\n            profiles[nokaiId].currentPa = currentPa + pa;\r\n        }\r\n        emit NokaiEnergized(nokaiId);\r\n    }\r\n\r\n    function didAction(uint256 nokaiId, uint256 _pa) external onlyRole(GAME_MANAGER_ROLE) {\r\n        uint256 currentPa = _calculatePa(nokaiId);\r\n        profiles[nokaiId].lastPaSet = block.timestamp;\r\n        if (currentPa - _pa <= 0) {\r\n            profiles[nokaiId].currentPa = 0;\r\n            emit NokaiEmptyEnergy(nokaiId);\r\n        } else {\r\n            profiles[nokaiId].currentPa = currentPa - _pa;\r\n        }\r\n    }\r\n\r\n    function _calculateHp(uint256 nokaiId) internal view returns (uint256) {\r\n        return profiles[nokaiId].currentHp + (profiles[nokaiId].stats.regen * ((block.timestamp - profiles[nokaiId].lastHpSet) / 3600));\r\n    }\r\n\r\n    function _calculatePa(uint256 nokaiId) internal view returns (uint256) {\r\n        return profiles[nokaiId].currentPa + ((block.timestamp - profiles[nokaiId].lastHpSet) / 7200);\r\n    }\r\n\r\n    function profile(uint256 nokaiId) external view returns (Profile memory) {\r\n        return Profile({\r\n        stats : profiles[nokaiId].stats,\r\n        currentHp : _calculateHp(nokaiId),\r\n        currentPa : _calculatePa(nokaiId),\r\n        dead : profiles[nokaiId].dead,\r\n        burned : profiles[nokaiId].burned,\r\n        lastHpSet : profiles[nokaiId].lastHpSet,\r\n        lastPaSet : profiles[nokaiId].lastPaSet\r\n        });\r\n    }\r\n\r\n    event NokaiDamaged(uint256 indexed nokaiId, uint256 newHp);\r\n    event NokaiKilled(uint256 indexed nokaiId);\r\n    event NokaiReborn(uint256 indexed nokaiId);\r\n    event NokaiHealed(uint256 indexed nokaiId, uint256 amount);\r\n    event NokaiEnergized(uint256 indexed nokaiId);\r\n    event NokaiEmptyEnergy(uint256 indexed nokaiId);\r\n}\r\n",
  "sourcePath": "C:\\Users\\KevinGeorgesAndres\\Documents\\projects\\perso\\blackhole-evm\\contracts\\character\\NokaiStats.sol",
  "compiler": {
    "name": "solc",
    "version": "0.8.0+commit.c7dfd78e.Emscripten.clang"
  },
  "schemaVersion": "3.4.3",
  "updatedAt": "2021-12-03T11:00:21.934Z",
  "devdoc": {
    "kind": "dev",
    "methods": {
      "getRoleAdmin(bytes32)": {
        "details": "Returns the admin role that controls `role`. See {grantRole} and {revokeRole}. To change a role's admin, use {_setRoleAdmin}."
      },
      "grantRole(bytes32,address)": {
        "details": "Grants `role` to `account`. If `account` had not been already granted `role`, emits a {RoleGranted} event. Requirements: - the caller must have ``role``'s admin role."
      },
      "hasRole(bytes32,address)": {
        "details": "Returns `true` if `account` has been granted `role`."
      },
      "renounceRole(bytes32,address)": {
        "details": "Revokes `role` from the calling account. Roles are often managed via {grantRole} and {revokeRole}: this function's purpose is to provide a mechanism for accounts to lose their privileges if they are compromised (such as when a trusted device is misplaced). If the calling account had been revoked `role`, emits a {RoleRevoked} event. Requirements: - the caller must be `account`."
      },
      "revokeRole(bytes32,address)": {
        "details": "Revokes `role` from `account`. If `account` had been granted `role`, emits a {RoleRevoked} event. Requirements: - the caller must have ``role``'s admin role."
      },
      "supportsInterface(bytes4)": {
        "details": "See {IERC165-supportsInterface}."
      }
    },
    "version": 1
  },
  "userdoc": {
    "kind": "user",
    "methods": {},
    "version": 1
  }
}