{
  "contractName": "BlackHole",
  "abi": [
    {
      "inputs": [
        {
          "internalType": "uint16",
          "name": "_width",
          "type": "uint16"
        },
        {
          "internalType": "uint16",
          "name": "_height",
          "type": "uint16"
        }
      ],
      "stateMutability": "nonpayable",
      "type": "constructor"
    },
    {
      "anonymous": false,
      "inputs": [
        {
          "indexed": false,
          "internalType": "uint16",
          "name": "x",
          "type": "uint16"
        },
        {
          "indexed": false,
          "internalType": "uint16",
          "name": "y",
          "type": "uint16"
        },
        {
          "indexed": false,
          "internalType": "address",
          "name": "by",
          "type": "address"
        },
        {
          "indexed": false,
          "internalType": "uint256",
          "name": "level",
          "type": "uint256"
        }
      ],
      "name": "ExtractorUpgraded",
      "type": "event"
    },
    {
      "anonymous": false,
      "inputs": [
        {
          "indexed": false,
          "internalType": "uint16",
          "name": "fromX",
          "type": "uint16"
        },
        {
          "indexed": false,
          "internalType": "uint16",
          "name": "fromY",
          "type": "uint16"
        },
        {
          "indexed": false,
          "internalType": "uint16",
          "name": "toX",
          "type": "uint16"
        },
        {
          "indexed": false,
          "internalType": "uint16",
          "name": "toY",
          "type": "uint16"
        },
        {
          "indexed": true,
          "internalType": "uint256",
          "name": "nokai",
          "type": "uint256"
        },
        {
          "indexed": true,
          "internalType": "address",
          "name": "owner",
          "type": "address"
        }
      ],
      "name": "NokaiMoved",
      "type": "event"
    },
    {
      "anonymous": false,
      "inputs": [
        {
          "indexed": true,
          "internalType": "bytes32",
          "name": "role",
          "type": "bytes32"
        },
        {
          "indexed": true,
          "internalType": "bytes32",
          "name": "previousAdminRole",
          "type": "bytes32"
        },
        {
          "indexed": true,
          "internalType": "bytes32",
          "name": "newAdminRole",
          "type": "bytes32"
        }
      ],
      "name": "RoleAdminChanged",
      "type": "event"
    },
    {
      "anonymous": false,
      "inputs": [
        {
          "indexed": true,
          "internalType": "bytes32",
          "name": "role",
          "type": "bytes32"
        },
        {
          "indexed": true,
          "internalType": "address",
          "name": "account",
          "type": "address"
        },
        {
          "indexed": true,
          "internalType": "address",
          "name": "sender",
          "type": "address"
        }
      ],
      "name": "RoleGranted",
      "type": "event"
    },
    {
      "anonymous": false,
      "inputs": [
        {
          "indexed": true,
          "internalType": "bytes32",
          "name": "role",
          "type": "bytes32"
        },
        {
          "indexed": true,
          "internalType": "address",
          "name": "account",
          "type": "address"
        },
        {
          "indexed": true,
          "internalType": "address",
          "name": "sender",
          "type": "address"
        }
      ],
      "name": "RoleRevoked",
      "type": "event"
    },
    {
      "anonymous": false,
      "inputs": [
        {
          "indexed": false,
          "internalType": "uint16",
          "name": "x",
          "type": "uint16"
        },
        {
          "indexed": false,
          "internalType": "uint16",
          "name": "y",
          "type": "uint16"
        },
        {
          "indexed": true,
          "internalType": "address",
          "name": "previousOwner",
          "type": "address"
        },
        {
          "indexed": true,
          "internalType": "address",
          "name": "newOwner",
          "type": "address"
        }
      ],
      "name": "SlotConquered",
      "type": "event"
    },
    {
      "anonymous": false,
      "inputs": [
        {
          "indexed": false,
          "internalType": "uint16",
          "name": "x",
          "type": "uint16"
        },
        {
          "indexed": false,
          "internalType": "uint16",
          "name": "y",
          "type": "uint16"
        },
        {
          "indexed": false,
          "internalType": "address",
          "name": "by",
          "type": "address"
        }
      ],
      "name": "SlotDiscovered",
      "type": "event"
    },
    {
      "anonymous": false,
      "inputs": [
        {
          "indexed": false,
          "internalType": "uint16",
          "name": "x",
          "type": "uint16"
        },
        {
          "indexed": false,
          "internalType": "uint16",
          "name": "y",
          "type": "uint16"
        },
        {
          "indexed": false,
          "internalType": "address",
          "name": "by",
          "type": "address"
        }
      ],
      "name": "TerritoryExtracted",
      "type": "event"
    },
    {
      "inputs": [],
      "name": "DEFAULT_ADMIN_ROLE",
      "outputs": [
        {
          "internalType": "bytes32",
          "name": "",
          "type": "bytes32"
        }
      ],
      "stateMutability": "view",
      "type": "function",
      "constant": true
    },
    {
      "inputs": [],
      "name": "GAME_MANAGER_ROLE",
      "outputs": [
        {
          "internalType": "bytes32",
          "name": "",
          "type": "bytes32"
        }
      ],
      "stateMutability": "view",
      "type": "function",
      "constant": true
    },
    {
      "inputs": [
        {
          "internalType": "bytes32",
          "name": "role",
          "type": "bytes32"
        }
      ],
      "name": "getRoleAdmin",
      "outputs": [
        {
          "internalType": "bytes32",
          "name": "",
          "type": "bytes32"
        }
      ],
      "stateMutability": "view",
      "type": "function",
      "constant": true
    },
    {
      "inputs": [
        {
          "internalType": "bytes32",
          "name": "role",
          "type": "bytes32"
        },
        {
          "internalType": "address",
          "name": "account",
          "type": "address"
        }
      ],
      "name": "grantRole",
      "outputs": [],
      "stateMutability": "nonpayable",
      "type": "function"
    },
    {
      "inputs": [
        {
          "internalType": "bytes32",
          "name": "role",
          "type": "bytes32"
        },
        {
          "internalType": "address",
          "name": "account",
          "type": "address"
        }
      ],
      "name": "hasRole",
      "outputs": [
        {
          "internalType": "bool",
          "name": "",
          "type": "bool"
        }
      ],
      "stateMutability": "view",
      "type": "function",
      "constant": true
    },
    {
      "inputs": [],
      "name": "maxX",
      "outputs": [
        {
          "internalType": "uint16",
          "name": "",
          "type": "uint16"
        }
      ],
      "stateMutability": "view",
      "type": "function",
      "constant": true
    },
    {
      "inputs": [],
      "name": "maxY",
      "outputs": [
        {
          "internalType": "uint16",
          "name": "",
          "type": "uint16"
        }
      ],
      "stateMutability": "view",
      "type": "function",
      "constant": true
    },
    {
      "inputs": [
        {
          "internalType": "bytes32",
          "name": "role",
          "type": "bytes32"
        },
        {
          "internalType": "address",
          "name": "account",
          "type": "address"
        }
      ],
      "name": "renounceRole",
      "outputs": [],
      "stateMutability": "nonpayable",
      "type": "function"
    },
    {
      "inputs": [
        {
          "internalType": "bytes32",
          "name": "role",
          "type": "bytes32"
        },
        {
          "internalType": "address",
          "name": "account",
          "type": "address"
        }
      ],
      "name": "revokeRole",
      "outputs": [],
      "stateMutability": "nonpayable",
      "type": "function"
    },
    {
      "inputs": [
        {
          "internalType": "bytes4",
          "name": "interfaceId",
          "type": "bytes4"
        }
      ],
      "name": "supportsInterface",
      "outputs": [
        {
          "internalType": "bool",
          "name": "",
          "type": "bool"
        }
      ],
      "stateMutability": "view",
      "type": "function",
      "constant": true
    },
    {
      "inputs": [],
      "name": "totalPos",
      "outputs": [
        {
          "internalType": "uint256",
          "name": "",
          "type": "uint256"
        }
      ],
      "stateMutability": "view",
      "type": "function",
      "constant": true
    },
    {
      "inputs": [
        {
          "internalType": "uint16",
          "name": "x",
          "type": "uint16"
        },
        {
          "internalType": "uint16",
          "name": "y",
          "type": "uint16"
        },
        {
          "internalType": "address",
          "name": "by",
          "type": "address"
        }
      ],
      "name": "completeExtraction",
      "outputs": [
        {
          "internalType": "uint256",
          "name": "",
          "type": "uint256"
        },
        {
          "internalType": "uint256",
          "name": "",
          "type": "uint256"
        },
        {
          "internalType": "uint256",
          "name": "",
          "type": "uint256"
        },
        {
          "internalType": "uint256",
          "name": "",
          "type": "uint256"
        }
      ],
      "stateMutability": "nonpayable",
      "type": "function"
    },
    {
      "inputs": [
        {
          "internalType": "uint16",
          "name": "x",
          "type": "uint16"
        },
        {
          "internalType": "uint16",
          "name": "y",
          "type": "uint16"
        },
        {
          "internalType": "address",
          "name": "by",
          "type": "address"
        }
      ],
      "name": "upgradeExtractor",
      "outputs": [],
      "stateMutability": "nonpayable",
      "type": "function"
    },
    {
      "inputs": [
        {
          "internalType": "uint16",
          "name": "x",
          "type": "uint16"
        },
        {
          "internalType": "uint16",
          "name": "y",
          "type": "uint16"
        },
        {
          "internalType": "uint256",
          "name": "nokaiId",
          "type": "uint256"
        },
        {
          "internalType": "address",
          "name": "by",
          "type": "address"
        }
      ],
      "name": "assignNokai",
      "outputs": [],
      "stateMutability": "nonpayable",
      "type": "function"
    },
    {
      "inputs": [
        {
          "internalType": "uint16",
          "name": "x",
          "type": "uint16"
        },
        {
          "internalType": "uint16",
          "name": "y",
          "type": "uint16"
        },
        {
          "internalType": "uint256",
          "name": "nokaiId",
          "type": "uint256"
        }
      ],
      "name": "withdrawDeadNokai",
      "outputs": [],
      "stateMutability": "nonpayable",
      "type": "function"
    },
    {
      "inputs": [
        {
          "internalType": "uint16",
          "name": "x",
          "type": "uint16"
        },
        {
          "internalType": "uint16",
          "name": "y",
          "type": "uint16"
        },
        {
          "internalType": "uint256",
          "name": "nokaiId",
          "type": "uint256"
        },
        {
          "internalType": "address",
          "name": "by",
          "type": "address"
        }
      ],
      "name": "withdrawNokai",
      "outputs": [],
      "stateMutability": "nonpayable",
      "type": "function"
    },
    {
      "inputs": [
        {
          "internalType": "uint16",
          "name": "fromX",
          "type": "uint16"
        },
        {
          "internalType": "uint16",
          "name": "fromY",
          "type": "uint16"
        },
        {
          "internalType": "uint16",
          "name": "toX",
          "type": "uint16"
        },
        {
          "internalType": "uint16",
          "name": "toY",
          "type": "uint16"
        },
        {
          "internalType": "address",
          "name": "by",
          "type": "address"
        }
      ],
      "name": "conquest",
      "outputs": [],
      "stateMutability": "nonpayable",
      "type": "function"
    },
    {
      "inputs": [
        {
          "internalType": "uint16",
          "name": "fromX",
          "type": "uint16"
        },
        {
          "internalType": "uint16",
          "name": "fromY",
          "type": "uint16"
        },
        {
          "internalType": "uint16",
          "name": "toX",
          "type": "uint16"
        },
        {
          "internalType": "uint16",
          "name": "toY",
          "type": "uint16"
        },
        {
          "internalType": "address",
          "name": "by",
          "type": "address"
        }
      ],
      "name": "move",
      "outputs": [],
      "stateMutability": "nonpayable",
      "type": "function"
    },
    {
      "inputs": [
        {
          "internalType": "uint16",
          "name": "x",
          "type": "uint16"
        },
        {
          "internalType": "uint16",
          "name": "y",
          "type": "uint16"
        }
      ],
      "name": "nokaiAt",
      "outputs": [
        {
          "internalType": "uint256",
          "name": "",
          "type": "uint256"
        }
      ],
      "stateMutability": "view",
      "type": "function",
      "constant": true
    },
    {
      "inputs": [
        {
          "internalType": "uint256",
          "name": "nokaiId",
          "type": "uint256"
        }
      ],
      "name": "nokaiPos",
      "outputs": [
        {
          "components": [
            {
              "internalType": "bool",
              "name": "onBoard",
              "type": "bool"
            },
            {
              "internalType": "uint16",
              "name": "x",
              "type": "uint16"
            },
            {
              "internalType": "uint16",
              "name": "y",
              "type": "uint16"
            }
          ],
          "internalType": "struct BlackHole.Position",
          "name": "",
          "type": "tuple"
        }
      ],
      "stateMutability": "view",
      "type": "function",
      "constant": true
    },
    {
      "inputs": [
        {
          "internalType": "address",
          "name": "user",
          "type": "address"
        }
      ],
      "name": "territoryCount",
      "outputs": [
        {
          "internalType": "uint256",
          "name": "",
          "type": "uint256"
        }
      ],
      "stateMutability": "view",
      "type": "function",
      "constant": true
    },
    {
      "inputs": [
        {
          "internalType": "uint16",
          "name": "x",
          "type": "uint16"
        },
        {
          "internalType": "uint16",
          "name": "y",
          "type": "uint16"
        }
      ],
      "name": "extractorCostAt",
      "outputs": [
        {
          "internalType": "uint256",
          "name": "",
          "type": "uint256"
        }
      ],
      "stateMutability": "view",
      "type": "function",
      "constant": true
    },
    {
      "inputs": [
        {
          "internalType": "uint16",
          "name": "x",
          "type": "uint16"
        },
        {
          "internalType": "uint16",
          "name": "y",
          "type": "uint16"
        }
      ],
      "name": "get",
      "outputs": [
        {
          "components": [
            {
              "internalType": "uint16",
              "name": "x",
              "type": "uint16"
            },
            {
              "internalType": "uint16",
              "name": "y",
              "type": "uint16"
            },
            {
              "internalType": "uint256",
              "name": "darkEnergy",
              "type": "uint256"
            },
            {
              "internalType": "uint256",
              "name": "darkMatter",
              "type": "uint256"
            },
            {
              "internalType": "uint256",
              "name": "plasmaEnergy",
              "type": "uint256"
            },
            {
              "internalType": "uint256",
              "name": "voidEssence",
              "type": "uint256"
            },
            {
              "components": [
                {
                  "internalType": "uint256",
                  "name": "level",
                  "type": "uint256"
                },
                {
                  "internalType": "uint256",
                  "name": "cost",
                  "type": "uint256"
                },
                {
                  "internalType": "uint256",
                  "name": "lastExtract",
                  "type": "uint256"
                }
              ],
              "internalType": "struct BlackHole.Extractor",
              "name": "extractor",
              "type": "tuple"
            },
            {
              "internalType": "uint256",
              "name": "nokai",
              "type": "uint256"
            },
            {
              "internalType": "address",
              "name": "owner",
              "type": "address"
            },
            {
              "internalType": "bool",
              "name": "discovered",
              "type": "bool"
            }
          ],
          "internalType": "struct BlackHole.Territory",
          "name": "",
          "type": "tuple"
        }
      ],
      "stateMutability": "view",
      "type": "function",
      "constant": true
    },
    {
      "inputs": [
        {
          "internalType": "uint256",
          "name": "from",
          "type": "uint256"
        },
        {
          "internalType": "uint256",
          "name": "to",
          "type": "uint256"
        }
      ],
      "name": "getBlackHole",
      "outputs": [
        {
          "components": [
            {
              "internalType": "uint16",
              "name": "x",
              "type": "uint16"
            },
            {
              "internalType": "uint16",
              "name": "y",
              "type": "uint16"
            },
            {
              "internalType": "uint256",
              "name": "darkEnergy",
              "type": "uint256"
            },
            {
              "internalType": "uint256",
              "name": "darkMatter",
              "type": "uint256"
            },
            {
              "internalType": "uint256",
              "name": "plasmaEnergy",
              "type": "uint256"
            },
            {
              "internalType": "uint256",
              "name": "voidEssence",
              "type": "uint256"
            },
            {
              "components": [
                {
                  "internalType": "uint256",
                  "name": "level",
                  "type": "uint256"
                },
                {
                  "internalType": "uint256",
                  "name": "cost",
                  "type": "uint256"
                },
                {
                  "internalType": "uint256",
                  "name": "lastExtract",
                  "type": "uint256"
                }
              ],
              "internalType": "struct BlackHole.Extractor",
              "name": "extractor",
              "type": "tuple"
            },
            {
              "internalType": "uint256",
              "name": "nokai",
              "type": "uint256"
            },
            {
              "internalType": "address",
              "name": "owner",
              "type": "address"
            },
            {
              "internalType": "bool",
              "name": "discovered",
              "type": "bool"
            }
          ],
          "internalType": "struct BlackHole.Territory[]",
          "name": "",
          "type": "tuple[]"
        }
      ],
      "stateMutability": "view",
      "type": "function",
      "constant": true
    }
  ],
  "bytecode": "0x60806040523480156200001157600080fd5b5060405162004964380380620049648339818101604052810190620000379190620004cb565b81600160006101000a81548161ffff021916908361ffff16021790555080600160026101000a81548161ffff021916908361ffff160217905550600160029054906101000a900461ffff16600160009054906101000a900461ffff166200009f919062000583565b61ffff16600281905550620000c860006001023362000320640100000000026401000000009004565b6040518061014001604052806002600160009054906101000a900461ffff16620000f391906200054b565b61ffff1681526020016002600160029054906101000a900461ffff166200011b91906200054b565b61ffff168152602001600a81526020016064815260200160648152602001606481526020016040518060600160405280600181526020016103e8815260200142815250815260200160008152602001600073ffffffffffffffffffffffffffffffffffffffff16815260200160011515815250600460006002600160009054906101000a900461ffff16620001b191906200054b565b600160009054906101000a900461ffff166002600160029054906101000a900461ffff16620001e191906200054b565b620001ed919062000583565b620001f991906200050c565b61ffff16815260200190815260200160002060008201518160000160006101000a81548161ffff021916908361ffff16021790555060208201518160000160026101000a81548161ffff021916908361ffff16021790555060408201518160010155606082015181600201556080820151816003015560a0820151816004015560c082015181600501600082015181600001556020820151816001015560408201518160020155505060e082015181600801556101008201518160090160006101000a81548173ffffffffffffffffffffffffffffffffffffffff021916908373ffffffffffffffffffffffffffffffffffffffff1602179055506101208201518160090160146101000a81548160ff02191690831515021790555090505050506200064c565b6200033b82826200033f640100000000026401000000009004565b5050565b6200035a828262000442640100000000026401000000009004565b6200043e57600160008084815260200190815260200160002060000160008373ffffffffffffffffffffffffffffffffffffffff1673ffffffffffffffffffffffffffffffffffffffff16815260200190815260200160002060006101000a81548160ff021916908315150217905550620003e3620004ac640100000000026401000000009004565b73ffffffffffffffffffffffffffffffffffffffff168173ffffffffffffffffffffffffffffffffffffffff16837f2f8788117e7eff1d82e926ec794901d17c78024a50270940304540a733656f0d60405160405180910390a45b5050565b600080600084815260200190815260200160002060000160008373ffffffffffffffffffffffffffffffffffffffff1673ffffffffffffffffffffffffffffffffffffffff16815260200190815260200160002060009054906101000a900460ff16905092915050565b600033905090565b600081519050620004c58162000632565b92915050565b60008060408385031215620004df57600080fd5b6000620004ef85828601620004b4565b92505060206200050285828601620004b4565b9150509250929050565b60006200051982620005c6565b91506200052683620005c6565b92508261ffff0382111562000540576200053f620005d4565b5b828201905092915050565b60006200055882620005c6565b91506200056583620005c6565b92508262000578576200057762000603565b5b828204905092915050565b60006200059082620005c6565b91506200059d83620005c6565b92508161ffff0483118215151615620005bb57620005ba620005d4565b5b828202905092915050565b600061ffff82169050919050565b7f4e487b7100000000000000000000000000000000000000000000000000000000600052601160045260246000fd5b7f4e487b7100000000000000000000000000000000000000000000000000000000600052601260045260246000fd5b6200063d81620005c6565b81146200064957600080fd5b50565b614308806200065c6000396000f3fe608060405234801561001057600080fd5b5060043610610175576000357c0100000000000000000000000000000000000000000000000000000000900480638e817b41116100e0578063b24baccb11610099578063b24baccb1461042f578063cad86e511461045f578063d547741f1461047b578063e86a59c414610497578063ff6fcdbd146104b5578063ff7ae6ee146104d357610175565b80638e817b411461034957806391d148541461036557806394951550146103955780639bd0f28b146103c5578063a217fddf146103e1578063a341cbeb146103ff57610175565b80634be4f486116101325780634be4f4861461027557806367ed369714610291578063684fad90146102c157806370d20d3e146102f157806385fc69401461030f5780638b04f6471461032b57610175565b806301ffc9a71461017a57806308be8abb146101aa5780630f2fb69d146101dd578063248a9ca31461020d5780632f2ff15d1461023d57806336568abe14610259575b600080fd5b610194600480360381019061018f9190612e1e565b6104ef565b6040516101a19190613a75565b60405180910390f35b6101c460048036038101906101bf9190612e83565b610569565b6040516101d49493929190613de4565b60405180910390f35b6101f760048036038101906101f29190612d90565b6108df565b6040516102049190613dc9565b60405180910390f35b61022760048036038101906102229190612db9565b610928565b6040516102349190613a90565b60405180910390f35b61025760048036038101906102529190612de2565b610947565b005b610273600480360381019061026e9190612de2565b610970565b005b61028f600480360381019061028a9190612e83565b6109f3565b005b6102ab60048036038101906102a69190612ffb565b610bd5565b6040516102b89190613c8d565b60405180910390f35b6102db60048036038101906102d69190612e47565b610c5d565b6040516102e89190613dc9565b60405180910390f35b6102f9610ca8565b6040516103069190613cc4565b60405180910390f35b61032960048036038101906103249190612ed2565b610cbc565b005b6103336112d6565b6040516103409190613cc4565b60405180910390f35b610363600480360381019061035e9190612f49565b6112ea565b005b61037f600480360381019061037a9190612de2565b611356565b60405161038c9190613a75565b60405180910390f35b6103af60048036038101906103aa9190612e47565b6113c0565b6040516103bc9190613dc9565b60405180910390f35b6103df60048036038101906103da9190612f98565b61140e565b005b6103e961157e565b6040516103f69190613a90565b60405180910390f35b61041960048036038101906104149190613024565b611586565b6040516104269190613a53565b60405180910390f35b61044960048036038101906104449190612e47565b611806565b6040516104569190613ca8565b60405180910390f35b61047960048036038101906104749190612f98565b611974565b005b61049560048036038101906104909190612de2565b611a44565b005b61049f611a6d565b6040516104ac9190613dc9565b60405180910390f35b6104bd611a73565b6040516104ca9190613a90565b60405180910390f35b6104ed60048036038101906104e89190612ed2565b611a97565b005b60007f7965db0b000000000000000000000000000000000000000000000000000000007bffffffffffffffffffffffffffffffffffffffffffffffffffffffff1916827bffffffffffffffffffffffffffffffffffffffffffffffffffffffff19161480610562575061056182611d86565b5b9050919050565b6000806000807fef17b1f3c5a412f9c8e887e3abd186802afec7dc657fd3b7002bf87b128dd0b16105a18161059c611df0565b611df8565b600088600160009054906101000a900461ffff16896105c09190613f48565b6105ca9190613e89565b61ffff1690508673ffffffffffffffffffffffffffffffffffffffff166004600083815260200190815260200160002060090160009054906101000a900473ffffffffffffffffffffffffffffffffffffffff1673ffffffffffffffffffffffffffffffffffffffff1614610674576040517f08c379a000000000000000000000000000000000000000000000000000000000815260040161066b90613bed565b60405180910390fd5b6000610e1060046000848152602001908152602001600020600501600201544261069e9190614012565b6106a89190613f17565b9050426004600084815260200190815260200160002060050160020181905550600080600460008581526020019081526020016000206001015414156106ef576000610736565b816004600085815260200190815260200160002060050160000154600460008681526020019081526020016000206001015461072b9190613f84565b6107359190613f84565b5b90506000806004600086815260200190815260200160002060020154141561075f5760006107a6565b826004600086815260200190815260200160002060050160000154600460008781526020019081526020016000206002015461079b9190613f84565b6107a59190613f84565b5b9050600080600460008781526020019081526020016000206003015414156107cf576000610816565b836004600087815260200190815260200160002060050160000154600460008881526020019081526020016000206003015461080b9190613f84565b6108159190613f84565b5b90506000806004600088815260200190815260200160002060040154141561083f576000610886565b846004600088815260200190815260200160002060050160000154600460008981526020019081526020016000206004015461087b9190613f84565b6108859190613f84565b5b90507f49f00360f1bf5498a47c8bca06199209dcc94e1d9087f2d36afc4c0a30f7f1aa8e8e8e6040516108bb93929190613d08565b60405180910390a1838383839a509a509a509a505050505050505093509350935093565b6000600360008373ffffffffffffffffffffffffffffffffffffffff1673ffffffffffffffffffffffffffffffffffffffff168152602001908152602001600020549050919050565b6000806000838152602001908152602001600020600101549050919050565b61095082610928565b6109618161095c611df0565b611df8565b61096b8383611e96565b505050565b610978611df0565b73ffffffffffffffffffffffffffffffffffffffff168173ffffffffffffffffffffffffffffffffffffffff16146109e5576040517f08c379a00000000000000000000000000000000000000000000000000000000081526004016109dc90613c6d565b60405180910390fd5b6109ef8282611f76565b5050565b7fef17b1f3c5a412f9c8e887e3abd186802afec7dc657fd3b7002bf87b128dd0b1610a2581610a20611df0565b611df8565b600084600160009054906101000a900461ffff1685610a449190613f48565b610a4e9190613e89565b61ffff1690508273ffffffffffffffffffffffffffffffffffffffff166004600083815260200190815260200160002060090160009054906101000a900473ffffffffffffffffffffffffffffffffffffffff1673ffffffffffffffffffffffffffffffffffffffff1614610af8576040517f08c379a0000000000000000000000000000000000000000000000000000000008152600401610aef90613bed565b60405180910390fd5b6001600460008381526020019081526020016000206005016000016000828254610b229190613ec1565b925050819055506002600460008381526020019081526020016000206005016001016000828254610b539190613f84565b925050819055504260046000838152602001908152602001600020600501600201819055507fb01f61f96739051313598e07a91ff2905b43a10aea863413abec3e20f00e41f88585856004600086815260200190815260200160002060050160000154604051610bc69493929190613d3f565b60405180910390a15050505050565b610bdd612c62565b600560008381526020019081526020016000206040518060600160405290816000820160009054906101000a900460ff161515151581526020016000820160019054906101000a900461ffff1661ffff1661ffff1681526020016000820160039054906101000a900461ffff1661ffff1661ffff16815250509050919050565b60006004600084600160009054906101000a900461ffff1685610c809190613f48565b610c8a9190613e89565b61ffff16815260200190815260200160002060080154905092915050565b600160009054906101000a900461ffff1681565b7fef17b1f3c5a412f9c8e887e3abd186802afec7dc657fd3b7002bf87b128dd0b1610cee81610ce9611df0565b611df8565b600084600160009054906101000a900461ffff1685610d0d9190613f48565b610d179190613e89565b61ffff169050600085600160009054906101000a900461ffff1686610d3c9190613f48565b610d469190613e89565b61ffff1690508373ffffffffffffffffffffffffffffffffffffffff166004600084815260200190815260200160002060090160009054906101000a900473ffffffffffffffffffffffffffffffffffffffff1673ffffffffffffffffffffffffffffffffffffffff1614610df0576040517f08c379a0000000000000000000000000000000000000000000000000000000008152600401610de790613b8d565b60405180910390fd5b6004600082815260200190815260200160002060090160009054906101000a900473ffffffffffffffffffffffffffffffffffffffff1673ffffffffffffffffffffffffffffffffffffffff166004600084815260200190815260200160002060090160009054906101000a900473ffffffffffffffffffffffffffffffffffffffff1673ffffffffffffffffffffffffffffffffffffffff161415610ecb576040517f08c379a0000000000000000000000000000000000000000000000000000000008152600401610ec290613bcd565b60405180910390fd5b6000600460008381526020019081526020016000206008015414610f24576040517f08c379a0000000000000000000000000000000000000000000000000000000008152600401610f1b90613b2d565b60405180910390fd5b600060046000848152602001908152602001600020600801541415610f7e576040517f08c379a0000000000000000000000000000000000000000000000000000000008152600401610f7590613aed565b60405180910390fd5b60006004600083815260200190815260200160002060090160009054906101000a900473ffffffffffffffffffffffffffffffffffffffff1690506000600360008373ffffffffffffffffffffffffffffffffffffffff1673ffffffffffffffffffffffffffffffffffffffff1681526020019081526020016000205411611007576000611054565b6001600360008373ffffffffffffffffffffffffffffffffffffffff1673ffffffffffffffffffffffffffffffffffffffff168152602001908152602001600020546110539190614012565b5b600360008373ffffffffffffffffffffffffffffffffffffffff1673ffffffffffffffffffffffffffffffffffffffff168152602001908152602001600020819055506001600360008773ffffffffffffffffffffffffffffffffffffffff1673ffffffffffffffffffffffffffffffffffffffff16815260200190815260200160002060008282546110e79190613ec1565b92505081905550846004600084815260200190815260200160002060090160006101000a81548173ffffffffffffffffffffffffffffffffffffffff021916908373ffffffffffffffffffffffffffffffffffffffff160217905550611166828888600460008881526020019081526020016000206008015489612057565b600060046000858152602001908152602001600020600801819055506111c387876004600087815260200190815260200160002060090160009054906101000a900473ffffffffffffffffffffffffffffffffffffffff16612207565b6004600084815260200190815260200160002060090160009054906101000a900473ffffffffffffffffffffffffffffffffffffffff1673ffffffffffffffffffffffffffffffffffffffff1660046000848152602001908152602001600020600801547f67a6f2fb053652dd7425e63562e24bdf462b177cd1b8dff273fe8b77916a242e8b8b8b8b60405161125c9493929190613d84565b60405180910390a38473ffffffffffffffffffffffffffffffffffffffff168173ffffffffffffffffffffffffffffffffffffffff167fea589a3cca623dcd8e51689d3b9eb0134fe2019a64e8bc9a76d281a63a95ff0789896040516112c3929190613cdf565b60405180910390a3505050505050505050565b600160029054906101000a900461ffff1681565b7fef17b1f3c5a412f9c8e887e3abd186802afec7dc657fd3b7002bf87b128dd0b161131c81611317611df0565b611df8565b61135084600160009054906101000a900461ffff168561133c9190613f48565b6113469190613e89565b61ffff16836122ae565b50505050565b600080600084815260200190815260200160002060000160008373ffffffffffffffffffffffffffffffffffffffff1673ffffffffffffffffffffffffffffffffffffffff16815260200190815260200160002060009054906101000a900460ff16905092915050565b60006004600084600160009054906101000a900461ffff16856113e39190613f48565b6113ed9190613e89565b61ffff16815260200190815260200160002060050160010154905092915050565b7fef17b1f3c5a412f9c8e887e3abd186802afec7dc657fd3b7002bf87b128dd0b16114408161143b611df0565b611df8565b600085600160009054906101000a900461ffff168661145f9190613f48565b6114699190613e89565b61ffff1690508273ffffffffffffffffffffffffffffffffffffffff166004600083815260200190815260200160002060090160009054906101000a900473ffffffffffffffffffffffffffffffffffffffff1673ffffffffffffffffffffffffffffffffffffffff1614611513576040517f08c379a000000000000000000000000000000000000000000000000000000000815260040161150a90613b6d565b60405180910390fd5b600160046000838152602001908152602001600020600801541461156c576040517f08c379a000000000000000000000000000000000000000000000000000000000815260040161156390613b4d565b60405180910390fd5b61157681856122ae565b505050505050565b600060010281565b60606000831015801561159a575060025482105b6115d9576040517f08c379a00000000000000000000000000000000000000000000000000000000081526004016115d090613b0d565b60405180910390fd5b600083836115e79190614012565b67ffffffffffffffff811115611626577f4e487b7100000000000000000000000000000000000000000000000000000000600052604160045260246000fd5b60405190808252806020026020018201604052801561165f57816020015b61164c612c8d565b8152602001906001900390816116445790505b50905060008490505b838110156117fb5760046000828152602001908152602001600020604051806101400160405290816000820160009054906101000a900461ffff1661ffff1661ffff1681526020016000820160029054906101000a900461ffff1661ffff1661ffff168152602001600182015481526020016002820154815260200160038201548152602001600482015481526020016005820160405180606001604052908160008201548152602001600182015481526020016002820154815250508152602001600882015481526020016009820160009054906101000a900473ffffffffffffffffffffffffffffffffffffffff1673ffffffffffffffffffffffffffffffffffffffff1673ffffffffffffffffffffffffffffffffffffffff1681526020016009820160149054906101000a900460ff1615151515815250508282815181106117dd577f4e487b7100000000000000000000000000000000000000000000000000000000600052603260045260246000fd5b602002602001018190525080806117f39061412f565b915050611668565b508091505092915050565b61180e612c8d565b6004600084600160009054906101000a900461ffff168561182f9190613f48565b6118399190613e89565b61ffff168152602001908152602001600020604051806101400160405290816000820160009054906101000a900461ffff1661ffff1661ffff1681526020016000820160029054906101000a900461ffff1661ffff1661ffff168152602001600182015481526020016002820154815260200160038201548152602001600482015481526020016005820160405180606001604052908160008201548152602001600182015481526020016002820154815250508152602001600882015481526020016009820160009054906101000a900473ffffffffffffffffffffffffffffffffffffffff1673ffffffffffffffffffffffffffffffffffffffff1673ffffffffffffffffffffffffffffffffffffffff1681526020016009820160149054906101000a900460ff161515151581525050905092915050565b7fef17b1f3c5a412f9c8e887e3abd186802afec7dc657fd3b7002bf87b128dd0b16119a6816119a1611df0565b611df8565b600085600160009054906101000a900461ffff16866119c59190613f48565b6119cf9190613e89565b61ffff1690506000600360008573ffffffffffffffffffffffffffffffffffffffff1673ffffffffffffffffffffffffffffffffffffffff168152602001908152602001600020541115611a2f57611a2a8187878787612057565b611a3c565b611a3b818787876123b9565b5b505050505050565b611a4d82610928565b611a5e81611a59611df0565b611df8565b611a688383611f76565b505050565b60025481565b7fef17b1f3c5a412f9c8e887e3abd186802afec7dc657fd3b7002bf87b128dd0b181565b7fef17b1f3c5a412f9c8e887e3abd186802afec7dc657fd3b7002bf87b128dd0b1611ac981611ac4611df0565b611df8565b600084600160009054906101000a900461ffff1685611ae89190613f48565b611af29190613e89565b61ffff169050600085600160009054906101000a900461ffff1686611b179190613f48565b611b219190613e89565b61ffff1690506004600082815260200190815260200160002060090160009054906101000a900473ffffffffffffffffffffffffffffffffffffffff1673ffffffffffffffffffffffffffffffffffffffff166004600084815260200190815260200160002060090160009054906101000a900473ffffffffffffffffffffffffffffffffffffffff1673ffffffffffffffffffffffffffffffffffffffff1614611c01576040517f08c379a0000000000000000000000000000000000000000000000000000000008152600401611bf890613c4d565b60405180910390fd5b600060046000848152602001908152602001600020600801541415611c5b576040517f08c379a0000000000000000000000000000000000000000000000000000000008152600401611c5290613aed565b60405180910390fd5b611c7e818787600460008781526020019081526020016000206008015488612057565b60006004600084815260200190815260200160002060080181905550611cdb86866004600086815260200190815260200160002060090160009054906101000a900473ffffffffffffffffffffffffffffffffffffffff16612207565b6004600083815260200190815260200160002060090160009054906101000a900473ffffffffffffffffffffffffffffffffffffffff1673ffffffffffffffffffffffffffffffffffffffff1660046000838152602001908152602001600020600801547f67a6f2fb053652dd7425e63562e24bdf462b177cd1b8dff273fe8b77916a242e8a8a8a8a604051611d749493929190613d84565b60405180910390a35050505050505050565b60007f01ffc9a7000000000000000000000000000000000000000000000000000000007bffffffffffffffffffffffffffffffffffffffffffffffffffffffff1916827bffffffffffffffffffffffffffffffffffffffffffffffffffffffff1916149050919050565b600033905090565b611e028282611356565b611e9257611e278173ffffffffffffffffffffffffffffffffffffffff166014612569565b611e3683600190046020612569565b604051602001611e479291906139dc565b6040516020818303038152906040526040517f08c379a0000000000000000000000000000000000000000000000000000000008152600401611e899190613aab565b60405180910390fd5b5050565b611ea08282611356565b611f7257600160008084815260200190815260200160002060000160008373ffffffffffffffffffffffffffffffffffffffff1673ffffffffffffffffffffffffffffffffffffffff16815260200190815260200160002060006101000a81548160ff021916908315150217905550611f17611df0565b73ffffffffffffffffffffffffffffffffffffffff168173ffffffffffffffffffffffffffffffffffffffff16837f2f8788117e7eff1d82e926ec794901d17c78024a50270940304540a733656f0d60405160405180910390a45b5050565b611f808282611356565b1561205357600080600084815260200190815260200160002060000160008373ffffffffffffffffffffffffffffffffffffffff1673ffffffffffffffffffffffffffffffffffffffff16815260200190815260200160002060006101000a81548160ff021916908315150217905550611ff8611df0565b73ffffffffffffffffffffffffffffffffffffffff168173ffffffffffffffffffffffffffffffffffffffff16837ff6391f5c32d9c69d2a47ea670b442974b53935d1edc7fd64eb21e047a839171b60405160405180910390a45b5050565b8073ffffffffffffffffffffffffffffffffffffffff166004600087815260200190815260200160002060090160009054906101000a900473ffffffffffffffffffffffffffffffffffffffff1673ffffffffffffffffffffffffffffffffffffffff16146120fb576040517f08c379a00000000000000000000000000000000000000000000000000000000081526004016120f290613b6d565b60405180910390fd5b6000600460008781526020019081526020016000206008015414612154576040517f08c379a000000000000000000000000000000000000000000000000000000000815260040161214b90613c2d565b60405180910390fd5b81600460008781526020019081526020016000206008018190555060016005600084815260200190815260200160002060000160006101000a81548160ff021916908315150217905550836005600084815260200190815260200160002060000160016101000a81548161ffff021916908361ffff160217905550826005600084815260200190815260200160002060000160036101000a81548161ffff021916908361ffff1602179055505050505050565b61221e6001846122179190613fde565b838361288a565b6122358360018461222f9190613fde565b8361288a565b6122586001846122459190613e89565b6001846122529190613fde565b8361288a565b61226f6001846122689190613e89565b838361288a565b61229260018461227f9190613e89565b60018461228c9190613e89565b8361288a565b6122a9836001846122a39190613e89565b8361288a565b505050565b80600460008481526020019081526020016000206008015414612306576040517f08c379a00000000000000000000000000000000000000000000000000000000081526004016122fd90613c0d565b60405180910390fd5b6000600460008481526020019081526020016000206008018190555060006005600083815260200190815260200160002060000160006101000a81548160ff02191690831515021790555060006005600083815260200190815260200160002060000160016101000a81548161ffff021916908361ffff16021790555060006005600083815260200190815260200160002060000160036101000a81548161ffff021916908361ffff1602179055505050565b600073ffffffffffffffffffffffffffffffffffffffff166004600086815260200190815260200160002060090160009054906101000a900473ffffffffffffffffffffffffffffffffffffffff1673ffffffffffffffffffffffffffffffffffffffff161461245e576040517f08c379a000000000000000000000000000000000000000000000000000000000815260040161245590613bad565b60405180910390fd5b60006004600086815260200190815260200160002060080154146124b7576040517f08c379a00000000000000000000000000000000000000000000000000000000081526004016124ae90613c2d565b60405180910390fd5b80600460008681526020019081526020016000206008018190555060016005600083815260200190815260200160002060000160006101000a81548160ff021916908315150217905550826005600083815260200190815260200160002060000160016101000a81548161ffff021916908361ffff160217905550816005600083815260200190815260200160002060000160036101000a81548161ffff021916908361ffff16021790555050505050565b60606000600283600261257c9190613f84565b6125869190613ec1565b67ffffffffffffffff8111156125c5577f4e487b7100000000000000000000000000000000000000000000000000000000600052604160045260246000fd5b6040519080825280601f01601f1916602001820160405280156125f75781602001600182028036833780820191505090505b5090507f300000000000000000000000000000000000000000000000000000000000000081600081518110612655577f4e487b7100000000000000000000000000000000000000000000000000000000600052603260045260246000fd5b60200101907effffffffffffffffffffffffffffffffffffffffffffffffffffffffffffff1916908160001a9053507f7800000000000000000000000000000000000000000000000000000000000000816001815181106126df577f4e487b7100000000000000000000000000000000000000000000000000000000600052603260045260246000fd5b60200101907effffffffffffffffffffffffffffffffffffffffffffffffffffffffffffff1916908160001a9053506000600184600261271f9190613f84565b6127299190613ec1565b90505b600181111561283c577f3031323334353637383961626364656600000000000000000000000000000000600f861660108110612791577f4e487b7100000000000000000000000000000000000000000000000000000000600052603260045260246000fd5b1a7f0100000000000000000000000000000000000000000000000000000000000000028282815181106127ed577f4e487b7100000000000000000000000000000000000000000000000000000000600052603260045260246000fd5b60200101907effffffffffffffffffffffffffffffffffffffffffffffffffffffffffffff1916908160001a905350600485908060020a820491505094508061283590614105565b905061272c565b5060008414612880576040517f08c379a000000000000000000000000000000000000000000000000000000000815260040161287790613acd565b60405180910390fd5b8091505092915050565b600083600160009054906101000a900461ffff16846128a99190613f48565b6128b39190613e89565b61ffff1690506000600a905060046002546128ce9190613f17565b811180156128f55750600360046002546128e89190613f17565b6128f29190613f84565b81105b156128ff57602890505b600260056002546129109190613f17565b61291a9190613f84565b811180156129415750600360056002546129349190613f17565b61293e9190613f84565b81105b1561294b57605090505b600081612959846064612c1e565b6129639190613ec1565b905060008261297f6001866129789190613ec1565b6064612c1e565b6129899190613ec1565b90506000836129a560028761299e9190613ec1565b6064612c1e565b6129af9190613ec1565b9050818310806129be57508083105b156129c857600092505b828210806129d557508082105b156129df57600091505b828110806129ec57508181105b156129f657600090505b600015156004600087815260200190815260200160002060090160149054906101000a900460ff1615151415612c14576040518061014001604052808961ffff1681526020018861ffff16815260200160008152602001848152602001838152602001600a83612a669190613f17565b81526020016040518060600160405280600081526020016101f48152602001428152508152602001600081526020018773ffffffffffffffffffffffffffffffffffffffff168152602001600115158152506004600087815260200190815260200160002060008201518160000160006101000a81548161ffff021916908361ffff16021790555060208201518160000160026101000a81548161ffff021916908361ffff16021790555060408201518160010155606082015181600201556080820151816003015560a0820151816004015560c082015181600501600082015181600001556020820151816001015560408201518160020155505060e082015181600801556101008201518160090160006101000a81548173ffffffffffffffffffffffffffffffffffffffff021916908373ffffffffffffffffffffffffffffffffffffffff1602179055506101208201518160090160146101000a81548160ff0219169083151502179055509050507fcfc47dcefc6f1ec1fd8ed1662ac24698fe911253fa1ce3460f7e7c83bf8d64b5888888604051612c0b93929190613d08565b60405180910390a15b5050505050505050565b600081423385604051602001612c3693929190613a16565b6040516020818303038152906040528051906020012060019004612c5a91906141a6565b905092915050565b6040518060600160405280600015158152602001600061ffff168152602001600061ffff1681525090565b604051806101400160405280600061ffff168152602001600061ffff16815260200160008152602001600081526020016000815260200160008152602001612cd3612d06565b815260200160008152602001600073ffffffffffffffffffffffffffffffffffffffff1681526020016000151581525090565b60405180606001604052806000815260200160008152602001600081525090565b600081359050612d368161425f565b92915050565b600081359050612d4b81614276565b92915050565b600081359050612d608161428d565b92915050565b600081359050612d75816142a4565b92915050565b600081359050612d8a816142bb565b92915050565b600060208284031215612da257600080fd5b6000612db084828501612d27565b91505092915050565b600060208284031215612dcb57600080fd5b6000612dd984828501612d3c565b91505092915050565b60008060408385031215612df557600080fd5b6000612e0385828601612d3c565b9250506020612e1485828601612d27565b9150509250929050565b600060208284031215612e3057600080fd5b6000612e3e84828501612d51565b91505092915050565b60008060408385031215612e5a57600080fd5b6000612e6885828601612d66565b9250506020612e7985828601612d66565b9150509250929050565b600080600060608486031215612e9857600080fd5b6000612ea686828701612d66565b9350506020612eb786828701612d66565b9250506040612ec886828701612d27565b9150509250925092565b600080600080600060a08688031215612eea57600080fd5b6000612ef888828901612d66565b9550506020612f0988828901612d66565b9450506040612f1a88828901612d66565b9350506060612f2b88828901612d66565b9250506080612f3c88828901612d27565b9150509295509295909350565b600080600060608486031215612f5e57600080fd5b6000612f6c86828701612d66565b9350506020612f7d86828701612d66565b9250506040612f8e86828701612d7b565b9150509250925092565b60008060008060808587031215612fae57600080fd5b6000612fbc87828801612d66565b9450506020612fcd87828801612d66565b9350506040612fde87828801612d7b565b9250506060612fef87828801612d27565b91505092959194509250565b60006020828403121561300d57600080fd5b600061301b84828501612d7b565b91505092915050565b6000806040838503121561303757600080fd5b600061304585828601612d7b565b925050602061305685828601612d7b565b9150509250929050565b600061306c83836137ef565b6101808301905092915050565b61308281614046565b82525050565b61309181614046565b82525050565b6130a86130a382614046565b614178565b82525050565b60006130b982613e39565b6130c38185613e5c565b93506130ce83613e29565b8060005b838110156130ff5781516130e68882613060565b97506130f183613e4f565b9250506001810190506130d2565b5085935050505092915050565b61311581614058565b82525050565b61312481614058565b82525050565b61313381614064565b82525050565b600061314482613e44565b61314e8185613e6d565b935061315e8185602086016140d2565b61316781614235565b840191505092915050565b600061317d82613e44565b6131878185613e7e565b93506131978185602086016140d2565b80840191505092915050565b60006131b0602083613e6d565b91507f537472696e67733a20686578206c656e67746820696e73756666696369656e746000830152602082019050919050565b60006131f0603283613e6d565b91507f43757272656e74207465727269746f727920646f6573206e6f7420686176652060008301527f616e79204e6f6b616920746f206d6f76652e00000000000000000000000000006020830152604082019050919050565b6000613256601583613e6d565b91507f696e76616c69642072616e6765207265717565737400000000000000000000006000830152602082019050919050565b6000613296602e83613e6d565b91507f546172676574207465727269746f7279206973207374696c6c20646566656e6460008301527f65642062792061204e6f6b61692e0000000000000000000000000000000000006020830152604082019050919050565b60006132fc602f83613e6d565b91507f537065636966696564207465727269746f7279206973206e6f74206f6363757060008301527f6965642062792061204e6f6b61692e00000000000000000000000000000000006020830152604082019050919050565b6000613362603183613e6d565b91507f596f7520617265206e6f7420746865206f776e6572206f66207468652073706560008301527f636966696564207465727269746f72792e0000000000000000000000000000006020830152604082019050919050565b60006133c8603083613e6d565b91507f596f7520617265206e6f7420746865206f776e6572206f6620746865206f726960008301527f67696e616c207465727269746f72792e000000000000000000000000000000006020830152604082019050919050565b600061342e603383613e6d565b91507f54686520737065636966696564207465727269746f7279206973206f776e656460008301527f20627920616e6f7468657220706c617965722e000000000000000000000000006020830152604082019050919050565b6000613494603783613e6d565b91507f43757272656e7420616e6420746172676574207465727269746f72696573206160008301527f72652066726f6d207468652073616d65206f776e65722e0000000000000000006020830152604082019050919050565b60006134fa603183613e6d565b91507f796f7520617265206e6f7420746865206f776e6572206f66207468652073706560008301527f636966696564207465727269746f72792e0000000000000000000000000000006020830152604082019050919050565b6000613560602e83613e6d565b91507f537065636966696564204e6f6b6169206973206e6f74206f6e2073706563696660008301527f696564207465727269746f72792e0000000000000000000000000000000000006020830152604082019050919050565b60006135c6603383613e6d565b91507f537065636966696564207465727269746f727920697320616c7265616479206f60008301527f636375706965642062792061204e6f6b61692e000000000000000000000000006020830152604082019050919050565b600061362c601783613e7e565b91507f416363657373436f6e74726f6c3a206163636f756e74200000000000000000006000830152601782019050919050565b600061366c603b83613e6d565b91507f43757272656e7420616e6420746172676574207465727269746f72696573206160008301527f7265206e6f742066726f6d207468652073616d65206f776e65722e00000000006020830152604082019050919050565b60006136d2601183613e7e565b91507f206973206d697373696e6720726f6c65200000000000000000000000000000006000830152601182019050919050565b6000613712602f83613e6d565b91507f416363657373436f6e74726f6c3a2063616e206f6e6c792072656e6f756e636560008301527f20726f6c657320666f722073656c6600000000000000000000000000000000006020830152604082019050919050565b60608201600082015161378160008501826139a7565b50602082015161379460208501826139a7565b5060408201516137a760408501826139a7565b50505050565b6060820160008201516137c3600085018261310c565b5060208201516137d66020850182613989565b5060408201516137e96040850182613989565b50505050565b610180820160008201516138066000850182613989565b5060208201516138196020850182613989565b50604082015161382c60408501826139a7565b50606082015161383f60608501826139a7565b50608082015161385260808501826139a7565b5060a082015161386560a08501826139a7565b5060c082015161387860c085018261376b565b5060e082015161388c6101208501826139a7565b506101008201516138a1610140850182613079565b506101208201516138b661016085018261310c565b50505050565b610180820160008201516138d36000850182613989565b5060208201516138e66020850182613989565b5060408201516138f960408501826139a7565b50606082015161390c60608501826139a7565b50608082015161391f60808501826139a7565b5060a082015161393260a08501826139a7565b5060c082015161394560c085018261376b565b5060e08201516139596101208501826139a7565b5061010082015161396e610140850182613079565b5061012082015161398361016085018261310c565b50505050565b6139928161409a565b82525050565b6139a18161409a565b82525050565b6139b0816140c8565b82525050565b6139bf816140c8565b82525050565b6139d66139d1826140c8565b61419c565b82525050565b60006139e78261361f565b91506139f38285613172565b91506139fe826136c5565b9150613a0a8284613172565b91508190509392505050565b6000613a2282866139c5565b602082019150613a328285613097565b601482019150613a4282846139c5565b602082019150819050949350505050565b60006020820190508181036000830152613a6d81846130ae565b905092915050565b6000602082019050613a8a600083018461311b565b92915050565b6000602082019050613aa5600083018461312a565b92915050565b60006020820190508181036000830152613ac58184613139565b905092915050565b60006020820190508181036000830152613ae6816131a3565b9050919050565b60006020820190508181036000830152613b06816131e3565b9050919050565b60006020820190508181036000830152613b2681613249565b9050919050565b60006020820190508181036000830152613b4681613289565b9050919050565b60006020820190508181036000830152613b66816132ef565b9050919050565b60006020820190508181036000830152613b8681613355565b9050919050565b60006020820190508181036000830152613ba6816133bb565b9050919050565b60006020820190508181036000830152613bc681613421565b9050919050565b60006020820190508181036000830152613be681613487565b9050919050565b60006020820190508181036000830152613c06816134ed565b9050919050565b60006020820190508181036000830152613c2681613553565b9050919050565b60006020820190508181036000830152613c46816135b9565b9050919050565b60006020820190508181036000830152613c668161365f565b9050919050565b60006020820190508181036000830152613c8681613705565b9050919050565b6000606082019050613ca260008301846137ad565b92915050565b600061018082019050613cbe60008301846138bc565b92915050565b6000602082019050613cd96000830184613998565b92915050565b6000604082019050613cf46000830185613998565b613d016020830184613998565b9392505050565b6000606082019050613d1d6000830186613998565b613d2a6020830185613998565b613d376040830184613088565b949350505050565b6000608082019050613d546000830187613998565b613d616020830186613998565b613d6e6040830185613088565b613d7b60608301846139b6565b95945050505050565b6000608082019050613d996000830187613998565b613da66020830186613998565b613db36040830185613998565b613dc06060830184613998565b95945050505050565b6000602082019050613dde60008301846139b6565b92915050565b6000608082019050613df960008301876139b6565b613e0660208301866139b6565b613e1360408301856139b6565b613e2060608301846139b6565b95945050505050565b6000819050602082019050919050565b600081519050919050565b600081519050919050565b6000602082019050919050565b600082825260208201905092915050565b600082825260208201905092915050565b600081905092915050565b6000613e948261409a565b9150613e9f8361409a565b92508261ffff03821115613eb657613eb56141d7565b5b828201905092915050565b6000613ecc826140c8565b9150613ed7836140c8565b9250827fffffffffffffffffffffffffffffffffffffffffffffffffffffffffffffffff03821115613f0c57613f0b6141d7565b5b828201905092915050565b6000613f22826140c8565b9150613f2d836140c8565b925082613f3d57613f3c614206565b5b828204905092915050565b6000613f538261409a565b9150613f5e8361409a565b92508161ffff0483118215151615613f7957613f786141d7565b5b828202905092915050565b6000613f8f826140c8565b9150613f9a836140c8565b9250817fffffffffffffffffffffffffffffffffffffffffffffffffffffffffffffffff0483118215151615613fd357613fd26141d7565b5b828202905092915050565b6000613fe98261409a565b9150613ff48361409a565b925082821015614007576140066141d7565b5b828203905092915050565b600061401d826140c8565b9150614028836140c8565b92508282101561403b5761403a6141d7565b5b828203905092915050565b6000614051826140a8565b9050919050565b60008115159050919050565b6000819050919050565b60007fffffffff0000000000000000000000000000000000000000000000000000000082169050919050565b600061ffff82169050919050565b600073ffffffffffffffffffffffffffffffffffffffff82169050919050565b6000819050919050565b60005b838110156140f05780820151818401526020810190506140d5565b838111156140ff576000848401525b50505050565b6000614110826140c8565b91506000821415614124576141236141d7565b5b600182039050919050565b600061413a826140c8565b91507fffffffffffffffffffffffffffffffffffffffffffffffffffffffffffffffff82141561416d5761416c6141d7565b5b600182019050919050565b60006141838261418a565b9050919050565b600061419582614246565b9050919050565b6000819050919050565b60006141b1826140c8565b91506141bc836140c8565b9250826141cc576141cb614206565b5b828206905092915050565b7f4e487b7100000000000000000000000000000000000000000000000000000000600052601160045260246000fd5b7f4e487b7100000000000000000000000000000000000000000000000000000000600052601260045260246000fd5b6000601f19601f8301169050919050565b60006c0100000000000000000000000082029050919050565b61426881614046565b811461427357600080fd5b50565b61427f81614064565b811461428a57600080fd5b50565b6142968161406e565b81146142a157600080fd5b50565b6142ad8161409a565b81146142b857600080fd5b50565b6142c4816140c8565b81146142cf57600080fd5b5056fea264697066735822122070719cf46134a904b89e0f09890ac7fcbe507507ea3b59dabe46d1a01a04a44c64736f6c63430008000033",
  "immutableReferences": {},
  "source": "pragma solidity ^0.8.0;\r\n\r\nimport \"@openzeppelin/contracts/access/AccessControl.sol\";\r\nimport \"../utils/RandomUtils.sol\";\r\n\r\n// SPDX-License-Identifier: MIT\r\ncontract BlackHole is AccessControl {\r\n    bytes32 public constant GAME_MANAGER_ROLE = keccak256(\"GAME_MANAGER_ROLE\");\r\n\r\n    uint16 public maxX;\r\n    uint16 public maxY;\r\n    uint256 public totalPos;\r\n\r\n    struct Extractor {\r\n        uint256 level;\r\n        uint256 cost;\r\n        uint256 lastExtract;\r\n    }\r\n\r\n    struct Territory {\r\n        uint16 x;\r\n        uint16 y;\r\n        uint256 darkEnergy;\r\n        uint256 darkMatter;\r\n        uint256 plasmaEnergy;\r\n        uint256 voidEssence;\r\n        Extractor extractor; // extract resources\r\n        uint256 nokai;\r\n        address owner;\r\n        bool discovered;\r\n    }\r\n\r\n    struct Position {\r\n        bool onBoard;\r\n        uint16 x;\r\n        uint16 y;\r\n    }\r\n\r\n    mapping(address => uint256) private userTerritoryCount;\r\n    mapping(uint256 => Territory) private blackhole;\r\n    mapping(uint256 => Position) private nokaiPosition;\r\n\r\n    constructor(uint16 _width, uint16 _height)  {\r\n        maxX = _width;\r\n        maxY = _height;\r\n        totalPos = maxX * maxY;\r\n        _setupRole(DEFAULT_ADMIN_ROLE, msg.sender);\r\n\r\n        blackhole[((maxY / 2) * maxX) + maxX / 2] = Territory({\r\n        x : maxX / 2,\r\n        y : maxY / 2,\r\n        darkEnergy : 10,\r\n        darkMatter : 100,\r\n        plasmaEnergy : 100,\r\n        voidEssence : 100,\r\n        extractor : Extractor({level : 1, cost : 1000, lastExtract : block.timestamp}),\r\n        nokai : 0,\r\n        owner : address(0),\r\n        discovered : true\r\n        });\r\n    }\r\n\r\n    function completeExtraction(uint16 x, uint16 y, address by) external onlyRole(GAME_MANAGER_ROLE) returns (uint256, uint256, uint256, uint256) {\r\n        uint256 pos = (y * maxX) + x;\r\n        require(blackhole[pos].owner == by, \"you are not the owner of the specified territory.\");\r\n        uint256 nbHours = (block.timestamp - blackhole[pos].extractor.lastExtract) / 3600;\r\n        blackhole[pos].extractor.lastExtract = block.timestamp;\r\n        uint256 _darkEnergy = blackhole[pos].darkEnergy != 0 ? blackhole[pos].darkEnergy * blackhole[pos].extractor.level * nbHours : 0;\r\n        uint256 _darkMatter = blackhole[pos].darkMatter != 0 ? blackhole[pos].darkMatter * blackhole[pos].extractor.level * nbHours : 0;\r\n        uint256 _plasmaEnergy = blackhole[pos].plasmaEnergy != 0 ? blackhole[pos].plasmaEnergy * blackhole[pos].extractor.level * nbHours : 0;\r\n        uint256 _voidEssence = blackhole[pos].voidEssence != 0 ? blackhole[pos].voidEssence * blackhole[pos].extractor.level * nbHours : 0;\r\n        emit TerritoryExtracted(x, y, by);\r\n        return (_darkEnergy, _darkMatter, _plasmaEnergy, _voidEssence);\r\n    }\r\n\r\n    function upgradeExtractor(uint16 x, uint16 y, address by) external onlyRole(GAME_MANAGER_ROLE) {\r\n        uint256 pos = (y * maxX) + x;\r\n        require(blackhole[pos].owner == by, \"you are not the owner of the specified territory.\");\r\n        blackhole[pos].extractor.level += 1;\r\n        blackhole[pos].extractor.cost *= 2;\r\n        blackhole[pos].extractor.lastExtract = block.timestamp;\r\n        emit ExtractorUpgraded(x, y, by, blackhole[pos].extractor.level);\r\n    }\r\n\r\n\r\n    function assignNokai(uint16 x, uint16 y, uint256 nokaiId, address by) external onlyRole(GAME_MANAGER_ROLE) {\r\n        uint256 pos = (y * maxX) + x;\r\n        if (userTerritoryCount[by] > 0) {\r\n            _assignNokai(pos, x, y, nokaiId, by);\r\n        } else {\r\n            _assignNokaiNewTerritory(pos, x, y, nokaiId);\r\n        }\r\n    }\r\n\r\n    function _assignNokaiNewTerritory(uint256 pos, uint16 x, uint16 y, uint256 nokaiId) private {\r\n        require(blackhole[pos].owner == address(0), \"The specified territory is owned by another player.\");\r\n        require(blackhole[pos].nokai == 0, \"Specified territory is already occupied by a Nokai.\");\r\n        blackhole[pos].nokai = nokaiId;\r\n        nokaiPosition[nokaiId].onBoard = true;\r\n        nokaiPosition[nokaiId].x = x;\r\n        nokaiPosition[nokaiId].y = y;\r\n    }\r\n\r\n    function _assignNokai(uint256 pos, uint16 x, uint16 y, uint256 nokaiId, address by) private {\r\n        require(blackhole[pos].owner == by, \"You are not the owner of the specified territory.\");\r\n        require(blackhole[pos].nokai == 0, \"Specified territory is already occupied by a Nokai.\");\r\n        blackhole[pos].nokai = nokaiId;\r\n        nokaiPosition[nokaiId].onBoard = true;\r\n        nokaiPosition[nokaiId].x = x;\r\n        nokaiPosition[nokaiId].y = y;\r\n    }\r\n\r\n    function withdrawDeadNokai(uint16 x, uint16 y, uint256 nokaiId) external onlyRole(GAME_MANAGER_ROLE) {\r\n        _withdrawNokai((y * maxX) + x, nokaiId);\r\n    }\r\n\r\n    function withdrawNokai(uint16 x, uint16 y, uint256 nokaiId, address by) external onlyRole(GAME_MANAGER_ROLE) {\r\n        uint256 pos = (y * maxX) + x;\r\n        require(blackhole[pos].owner == by, \"You are not the owner of the specified territory.\");\r\n        require(blackhole[pos].nokai == 1, \"Specified territory is not occupied by a Nokai.\");\r\n        _withdrawNokai(pos, nokaiId);\r\n    }\r\n\r\n    function _withdrawNokai(uint256 pos, uint256 nokaiId) internal {\r\n        require(blackhole[pos].nokai == nokaiId, \"Specified Nokai is not on specified territory.\");\r\n        blackhole[pos].nokai = 0;\r\n        nokaiPosition[nokaiId].onBoard = false;\r\n        nokaiPosition[nokaiId].x = 0;\r\n        nokaiPosition[nokaiId].y = 0;\r\n    }\r\n\r\n\r\n    function conquest(uint16 fromX, uint16 fromY, uint16 toX, uint16 toY, address by) external onlyRole(GAME_MANAGER_ROLE) {\r\n        uint256 from = (toY * maxX) + toX;\r\n        uint256 to = (toY * maxX) + toX;\r\n        require(blackhole[from].owner == by, \"You are not the owner of the original territory.\");\r\n        require(blackhole[from].owner != blackhole[to].owner, \"Current and target territories are from the same owner.\");\r\n        require(blackhole[to].nokai == 0, \"Target territory is still defended by a Nokai.\");\r\n        require(blackhole[from].nokai != 0, \"Current territory does not have any Nokai to move.\");\r\n\r\n        address previousOwner = blackhole[to].owner;\r\n\r\n        userTerritoryCount[previousOwner] = userTerritoryCount[previousOwner] > 0 ? userTerritoryCount[previousOwner] - 1 : 0;\r\n        userTerritoryCount[by] += 1;\r\n\r\n        blackhole[to].owner = by;\r\n        _assignNokai(to, toX, toY, blackhole[from].nokai, by);\r\n        blackhole[from].nokai = 0;\r\n\r\n        _discover(toX, toY, blackhole[from].owner);\r\n        emit NokaiMoved(fromX, fromY, toX, toY, blackhole[to].nokai, blackhole[from].owner);\r\n        emit SlotConquered(toX, toY, previousOwner, by);\r\n    }\r\n\r\n    function move(uint16 fromX, uint16 fromY, uint16 toX, uint16 toY, address by) external onlyRole(GAME_MANAGER_ROLE) {\r\n        uint256 from = (toY * maxX) + toX;\r\n        uint256 to = (toY * maxX) + toX;\r\n        require(blackhole[from].owner == blackhole[to].owner, \"Current and target territories are not from the same owner.\");\r\n        require(blackhole[from].nokai != 0, \"Current territory does not have any Nokai to move.\");\r\n\r\n        _assignNokai(to, toX, toY, blackhole[from].nokai, by);\r\n        blackhole[from].nokai = 0;\r\n\r\n        _discover(toX, toY, blackhole[from].owner);\r\n        emit NokaiMoved(fromX, fromY, toX, toY, blackhole[to].nokai, blackhole[from].owner);\r\n    }\r\n\r\n    function _discover(uint16 x, uint16 y, address by) private {\r\n        _discoverSlot(x - 1, y, by);\r\n        _discoverSlot(x, y - 1, by);\r\n        _discoverSlot(x + 1, y - 1, by);\r\n        _discoverSlot(x + 1, y, by);\r\n        _discoverSlot(x + 1, y + 1, by);\r\n        _discoverSlot(x, y + 1, by);\r\n    }\r\n\r\n    function _discoverSlot(uint16 x, uint16 y, address by) private {\r\n        uint256 pos = (y * maxX) + x;\r\n        uint256 wealth = 10;\r\n        if (wealth > totalPos / 4 && wealth < (totalPos / 4) * 3) {\r\n            wealth = 40;\r\n        }\r\n        if (wealth > ((totalPos / 5) * 2) && wealth < (totalPos / 5) * 3) {\r\n            wealth = 80;\r\n        }\r\n        uint256 darkMatter = RandomUtils._rand(pos, 100) + wealth;\r\n        uint256 plasmaEnergy = RandomUtils._rand(pos + 1, 100) + wealth;\r\n        uint256 voidEssence = RandomUtils._rand(pos + 2, 100) + wealth;\r\n        if (darkMatter < plasmaEnergy || darkMatter < voidEssence) {\r\n            darkMatter = 0;\r\n        }\r\n        if (plasmaEnergy < darkMatter || plasmaEnergy < voidEssence) {\r\n            plasmaEnergy = 0;\r\n        }\r\n        if (voidEssence < darkMatter || voidEssence < plasmaEnergy) {\r\n            voidEssence = 0;\r\n        }\r\n        if (blackhole[pos].discovered == false) {\r\n            blackhole[pos] = Territory({\r\n            x : x,\r\n            y : y,\r\n            darkEnergy : 0,\r\n            darkMatter : darkMatter,\r\n            plasmaEnergy : plasmaEnergy,\r\n            voidEssence : voidEssence / 10,\r\n            nokai : 0,\r\n            extractor : Extractor({level : 0, cost : 500, lastExtract : block.timestamp}),\r\n            owner : by,\r\n            discovered : true\r\n            });\r\n            emit SlotDiscovered(x, y, by);\r\n        }\r\n    }\r\n\r\n    function nokaiAt(uint16 x, uint16 y) external view returns (uint256) {\r\n        return blackhole[(y * maxX) + x].nokai;\r\n    }\r\n\r\n    function nokaiPos(uint256 nokaiId) external view returns (Position memory) {\r\n        return nokaiPosition[nokaiId];\r\n    }\r\n\r\n    function territoryCount(address user) external view returns (uint256) {\r\n        return userTerritoryCount[user];\r\n    }\r\n\r\n    function extractorCostAt(uint16 x, uint16 y) external view returns (uint256) {\r\n        return blackhole[(y * maxX) + x].extractor.cost;\r\n    }\r\n\r\n    function get(uint16 x, uint16 y) external view returns (Territory memory) {\r\n        return blackhole[(y * maxX) + x];\r\n    }\r\n\r\n    function getBlackHole(uint256 from, uint256 to) external view returns (Territory[] memory) {\r\n        require(from >= 0 && to < totalPos, \"invalid range request\");\r\n        Territory[] memory _blackhole = new Territory[](to - from);\r\n        for (uint256 i = from; i < to; i++) {\r\n            _blackhole[i] = blackhole[i];\r\n        }\r\n        return _blackhole;\r\n    }\r\n\r\n    event SlotDiscovered(uint16 x, uint16 y, address by);\r\n    event SlotConquered(uint16 x, uint16 y, address indexed previousOwner, address indexed newOwner);\r\n    event NokaiMoved(uint16 fromX, uint16 fromY, uint16 toX, uint16 toY, uint256 indexed nokai, address indexed owner);\r\n    event TerritoryExtracted(uint16 x, uint16 y, address by);\r\n    event ExtractorUpgraded(uint16 x, uint16 y, address by, uint256 level);\r\n}",
  "sourcePath": "C:\\Users\\KevinGeorgesAndres\\Documents\\projects\\perso\\blackhole-evm\\contracts\\game\\BlackHole.sol",
  "compiler": {
    "name": "solc",
    "version": "0.8.0+commit.c7dfd78e.Emscripten.clang"
  },
  "schemaVersion": "3.4.3",
  "updatedAt": "2021-12-08T07:46:19.773Z",
  "networkType": "ethereum",
  "devdoc": {
    "kind": "dev",
    "methods": {
      "getRoleAdmin(bytes32)": {
        "details": "Returns the admin role that controls `role`. See {grantRole} and {revokeRole}. To change a role's admin, use {_setRoleAdmin}."
      },
      "grantRole(bytes32,address)": {
        "details": "Grants `role` to `account`. If `account` had not been already granted `role`, emits a {RoleGranted} event. Requirements: - the caller must have ``role``'s admin role."
      },
      "hasRole(bytes32,address)": {
        "details": "Returns `true` if `account` has been granted `role`."
      },
      "renounceRole(bytes32,address)": {
        "details": "Revokes `role` from the calling account. Roles are often managed via {grantRole} and {revokeRole}: this function's purpose is to provide a mechanism for accounts to lose their privileges if they are compromised (such as when a trusted device is misplaced). If the calling account had been revoked `role`, emits a {RoleRevoked} event. Requirements: - the caller must be `account`."
      },
      "revokeRole(bytes32,address)": {
        "details": "Revokes `role` from `account`. If `account` had been granted `role`, emits a {RoleRevoked} event. Requirements: - the caller must have ``role``'s admin role."
      },
      "supportsInterface(bytes4)": {
        "details": "See {IERC165-supportsInterface}."
      }
    },
    "version": 1
  },
  "userdoc": {
    "kind": "user",
    "methods": {},
    "version": 1
  }
}