{
  "contractName": "BlackHole",
  "abi": [
    {
      "inputs": [
        {
          "internalType": "string",
          "name": "_name",
          "type": "string"
        },
        {
          "internalType": "uint16",
          "name": "_width",
          "type": "uint16"
        },
        {
          "internalType": "uint16",
          "name": "_height",
          "type": "uint16"
        }
      ],
      "stateMutability": "nonpayable",
      "type": "constructor"
    },
    {
      "anonymous": false,
      "inputs": [
        {
          "indexed": false,
          "internalType": "uint16",
          "name": "x",
          "type": "uint16"
        },
        {
          "indexed": false,
          "internalType": "uint16",
          "name": "y",
          "type": "uint16"
        },
        {
          "indexed": false,
          "internalType": "address",
          "name": "by",
          "type": "address"
        },
        {
          "indexed": false,
          "internalType": "uint256",
          "name": "level",
          "type": "uint256"
        }
      ],
      "name": "ExtractorUpgraded",
      "type": "event"
    },
    {
      "anonymous": false,
      "inputs": [
        {
          "indexed": false,
          "internalType": "uint16",
          "name": "fromX",
          "type": "uint16"
        },
        {
          "indexed": false,
          "internalType": "uint16",
          "name": "fromY",
          "type": "uint16"
        },
        {
          "indexed": false,
          "internalType": "uint16",
          "name": "toX",
          "type": "uint16"
        },
        {
          "indexed": false,
          "internalType": "uint16",
          "name": "toY",
          "type": "uint16"
        },
        {
          "indexed": true,
          "internalType": "uint256",
          "name": "nokai",
          "type": "uint256"
        },
        {
          "indexed": true,
          "internalType": "address",
          "name": "owner",
          "type": "address"
        }
      ],
      "name": "NokaiMoved",
      "type": "event"
    },
    {
      "anonymous": false,
      "inputs": [
        {
          "indexed": true,
          "internalType": "bytes32",
          "name": "role",
          "type": "bytes32"
        },
        {
          "indexed": true,
          "internalType": "bytes32",
          "name": "previousAdminRole",
          "type": "bytes32"
        },
        {
          "indexed": true,
          "internalType": "bytes32",
          "name": "newAdminRole",
          "type": "bytes32"
        }
      ],
      "name": "RoleAdminChanged",
      "type": "event"
    },
    {
      "anonymous": false,
      "inputs": [
        {
          "indexed": true,
          "internalType": "bytes32",
          "name": "role",
          "type": "bytes32"
        },
        {
          "indexed": true,
          "internalType": "address",
          "name": "account",
          "type": "address"
        },
        {
          "indexed": true,
          "internalType": "address",
          "name": "sender",
          "type": "address"
        }
      ],
      "name": "RoleGranted",
      "type": "event"
    },
    {
      "anonymous": false,
      "inputs": [
        {
          "indexed": true,
          "internalType": "bytes32",
          "name": "role",
          "type": "bytes32"
        },
        {
          "indexed": true,
          "internalType": "address",
          "name": "account",
          "type": "address"
        },
        {
          "indexed": true,
          "internalType": "address",
          "name": "sender",
          "type": "address"
        }
      ],
      "name": "RoleRevoked",
      "type": "event"
    },
    {
      "anonymous": false,
      "inputs": [
        {
          "indexed": false,
          "internalType": "uint16",
          "name": "x",
          "type": "uint16"
        },
        {
          "indexed": false,
          "internalType": "uint16",
          "name": "y",
          "type": "uint16"
        },
        {
          "indexed": true,
          "internalType": "address",
          "name": "previousOwner",
          "type": "address"
        },
        {
          "indexed": true,
          "internalType": "address",
          "name": "newOwner",
          "type": "address"
        }
      ],
      "name": "SlotConquered",
      "type": "event"
    },
    {
      "anonymous": false,
      "inputs": [
        {
          "indexed": false,
          "internalType": "uint16",
          "name": "x",
          "type": "uint16"
        },
        {
          "indexed": false,
          "internalType": "uint16",
          "name": "y",
          "type": "uint16"
        },
        {
          "indexed": false,
          "internalType": "address",
          "name": "by",
          "type": "address"
        }
      ],
      "name": "SlotDiscovered",
      "type": "event"
    },
    {
      "anonymous": false,
      "inputs": [
        {
          "indexed": false,
          "internalType": "uint16",
          "name": "x",
          "type": "uint16"
        },
        {
          "indexed": false,
          "internalType": "uint16",
          "name": "y",
          "type": "uint16"
        },
        {
          "indexed": false,
          "internalType": "address",
          "name": "by",
          "type": "address"
        }
      ],
      "name": "TerritoryExtracted",
      "type": "event"
    },
    {
      "inputs": [],
      "name": "DEFAULT_ADMIN_ROLE",
      "outputs": [
        {
          "internalType": "bytes32",
          "name": "",
          "type": "bytes32"
        }
      ],
      "stateMutability": "view",
      "type": "function",
      "constant": true
    },
    {
      "inputs": [],
      "name": "GAME_MANAGER_ROLE",
      "outputs": [
        {
          "internalType": "bytes32",
          "name": "",
          "type": "bytes32"
        }
      ],
      "stateMutability": "view",
      "type": "function",
      "constant": true
    },
    {
      "inputs": [
        {
          "internalType": "bytes32",
          "name": "role",
          "type": "bytes32"
        }
      ],
      "name": "getRoleAdmin",
      "outputs": [
        {
          "internalType": "bytes32",
          "name": "",
          "type": "bytes32"
        }
      ],
      "stateMutability": "view",
      "type": "function",
      "constant": true
    },
    {
      "inputs": [
        {
          "internalType": "bytes32",
          "name": "role",
          "type": "bytes32"
        },
        {
          "internalType": "address",
          "name": "account",
          "type": "address"
        }
      ],
      "name": "grantRole",
      "outputs": [],
      "stateMutability": "nonpayable",
      "type": "function"
    },
    {
      "inputs": [
        {
          "internalType": "bytes32",
          "name": "role",
          "type": "bytes32"
        },
        {
          "internalType": "address",
          "name": "account",
          "type": "address"
        }
      ],
      "name": "hasRole",
      "outputs": [
        {
          "internalType": "bool",
          "name": "",
          "type": "bool"
        }
      ],
      "stateMutability": "view",
      "type": "function",
      "constant": true
    },
    {
      "inputs": [],
      "name": "maxX",
      "outputs": [
        {
          "internalType": "uint16",
          "name": "",
          "type": "uint16"
        }
      ],
      "stateMutability": "view",
      "type": "function",
      "constant": true
    },
    {
      "inputs": [],
      "name": "maxY",
      "outputs": [
        {
          "internalType": "uint16",
          "name": "",
          "type": "uint16"
        }
      ],
      "stateMutability": "view",
      "type": "function",
      "constant": true
    },
    {
      "inputs": [],
      "name": "name",
      "outputs": [
        {
          "internalType": "string",
          "name": "",
          "type": "string"
        }
      ],
      "stateMutability": "view",
      "type": "function",
      "constant": true
    },
    {
      "inputs": [
        {
          "internalType": "bytes32",
          "name": "role",
          "type": "bytes32"
        },
        {
          "internalType": "address",
          "name": "account",
          "type": "address"
        }
      ],
      "name": "renounceRole",
      "outputs": [],
      "stateMutability": "nonpayable",
      "type": "function"
    },
    {
      "inputs": [
        {
          "internalType": "bytes32",
          "name": "role",
          "type": "bytes32"
        },
        {
          "internalType": "address",
          "name": "account",
          "type": "address"
        }
      ],
      "name": "revokeRole",
      "outputs": [],
      "stateMutability": "nonpayable",
      "type": "function"
    },
    {
      "inputs": [
        {
          "internalType": "bytes4",
          "name": "interfaceId",
          "type": "bytes4"
        }
      ],
      "name": "supportsInterface",
      "outputs": [
        {
          "internalType": "bool",
          "name": "",
          "type": "bool"
        }
      ],
      "stateMutability": "view",
      "type": "function",
      "constant": true
    },
    {
      "inputs": [],
      "name": "totalPos",
      "outputs": [
        {
          "internalType": "uint256",
          "name": "",
          "type": "uint256"
        }
      ],
      "stateMutability": "view",
      "type": "function",
      "constant": true
    },
    {
      "inputs": [
        {
          "internalType": "uint16",
          "name": "x",
          "type": "uint16"
        },
        {
          "internalType": "uint16",
          "name": "y",
          "type": "uint16"
        },
        {
          "internalType": "address",
          "name": "by",
          "type": "address"
        }
      ],
      "name": "completeExtraction",
      "outputs": [
        {
          "internalType": "uint256",
          "name": "",
          "type": "uint256"
        },
        {
          "internalType": "uint256",
          "name": "",
          "type": "uint256"
        },
        {
          "internalType": "uint256",
          "name": "",
          "type": "uint256"
        },
        {
          "internalType": "uint256",
          "name": "",
          "type": "uint256"
        }
      ],
      "stateMutability": "nonpayable",
      "type": "function"
    },
    {
      "inputs": [
        {
          "internalType": "uint16",
          "name": "x",
          "type": "uint16"
        },
        {
          "internalType": "uint16",
          "name": "y",
          "type": "uint16"
        },
        {
          "internalType": "address",
          "name": "by",
          "type": "address"
        }
      ],
      "name": "upgradeExtractor",
      "outputs": [],
      "stateMutability": "nonpayable",
      "type": "function"
    },
    {
      "inputs": [
        {
          "internalType": "uint16",
          "name": "x",
          "type": "uint16"
        },
        {
          "internalType": "uint16",
          "name": "y",
          "type": "uint16"
        },
        {
          "internalType": "uint256",
          "name": "nokaiId",
          "type": "uint256"
        },
        {
          "internalType": "address",
          "name": "by",
          "type": "address"
        }
      ],
      "name": "assignNokai",
      "outputs": [],
      "stateMutability": "nonpayable",
      "type": "function"
    },
    {
      "inputs": [
        {
          "internalType": "uint16",
          "name": "x",
          "type": "uint16"
        },
        {
          "internalType": "uint16",
          "name": "y",
          "type": "uint16"
        },
        {
          "internalType": "uint256",
          "name": "nokaiId",
          "type": "uint256"
        }
      ],
      "name": "withdrawDeadNokai",
      "outputs": [],
      "stateMutability": "nonpayable",
      "type": "function"
    },
    {
      "inputs": [
        {
          "internalType": "uint16",
          "name": "x",
          "type": "uint16"
        },
        {
          "internalType": "uint16",
          "name": "y",
          "type": "uint16"
        },
        {
          "internalType": "uint256",
          "name": "nokaiId",
          "type": "uint256"
        },
        {
          "internalType": "address",
          "name": "by",
          "type": "address"
        }
      ],
      "name": "withdrawNokai",
      "outputs": [],
      "stateMutability": "nonpayable",
      "type": "function"
    },
    {
      "inputs": [
        {
          "internalType": "uint16",
          "name": "fromX",
          "type": "uint16"
        },
        {
          "internalType": "uint16",
          "name": "fromY",
          "type": "uint16"
        },
        {
          "internalType": "uint16",
          "name": "toX",
          "type": "uint16"
        },
        {
          "internalType": "uint16",
          "name": "toY",
          "type": "uint16"
        },
        {
          "internalType": "address",
          "name": "by",
          "type": "address"
        }
      ],
      "name": "conquest",
      "outputs": [],
      "stateMutability": "nonpayable",
      "type": "function"
    },
    {
      "inputs": [
        {
          "internalType": "uint16",
          "name": "fromX",
          "type": "uint16"
        },
        {
          "internalType": "uint16",
          "name": "fromY",
          "type": "uint16"
        },
        {
          "internalType": "uint16",
          "name": "toX",
          "type": "uint16"
        },
        {
          "internalType": "uint16",
          "name": "toY",
          "type": "uint16"
        },
        {
          "internalType": "address",
          "name": "by",
          "type": "address"
        }
      ],
      "name": "move",
      "outputs": [],
      "stateMutability": "nonpayable",
      "type": "function"
    },
    {
      "inputs": [
        {
          "internalType": "uint16",
          "name": "x",
          "type": "uint16"
        },
        {
          "internalType": "uint16",
          "name": "y",
          "type": "uint16"
        }
      ],
      "name": "nokaiAt",
      "outputs": [
        {
          "internalType": "uint256",
          "name": "",
          "type": "uint256"
        }
      ],
      "stateMutability": "view",
      "type": "function",
      "constant": true
    },
    {
      "inputs": [
        {
          "internalType": "uint256",
          "name": "nokaiId",
          "type": "uint256"
        }
      ],
      "name": "nokaiPos",
      "outputs": [
        {
          "components": [
            {
              "internalType": "bool",
              "name": "onBoard",
              "type": "bool"
            },
            {
              "internalType": "uint16",
              "name": "x",
              "type": "uint16"
            },
            {
              "internalType": "uint16",
              "name": "y",
              "type": "uint16"
            }
          ],
          "internalType": "struct BlackHole.Position",
          "name": "",
          "type": "tuple"
        }
      ],
      "stateMutability": "view",
      "type": "function",
      "constant": true
    },
    {
      "inputs": [
        {
          "internalType": "address",
          "name": "user",
          "type": "address"
        }
      ],
      "name": "territoryCount",
      "outputs": [
        {
          "internalType": "uint256",
          "name": "",
          "type": "uint256"
        }
      ],
      "stateMutability": "view",
      "type": "function",
      "constant": true
    },
    {
      "inputs": [
        {
          "internalType": "uint16",
          "name": "x",
          "type": "uint16"
        },
        {
          "internalType": "uint16",
          "name": "y",
          "type": "uint16"
        }
      ],
      "name": "extractorCostAt",
      "outputs": [
        {
          "internalType": "uint256",
          "name": "",
          "type": "uint256"
        }
      ],
      "stateMutability": "view",
      "type": "function",
      "constant": true
    },
    {
      "inputs": [
        {
          "internalType": "uint16",
          "name": "x",
          "type": "uint16"
        },
        {
          "internalType": "uint16",
          "name": "y",
          "type": "uint16"
        }
      ],
      "name": "get",
      "outputs": [
        {
          "components": [
            {
              "internalType": "uint16",
              "name": "x",
              "type": "uint16"
            },
            {
              "internalType": "uint16",
              "name": "y",
              "type": "uint16"
            },
            {
              "internalType": "uint256",
              "name": "darkEnergy",
              "type": "uint256"
            },
            {
              "internalType": "uint256",
              "name": "darkMatter",
              "type": "uint256"
            },
            {
              "internalType": "uint256",
              "name": "plasmaEnergy",
              "type": "uint256"
            },
            {
              "internalType": "uint256",
              "name": "voidEssence",
              "type": "uint256"
            },
            {
              "components": [
                {
                  "internalType": "uint256",
                  "name": "level",
                  "type": "uint256"
                },
                {
                  "internalType": "uint256",
                  "name": "cost",
                  "type": "uint256"
                },
                {
                  "internalType": "uint256",
                  "name": "lastExtract",
                  "type": "uint256"
                }
              ],
              "internalType": "struct BlackHole.Extractor",
              "name": "extractor",
              "type": "tuple"
            },
            {
              "internalType": "uint256",
              "name": "nokai",
              "type": "uint256"
            },
            {
              "internalType": "address",
              "name": "owner",
              "type": "address"
            },
            {
              "internalType": "bool",
              "name": "discovered",
              "type": "bool"
            }
          ],
          "internalType": "struct BlackHole.Territory",
          "name": "",
          "type": "tuple"
        }
      ],
      "stateMutability": "view",
      "type": "function",
      "constant": true
    },
    {
      "inputs": [
        {
          "internalType": "uint256",
          "name": "from",
          "type": "uint256"
        },
        {
          "internalType": "uint256",
          "name": "to",
          "type": "uint256"
        }
      ],
      "name": "getForRange",
      "outputs": [
        {
          "components": [
            {
              "internalType": "uint16",
              "name": "x",
              "type": "uint16"
            },
            {
              "internalType": "uint16",
              "name": "y",
              "type": "uint16"
            },
            {
              "internalType": "uint256",
              "name": "darkEnergy",
              "type": "uint256"
            },
            {
              "internalType": "uint256",
              "name": "darkMatter",
              "type": "uint256"
            },
            {
              "internalType": "uint256",
              "name": "plasmaEnergy",
              "type": "uint256"
            },
            {
              "internalType": "uint256",
              "name": "voidEssence",
              "type": "uint256"
            },
            {
              "components": [
                {
                  "internalType": "uint256",
                  "name": "level",
                  "type": "uint256"
                },
                {
                  "internalType": "uint256",
                  "name": "cost",
                  "type": "uint256"
                },
                {
                  "internalType": "uint256",
                  "name": "lastExtract",
                  "type": "uint256"
                }
              ],
              "internalType": "struct BlackHole.Extractor",
              "name": "extractor",
              "type": "tuple"
            },
            {
              "internalType": "uint256",
              "name": "nokai",
              "type": "uint256"
            },
            {
              "internalType": "address",
              "name": "owner",
              "type": "address"
            },
            {
              "internalType": "bool",
              "name": "discovered",
              "type": "bool"
            }
          ],
          "internalType": "struct BlackHole.Territory[]",
          "name": "",
          "type": "tuple[]"
        }
      ],
      "stateMutability": "view",
      "type": "function",
      "constant": true
    },
    {
      "inputs": [
        {
          "internalType": "uint256[]",
          "name": "choices",
          "type": "uint256[]"
        }
      ],
      "name": "getFor",
      "outputs": [
        {
          "components": [
            {
              "internalType": "uint16",
              "name": "x",
              "type": "uint16"
            },
            {
              "internalType": "uint16",
              "name": "y",
              "type": "uint16"
            },
            {
              "internalType": "uint256",
              "name": "darkEnergy",
              "type": "uint256"
            },
            {
              "internalType": "uint256",
              "name": "darkMatter",
              "type": "uint256"
            },
            {
              "internalType": "uint256",
              "name": "plasmaEnergy",
              "type": "uint256"
            },
            {
              "internalType": "uint256",
              "name": "voidEssence",
              "type": "uint256"
            },
            {
              "components": [
                {
                  "internalType": "uint256",
                  "name": "level",
                  "type": "uint256"
                },
                {
                  "internalType": "uint256",
                  "name": "cost",
                  "type": "uint256"
                },
                {
                  "internalType": "uint256",
                  "name": "lastExtract",
                  "type": "uint256"
                }
              ],
              "internalType": "struct BlackHole.Extractor",
              "name": "extractor",
              "type": "tuple"
            },
            {
              "internalType": "uint256",
              "name": "nokai",
              "type": "uint256"
            },
            {
              "internalType": "address",
              "name": "owner",
              "type": "address"
            },
            {
              "internalType": "bool",
              "name": "discovered",
              "type": "bool"
            }
          ],
          "internalType": "struct BlackHole.Territory[]",
          "name": "",
          "type": "tuple[]"
        }
      ],
      "stateMutability": "view",
      "type": "function",
      "constant": true
    },
    {
      "inputs": [
        {
          "internalType": "uint256",
          "name": "startPos",
          "type": "uint256"
        },
        {
          "internalType": "uint256",
          "name": "endPos",
          "type": "uint256"
        },
        {
          "internalType": "uint256",
          "name": "startLine",
          "type": "uint256"
        },
        {
          "internalType": "uint256",
          "name": "endLine",
          "type": "uint256"
        }
      ],
      "name": "getForBox",
      "outputs": [
        {
          "components": [
            {
              "internalType": "uint16",
              "name": "x",
              "type": "uint16"
            },
            {
              "internalType": "uint16",
              "name": "y",
              "type": "uint16"
            },
            {
              "internalType": "uint256",
              "name": "darkEnergy",
              "type": "uint256"
            },
            {
              "internalType": "uint256",
              "name": "darkMatter",
              "type": "uint256"
            },
            {
              "internalType": "uint256",
              "name": "plasmaEnergy",
              "type": "uint256"
            },
            {
              "internalType": "uint256",
              "name": "voidEssence",
              "type": "uint256"
            },
            {
              "components": [
                {
                  "internalType": "uint256",
                  "name": "level",
                  "type": "uint256"
                },
                {
                  "internalType": "uint256",
                  "name": "cost",
                  "type": "uint256"
                },
                {
                  "internalType": "uint256",
                  "name": "lastExtract",
                  "type": "uint256"
                }
              ],
              "internalType": "struct BlackHole.Extractor",
              "name": "extractor",
              "type": "tuple"
            },
            {
              "internalType": "uint256",
              "name": "nokai",
              "type": "uint256"
            },
            {
              "internalType": "address",
              "name": "owner",
              "type": "address"
            },
            {
              "internalType": "bool",
              "name": "discovered",
              "type": "bool"
            }
          ],
          "internalType": "struct BlackHole.Territory[]",
          "name": "",
          "type": "tuple[]"
        }
      ],
      "stateMutability": "view",
      "type": "function",
      "constant": true
    },
    {
      "inputs": [
        {
          "internalType": "uint256",
          "name": "startPos",
          "type": "uint256"
        },
        {
          "internalType": "uint256",
          "name": "endPos",
          "type": "uint256"
        },
        {
          "internalType": "uint256",
          "name": "startLine",
          "type": "uint256"
        },
        {
          "internalType": "uint256",
          "name": "endLine",
          "type": "uint256"
        }
      ],
      "name": "getAvailableForBox",
      "outputs": [
        {
          "internalType": "uint256[]",
          "name": "",
          "type": "uint256[]"
        }
      ],
      "stateMutability": "view",
      "type": "function",
      "constant": true
    }
  ],
  "bytecode": "0x60806040523480156200001157600080fd5b506040516200588738038062005887833981810160405281019062000037919062000600565b82600190805190602001906200004f929190620004c7565b5081600260006101000a81548161ffff021916908361ffff160217905550806002806101000a81548161ffff021916908361ffff16021790555060028054906101000a900461ffff16600260009054906101000a900461ffff16620000b591906200074d565b61ffff16600381905550620000de60006001023362000333640100000000026401000000009004565b60405180610140016040528060028060009054906101000a900461ffff1662000108919062000715565b61ffff16815260200160028060029054906101000a900461ffff166200012f919062000715565b61ffff168152602001600a81526020016064815260200160648152602001606481526020016040518060600160405280600181526020016103e8815260200142815250815260200160008152602001600073ffffffffffffffffffffffffffffffffffffffff168152602001600115158152506005600060028060009054906101000a900461ffff16620001c4919062000715565b600260009054906101000a900461ffff1660028060029054906101000a900461ffff16620001f3919062000715565b620001ff91906200074d565b6200020b9190620006d6565b61ffff16815260200190815260200160002060008201518160000160006101000a81548161ffff021916908361ffff16021790555060208201518160000160026101000a81548161ffff021916908361ffff16021790555060408201518160010155606082015181600201556080820151816003015560a0820151816004015560c082015181600501600082015181600001556020820151816001015560408201518160020155505060e082015181600801556101008201518160090160006101000a81548173ffffffffffffffffffffffffffffffffffffffff021916908373ffffffffffffffffffffffffffffffffffffffff1602179055506101208201518160090160146101000a81548160ff021916908315150217905550905050505050620008e0565b6200034e828262000352640100000000026401000000009004565b5050565b6200036d828262000455640100000000026401000000009004565b6200045157600160008084815260200190815260200160002060000160008373ffffffffffffffffffffffffffffffffffffffff1673ffffffffffffffffffffffffffffffffffffffff16815260200190815260200160002060006101000a81548160ff021916908315150217905550620003f6620004bf640100000000026401000000009004565b73ffffffffffffffffffffffffffffffffffffffff168173ffffffffffffffffffffffffffffffffffffffff16837f2f8788117e7eff1d82e926ec794901d17c78024a50270940304540a733656f0d60405160405180910390a45b5050565b600080600084815260200190815260200160002060000160008373ffffffffffffffffffffffffffffffffffffffff1673ffffffffffffffffffffffffffffffffffffffff16815260200190815260200160002060009054906101000a900460ff16905092915050565b600033905090565b828054620004d590620007d4565b90600052602060002090601f016020900481019282620004f9576000855562000545565b82601f106200051457805160ff191683800117855562000545565b8280016001018555821562000545579182015b828111156200054457825182559160200191906001019062000527565b5b50905062000554919062000558565b5090565b5b808211156200057357600081600090555060010162000559565b5090565b60006200058e6200058884620006a3565b6200066f565b905082815260208101848484011115620005a757600080fd5b620005b48482856200079e565b509392505050565b600082601f830112620005ce57600080fd5b8151620005e084826020860162000577565b91505092915050565b600081519050620005fa81620008c6565b92915050565b6000806000606084860312156200061657600080fd5b600084015167ffffffffffffffff8111156200063157600080fd5b6200063f86828701620005bc565b93505060206200065286828701620005e9565b92505060406200066586828701620005e9565b9150509250925092565b6000604051905081810181811067ffffffffffffffff8211171562000699576200069862000897565b5b8060405250919050565b600067ffffffffffffffff821115620006c157620006c062000897565b5b601f19601f8301169050602081019050919050565b6000620006e38262000790565b9150620006f08362000790565b92508261ffff038211156200070a57620007096200080a565b5b828201905092915050565b6000620007228262000790565b91506200072f8362000790565b92508262000742576200074162000839565b5b828204905092915050565b60006200075a8262000790565b9150620007678362000790565b92508161ffff04831182151516156200078557620007846200080a565b5b828202905092915050565b600061ffff82169050919050565b60005b83811015620007be578082015181840152602081019050620007a1565b83811115620007ce576000848401525b50505050565b60006002820490506001821680620007ed57607f821691505b6020821081141562000804576200080362000868565b5b50919050565b7f4e487b7100000000000000000000000000000000000000000000000000000000600052601160045260246000fd5b7f4e487b7100000000000000000000000000000000000000000000000000000000600052601260045260246000fd5b7f4e487b7100000000000000000000000000000000000000000000000000000000600052602260045260246000fd5b7f4e487b7100000000000000000000000000000000000000000000000000000000600052604160045260246000fd5b620008d18162000790565b8114620008dd57600080fd5b50565b614f9780620008f06000396000f3fe608060405234801561001057600080fd5b50600436106101e1576000357c0100000000000000000000000000000000000000000000000000000000900480638b04f64711610116578063cad86e51116100b4578063e86a59c41161008e578063e86a59c414610581578063fba785de1461059f578063ff6fcdbd146105cf578063ff7ae6ee146105ed576101e1565b8063cad86e5114610519578063d547741f14610535578063d9bedad414610551576101e1565b806394951550116100f0578063949515501461047f5780639bd0f28b146104af578063a217fddf146104cb578063b24baccb146104e9576101e1565b80638b04f647146104155780638e817b411461043357806391d148541461044f576101e1565b806336568abe1161018357806367ed36971161015d57806367ed36971461037b578063684fad90146103ab57806370d20d3e146103db57806385fc6940146103f9576101e1565b806336568abe146103135780633df40bd31461032f5780634be4f4861461035f576101e1565b806308be8abb116101bf57806308be8abb146102645780630f2fb69d14610297578063248a9ca3146102c75780632f2ff15d146102f7576101e1565b806301ffc9a7146101e6578063021c98c31461021657806306fdde0314610246575b600080fd5b61020060048036038101906101fb91906138b8565b610609565b60405161020d919061464a565b60405180910390f35b610230600480360381019061022b9190613afa565b610683565b60405161023d9190614628565b60405180910390f35b61024e610920565b60405161025b9190614680565b60405180910390f35b61027e6004803603810190610279919061391d565b6109ae565b60405161028e94939291906149d9565b60405180910390f35b6102b160048036038101906102ac91906137e5565b610d24565b6040516102be91906149be565b60405180910390f35b6102e160048036038101906102dc9190613853565b610d6d565b6040516102ee9190614665565b60405180910390f35b610311600480360381019061030c919061387c565b610d8c565b005b61032d6004803603810190610328919061387c565b610db5565b005b61034960048036038101906103449190613abe565b610e38565b6040516103569190614606565b60405180910390f35b6103796004803603810190610374919061391d565b6110b8565b005b61039560048036038101906103909190613a95565b61129a565b6040516103a29190614882565b60405180910390f35b6103c560048036038101906103c091906138e1565b611322565b6040516103d291906149be565b60405180910390f35b6103e361136d565b6040516103f091906148b9565b60405180910390f35b610413600480360381019061040e919061396c565b611381565b005b61041d61199b565b60405161042a91906148b9565b60405180910390f35b61044d600480360381019061044891906139e3565b6119ad565b005b6104696004803603810190610464919061387c565b611a19565b604051610476919061464a565b60405180910390f35b610499600480360381019061049491906138e1565b611a83565b6040516104a691906149be565b60405180910390f35b6104c960048036038101906104c49190613a32565b611ad1565b005b6104d3611c41565b6040516104e09190614665565b60405180910390f35b61050360048036038101906104fe91906138e1565b611c49565b604051610510919061489d565b60405180910390f35b610533600480360381019061052e9190613a32565b611db7565b005b61054f600480360381019061054a919061387c565b611e87565b005b61056b60048036038101906105669190613afa565b611eb0565b6040516105789190614606565b60405180910390f35b6105896121f4565b60405161059691906149be565b60405180910390f35b6105b960048036038101906105b4919061380e565b6121fa565b6040516105c69190614606565b60405180910390f35b6105d761247e565b6040516105e49190614665565b60405180910390f35b6106076004803603810190610602919061396c565b6124a2565b005b60007f7965db0b000000000000000000000000000000000000000000000000000000007bffffffffffffffffffffffffffffffffffffffffffffffffffffffff1916827bffffffffffffffffffffffffffffffffffffffffffffffffffffffff1916148061067c575061067b82612791565b5b9050919050565b60608385108015610695575060008510155b80156106b45750600260009054906101000a900461ffff1661ffff1684105b80156106bf57508183105b80156106cc575060008310155b80156106e9575060028054906101000a900461ffff1661ffff1682105b610728576040517f08c379a000000000000000000000000000000000000000000000000000000000815260040161071f90614822565b60405180910390fd5b600083836107369190614c40565b86866107429190614c40565b61074c9190614bb2565b67ffffffffffffffff81111561078b577f4e487b7100000000000000000000000000000000000000000000000000000000600052604160045260246000fd5b6040519080825280602002602001820160405280156107b95781602001602082028036833780820191505090505b5090506000808590505b848110156109125760008890505b878110156108fe57600073ffffffffffffffffffffffffffffffffffffffff166005600083600260009054906101000a900461ffff1661ffff16866108169190614bb2565b6108209190614aef565b815260200190815260200160002060090160009054906101000a900473ffffffffffffffffffffffffffffffffffffffff1673ffffffffffffffffffffffffffffffffffffffff1614156108eb5780600260009054906101000a900461ffff1661ffff168361088f9190614bb2565b6108999190614aef565b8484806108a590614d8f565b9550815181106108de577f4e487b7100000000000000000000000000000000000000000000000000000000600052603260045260246000fd5b6020026020010181815250505b80806108f690614d8f565b9150506107d1565b50808061090a90614d8f565b9150506107c3565b508192505050949350505050565b6001805461092d90614d5d565b80601f016020809104026020016040519081016040528092919081815260200182805461095990614d5d565b80156109a65780601f1061097b576101008083540402835291602001916109a6565b820191906000526020600020905b81548152906001019060200180831161098957829003601f168201915b505050505081565b6000806000807fef17b1f3c5a412f9c8e887e3abd186802afec7dc657fd3b7002bf87b128dd0b16109e6816109e16127fb565b612803565b600088600260009054906101000a900461ffff1689610a059190614b76565b610a0f9190614ab7565b61ffff1690508673ffffffffffffffffffffffffffffffffffffffff166005600083815260200190815260200160002060090160009054906101000a900473ffffffffffffffffffffffffffffffffffffffff1673ffffffffffffffffffffffffffffffffffffffff1614610ab9576040517f08c379a0000000000000000000000000000000000000000000000000000000008152600401610ab0906147c2565b60405180910390fd5b6000610e10600560008481526020019081526020016000206005016002015442610ae39190614c40565b610aed9190614b45565b905042600560008481526020019081526020016000206005016002018190555060008060056000858152602001908152602001600020600101541415610b34576000610b7b565b8160056000858152602001908152602001600020600501600001546005600086815260200190815260200160002060010154610b709190614bb2565b610b7a9190614bb2565b5b905060008060056000868152602001908152602001600020600201541415610ba4576000610beb565b8260056000868152602001908152602001600020600501600001546005600087815260200190815260200160002060020154610be09190614bb2565b610bea9190614bb2565b5b905060008060056000878152602001908152602001600020600301541415610c14576000610c5b565b8360056000878152602001908152602001600020600501600001546005600088815260200190815260200160002060030154610c509190614bb2565b610c5a9190614bb2565b5b905060008060056000888152602001908152602001600020600401541415610c84576000610ccb565b8460056000888152602001908152602001600020600501600001546005600089815260200190815260200160002060040154610cc09190614bb2565b610cca9190614bb2565b5b90507f49f00360f1bf5498a47c8bca06199209dcc94e1d9087f2d36afc4c0a30f7f1aa8e8e8e604051610d00939291906148fd565b60405180910390a1838383839a509a509a509a505050505050505093509350935093565b6000600460008373ffffffffffffffffffffffffffffffffffffffff1673ffffffffffffffffffffffffffffffffffffffff168152602001908152602001600020549050919050565b6000806000838152602001908152602001600020600101549050919050565b610d9582610d6d565b610da681610da16127fb565b612803565b610db083836128a1565b505050565b610dbd6127fb565b73ffffffffffffffffffffffffffffffffffffffff168173ffffffffffffffffffffffffffffffffffffffff1614610e2a576040517f08c379a0000000000000000000000000000000000000000000000000000000008152600401610e2190614862565b60405180910390fd5b610e348282612981565b5050565b606060008310158015610e4c575060035482105b610e8b576040517f08c379a0000000000000000000000000000000000000000000000000000000008152600401610e82906146e2565b60405180910390fd5b60008383610e999190614c40565b67ffffffffffffffff811115610ed8577f4e487b7100000000000000000000000000000000000000000000000000000000600052604160045260246000fd5b604051908082528060200260200182016040528015610f1157816020015b610efe61366d565b815260200190600190039081610ef65790505b50905060008490505b838110156110ad5760056000828152602001908152602001600020604051806101400160405290816000820160009054906101000a900461ffff1661ffff1661ffff1681526020016000820160029054906101000a900461ffff1661ffff1661ffff168152602001600182015481526020016002820154815260200160038201548152602001600482015481526020016005820160405180606001604052908160008201548152602001600182015481526020016002820154815250508152602001600882015481526020016009820160009054906101000a900473ffffffffffffffffffffffffffffffffffffffff1673ffffffffffffffffffffffffffffffffffffffff1673ffffffffffffffffffffffffffffffffffffffff1681526020016009820160149054906101000a900460ff16151515158152505082828151811061108f577f4e487b7100000000000000000000000000000000000000000000000000000000600052603260045260246000fd5b602002602001018190525080806110a590614d8f565b915050610f1a565b508091505092915050565b7fef17b1f3c5a412f9c8e887e3abd186802afec7dc657fd3b7002bf87b128dd0b16110ea816110e56127fb565b612803565b600084600260009054906101000a900461ffff16856111099190614b76565b6111139190614ab7565b61ffff1690508273ffffffffffffffffffffffffffffffffffffffff166005600083815260200190815260200160002060090160009054906101000a900473ffffffffffffffffffffffffffffffffffffffff1673ffffffffffffffffffffffffffffffffffffffff16146111bd576040517f08c379a00000000000000000000000000000000000000000000000000000000081526004016111b4906147c2565b60405180910390fd5b60016005600083815260200190815260200160002060050160000160008282546111e79190614aef565b9250508190555060026005600083815260200190815260200160002060050160010160008282546112189190614bb2565b925050819055504260056000838152602001908152602001600020600501600201819055507fb01f61f96739051313598e07a91ff2905b43a10aea863413abec3e20f00e41f8858585600560008681526020019081526020016000206005016000015460405161128b9493929190614934565b60405180910390a15050505050565b6112a26136e6565b600660008381526020019081526020016000206040518060600160405290816000820160009054906101000a900460ff161515151581526020016000820160019054906101000a900461ffff1661ffff1661ffff1681526020016000820160039054906101000a900461ffff1661ffff1661ffff16815250509050919050565b60006005600084600260009054906101000a900461ffff16856113459190614b76565b61134f9190614ab7565b61ffff16815260200190815260200160002060080154905092915050565b600260009054906101000a900461ffff1681565b7fef17b1f3c5a412f9c8e887e3abd186802afec7dc657fd3b7002bf87b128dd0b16113b3816113ae6127fb565b612803565b600084600260009054906101000a900461ffff16856113d29190614b76565b6113dc9190614ab7565b61ffff169050600085600260009054906101000a900461ffff16866114019190614b76565b61140b9190614ab7565b61ffff1690508373ffffffffffffffffffffffffffffffffffffffff166005600084815260200190815260200160002060090160009054906101000a900473ffffffffffffffffffffffffffffffffffffffff1673ffffffffffffffffffffffffffffffffffffffff16146114b5576040517f08c379a00000000000000000000000000000000000000000000000000000000081526004016114ac90614762565b60405180910390fd5b6005600082815260200190815260200160002060090160009054906101000a900473ffffffffffffffffffffffffffffffffffffffff1673ffffffffffffffffffffffffffffffffffffffff166005600084815260200190815260200160002060090160009054906101000a900473ffffffffffffffffffffffffffffffffffffffff1673ffffffffffffffffffffffffffffffffffffffff161415611590576040517f08c379a0000000000000000000000000000000000000000000000000000000008152600401611587906147a2565b60405180910390fd5b60006005600083815260200190815260200160002060080154146115e9576040517f08c379a00000000000000000000000000000000000000000000000000000000081526004016115e090614702565b60405180910390fd5b600060056000848152602001908152602001600020600801541415611643576040517f08c379a000000000000000000000000000000000000000000000000000000000815260040161163a906146c2565b60405180910390fd5b60006005600083815260200190815260200160002060090160009054906101000a900473ffffffffffffffffffffffffffffffffffffffff1690506000600460008373ffffffffffffffffffffffffffffffffffffffff1673ffffffffffffffffffffffffffffffffffffffff16815260200190815260200160002054116116cc576000611719565b6001600460008373ffffffffffffffffffffffffffffffffffffffff1673ffffffffffffffffffffffffffffffffffffffff168152602001908152602001600020546117189190614c40565b5b600460008373ffffffffffffffffffffffffffffffffffffffff1673ffffffffffffffffffffffffffffffffffffffff168152602001908152602001600020819055506001600460008773ffffffffffffffffffffffffffffffffffffffff1673ffffffffffffffffffffffffffffffffffffffff16815260200190815260200160002060008282546117ac9190614aef565b92505081905550846005600084815260200190815260200160002060090160006101000a81548173ffffffffffffffffffffffffffffffffffffffff021916908373ffffffffffffffffffffffffffffffffffffffff16021790555061182b828888600560008881526020019081526020016000206008015489612a62565b6000600560008581526020019081526020016000206008018190555061188887876005600087815260200190815260200160002060090160009054906101000a900473ffffffffffffffffffffffffffffffffffffffff16612c12565b6005600084815260200190815260200160002060090160009054906101000a900473ffffffffffffffffffffffffffffffffffffffff1673ffffffffffffffffffffffffffffffffffffffff1660056000848152602001908152602001600020600801547f67a6f2fb053652dd7425e63562e24bdf462b177cd1b8dff273fe8b77916a242e8b8b8b8b6040516119219493929190614979565b60405180910390a38473ffffffffffffffffffffffffffffffffffffffff168173ffffffffffffffffffffffffffffffffffffffff167fea589a3cca623dcd8e51689d3b9eb0134fe2019a64e8bc9a76d281a63a95ff0789896040516119889291906148d4565b60405180910390a3505050505050505050565b60028054906101000a900461ffff1681565b7fef17b1f3c5a412f9c8e887e3abd186802afec7dc657fd3b7002bf87b128dd0b16119df816119da6127fb565b612803565b611a1384600260009054906101000a900461ffff16856119ff9190614b76565b611a099190614ab7565b61ffff1683612cb9565b50505050565b600080600084815260200190815260200160002060000160008373ffffffffffffffffffffffffffffffffffffffff1673ffffffffffffffffffffffffffffffffffffffff16815260200190815260200160002060009054906101000a900460ff16905092915050565b60006005600084600260009054906101000a900461ffff1685611aa69190614b76565b611ab09190614ab7565b61ffff16815260200190815260200160002060050160010154905092915050565b7fef17b1f3c5a412f9c8e887e3abd186802afec7dc657fd3b7002bf87b128dd0b1611b0381611afe6127fb565b612803565b600085600260009054906101000a900461ffff1686611b229190614b76565b611b2c9190614ab7565b61ffff1690508273ffffffffffffffffffffffffffffffffffffffff166005600083815260200190815260200160002060090160009054906101000a900473ffffffffffffffffffffffffffffffffffffffff1673ffffffffffffffffffffffffffffffffffffffff1614611bd6576040517f08c379a0000000000000000000000000000000000000000000000000000000008152600401611bcd90614742565b60405180910390fd5b6001600560008381526020019081526020016000206008015414611c2f576040517f08c379a0000000000000000000000000000000000000000000000000000000008152600401611c2690614722565b60405180910390fd5b611c398185612cb9565b505050505050565b600060010281565b611c5161366d565b6005600084600260009054906101000a900461ffff1685611c729190614b76565b611c7c9190614ab7565b61ffff168152602001908152602001600020604051806101400160405290816000820160009054906101000a900461ffff1661ffff1661ffff1681526020016000820160029054906101000a900461ffff1661ffff1661ffff168152602001600182015481526020016002820154815260200160038201548152602001600482015481526020016005820160405180606001604052908160008201548152602001600182015481526020016002820154815250508152602001600882015481526020016009820160009054906101000a900473ffffffffffffffffffffffffffffffffffffffff1673ffffffffffffffffffffffffffffffffffffffff1673ffffffffffffffffffffffffffffffffffffffff1681526020016009820160149054906101000a900460ff161515151581525050905092915050565b7fef17b1f3c5a412f9c8e887e3abd186802afec7dc657fd3b7002bf87b128dd0b1611de981611de46127fb565b612803565b600085600260009054906101000a900461ffff1686611e089190614b76565b611e129190614ab7565b61ffff1690506000600460008573ffffffffffffffffffffffffffffffffffffffff1673ffffffffffffffffffffffffffffffffffffffff168152602001908152602001600020541115611e7257611e6d8187878787612a62565b611e7f565b611e7e81878787612dc4565b5b505050505050565b611e9082610d6d565b611ea181611e9c6127fb565b612803565b611eab8383612981565b505050565b60608385108015611ec2575060008510155b8015611ee15750600260009054906101000a900461ffff1661ffff1684105b8015611eec57508183105b8015611ef9575060008310155b8015611f16575060028054906101000a900461ffff1661ffff1682105b611f55576040517f08c379a0000000000000000000000000000000000000000000000000000000008152600401611f4c90614822565b60405180910390fd5b60008383611f639190614c40565b8686611f6f9190614c40565b611f799190614bb2565b67ffffffffffffffff811115611fb8577f4e487b7100000000000000000000000000000000000000000000000000000000600052604160045260246000fd5b604051908082528060200260200182016040528015611ff157816020015b611fde61366d565b815260200190600190039081611fd65790505b5090506000808590505b848110156121e65760008890505b878110156121d2576005600082600260009054906101000a900461ffff1661ffff16856120369190614bb2565b6120409190614aef565b8152602001908152602001600020604051806101400160405290816000820160009054906101000a900461ffff1661ffff1661ffff1681526020016000820160029054906101000a900461ffff1661ffff1661ffff168152602001600182015481526020016002820154815260200160038201548152602001600482015481526020016005820160405180606001604052908160008201548152602001600182015481526020016002820154815250508152602001600882015481526020016009820160009054906101000a900473ffffffffffffffffffffffffffffffffffffffff1673ffffffffffffffffffffffffffffffffffffffff1673ffffffffffffffffffffffffffffffffffffffff1681526020016009820160149054906101000a900460ff16151515158152505084848061217b90614d8f565b9550815181106121b4577f4e487b7100000000000000000000000000000000000000000000000000000000600052603260045260246000fd5b602002602001018190525080806121ca90614d8f565b915050612009565b5080806121de90614d8f565b915050611ffb565b508192505050949350505050565b60035481565b606060008383905067ffffffffffffffff811115612241577f4e487b7100000000000000000000000000000000000000000000000000000000600052604160045260246000fd5b60405190808252806020026020018201604052801561227a57816020015b61226761366d565b81526020019060019003908161225f5790505b50905060005b848490508110156124735760008585838181106122c6577f4e487b7100000000000000000000000000000000000000000000000000000000600052603260045260246000fd5b905060200201359050600081101580156122e1575060035481105b1561245f5760056000828152602001908152602001600020604051806101400160405290816000820160009054906101000a900461ffff1661ffff1661ffff1681526020016000820160029054906101000a900461ffff1661ffff1661ffff168152602001600182015481526020016002820154815260200160038201548152602001600482015481526020016005820160405180606001604052908160008201548152602001600182015481526020016002820154815250508152602001600882015481526020016009820160009054906101000a900473ffffffffffffffffffffffffffffffffffffffff1673ffffffffffffffffffffffffffffffffffffffff1673ffffffffffffffffffffffffffffffffffffffff1681526020016009820160149054906101000a900460ff161515151581525050838381518110612453577f4e487b7100000000000000000000000000000000000000000000000000000000600052603260045260246000fd5b60200260200101819052505b50808061246b90614d8f565b915050612280565b508091505092915050565b7fef17b1f3c5a412f9c8e887e3abd186802afec7dc657fd3b7002bf87b128dd0b181565b7fef17b1f3c5a412f9c8e887e3abd186802afec7dc657fd3b7002bf87b128dd0b16124d4816124cf6127fb565b612803565b600084600260009054906101000a900461ffff16856124f39190614b76565b6124fd9190614ab7565b61ffff169050600085600260009054906101000a900461ffff16866125229190614b76565b61252c9190614ab7565b61ffff1690506005600082815260200190815260200160002060090160009054906101000a900473ffffffffffffffffffffffffffffffffffffffff1673ffffffffffffffffffffffffffffffffffffffff166005600084815260200190815260200160002060090160009054906101000a900473ffffffffffffffffffffffffffffffffffffffff1673ffffffffffffffffffffffffffffffffffffffff161461260c576040517f08c379a000000000000000000000000000000000000000000000000000000000815260040161260390614842565b60405180910390fd5b600060056000848152602001908152602001600020600801541415612666576040517f08c379a000000000000000000000000000000000000000000000000000000000815260040161265d906146c2565b60405180910390fd5b612689818787600560008781526020019081526020016000206008015488612a62565b600060056000848152602001908152602001600020600801819055506126e686866005600086815260200190815260200160002060090160009054906101000a900473ffffffffffffffffffffffffffffffffffffffff16612c12565b6005600083815260200190815260200160002060090160009054906101000a900473ffffffffffffffffffffffffffffffffffffffff1673ffffffffffffffffffffffffffffffffffffffff1660056000838152602001908152602001600020600801547f67a6f2fb053652dd7425e63562e24bdf462b177cd1b8dff273fe8b77916a242e8a8a8a8a60405161277f9493929190614979565b60405180910390a35050505050505050565b60007f01ffc9a7000000000000000000000000000000000000000000000000000000007bffffffffffffffffffffffffffffffffffffffffffffffffffffffff1916827bffffffffffffffffffffffffffffffffffffffffffffffffffffffff1916149050919050565b600033905090565b61280d8282611a19565b61289d576128328173ffffffffffffffffffffffffffffffffffffffff166014612f74565b61284183600190046020612f74565b60405160200161285292919061458f565b6040516020818303038152906040526040517f08c379a00000000000000000000000000000000000000000000000000000000081526004016128949190614680565b60405180910390fd5b5050565b6128ab8282611a19565b61297d57600160008084815260200190815260200160002060000160008373ffffffffffffffffffffffffffffffffffffffff1673ffffffffffffffffffffffffffffffffffffffff16815260200190815260200160002060006101000a81548160ff0219169083151502179055506129226127fb565b73ffffffffffffffffffffffffffffffffffffffff168173ffffffffffffffffffffffffffffffffffffffff16837f2f8788117e7eff1d82e926ec794901d17c78024a50270940304540a733656f0d60405160405180910390a45b5050565b61298b8282611a19565b15612a5e57600080600084815260200190815260200160002060000160008373ffffffffffffffffffffffffffffffffffffffff1673ffffffffffffffffffffffffffffffffffffffff16815260200190815260200160002060006101000a81548160ff021916908315150217905550612a036127fb565b73ffffffffffffffffffffffffffffffffffffffff168173ffffffffffffffffffffffffffffffffffffffff16837ff6391f5c32d9c69d2a47ea670b442974b53935d1edc7fd64eb21e047a839171b60405160405180910390a45b5050565b8073ffffffffffffffffffffffffffffffffffffffff166005600087815260200190815260200160002060090160009054906101000a900473ffffffffffffffffffffffffffffffffffffffff1673ffffffffffffffffffffffffffffffffffffffff1614612b06576040517f08c379a0000000000000000000000000000000000000000000000000000000008152600401612afd90614742565b60405180910390fd5b6000600560008781526020019081526020016000206008015414612b5f576040517f08c379a0000000000000000000000000000000000000000000000000000000008152600401612b5690614802565b60405180910390fd5b81600560008781526020019081526020016000206008018190555060016006600084815260200190815260200160002060000160006101000a81548160ff021916908315150217905550836006600084815260200190815260200160002060000160016101000a81548161ffff021916908361ffff160217905550826006600084815260200190815260200160002060000160036101000a81548161ffff021916908361ffff1602179055505050505050565b612c29600184612c229190614c0c565b8383613295565b612c4083600184612c3a9190614c0c565b83613295565b612c63600184612c509190614ab7565b600184612c5d9190614c0c565b83613295565b612c7a600184612c739190614ab7565b8383613295565b612c9d600184612c8a9190614ab7565b600184612c979190614ab7565b83613295565b612cb483600184612cae9190614ab7565b83613295565b505050565b80600560008481526020019081526020016000206008015414612d11576040517f08c379a0000000000000000000000000000000000000000000000000000000008152600401612d08906147e2565b60405180910390fd5b6000600560008481526020019081526020016000206008018190555060006006600083815260200190815260200160002060000160006101000a81548160ff02191690831515021790555060006006600083815260200190815260200160002060000160016101000a81548161ffff021916908361ffff16021790555060006006600083815260200190815260200160002060000160036101000a81548161ffff021916908361ffff1602179055505050565b600073ffffffffffffffffffffffffffffffffffffffff166005600086815260200190815260200160002060090160009054906101000a900473ffffffffffffffffffffffffffffffffffffffff1673ffffffffffffffffffffffffffffffffffffffff1614612e69576040517f08c379a0000000000000000000000000000000000000000000000000000000008152600401612e6090614782565b60405180910390fd5b6000600560008681526020019081526020016000206008015414612ec2576040517f08c379a0000000000000000000000000000000000000000000000000000000008152600401612eb990614802565b60405180910390fd5b80600560008681526020019081526020016000206008018190555060016006600083815260200190815260200160002060000160006101000a81548160ff021916908315150217905550826006600083815260200190815260200160002060000160016101000a81548161ffff021916908361ffff160217905550816006600083815260200190815260200160002060000160036101000a81548161ffff021916908361ffff16021790555050505050565b606060006002836002612f879190614bb2565b612f919190614aef565b67ffffffffffffffff811115612fd0577f4e487b7100000000000000000000000000000000000000000000000000000000600052604160045260246000fd5b6040519080825280601f01601f1916602001820160405280156130025781602001600182028036833780820191505090505b5090507f300000000000000000000000000000000000000000000000000000000000000081600081518110613060577f4e487b7100000000000000000000000000000000000000000000000000000000600052603260045260246000fd5b60200101907effffffffffffffffffffffffffffffffffffffffffffffffffffffffffffff1916908160001a9053507f7800000000000000000000000000000000000000000000000000000000000000816001815181106130ea577f4e487b7100000000000000000000000000000000000000000000000000000000600052603260045260246000fd5b60200101907effffffffffffffffffffffffffffffffffffffffffffffffffffffffffffff1916908160001a9053506000600184600261312a9190614bb2565b6131349190614aef565b90505b6001811115613247577f3031323334353637383961626364656600000000000000000000000000000000600f86166010811061319c577f4e487b7100000000000000000000000000000000000000000000000000000000600052603260045260246000fd5b1a7f0100000000000000000000000000000000000000000000000000000000000000028282815181106131f8577f4e487b7100000000000000000000000000000000000000000000000000000000600052603260045260246000fd5b60200101907effffffffffffffffffffffffffffffffffffffffffffffffffffffffffffff1916908160001a905350600485908060020a820491505094508061324090614d33565b9050613137565b506000841461328b576040517f08c379a0000000000000000000000000000000000000000000000000000000008152600401613282906146a2565b60405180910390fd5b8091505092915050565b600083600260009054906101000a900461ffff16846132b49190614b76565b6132be9190614ab7565b61ffff169050600015156005600083815260200190815260200160002060090160149054906101000a900460ff1615151415613623576000600a905060046003546133099190614b45565b811180156133305750600360046003546133239190614b45565b61332d9190614bb2565b81105b1561333a57602890505b6002600560035461334b9190614b45565b6133559190614bb2565b8111801561337c57506003600560035461336f9190614b45565b6133799190614bb2565b81105b1561338657605090505b600081613394846064613629565b61339e9190614aef565b90506000826133ba6001866133b39190614aef565b6064613629565b6133c49190614aef565b90506000836133e06002876133d99190614aef565b6064613629565b6133ea9190614aef565b9050818310806133f957508083105b1561340357600092505b8282108061341057508082105b1561341a57600091505b8281108061342757508181105b1561343157600090505b6040518061014001604052808961ffff1681526020018861ffff16815260200160008152602001848152602001838152602001600a836134719190614b45565b81526020016040518060600160405280600081526020016101f48152602001428152508152602001600081526020018773ffffffffffffffffffffffffffffffffffffffff168152602001600115158152506005600087815260200190815260200160002060008201518160000160006101000a81548161ffff021916908361ffff16021790555060208201518160000160026101000a81548161ffff021916908361ffff16021790555060408201518160010155606082015181600201556080820151816003015560a0820151816004015560c082015181600501600082015181600001556020820151816001015560408201518160020155505060e082015181600801556101008201518160090160006101000a81548173ffffffffffffffffffffffffffffffffffffffff021916908373ffffffffffffffffffffffffffffffffffffffff1602179055506101208201518160090160146101000a81548160ff0219169083151502179055509050507fcfc47dcefc6f1ec1fd8ed1662ac24698fe911253fa1ce3460f7e7c83bf8d64b5888888604051613616939291906148fd565b60405180910390a1505050505b50505050565b600081423385604051602001613641939291906145c9565b60405160208183030381529060405280519060200120600190046136659190614e06565b905092915050565b604051806101400160405280600061ffff168152602001600061ffff168152602001600081526020016000815260200160008152602001600081526020016136b3613711565b815260200160008152602001600073ffffffffffffffffffffffffffffffffffffffff1681526020016000151581525090565b6040518060600160405280600015158152602001600061ffff168152602001600061ffff1681525090565b60405180606001604052806000815260200160008152602001600081525090565b60008135905061374181614eee565b92915050565b60008083601f84011261375957600080fd5b8235905067ffffffffffffffff81111561377257600080fd5b60208301915083602082028301111561378a57600080fd5b9250929050565b6000813590506137a081614f05565b92915050565b6000813590506137b581614f1c565b92915050565b6000813590506137ca81614f33565b92915050565b6000813590506137df81614f4a565b92915050565b6000602082840312156137f757600080fd5b600061380584828501613732565b91505092915050565b6000806020838503121561382157600080fd5b600083013567ffffffffffffffff81111561383b57600080fd5b61384785828601613747565b92509250509250929050565b60006020828403121561386557600080fd5b600061387384828501613791565b91505092915050565b6000806040838503121561388f57600080fd5b600061389d85828601613791565b92505060206138ae85828601613732565b9150509250929050565b6000602082840312156138ca57600080fd5b60006138d8848285016137a6565b91505092915050565b600080604083850312156138f457600080fd5b6000613902858286016137bb565b9250506020613913858286016137bb565b9150509250929050565b60008060006060848603121561393257600080fd5b6000613940868287016137bb565b9350506020613951868287016137bb565b925050604061396286828701613732565b9150509250925092565b600080600080600060a0868803121561398457600080fd5b6000613992888289016137bb565b95505060206139a3888289016137bb565b94505060406139b4888289016137bb565b93505060606139c5888289016137bb565b92505060806139d688828901613732565b9150509295509295909350565b6000806000606084860312156139f857600080fd5b6000613a06868287016137bb565b9350506020613a17868287016137bb565b9250506040613a28868287016137d0565b9150509250925092565b60008060008060808587031215613a4857600080fd5b6000613a56878288016137bb565b9450506020613a67878288016137bb565b9350506040613a78878288016137d0565b9250506060613a8987828801613732565b91505092959194509250565b600060208284031215613aa757600080fd5b6000613ab5848285016137d0565b91505092915050565b60008060408385031215613ad157600080fd5b6000613adf858286016137d0565b9250506020613af0858286016137d0565b9150509250929050565b60008060008060808587031215613b1057600080fd5b6000613b1e878288016137d0565b9450506020613b2f878288016137d0565b9350506040613b40878288016137d0565b9250506060613b51878288016137d0565b91505092959194509250565b6000613b6983836143a2565b6101808301905092915050565b6000613b82838361455a565b60208301905092915050565b613b9781614c74565b82525050565b613ba681614c74565b82525050565b613bbd613bb882614c74565b614dd8565b82525050565b6000613bce82614a3e565b613bd88185614a79565b9350613be383614a1e565b8060005b83811015613c14578151613bfb8882613b5d565b9750613c0683614a5f565b925050600181019050613be7565b5085935050505092915050565b6000613c2c82614a49565b613c368185614a8a565b9350613c4183614a2e565b8060005b83811015613c72578151613c598882613b76565b9750613c6483614a6c565b925050600181019050613c45565b5085935050505092915050565b613c8881614c86565b82525050565b613c9781614c86565b82525050565b613ca681614c92565b82525050565b6000613cb782614a54565b613cc18185614a9b565b9350613cd1818560208601614d00565b613cda81614ec4565b840191505092915050565b6000613cf082614a54565b613cfa8185614aac565b9350613d0a818560208601614d00565b80840191505092915050565b6000613d23602083614a9b565b91507f537472696e67733a20686578206c656e67746820696e73756666696369656e746000830152602082019050919050565b6000613d63603283614a9b565b91507f43757272656e74207465727269746f727920646f6573206e6f7420686176652060008301527f616e79204e6f6b616920746f206d6f76652e00000000000000000000000000006020830152604082019050919050565b6000613dc9601583614a9b565b91507f696e76616c69642072616e6765207265717565737400000000000000000000006000830152602082019050919050565b6000613e09602e83614a9b565b91507f546172676574207465727269746f7279206973207374696c6c20646566656e6460008301527f65642062792061204e6f6b61692e0000000000000000000000000000000000006020830152604082019050919050565b6000613e6f602f83614a9b565b91507f537065636966696564207465727269746f7279206973206e6f74206f6363757060008301527f6965642062792061204e6f6b61692e00000000000000000000000000000000006020830152604082019050919050565b6000613ed5603183614a9b565b91507f596f7520617265206e6f7420746865206f776e6572206f66207468652073706560008301527f636966696564207465727269746f72792e0000000000000000000000000000006020830152604082019050919050565b6000613f3b603083614a9b565b91507f596f7520617265206e6f7420746865206f776e6572206f6620746865206f726960008301527f67696e616c207465727269746f72792e000000000000000000000000000000006020830152604082019050919050565b6000613fa1603383614a9b565b91507f54686520737065636966696564207465727269746f7279206973206f776e656460008301527f20627920616e6f7468657220706c617965722e000000000000000000000000006020830152604082019050919050565b6000614007603783614a9b565b91507f43757272656e7420616e6420746172676574207465727269746f72696573206160008301527f72652066726f6d207468652073616d65206f776e65722e0000000000000000006020830152604082019050919050565b600061406d603183614a9b565b91507f796f7520617265206e6f7420746865206f776e6572206f66207468652073706560008301527f636966696564207465727269746f72792e0000000000000000000000000000006020830152604082019050919050565b60006140d3602e83614a9b565b91507f537065636966696564204e6f6b6169206973206e6f74206f6e2073706563696660008301527f696564207465727269746f72792e0000000000000000000000000000000000006020830152604082019050919050565b6000614139603383614a9b565b91507f537065636966696564207465727269746f727920697320616c7265616479206f60008301527f636375706965642062792061204e6f6b61692e000000000000000000000000006020830152604082019050919050565b600061419f601383614a9b565b91507f696e76616c696420626f782072657175657374000000000000000000000000006000830152602082019050919050565b60006141df601783614aac565b91507f416363657373436f6e74726f6c3a206163636f756e74200000000000000000006000830152601782019050919050565b600061421f603b83614a9b565b91507f43757272656e7420616e6420746172676574207465727269746f72696573206160008301527f7265206e6f742066726f6d207468652073616d65206f776e65722e00000000006020830152604082019050919050565b6000614285601183614aac565b91507f206973206d697373696e6720726f6c65200000000000000000000000000000006000830152601182019050919050565b60006142c5602f83614a9b565b91507f416363657373436f6e74726f6c3a2063616e206f6e6c792072656e6f756e636560008301527f20726f6c657320666f722073656c6600000000000000000000000000000000006020830152604082019050919050565b606082016000820151614334600085018261455a565b506020820151614347602085018261455a565b50604082015161435a604085018261455a565b50505050565b6060820160008201516143766000850182613c7f565b506020820151614389602085018261453c565b50604082015161439c604085018261453c565b50505050565b610180820160008201516143b9600085018261453c565b5060208201516143cc602085018261453c565b5060408201516143df604085018261455a565b5060608201516143f2606085018261455a565b506080820151614405608085018261455a565b5060a082015161441860a085018261455a565b5060c082015161442b60c085018261431e565b5060e082015161443f61012085018261455a565b50610100820151614454610140850182613b8e565b50610120820151614469610160850182613c7f565b50505050565b61018082016000820151614486600085018261453c565b506020820151614499602085018261453c565b5060408201516144ac604085018261455a565b5060608201516144bf606085018261455a565b5060808201516144d2608085018261455a565b5060a08201516144e560a085018261455a565b5060c08201516144f860c085018261431e565b5060e082015161450c61012085018261455a565b50610100820151614521610140850182613b8e565b50610120820151614536610160850182613c7f565b50505050565b61454581614cc8565b82525050565b61455481614cc8565b82525050565b61456381614cf6565b82525050565b61457281614cf6565b82525050565b61458961458482614cf6565b614dfc565b82525050565b600061459a826141d2565b91506145a68285613ce5565b91506145b182614278565b91506145bd8284613ce5565b91508190509392505050565b60006145d58286614578565b6020820191506145e58285613bac565b6014820191506145f58284614578565b602082019150819050949350505050565b600060208201905081810360008301526146208184613bc3565b905092915050565b600060208201905081810360008301526146428184613c21565b905092915050565b600060208201905061465f6000830184613c8e565b92915050565b600060208201905061467a6000830184613c9d565b92915050565b6000602082019050818103600083015261469a8184613cac565b905092915050565b600060208201905081810360008301526146bb81613d16565b9050919050565b600060208201905081810360008301526146db81613d56565b9050919050565b600060208201905081810360008301526146fb81613dbc565b9050919050565b6000602082019050818103600083015261471b81613dfc565b9050919050565b6000602082019050818103600083015261473b81613e62565b9050919050565b6000602082019050818103600083015261475b81613ec8565b9050919050565b6000602082019050818103600083015261477b81613f2e565b9050919050565b6000602082019050818103600083015261479b81613f94565b9050919050565b600060208201905081810360008301526147bb81613ffa565b9050919050565b600060208201905081810360008301526147db81614060565b9050919050565b600060208201905081810360008301526147fb816140c6565b9050919050565b6000602082019050818103600083015261481b8161412c565b9050919050565b6000602082019050818103600083015261483b81614192565b9050919050565b6000602082019050818103600083015261485b81614212565b9050919050565b6000602082019050818103600083015261487b816142b8565b9050919050565b60006060820190506148976000830184614360565b92915050565b6000610180820190506148b3600083018461446f565b92915050565b60006020820190506148ce600083018461454b565b92915050565b60006040820190506148e9600083018561454b565b6148f6602083018461454b565b9392505050565b6000606082019050614912600083018661454b565b61491f602083018561454b565b61492c6040830184613b9d565b949350505050565b6000608082019050614949600083018761454b565b614956602083018661454b565b6149636040830185613b9d565b6149706060830184614569565b95945050505050565b600060808201905061498e600083018761454b565b61499b602083018661454b565b6149a8604083018561454b565b6149b5606083018461454b565b95945050505050565b60006020820190506149d36000830184614569565b92915050565b60006080820190506149ee6000830187614569565b6149fb6020830186614569565b614a086040830185614569565b614a156060830184614569565b95945050505050565b6000819050602082019050919050565b6000819050602082019050919050565b600081519050919050565b600081519050919050565b600081519050919050565b6000602082019050919050565b6000602082019050919050565b600082825260208201905092915050565b600082825260208201905092915050565b600082825260208201905092915050565b600081905092915050565b6000614ac282614cc8565b9150614acd83614cc8565b92508261ffff03821115614ae457614ae3614e37565b5b828201905092915050565b6000614afa82614cf6565b9150614b0583614cf6565b9250827fffffffffffffffffffffffffffffffffffffffffffffffffffffffffffffffff03821115614b3a57614b39614e37565b5b828201905092915050565b6000614b5082614cf6565b9150614b5b83614cf6565b925082614b6b57614b6a614e66565b5b828204905092915050565b6000614b8182614cc8565b9150614b8c83614cc8565b92508161ffff0483118215151615614ba757614ba6614e37565b5b828202905092915050565b6000614bbd82614cf6565b9150614bc883614cf6565b9250817fffffffffffffffffffffffffffffffffffffffffffffffffffffffffffffffff0483118215151615614c0157614c00614e37565b5b828202905092915050565b6000614c1782614cc8565b9150614c2283614cc8565b925082821015614c3557614c34614e37565b5b828203905092915050565b6000614c4b82614cf6565b9150614c5683614cf6565b925082821015614c6957614c68614e37565b5b828203905092915050565b6000614c7f82614cd6565b9050919050565b60008115159050919050565b6000819050919050565b60007fffffffff0000000000000000000000000000000000000000000000000000000082169050919050565b600061ffff82169050919050565b600073ffffffffffffffffffffffffffffffffffffffff82169050919050565b6000819050919050565b60005b83811015614d1e578082015181840152602081019050614d03565b83811115614d2d576000848401525b50505050565b6000614d3e82614cf6565b91506000821415614d5257614d51614e37565b5b600182039050919050565b60006002820490506001821680614d7557607f821691505b60208210811415614d8957614d88614e95565b5b50919050565b6000614d9a82614cf6565b91507fffffffffffffffffffffffffffffffffffffffffffffffffffffffffffffffff821415614dcd57614dcc614e37565b5b600182019050919050565b6000614de382614dea565b9050919050565b6000614df582614ed5565b9050919050565b6000819050919050565b6000614e1182614cf6565b9150614e1c83614cf6565b925082614e2c57614e2b614e66565b5b828206905092915050565b7f4e487b7100000000000000000000000000000000000000000000000000000000600052601160045260246000fd5b7f4e487b7100000000000000000000000000000000000000000000000000000000600052601260045260246000fd5b7f4e487b7100000000000000000000000000000000000000000000000000000000600052602260045260246000fd5b6000601f19601f8301169050919050565b60006c0100000000000000000000000082029050919050565b614ef781614c74565b8114614f0257600080fd5b50565b614f0e81614c92565b8114614f1957600080fd5b50565b614f2581614c9c565b8114614f3057600080fd5b50565b614f3c81614cc8565b8114614f4757600080fd5b50565b614f5381614cf6565b8114614f5e57600080fd5b5056fea2646970667358221220cea63fc190c17a5b84542b5ad52471017c3855d2f3bf964983b13ff5e030589a64736f6c63430008000033",
  "immutableReferences": {},
  "source": "pragma solidity ^0.8.0;\r\n\r\nimport \"@openzeppelin/contracts/access/AccessControl.sol\";\r\nimport \"../utils/RandomUtils.sol\";\r\n\r\n// SPDX-License-Identifier: MIT\r\ncontract BlackHole is AccessControl {\r\n    bytes32 public constant GAME_MANAGER_ROLE = keccak256(\"GAME_MANAGER_ROLE\");\r\n\r\n    string public name;\r\n    uint16 public maxX;\r\n    uint16 public maxY;\r\n    uint256 public totalPos;\r\n\r\n    struct Extractor {\r\n        uint256 level;\r\n        uint256 cost;\r\n        uint256 lastExtract;\r\n    }\r\n\r\n    struct Territory {\r\n        uint16 x;\r\n        uint16 y;\r\n        uint256 darkEnergy;\r\n        uint256 darkMatter;\r\n        uint256 plasmaEnergy;\r\n        uint256 voidEssence;\r\n        Extractor extractor; // extract resources\r\n        uint256 nokai;\r\n        address owner;\r\n        bool discovered;\r\n    }\r\n\r\n    struct Position {\r\n        bool onBoard;\r\n        uint16 x;\r\n        uint16 y;\r\n    }\r\n\r\n    mapping(address => uint256) private userTerritoryCount;\r\n    mapping(uint256 => Territory) private blackhole;\r\n    mapping(uint256 => Position) private nokaiPosition;\r\n\r\n    constructor(string memory _name, uint16 _width, uint16 _height)  {\r\n        name = _name;\r\n        maxX = _width;\r\n        maxY = _height;\r\n        totalPos = maxX * maxY;\r\n        _setupRole(DEFAULT_ADMIN_ROLE, msg.sender);\r\n\r\n        blackhole[((maxY / 2) * maxX) + maxX / 2] = Territory({\r\n        x : maxX / 2,\r\n        y : maxY / 2,\r\n        darkEnergy : 10,\r\n        darkMatter : 100,\r\n        plasmaEnergy : 100,\r\n        voidEssence : 100,\r\n        extractor : Extractor({level : 1, cost : 1000, lastExtract : block.timestamp}),\r\n        nokai : 0,\r\n        owner : address(0),\r\n        discovered : true\r\n        });\r\n    }\r\n\r\n    function completeExtraction(uint16 x, uint16 y, address by) external onlyRole(GAME_MANAGER_ROLE) returns (uint256, uint256, uint256, uint256) {\r\n        uint256 pos = (y * maxX) + x;\r\n        require(blackhole[pos].owner == by, \"you are not the owner of the specified territory.\");\r\n        uint256 nbHours = (block.timestamp - blackhole[pos].extractor.lastExtract) / 3600;\r\n        blackhole[pos].extractor.lastExtract = block.timestamp;\r\n        uint256 _darkEnergy = blackhole[pos].darkEnergy != 0 ? blackhole[pos].darkEnergy * blackhole[pos].extractor.level * nbHours : 0;\r\n        uint256 _darkMatter = blackhole[pos].darkMatter != 0 ? blackhole[pos].darkMatter * blackhole[pos].extractor.level * nbHours : 0;\r\n        uint256 _plasmaEnergy = blackhole[pos].plasmaEnergy != 0 ? blackhole[pos].plasmaEnergy * blackhole[pos].extractor.level * nbHours : 0;\r\n        uint256 _voidEssence = blackhole[pos].voidEssence != 0 ? blackhole[pos].voidEssence * blackhole[pos].extractor.level * nbHours : 0;\r\n        emit TerritoryExtracted(x, y, by);\r\n        return (_darkEnergy, _darkMatter, _plasmaEnergy, _voidEssence);\r\n    }\r\n\r\n    function upgradeExtractor(uint16 x, uint16 y, address by) external onlyRole(GAME_MANAGER_ROLE) {\r\n        uint256 pos = (y * maxX) + x;\r\n        require(blackhole[pos].owner == by, \"you are not the owner of the specified territory.\");\r\n        blackhole[pos].extractor.level += 1;\r\n        blackhole[pos].extractor.cost *= 2;\r\n        blackhole[pos].extractor.lastExtract = block.timestamp;\r\n        emit ExtractorUpgraded(x, y, by, blackhole[pos].extractor.level);\r\n    }\r\n\r\n\r\n    function assignNokai(uint16 x, uint16 y, uint256 nokaiId, address by) external onlyRole(GAME_MANAGER_ROLE) {\r\n        uint256 pos = (y * maxX) + x;\r\n        if (userTerritoryCount[by] > 0) {\r\n            _assignNokai(pos, x, y, nokaiId, by);\r\n        } else {\r\n            _assignNokaiNewTerritory(pos, x, y, nokaiId);\r\n        }\r\n    }\r\n\r\n    function _assignNokaiNewTerritory(uint256 pos, uint16 x, uint16 y, uint256 nokaiId) private {\r\n        require(blackhole[pos].owner == address(0), \"The specified territory is owned by another player.\");\r\n        require(blackhole[pos].nokai == 0, \"Specified territory is already occupied by a Nokai.\");\r\n        blackhole[pos].nokai = nokaiId;\r\n        nokaiPosition[nokaiId].onBoard = true;\r\n        nokaiPosition[nokaiId].x = x;\r\n        nokaiPosition[nokaiId].y = y;\r\n    }\r\n\r\n    function _assignNokai(uint256 pos, uint16 x, uint16 y, uint256 nokaiId, address by) private {\r\n        require(blackhole[pos].owner == by, \"You are not the owner of the specified territory.\");\r\n        require(blackhole[pos].nokai == 0, \"Specified territory is already occupied by a Nokai.\");\r\n        blackhole[pos].nokai = nokaiId;\r\n        nokaiPosition[nokaiId].onBoard = true;\r\n        nokaiPosition[nokaiId].x = x;\r\n        nokaiPosition[nokaiId].y = y;\r\n    }\r\n\r\n    function withdrawDeadNokai(uint16 x, uint16 y, uint256 nokaiId) external onlyRole(GAME_MANAGER_ROLE) {\r\n        _withdrawNokai((y * maxX) + x, nokaiId);\r\n    }\r\n\r\n    function withdrawNokai(uint16 x, uint16 y, uint256 nokaiId, address by) external onlyRole(GAME_MANAGER_ROLE) {\r\n        uint256 pos = (y * maxX) + x;\r\n        require(blackhole[pos].owner == by, \"You are not the owner of the specified territory.\");\r\n        require(blackhole[pos].nokai == 1, \"Specified territory is not occupied by a Nokai.\");\r\n        _withdrawNokai(pos, nokaiId);\r\n    }\r\n\r\n    function _withdrawNokai(uint256 pos, uint256 nokaiId) internal {\r\n        require(blackhole[pos].nokai == nokaiId, \"Specified Nokai is not on specified territory.\");\r\n        blackhole[pos].nokai = 0;\r\n        nokaiPosition[nokaiId].onBoard = false;\r\n        nokaiPosition[nokaiId].x = 0;\r\n        nokaiPosition[nokaiId].y = 0;\r\n    }\r\n\r\n\r\n    function conquest(uint16 fromX, uint16 fromY, uint16 toX, uint16 toY, address by) external onlyRole(GAME_MANAGER_ROLE) {\r\n        uint256 from = (toY * maxX) + toX;\r\n        uint256 to = (toY * maxX) + toX;\r\n        require(blackhole[from].owner == by, \"You are not the owner of the original territory.\");\r\n        require(blackhole[from].owner != blackhole[to].owner, \"Current and target territories are from the same owner.\");\r\n        require(blackhole[to].nokai == 0, \"Target territory is still defended by a Nokai.\");\r\n        require(blackhole[from].nokai != 0, \"Current territory does not have any Nokai to move.\");\r\n\r\n        address previousOwner = blackhole[to].owner;\r\n\r\n        userTerritoryCount[previousOwner] = userTerritoryCount[previousOwner] > 0 ? userTerritoryCount[previousOwner] - 1 : 0;\r\n        userTerritoryCount[by] += 1;\r\n\r\n        blackhole[to].owner = by;\r\n        _assignNokai(to, toX, toY, blackhole[from].nokai, by);\r\n        blackhole[from].nokai = 0;\r\n\r\n        _discover(toX, toY, blackhole[from].owner);\r\n        emit NokaiMoved(fromX, fromY, toX, toY, blackhole[to].nokai, blackhole[from].owner);\r\n        emit SlotConquered(toX, toY, previousOwner, by);\r\n    }\r\n\r\n    function move(uint16 fromX, uint16 fromY, uint16 toX, uint16 toY, address by) external onlyRole(GAME_MANAGER_ROLE) {\r\n        uint256 from = (toY * maxX) + toX;\r\n        uint256 to = (toY * maxX) + toX;\r\n        require(blackhole[from].owner == blackhole[to].owner, \"Current and target territories are not from the same owner.\");\r\n        require(blackhole[from].nokai != 0, \"Current territory does not have any Nokai to move.\");\r\n\r\n        _assignNokai(to, toX, toY, blackhole[from].nokai, by);\r\n        blackhole[from].nokai = 0;\r\n\r\n        _discover(toX, toY, blackhole[from].owner);\r\n        emit NokaiMoved(fromX, fromY, toX, toY, blackhole[to].nokai, blackhole[from].owner);\r\n    }\r\n\r\n    function _discover(uint16 x, uint16 y, address by) private {\r\n        _discoverSlot(x - 1, y, by);\r\n        _discoverSlot(x, y - 1, by);\r\n        _discoverSlot(x + 1, y - 1, by);\r\n        _discoverSlot(x + 1, y, by);\r\n        _discoverSlot(x + 1, y + 1, by);\r\n        _discoverSlot(x, y + 1, by);\r\n    }\r\n\r\n    function _discoverSlot(uint16 x, uint16 y, address by) private {\r\n        uint256 pos = (y * maxX) + x;\r\n        if (blackhole[pos].discovered == false) {\r\n            uint256 wealth = 10;\r\n            if (wealth > totalPos / 4 && wealth < (totalPos / 4) * 3) {\r\n                wealth = 40;\r\n            }\r\n            if (wealth > ((totalPos / 5) * 2) && wealth < (totalPos / 5) * 3) {\r\n                wealth = 80;\r\n            }\r\n            uint256 darkMatter = RandomUtils._rand(pos, 100) + wealth;\r\n            uint256 plasmaEnergy = RandomUtils._rand(pos + 1, 100) + wealth;\r\n            uint256 voidEssence = RandomUtils._rand(pos + 2, 100) + wealth;\r\n            if (darkMatter < plasmaEnergy || darkMatter < voidEssence) {\r\n                darkMatter = 0;\r\n            }\r\n            if (plasmaEnergy < darkMatter || plasmaEnergy < voidEssence) {\r\n                plasmaEnergy = 0;\r\n            }\r\n            if (voidEssence < darkMatter || voidEssence < plasmaEnergy) {\r\n                voidEssence = 0;\r\n            }\r\n            blackhole[pos] = Territory({\r\n            x : x,\r\n            y : y,\r\n            darkEnergy : 0,\r\n            darkMatter : darkMatter,\r\n            plasmaEnergy : plasmaEnergy,\r\n            voidEssence : voidEssence / 10,\r\n            nokai : 0,\r\n            extractor : Extractor({level : 0, cost : 500, lastExtract : block.timestamp}),\r\n            owner : by,\r\n            discovered : true\r\n            });\r\n            emit SlotDiscovered(x, y, by);\r\n        }\r\n    }\r\n\r\n    function nokaiAt(uint16 x, uint16 y) external view returns (uint256) {\r\n        return blackhole[(y * maxX) + x].nokai;\r\n    }\r\n\r\n    function nokaiPos(uint256 nokaiId) external view returns (Position memory) {\r\n        return nokaiPosition[nokaiId];\r\n    }\r\n\r\n    function territoryCount(address user) external view returns (uint256) {\r\n        return userTerritoryCount[user];\r\n    }\r\n\r\n    function extractorCostAt(uint16 x, uint16 y) external view returns (uint256) {\r\n        return blackhole[(y * maxX) + x].extractor.cost;\r\n    }\r\n\r\n    function get(uint16 x, uint16 y) external view returns (Territory memory) {\r\n        return blackhole[(y * maxX) + x];\r\n    }\r\n\r\n    function getForRange(uint256 from, uint256 to) external view returns (Territory[] memory) {\r\n        require(from >= 0 && to < totalPos, \"invalid range request\");\r\n        Territory[] memory _blackhole = new Territory[](to - from);\r\n        for (uint256 i = from; i < to; i++) {\r\n            _blackhole[i] = blackhole[i];\r\n        }\r\n        return _blackhole;\r\n    }\r\n\r\n    function getFor(uint256[] calldata choices) external view returns (Territory[] memory) {\r\n        Territory[] memory _blackhole = new Territory[](choices.length);\r\n        for (uint256 i = 0; i < choices.length; i++) {\r\n            uint256 pos = choices[i];\r\n            if (pos >= 0 && pos < totalPos) {\r\n                _blackhole[i] = blackhole[pos];\r\n            }\r\n        }\r\n        return _blackhole;\r\n    }\r\n\r\n    function getForBox(uint256 startPos, uint256 endPos, uint256 startLine, uint256 endLine) external view returns (Territory[] memory) {\r\n        require(startPos < endPos && startPos >= 0 && endPos < maxX && startLine < endLine && startLine >= 0 && endLine < maxY, \"invalid box request\");\r\n        Territory[] memory _blackhole = new Territory[]((endPos - startPos) * (endLine - startLine));\r\n        uint256 i = 0;\r\n        for (uint256 line = startLine; line < endLine; line++) {\r\n            for (uint256 pos = startPos; pos < endPos; pos++) {\r\n                _blackhole[i++] = blackhole[(line * maxX) + pos];\r\n            }\r\n        }\r\n        return _blackhole;\r\n    }\r\n\r\n    function getAvailableForBox(uint256 startPos, uint256 endPos, uint256 startLine, uint256 endLine) external view returns (uint256[] memory) {\r\n        require(startPos < endPos && startPos >= 0 && endPos < maxX && startLine < endLine && startLine >= 0 && endLine < maxY, \"invalid box request\");\r\n        uint256[] memory _available = new uint256[]((endPos - startPos) * (endLine - startLine));\r\n        uint256 i = 0;\r\n        for (uint256 line = startLine; line < endLine; line++) {\r\n            for (uint256 pos = startPos; pos < endPos; pos++) {\r\n                if (blackhole[(line * maxX) + pos].owner == address(0)) {\r\n                    _available[i++] = (line * maxX) + pos;\r\n                }\r\n            }\r\n        }\r\n        return _available;\r\n    }\r\n\r\n    event SlotDiscovered(uint16 x, uint16 y, address by);\r\n    event SlotConquered(uint16 x, uint16 y, address indexed previousOwner, address indexed newOwner);\r\n    event NokaiMoved(uint16 fromX, uint16 fromY, uint16 toX, uint16 toY, uint256 indexed nokai, address indexed owner);\r\n    event TerritoryExtracted(uint16 x, uint16 y, address by);\r\n    event ExtractorUpgraded(uint16 x, uint16 y, address by, uint256 level);\r\n}",
  "sourcePath": "C:\\Users\\KevinGeorgesAndres\\Documents\\projects\\perso\\blackhole-evm\\contracts\\game\\BlackHole.sol",
  "compiler": {
    "name": "solc",
    "version": "0.8.0+commit.c7dfd78e.Emscripten.clang"
  },
  "schemaVersion": "3.4.3",
  "updatedAt": "2021-12-10T04:31:05.339Z",
  "networkType": "ethereum",
  "devdoc": {
    "kind": "dev",
    "methods": {
      "getRoleAdmin(bytes32)": {
        "details": "Returns the admin role that controls `role`. See {grantRole} and {revokeRole}. To change a role's admin, use {_setRoleAdmin}."
      },
      "grantRole(bytes32,address)": {
        "details": "Grants `role` to `account`. If `account` had not been already granted `role`, emits a {RoleGranted} event. Requirements: - the caller must have ``role``'s admin role."
      },
      "hasRole(bytes32,address)": {
        "details": "Returns `true` if `account` has been granted `role`."
      },
      "renounceRole(bytes32,address)": {
        "details": "Revokes `role` from the calling account. Roles are often managed via {grantRole} and {revokeRole}: this function's purpose is to provide a mechanism for accounts to lose their privileges if they are compromised (such as when a trusted device is misplaced). If the calling account had been revoked `role`, emits a {RoleRevoked} event. Requirements: - the caller must be `account`."
      },
      "revokeRole(bytes32,address)": {
        "details": "Revokes `role` from `account`. If `account` had been granted `role`, emits a {RoleRevoked} event. Requirements: - the caller must have ``role``'s admin role."
      },
      "supportsInterface(bytes4)": {
        "details": "See {IERC165-supportsInterface}."
      }
    },
    "version": 1
  },
  "userdoc": {
    "kind": "user",
    "methods": {},
    "version": 1
  }
}