{
  "contractName": "BlackHole",
  "abi": [
    {
      "inputs": [
        {
          "internalType": "string",
          "name": "_name",
          "type": "string"
        },
        {
          "internalType": "uint16",
          "name": "_width",
          "type": "uint16"
        },
        {
          "internalType": "uint16",
          "name": "_height",
          "type": "uint16"
        }
      ],
      "stateMutability": "nonpayable",
      "type": "constructor"
    },
    {
      "anonymous": false,
      "inputs": [
        {
          "indexed": false,
          "internalType": "uint16",
          "name": "x",
          "type": "uint16"
        },
        {
          "indexed": false,
          "internalType": "uint16",
          "name": "y",
          "type": "uint16"
        },
        {
          "indexed": false,
          "internalType": "address",
          "name": "by",
          "type": "address"
        },
        {
          "indexed": false,
          "internalType": "uint256",
          "name": "level",
          "type": "uint256"
        }
      ],
      "name": "ExtractorUpgraded",
      "type": "event"
    },
    {
      "anonymous": false,
      "inputs": [
        {
          "indexed": false,
          "internalType": "uint16",
          "name": "fromX",
          "type": "uint16"
        },
        {
          "indexed": false,
          "internalType": "uint16",
          "name": "fromY",
          "type": "uint16"
        },
        {
          "indexed": false,
          "internalType": "uint16",
          "name": "toX",
          "type": "uint16"
        },
        {
          "indexed": false,
          "internalType": "uint16",
          "name": "toY",
          "type": "uint16"
        },
        {
          "indexed": true,
          "internalType": "uint256",
          "name": "nokai",
          "type": "uint256"
        },
        {
          "indexed": true,
          "internalType": "address",
          "name": "owner",
          "type": "address"
        }
      ],
      "name": "NokaiMoved",
      "type": "event"
    },
    {
      "anonymous": false,
      "inputs": [
        {
          "indexed": true,
          "internalType": "bytes32",
          "name": "role",
          "type": "bytes32"
        },
        {
          "indexed": true,
          "internalType": "bytes32",
          "name": "previousAdminRole",
          "type": "bytes32"
        },
        {
          "indexed": true,
          "internalType": "bytes32",
          "name": "newAdminRole",
          "type": "bytes32"
        }
      ],
      "name": "RoleAdminChanged",
      "type": "event"
    },
    {
      "anonymous": false,
      "inputs": [
        {
          "indexed": true,
          "internalType": "bytes32",
          "name": "role",
          "type": "bytes32"
        },
        {
          "indexed": true,
          "internalType": "address",
          "name": "account",
          "type": "address"
        },
        {
          "indexed": true,
          "internalType": "address",
          "name": "sender",
          "type": "address"
        }
      ],
      "name": "RoleGranted",
      "type": "event"
    },
    {
      "anonymous": false,
      "inputs": [
        {
          "indexed": true,
          "internalType": "bytes32",
          "name": "role",
          "type": "bytes32"
        },
        {
          "indexed": true,
          "internalType": "address",
          "name": "account",
          "type": "address"
        },
        {
          "indexed": true,
          "internalType": "address",
          "name": "sender",
          "type": "address"
        }
      ],
      "name": "RoleRevoked",
      "type": "event"
    },
    {
      "anonymous": false,
      "inputs": [
        {
          "indexed": false,
          "internalType": "uint16",
          "name": "x",
          "type": "uint16"
        },
        {
          "indexed": false,
          "internalType": "uint16",
          "name": "y",
          "type": "uint16"
        },
        {
          "indexed": true,
          "internalType": "address",
          "name": "previousOwner",
          "type": "address"
        },
        {
          "indexed": true,
          "internalType": "address",
          "name": "newOwner",
          "type": "address"
        }
      ],
      "name": "SlotConquered",
      "type": "event"
    },
    {
      "anonymous": false,
      "inputs": [
        {
          "indexed": false,
          "internalType": "uint16",
          "name": "x",
          "type": "uint16"
        },
        {
          "indexed": false,
          "internalType": "uint16",
          "name": "y",
          "type": "uint16"
        },
        {
          "indexed": false,
          "internalType": "address",
          "name": "by",
          "type": "address"
        }
      ],
      "name": "SlotDiscovered",
      "type": "event"
    },
    {
      "anonymous": false,
      "inputs": [
        {
          "indexed": false,
          "internalType": "uint16",
          "name": "x",
          "type": "uint16"
        },
        {
          "indexed": false,
          "internalType": "uint16",
          "name": "y",
          "type": "uint16"
        },
        {
          "indexed": false,
          "internalType": "address",
          "name": "by",
          "type": "address"
        }
      ],
      "name": "TerritoryExtracted",
      "type": "event"
    },
    {
      "inputs": [],
      "name": "DEFAULT_ADMIN_ROLE",
      "outputs": [
        {
          "internalType": "bytes32",
          "name": "",
          "type": "bytes32"
        }
      ],
      "stateMutability": "view",
      "type": "function",
      "constant": true
    },
    {
      "inputs": [],
      "name": "GAME_MANAGER_ROLE",
      "outputs": [
        {
          "internalType": "bytes32",
          "name": "",
          "type": "bytes32"
        }
      ],
      "stateMutability": "view",
      "type": "function",
      "constant": true
    },
    {
      "inputs": [
        {
          "internalType": "bytes32",
          "name": "role",
          "type": "bytes32"
        }
      ],
      "name": "getRoleAdmin",
      "outputs": [
        {
          "internalType": "bytes32",
          "name": "",
          "type": "bytes32"
        }
      ],
      "stateMutability": "view",
      "type": "function",
      "constant": true
    },
    {
      "inputs": [
        {
          "internalType": "bytes32",
          "name": "role",
          "type": "bytes32"
        },
        {
          "internalType": "address",
          "name": "account",
          "type": "address"
        }
      ],
      "name": "grantRole",
      "outputs": [],
      "stateMutability": "nonpayable",
      "type": "function"
    },
    {
      "inputs": [
        {
          "internalType": "bytes32",
          "name": "role",
          "type": "bytes32"
        },
        {
          "internalType": "address",
          "name": "account",
          "type": "address"
        }
      ],
      "name": "hasRole",
      "outputs": [
        {
          "internalType": "bool",
          "name": "",
          "type": "bool"
        }
      ],
      "stateMutability": "view",
      "type": "function",
      "constant": true
    },
    {
      "inputs": [],
      "name": "maxX",
      "outputs": [
        {
          "internalType": "uint16",
          "name": "",
          "type": "uint16"
        }
      ],
      "stateMutability": "view",
      "type": "function",
      "constant": true
    },
    {
      "inputs": [],
      "name": "maxY",
      "outputs": [
        {
          "internalType": "uint16",
          "name": "",
          "type": "uint16"
        }
      ],
      "stateMutability": "view",
      "type": "function",
      "constant": true
    },
    {
      "inputs": [],
      "name": "name",
      "outputs": [
        {
          "internalType": "string",
          "name": "",
          "type": "string"
        }
      ],
      "stateMutability": "view",
      "type": "function",
      "constant": true
    },
    {
      "inputs": [
        {
          "internalType": "bytes32",
          "name": "role",
          "type": "bytes32"
        },
        {
          "internalType": "address",
          "name": "account",
          "type": "address"
        }
      ],
      "name": "renounceRole",
      "outputs": [],
      "stateMutability": "nonpayable",
      "type": "function"
    },
    {
      "inputs": [
        {
          "internalType": "bytes32",
          "name": "role",
          "type": "bytes32"
        },
        {
          "internalType": "address",
          "name": "account",
          "type": "address"
        }
      ],
      "name": "revokeRole",
      "outputs": [],
      "stateMutability": "nonpayable",
      "type": "function"
    },
    {
      "inputs": [
        {
          "internalType": "bytes4",
          "name": "interfaceId",
          "type": "bytes4"
        }
      ],
      "name": "supportsInterface",
      "outputs": [
        {
          "internalType": "bool",
          "name": "",
          "type": "bool"
        }
      ],
      "stateMutability": "view",
      "type": "function",
      "constant": true
    },
    {
      "inputs": [],
      "name": "totalPos",
      "outputs": [
        {
          "internalType": "uint256",
          "name": "",
          "type": "uint256"
        }
      ],
      "stateMutability": "view",
      "type": "function",
      "constant": true
    },
    {
      "inputs": [
        {
          "internalType": "uint16",
          "name": "x",
          "type": "uint16"
        },
        {
          "internalType": "uint16",
          "name": "y",
          "type": "uint16"
        },
        {
          "internalType": "address",
          "name": "by",
          "type": "address"
        }
      ],
      "name": "completeExtraction",
      "outputs": [
        {
          "internalType": "uint256",
          "name": "",
          "type": "uint256"
        },
        {
          "internalType": "uint256",
          "name": "",
          "type": "uint256"
        },
        {
          "internalType": "uint256",
          "name": "",
          "type": "uint256"
        },
        {
          "internalType": "uint256",
          "name": "",
          "type": "uint256"
        }
      ],
      "stateMutability": "nonpayable",
      "type": "function"
    },
    {
      "inputs": [
        {
          "internalType": "uint16",
          "name": "x",
          "type": "uint16"
        },
        {
          "internalType": "uint16",
          "name": "y",
          "type": "uint16"
        },
        {
          "internalType": "address",
          "name": "by",
          "type": "address"
        }
      ],
      "name": "upgradeExtractor",
      "outputs": [],
      "stateMutability": "nonpayable",
      "type": "function"
    },
    {
      "inputs": [
        {
          "internalType": "uint16",
          "name": "x",
          "type": "uint16"
        },
        {
          "internalType": "uint16",
          "name": "y",
          "type": "uint16"
        },
        {
          "internalType": "uint256",
          "name": "nokaiId",
          "type": "uint256"
        },
        {
          "internalType": "address",
          "name": "by",
          "type": "address"
        }
      ],
      "name": "assignNokai",
      "outputs": [],
      "stateMutability": "nonpayable",
      "type": "function"
    },
    {
      "inputs": [
        {
          "internalType": "uint16",
          "name": "x",
          "type": "uint16"
        },
        {
          "internalType": "uint16",
          "name": "y",
          "type": "uint16"
        },
        {
          "internalType": "uint256",
          "name": "nokaiId",
          "type": "uint256"
        }
      ],
      "name": "withdrawDeadNokai",
      "outputs": [],
      "stateMutability": "nonpayable",
      "type": "function"
    },
    {
      "inputs": [
        {
          "internalType": "uint16",
          "name": "x",
          "type": "uint16"
        },
        {
          "internalType": "uint16",
          "name": "y",
          "type": "uint16"
        },
        {
          "internalType": "uint256",
          "name": "nokaiId",
          "type": "uint256"
        },
        {
          "internalType": "address",
          "name": "by",
          "type": "address"
        }
      ],
      "name": "withdrawNokai",
      "outputs": [],
      "stateMutability": "nonpayable",
      "type": "function"
    },
    {
      "inputs": [
        {
          "internalType": "uint16",
          "name": "fromX",
          "type": "uint16"
        },
        {
          "internalType": "uint16",
          "name": "fromY",
          "type": "uint16"
        },
        {
          "internalType": "uint16",
          "name": "toX",
          "type": "uint16"
        },
        {
          "internalType": "uint16",
          "name": "toY",
          "type": "uint16"
        },
        {
          "internalType": "address",
          "name": "by",
          "type": "address"
        }
      ],
      "name": "conquest",
      "outputs": [],
      "stateMutability": "nonpayable",
      "type": "function"
    },
    {
      "inputs": [
        {
          "internalType": "uint16",
          "name": "fromX",
          "type": "uint16"
        },
        {
          "internalType": "uint16",
          "name": "fromY",
          "type": "uint16"
        },
        {
          "internalType": "uint16",
          "name": "toX",
          "type": "uint16"
        },
        {
          "internalType": "uint16",
          "name": "toY",
          "type": "uint16"
        },
        {
          "internalType": "address",
          "name": "by",
          "type": "address"
        }
      ],
      "name": "move",
      "outputs": [],
      "stateMutability": "nonpayable",
      "type": "function"
    },
    {
      "inputs": [
        {
          "internalType": "uint16",
          "name": "x",
          "type": "uint16"
        },
        {
          "internalType": "uint16",
          "name": "y",
          "type": "uint16"
        }
      ],
      "name": "nokaiAt",
      "outputs": [
        {
          "internalType": "uint256",
          "name": "",
          "type": "uint256"
        }
      ],
      "stateMutability": "view",
      "type": "function",
      "constant": true
    },
    {
      "inputs": [
        {
          "internalType": "uint256",
          "name": "nokaiId",
          "type": "uint256"
        }
      ],
      "name": "nokaiPos",
      "outputs": [
        {
          "components": [
            {
              "internalType": "bool",
              "name": "onBoard",
              "type": "bool"
            },
            {
              "internalType": "uint16",
              "name": "x",
              "type": "uint16"
            },
            {
              "internalType": "uint16",
              "name": "y",
              "type": "uint16"
            }
          ],
          "internalType": "struct BlackHole.Position",
          "name": "",
          "type": "tuple"
        }
      ],
      "stateMutability": "view",
      "type": "function",
      "constant": true
    },
    {
      "inputs": [
        {
          "internalType": "address",
          "name": "user",
          "type": "address"
        }
      ],
      "name": "territoryCount",
      "outputs": [
        {
          "internalType": "uint256",
          "name": "",
          "type": "uint256"
        }
      ],
      "stateMutability": "view",
      "type": "function",
      "constant": true
    },
    {
      "inputs": [
        {
          "internalType": "uint16",
          "name": "x",
          "type": "uint16"
        },
        {
          "internalType": "uint16",
          "name": "y",
          "type": "uint16"
        }
      ],
      "name": "extractorCostAt",
      "outputs": [
        {
          "internalType": "uint256",
          "name": "",
          "type": "uint256"
        }
      ],
      "stateMutability": "view",
      "type": "function",
      "constant": true
    },
    {
      "inputs": [
        {
          "internalType": "uint16",
          "name": "x",
          "type": "uint16"
        },
        {
          "internalType": "uint16",
          "name": "y",
          "type": "uint16"
        }
      ],
      "name": "get",
      "outputs": [
        {
          "components": [
            {
              "internalType": "uint16",
              "name": "x",
              "type": "uint16"
            },
            {
              "internalType": "uint16",
              "name": "y",
              "type": "uint16"
            },
            {
              "internalType": "uint256",
              "name": "darkEnergy",
              "type": "uint256"
            },
            {
              "internalType": "uint256",
              "name": "darkMatter",
              "type": "uint256"
            },
            {
              "internalType": "uint256",
              "name": "plasmaEnergy",
              "type": "uint256"
            },
            {
              "internalType": "uint256",
              "name": "voidEssence",
              "type": "uint256"
            },
            {
              "components": [
                {
                  "internalType": "uint256",
                  "name": "level",
                  "type": "uint256"
                },
                {
                  "internalType": "uint256",
                  "name": "cost",
                  "type": "uint256"
                },
                {
                  "internalType": "uint256",
                  "name": "lastExtract",
                  "type": "uint256"
                }
              ],
              "internalType": "struct BlackHole.Extractor",
              "name": "extractor",
              "type": "tuple"
            },
            {
              "internalType": "uint256",
              "name": "nokai",
              "type": "uint256"
            },
            {
              "internalType": "address",
              "name": "owner",
              "type": "address"
            },
            {
              "internalType": "bool",
              "name": "discovered",
              "type": "bool"
            }
          ],
          "internalType": "struct BlackHole.Territory",
          "name": "",
          "type": "tuple"
        }
      ],
      "stateMutability": "view",
      "type": "function",
      "constant": true
    },
    {
      "inputs": [
        {
          "internalType": "uint256",
          "name": "from",
          "type": "uint256"
        },
        {
          "internalType": "uint256",
          "name": "to",
          "type": "uint256"
        }
      ],
      "name": "getForRange",
      "outputs": [
        {
          "components": [
            {
              "internalType": "uint16",
              "name": "x",
              "type": "uint16"
            },
            {
              "internalType": "uint16",
              "name": "y",
              "type": "uint16"
            },
            {
              "internalType": "uint256",
              "name": "darkEnergy",
              "type": "uint256"
            },
            {
              "internalType": "uint256",
              "name": "darkMatter",
              "type": "uint256"
            },
            {
              "internalType": "uint256",
              "name": "plasmaEnergy",
              "type": "uint256"
            },
            {
              "internalType": "uint256",
              "name": "voidEssence",
              "type": "uint256"
            },
            {
              "components": [
                {
                  "internalType": "uint256",
                  "name": "level",
                  "type": "uint256"
                },
                {
                  "internalType": "uint256",
                  "name": "cost",
                  "type": "uint256"
                },
                {
                  "internalType": "uint256",
                  "name": "lastExtract",
                  "type": "uint256"
                }
              ],
              "internalType": "struct BlackHole.Extractor",
              "name": "extractor",
              "type": "tuple"
            },
            {
              "internalType": "uint256",
              "name": "nokai",
              "type": "uint256"
            },
            {
              "internalType": "address",
              "name": "owner",
              "type": "address"
            },
            {
              "internalType": "bool",
              "name": "discovered",
              "type": "bool"
            }
          ],
          "internalType": "struct BlackHole.Territory[]",
          "name": "",
          "type": "tuple[]"
        }
      ],
      "stateMutability": "view",
      "type": "function",
      "constant": true
    },
    {
      "inputs": [
        {
          "internalType": "uint256[]",
          "name": "choices",
          "type": "uint256[]"
        }
      ],
      "name": "getFor",
      "outputs": [
        {
          "components": [
            {
              "internalType": "uint16",
              "name": "x",
              "type": "uint16"
            },
            {
              "internalType": "uint16",
              "name": "y",
              "type": "uint16"
            },
            {
              "internalType": "uint256",
              "name": "darkEnergy",
              "type": "uint256"
            },
            {
              "internalType": "uint256",
              "name": "darkMatter",
              "type": "uint256"
            },
            {
              "internalType": "uint256",
              "name": "plasmaEnergy",
              "type": "uint256"
            },
            {
              "internalType": "uint256",
              "name": "voidEssence",
              "type": "uint256"
            },
            {
              "components": [
                {
                  "internalType": "uint256",
                  "name": "level",
                  "type": "uint256"
                },
                {
                  "internalType": "uint256",
                  "name": "cost",
                  "type": "uint256"
                },
                {
                  "internalType": "uint256",
                  "name": "lastExtract",
                  "type": "uint256"
                }
              ],
              "internalType": "struct BlackHole.Extractor",
              "name": "extractor",
              "type": "tuple"
            },
            {
              "internalType": "uint256",
              "name": "nokai",
              "type": "uint256"
            },
            {
              "internalType": "address",
              "name": "owner",
              "type": "address"
            },
            {
              "internalType": "bool",
              "name": "discovered",
              "type": "bool"
            }
          ],
          "internalType": "struct BlackHole.Territory[]",
          "name": "",
          "type": "tuple[]"
        }
      ],
      "stateMutability": "view",
      "type": "function",
      "constant": true
    },
    {
      "inputs": [
        {
          "internalType": "uint256",
          "name": "startPos",
          "type": "uint256"
        },
        {
          "internalType": "uint256",
          "name": "endPos",
          "type": "uint256"
        },
        {
          "internalType": "uint256",
          "name": "startLine",
          "type": "uint256"
        },
        {
          "internalType": "uint256",
          "name": "endLine",
          "type": "uint256"
        }
      ],
      "name": "getForBox",
      "outputs": [
        {
          "components": [
            {
              "internalType": "uint16",
              "name": "x",
              "type": "uint16"
            },
            {
              "internalType": "uint16",
              "name": "y",
              "type": "uint16"
            },
            {
              "internalType": "uint256",
              "name": "darkEnergy",
              "type": "uint256"
            },
            {
              "internalType": "uint256",
              "name": "darkMatter",
              "type": "uint256"
            },
            {
              "internalType": "uint256",
              "name": "plasmaEnergy",
              "type": "uint256"
            },
            {
              "internalType": "uint256",
              "name": "voidEssence",
              "type": "uint256"
            },
            {
              "components": [
                {
                  "internalType": "uint256",
                  "name": "level",
                  "type": "uint256"
                },
                {
                  "internalType": "uint256",
                  "name": "cost",
                  "type": "uint256"
                },
                {
                  "internalType": "uint256",
                  "name": "lastExtract",
                  "type": "uint256"
                }
              ],
              "internalType": "struct BlackHole.Extractor",
              "name": "extractor",
              "type": "tuple"
            },
            {
              "internalType": "uint256",
              "name": "nokai",
              "type": "uint256"
            },
            {
              "internalType": "address",
              "name": "owner",
              "type": "address"
            },
            {
              "internalType": "bool",
              "name": "discovered",
              "type": "bool"
            }
          ],
          "internalType": "struct BlackHole.Territory[]",
          "name": "",
          "type": "tuple[]"
        }
      ],
      "stateMutability": "view",
      "type": "function",
      "constant": true
    },
    {
      "inputs": [
        {
          "internalType": "uint256",
          "name": "startPos",
          "type": "uint256"
        },
        {
          "internalType": "uint256",
          "name": "endPos",
          "type": "uint256"
        },
        {
          "internalType": "uint256",
          "name": "startLine",
          "type": "uint256"
        },
        {
          "internalType": "uint256",
          "name": "endLine",
          "type": "uint256"
        }
      ],
      "name": "getAvailableForBox",
      "outputs": [
        {
          "internalType": "uint256[]",
          "name": "",
          "type": "uint256[]"
        }
      ],
      "stateMutability": "view",
      "type": "function",
      "constant": true
    }
  ],
  "bytecode": "0x60806040523480156200001157600080fd5b506040516200588b3803806200588b833981810160405281019062000037919062000600565b82600190805190602001906200004f929190620004c7565b5081600260006101000a81548161ffff021916908361ffff160217905550806002806101000a81548161ffff021916908361ffff16021790555060028054906101000a900461ffff16600260009054906101000a900461ffff16620000b591906200074d565b61ffff16600381905550620000de60006001023362000333640100000000026401000000009004565b60405180610140016040528060028060009054906101000a900461ffff1662000108919062000715565b61ffff16815260200160028060029054906101000a900461ffff166200012f919062000715565b61ffff168152602001600a81526020016064815260200160648152602001606481526020016040518060600160405280600181526020016103e8815260200142815250815260200160008152602001600073ffffffffffffffffffffffffffffffffffffffff168152602001600115158152506005600060028060009054906101000a900461ffff16620001c4919062000715565b600260009054906101000a900461ffff1660028060029054906101000a900461ffff16620001f3919062000715565b620001ff91906200074d565b6200020b9190620006d6565b61ffff16815260200190815260200160002060008201518160000160006101000a81548161ffff021916908361ffff16021790555060208201518160000160026101000a81548161ffff021916908361ffff16021790555060408201518160010155606082015181600201556080820151816003015560a0820151816004015560c082015181600501600082015181600001556020820151816001015560408201518160020155505060e082015181600801556101008201518160090160006101000a81548173ffffffffffffffffffffffffffffffffffffffff021916908373ffffffffffffffffffffffffffffffffffffffff1602179055506101208201518160090160146101000a81548160ff021916908315150217905550905050505050620008e0565b6200034e828262000352640100000000026401000000009004565b5050565b6200036d828262000455640100000000026401000000009004565b6200045157600160008084815260200190815260200160002060000160008373ffffffffffffffffffffffffffffffffffffffff1673ffffffffffffffffffffffffffffffffffffffff16815260200190815260200160002060006101000a81548160ff021916908315150217905550620003f6620004bf640100000000026401000000009004565b73ffffffffffffffffffffffffffffffffffffffff168173ffffffffffffffffffffffffffffffffffffffff16837f2f8788117e7eff1d82e926ec794901d17c78024a50270940304540a733656f0d60405160405180910390a45b5050565b600080600084815260200190815260200160002060000160008373ffffffffffffffffffffffffffffffffffffffff1673ffffffffffffffffffffffffffffffffffffffff16815260200190815260200160002060009054906101000a900460ff16905092915050565b600033905090565b828054620004d590620007d4565b90600052602060002090601f016020900481019282620004f9576000855562000545565b82601f106200051457805160ff191683800117855562000545565b8280016001018555821562000545579182015b828111156200054457825182559160200191906001019062000527565b5b50905062000554919062000558565b5090565b5b808211156200057357600081600090555060010162000559565b5090565b60006200058e6200058884620006a3565b6200066f565b905082815260208101848484011115620005a757600080fd5b620005b48482856200079e565b509392505050565b600082601f830112620005ce57600080fd5b8151620005e084826020860162000577565b91505092915050565b600081519050620005fa81620008c6565b92915050565b6000806000606084860312156200061657600080fd5b600084015167ffffffffffffffff8111156200063157600080fd5b6200063f86828701620005bc565b93505060206200065286828701620005e9565b92505060406200066586828701620005e9565b9150509250925092565b6000604051905081810181811067ffffffffffffffff8211171562000699576200069862000897565b5b8060405250919050565b600067ffffffffffffffff821115620006c157620006c062000897565b5b601f19601f8301169050602081019050919050565b6000620006e38262000790565b9150620006f08362000790565b92508261ffff038211156200070a57620007096200080a565b5b828201905092915050565b6000620007228262000790565b91506200072f8362000790565b92508262000742576200074162000839565b5b828204905092915050565b60006200075a8262000790565b9150620007678362000790565b92508161ffff04831182151516156200078557620007846200080a565b5b828202905092915050565b600061ffff82169050919050565b60005b83811015620007be578082015181840152602081019050620007a1565b83811115620007ce576000848401525b50505050565b60006002820490506001821680620007ed57607f821691505b6020821081141562000804576200080362000868565b5b50919050565b7f4e487b7100000000000000000000000000000000000000000000000000000000600052601160045260246000fd5b7f4e487b7100000000000000000000000000000000000000000000000000000000600052601260045260246000fd5b7f4e487b7100000000000000000000000000000000000000000000000000000000600052602260045260246000fd5b7f4e487b7100000000000000000000000000000000000000000000000000000000600052604160045260246000fd5b620008d18162000790565b8114620008dd57600080fd5b50565b614f9b80620008f06000396000f3fe608060405234801561001057600080fd5b50600436106101e1576000357c0100000000000000000000000000000000000000000000000000000000900480638b04f64711610116578063cad86e51116100b4578063e86a59c41161008e578063e86a59c414610581578063fba785de1461059f578063ff6fcdbd146105cf578063ff7ae6ee146105ed576101e1565b8063cad86e5114610519578063d547741f14610535578063d9bedad414610551576101e1565b806394951550116100f0578063949515501461047f5780639bd0f28b146104af578063a217fddf146104cb578063b24baccb146104e9576101e1565b80638b04f647146104155780638e817b411461043357806391d148541461044f576101e1565b806336568abe1161018357806367ed36971161015d57806367ed36971461037b578063684fad90146103ab57806370d20d3e146103db57806385fc6940146103f9576101e1565b806336568abe146103135780633df40bd31461032f5780634be4f4861461035f576101e1565b806308be8abb116101bf57806308be8abb146102645780630f2fb69d14610297578063248a9ca3146102c75780632f2ff15d146102f7576101e1565b806301ffc9a7146101e6578063021c98c31461021657806306fdde0314610246575b600080fd5b61020060048036038101906101fb91906138bc565b610609565b60405161020d919061464e565b60405180910390f35b610230600480360381019061022b9190613afe565b610683565b60405161023d919061462c565b60405180910390f35b61024e610922565b60405161025b9190614684565b60405180910390f35b61027e60048036038101906102799190613921565b6109b0565b60405161028e94939291906149dd565b60405180910390f35b6102b160048036038101906102ac91906137e9565b610d26565b6040516102be91906149c2565b60405180910390f35b6102e160048036038101906102dc9190613857565b610d6f565b6040516102ee9190614669565b60405180910390f35b610311600480360381019061030c9190613880565b610d8e565b005b61032d60048036038101906103289190613880565b610db7565b005b61034960048036038101906103449190613ac2565b610e3a565b604051610356919061460a565b60405180910390f35b61037960048036038101906103749190613921565b6110ba565b005b61039560048036038101906103909190613a99565b61129c565b6040516103a29190614886565b60405180910390f35b6103c560048036038101906103c091906138e5565b611324565b6040516103d291906149c2565b60405180910390f35b6103e361136f565b6040516103f091906148bd565b60405180910390f35b610413600480360381019061040e9190613970565b611383565b005b61041d61199d565b60405161042a91906148bd565b60405180910390f35b61044d600480360381019061044891906139e7565b6119af565b005b61046960048036038101906104649190613880565b611a1b565b604051610476919061464e565b60405180910390f35b610499600480360381019061049491906138e5565b611a85565b6040516104a691906149c2565b60405180910390f35b6104c960048036038101906104c49190613a36565b611ad3565b005b6104d3611c43565b6040516104e09190614669565b60405180910390f35b61050360048036038101906104fe91906138e5565b611c4b565b60405161051091906148a1565b60405180910390f35b610533600480360381019061052e9190613a36565b611db9565b005b61054f600480360381019061054a9190613880565b611e89565b005b61056b60048036038101906105669190613afe565b611eb2565b604051610578919061460a565b60405180910390f35b6105896121f8565b60405161059691906149c2565b60405180910390f35b6105b960048036038101906105b49190613812565b6121fe565b6040516105c6919061460a565b60405180910390f35b6105d7612482565b6040516105e49190614669565b60405180910390f35b61060760048036038101906106029190613970565b6124a6565b005b60007f7965db0b000000000000000000000000000000000000000000000000000000007bffffffffffffffffffffffffffffffffffffffffffffffffffffffff1916827bffffffffffffffffffffffffffffffffffffffffffffffffffffffff1916148061067c575061067b82612795565b5b9050919050565b60608385108015610695575060008510155b80156106b55750600260009054906101000a900461ffff1661ffff168411155b80156106c057508183105b80156106cd575060008310155b80156106eb575060028054906101000a900461ffff1661ffff168211155b61072a576040517f08c379a000000000000000000000000000000000000000000000000000000000815260040161072190614826565b60405180910390fd5b600083836107389190614c44565b86866107449190614c44565b61074e9190614bb6565b67ffffffffffffffff81111561078d577f4e487b7100000000000000000000000000000000000000000000000000000000600052604160045260246000fd5b6040519080825280602002602001820160405280156107bb5781602001602082028036833780820191505090505b5090506000808590505b848110156109145760008890505b8781101561090057600073ffffffffffffffffffffffffffffffffffffffff166005600083600260009054906101000a900461ffff1661ffff16866108189190614bb6565b6108229190614af3565b815260200190815260200160002060090160009054906101000a900473ffffffffffffffffffffffffffffffffffffffff1673ffffffffffffffffffffffffffffffffffffffff1614156108ed5780600260009054906101000a900461ffff1661ffff16836108919190614bb6565b61089b9190614af3565b8484806108a790614d93565b9550815181106108e0577f4e487b7100000000000000000000000000000000000000000000000000000000600052603260045260246000fd5b6020026020010181815250505b80806108f890614d93565b9150506107d3565b50808061090c90614d93565b9150506107c5565b508192505050949350505050565b6001805461092f90614d61565b80601f016020809104026020016040519081016040528092919081815260200182805461095b90614d61565b80156109a85780601f1061097d576101008083540402835291602001916109a8565b820191906000526020600020905b81548152906001019060200180831161098b57829003601f168201915b505050505081565b6000806000807fef17b1f3c5a412f9c8e887e3abd186802afec7dc657fd3b7002bf87b128dd0b16109e8816109e36127ff565b612807565b600088600260009054906101000a900461ffff1689610a079190614b7a565b610a119190614abb565b61ffff1690508673ffffffffffffffffffffffffffffffffffffffff166005600083815260200190815260200160002060090160009054906101000a900473ffffffffffffffffffffffffffffffffffffffff1673ffffffffffffffffffffffffffffffffffffffff1614610abb576040517f08c379a0000000000000000000000000000000000000000000000000000000008152600401610ab2906147c6565b60405180910390fd5b6000610e10600560008481526020019081526020016000206005016002015442610ae59190614c44565b610aef9190614b49565b905042600560008481526020019081526020016000206005016002018190555060008060056000858152602001908152602001600020600101541415610b36576000610b7d565b8160056000858152602001908152602001600020600501600001546005600086815260200190815260200160002060010154610b729190614bb6565b610b7c9190614bb6565b5b905060008060056000868152602001908152602001600020600201541415610ba6576000610bed565b8260056000868152602001908152602001600020600501600001546005600087815260200190815260200160002060020154610be29190614bb6565b610bec9190614bb6565b5b905060008060056000878152602001908152602001600020600301541415610c16576000610c5d565b8360056000878152602001908152602001600020600501600001546005600088815260200190815260200160002060030154610c529190614bb6565b610c5c9190614bb6565b5b905060008060056000888152602001908152602001600020600401541415610c86576000610ccd565b8460056000888152602001908152602001600020600501600001546005600089815260200190815260200160002060040154610cc29190614bb6565b610ccc9190614bb6565b5b90507f49f00360f1bf5498a47c8bca06199209dcc94e1d9087f2d36afc4c0a30f7f1aa8e8e8e604051610d0293929190614901565b60405180910390a1838383839a509a509a509a505050505050505093509350935093565b6000600460008373ffffffffffffffffffffffffffffffffffffffff1673ffffffffffffffffffffffffffffffffffffffff168152602001908152602001600020549050919050565b6000806000838152602001908152602001600020600101549050919050565b610d9782610d6f565b610da881610da36127ff565b612807565b610db283836128a5565b505050565b610dbf6127ff565b73ffffffffffffffffffffffffffffffffffffffff168173ffffffffffffffffffffffffffffffffffffffff1614610e2c576040517f08c379a0000000000000000000000000000000000000000000000000000000008152600401610e2390614866565b60405180910390fd5b610e368282612985565b5050565b606060008310158015610e4e575060035482105b610e8d576040517f08c379a0000000000000000000000000000000000000000000000000000000008152600401610e84906146e6565b60405180910390fd5b60008383610e9b9190614c44565b67ffffffffffffffff811115610eda577f4e487b7100000000000000000000000000000000000000000000000000000000600052604160045260246000fd5b604051908082528060200260200182016040528015610f1357816020015b610f00613671565b815260200190600190039081610ef85790505b50905060008490505b838110156110af5760056000828152602001908152602001600020604051806101400160405290816000820160009054906101000a900461ffff1661ffff1661ffff1681526020016000820160029054906101000a900461ffff1661ffff1661ffff168152602001600182015481526020016002820154815260200160038201548152602001600482015481526020016005820160405180606001604052908160008201548152602001600182015481526020016002820154815250508152602001600882015481526020016009820160009054906101000a900473ffffffffffffffffffffffffffffffffffffffff1673ffffffffffffffffffffffffffffffffffffffff1673ffffffffffffffffffffffffffffffffffffffff1681526020016009820160149054906101000a900460ff161515151581525050828281518110611091577f4e487b7100000000000000000000000000000000000000000000000000000000600052603260045260246000fd5b602002602001018190525080806110a790614d93565b915050610f1c565b508091505092915050565b7fef17b1f3c5a412f9c8e887e3abd186802afec7dc657fd3b7002bf87b128dd0b16110ec816110e76127ff565b612807565b600084600260009054906101000a900461ffff168561110b9190614b7a565b6111159190614abb565b61ffff1690508273ffffffffffffffffffffffffffffffffffffffff166005600083815260200190815260200160002060090160009054906101000a900473ffffffffffffffffffffffffffffffffffffffff1673ffffffffffffffffffffffffffffffffffffffff16146111bf576040517f08c379a00000000000000000000000000000000000000000000000000000000081526004016111b6906147c6565b60405180910390fd5b60016005600083815260200190815260200160002060050160000160008282546111e99190614af3565b92505081905550600260056000838152602001908152602001600020600501600101600082825461121a9190614bb6565b925050819055504260056000838152602001908152602001600020600501600201819055507fb01f61f96739051313598e07a91ff2905b43a10aea863413abec3e20f00e41f8858585600560008681526020019081526020016000206005016000015460405161128d9493929190614938565b60405180910390a15050505050565b6112a46136ea565b600660008381526020019081526020016000206040518060600160405290816000820160009054906101000a900460ff161515151581526020016000820160019054906101000a900461ffff1661ffff1661ffff1681526020016000820160039054906101000a900461ffff1661ffff1661ffff16815250509050919050565b60006005600084600260009054906101000a900461ffff16856113479190614b7a565b6113519190614abb565b61ffff16815260200190815260200160002060080154905092915050565b600260009054906101000a900461ffff1681565b7fef17b1f3c5a412f9c8e887e3abd186802afec7dc657fd3b7002bf87b128dd0b16113b5816113b06127ff565b612807565b600084600260009054906101000a900461ffff16856113d49190614b7a565b6113de9190614abb565b61ffff169050600085600260009054906101000a900461ffff16866114039190614b7a565b61140d9190614abb565b61ffff1690508373ffffffffffffffffffffffffffffffffffffffff166005600084815260200190815260200160002060090160009054906101000a900473ffffffffffffffffffffffffffffffffffffffff1673ffffffffffffffffffffffffffffffffffffffff16146114b7576040517f08c379a00000000000000000000000000000000000000000000000000000000081526004016114ae90614766565b60405180910390fd5b6005600082815260200190815260200160002060090160009054906101000a900473ffffffffffffffffffffffffffffffffffffffff1673ffffffffffffffffffffffffffffffffffffffff166005600084815260200190815260200160002060090160009054906101000a900473ffffffffffffffffffffffffffffffffffffffff1673ffffffffffffffffffffffffffffffffffffffff161415611592576040517f08c379a0000000000000000000000000000000000000000000000000000000008152600401611589906147a6565b60405180910390fd5b60006005600083815260200190815260200160002060080154146115eb576040517f08c379a00000000000000000000000000000000000000000000000000000000081526004016115e290614706565b60405180910390fd5b600060056000848152602001908152602001600020600801541415611645576040517f08c379a000000000000000000000000000000000000000000000000000000000815260040161163c906146c6565b60405180910390fd5b60006005600083815260200190815260200160002060090160009054906101000a900473ffffffffffffffffffffffffffffffffffffffff1690506000600460008373ffffffffffffffffffffffffffffffffffffffff1673ffffffffffffffffffffffffffffffffffffffff16815260200190815260200160002054116116ce57600061171b565b6001600460008373ffffffffffffffffffffffffffffffffffffffff1673ffffffffffffffffffffffffffffffffffffffff1681526020019081526020016000205461171a9190614c44565b5b600460008373ffffffffffffffffffffffffffffffffffffffff1673ffffffffffffffffffffffffffffffffffffffff168152602001908152602001600020819055506001600460008773ffffffffffffffffffffffffffffffffffffffff1673ffffffffffffffffffffffffffffffffffffffff16815260200190815260200160002060008282546117ae9190614af3565b92505081905550846005600084815260200190815260200160002060090160006101000a81548173ffffffffffffffffffffffffffffffffffffffff021916908373ffffffffffffffffffffffffffffffffffffffff16021790555061182d828888600560008881526020019081526020016000206008015489612a66565b6000600560008581526020019081526020016000206008018190555061188a87876005600087815260200190815260200160002060090160009054906101000a900473ffffffffffffffffffffffffffffffffffffffff16612c16565b6005600084815260200190815260200160002060090160009054906101000a900473ffffffffffffffffffffffffffffffffffffffff1673ffffffffffffffffffffffffffffffffffffffff1660056000848152602001908152602001600020600801547f67a6f2fb053652dd7425e63562e24bdf462b177cd1b8dff273fe8b77916a242e8b8b8b8b604051611923949392919061497d565b60405180910390a38473ffffffffffffffffffffffffffffffffffffffff168173ffffffffffffffffffffffffffffffffffffffff167fea589a3cca623dcd8e51689d3b9eb0134fe2019a64e8bc9a76d281a63a95ff07898960405161198a9291906148d8565b60405180910390a3505050505050505050565b60028054906101000a900461ffff1681565b7fef17b1f3c5a412f9c8e887e3abd186802afec7dc657fd3b7002bf87b128dd0b16119e1816119dc6127ff565b612807565b611a1584600260009054906101000a900461ffff1685611a019190614b7a565b611a0b9190614abb565b61ffff1683612cbd565b50505050565b600080600084815260200190815260200160002060000160008373ffffffffffffffffffffffffffffffffffffffff1673ffffffffffffffffffffffffffffffffffffffff16815260200190815260200160002060009054906101000a900460ff16905092915050565b60006005600084600260009054906101000a900461ffff1685611aa89190614b7a565b611ab29190614abb565b61ffff16815260200190815260200160002060050160010154905092915050565b7fef17b1f3c5a412f9c8e887e3abd186802afec7dc657fd3b7002bf87b128dd0b1611b0581611b006127ff565b612807565b600085600260009054906101000a900461ffff1686611b249190614b7a565b611b2e9190614abb565b61ffff1690508273ffffffffffffffffffffffffffffffffffffffff166005600083815260200190815260200160002060090160009054906101000a900473ffffffffffffffffffffffffffffffffffffffff1673ffffffffffffffffffffffffffffffffffffffff1614611bd8576040517f08c379a0000000000000000000000000000000000000000000000000000000008152600401611bcf90614746565b60405180910390fd5b6001600560008381526020019081526020016000206008015414611c31576040517f08c379a0000000000000000000000000000000000000000000000000000000008152600401611c2890614726565b60405180910390fd5b611c3b8185612cbd565b505050505050565b600060010281565b611c53613671565b6005600084600260009054906101000a900461ffff1685611c749190614b7a565b611c7e9190614abb565b61ffff168152602001908152602001600020604051806101400160405290816000820160009054906101000a900461ffff1661ffff1661ffff1681526020016000820160029054906101000a900461ffff1661ffff1661ffff168152602001600182015481526020016002820154815260200160038201548152602001600482015481526020016005820160405180606001604052908160008201548152602001600182015481526020016002820154815250508152602001600882015481526020016009820160009054906101000a900473ffffffffffffffffffffffffffffffffffffffff1673ffffffffffffffffffffffffffffffffffffffff1673ffffffffffffffffffffffffffffffffffffffff1681526020016009820160149054906101000a900460ff161515151581525050905092915050565b7fef17b1f3c5a412f9c8e887e3abd186802afec7dc657fd3b7002bf87b128dd0b1611deb81611de66127ff565b612807565b600085600260009054906101000a900461ffff1686611e0a9190614b7a565b611e149190614abb565b61ffff1690506000600460008573ffffffffffffffffffffffffffffffffffffffff1673ffffffffffffffffffffffffffffffffffffffff168152602001908152602001600020541115611e7457611e6f8187878787612a66565b611e81565b611e8081878787612dc8565b5b505050505050565b611e9282610d6f565b611ea381611e9e6127ff565b612807565b611ead8383612985565b505050565b60608385108015611ec4575060008510155b8015611ee45750600260009054906101000a900461ffff1661ffff168411155b8015611eef57508183105b8015611efc575060008310155b8015611f1a575060028054906101000a900461ffff1661ffff168211155b611f59576040517f08c379a0000000000000000000000000000000000000000000000000000000008152600401611f5090614826565b60405180910390fd5b60008383611f679190614c44565b8686611f739190614c44565b611f7d9190614bb6565b67ffffffffffffffff811115611fbc577f4e487b7100000000000000000000000000000000000000000000000000000000600052604160045260246000fd5b604051908082528060200260200182016040528015611ff557816020015b611fe2613671565b815260200190600190039081611fda5790505b5090506000808590505b848110156121ea5760008890505b878110156121d6576005600082600260009054906101000a900461ffff1661ffff168561203a9190614bb6565b6120449190614af3565b8152602001908152602001600020604051806101400160405290816000820160009054906101000a900461ffff1661ffff1661ffff1681526020016000820160029054906101000a900461ffff1661ffff1661ffff168152602001600182015481526020016002820154815260200160038201548152602001600482015481526020016005820160405180606001604052908160008201548152602001600182015481526020016002820154815250508152602001600882015481526020016009820160009054906101000a900473ffffffffffffffffffffffffffffffffffffffff1673ffffffffffffffffffffffffffffffffffffffff1673ffffffffffffffffffffffffffffffffffffffff1681526020016009820160149054906101000a900460ff16151515158152505084848061217f90614d93565b9550815181106121b8577f4e487b7100000000000000000000000000000000000000000000000000000000600052603260045260246000fd5b602002602001018190525080806121ce90614d93565b91505061200d565b5080806121e290614d93565b915050611fff565b508192505050949350505050565b60035481565b606060008383905067ffffffffffffffff811115612245577f4e487b7100000000000000000000000000000000000000000000000000000000600052604160045260246000fd5b60405190808252806020026020018201604052801561227e57816020015b61226b613671565b8152602001906001900390816122635790505b50905060005b848490508110156124775760008585838181106122ca577f4e487b7100000000000000000000000000000000000000000000000000000000600052603260045260246000fd5b905060200201359050600081101580156122e5575060035481105b156124635760056000828152602001908152602001600020604051806101400160405290816000820160009054906101000a900461ffff1661ffff1661ffff1681526020016000820160029054906101000a900461ffff1661ffff1661ffff168152602001600182015481526020016002820154815260200160038201548152602001600482015481526020016005820160405180606001604052908160008201548152602001600182015481526020016002820154815250508152602001600882015481526020016009820160009054906101000a900473ffffffffffffffffffffffffffffffffffffffff1673ffffffffffffffffffffffffffffffffffffffff1673ffffffffffffffffffffffffffffffffffffffff1681526020016009820160149054906101000a900460ff161515151581525050838381518110612457577f4e487b7100000000000000000000000000000000000000000000000000000000600052603260045260246000fd5b60200260200101819052505b50808061246f90614d93565b915050612284565b508091505092915050565b7fef17b1f3c5a412f9c8e887e3abd186802afec7dc657fd3b7002bf87b128dd0b181565b7fef17b1f3c5a412f9c8e887e3abd186802afec7dc657fd3b7002bf87b128dd0b16124d8816124d36127ff565b612807565b600084600260009054906101000a900461ffff16856124f79190614b7a565b6125019190614abb565b61ffff169050600085600260009054906101000a900461ffff16866125269190614b7a565b6125309190614abb565b61ffff1690506005600082815260200190815260200160002060090160009054906101000a900473ffffffffffffffffffffffffffffffffffffffff1673ffffffffffffffffffffffffffffffffffffffff166005600084815260200190815260200160002060090160009054906101000a900473ffffffffffffffffffffffffffffffffffffffff1673ffffffffffffffffffffffffffffffffffffffff1614612610576040517f08c379a000000000000000000000000000000000000000000000000000000000815260040161260790614846565b60405180910390fd5b60006005600084815260200190815260200160002060080154141561266a576040517f08c379a0000000000000000000000000000000000000000000000000000000008152600401612661906146c6565b60405180910390fd5b61268d818787600560008781526020019081526020016000206008015488612a66565b600060056000848152602001908152602001600020600801819055506126ea86866005600086815260200190815260200160002060090160009054906101000a900473ffffffffffffffffffffffffffffffffffffffff16612c16565b6005600083815260200190815260200160002060090160009054906101000a900473ffffffffffffffffffffffffffffffffffffffff1673ffffffffffffffffffffffffffffffffffffffff1660056000838152602001908152602001600020600801547f67a6f2fb053652dd7425e63562e24bdf462b177cd1b8dff273fe8b77916a242e8a8a8a8a604051612783949392919061497d565b60405180910390a35050505050505050565b60007f01ffc9a7000000000000000000000000000000000000000000000000000000007bffffffffffffffffffffffffffffffffffffffffffffffffffffffff1916827bffffffffffffffffffffffffffffffffffffffffffffffffffffffff1916149050919050565b600033905090565b6128118282611a1b565b6128a1576128368173ffffffffffffffffffffffffffffffffffffffff166014612f78565b61284583600190046020612f78565b604051602001612856929190614593565b6040516020818303038152906040526040517f08c379a00000000000000000000000000000000000000000000000000000000081526004016128989190614684565b60405180910390fd5b5050565b6128af8282611a1b565b61298157600160008084815260200190815260200160002060000160008373ffffffffffffffffffffffffffffffffffffffff1673ffffffffffffffffffffffffffffffffffffffff16815260200190815260200160002060006101000a81548160ff0219169083151502179055506129266127ff565b73ffffffffffffffffffffffffffffffffffffffff168173ffffffffffffffffffffffffffffffffffffffff16837f2f8788117e7eff1d82e926ec794901d17c78024a50270940304540a733656f0d60405160405180910390a45b5050565b61298f8282611a1b565b15612a6257600080600084815260200190815260200160002060000160008373ffffffffffffffffffffffffffffffffffffffff1673ffffffffffffffffffffffffffffffffffffffff16815260200190815260200160002060006101000a81548160ff021916908315150217905550612a076127ff565b73ffffffffffffffffffffffffffffffffffffffff168173ffffffffffffffffffffffffffffffffffffffff16837ff6391f5c32d9c69d2a47ea670b442974b53935d1edc7fd64eb21e047a839171b60405160405180910390a45b5050565b8073ffffffffffffffffffffffffffffffffffffffff166005600087815260200190815260200160002060090160009054906101000a900473ffffffffffffffffffffffffffffffffffffffff1673ffffffffffffffffffffffffffffffffffffffff1614612b0a576040517f08c379a0000000000000000000000000000000000000000000000000000000008152600401612b0190614746565b60405180910390fd5b6000600560008781526020019081526020016000206008015414612b63576040517f08c379a0000000000000000000000000000000000000000000000000000000008152600401612b5a90614806565b60405180910390fd5b81600560008781526020019081526020016000206008018190555060016006600084815260200190815260200160002060000160006101000a81548160ff021916908315150217905550836006600084815260200190815260200160002060000160016101000a81548161ffff021916908361ffff160217905550826006600084815260200190815260200160002060000160036101000a81548161ffff021916908361ffff1602179055505050505050565b612c2d600184612c269190614c10565b8383613299565b612c4483600184612c3e9190614c10565b83613299565b612c67600184612c549190614abb565b600184612c619190614c10565b83613299565b612c7e600184612c779190614abb565b8383613299565b612ca1600184612c8e9190614abb565b600184612c9b9190614abb565b83613299565b612cb883600184612cb29190614abb565b83613299565b505050565b80600560008481526020019081526020016000206008015414612d15576040517f08c379a0000000000000000000000000000000000000000000000000000000008152600401612d0c906147e6565b60405180910390fd5b6000600560008481526020019081526020016000206008018190555060006006600083815260200190815260200160002060000160006101000a81548160ff02191690831515021790555060006006600083815260200190815260200160002060000160016101000a81548161ffff021916908361ffff16021790555060006006600083815260200190815260200160002060000160036101000a81548161ffff021916908361ffff1602179055505050565b600073ffffffffffffffffffffffffffffffffffffffff166005600086815260200190815260200160002060090160009054906101000a900473ffffffffffffffffffffffffffffffffffffffff1673ffffffffffffffffffffffffffffffffffffffff1614612e6d576040517f08c379a0000000000000000000000000000000000000000000000000000000008152600401612e6490614786565b60405180910390fd5b6000600560008681526020019081526020016000206008015414612ec6576040517f08c379a0000000000000000000000000000000000000000000000000000000008152600401612ebd90614806565b60405180910390fd5b80600560008681526020019081526020016000206008018190555060016006600083815260200190815260200160002060000160006101000a81548160ff021916908315150217905550826006600083815260200190815260200160002060000160016101000a81548161ffff021916908361ffff160217905550816006600083815260200190815260200160002060000160036101000a81548161ffff021916908361ffff16021790555050505050565b606060006002836002612f8b9190614bb6565b612f959190614af3565b67ffffffffffffffff811115612fd4577f4e487b7100000000000000000000000000000000000000000000000000000000600052604160045260246000fd5b6040519080825280601f01601f1916602001820160405280156130065781602001600182028036833780820191505090505b5090507f300000000000000000000000000000000000000000000000000000000000000081600081518110613064577f4e487b7100000000000000000000000000000000000000000000000000000000600052603260045260246000fd5b60200101907effffffffffffffffffffffffffffffffffffffffffffffffffffffffffffff1916908160001a9053507f7800000000000000000000000000000000000000000000000000000000000000816001815181106130ee577f4e487b7100000000000000000000000000000000000000000000000000000000600052603260045260246000fd5b60200101907effffffffffffffffffffffffffffffffffffffffffffffffffffffffffffff1916908160001a9053506000600184600261312e9190614bb6565b6131389190614af3565b90505b600181111561324b577f3031323334353637383961626364656600000000000000000000000000000000600f8616601081106131a0577f4e487b7100000000000000000000000000000000000000000000000000000000600052603260045260246000fd5b1a7f0100000000000000000000000000000000000000000000000000000000000000028282815181106131fc577f4e487b7100000000000000000000000000000000000000000000000000000000600052603260045260246000fd5b60200101907effffffffffffffffffffffffffffffffffffffffffffffffffffffffffffff1916908160001a905350600485908060020a820491505094508061324490614d37565b905061313b565b506000841461328f576040517f08c379a0000000000000000000000000000000000000000000000000000000008152600401613286906146a6565b60405180910390fd5b8091505092915050565b600083600260009054906101000a900461ffff16846132b89190614b7a565b6132c29190614abb565b61ffff169050600015156005600083815260200190815260200160002060090160149054906101000a900460ff1615151415613627576000600a9050600460035461330d9190614b49565b811180156133345750600360046003546133279190614b49565b6133319190614bb6565b81105b1561333e57602890505b6002600560035461334f9190614b49565b6133599190614bb6565b811180156133805750600360056003546133739190614b49565b61337d9190614bb6565b81105b1561338a57605090505b60008161339884606461362d565b6133a29190614af3565b90506000826133be6001866133b79190614af3565b606461362d565b6133c89190614af3565b90506000836133e46002876133dd9190614af3565b606461362d565b6133ee9190614af3565b9050818310806133fd57508083105b1561340757600092505b8282108061341457508082105b1561341e57600091505b8281108061342b57508181105b1561343557600090505b6040518061014001604052808961ffff1681526020018861ffff16815260200160008152602001848152602001838152602001600a836134759190614b49565b81526020016040518060600160405280600081526020016101f48152602001428152508152602001600081526020018773ffffffffffffffffffffffffffffffffffffffff168152602001600115158152506005600087815260200190815260200160002060008201518160000160006101000a81548161ffff021916908361ffff16021790555060208201518160000160026101000a81548161ffff021916908361ffff16021790555060408201518160010155606082015181600201556080820151816003015560a0820151816004015560c082015181600501600082015181600001556020820151816001015560408201518160020155505060e082015181600801556101008201518160090160006101000a81548173ffffffffffffffffffffffffffffffffffffffff021916908373ffffffffffffffffffffffffffffffffffffffff1602179055506101208201518160090160146101000a81548160ff0219169083151502179055509050507fcfc47dcefc6f1ec1fd8ed1662ac24698fe911253fa1ce3460f7e7c83bf8d64b588888860405161361a93929190614901565b60405180910390a1505050505b50505050565b600081423385604051602001613645939291906145cd565b60405160208183030381529060405280519060200120600190046136699190614e0a565b905092915050565b604051806101400160405280600061ffff168152602001600061ffff168152602001600081526020016000815260200160008152602001600081526020016136b7613715565b815260200160008152602001600073ffffffffffffffffffffffffffffffffffffffff1681526020016000151581525090565b6040518060600160405280600015158152602001600061ffff168152602001600061ffff1681525090565b60405180606001604052806000815260200160008152602001600081525090565b60008135905061374581614ef2565b92915050565b60008083601f84011261375d57600080fd5b8235905067ffffffffffffffff81111561377657600080fd5b60208301915083602082028301111561378e57600080fd5b9250929050565b6000813590506137a481614f09565b92915050565b6000813590506137b981614f20565b92915050565b6000813590506137ce81614f37565b92915050565b6000813590506137e381614f4e565b92915050565b6000602082840312156137fb57600080fd5b600061380984828501613736565b91505092915050565b6000806020838503121561382557600080fd5b600083013567ffffffffffffffff81111561383f57600080fd5b61384b8582860161374b565b92509250509250929050565b60006020828403121561386957600080fd5b600061387784828501613795565b91505092915050565b6000806040838503121561389357600080fd5b60006138a185828601613795565b92505060206138b285828601613736565b9150509250929050565b6000602082840312156138ce57600080fd5b60006138dc848285016137aa565b91505092915050565b600080604083850312156138f857600080fd5b6000613906858286016137bf565b9250506020613917858286016137bf565b9150509250929050565b60008060006060848603121561393657600080fd5b6000613944868287016137bf565b9350506020613955868287016137bf565b925050604061396686828701613736565b9150509250925092565b600080600080600060a0868803121561398857600080fd5b6000613996888289016137bf565b95505060206139a7888289016137bf565b94505060406139b8888289016137bf565b93505060606139c9888289016137bf565b92505060806139da88828901613736565b9150509295509295909350565b6000806000606084860312156139fc57600080fd5b6000613a0a868287016137bf565b9350506020613a1b868287016137bf565b9250506040613a2c868287016137d4565b9150509250925092565b60008060008060808587031215613a4c57600080fd5b6000613a5a878288016137bf565b9450506020613a6b878288016137bf565b9350506040613a7c878288016137d4565b9250506060613a8d87828801613736565b91505092959194509250565b600060208284031215613aab57600080fd5b6000613ab9848285016137d4565b91505092915050565b60008060408385031215613ad557600080fd5b6000613ae3858286016137d4565b9250506020613af4858286016137d4565b9150509250929050565b60008060008060808587031215613b1457600080fd5b6000613b22878288016137d4565b9450506020613b33878288016137d4565b9350506040613b44878288016137d4565b9250506060613b55878288016137d4565b91505092959194509250565b6000613b6d83836143a6565b6101808301905092915050565b6000613b86838361455e565b60208301905092915050565b613b9b81614c78565b82525050565b613baa81614c78565b82525050565b613bc1613bbc82614c78565b614ddc565b82525050565b6000613bd282614a42565b613bdc8185614a7d565b9350613be783614a22565b8060005b83811015613c18578151613bff8882613b61565b9750613c0a83614a63565b925050600181019050613beb565b5085935050505092915050565b6000613c3082614a4d565b613c3a8185614a8e565b9350613c4583614a32565b8060005b83811015613c76578151613c5d8882613b7a565b9750613c6883614a70565b925050600181019050613c49565b5085935050505092915050565b613c8c81614c8a565b82525050565b613c9b81614c8a565b82525050565b613caa81614c96565b82525050565b6000613cbb82614a58565b613cc58185614a9f565b9350613cd5818560208601614d04565b613cde81614ec8565b840191505092915050565b6000613cf482614a58565b613cfe8185614ab0565b9350613d0e818560208601614d04565b80840191505092915050565b6000613d27602083614a9f565b91507f537472696e67733a20686578206c656e67746820696e73756666696369656e746000830152602082019050919050565b6000613d67603283614a9f565b91507f43757272656e74207465727269746f727920646f6573206e6f7420686176652060008301527f616e79204e6f6b616920746f206d6f76652e00000000000000000000000000006020830152604082019050919050565b6000613dcd601583614a9f565b91507f696e76616c69642072616e6765207265717565737400000000000000000000006000830152602082019050919050565b6000613e0d602e83614a9f565b91507f546172676574207465727269746f7279206973207374696c6c20646566656e6460008301527f65642062792061204e6f6b61692e0000000000000000000000000000000000006020830152604082019050919050565b6000613e73602f83614a9f565b91507f537065636966696564207465727269746f7279206973206e6f74206f6363757060008301527f6965642062792061204e6f6b61692e00000000000000000000000000000000006020830152604082019050919050565b6000613ed9603183614a9f565b91507f596f7520617265206e6f7420746865206f776e6572206f66207468652073706560008301527f636966696564207465727269746f72792e0000000000000000000000000000006020830152604082019050919050565b6000613f3f603083614a9f565b91507f596f7520617265206e6f7420746865206f776e6572206f6620746865206f726960008301527f67696e616c207465727269746f72792e000000000000000000000000000000006020830152604082019050919050565b6000613fa5603383614a9f565b91507f54686520737065636966696564207465727269746f7279206973206f776e656460008301527f20627920616e6f7468657220706c617965722e000000000000000000000000006020830152604082019050919050565b600061400b603783614a9f565b91507f43757272656e7420616e6420746172676574207465727269746f72696573206160008301527f72652066726f6d207468652073616d65206f776e65722e0000000000000000006020830152604082019050919050565b6000614071603183614a9f565b91507f796f7520617265206e6f7420746865206f776e6572206f66207468652073706560008301527f636966696564207465727269746f72792e0000000000000000000000000000006020830152604082019050919050565b60006140d7602e83614a9f565b91507f537065636966696564204e6f6b6169206973206e6f74206f6e2073706563696660008301527f696564207465727269746f72792e0000000000000000000000000000000000006020830152604082019050919050565b600061413d603383614a9f565b91507f537065636966696564207465727269746f727920697320616c7265616479206f60008301527f636375706965642062792061204e6f6b61692e000000000000000000000000006020830152604082019050919050565b60006141a3601383614a9f565b91507f696e76616c696420626f782072657175657374000000000000000000000000006000830152602082019050919050565b60006141e3601783614ab0565b91507f416363657373436f6e74726f6c3a206163636f756e74200000000000000000006000830152601782019050919050565b6000614223603b83614a9f565b91507f43757272656e7420616e6420746172676574207465727269746f72696573206160008301527f7265206e6f742066726f6d207468652073616d65206f776e65722e00000000006020830152604082019050919050565b6000614289601183614ab0565b91507f206973206d697373696e6720726f6c65200000000000000000000000000000006000830152601182019050919050565b60006142c9602f83614a9f565b91507f416363657373436f6e74726f6c3a2063616e206f6e6c792072656e6f756e636560008301527f20726f6c657320666f722073656c6600000000000000000000000000000000006020830152604082019050919050565b606082016000820151614338600085018261455e565b50602082015161434b602085018261455e565b50604082015161435e604085018261455e565b50505050565b60608201600082015161437a6000850182613c83565b50602082015161438d6020850182614540565b5060408201516143a06040850182614540565b50505050565b610180820160008201516143bd6000850182614540565b5060208201516143d06020850182614540565b5060408201516143e3604085018261455e565b5060608201516143f6606085018261455e565b506080820151614409608085018261455e565b5060a082015161441c60a085018261455e565b5060c082015161442f60c0850182614322565b5060e082015161444361012085018261455e565b50610100820151614458610140850182613b92565b5061012082015161446d610160850182613c83565b50505050565b6101808201600082015161448a6000850182614540565b50602082015161449d6020850182614540565b5060408201516144b0604085018261455e565b5060608201516144c3606085018261455e565b5060808201516144d6608085018261455e565b5060a08201516144e960a085018261455e565b5060c08201516144fc60c0850182614322565b5060e082015161451061012085018261455e565b50610100820151614525610140850182613b92565b5061012082015161453a610160850182613c83565b50505050565b61454981614ccc565b82525050565b61455881614ccc565b82525050565b61456781614cfa565b82525050565b61457681614cfa565b82525050565b61458d61458882614cfa565b614e00565b82525050565b600061459e826141d6565b91506145aa8285613ce9565b91506145b58261427c565b91506145c18284613ce9565b91508190509392505050565b60006145d9828661457c565b6020820191506145e98285613bb0565b6014820191506145f9828461457c565b602082019150819050949350505050565b600060208201905081810360008301526146248184613bc7565b905092915050565b600060208201905081810360008301526146468184613c25565b905092915050565b60006020820190506146636000830184613c92565b92915050565b600060208201905061467e6000830184613ca1565b92915050565b6000602082019050818103600083015261469e8184613cb0565b905092915050565b600060208201905081810360008301526146bf81613d1a565b9050919050565b600060208201905081810360008301526146df81613d5a565b9050919050565b600060208201905081810360008301526146ff81613dc0565b9050919050565b6000602082019050818103600083015261471f81613e00565b9050919050565b6000602082019050818103600083015261473f81613e66565b9050919050565b6000602082019050818103600083015261475f81613ecc565b9050919050565b6000602082019050818103600083015261477f81613f32565b9050919050565b6000602082019050818103600083015261479f81613f98565b9050919050565b600060208201905081810360008301526147bf81613ffe565b9050919050565b600060208201905081810360008301526147df81614064565b9050919050565b600060208201905081810360008301526147ff816140ca565b9050919050565b6000602082019050818103600083015261481f81614130565b9050919050565b6000602082019050818103600083015261483f81614196565b9050919050565b6000602082019050818103600083015261485f81614216565b9050919050565b6000602082019050818103600083015261487f816142bc565b9050919050565b600060608201905061489b6000830184614364565b92915050565b6000610180820190506148b76000830184614473565b92915050565b60006020820190506148d2600083018461454f565b92915050565b60006040820190506148ed600083018561454f565b6148fa602083018461454f565b9392505050565b6000606082019050614916600083018661454f565b614923602083018561454f565b6149306040830184613ba1565b949350505050565b600060808201905061494d600083018761454f565b61495a602083018661454f565b6149676040830185613ba1565b614974606083018461456d565b95945050505050565b6000608082019050614992600083018761454f565b61499f602083018661454f565b6149ac604083018561454f565b6149b9606083018461454f565b95945050505050565b60006020820190506149d7600083018461456d565b92915050565b60006080820190506149f2600083018761456d565b6149ff602083018661456d565b614a0c604083018561456d565b614a19606083018461456d565b95945050505050565b6000819050602082019050919050565b6000819050602082019050919050565b600081519050919050565b600081519050919050565b600081519050919050565b6000602082019050919050565b6000602082019050919050565b600082825260208201905092915050565b600082825260208201905092915050565b600082825260208201905092915050565b600081905092915050565b6000614ac682614ccc565b9150614ad183614ccc565b92508261ffff03821115614ae857614ae7614e3b565b5b828201905092915050565b6000614afe82614cfa565b9150614b0983614cfa565b9250827fffffffffffffffffffffffffffffffffffffffffffffffffffffffffffffffff03821115614b3e57614b3d614e3b565b5b828201905092915050565b6000614b5482614cfa565b9150614b5f83614cfa565b925082614b6f57614b6e614e6a565b5b828204905092915050565b6000614b8582614ccc565b9150614b9083614ccc565b92508161ffff0483118215151615614bab57614baa614e3b565b5b828202905092915050565b6000614bc182614cfa565b9150614bcc83614cfa565b9250817fffffffffffffffffffffffffffffffffffffffffffffffffffffffffffffffff0483118215151615614c0557614c04614e3b565b5b828202905092915050565b6000614c1b82614ccc565b9150614c2683614ccc565b925082821015614c3957614c38614e3b565b5b828203905092915050565b6000614c4f82614cfa565b9150614c5a83614cfa565b925082821015614c6d57614c6c614e3b565b5b828203905092915050565b6000614c8382614cda565b9050919050565b60008115159050919050565b6000819050919050565b60007fffffffff0000000000000000000000000000000000000000000000000000000082169050919050565b600061ffff82169050919050565b600073ffffffffffffffffffffffffffffffffffffffff82169050919050565b6000819050919050565b60005b83811015614d22578082015181840152602081019050614d07565b83811115614d31576000848401525b50505050565b6000614d4282614cfa565b91506000821415614d5657614d55614e3b565b5b600182039050919050565b60006002820490506001821680614d7957607f821691505b60208210811415614d8d57614d8c614e99565b5b50919050565b6000614d9e82614cfa565b91507fffffffffffffffffffffffffffffffffffffffffffffffffffffffffffffffff821415614dd157614dd0614e3b565b5b600182019050919050565b6000614de782614dee565b9050919050565b6000614df982614ed9565b9050919050565b6000819050919050565b6000614e1582614cfa565b9150614e2083614cfa565b925082614e3057614e2f614e6a565b5b828206905092915050565b7f4e487b7100000000000000000000000000000000000000000000000000000000600052601160045260246000fd5b7f4e487b7100000000000000000000000000000000000000000000000000000000600052601260045260246000fd5b7f4e487b7100000000000000000000000000000000000000000000000000000000600052602260045260246000fd5b6000601f19601f8301169050919050565b60006c0100000000000000000000000082029050919050565b614efb81614c78565b8114614f0657600080fd5b50565b614f1281614c96565b8114614f1d57600080fd5b50565b614f2981614ca0565b8114614f3457600080fd5b50565b614f4081614ccc565b8114614f4b57600080fd5b50565b614f5781614cfa565b8114614f6257600080fd5b5056fea26469706673582212202cd77106d3457d997c1db411528359e5edbc86588e1324e94e482161481e881a64736f6c63430008000033",
  "immutableReferences": {},
  "source": "pragma solidity ^0.8.0;\r\n\r\nimport \"@openzeppelin/contracts/access/AccessControl.sol\";\r\nimport \"../utils/RandomUtils.sol\";\r\n\r\n// SPDX-License-Identifier: MIT\r\ncontract BlackHole is AccessControl {\r\n    bytes32 public constant GAME_MANAGER_ROLE = keccak256(\"GAME_MANAGER_ROLE\");\r\n\r\n    string public name;\r\n    uint16 public maxX;\r\n    uint16 public maxY;\r\n    uint256 public totalPos;\r\n\r\n    struct Extractor {\r\n        uint256 level;\r\n        uint256 cost;\r\n        uint256 lastExtract;\r\n    }\r\n\r\n    struct Territory {\r\n        uint16 x;\r\n        uint16 y;\r\n        uint256 darkEnergy;\r\n        uint256 darkMatter;\r\n        uint256 plasmaEnergy;\r\n        uint256 voidEssence;\r\n        Extractor extractor; // extract resources\r\n        uint256 nokai;\r\n        address owner;\r\n        bool discovered;\r\n    }\r\n\r\n    struct Position {\r\n        bool onBoard;\r\n        uint16 x;\r\n        uint16 y;\r\n    }\r\n\r\n    mapping(address => uint256) private userTerritoryCount;\r\n    mapping(uint256 => Territory) private blackhole;\r\n    mapping(uint256 => Position) private nokaiPosition;\r\n\r\n    constructor(string memory _name, uint16 _width, uint16 _height)  {\r\n        name = _name;\r\n        maxX = _width;\r\n        maxY = _height;\r\n        totalPos = maxX * maxY;\r\n        _setupRole(DEFAULT_ADMIN_ROLE, msg.sender);\r\n\r\n        blackhole[((maxY / 2) * maxX) + maxX / 2] = Territory({\r\n        x : maxX / 2,\r\n        y : maxY / 2,\r\n        darkEnergy : 10,\r\n        darkMatter : 100,\r\n        plasmaEnergy : 100,\r\n        voidEssence : 100,\r\n        extractor : Extractor({level : 1, cost : 1000, lastExtract : block.timestamp}),\r\n        nokai : 0,\r\n        owner : address(0),\r\n        discovered : true\r\n        });\r\n    }\r\n\r\n    function completeExtraction(uint16 x, uint16 y, address by) external onlyRole(GAME_MANAGER_ROLE) returns (uint256, uint256, uint256, uint256) {\r\n        uint256 pos = (y * maxX) + x;\r\n        require(blackhole[pos].owner == by, \"you are not the owner of the specified territory.\");\r\n        uint256 nbHours = (block.timestamp - blackhole[pos].extractor.lastExtract) / 3600;\r\n        blackhole[pos].extractor.lastExtract = block.timestamp;\r\n        uint256 _darkEnergy = blackhole[pos].darkEnergy != 0 ? blackhole[pos].darkEnergy * blackhole[pos].extractor.level * nbHours : 0;\r\n        uint256 _darkMatter = blackhole[pos].darkMatter != 0 ? blackhole[pos].darkMatter * blackhole[pos].extractor.level * nbHours : 0;\r\n        uint256 _plasmaEnergy = blackhole[pos].plasmaEnergy != 0 ? blackhole[pos].plasmaEnergy * blackhole[pos].extractor.level * nbHours : 0;\r\n        uint256 _voidEssence = blackhole[pos].voidEssence != 0 ? blackhole[pos].voidEssence * blackhole[pos].extractor.level * nbHours : 0;\r\n        emit TerritoryExtracted(x, y, by);\r\n        return (_darkEnergy, _darkMatter, _plasmaEnergy, _voidEssence);\r\n    }\r\n\r\n    function upgradeExtractor(uint16 x, uint16 y, address by) external onlyRole(GAME_MANAGER_ROLE) {\r\n        uint256 pos = (y * maxX) + x;\r\n        require(blackhole[pos].owner == by, \"you are not the owner of the specified territory.\");\r\n        blackhole[pos].extractor.level += 1;\r\n        blackhole[pos].extractor.cost *= 2;\r\n        blackhole[pos].extractor.lastExtract = block.timestamp;\r\n        emit ExtractorUpgraded(x, y, by, blackhole[pos].extractor.level);\r\n    }\r\n\r\n\r\n    function assignNokai(uint16 x, uint16 y, uint256 nokaiId, address by) external onlyRole(GAME_MANAGER_ROLE) {\r\n        uint256 pos = (y * maxX) + x;\r\n        if (userTerritoryCount[by] > 0) {\r\n            _assignNokai(pos, x, y, nokaiId, by);\r\n        } else {\r\n            _assignNokaiNewTerritory(pos, x, y, nokaiId);\r\n        }\r\n    }\r\n\r\n    function _assignNokaiNewTerritory(uint256 pos, uint16 x, uint16 y, uint256 nokaiId) private {\r\n        require(blackhole[pos].owner == address(0), \"The specified territory is owned by another player.\");\r\n        require(blackhole[pos].nokai == 0, \"Specified territory is already occupied by a Nokai.\");\r\n        blackhole[pos].nokai = nokaiId;\r\n        nokaiPosition[nokaiId].onBoard = true;\r\n        nokaiPosition[nokaiId].x = x;\r\n        nokaiPosition[nokaiId].y = y;\r\n    }\r\n\r\n    function _assignNokai(uint256 pos, uint16 x, uint16 y, uint256 nokaiId, address by) private {\r\n        require(blackhole[pos].owner == by, \"You are not the owner of the specified territory.\");\r\n        require(blackhole[pos].nokai == 0, \"Specified territory is already occupied by a Nokai.\");\r\n        blackhole[pos].nokai = nokaiId;\r\n        nokaiPosition[nokaiId].onBoard = true;\r\n        nokaiPosition[nokaiId].x = x;\r\n        nokaiPosition[nokaiId].y = y;\r\n    }\r\n\r\n    function withdrawDeadNokai(uint16 x, uint16 y, uint256 nokaiId) external onlyRole(GAME_MANAGER_ROLE) {\r\n        _withdrawNokai((y * maxX) + x, nokaiId);\r\n    }\r\n\r\n    function withdrawNokai(uint16 x, uint16 y, uint256 nokaiId, address by) external onlyRole(GAME_MANAGER_ROLE) {\r\n        uint256 pos = (y * maxX) + x;\r\n        require(blackhole[pos].owner == by, \"You are not the owner of the specified territory.\");\r\n        require(blackhole[pos].nokai == 1, \"Specified territory is not occupied by a Nokai.\");\r\n        _withdrawNokai(pos, nokaiId);\r\n    }\r\n\r\n    function _withdrawNokai(uint256 pos, uint256 nokaiId) internal {\r\n        require(blackhole[pos].nokai == nokaiId, \"Specified Nokai is not on specified territory.\");\r\n        blackhole[pos].nokai = 0;\r\n        nokaiPosition[nokaiId].onBoard = false;\r\n        nokaiPosition[nokaiId].x = 0;\r\n        nokaiPosition[nokaiId].y = 0;\r\n    }\r\n\r\n\r\n    function conquest(uint16 fromX, uint16 fromY, uint16 toX, uint16 toY, address by) external onlyRole(GAME_MANAGER_ROLE) {\r\n        uint256 from = (toY * maxX) + toX;\r\n        uint256 to = (toY * maxX) + toX;\r\n        require(blackhole[from].owner == by, \"You are not the owner of the original territory.\");\r\n        require(blackhole[from].owner != blackhole[to].owner, \"Current and target territories are from the same owner.\");\r\n        require(blackhole[to].nokai == 0, \"Target territory is still defended by a Nokai.\");\r\n        require(blackhole[from].nokai != 0, \"Current territory does not have any Nokai to move.\");\r\n\r\n        address previousOwner = blackhole[to].owner;\r\n\r\n        userTerritoryCount[previousOwner] = userTerritoryCount[previousOwner] > 0 ? userTerritoryCount[previousOwner] - 1 : 0;\r\n        userTerritoryCount[by] += 1;\r\n\r\n        blackhole[to].owner = by;\r\n        _assignNokai(to, toX, toY, blackhole[from].nokai, by);\r\n        blackhole[from].nokai = 0;\r\n\r\n        _discover(toX, toY, blackhole[from].owner);\r\n        emit NokaiMoved(fromX, fromY, toX, toY, blackhole[to].nokai, blackhole[from].owner);\r\n        emit SlotConquered(toX, toY, previousOwner, by);\r\n    }\r\n\r\n    function move(uint16 fromX, uint16 fromY, uint16 toX, uint16 toY, address by) external onlyRole(GAME_MANAGER_ROLE) {\r\n        uint256 from = (toY * maxX) + toX;\r\n        uint256 to = (toY * maxX) + toX;\r\n        require(blackhole[from].owner == blackhole[to].owner, \"Current and target territories are not from the same owner.\");\r\n        require(blackhole[from].nokai != 0, \"Current territory does not have any Nokai to move.\");\r\n\r\n        _assignNokai(to, toX, toY, blackhole[from].nokai, by);\r\n        blackhole[from].nokai = 0;\r\n\r\n        _discover(toX, toY, blackhole[from].owner);\r\n        emit NokaiMoved(fromX, fromY, toX, toY, blackhole[to].nokai, blackhole[from].owner);\r\n    }\r\n\r\n    function _discover(uint16 x, uint16 y, address by) private {\r\n        _discoverSlot(x - 1, y, by);\r\n        _discoverSlot(x, y - 1, by);\r\n        _discoverSlot(x + 1, y - 1, by);\r\n        _discoverSlot(x + 1, y, by);\r\n        _discoverSlot(x + 1, y + 1, by);\r\n        _discoverSlot(x, y + 1, by);\r\n    }\r\n\r\n    function _discoverSlot(uint16 x, uint16 y, address by) private {\r\n        uint256 pos = (y * maxX) + x;\r\n        if (blackhole[pos].discovered == false) {\r\n            uint256 wealth = 10;\r\n            if (wealth > totalPos / 4 && wealth < (totalPos / 4) * 3) {\r\n                wealth = 40;\r\n            }\r\n            if (wealth > ((totalPos / 5) * 2) && wealth < (totalPos / 5) * 3) {\r\n                wealth = 80;\r\n            }\r\n            uint256 darkMatter = RandomUtils._rand(pos, 100) + wealth;\r\n            uint256 plasmaEnergy = RandomUtils._rand(pos + 1, 100) + wealth;\r\n            uint256 voidEssence = RandomUtils._rand(pos + 2, 100) + wealth;\r\n            if (darkMatter < plasmaEnergy || darkMatter < voidEssence) {\r\n                darkMatter = 0;\r\n            }\r\n            if (plasmaEnergy < darkMatter || plasmaEnergy < voidEssence) {\r\n                plasmaEnergy = 0;\r\n            }\r\n            if (voidEssence < darkMatter || voidEssence < plasmaEnergy) {\r\n                voidEssence = 0;\r\n            }\r\n            blackhole[pos] = Territory({\r\n            x : x,\r\n            y : y,\r\n            darkEnergy : 0,\r\n            darkMatter : darkMatter,\r\n            plasmaEnergy : plasmaEnergy,\r\n            voidEssence : voidEssence / 10,\r\n            nokai : 0,\r\n            extractor : Extractor({level : 0, cost : 500, lastExtract : block.timestamp}),\r\n            owner : by,\r\n            discovered : true\r\n            });\r\n            emit SlotDiscovered(x, y, by);\r\n        }\r\n    }\r\n\r\n    function nokaiAt(uint16 x, uint16 y) external view returns (uint256) {\r\n        return blackhole[(y * maxX) + x].nokai;\r\n    }\r\n\r\n    function nokaiPos(uint256 nokaiId) external view returns (Position memory) {\r\n        return nokaiPosition[nokaiId];\r\n    }\r\n\r\n    function territoryCount(address user) external view returns (uint256) {\r\n        return userTerritoryCount[user];\r\n    }\r\n\r\n    function extractorCostAt(uint16 x, uint16 y) external view returns (uint256) {\r\n        return blackhole[(y * maxX) + x].extractor.cost;\r\n    }\r\n\r\n    function get(uint16 x, uint16 y) external view returns (Territory memory) {\r\n        return blackhole[(y * maxX) + x];\r\n    }\r\n\r\n    function getForRange(uint256 from, uint256 to) external view returns (Territory[] memory) {\r\n        require(from >= 0 && to < totalPos, \"invalid range request\");\r\n        Territory[] memory _blackhole = new Territory[](to - from);\r\n        for (uint256 i = from; i < to; i++) {\r\n            _blackhole[i] = blackhole[i];\r\n        }\r\n        return _blackhole;\r\n    }\r\n\r\n    function getFor(uint256[] calldata choices) external view returns (Territory[] memory) {\r\n        Territory[] memory _blackhole = new Territory[](choices.length);\r\n        for (uint256 i = 0; i < choices.length; i++) {\r\n            uint256 pos = choices[i];\r\n            if (pos >= 0 && pos < totalPos) {\r\n                _blackhole[i] = blackhole[pos];\r\n            }\r\n        }\r\n        return _blackhole;\r\n    }\r\n\r\n    function getForBox(uint256 startPos, uint256 endPos, uint256 startLine, uint256 endLine) external view returns (Territory[] memory) {\r\n        require(startPos < endPos && startPos >= 0 && endPos <= maxX && startLine < endLine && startLine >= 0 && endLine <= maxY, \"invalid box request\");\r\n        Territory[] memory _blackhole = new Territory[]((endPos - startPos) * (endLine - startLine));\r\n        uint256 i = 0;\r\n        for (uint256 line = startLine; line < endLine; line++) {\r\n            for (uint256 pos = startPos; pos < endPos; pos++) {\r\n                _blackhole[i++] = blackhole[(line * maxX) + pos];\r\n            }\r\n        }\r\n        return _blackhole;\r\n    }\r\n\r\n    function getAvailableForBox(uint256 startPos, uint256 endPos, uint256 startLine, uint256 endLine) external view returns (uint256[] memory) {\r\n        require(startPos < endPos && startPos >= 0 && endPos <= maxX && startLine < endLine && startLine >= 0 && endLine <= maxY, \"invalid box request\");\r\n        uint256[] memory _available = new uint256[]((endPos - startPos) * (endLine - startLine));\r\n        uint256 i = 0;\r\n        for (uint256 line = startLine; line < endLine; line++) {\r\n            for (uint256 pos = startPos; pos < endPos; pos++) {\r\n                if (blackhole[(line * maxX) + pos].owner == address(0)) {\r\n                    _available[i++] = (line * maxX) + pos;\r\n                }\r\n            }\r\n        }\r\n        return _available;\r\n    }\r\n\r\n    event SlotDiscovered(uint16 x, uint16 y, address by);\r\n    event SlotConquered(uint16 x, uint16 y, address indexed previousOwner, address indexed newOwner);\r\n    event NokaiMoved(uint16 fromX, uint16 fromY, uint16 toX, uint16 toY, uint256 indexed nokai, address indexed owner);\r\n    event TerritoryExtracted(uint16 x, uint16 y, address by);\r\n    event ExtractorUpgraded(uint16 x, uint16 y, address by, uint256 level);\r\n}",
  "sourcePath": "C:\\Users\\KevinGeorgesAndres\\Documents\\projects\\perso\\blackhole-evm\\contracts\\game\\BlackHole.sol",
  "compiler": {
    "name": "solc",
    "version": "0.8.0+commit.c7dfd78e.Emscripten.clang"
  },
  "schemaVersion": "3.4.3",
  "updatedAt": "2021-12-10T09:11:25.683Z",
  "networkType": "ethereum",
  "devdoc": {
    "kind": "dev",
    "methods": {
      "getRoleAdmin(bytes32)": {
        "details": "Returns the admin role that controls `role`. See {grantRole} and {revokeRole}. To change a role's admin, use {_setRoleAdmin}."
      },
      "grantRole(bytes32,address)": {
        "details": "Grants `role` to `account`. If `account` had not been already granted `role`, emits a {RoleGranted} event. Requirements: - the caller must have ``role``'s admin role."
      },
      "hasRole(bytes32,address)": {
        "details": "Returns `true` if `account` has been granted `role`."
      },
      "renounceRole(bytes32,address)": {
        "details": "Revokes `role` from the calling account. Roles are often managed via {grantRole} and {revokeRole}: this function's purpose is to provide a mechanism for accounts to lose their privileges if they are compromised (such as when a trusted device is misplaced). If the calling account had been revoked `role`, emits a {RoleRevoked} event. Requirements: - the caller must be `account`."
      },
      "revokeRole(bytes32,address)": {
        "details": "Revokes `role` from `account`. If `account` had been granted `role`, emits a {RoleRevoked} event. Requirements: - the caller must have ``role``'s admin role."
      },
      "supportsInterface(bytes4)": {
        "details": "See {IERC165-supportsInterface}."
      }
    },
    "version": 1
  },
  "userdoc": {
    "kind": "user",
    "methods": {},
    "version": 1
  }
}