{
  "contractName": "BlackHole",
  "abi": [
    {
      "inputs": [
        {
          "internalType": "uint16",
          "name": "_width",
          "type": "uint16"
        },
        {
          "internalType": "uint16",
          "name": "_height",
          "type": "uint16"
        }
      ],
      "stateMutability": "nonpayable",
      "type": "constructor"
    },
    {
      "anonymous": false,
      "inputs": [
        {
          "indexed": false,
          "internalType": "uint16",
          "name": "x",
          "type": "uint16"
        },
        {
          "indexed": false,
          "internalType": "uint16",
          "name": "y",
          "type": "uint16"
        },
        {
          "indexed": false,
          "internalType": "address",
          "name": "by",
          "type": "address"
        },
        {
          "indexed": false,
          "internalType": "uint256",
          "name": "level",
          "type": "uint256"
        }
      ],
      "name": "ExtractorUpgraded",
      "type": "event"
    },
    {
      "anonymous": false,
      "inputs": [
        {
          "indexed": false,
          "internalType": "uint16",
          "name": "fromX",
          "type": "uint16"
        },
        {
          "indexed": false,
          "internalType": "uint16",
          "name": "fromY",
          "type": "uint16"
        },
        {
          "indexed": false,
          "internalType": "uint16",
          "name": "toX",
          "type": "uint16"
        },
        {
          "indexed": false,
          "internalType": "uint16",
          "name": "toY",
          "type": "uint16"
        },
        {
          "indexed": true,
          "internalType": "uint256",
          "name": "nokai",
          "type": "uint256"
        },
        {
          "indexed": true,
          "internalType": "address",
          "name": "owner",
          "type": "address"
        }
      ],
      "name": "NokaiMoved",
      "type": "event"
    },
    {
      "anonymous": false,
      "inputs": [
        {
          "indexed": true,
          "internalType": "bytes32",
          "name": "role",
          "type": "bytes32"
        },
        {
          "indexed": true,
          "internalType": "bytes32",
          "name": "previousAdminRole",
          "type": "bytes32"
        },
        {
          "indexed": true,
          "internalType": "bytes32",
          "name": "newAdminRole",
          "type": "bytes32"
        }
      ],
      "name": "RoleAdminChanged",
      "type": "event"
    },
    {
      "anonymous": false,
      "inputs": [
        {
          "indexed": true,
          "internalType": "bytes32",
          "name": "role",
          "type": "bytes32"
        },
        {
          "indexed": true,
          "internalType": "address",
          "name": "account",
          "type": "address"
        },
        {
          "indexed": true,
          "internalType": "address",
          "name": "sender",
          "type": "address"
        }
      ],
      "name": "RoleGranted",
      "type": "event"
    },
    {
      "anonymous": false,
      "inputs": [
        {
          "indexed": true,
          "internalType": "bytes32",
          "name": "role",
          "type": "bytes32"
        },
        {
          "indexed": true,
          "internalType": "address",
          "name": "account",
          "type": "address"
        },
        {
          "indexed": true,
          "internalType": "address",
          "name": "sender",
          "type": "address"
        }
      ],
      "name": "RoleRevoked",
      "type": "event"
    },
    {
      "anonymous": false,
      "inputs": [
        {
          "indexed": false,
          "internalType": "uint16",
          "name": "x",
          "type": "uint16"
        },
        {
          "indexed": false,
          "internalType": "uint16",
          "name": "y",
          "type": "uint16"
        },
        {
          "indexed": true,
          "internalType": "address",
          "name": "previousOwner",
          "type": "address"
        },
        {
          "indexed": true,
          "internalType": "address",
          "name": "newOwner",
          "type": "address"
        }
      ],
      "name": "SlotConquered",
      "type": "event"
    },
    {
      "anonymous": false,
      "inputs": [
        {
          "indexed": false,
          "internalType": "uint16",
          "name": "x",
          "type": "uint16"
        },
        {
          "indexed": false,
          "internalType": "uint16",
          "name": "y",
          "type": "uint16"
        },
        {
          "indexed": false,
          "internalType": "address",
          "name": "by",
          "type": "address"
        }
      ],
      "name": "SlotDiscovered",
      "type": "event"
    },
    {
      "anonymous": false,
      "inputs": [
        {
          "indexed": false,
          "internalType": "uint16",
          "name": "x",
          "type": "uint16"
        },
        {
          "indexed": false,
          "internalType": "uint16",
          "name": "y",
          "type": "uint16"
        },
        {
          "indexed": false,
          "internalType": "address",
          "name": "by",
          "type": "address"
        }
      ],
      "name": "TerritoryExtracted",
      "type": "event"
    },
    {
      "inputs": [],
      "name": "DEFAULT_ADMIN_ROLE",
      "outputs": [
        {
          "internalType": "bytes32",
          "name": "",
          "type": "bytes32"
        }
      ],
      "stateMutability": "view",
      "type": "function",
      "constant": true
    },
    {
      "inputs": [],
      "name": "GAME_MANAGER_ROLE",
      "outputs": [
        {
          "internalType": "bytes32",
          "name": "",
          "type": "bytes32"
        }
      ],
      "stateMutability": "view",
      "type": "function",
      "constant": true
    },
    {
      "inputs": [
        {
          "internalType": "bytes32",
          "name": "role",
          "type": "bytes32"
        }
      ],
      "name": "getRoleAdmin",
      "outputs": [
        {
          "internalType": "bytes32",
          "name": "",
          "type": "bytes32"
        }
      ],
      "stateMutability": "view",
      "type": "function",
      "constant": true
    },
    {
      "inputs": [
        {
          "internalType": "bytes32",
          "name": "role",
          "type": "bytes32"
        },
        {
          "internalType": "address",
          "name": "account",
          "type": "address"
        }
      ],
      "name": "grantRole",
      "outputs": [],
      "stateMutability": "nonpayable",
      "type": "function"
    },
    {
      "inputs": [
        {
          "internalType": "bytes32",
          "name": "role",
          "type": "bytes32"
        },
        {
          "internalType": "address",
          "name": "account",
          "type": "address"
        }
      ],
      "name": "hasRole",
      "outputs": [
        {
          "internalType": "bool",
          "name": "",
          "type": "bool"
        }
      ],
      "stateMutability": "view",
      "type": "function",
      "constant": true
    },
    {
      "inputs": [],
      "name": "maxX",
      "outputs": [
        {
          "internalType": "uint16",
          "name": "",
          "type": "uint16"
        }
      ],
      "stateMutability": "view",
      "type": "function",
      "constant": true
    },
    {
      "inputs": [],
      "name": "maxY",
      "outputs": [
        {
          "internalType": "uint16",
          "name": "",
          "type": "uint16"
        }
      ],
      "stateMutability": "view",
      "type": "function",
      "constant": true
    },
    {
      "inputs": [
        {
          "internalType": "bytes32",
          "name": "role",
          "type": "bytes32"
        },
        {
          "internalType": "address",
          "name": "account",
          "type": "address"
        }
      ],
      "name": "renounceRole",
      "outputs": [],
      "stateMutability": "nonpayable",
      "type": "function"
    },
    {
      "inputs": [
        {
          "internalType": "bytes32",
          "name": "role",
          "type": "bytes32"
        },
        {
          "internalType": "address",
          "name": "account",
          "type": "address"
        }
      ],
      "name": "revokeRole",
      "outputs": [],
      "stateMutability": "nonpayable",
      "type": "function"
    },
    {
      "inputs": [
        {
          "internalType": "bytes4",
          "name": "interfaceId",
          "type": "bytes4"
        }
      ],
      "name": "supportsInterface",
      "outputs": [
        {
          "internalType": "bool",
          "name": "",
          "type": "bool"
        }
      ],
      "stateMutability": "view",
      "type": "function",
      "constant": true
    },
    {
      "inputs": [],
      "name": "totalPos",
      "outputs": [
        {
          "internalType": "uint256",
          "name": "",
          "type": "uint256"
        }
      ],
      "stateMutability": "view",
      "type": "function",
      "constant": true
    },
    {
      "inputs": [
        {
          "internalType": "uint16",
          "name": "x",
          "type": "uint16"
        },
        {
          "internalType": "uint16",
          "name": "y",
          "type": "uint16"
        },
        {
          "internalType": "address",
          "name": "by",
          "type": "address"
        }
      ],
      "name": "completeExtraction",
      "outputs": [
        {
          "internalType": "uint256",
          "name": "",
          "type": "uint256"
        },
        {
          "internalType": "uint256",
          "name": "",
          "type": "uint256"
        },
        {
          "internalType": "uint256",
          "name": "",
          "type": "uint256"
        },
        {
          "internalType": "uint256",
          "name": "",
          "type": "uint256"
        }
      ],
      "stateMutability": "nonpayable",
      "type": "function"
    },
    {
      "inputs": [
        {
          "internalType": "uint16",
          "name": "x",
          "type": "uint16"
        },
        {
          "internalType": "uint16",
          "name": "y",
          "type": "uint16"
        },
        {
          "internalType": "address",
          "name": "by",
          "type": "address"
        }
      ],
      "name": "upgradeExtractor",
      "outputs": [],
      "stateMutability": "nonpayable",
      "type": "function"
    },
    {
      "inputs": [
        {
          "internalType": "uint16",
          "name": "x",
          "type": "uint16"
        },
        {
          "internalType": "uint16",
          "name": "y",
          "type": "uint16"
        },
        {
          "internalType": "uint256",
          "name": "nokaiId",
          "type": "uint256"
        },
        {
          "internalType": "address",
          "name": "by",
          "type": "address"
        }
      ],
      "name": "assignNokai",
      "outputs": [],
      "stateMutability": "nonpayable",
      "type": "function"
    },
    {
      "inputs": [
        {
          "internalType": "uint16",
          "name": "x",
          "type": "uint16"
        },
        {
          "internalType": "uint16",
          "name": "y",
          "type": "uint16"
        },
        {
          "internalType": "uint256",
          "name": "nokaiId",
          "type": "uint256"
        }
      ],
      "name": "withdrawDeadNokai",
      "outputs": [],
      "stateMutability": "nonpayable",
      "type": "function"
    },
    {
      "inputs": [
        {
          "internalType": "uint16",
          "name": "x",
          "type": "uint16"
        },
        {
          "internalType": "uint16",
          "name": "y",
          "type": "uint16"
        },
        {
          "internalType": "uint256",
          "name": "nokaiId",
          "type": "uint256"
        },
        {
          "internalType": "address",
          "name": "by",
          "type": "address"
        }
      ],
      "name": "withdrawNokai",
      "outputs": [],
      "stateMutability": "nonpayable",
      "type": "function"
    },
    {
      "inputs": [
        {
          "internalType": "uint16",
          "name": "fromX",
          "type": "uint16"
        },
        {
          "internalType": "uint16",
          "name": "fromY",
          "type": "uint16"
        },
        {
          "internalType": "uint16",
          "name": "toX",
          "type": "uint16"
        },
        {
          "internalType": "uint16",
          "name": "toY",
          "type": "uint16"
        },
        {
          "internalType": "address",
          "name": "by",
          "type": "address"
        }
      ],
      "name": "conquest",
      "outputs": [],
      "stateMutability": "nonpayable",
      "type": "function"
    },
    {
      "inputs": [
        {
          "internalType": "uint16",
          "name": "fromX",
          "type": "uint16"
        },
        {
          "internalType": "uint16",
          "name": "fromY",
          "type": "uint16"
        },
        {
          "internalType": "uint16",
          "name": "toX",
          "type": "uint16"
        },
        {
          "internalType": "uint16",
          "name": "toY",
          "type": "uint16"
        },
        {
          "internalType": "address",
          "name": "by",
          "type": "address"
        }
      ],
      "name": "move",
      "outputs": [],
      "stateMutability": "nonpayable",
      "type": "function"
    },
    {
      "inputs": [
        {
          "internalType": "uint16",
          "name": "x",
          "type": "uint16"
        },
        {
          "internalType": "uint16",
          "name": "y",
          "type": "uint16"
        }
      ],
      "name": "nokaiAt",
      "outputs": [
        {
          "internalType": "uint256",
          "name": "",
          "type": "uint256"
        }
      ],
      "stateMutability": "view",
      "type": "function",
      "constant": true
    },
    {
      "inputs": [
        {
          "internalType": "uint256",
          "name": "nokaiId",
          "type": "uint256"
        }
      ],
      "name": "nokaiPos",
      "outputs": [
        {
          "components": [
            {
              "internalType": "bool",
              "name": "onBoard",
              "type": "bool"
            },
            {
              "internalType": "uint16",
              "name": "x",
              "type": "uint16"
            },
            {
              "internalType": "uint16",
              "name": "y",
              "type": "uint16"
            }
          ],
          "internalType": "struct BlackHole.Position",
          "name": "",
          "type": "tuple"
        }
      ],
      "stateMutability": "view",
      "type": "function",
      "constant": true
    },
    {
      "inputs": [
        {
          "internalType": "address",
          "name": "user",
          "type": "address"
        }
      ],
      "name": "territoryCount",
      "outputs": [
        {
          "internalType": "uint256",
          "name": "",
          "type": "uint256"
        }
      ],
      "stateMutability": "view",
      "type": "function",
      "constant": true
    },
    {
      "inputs": [
        {
          "internalType": "uint16",
          "name": "x",
          "type": "uint16"
        },
        {
          "internalType": "uint16",
          "name": "y",
          "type": "uint16"
        }
      ],
      "name": "extractorCostAt",
      "outputs": [
        {
          "internalType": "uint256",
          "name": "",
          "type": "uint256"
        }
      ],
      "stateMutability": "view",
      "type": "function",
      "constant": true
    },
    {
      "inputs": [
        {
          "internalType": "uint16",
          "name": "x",
          "type": "uint16"
        },
        {
          "internalType": "uint16",
          "name": "y",
          "type": "uint16"
        }
      ],
      "name": "get",
      "outputs": [
        {
          "components": [
            {
              "internalType": "uint16",
              "name": "x",
              "type": "uint16"
            },
            {
              "internalType": "uint16",
              "name": "y",
              "type": "uint16"
            },
            {
              "internalType": "uint256",
              "name": "darkEnergy",
              "type": "uint256"
            },
            {
              "internalType": "uint256",
              "name": "darkMatter",
              "type": "uint256"
            },
            {
              "internalType": "uint256",
              "name": "plasmaEnergy",
              "type": "uint256"
            },
            {
              "internalType": "uint256",
              "name": "voidEssence",
              "type": "uint256"
            },
            {
              "components": [
                {
                  "internalType": "uint256",
                  "name": "level",
                  "type": "uint256"
                },
                {
                  "internalType": "uint256",
                  "name": "cost",
                  "type": "uint256"
                },
                {
                  "internalType": "uint256",
                  "name": "lastExtract",
                  "type": "uint256"
                }
              ],
              "internalType": "struct BlackHole.Extractor",
              "name": "extractor",
              "type": "tuple"
            },
            {
              "internalType": "uint256",
              "name": "nokai",
              "type": "uint256"
            },
            {
              "internalType": "address",
              "name": "owner",
              "type": "address"
            },
            {
              "internalType": "bool",
              "name": "discovered",
              "type": "bool"
            }
          ],
          "internalType": "struct BlackHole.Territory",
          "name": "",
          "type": "tuple"
        }
      ],
      "stateMutability": "view",
      "type": "function",
      "constant": true
    },
    {
      "inputs": [
        {
          "internalType": "uint256",
          "name": "from",
          "type": "uint256"
        },
        {
          "internalType": "uint256",
          "name": "to",
          "type": "uint256"
        }
      ],
      "name": "getForRange",
      "outputs": [
        {
          "components": [
            {
              "internalType": "uint16",
              "name": "x",
              "type": "uint16"
            },
            {
              "internalType": "uint16",
              "name": "y",
              "type": "uint16"
            },
            {
              "internalType": "uint256",
              "name": "darkEnergy",
              "type": "uint256"
            },
            {
              "internalType": "uint256",
              "name": "darkMatter",
              "type": "uint256"
            },
            {
              "internalType": "uint256",
              "name": "plasmaEnergy",
              "type": "uint256"
            },
            {
              "internalType": "uint256",
              "name": "voidEssence",
              "type": "uint256"
            },
            {
              "components": [
                {
                  "internalType": "uint256",
                  "name": "level",
                  "type": "uint256"
                },
                {
                  "internalType": "uint256",
                  "name": "cost",
                  "type": "uint256"
                },
                {
                  "internalType": "uint256",
                  "name": "lastExtract",
                  "type": "uint256"
                }
              ],
              "internalType": "struct BlackHole.Extractor",
              "name": "extractor",
              "type": "tuple"
            },
            {
              "internalType": "uint256",
              "name": "nokai",
              "type": "uint256"
            },
            {
              "internalType": "address",
              "name": "owner",
              "type": "address"
            },
            {
              "internalType": "bool",
              "name": "discovered",
              "type": "bool"
            }
          ],
          "internalType": "struct BlackHole.Territory[]",
          "name": "",
          "type": "tuple[]"
        }
      ],
      "stateMutability": "view",
      "type": "function",
      "constant": true
    },
    {
      "inputs": [
        {
          "internalType": "uint256[]",
          "name": "choices",
          "type": "uint256[]"
        }
      ],
      "name": "getFor",
      "outputs": [
        {
          "components": [
            {
              "internalType": "uint16",
              "name": "x",
              "type": "uint16"
            },
            {
              "internalType": "uint16",
              "name": "y",
              "type": "uint16"
            },
            {
              "internalType": "uint256",
              "name": "darkEnergy",
              "type": "uint256"
            },
            {
              "internalType": "uint256",
              "name": "darkMatter",
              "type": "uint256"
            },
            {
              "internalType": "uint256",
              "name": "plasmaEnergy",
              "type": "uint256"
            },
            {
              "internalType": "uint256",
              "name": "voidEssence",
              "type": "uint256"
            },
            {
              "components": [
                {
                  "internalType": "uint256",
                  "name": "level",
                  "type": "uint256"
                },
                {
                  "internalType": "uint256",
                  "name": "cost",
                  "type": "uint256"
                },
                {
                  "internalType": "uint256",
                  "name": "lastExtract",
                  "type": "uint256"
                }
              ],
              "internalType": "struct BlackHole.Extractor",
              "name": "extractor",
              "type": "tuple"
            },
            {
              "internalType": "uint256",
              "name": "nokai",
              "type": "uint256"
            },
            {
              "internalType": "address",
              "name": "owner",
              "type": "address"
            },
            {
              "internalType": "bool",
              "name": "discovered",
              "type": "bool"
            }
          ],
          "internalType": "struct BlackHole.Territory[]",
          "name": "",
          "type": "tuple[]"
        }
      ],
      "stateMutability": "view",
      "type": "function",
      "constant": true
    },
    {
      "inputs": [
        {
          "internalType": "uint256",
          "name": "startPos",
          "type": "uint256"
        },
        {
          "internalType": "uint256",
          "name": "endPos",
          "type": "uint256"
        },
        {
          "internalType": "uint256",
          "name": "startLine",
          "type": "uint256"
        },
        {
          "internalType": "uint256",
          "name": "endLine",
          "type": "uint256"
        }
      ],
      "name": "getForBox",
      "outputs": [
        {
          "components": [
            {
              "internalType": "uint16",
              "name": "x",
              "type": "uint16"
            },
            {
              "internalType": "uint16",
              "name": "y",
              "type": "uint16"
            },
            {
              "internalType": "uint256",
              "name": "darkEnergy",
              "type": "uint256"
            },
            {
              "internalType": "uint256",
              "name": "darkMatter",
              "type": "uint256"
            },
            {
              "internalType": "uint256",
              "name": "plasmaEnergy",
              "type": "uint256"
            },
            {
              "internalType": "uint256",
              "name": "voidEssence",
              "type": "uint256"
            },
            {
              "components": [
                {
                  "internalType": "uint256",
                  "name": "level",
                  "type": "uint256"
                },
                {
                  "internalType": "uint256",
                  "name": "cost",
                  "type": "uint256"
                },
                {
                  "internalType": "uint256",
                  "name": "lastExtract",
                  "type": "uint256"
                }
              ],
              "internalType": "struct BlackHole.Extractor",
              "name": "extractor",
              "type": "tuple"
            },
            {
              "internalType": "uint256",
              "name": "nokai",
              "type": "uint256"
            },
            {
              "internalType": "address",
              "name": "owner",
              "type": "address"
            },
            {
              "internalType": "bool",
              "name": "discovered",
              "type": "bool"
            }
          ],
          "internalType": "struct BlackHole.Territory[]",
          "name": "",
          "type": "tuple[]"
        }
      ],
      "stateMutability": "view",
      "type": "function",
      "constant": true
    }
  ],
  "bytecode": "0x60806040523480156200001157600080fd5b5060405162005116380380620051168339818101604052810190620000379190620004cb565b81600160006101000a81548161ffff021916908361ffff16021790555080600160026101000a81548161ffff021916908361ffff160217905550600160029054906101000a900461ffff16600160009054906101000a900461ffff166200009f919062000583565b61ffff16600281905550620000c860006001023362000320640100000000026401000000009004565b6040518061014001604052806002600160009054906101000a900461ffff16620000f391906200054b565b61ffff1681526020016002600160029054906101000a900461ffff166200011b91906200054b565b61ffff168152602001600a81526020016064815260200160648152602001606481526020016040518060600160405280600181526020016103e8815260200142815250815260200160008152602001600073ffffffffffffffffffffffffffffffffffffffff16815260200160011515815250600460006002600160009054906101000a900461ffff16620001b191906200054b565b600160009054906101000a900461ffff166002600160029054906101000a900461ffff16620001e191906200054b565b620001ed919062000583565b620001f991906200050c565b61ffff16815260200190815260200160002060008201518160000160006101000a81548161ffff021916908361ffff16021790555060208201518160000160026101000a81548161ffff021916908361ffff16021790555060408201518160010155606082015181600201556080820151816003015560a0820151816004015560c082015181600501600082015181600001556020820151816001015560408201518160020155505060e082015181600801556101008201518160090160006101000a81548173ffffffffffffffffffffffffffffffffffffffff021916908373ffffffffffffffffffffffffffffffffffffffff1602179055506101208201518160090160146101000a81548160ff02191690831515021790555090505050506200064c565b6200033b82826200033f640100000000026401000000009004565b5050565b6200035a828262000442640100000000026401000000009004565b6200043e57600160008084815260200190815260200160002060000160008373ffffffffffffffffffffffffffffffffffffffff1673ffffffffffffffffffffffffffffffffffffffff16815260200190815260200160002060006101000a81548160ff021916908315150217905550620003e3620004ac640100000000026401000000009004565b73ffffffffffffffffffffffffffffffffffffffff168173ffffffffffffffffffffffffffffffffffffffff16837f2f8788117e7eff1d82e926ec794901d17c78024a50270940304540a733656f0d60405160405180910390a45b5050565b600080600084815260200190815260200160002060000160008373ffffffffffffffffffffffffffffffffffffffff1673ffffffffffffffffffffffffffffffffffffffff16815260200190815260200160002060009054906101000a900460ff16905092915050565b600033905090565b600081519050620004c58162000632565b92915050565b60008060408385031215620004df57600080fd5b6000620004ef85828601620004b4565b92505060206200050285828601620004b4565b9150509250929050565b60006200051982620005c6565b91506200052683620005c6565b92508261ffff0382111562000540576200053f620005d4565b5b828201905092915050565b60006200055882620005c6565b91506200056583620005c6565b92508262000578576200057762000603565b5b828204905092915050565b60006200059082620005c6565b91506200059d83620005c6565b92508161ffff0483118215151615620005bb57620005ba620005d4565b5b828202905092915050565b600061ffff82169050919050565b7f4e487b7100000000000000000000000000000000000000000000000000000000600052601160045260246000fd5b7f4e487b7100000000000000000000000000000000000000000000000000000000600052601260045260246000fd5b6200063d81620005c6565b81146200064957600080fd5b50565b614aba806200065c6000396000f3fe608060405234801561001057600080fd5b50600436106101ab576000357c0100000000000000000000000000000000000000000000000000000000900480638e817b41116100fb578063cad86e51116100b4578063e86a59c41161008e578063e86a59c4146104fd578063fba785de1461051b578063ff6fcdbd1461054b578063ff7ae6ee14610569576101ab565b8063cad86e5114610495578063d547741f146104b1578063d9bedad4146104cd576101ab565b80638e817b41146103af57806391d14854146103cb57806394951550146103fb5780639bd0f28b1461042b578063a217fddf14610447578063b24baccb14610465576101ab565b80633df40bd311610168578063684fad9011610142578063684fad901461032757806370d20d3e1461035757806385fc6940146103755780638b04f64714610391576101ab565b80633df40bd3146102ab5780634be4f486146102db57806367ed3697146102f7576101ab565b806301ffc9a7146101b057806308be8abb146101e05780630f2fb69d14610213578063248a9ca3146102435780632f2ff15d1461027357806336568abe1461028f575b600080fd5b6101ca60048036038101906101c5919061350d565b610585565b6040516101d79190614207565b60405180910390f35b6101fa60048036038101906101f59190613572565b6105ff565b60405161020a9493929190614596565b60405180910390f35b61022d6004803603810190610228919061343a565b610975565b60405161023a919061457b565b60405180910390f35b61025d600480360381019061025891906134a8565b6109be565b60405161026a9190614222565b60405180910390f35b61028d600480360381019061028891906134d1565b6109dd565b005b6102a960048036038101906102a491906134d1565b610a06565b005b6102c560048036038101906102c09190613713565b610a89565b6040516102d291906141e5565b60405180910390f35b6102f560048036038101906102f09190613572565b610d09565b005b610311600480360381019061030c91906136ea565b610eeb565b60405161031e919061443f565b60405180910390f35b610341600480360381019061033c9190613536565b610f73565b60405161034e919061457b565b60405180910390f35b61035f610fbe565b60405161036c9190614476565b60405180910390f35b61038f600480360381019061038a91906135c1565b610fd2565b005b6103996115ec565b6040516103a69190614476565b60405180910390f35b6103c960048036038101906103c49190613638565b611600565b005b6103e560048036038101906103e091906134d1565b61166c565b6040516103f29190614207565b60405180910390f35b61041560048036038101906104109190613536565b6116d6565b604051610422919061457b565b60405180910390f35b61044560048036038101906104409190613687565b611724565b005b61044f611894565b60405161045c9190614222565b60405180910390f35b61047f600480360381019061047a9190613536565b61189c565b60405161048c919061445a565b60405180910390f35b6104af60048036038101906104aa9190613687565b611a0a565b005b6104cb60048036038101906104c691906134d1565b611ada565b005b6104e760048036038101906104e2919061374f565b611b03565b6040516104f491906141e5565b60405180910390f35b610505611e49565b604051610512919061457b565b60405180910390f35b61053560048036038101906105309190613463565b611e4f565b60405161054291906141e5565b60405180910390f35b6105536120d3565b6040516105609190614222565b60405180910390f35b610583600480360381019061057e91906135c1565b6120f7565b005b60007f7965db0b000000000000000000000000000000000000000000000000000000007bffffffffffffffffffffffffffffffffffffffffffffffffffffffff1916827bffffffffffffffffffffffffffffffffffffffffffffffffffffffff191614806105f857506105f7826123e6565b5b9050919050565b6000806000807fef17b1f3c5a412f9c8e887e3abd186802afec7dc657fd3b7002bf87b128dd0b161063781610632612450565b612458565b600088600160009054906101000a900461ffff168961065691906146fa565b610660919061463b565b61ffff1690508673ffffffffffffffffffffffffffffffffffffffff166004600083815260200190815260200160002060090160009054906101000a900473ffffffffffffffffffffffffffffffffffffffff1673ffffffffffffffffffffffffffffffffffffffff161461070a576040517f08c379a00000000000000000000000000000000000000000000000000000000081526004016107019061437f565b60405180910390fd5b6000610e1060046000848152602001908152602001600020600501600201544261073491906147c4565b61073e91906146c9565b9050426004600084815260200190815260200160002060050160020181905550600080600460008581526020019081526020016000206001015414156107855760006107cc565b81600460008581526020019081526020016000206005016000015460046000868152602001908152602001600020600101546107c19190614736565b6107cb9190614736565b5b9050600080600460008681526020019081526020016000206002015414156107f557600061083c565b82600460008681526020019081526020016000206005016000015460046000878152602001908152602001600020600201546108319190614736565b61083b9190614736565b5b9050600080600460008781526020019081526020016000206003015414156108655760006108ac565b83600460008781526020019081526020016000206005016000015460046000888152602001908152602001600020600301546108a19190614736565b6108ab9190614736565b5b9050600080600460008881526020019081526020016000206004015414156108d557600061091c565b84600460008881526020019081526020016000206005016000015460046000898152602001908152602001600020600401546109119190614736565b61091b9190614736565b5b90507f49f00360f1bf5498a47c8bca06199209dcc94e1d9087f2d36afc4c0a30f7f1aa8e8e8e604051610951939291906144ba565b60405180910390a1838383839a509a509a509a505050505050505093509350935093565b6000600360008373ffffffffffffffffffffffffffffffffffffffff1673ffffffffffffffffffffffffffffffffffffffff168152602001908152602001600020549050919050565b6000806000838152602001908152602001600020600101549050919050565b6109e6826109be565b6109f7816109f2612450565b612458565b610a0183836124f6565b505050565b610a0e612450565b73ffffffffffffffffffffffffffffffffffffffff168173ffffffffffffffffffffffffffffffffffffffff1614610a7b576040517f08c379a0000000000000000000000000000000000000000000000000000000008152600401610a729061441f565b60405180910390fd5b610a8582826125d6565b5050565b606060008310158015610a9d575060025482105b610adc576040517f08c379a0000000000000000000000000000000000000000000000000000000008152600401610ad39061429f565b60405180910390fd5b60008383610aea91906147c4565b67ffffffffffffffff811115610b29577f4e487b7100000000000000000000000000000000000000000000000000000000600052604160045260246000fd5b604051908082528060200260200182016040528015610b6257816020015b610b4f6132c2565b815260200190600190039081610b475790505b50905060008490505b83811015610cfe5760046000828152602001908152602001600020604051806101400160405290816000820160009054906101000a900461ffff1661ffff1661ffff1681526020016000820160029054906101000a900461ffff1661ffff1661ffff168152602001600182015481526020016002820154815260200160038201548152602001600482015481526020016005820160405180606001604052908160008201548152602001600182015481526020016002820154815250508152602001600882015481526020016009820160009054906101000a900473ffffffffffffffffffffffffffffffffffffffff1673ffffffffffffffffffffffffffffffffffffffff1673ffffffffffffffffffffffffffffffffffffffff1681526020016009820160149054906101000a900460ff161515151581525050828281518110610ce0577f4e487b7100000000000000000000000000000000000000000000000000000000600052603260045260246000fd5b60200260200101819052508080610cf6906148e1565b915050610b6b565b508091505092915050565b7fef17b1f3c5a412f9c8e887e3abd186802afec7dc657fd3b7002bf87b128dd0b1610d3b81610d36612450565b612458565b600084600160009054906101000a900461ffff1685610d5a91906146fa565b610d64919061463b565b61ffff1690508273ffffffffffffffffffffffffffffffffffffffff166004600083815260200190815260200160002060090160009054906101000a900473ffffffffffffffffffffffffffffffffffffffff1673ffffffffffffffffffffffffffffffffffffffff1614610e0e576040517f08c379a0000000000000000000000000000000000000000000000000000000008152600401610e059061437f565b60405180910390fd5b6001600460008381526020019081526020016000206005016000016000828254610e389190614673565b925050819055506002600460008381526020019081526020016000206005016001016000828254610e699190614736565b925050819055504260046000838152602001908152602001600020600501600201819055507fb01f61f96739051313598e07a91ff2905b43a10aea863413abec3e20f00e41f88585856004600086815260200190815260200160002060050160000154604051610edc94939291906144f1565b60405180910390a15050505050565b610ef361333b565b600560008381526020019081526020016000206040518060600160405290816000820160009054906101000a900460ff161515151581526020016000820160019054906101000a900461ffff1661ffff1661ffff1681526020016000820160039054906101000a900461ffff1661ffff1661ffff16815250509050919050565b60006004600084600160009054906101000a900461ffff1685610f9691906146fa565b610fa0919061463b565b61ffff16815260200190815260200160002060080154905092915050565b600160009054906101000a900461ffff1681565b7fef17b1f3c5a412f9c8e887e3abd186802afec7dc657fd3b7002bf87b128dd0b161100481610fff612450565b612458565b600084600160009054906101000a900461ffff168561102391906146fa565b61102d919061463b565b61ffff169050600085600160009054906101000a900461ffff168661105291906146fa565b61105c919061463b565b61ffff1690508373ffffffffffffffffffffffffffffffffffffffff166004600084815260200190815260200160002060090160009054906101000a900473ffffffffffffffffffffffffffffffffffffffff1673ffffffffffffffffffffffffffffffffffffffff1614611106576040517f08c379a00000000000000000000000000000000000000000000000000000000081526004016110fd9061431f565b60405180910390fd5b6004600082815260200190815260200160002060090160009054906101000a900473ffffffffffffffffffffffffffffffffffffffff1673ffffffffffffffffffffffffffffffffffffffff166004600084815260200190815260200160002060090160009054906101000a900473ffffffffffffffffffffffffffffffffffffffff1673ffffffffffffffffffffffffffffffffffffffff1614156111e1576040517f08c379a00000000000000000000000000000000000000000000000000000000081526004016111d89061435f565b60405180910390fd5b600060046000838152602001908152602001600020600801541461123a576040517f08c379a0000000000000000000000000000000000000000000000000000000008152600401611231906142bf565b60405180910390fd5b600060046000848152602001908152602001600020600801541415611294576040517f08c379a000000000000000000000000000000000000000000000000000000000815260040161128b9061427f565b60405180910390fd5b60006004600083815260200190815260200160002060090160009054906101000a900473ffffffffffffffffffffffffffffffffffffffff1690506000600360008373ffffffffffffffffffffffffffffffffffffffff1673ffffffffffffffffffffffffffffffffffffffff168152602001908152602001600020541161131d57600061136a565b6001600360008373ffffffffffffffffffffffffffffffffffffffff1673ffffffffffffffffffffffffffffffffffffffff1681526020019081526020016000205461136991906147c4565b5b600360008373ffffffffffffffffffffffffffffffffffffffff1673ffffffffffffffffffffffffffffffffffffffff168152602001908152602001600020819055506001600360008773ffffffffffffffffffffffffffffffffffffffff1673ffffffffffffffffffffffffffffffffffffffff16815260200190815260200160002060008282546113fd9190614673565b92505081905550846004600084815260200190815260200160002060090160006101000a81548173ffffffffffffffffffffffffffffffffffffffff021916908373ffffffffffffffffffffffffffffffffffffffff16021790555061147c8288886004600088815260200190815260200160002060080154896126b7565b600060046000858152602001908152602001600020600801819055506114d987876004600087815260200190815260200160002060090160009054906101000a900473ffffffffffffffffffffffffffffffffffffffff16612867565b6004600084815260200190815260200160002060090160009054906101000a900473ffffffffffffffffffffffffffffffffffffffff1673ffffffffffffffffffffffffffffffffffffffff1660046000848152602001908152602001600020600801547f67a6f2fb053652dd7425e63562e24bdf462b177cd1b8dff273fe8b77916a242e8b8b8b8b6040516115729493929190614536565b60405180910390a38473ffffffffffffffffffffffffffffffffffffffff168173ffffffffffffffffffffffffffffffffffffffff167fea589a3cca623dcd8e51689d3b9eb0134fe2019a64e8bc9a76d281a63a95ff0789896040516115d9929190614491565b60405180910390a3505050505050505050565b600160029054906101000a900461ffff1681565b7fef17b1f3c5a412f9c8e887e3abd186802afec7dc657fd3b7002bf87b128dd0b16116328161162d612450565b612458565b61166684600160009054906101000a900461ffff168561165291906146fa565b61165c919061463b565b61ffff168361290e565b50505050565b600080600084815260200190815260200160002060000160008373ffffffffffffffffffffffffffffffffffffffff1673ffffffffffffffffffffffffffffffffffffffff16815260200190815260200160002060009054906101000a900460ff16905092915050565b60006004600084600160009054906101000a900461ffff16856116f991906146fa565b611703919061463b565b61ffff16815260200190815260200160002060050160010154905092915050565b7fef17b1f3c5a412f9c8e887e3abd186802afec7dc657fd3b7002bf87b128dd0b161175681611751612450565b612458565b600085600160009054906101000a900461ffff168661177591906146fa565b61177f919061463b565b61ffff1690508273ffffffffffffffffffffffffffffffffffffffff166004600083815260200190815260200160002060090160009054906101000a900473ffffffffffffffffffffffffffffffffffffffff1673ffffffffffffffffffffffffffffffffffffffff1614611829576040517f08c379a0000000000000000000000000000000000000000000000000000000008152600401611820906142ff565b60405180910390fd5b6001600460008381526020019081526020016000206008015414611882576040517f08c379a0000000000000000000000000000000000000000000000000000000008152600401611879906142df565b60405180910390fd5b61188c818561290e565b505050505050565b600060010281565b6118a46132c2565b6004600084600160009054906101000a900461ffff16856118c591906146fa565b6118cf919061463b565b61ffff168152602001908152602001600020604051806101400160405290816000820160009054906101000a900461ffff1661ffff1661ffff1681526020016000820160029054906101000a900461ffff1661ffff1661ffff168152602001600182015481526020016002820154815260200160038201548152602001600482015481526020016005820160405180606001604052908160008201548152602001600182015481526020016002820154815250508152602001600882015481526020016009820160009054906101000a900473ffffffffffffffffffffffffffffffffffffffff1673ffffffffffffffffffffffffffffffffffffffff1673ffffffffffffffffffffffffffffffffffffffff1681526020016009820160149054906101000a900460ff161515151581525050905092915050565b7fef17b1f3c5a412f9c8e887e3abd186802afec7dc657fd3b7002bf87b128dd0b1611a3c81611a37612450565b612458565b600085600160009054906101000a900461ffff1686611a5b91906146fa565b611a65919061463b565b61ffff1690506000600360008573ffffffffffffffffffffffffffffffffffffffff1673ffffffffffffffffffffffffffffffffffffffff168152602001908152602001600020541115611ac557611ac081878787876126b7565b611ad2565b611ad181878787612a19565b5b505050505050565b611ae3826109be565b611af481611aef612450565b612458565b611afe83836125d6565b505050565b60608385108015611b15575060008510155b8015611b345750600160009054906101000a900461ffff1661ffff1684105b8015611b3f57508183105b8015611b4c575060008310155b8015611b6b5750600160029054906101000a900461ffff1661ffff1682105b611baa576040517f08c379a0000000000000000000000000000000000000000000000000000000008152600401611ba1906143df565b60405180910390fd5b60008383611bb891906147c4565b8686611bc491906147c4565b611bce9190614736565b67ffffffffffffffff811115611c0d577f4e487b7100000000000000000000000000000000000000000000000000000000600052604160045260246000fd5b604051908082528060200260200182016040528015611c4657816020015b611c336132c2565b815260200190600190039081611c2b5790505b5090506000808590505b84811015611e3b5760008890505b87811015611e27576004600082600160009054906101000a900461ffff1661ffff1685611c8b9190614736565b611c959190614673565b8152602001908152602001600020604051806101400160405290816000820160009054906101000a900461ffff1661ffff1661ffff1681526020016000820160029054906101000a900461ffff1661ffff1661ffff168152602001600182015481526020016002820154815260200160038201548152602001600482015481526020016005820160405180606001604052908160008201548152602001600182015481526020016002820154815250508152602001600882015481526020016009820160009054906101000a900473ffffffffffffffffffffffffffffffffffffffff1673ffffffffffffffffffffffffffffffffffffffff1673ffffffffffffffffffffffffffffffffffffffff1681526020016009820160149054906101000a900460ff161515151581525050848480611dd0906148e1565b955081518110611e09577f4e487b7100000000000000000000000000000000000000000000000000000000600052603260045260246000fd5b60200260200101819052508080611e1f906148e1565b915050611c5e565b508080611e33906148e1565b915050611c50565b508192505050949350505050565b60025481565b606060008383905067ffffffffffffffff811115611e96577f4e487b7100000000000000000000000000000000000000000000000000000000600052604160045260246000fd5b604051908082528060200260200182016040528015611ecf57816020015b611ebc6132c2565b815260200190600190039081611eb45790505b50905060005b848490508110156120c8576000858583818110611f1b577f4e487b7100000000000000000000000000000000000000000000000000000000600052603260045260246000fd5b90506020020135905060008110158015611f36575060025481105b156120b45760046000828152602001908152602001600020604051806101400160405290816000820160009054906101000a900461ffff1661ffff1661ffff1681526020016000820160029054906101000a900461ffff1661ffff1661ffff168152602001600182015481526020016002820154815260200160038201548152602001600482015481526020016005820160405180606001604052908160008201548152602001600182015481526020016002820154815250508152602001600882015481526020016009820160009054906101000a900473ffffffffffffffffffffffffffffffffffffffff1673ffffffffffffffffffffffffffffffffffffffff1673ffffffffffffffffffffffffffffffffffffffff1681526020016009820160149054906101000a900460ff1615151515815250508383815181106120a8577f4e487b7100000000000000000000000000000000000000000000000000000000600052603260045260246000fd5b60200260200101819052505b5080806120c0906148e1565b915050611ed5565b508091505092915050565b7fef17b1f3c5a412f9c8e887e3abd186802afec7dc657fd3b7002bf87b128dd0b181565b7fef17b1f3c5a412f9c8e887e3abd186802afec7dc657fd3b7002bf87b128dd0b161212981612124612450565b612458565b600084600160009054906101000a900461ffff168561214891906146fa565b612152919061463b565b61ffff169050600085600160009054906101000a900461ffff168661217791906146fa565b612181919061463b565b61ffff1690506004600082815260200190815260200160002060090160009054906101000a900473ffffffffffffffffffffffffffffffffffffffff1673ffffffffffffffffffffffffffffffffffffffff166004600084815260200190815260200160002060090160009054906101000a900473ffffffffffffffffffffffffffffffffffffffff1673ffffffffffffffffffffffffffffffffffffffff1614612261576040517f08c379a0000000000000000000000000000000000000000000000000000000008152600401612258906143ff565b60405180910390fd5b6000600460008481526020019081526020016000206008015414156122bb576040517f08c379a00000000000000000000000000000000000000000000000000000000081526004016122b29061427f565b60405180910390fd5b6122de8187876004600087815260200190815260200160002060080154886126b7565b6000600460008481526020019081526020016000206008018190555061233b86866004600086815260200190815260200160002060090160009054906101000a900473ffffffffffffffffffffffffffffffffffffffff16612867565b6004600083815260200190815260200160002060090160009054906101000a900473ffffffffffffffffffffffffffffffffffffffff1673ffffffffffffffffffffffffffffffffffffffff1660046000838152602001908152602001600020600801547f67a6f2fb053652dd7425e63562e24bdf462b177cd1b8dff273fe8b77916a242e8a8a8a8a6040516123d49493929190614536565b60405180910390a35050505050505050565b60007f01ffc9a7000000000000000000000000000000000000000000000000000000007bffffffffffffffffffffffffffffffffffffffffffffffffffffffff1916827bffffffffffffffffffffffffffffffffffffffffffffffffffffffff1916149050919050565b600033905090565b612462828261166c565b6124f2576124878173ffffffffffffffffffffffffffffffffffffffff166014612bc9565b61249683600190046020612bc9565b6040516020016124a792919061416e565b6040516020818303038152906040526040517f08c379a00000000000000000000000000000000000000000000000000000000081526004016124e9919061423d565b60405180910390fd5b5050565b612500828261166c565b6125d257600160008084815260200190815260200160002060000160008373ffffffffffffffffffffffffffffffffffffffff1673ffffffffffffffffffffffffffffffffffffffff16815260200190815260200160002060006101000a81548160ff021916908315150217905550612577612450565b73ffffffffffffffffffffffffffffffffffffffff168173ffffffffffffffffffffffffffffffffffffffff16837f2f8788117e7eff1d82e926ec794901d17c78024a50270940304540a733656f0d60405160405180910390a45b5050565b6125e0828261166c565b156126b357600080600084815260200190815260200160002060000160008373ffffffffffffffffffffffffffffffffffffffff1673ffffffffffffffffffffffffffffffffffffffff16815260200190815260200160002060006101000a81548160ff021916908315150217905550612658612450565b73ffffffffffffffffffffffffffffffffffffffff168173ffffffffffffffffffffffffffffffffffffffff16837ff6391f5c32d9c69d2a47ea670b442974b53935d1edc7fd64eb21e047a839171b60405160405180910390a45b5050565b8073ffffffffffffffffffffffffffffffffffffffff166004600087815260200190815260200160002060090160009054906101000a900473ffffffffffffffffffffffffffffffffffffffff1673ffffffffffffffffffffffffffffffffffffffff161461275b576040517f08c379a0000000000000000000000000000000000000000000000000000000008152600401612752906142ff565b60405180910390fd5b60006004600087815260200190815260200160002060080154146127b4576040517f08c379a00000000000000000000000000000000000000000000000000000000081526004016127ab906143bf565b60405180910390fd5b81600460008781526020019081526020016000206008018190555060016005600084815260200190815260200160002060000160006101000a81548160ff021916908315150217905550836005600084815260200190815260200160002060000160016101000a81548161ffff021916908361ffff160217905550826005600084815260200190815260200160002060000160036101000a81548161ffff021916908361ffff1602179055505050505050565b61287e6001846128779190614790565b8383612eea565b6128958360018461288f9190614790565b83612eea565b6128b86001846128a5919061463b565b6001846128b29190614790565b83612eea565b6128cf6001846128c8919061463b565b8383612eea565b6128f26001846128df919061463b565b6001846128ec919061463b565b83612eea565b61290983600184612903919061463b565b83612eea565b505050565b80600460008481526020019081526020016000206008015414612966576040517f08c379a000000000000000000000000000000000000000000000000000000000815260040161295d9061439f565b60405180910390fd5b6000600460008481526020019081526020016000206008018190555060006005600083815260200190815260200160002060000160006101000a81548160ff02191690831515021790555060006005600083815260200190815260200160002060000160016101000a81548161ffff021916908361ffff16021790555060006005600083815260200190815260200160002060000160036101000a81548161ffff021916908361ffff1602179055505050565b600073ffffffffffffffffffffffffffffffffffffffff166004600086815260200190815260200160002060090160009054906101000a900473ffffffffffffffffffffffffffffffffffffffff1673ffffffffffffffffffffffffffffffffffffffff1614612abe576040517f08c379a0000000000000000000000000000000000000000000000000000000008152600401612ab59061433f565b60405180910390fd5b6000600460008681526020019081526020016000206008015414612b17576040517f08c379a0000000000000000000000000000000000000000000000000000000008152600401612b0e906143bf565b60405180910390fd5b80600460008681526020019081526020016000206008018190555060016005600083815260200190815260200160002060000160006101000a81548160ff021916908315150217905550826005600083815260200190815260200160002060000160016101000a81548161ffff021916908361ffff160217905550816005600083815260200190815260200160002060000160036101000a81548161ffff021916908361ffff16021790555050505050565b606060006002836002612bdc9190614736565b612be69190614673565b67ffffffffffffffff811115612c25577f4e487b7100000000000000000000000000000000000000000000000000000000600052604160045260246000fd5b6040519080825280601f01601f191660200182016040528015612c575781602001600182028036833780820191505090505b5090507f300000000000000000000000000000000000000000000000000000000000000081600081518110612cb5577f4e487b7100000000000000000000000000000000000000000000000000000000600052603260045260246000fd5b60200101907effffffffffffffffffffffffffffffffffffffffffffffffffffffffffffff1916908160001a9053507f780000000000000000000000000000000000000000000000000000000000000081600181518110612d3f577f4e487b7100000000000000000000000000000000000000000000000000000000600052603260045260246000fd5b60200101907effffffffffffffffffffffffffffffffffffffffffffffffffffffffffffff1916908160001a90535060006001846002612d7f9190614736565b612d899190614673565b90505b6001811115612e9c577f3031323334353637383961626364656600000000000000000000000000000000600f861660108110612df1577f4e487b7100000000000000000000000000000000000000000000000000000000600052603260045260246000fd5b1a7f010000000000000000000000000000000000000000000000000000000000000002828281518110612e4d577f4e487b7100000000000000000000000000000000000000000000000000000000600052603260045260246000fd5b60200101907effffffffffffffffffffffffffffffffffffffffffffffffffffffffffffff1916908160001a905350600485908060020a8204915050945080612e95906148b7565b9050612d8c565b5060008414612ee0576040517f08c379a0000000000000000000000000000000000000000000000000000000008152600401612ed79061425f565b60405180910390fd5b8091505092915050565b600083600160009054906101000a900461ffff1684612f0991906146fa565b612f13919061463b565b61ffff1690506000600a90506004600254612f2e91906146c9565b81118015612f55575060036004600254612f4891906146c9565b612f529190614736565b81105b15612f5f57602890505b60026005600254612f7091906146c9565b612f7a9190614736565b81118015612fa1575060036005600254612f9491906146c9565b612f9e9190614736565b81105b15612fab57605090505b600081612fb984606461327e565b612fc39190614673565b9050600082612fdf600186612fd89190614673565b606461327e565b612fe99190614673565b9050600083613005600287612ffe9190614673565b606461327e565b61300f9190614673565b90508183108061301e57508083105b1561302857600092505b8282108061303557508082105b1561303f57600091505b8281108061304c57508181105b1561305657600090505b600015156004600087815260200190815260200160002060090160149054906101000a900460ff1615151415613274576040518061014001604052808961ffff1681526020018861ffff16815260200160008152602001848152602001838152602001600a836130c691906146c9565b81526020016040518060600160405280600081526020016101f48152602001428152508152602001600081526020018773ffffffffffffffffffffffffffffffffffffffff168152602001600115158152506004600087815260200190815260200160002060008201518160000160006101000a81548161ffff021916908361ffff16021790555060208201518160000160026101000a81548161ffff021916908361ffff16021790555060408201518160010155606082015181600201556080820151816003015560a0820151816004015560c082015181600501600082015181600001556020820151816001015560408201518160020155505060e082015181600801556101008201518160090160006101000a81548173ffffffffffffffffffffffffffffffffffffffff021916908373ffffffffffffffffffffffffffffffffffffffff1602179055506101208201518160090160146101000a81548160ff0219169083151502179055509050507fcfc47dcefc6f1ec1fd8ed1662ac24698fe911253fa1ce3460f7e7c83bf8d64b588888860405161326b939291906144ba565b60405180910390a15b5050505050505050565b600081423385604051602001613296939291906141a8565b60405160208183030381529060405280519060200120600190046132ba9190614958565b905092915050565b604051806101400160405280600061ffff168152602001600061ffff16815260200160008152602001600081526020016000815260200160008152602001613308613366565b815260200160008152602001600073ffffffffffffffffffffffffffffffffffffffff1681526020016000151581525090565b6040518060600160405280600015158152602001600061ffff168152602001600061ffff1681525090565b60405180606001604052806000815260200160008152602001600081525090565b60008135905061339681614a11565b92915050565b60008083601f8401126133ae57600080fd5b8235905067ffffffffffffffff8111156133c757600080fd5b6020830191508360208202830111156133df57600080fd5b9250929050565b6000813590506133f581614a28565b92915050565b60008135905061340a81614a3f565b92915050565b60008135905061341f81614a56565b92915050565b60008135905061343481614a6d565b92915050565b60006020828403121561344c57600080fd5b600061345a84828501613387565b91505092915050565b6000806020838503121561347657600080fd5b600083013567ffffffffffffffff81111561349057600080fd5b61349c8582860161339c565b92509250509250929050565b6000602082840312156134ba57600080fd5b60006134c8848285016133e6565b91505092915050565b600080604083850312156134e457600080fd5b60006134f2858286016133e6565b925050602061350385828601613387565b9150509250929050565b60006020828403121561351f57600080fd5b600061352d848285016133fb565b91505092915050565b6000806040838503121561354957600080fd5b600061355785828601613410565b925050602061356885828601613410565b9150509250929050565b60008060006060848603121561358757600080fd5b600061359586828701613410565b93505060206135a686828701613410565b92505060406135b786828701613387565b9150509250925092565b600080600080600060a086880312156135d957600080fd5b60006135e788828901613410565b95505060206135f888828901613410565b945050604061360988828901613410565b935050606061361a88828901613410565b925050608061362b88828901613387565b9150509295509295909350565b60008060006060848603121561364d57600080fd5b600061365b86828701613410565b935050602061366c86828701613410565b925050604061367d86828701613425565b9150509250925092565b6000806000806080858703121561369d57600080fd5b60006136ab87828801613410565b94505060206136bc87828801613410565b93505060406136cd87828801613425565b92505060606136de87828801613387565b91505092959194509250565b6000602082840312156136fc57600080fd5b600061370a84828501613425565b91505092915050565b6000806040838503121561372657600080fd5b600061373485828601613425565b925050602061374585828601613425565b9150509250929050565b6000806000806080858703121561376557600080fd5b600061377387828801613425565b945050602061378487828801613425565b935050604061379587828801613425565b92505060606137a687828801613425565b91505092959194509250565b60006137be8383613f81565b6101808301905092915050565b6137d4816147f8565b82525050565b6137e3816147f8565b82525050565b6137fa6137f5826147f8565b61492a565b82525050565b600061380b826145eb565b613815818561460e565b9350613820836145db565b8060005b8381101561385157815161383888826137b2565b975061384383614601565b925050600181019050613824565b5085935050505092915050565b6138678161480a565b82525050565b6138768161480a565b82525050565b61388581614816565b82525050565b6000613896826145f6565b6138a0818561461f565b93506138b0818560208601614884565b6138b9816149e7565b840191505092915050565b60006138cf826145f6565b6138d98185614630565b93506138e9818560208601614884565b80840191505092915050565b600061390260208361461f565b91507f537472696e67733a20686578206c656e67746820696e73756666696369656e746000830152602082019050919050565b600061394260328361461f565b91507f43757272656e74207465727269746f727920646f6573206e6f7420686176652060008301527f616e79204e6f6b616920746f206d6f76652e00000000000000000000000000006020830152604082019050919050565b60006139a860158361461f565b91507f696e76616c69642072616e6765207265717565737400000000000000000000006000830152602082019050919050565b60006139e8602e8361461f565b91507f546172676574207465727269746f7279206973207374696c6c20646566656e6460008301527f65642062792061204e6f6b61692e0000000000000000000000000000000000006020830152604082019050919050565b6000613a4e602f8361461f565b91507f537065636966696564207465727269746f7279206973206e6f74206f6363757060008301527f6965642062792061204e6f6b61692e00000000000000000000000000000000006020830152604082019050919050565b6000613ab460318361461f565b91507f596f7520617265206e6f7420746865206f776e6572206f66207468652073706560008301527f636966696564207465727269746f72792e0000000000000000000000000000006020830152604082019050919050565b6000613b1a60308361461f565b91507f596f7520617265206e6f7420746865206f776e6572206f6620746865206f726960008301527f67696e616c207465727269746f72792e000000000000000000000000000000006020830152604082019050919050565b6000613b8060338361461f565b91507f54686520737065636966696564207465727269746f7279206973206f776e656460008301527f20627920616e6f7468657220706c617965722e000000000000000000000000006020830152604082019050919050565b6000613be660378361461f565b91507f43757272656e7420616e6420746172676574207465727269746f72696573206160008301527f72652066726f6d207468652073616d65206f776e65722e0000000000000000006020830152604082019050919050565b6000613c4c60318361461f565b91507f796f7520617265206e6f7420746865206f776e6572206f66207468652073706560008301527f636966696564207465727269746f72792e0000000000000000000000000000006020830152604082019050919050565b6000613cb2602e8361461f565b91507f537065636966696564204e6f6b6169206973206e6f74206f6e2073706563696660008301527f696564207465727269746f72792e0000000000000000000000000000000000006020830152604082019050919050565b6000613d1860338361461f565b91507f537065636966696564207465727269746f727920697320616c7265616479206f60008301527f636375706965642062792061204e6f6b61692e000000000000000000000000006020830152604082019050919050565b6000613d7e60138361461f565b91507f696e76616c696420626f782072657175657374000000000000000000000000006000830152602082019050919050565b6000613dbe601783614630565b91507f416363657373436f6e74726f6c3a206163636f756e74200000000000000000006000830152601782019050919050565b6000613dfe603b8361461f565b91507f43757272656e7420616e6420746172676574207465727269746f72696573206160008301527f7265206e6f742066726f6d207468652073616d65206f776e65722e00000000006020830152604082019050919050565b6000613e64601183614630565b91507f206973206d697373696e6720726f6c65200000000000000000000000000000006000830152601182019050919050565b6000613ea4602f8361461f565b91507f416363657373436f6e74726f6c3a2063616e206f6e6c792072656e6f756e636560008301527f20726f6c657320666f722073656c6600000000000000000000000000000000006020830152604082019050919050565b606082016000820151613f136000850182614139565b506020820151613f266020850182614139565b506040820151613f396040850182614139565b50505050565b606082016000820151613f55600085018261385e565b506020820151613f68602085018261411b565b506040820151613f7b604085018261411b565b50505050565b61018082016000820151613f98600085018261411b565b506020820151613fab602085018261411b565b506040820151613fbe6040850182614139565b506060820151613fd16060850182614139565b506080820151613fe46080850182614139565b5060a0820151613ff760a0850182614139565b5060c082015161400a60c0850182613efd565b5060e082015161401e610120850182614139565b506101008201516140336101408501826137cb565b5061012082015161404861016085018261385e565b50505050565b61018082016000820151614065600085018261411b565b506020820151614078602085018261411b565b50604082015161408b6040850182614139565b50606082015161409e6060850182614139565b5060808201516140b16080850182614139565b5060a08201516140c460a0850182614139565b5060c08201516140d760c0850182613efd565b5060e08201516140eb610120850182614139565b506101008201516141006101408501826137cb565b5061012082015161411561016085018261385e565b50505050565b6141248161484c565b82525050565b6141338161484c565b82525050565b6141428161487a565b82525050565b6141518161487a565b82525050565b6141686141638261487a565b61494e565b82525050565b600061417982613db1565b915061418582856138c4565b915061419082613e57565b915061419c82846138c4565b91508190509392505050565b60006141b48286614157565b6020820191506141c482856137e9565b6014820191506141d48284614157565b602082019150819050949350505050565b600060208201905081810360008301526141ff8184613800565b905092915050565b600060208201905061421c600083018461386d565b92915050565b6000602082019050614237600083018461387c565b92915050565b60006020820190508181036000830152614257818461388b565b905092915050565b60006020820190508181036000830152614278816138f5565b9050919050565b6000602082019050818103600083015261429881613935565b9050919050565b600060208201905081810360008301526142b88161399b565b9050919050565b600060208201905081810360008301526142d8816139db565b9050919050565b600060208201905081810360008301526142f881613a41565b9050919050565b6000602082019050818103600083015261431881613aa7565b9050919050565b6000602082019050818103600083015261433881613b0d565b9050919050565b6000602082019050818103600083015261435881613b73565b9050919050565b6000602082019050818103600083015261437881613bd9565b9050919050565b6000602082019050818103600083015261439881613c3f565b9050919050565b600060208201905081810360008301526143b881613ca5565b9050919050565b600060208201905081810360008301526143d881613d0b565b9050919050565b600060208201905081810360008301526143f881613d71565b9050919050565b6000602082019050818103600083015261441881613df1565b9050919050565b6000602082019050818103600083015261443881613e97565b9050919050565b60006060820190506144546000830184613f3f565b92915050565b600061018082019050614470600083018461404e565b92915050565b600060208201905061448b600083018461412a565b92915050565b60006040820190506144a6600083018561412a565b6144b3602083018461412a565b9392505050565b60006060820190506144cf600083018661412a565b6144dc602083018561412a565b6144e960408301846137da565b949350505050565b6000608082019050614506600083018761412a565b614513602083018661412a565b61452060408301856137da565b61452d6060830184614148565b95945050505050565b600060808201905061454b600083018761412a565b614558602083018661412a565b614565604083018561412a565b614572606083018461412a565b95945050505050565b60006020820190506145906000830184614148565b92915050565b60006080820190506145ab6000830187614148565b6145b86020830186614148565b6145c56040830185614148565b6145d26060830184614148565b95945050505050565b6000819050602082019050919050565b600081519050919050565b600081519050919050565b6000602082019050919050565b600082825260208201905092915050565b600082825260208201905092915050565b600081905092915050565b60006146468261484c565b91506146518361484c565b92508261ffff0382111561466857614667614989565b5b828201905092915050565b600061467e8261487a565b91506146898361487a565b9250827fffffffffffffffffffffffffffffffffffffffffffffffffffffffffffffffff038211156146be576146bd614989565b5b828201905092915050565b60006146d48261487a565b91506146df8361487a565b9250826146ef576146ee6149b8565b5b828204905092915050565b60006147058261484c565b91506147108361484c565b92508161ffff048311821515161561472b5761472a614989565b5b828202905092915050565b60006147418261487a565b915061474c8361487a565b9250817fffffffffffffffffffffffffffffffffffffffffffffffffffffffffffffffff048311821515161561478557614784614989565b5b828202905092915050565b600061479b8261484c565b91506147a68361484c565b9250828210156147b9576147b8614989565b5b828203905092915050565b60006147cf8261487a565b91506147da8361487a565b9250828210156147ed576147ec614989565b5b828203905092915050565b60006148038261485a565b9050919050565b60008115159050919050565b6000819050919050565b60007fffffffff0000000000000000000000000000000000000000000000000000000082169050919050565b600061ffff82169050919050565b600073ffffffffffffffffffffffffffffffffffffffff82169050919050565b6000819050919050565b60005b838110156148a2578082015181840152602081019050614887565b838111156148b1576000848401525b50505050565b60006148c28261487a565b915060008214156148d6576148d5614989565b5b600182039050919050565b60006148ec8261487a565b91507fffffffffffffffffffffffffffffffffffffffffffffffffffffffffffffffff82141561491f5761491e614989565b5b600182019050919050565b60006149358261493c565b9050919050565b6000614947826149f8565b9050919050565b6000819050919050565b60006149638261487a565b915061496e8361487a565b92508261497e5761497d6149b8565b5b828206905092915050565b7f4e487b7100000000000000000000000000000000000000000000000000000000600052601160045260246000fd5b7f4e487b7100000000000000000000000000000000000000000000000000000000600052601260045260246000fd5b6000601f19601f8301169050919050565b60006c0100000000000000000000000082029050919050565b614a1a816147f8565b8114614a2557600080fd5b50565b614a3181614816565b8114614a3c57600080fd5b50565b614a4881614820565b8114614a5357600080fd5b50565b614a5f8161484c565b8114614a6a57600080fd5b50565b614a768161487a565b8114614a8157600080fd5b5056fea26469706673582212202f13f5d9f051c1e2ca215db7cfc5ae6c440b668e7ff494e59933b100fbc2fa5964736f6c63430008000033",
  "immutableReferences": {},
  "source": "pragma solidity ^0.8.0;\r\n\r\nimport \"@openzeppelin/contracts/access/AccessControl.sol\";\r\nimport \"../utils/RandomUtils.sol\";\r\n\r\n// SPDX-License-Identifier: MIT\r\ncontract BlackHole is AccessControl {\r\n    bytes32 public constant GAME_MANAGER_ROLE = keccak256(\"GAME_MANAGER_ROLE\");\r\n\r\n    uint16 public maxX;\r\n    uint16 public maxY;\r\n    uint256 public totalPos;\r\n\r\n    struct Extractor {\r\n        uint256 level;\r\n        uint256 cost;\r\n        uint256 lastExtract;\r\n    }\r\n\r\n    struct Territory {\r\n        uint16 x;\r\n        uint16 y;\r\n        uint256 darkEnergy;\r\n        uint256 darkMatter;\r\n        uint256 plasmaEnergy;\r\n        uint256 voidEssence;\r\n        Extractor extractor; // extract resources\r\n        uint256 nokai;\r\n        address owner;\r\n        bool discovered;\r\n    }\r\n\r\n    struct Position {\r\n        bool onBoard;\r\n        uint16 x;\r\n        uint16 y;\r\n    }\r\n\r\n    mapping(address => uint256) private userTerritoryCount;\r\n    mapping(uint256 => Territory) private blackhole;\r\n    mapping(uint256 => Position) private nokaiPosition;\r\n\r\n    constructor(uint16 _width, uint16 _height)  {\r\n        maxX = _width;\r\n        maxY = _height;\r\n        totalPos = maxX * maxY;\r\n        _setupRole(DEFAULT_ADMIN_ROLE, msg.sender);\r\n\r\n        blackhole[((maxY / 2) * maxX) + maxX / 2] = Territory({\r\n        x : maxX / 2,\r\n        y : maxY / 2,\r\n        darkEnergy : 10,\r\n        darkMatter : 100,\r\n        plasmaEnergy : 100,\r\n        voidEssence : 100,\r\n        extractor : Extractor({level : 1, cost : 1000, lastExtract : block.timestamp}),\r\n        nokai : 0,\r\n        owner : address(0),\r\n        discovered : true\r\n        });\r\n    }\r\n\r\n    function completeExtraction(uint16 x, uint16 y, address by) external onlyRole(GAME_MANAGER_ROLE) returns (uint256, uint256, uint256, uint256) {\r\n        uint256 pos = (y * maxX) + x;\r\n        require(blackhole[pos].owner == by, \"you are not the owner of the specified territory.\");\r\n        uint256 nbHours = (block.timestamp - blackhole[pos].extractor.lastExtract) / 3600;\r\n        blackhole[pos].extractor.lastExtract = block.timestamp;\r\n        uint256 _darkEnergy = blackhole[pos].darkEnergy != 0 ? blackhole[pos].darkEnergy * blackhole[pos].extractor.level * nbHours : 0;\r\n        uint256 _darkMatter = blackhole[pos].darkMatter != 0 ? blackhole[pos].darkMatter * blackhole[pos].extractor.level * nbHours : 0;\r\n        uint256 _plasmaEnergy = blackhole[pos].plasmaEnergy != 0 ? blackhole[pos].plasmaEnergy * blackhole[pos].extractor.level * nbHours : 0;\r\n        uint256 _voidEssence = blackhole[pos].voidEssence != 0 ? blackhole[pos].voidEssence * blackhole[pos].extractor.level * nbHours : 0;\r\n        emit TerritoryExtracted(x, y, by);\r\n        return (_darkEnergy, _darkMatter, _plasmaEnergy, _voidEssence);\r\n    }\r\n\r\n    function upgradeExtractor(uint16 x, uint16 y, address by) external onlyRole(GAME_MANAGER_ROLE) {\r\n        uint256 pos = (y * maxX) + x;\r\n        require(blackhole[pos].owner == by, \"you are not the owner of the specified territory.\");\r\n        blackhole[pos].extractor.level += 1;\r\n        blackhole[pos].extractor.cost *= 2;\r\n        blackhole[pos].extractor.lastExtract = block.timestamp;\r\n        emit ExtractorUpgraded(x, y, by, blackhole[pos].extractor.level);\r\n    }\r\n\r\n\r\n    function assignNokai(uint16 x, uint16 y, uint256 nokaiId, address by) external onlyRole(GAME_MANAGER_ROLE) {\r\n        uint256 pos = (y * maxX) + x;\r\n        if (userTerritoryCount[by] > 0) {\r\n            _assignNokai(pos, x, y, nokaiId, by);\r\n        } else {\r\n            _assignNokaiNewTerritory(pos, x, y, nokaiId);\r\n        }\r\n    }\r\n\r\n    function _assignNokaiNewTerritory(uint256 pos, uint16 x, uint16 y, uint256 nokaiId) private {\r\n        require(blackhole[pos].owner == address(0), \"The specified territory is owned by another player.\");\r\n        require(blackhole[pos].nokai == 0, \"Specified territory is already occupied by a Nokai.\");\r\n        blackhole[pos].nokai = nokaiId;\r\n        nokaiPosition[nokaiId].onBoard = true;\r\n        nokaiPosition[nokaiId].x = x;\r\n        nokaiPosition[nokaiId].y = y;\r\n    }\r\n\r\n    function _assignNokai(uint256 pos, uint16 x, uint16 y, uint256 nokaiId, address by) private {\r\n        require(blackhole[pos].owner == by, \"You are not the owner of the specified territory.\");\r\n        require(blackhole[pos].nokai == 0, \"Specified territory is already occupied by a Nokai.\");\r\n        blackhole[pos].nokai = nokaiId;\r\n        nokaiPosition[nokaiId].onBoard = true;\r\n        nokaiPosition[nokaiId].x = x;\r\n        nokaiPosition[nokaiId].y = y;\r\n    }\r\n\r\n    function withdrawDeadNokai(uint16 x, uint16 y, uint256 nokaiId) external onlyRole(GAME_MANAGER_ROLE) {\r\n        _withdrawNokai((y * maxX) + x, nokaiId);\r\n    }\r\n\r\n    function withdrawNokai(uint16 x, uint16 y, uint256 nokaiId, address by) external onlyRole(GAME_MANAGER_ROLE) {\r\n        uint256 pos = (y * maxX) + x;\r\n        require(blackhole[pos].owner == by, \"You are not the owner of the specified territory.\");\r\n        require(blackhole[pos].nokai == 1, \"Specified territory is not occupied by a Nokai.\");\r\n        _withdrawNokai(pos, nokaiId);\r\n    }\r\n\r\n    function _withdrawNokai(uint256 pos, uint256 nokaiId) internal {\r\n        require(blackhole[pos].nokai == nokaiId, \"Specified Nokai is not on specified territory.\");\r\n        blackhole[pos].nokai = 0;\r\n        nokaiPosition[nokaiId].onBoard = false;\r\n        nokaiPosition[nokaiId].x = 0;\r\n        nokaiPosition[nokaiId].y = 0;\r\n    }\r\n\r\n\r\n    function conquest(uint16 fromX, uint16 fromY, uint16 toX, uint16 toY, address by) external onlyRole(GAME_MANAGER_ROLE) {\r\n        uint256 from = (toY * maxX) + toX;\r\n        uint256 to = (toY * maxX) + toX;\r\n        require(blackhole[from].owner == by, \"You are not the owner of the original territory.\");\r\n        require(blackhole[from].owner != blackhole[to].owner, \"Current and target territories are from the same owner.\");\r\n        require(blackhole[to].nokai == 0, \"Target territory is still defended by a Nokai.\");\r\n        require(blackhole[from].nokai != 0, \"Current territory does not have any Nokai to move.\");\r\n\r\n        address previousOwner = blackhole[to].owner;\r\n\r\n        userTerritoryCount[previousOwner] = userTerritoryCount[previousOwner] > 0 ? userTerritoryCount[previousOwner] - 1 : 0;\r\n        userTerritoryCount[by] += 1;\r\n\r\n        blackhole[to].owner = by;\r\n        _assignNokai(to, toX, toY, blackhole[from].nokai, by);\r\n        blackhole[from].nokai = 0;\r\n\r\n        _discover(toX, toY, blackhole[from].owner);\r\n        emit NokaiMoved(fromX, fromY, toX, toY, blackhole[to].nokai, blackhole[from].owner);\r\n        emit SlotConquered(toX, toY, previousOwner, by);\r\n    }\r\n\r\n    function move(uint16 fromX, uint16 fromY, uint16 toX, uint16 toY, address by) external onlyRole(GAME_MANAGER_ROLE) {\r\n        uint256 from = (toY * maxX) + toX;\r\n        uint256 to = (toY * maxX) + toX;\r\n        require(blackhole[from].owner == blackhole[to].owner, \"Current and target territories are not from the same owner.\");\r\n        require(blackhole[from].nokai != 0, \"Current territory does not have any Nokai to move.\");\r\n\r\n        _assignNokai(to, toX, toY, blackhole[from].nokai, by);\r\n        blackhole[from].nokai = 0;\r\n\r\n        _discover(toX, toY, blackhole[from].owner);\r\n        emit NokaiMoved(fromX, fromY, toX, toY, blackhole[to].nokai, blackhole[from].owner);\r\n    }\r\n\r\n    function _discover(uint16 x, uint16 y, address by) private {\r\n        _discoverSlot(x - 1, y, by);\r\n        _discoverSlot(x, y - 1, by);\r\n        _discoverSlot(x + 1, y - 1, by);\r\n        _discoverSlot(x + 1, y, by);\r\n        _discoverSlot(x + 1, y + 1, by);\r\n        _discoverSlot(x, y + 1, by);\r\n    }\r\n\r\n    function _discoverSlot(uint16 x, uint16 y, address by) private {\r\n        uint256 pos = (y * maxX) + x;\r\n        uint256 wealth = 10;\r\n        if (wealth > totalPos / 4 && wealth < (totalPos / 4) * 3) {\r\n            wealth = 40;\r\n        }\r\n        if (wealth > ((totalPos / 5) * 2) && wealth < (totalPos / 5) * 3) {\r\n            wealth = 80;\r\n        }\r\n        uint256 darkMatter = RandomUtils._rand(pos, 100) + wealth;\r\n        uint256 plasmaEnergy = RandomUtils._rand(pos + 1, 100) + wealth;\r\n        uint256 voidEssence = RandomUtils._rand(pos + 2, 100) + wealth;\r\n        if (darkMatter < plasmaEnergy || darkMatter < voidEssence) {\r\n            darkMatter = 0;\r\n        }\r\n        if (plasmaEnergy < darkMatter || plasmaEnergy < voidEssence) {\r\n            plasmaEnergy = 0;\r\n        }\r\n        if (voidEssence < darkMatter || voidEssence < plasmaEnergy) {\r\n            voidEssence = 0;\r\n        }\r\n        if (blackhole[pos].discovered == false) {\r\n            blackhole[pos] = Territory({\r\n            x : x,\r\n            y : y,\r\n            darkEnergy : 0,\r\n            darkMatter : darkMatter,\r\n            plasmaEnergy : plasmaEnergy,\r\n            voidEssence : voidEssence / 10,\r\n            nokai : 0,\r\n            extractor : Extractor({level : 0, cost : 500, lastExtract : block.timestamp}),\r\n            owner : by,\r\n            discovered : true\r\n            });\r\n            emit SlotDiscovered(x, y, by);\r\n        }\r\n    }\r\n\r\n    function nokaiAt(uint16 x, uint16 y) external view returns (uint256) {\r\n        return blackhole[(y * maxX) + x].nokai;\r\n    }\r\n\r\n    function nokaiPos(uint256 nokaiId) external view returns (Position memory) {\r\n        return nokaiPosition[nokaiId];\r\n    }\r\n\r\n    function territoryCount(address user) external view returns (uint256) {\r\n        return userTerritoryCount[user];\r\n    }\r\n\r\n    function extractorCostAt(uint16 x, uint16 y) external view returns (uint256) {\r\n        return blackhole[(y * maxX) + x].extractor.cost;\r\n    }\r\n\r\n    function get(uint16 x, uint16 y) external view returns (Territory memory) {\r\n        return blackhole[(y * maxX) + x];\r\n    }\r\n\r\n    function getForRange(uint256 from, uint256 to) external view returns (Territory[] memory) {\r\n        require(from >= 0 && to < totalPos, \"invalid range request\");\r\n        Territory[] memory _blackhole = new Territory[](to - from);\r\n        for (uint256 i = from; i < to; i++) {\r\n            _blackhole[i] = blackhole[i];\r\n        }\r\n        return _blackhole;\r\n    }\r\n\r\n    function getFor(uint256[] calldata choices) external view returns (Territory[] memory) {\r\n        Territory[] memory _blackhole = new Territory[](choices.length);\r\n        for (uint256 i = 0; i < choices.length; i++) {\r\n            uint256 pos = choices[i];\r\n            if (pos >= 0 && pos < totalPos) {\r\n                _blackhole[i] = blackhole[pos];\r\n            }\r\n        }\r\n        return _blackhole;\r\n    }\r\n\r\n    function getForBox(uint256 startPos, uint256 endPos, uint256 startLine, uint256 endLine) external view returns (Territory[] memory) {\r\n        require(startPos < endPos && startPos >= 0 && endPos < maxX && startLine < endLine && startLine >= 0 && endLine < maxY, \"invalid box request\");\r\n        Territory[] memory _blackhole = new Territory[]((endPos - startPos) * (endLine - startLine));\r\n        uint256 i = 0;\r\n        for (uint256 line = startLine; line < endLine; line++) {\r\n            for (uint256 pos = startPos; pos < endPos; pos++) {\r\n                _blackhole[i++] = blackhole[(line * maxX) + pos];\r\n            }\r\n        }\r\n        return _blackhole;\r\n    }\r\n\r\n    event SlotDiscovered(uint16 x, uint16 y, address by);\r\n    event SlotConquered(uint16 x, uint16 y, address indexed previousOwner, address indexed newOwner);\r\n    event NokaiMoved(uint16 fromX, uint16 fromY, uint16 toX, uint16 toY, uint256 indexed nokai, address indexed owner);\r\n    event TerritoryExtracted(uint16 x, uint16 y, address by);\r\n    event ExtractorUpgraded(uint16 x, uint16 y, address by, uint256 level);\r\n}",
  "sourcePath": "C:\\Users\\KevinGeorgesAndres\\Documents\\projects\\perso\\blackhole-evm\\contracts\\game\\BlackHole.sol",
  "compiler": {
    "name": "solc",
    "version": "0.8.0+commit.c7dfd78e.Emscripten.clang"
  },
  "schemaVersion": "3.4.3",
  "updatedAt": "2021-12-08T10:03:38.712Z",
  "networkType": "ethereum",
  "devdoc": {
    "kind": "dev",
    "methods": {
      "getRoleAdmin(bytes32)": {
        "details": "Returns the admin role that controls `role`. See {grantRole} and {revokeRole}. To change a role's admin, use {_setRoleAdmin}."
      },
      "grantRole(bytes32,address)": {
        "details": "Grants `role` to `account`. If `account` had not been already granted `role`, emits a {RoleGranted} event. Requirements: - the caller must have ``role``'s admin role."
      },
      "hasRole(bytes32,address)": {
        "details": "Returns `true` if `account` has been granted `role`."
      },
      "renounceRole(bytes32,address)": {
        "details": "Revokes `role` from the calling account. Roles are often managed via {grantRole} and {revokeRole}: this function's purpose is to provide a mechanism for accounts to lose their privileges if they are compromised (such as when a trusted device is misplaced). If the calling account had been revoked `role`, emits a {RoleRevoked} event. Requirements: - the caller must be `account`."
      },
      "revokeRole(bytes32,address)": {
        "details": "Revokes `role` from `account`. If `account` had been granted `role`, emits a {RoleRevoked} event. Requirements: - the caller must have ``role``'s admin role."
      },
      "supportsInterface(bytes4)": {
        "details": "See {IERC165-supportsInterface}."
      }
    },
    "version": 1
  },
  "userdoc": {
    "kind": "user",
    "methods": {},
    "version": 1
  }
}