{
  "contractName": "CraftsmanProfile",
  "abi": [
    {
      "inputs": [],
      "stateMutability": "nonpayable",
      "type": "constructor"
    },
    {
      "anonymous": false,
      "inputs": [
        {
          "indexed": true,
          "internalType": "bytes32",
          "name": "role",
          "type": "bytes32"
        },
        {
          "indexed": true,
          "internalType": "bytes32",
          "name": "previousAdminRole",
          "type": "bytes32"
        },
        {
          "indexed": true,
          "internalType": "bytes32",
          "name": "newAdminRole",
          "type": "bytes32"
        }
      ],
      "name": "RoleAdminChanged",
      "type": "event"
    },
    {
      "anonymous": false,
      "inputs": [
        {
          "indexed": true,
          "internalType": "bytes32",
          "name": "role",
          "type": "bytes32"
        },
        {
          "indexed": true,
          "internalType": "address",
          "name": "account",
          "type": "address"
        },
        {
          "indexed": true,
          "internalType": "address",
          "name": "sender",
          "type": "address"
        }
      ],
      "name": "RoleGranted",
      "type": "event"
    },
    {
      "anonymous": false,
      "inputs": [
        {
          "indexed": true,
          "internalType": "bytes32",
          "name": "role",
          "type": "bytes32"
        },
        {
          "indexed": true,
          "internalType": "address",
          "name": "account",
          "type": "address"
        },
        {
          "indexed": true,
          "internalType": "address",
          "name": "sender",
          "type": "address"
        }
      ],
      "name": "RoleRevoked",
      "type": "event"
    },
    {
      "inputs": [],
      "name": "CRAFT_MANAGER_ROLE",
      "outputs": [
        {
          "internalType": "bytes32",
          "name": "",
          "type": "bytes32"
        }
      ],
      "stateMutability": "view",
      "type": "function",
      "constant": true
    },
    {
      "inputs": [],
      "name": "DEFAULT_ADMIN_ROLE",
      "outputs": [
        {
          "internalType": "bytes32",
          "name": "",
          "type": "bytes32"
        }
      ],
      "stateMutability": "view",
      "type": "function",
      "constant": true
    },
    {
      "inputs": [
        {
          "internalType": "bytes32",
          "name": "role",
          "type": "bytes32"
        }
      ],
      "name": "getRoleAdmin",
      "outputs": [
        {
          "internalType": "bytes32",
          "name": "",
          "type": "bytes32"
        }
      ],
      "stateMutability": "view",
      "type": "function",
      "constant": true
    },
    {
      "inputs": [
        {
          "internalType": "bytes32",
          "name": "role",
          "type": "bytes32"
        },
        {
          "internalType": "address",
          "name": "account",
          "type": "address"
        }
      ],
      "name": "grantRole",
      "outputs": [],
      "stateMutability": "nonpayable",
      "type": "function"
    },
    {
      "inputs": [
        {
          "internalType": "bytes32",
          "name": "role",
          "type": "bytes32"
        },
        {
          "internalType": "address",
          "name": "account",
          "type": "address"
        }
      ],
      "name": "hasRole",
      "outputs": [
        {
          "internalType": "bool",
          "name": "",
          "type": "bool"
        }
      ],
      "stateMutability": "view",
      "type": "function",
      "constant": true
    },
    {
      "inputs": [
        {
          "internalType": "bytes32",
          "name": "role",
          "type": "bytes32"
        },
        {
          "internalType": "address",
          "name": "account",
          "type": "address"
        }
      ],
      "name": "renounceRole",
      "outputs": [],
      "stateMutability": "nonpayable",
      "type": "function"
    },
    {
      "inputs": [
        {
          "internalType": "bytes32",
          "name": "role",
          "type": "bytes32"
        },
        {
          "internalType": "address",
          "name": "account",
          "type": "address"
        }
      ],
      "name": "revokeRole",
      "outputs": [],
      "stateMutability": "nonpayable",
      "type": "function"
    },
    {
      "inputs": [
        {
          "internalType": "bytes4",
          "name": "interfaceId",
          "type": "bytes4"
        }
      ],
      "name": "supportsInterface",
      "outputs": [
        {
          "internalType": "bool",
          "name": "",
          "type": "bool"
        }
      ],
      "stateMutability": "view",
      "type": "function",
      "constant": true
    },
    {
      "inputs": [
        {
          "internalType": "uint256",
          "name": "amount",
          "type": "uint256"
        },
        {
          "internalType": "address",
          "name": "user",
          "type": "address"
        }
      ],
      "name": "addExperience",
      "outputs": [],
      "stateMutability": "nonpayable",
      "type": "function"
    },
    {
      "inputs": [
        {
          "internalType": "address",
          "name": "user",
          "type": "address"
        }
      ],
      "name": "getLevel",
      "outputs": [
        {
          "internalType": "uint256",
          "name": "",
          "type": "uint256"
        }
      ],
      "stateMutability": "view",
      "type": "function",
      "constant": true
    }
  ],
  "bytecode": "0x608060405234801561001057600080fd5b5061002e600060010233610033640100000000026401000000009004565b6101c0565b61004c8282610050640100000000026401000000009004565b5050565b610069828261014e640100000000026401000000009004565b61014a57600160008084815260200190815260200160002060000160008373ffffffffffffffffffffffffffffffffffffffff1673ffffffffffffffffffffffffffffffffffffffff16815260200190815260200160002060006101000a81548160ff0219169083151502179055506100ef6101b8640100000000026401000000009004565b73ffffffffffffffffffffffffffffffffffffffff168173ffffffffffffffffffffffffffffffffffffffff16837f2f8788117e7eff1d82e926ec794901d17c78024a50270940304540a733656f0d60405160405180910390a45b5050565b600080600084815260200190815260200160002060000160008373ffffffffffffffffffffffffffffffffffffffff1673ffffffffffffffffffffffffffffffffffffffff16815260200190815260200160002060009054906101000a900460ff16905092915050565b600033905090565b61147a80620001d06000396000f3fe608060405234801561001057600080fd5b50600436106100bb576000357c010000000000000000000000000000000000000000000000000000000090048063756f853a11610083578063756f853a14610176578063817c89661461019257806391d14854146101c2578063a217fddf146101f2578063d547741f14610210576100bb565b806301ffc9a7146100c0578063248a9ca3146100f05780632f2ff15d1461012057806336568abe1461013c5780636d83e5a714610158575b600080fd5b6100da60048036038101906100d59190610eb3565b61022c565b6040516100e7919061110f565b60405180910390f35b61010a60048036038101906101059190610e4e565b6102a6565b604051610117919061112a565b60405180910390f35b61013a60048036038101906101359190610e77565b6102c5565b005b61015660048036038101906101519190610e77565b6102ee565b005b610160610371565b60405161016d919061112a565b60405180910390f35b610190600480360381019061018b9190610edc565b610395565b005b6101ac60048036038101906101a79190610e25565b6106f8565b6040516101b991906111a7565b60405180910390f35b6101dc60048036038101906101d79190610e77565b610744565b6040516101e9919061110f565b60405180910390f35b6101fa6107ae565b604051610207919061112a565b60405180910390f35b61022a60048036038101906102259190610e77565b6107b6565b005b60007f7965db0b000000000000000000000000000000000000000000000000000000007bffffffffffffffffffffffffffffffffffffffffffffffffffffffff1916827bffffffffffffffffffffffffffffffffffffffffffffffffffffffff1916148061029f575061029e826107df565b5b9050919050565b6000806000838152602001908152602001600020600101549050919050565b6102ce826102a6565b6102df816102da610849565b610851565b6102e983836108ef565b505050565b6102f6610849565b73ffffffffffffffffffffffffffffffffffffffff168173ffffffffffffffffffffffffffffffffffffffff1614610363576040517f08c379a000000000000000000000000000000000000000000000000000000000815260040161035a90611187565b60405180910390fd5b61036d82826109cf565b5050565b7ff8d65c8b019d837b6438c6928298b31d71c9e12ec334a4078dbdad07b262878f81565b7ff8d65c8b019d837b6438c6928298b31d71c9e12ec334a4078dbdad07b262878f6103c7816103c2610849565b610851565b600160008373ffffffffffffffffffffffffffffffffffffffff1673ffffffffffffffffffffffffffffffffffffffff16815260200190815260200160002060000160009054906101000a900460ff166104c457604051806080016040528060011515815260200160018152602001600081526020016107d0815250600160008473ffffffffffffffffffffffffffffffffffffffff1673ffffffffffffffffffffffffffffffffffffffff16815260200190815260200160002060008201518160000160006101000a81548160ff0219169083151502179055506020820151816001015560408201518160020155606082015181600301559050505b600160008373ffffffffffffffffffffffffffffffffffffffff1673ffffffffffffffffffffffffffffffffffffffff1681526020019081526020016000206003015483600160008573ffffffffffffffffffffffffffffffffffffffff1673ffffffffffffffffffffffffffffffffffffffff1681526020019081526020016000206002015461055591906111e9565b106106995760018060008473ffffffffffffffffffffffffffffffffffffffff1673ffffffffffffffffffffffffffffffffffffffff16815260200190815260200160002060010160008282546105ac91906111e9565b92505081905550600160008373ffffffffffffffffffffffffffffffffffffffff1673ffffffffffffffffffffffffffffffffffffffff1681526020019081526020016000206003015483600160008573ffffffffffffffffffffffffffffffffffffffff1673ffffffffffffffffffffffffffffffffffffffff1681526020019081526020016000206002015461064491906111e9565b61064e9190611299565b600160008473ffffffffffffffffffffffffffffffffffffffff1673ffffffffffffffffffffffffffffffffffffffff168152602001908152602001600020600201819055506106f3565b82600160008473ffffffffffffffffffffffffffffffffffffffff1673ffffffffffffffffffffffffffffffffffffffff16815260200190815260200160002060020160008282546106eb91906111e9565b925050819055505b505050565b6000600160008373ffffffffffffffffffffffffffffffffffffffff1673ffffffffffffffffffffffffffffffffffffffff168152602001908152602001600020600101549050919050565b600080600084815260200190815260200160002060000160008373ffffffffffffffffffffffffffffffffffffffff1673ffffffffffffffffffffffffffffffffffffffff16815260200190815260200160002060009054906101000a900460ff16905092915050565b600060010281565b6107bf826102a6565b6107d0816107cb610849565b610851565b6107da83836109cf565b505050565b60007f01ffc9a7000000000000000000000000000000000000000000000000000000007bffffffffffffffffffffffffffffffffffffffffffffffffffffffff1916827bffffffffffffffffffffffffffffffffffffffffffffffffffffffff1916149050919050565b600033905090565b61085b8282610744565b6108eb576108808173ffffffffffffffffffffffffffffffffffffffff166014610ab0565b61088f83600190046020610ab0565b6040516020016108a09291906110d5565b6040516020818303038152906040526040517f08c379a00000000000000000000000000000000000000000000000000000000081526004016108e29190611145565b60405180910390fd5b5050565b6108f98282610744565b6109cb57600160008084815260200190815260200160002060000160008373ffffffffffffffffffffffffffffffffffffffff1673ffffffffffffffffffffffffffffffffffffffff16815260200190815260200160002060006101000a81548160ff021916908315150217905550610970610849565b73ffffffffffffffffffffffffffffffffffffffff168173ffffffffffffffffffffffffffffffffffffffff16837f2f8788117e7eff1d82e926ec794901d17c78024a50270940304540a733656f0d60405160405180910390a45b5050565b6109d98282610744565b15610aac57600080600084815260200190815260200160002060000160008373ffffffffffffffffffffffffffffffffffffffff1673ffffffffffffffffffffffffffffffffffffffff16815260200190815260200160002060006101000a81548160ff021916908315150217905550610a51610849565b73ffffffffffffffffffffffffffffffffffffffff168173ffffffffffffffffffffffffffffffffffffffff16837ff6391f5c32d9c69d2a47ea670b442974b53935d1edc7fd64eb21e047a839171b60405160405180910390a45b5050565b606060006002836002610ac3919061123f565b610acd91906111e9565b67ffffffffffffffff811115610b0c577f4e487b7100000000000000000000000000000000000000000000000000000000600052604160045260246000fd5b6040519080825280601f01601f191660200182016040528015610b3e5781602001600182028036833780820191505090505b5090507f300000000000000000000000000000000000000000000000000000000000000081600081518110610b9c577f4e487b7100000000000000000000000000000000000000000000000000000000600052603260045260246000fd5b60200101907effffffffffffffffffffffffffffffffffffffffffffffffffffffffffffff1916908160001a9053507f780000000000000000000000000000000000000000000000000000000000000081600181518110610c26577f4e487b7100000000000000000000000000000000000000000000000000000000600052603260045260246000fd5b60200101907effffffffffffffffffffffffffffffffffffffffffffffffffffffffffffff1916908160001a90535060006001846002610c66919061123f565b610c7091906111e9565b90505b6001811115610d83577f3031323334353637383961626364656600000000000000000000000000000000600f861660108110610cd8577f4e487b7100000000000000000000000000000000000000000000000000000000600052603260045260246000fd5b1a7f010000000000000000000000000000000000000000000000000000000000000002828281518110610d34577f4e487b7100000000000000000000000000000000000000000000000000000000600052603260045260246000fd5b60200101907effffffffffffffffffffffffffffffffffffffffffffffffffffffffffffff1916908160001a905350600485908060020a8204915050945080610d7c9061137e565b9050610c73565b5060008414610dc7576040517f08c379a0000000000000000000000000000000000000000000000000000000008152600401610dbe90611167565b60405180910390fd5b8091505092915050565b600081359050610de0816113e8565b92915050565b600081359050610df5816113ff565b92915050565b600081359050610e0a81611416565b92915050565b600081359050610e1f8161142d565b92915050565b600060208284031215610e3757600080fd5b6000610e4584828501610dd1565b91505092915050565b600060208284031215610e6057600080fd5b6000610e6e84828501610de6565b91505092915050565b60008060408385031215610e8a57600080fd5b6000610e9885828601610de6565b9250506020610ea985828601610dd1565b9150509250929050565b600060208284031215610ec557600080fd5b6000610ed384828501610dfb565b91505092915050565b60008060408385031215610eef57600080fd5b6000610efd85828601610e10565b9250506020610f0e85828601610dd1565b9150509250929050565b610f21816112df565b82525050565b610f30816112eb565b82525050565b6000610f41826111c2565b610f4b81856111cd565b9350610f5b81856020860161134b565b610f64816113d7565b840191505092915050565b6000610f7a826111c2565b610f8481856111de565b9350610f9481856020860161134b565b80840191505092915050565b6000610fad6020836111cd565b91507f537472696e67733a20686578206c656e67746820696e73756666696369656e746000830152602082019050919050565b6000610fed6017836111de565b91507f416363657373436f6e74726f6c3a206163636f756e74200000000000000000006000830152601782019050919050565b600061102d6011836111de565b91507f206973206d697373696e6720726f6c65200000000000000000000000000000006000830152601182019050919050565b600061106d602f836111cd565b91507f416363657373436f6e74726f6c3a2063616e206f6e6c792072656e6f756e636560008301527f20726f6c657320666f722073656c6600000000000000000000000000000000006020830152604082019050919050565b6110cf81611341565b82525050565b60006110e082610fe0565b91506110ec8285610f6f565b91506110f782611020565b91506111038284610f6f565b91508190509392505050565b60006020820190506111246000830184610f18565b92915050565b600060208201905061113f6000830184610f27565b92915050565b6000602082019050818103600083015261115f8184610f36565b905092915050565b6000602082019050818103600083015261118081610fa0565b9050919050565b600060208201905081810360008301526111a081611060565b9050919050565b60006020820190506111bc60008301846110c6565b92915050565b600081519050919050565b600082825260208201905092915050565b600081905092915050565b60006111f482611341565b91506111ff83611341565b9250827fffffffffffffffffffffffffffffffffffffffffffffffffffffffffffffffff03821115611234576112336113a8565b5b828201905092915050565b600061124a82611341565b915061125583611341565b9250817fffffffffffffffffffffffffffffffffffffffffffffffffffffffffffffffff048311821515161561128e5761128d6113a8565b5b828202905092915050565b60006112a482611341565b91506112af83611341565b9250828210156112c2576112c16113a8565b5b828203905092915050565b60006112d882611321565b9050919050565b60008115159050919050565b6000819050919050565b60007fffffffff0000000000000000000000000000000000000000000000000000000082169050919050565b600073ffffffffffffffffffffffffffffffffffffffff82169050919050565b6000819050919050565b60005b8381101561136957808201518184015260208101905061134e565b83811115611378576000848401525b50505050565b600061138982611341565b9150600082141561139d5761139c6113a8565b5b600182039050919050565b7f4e487b7100000000000000000000000000000000000000000000000000000000600052601160045260246000fd5b6000601f19601f8301169050919050565b6113f1816112cd565b81146113fc57600080fd5b50565b611408816112eb565b811461141357600080fd5b50565b61141f816112f5565b811461142a57600080fd5b50565b61143681611341565b811461144157600080fd5b5056fea26469706673582212205a413ba611948f043f9637d56565bee0f658f12ae8afd396f0163bb066fc00fb64736f6c63430008000033",
  "immutableReferences": {},
  "source": "pragma solidity ^0.8.0;\r\n\r\nimport \"@openzeppelin/contracts/access/AccessControl.sol\";\r\n\r\n// SPDX-License-Identifier: MIT\r\ncontract CraftsmanProfile is AccessControl {\r\n    bytes32 public constant CRAFT_MANAGER_ROLE = keccak256(\"CRAFT_MANAGER_ROLE\");\r\n\r\n    struct Stats {\r\n        bool setup;\r\n        uint256 level;\r\n        uint256 experience;\r\n        uint256 nextLevel;\r\n    }\r\n\r\n    mapping(address => Stats) private _stats;\r\n\r\n    constructor() {\r\n        _setupRole(DEFAULT_ADMIN_ROLE, msg.sender);\r\n    }\r\n\r\n    function addExperience(uint256 amount, address user) external onlyRole(CRAFT_MANAGER_ROLE) {\r\n        if (!_stats[user].setup) {\r\n            _stats[user] = Stats({\r\n            setup : true,\r\n            level : 1,\r\n            experience : 0,\r\n            nextLevel : 2000\r\n            });\r\n        }\r\n        if (_stats[user].experience + amount >= _stats[user].nextLevel) {\r\n            _stats[user].level += 1;\r\n            _stats[user].experience = _stats[user].experience + amount - _stats[user].nextLevel;\r\n        } else {\r\n            _stats[user].experience += amount;\r\n        }\r\n    }\r\n\r\n    function getLevel(address user) external view returns (uint256) {\r\n        return _stats[user].level;\r\n    }\r\n}\r\n",
  "sourcePath": "C:\\Users\\KevinGeorgesAndres\\Documents\\projects\\perso\\blackhole-evm\\contracts\\character\\CraftsmanProfile.sol",
  "compiler": {
    "name": "solc",
    "version": "0.8.0+commit.c7dfd78e.Emscripten.clang"
  },
  "schemaVersion": "3.4.3",
  "updatedAt": "2021-12-08T06:27:03.094Z",
  "networkType": "ethereum",
  "devdoc": {
    "kind": "dev",
    "methods": {
      "getRoleAdmin(bytes32)": {
        "details": "Returns the admin role that controls `role`. See {grantRole} and {revokeRole}. To change a role's admin, use {_setRoleAdmin}."
      },
      "grantRole(bytes32,address)": {
        "details": "Grants `role` to `account`. If `account` had not been already granted `role`, emits a {RoleGranted} event. Requirements: - the caller must have ``role``'s admin role."
      },
      "hasRole(bytes32,address)": {
        "details": "Returns `true` if `account` has been granted `role`."
      },
      "renounceRole(bytes32,address)": {
        "details": "Revokes `role` from the calling account. Roles are often managed via {grantRole} and {revokeRole}: this function's purpose is to provide a mechanism for accounts to lose their privileges if they are compromised (such as when a trusted device is misplaced). If the calling account had been revoked `role`, emits a {RoleRevoked} event. Requirements: - the caller must be `account`."
      },
      "revokeRole(bytes32,address)": {
        "details": "Revokes `role` from `account`. If `account` had been granted `role`, emits a {RoleRevoked} event. Requirements: - the caller must have ``role``'s admin role."
      },
      "supportsInterface(bytes4)": {
        "details": "See {IERC165-supportsInterface}."
      }
    },
    "version": 1
  },
  "userdoc": {
    "kind": "user",
    "methods": {},
    "version": 1
  }
}