{
  "contractName": "CraftManager",
  "abi": [
    {
      "inputs": [
        {
          "internalType": "address",
          "name": "craftsmanProfile",
          "type": "address"
        },
        {
          "internalType": "address",
          "name": "holyCore",
          "type": "address"
        },
        {
          "internalType": "address",
          "name": "legendaryCore",
          "type": "address"
        },
        {
          "internalType": "address",
          "name": "potionEssence",
          "type": "address"
        },
        {
          "internalType": "address",
          "name": "lifeEssence",
          "type": "address"
        },
        {
          "internalType": "address",
          "name": "energyShock",
          "type": "address"
        },
        {
          "internalType": "address",
          "name": "uxonium",
          "type": "address"
        },
        {
          "internalType": "address",
          "name": "darkMatter",
          "type": "address"
        },
        {
          "internalType": "address",
          "name": "plasmaEnergy",
          "type": "address"
        },
        {
          "internalType": "address",
          "name": "voidEssence",
          "type": "address"
        }
      ],
      "stateMutability": "nonpayable",
      "type": "constructor"
    },
    {
      "inputs": [
        {
          "internalType": "uint256",
          "name": "number",
          "type": "uint256"
        }
      ],
      "name": "craftHolyCore",
      "outputs": [],
      "stateMutability": "nonpayable",
      "type": "function"
    },
    {
      "inputs": [
        {
          "internalType": "uint256",
          "name": "number",
          "type": "uint256"
        }
      ],
      "name": "craftHolyArtifact",
      "outputs": [],
      "stateMutability": "nonpayable",
      "type": "function"
    },
    {
      "inputs": [
        {
          "internalType": "uint256",
          "name": "number",
          "type": "uint256"
        }
      ],
      "name": "craftPotionEssence",
      "outputs": [],
      "stateMutability": "nonpayable",
      "type": "function"
    },
    {
      "inputs": [
        {
          "internalType": "uint256",
          "name": "number",
          "type": "uint256"
        }
      ],
      "name": "craftLifeEssence",
      "outputs": [],
      "stateMutability": "nonpayable",
      "type": "function"
    },
    {
      "inputs": [
        {
          "internalType": "uint256",
          "name": "number",
          "type": "uint256"
        }
      ],
      "name": "craftEnergyShock",
      "outputs": [],
      "stateMutability": "nonpayable",
      "type": "function"
    }
  ],
  "bytecode": "0x60806040523480156200001157600080fd5b5060405162001e5438038062001e548339818101604052810190620000379190620002e7565b896000806101000a81548173ffffffffffffffffffffffffffffffffffffffff021916908373ffffffffffffffffffffffffffffffffffffffff16021790555088600160006101000a81548173ffffffffffffffffffffffffffffffffffffffff021916908373ffffffffffffffffffffffffffffffffffffffff16021790555087600260006101000a81548173ffffffffffffffffffffffffffffffffffffffff021916908373ffffffffffffffffffffffffffffffffffffffff16021790555086600360006101000a81548173ffffffffffffffffffffffffffffffffffffffff021916908373ffffffffffffffffffffffffffffffffffffffff16021790555085600460006101000a81548173ffffffffffffffffffffffffffffffffffffffff021916908373ffffffffffffffffffffffffffffffffffffffff16021790555084600560006101000a81548173ffffffffffffffffffffffffffffffffffffffff021916908373ffffffffffffffffffffffffffffffffffffffff16021790555083600660006101000a81548173ffffffffffffffffffffffffffffffffffffffff021916908373ffffffffffffffffffffffffffffffffffffffff16021790555082600760006101000a81548173ffffffffffffffffffffffffffffffffffffffff021916908373ffffffffffffffffffffffffffffffffffffffff16021790555081600860006101000a81548173ffffffffffffffffffffffffffffffffffffffff021916908373ffffffffffffffffffffffffffffffffffffffff16021790555080600960006101000a81548173ffffffffffffffffffffffffffffffffffffffff021916908373ffffffffffffffffffffffffffffffffffffffff1602179055505050505050505050505062000425565b600081519050620002e1816200040b565b92915050565b6000806000806000806000806000806101408b8d0312156200030857600080fd5b6000620003188d828e01620002d0565b9a505060206200032b8d828e01620002d0565b99505060406200033e8d828e01620002d0565b9850506060620003518d828e01620002d0565b9750506080620003648d828e01620002d0565b96505060a0620003778d828e01620002d0565b95505060c06200038a8d828e01620002d0565b94505060e06200039d8d828e01620002d0565b935050610100620003b18d828e01620002d0565b925050610120620003c58d828e01620002d0565b9150509295989b9194979a5092959850565b6000620003e482620003eb565b9050919050565b600073ffffffffffffffffffffffffffffffffffffffff82169050919050565b6200041681620003d7565b81146200042257600080fd5b50565b611a1f80620004356000396000f3fe608060405234801561001057600080fd5b5060043610610074576000357c010000000000000000000000000000000000000000000000000000000090048063219badc214610079578063a399fc5814610095578063c17bf8dc146100b1578063cc3b85c1146100cd578063f6de3024146100e9575b600080fd5b610093600480360381019061008e91906117bf565b610105565b005b6100af60048036038101906100aa91906117bf565b610599565b005b6100cb60048036038101906100c691906117bf565b610a2d565b005b6100e760048036038101906100e291906117bf565b610db6565b005b61010360048036038101906100fe91906117bf565b61124a565b005b600260008054906101000a900473ffffffffffffffffffffffffffffffffffffffff1673ffffffffffffffffffffffffffffffffffffffff1663817c8966336040518263ffffffff167c010000000000000000000000000000000000000000000000000000000002815260040161017c919061186f565b60206040518083038186803b15801561019457600080fd5b505afa1580156101a8573d6000803e3d6000fd5b505050506040513d601f19601f820116820180604052508101906101cc91906117e8565b101561020d576040517f08c379a0000000000000000000000000000000000000000000000000000000008152600401610204906118b3565b60405180910390fd5b600760009054906101000a900473ffffffffffffffffffffffffffffffffffffffff1673ffffffffffffffffffffffffffffffffffffffff1663224b5c72338361019061025a919061190d565b6040518363ffffffff167c010000000000000000000000000000000000000000000000000000000002815260040161029392919061188a565b600060405180830381600087803b1580156102ad57600080fd5b505af11580156102c1573d6000803e3d6000fd5b50505050600860009054906101000a900473ffffffffffffffffffffffffffffffffffffffff1673ffffffffffffffffffffffffffffffffffffffff1663224b5c7233836104b0610312919061190d565b6040518363ffffffff167c010000000000000000000000000000000000000000000000000000000002815260040161034b92919061188a565b600060405180830381600087803b15801561036557600080fd5b505af1158015610379573d6000803e3d6000fd5b50505050600960009054906101000a900473ffffffffffffffffffffffffffffffffffffffff1673ffffffffffffffffffffffffffffffffffffffff1663224b5c7233836101906103ca919061190d565b6040518363ffffffff167c010000000000000000000000000000000000000000000000000000000002815260040161040392919061188a565b600060405180830381600087803b15801561041d57600080fd5b505af1158015610431573d6000803e3d6000fd5b50505050600560009054906101000a900473ffffffffffffffffffffffffffffffffffffffff1673ffffffffffffffffffffffffffffffffffffffff1663c1d942c133836040518363ffffffff167c01000000000000000000000000000000000000000000000000000000000281526004016104ae92919061188a565b600060405180830381600087803b1580156104c857600080fd5b505af11580156104dc573d6000803e3d6000fd5b5050505060008054906101000a900473ffffffffffffffffffffffffffffffffffffffff1673ffffffffffffffffffffffffffffffffffffffff1663756f853a826107d061052a919061190d565b336040518363ffffffff167c01000000000000000000000000000000000000000000000000000000000281526004016105649291906118d3565b600060405180830381600087803b15801561057e57600080fd5b505af1158015610592573d6000803e3d6000fd5b5050505050565b600360008054906101000a900473ffffffffffffffffffffffffffffffffffffffff1673ffffffffffffffffffffffffffffffffffffffff1663817c8966336040518263ffffffff167c0100000000000000000000000000000000000000000000000000000000028152600401610610919061186f565b60206040518083038186803b15801561062857600080fd5b505afa15801561063c573d6000803e3d6000fd5b505050506040513d601f19601f8201168201806040525081019061066091906117e8565b10156106a1576040517f08c379a0000000000000000000000000000000000000000000000000000000008152600401610698906118b3565b60405180910390fd5b600760009054906101000a900473ffffffffffffffffffffffffffffffffffffffff1673ffffffffffffffffffffffffffffffffffffffff1663224b5c7233836101f46106ee919061190d565b6040518363ffffffff167c010000000000000000000000000000000000000000000000000000000002815260040161072792919061188a565b600060405180830381600087803b15801561074157600080fd5b505af1158015610755573d6000803e3d6000fd5b50505050600860009054906101000a900473ffffffffffffffffffffffffffffffffffffffff1673ffffffffffffffffffffffffffffffffffffffff1663224b5c7233836105dc6107a6919061190d565b6040518363ffffffff167c01000000000000000000000000000000000000000000000000000000000281526004016107df92919061188a565b600060405180830381600087803b1580156107f957600080fd5b505af115801561080d573d6000803e3d6000fd5b50505050600960009054906101000a900473ffffffffffffffffffffffffffffffffffffffff1673ffffffffffffffffffffffffffffffffffffffff1663224b5c723383610bb861085e919061190d565b6040518363ffffffff167c010000000000000000000000000000000000000000000000000000000002815260040161089792919061188a565b600060405180830381600087803b1580156108b157600080fd5b505af11580156108c5573d6000803e3d6000fd5b50505050600460009054906101000a900473ffffffffffffffffffffffffffffffffffffffff1673ffffffffffffffffffffffffffffffffffffffff1663c1d942c133836040518363ffffffff167c010000000000000000000000000000000000000000000000000000000002815260040161094292919061188a565b600060405180830381600087803b15801561095c57600080fd5b505af1158015610970573d6000803e3d6000fd5b5050505060008054906101000a900473ffffffffffffffffffffffffffffffffffffffff1673ffffffffffffffffffffffffffffffffffffffff1663756f853a826113886109be919061190d565b336040518363ffffffff167c01000000000000000000000000000000000000000000000000000000000281526004016109f89291906118d3565b600060405180830381600087803b158015610a1257600080fd5b505af1158015610a26573d6000803e3d6000fd5b5050505050565b600760009054906101000a900473ffffffffffffffffffffffffffffffffffffffff1673ffffffffffffffffffffffffffffffffffffffff1663224b5c7233836032610a79919061190d565b6040518363ffffffff167c0100000000000000000000000000000000000000000000000000000000028152600401610ab292919061188a565b600060405180830381600087803b158015610acc57600080fd5b505af1158015610ae0573d6000803e3d6000fd5b50505050600860009054906101000a900473ffffffffffffffffffffffffffffffffffffffff1673ffffffffffffffffffffffffffffffffffffffff1663224b5c72338360c8610b30919061190d565b6040518363ffffffff167c0100000000000000000000000000000000000000000000000000000000028152600401610b6992919061188a565b600060405180830381600087803b158015610b8357600080fd5b505af1158015610b97573d6000803e3d6000fd5b50505050600960009054906101000a900473ffffffffffffffffffffffffffffffffffffffff1673ffffffffffffffffffffffffffffffffffffffff1663224b5c72338360c8610be7919061190d565b6040518363ffffffff167c0100000000000000000000000000000000000000000000000000000000028152600401610c2092919061188a565b600060405180830381600087803b158015610c3a57600080fd5b505af1158015610c4e573d6000803e3d6000fd5b50505050600360009054906101000a900473ffffffffffffffffffffffffffffffffffffffff1673ffffffffffffffffffffffffffffffffffffffff1663c1d942c133836040518363ffffffff167c0100000000000000000000000000000000000000000000000000000000028152600401610ccb92919061188a565b600060405180830381600087803b158015610ce557600080fd5b505af1158015610cf9573d6000803e3d6000fd5b5050505060008054906101000a900473ffffffffffffffffffffffffffffffffffffffff1673ffffffffffffffffffffffffffffffffffffffff1663756f853a826101c2610d47919061190d565b336040518363ffffffff167c0100000000000000000000000000000000000000000000000000000000028152600401610d819291906118d3565b600060405180830381600087803b158015610d9b57600080fd5b505af1158015610daf573d6000803e3d6000fd5b5050505050565b600660008054906101000a900473ffffffffffffffffffffffffffffffffffffffff1673ffffffffffffffffffffffffffffffffffffffff1663817c8966336040518263ffffffff167c0100000000000000000000000000000000000000000000000000000000028152600401610e2d919061186f565b60206040518083038186803b158015610e4557600080fd5b505afa158015610e59573d6000803e3d6000fd5b505050506040513d601f19601f82011682018060405250810190610e7d91906117e8565b1015610ebe576040517f08c379a0000000000000000000000000000000000000000000000000000000008152600401610eb5906118b3565b60405180910390fd5b600760009054906101000a900473ffffffffffffffffffffffffffffffffffffffff1673ffffffffffffffffffffffffffffffffffffffff1663224b5c723383610fa0610f0b919061190d565b6040518363ffffffff167c0100000000000000000000000000000000000000000000000000000000028152600401610f4492919061188a565b600060405180830381600087803b158015610f5e57600080fd5b505af1158015610f72573d6000803e3d6000fd5b50505050600860009054906101000a900473ffffffffffffffffffffffffffffffffffffffff1673ffffffffffffffffffffffffffffffffffffffff1663224b5c723383611770610fc3919061190d565b6040518363ffffffff167c0100000000000000000000000000000000000000000000000000000000028152600401610ffc92919061188a565b600060405180830381600087803b15801561101657600080fd5b505af115801561102a573d6000803e3d6000fd5b50505050600960009054906101000a900473ffffffffffffffffffffffffffffffffffffffff1673ffffffffffffffffffffffffffffffffffffffff1663224b5c72338361271061107b919061190d565b6040518363ffffffff167c01000000000000000000000000000000000000000000000000000000000281526004016110b492919061188a565b600060405180830381600087803b1580156110ce57600080fd5b505af11580156110e2573d6000803e3d6000fd5b50505050600160009054906101000a900473ffffffffffffffffffffffffffffffffffffffff1673ffffffffffffffffffffffffffffffffffffffff1663c1d942c133836040518363ffffffff167c010000000000000000000000000000000000000000000000000000000002815260040161115f92919061188a565b600060405180830381600087803b15801561117957600080fd5b505af115801561118d573d6000803e3d6000fd5b5050505060008054906101000a900473ffffffffffffffffffffffffffffffffffffffff1673ffffffffffffffffffffffffffffffffffffffff1663756f853a82614e206111db919061190d565b336040518363ffffffff167c01000000000000000000000000000000000000000000000000000000000281526004016112159291906118d3565b600060405180830381600087803b15801561122f57600080fd5b505af1158015611243573d6000803e3d6000fd5b5050505050565b600960008054906101000a900473ffffffffffffffffffffffffffffffffffffffff1673ffffffffffffffffffffffffffffffffffffffff1663817c8966336040518263ffffffff167c01000000000000000000000000000000000000000000000000000000000281526004016112c1919061186f565b60206040518083038186803b1580156112d957600080fd5b505afa1580156112ed573d6000803e3d6000fd5b505050506040513d601f19601f8201168201806040525081019061131191906117e8565b1015611352576040517f08c379a0000000000000000000000000000000000000000000000000000000008152600401611349906118b3565b60405180910390fd5b600660009054906101000a900473ffffffffffffffffffffffffffffffffffffffff1673ffffffffffffffffffffffffffffffffffffffff1663224b5c723383604261139e919061190d565b6040518363ffffffff167c01000000000000000000000000000000000000000000000000000000000281526004016113d792919061188a565b600060405180830381600087803b1580156113f157600080fd5b505af1158015611405573d6000803e3d6000fd5b50505050600760009054906101000a900473ffffffffffffffffffffffffffffffffffffffff1673ffffffffffffffffffffffffffffffffffffffff1663224b5c723383612710611456919061190d565b6040518363ffffffff167c010000000000000000000000000000000000000000000000000000000002815260040161148f92919061188a565b600060405180830381600087803b1580156114a957600080fd5b505af11580156114bd573d6000803e3d6000fd5b50505050600860009054906101000a900473ffffffffffffffffffffffffffffffffffffffff1673ffffffffffffffffffffffffffffffffffffffff1663224b5c723383614e2061150e919061190d565b6040518363ffffffff167c010000000000000000000000000000000000000000000000000000000002815260040161154792919061188a565b600060405180830381600087803b15801561156157600080fd5b505af1158015611575573d6000803e3d6000fd5b50505050600960009054906101000a900473ffffffffffffffffffffffffffffffffffffffff1673ffffffffffffffffffffffffffffffffffffffff1663224b5c7233836175306115c6919061190d565b6040518363ffffffff167c01000000000000000000000000000000000000000000000000000000000281526004016115ff92919061188a565b600060405180830381600087803b15801561161957600080fd5b505af115801561162d573d6000803e3d6000fd5b50505050600260009054906101000a900473ffffffffffffffffffffffffffffffffffffffff1673ffffffffffffffffffffffffffffffffffffffff1663c1d942c133836040518363ffffffff167c01000000000000000000000000000000000000000000000000000000000281526004016116aa92919061188a565b600060405180830381600087803b1580156116c457600080fd5b505af11580156116d8573d6000803e3d6000fd5b5050505060008054906101000a900473ffffffffffffffffffffffffffffffffffffffff1673ffffffffffffffffffffffffffffffffffffffff1663756f853a8261eaa2611726919061190d565b336040518363ffffffff167c01000000000000000000000000000000000000000000000000000000000281526004016117609291906118d3565b600060405180830381600087803b15801561177a57600080fd5b505af115801561178e573d6000803e3d6000fd5b5050505050565b6000813590506117a4816119d2565b92915050565b6000815190506117b9816119d2565b92915050565b6000602082840312156117d157600080fd5b60006117df84828501611795565b91505092915050565b6000602082840312156117fa57600080fd5b6000611808848285016117aa565b91505092915050565b61181a81611967565b82525050565b600061182d601c836118fc565b91507f486967686572206372616674206c6576656c2072657175697265642e000000006000830152602082019050919050565b61186981611999565b82525050565b60006020820190506118846000830184611811565b92915050565b600060408201905061189f6000830185611811565b6118ac6020830184611860565b9392505050565b600060208201905081810360008301526118cc81611820565b9050919050565b60006040820190506118e86000830185611860565b6118f56020830184611811565b9392505050565b600082825260208201905092915050565b600061191882611999565b915061192383611999565b9250817fffffffffffffffffffffffffffffffffffffffffffffffffffffffffffffffff048311821515161561195c5761195b6119a3565b5b828202905092915050565b600061197282611979565b9050919050565b600073ffffffffffffffffffffffffffffffffffffffff82169050919050565b6000819050919050565b7f4e487b7100000000000000000000000000000000000000000000000000000000600052601160045260246000fd5b6119db81611999565b81146119e657600080fd5b5056fea2646970667358221220b284bde55cf56ae3dc36916ea3e43ad2ee44cec0a79ccd680617666381ffae6264736f6c63430008000033",
  "immutableReferences": {},
  "source": "pragma solidity ^0.8.0;\r\n\r\nimport \"../tokens/ticket/HolyCore.sol\";\r\nimport \"../tokens/Item.sol\";\r\nimport \"../tokens/Resource.sol\";\r\nimport \"../tokens/ticket/LegendaryCore.sol\";\r\nimport \"../character/CraftsmanProfile.sol\";\r\n\r\n// SPDX-License-Identifier: MIT\r\ncontract CraftManager {\r\n\r\n    CraftsmanProfile private _craftsmanProfile;\r\n    HolyCore private _holyCore;\r\n    LegendaryCore private _legendaryCore;\r\n    Item private _potionEssence;\r\n    Item private _lifeEssence;\r\n    Item private _energyShock;\r\n    Resource private _uxonium;\r\n    Resource private _darkMatter;\r\n    Resource private _plasmaEnergy;\r\n    Resource private _voidEssence;\r\n\r\n    constructor(address craftsmanProfile, address holyCore, address legendaryCore, address potionEssence, address lifeEssence, address energyShock, address uxonium, address darkMatter, address plasmaEnergy, address voidEssence) {\r\n        _craftsmanProfile = CraftsmanProfile(craftsmanProfile);\r\n        _holyCore = HolyCore(holyCore);\r\n        _legendaryCore = LegendaryCore(legendaryCore);\r\n        _potionEssence = Item(potionEssence);\r\n        _lifeEssence = Item(lifeEssence);\r\n        _energyShock = Item(energyShock);\r\n        _uxonium = Resource(uxonium);\r\n        _darkMatter = Resource(darkMatter);\r\n        _plasmaEnergy = Resource(plasmaEnergy);\r\n        _voidEssence = Resource(voidEssence);\r\n    }\r\n\r\n    function craftHolyCore(uint256 number) external {\r\n        require(_craftsmanProfile.getLevel(msg.sender) >= 6, \"Higher craft level required.\");\r\n        _darkMatter.consume(msg.sender, 4000 * number);\r\n        _plasmaEnergy.consume(msg.sender, 6000 * number);\r\n        _voidEssence.consume(msg.sender, 10000 * number);\r\n        _holyCore.craft(msg.sender, number);\r\n        _craftsmanProfile.addExperience(20000 * number, msg.sender);\r\n    }\r\n\r\n    function craftHolyArtifact(uint256 number) external {\r\n        require(_craftsmanProfile.getLevel(msg.sender) >= 9, \"Higher craft level required.\");\r\n        _uxonium.consume(msg.sender, 66 * number);\r\n        _darkMatter.consume(msg.sender, 10000 * number);\r\n        _plasmaEnergy.consume(msg.sender, 20000 * number);\r\n        _voidEssence.consume(msg.sender, 30000 * number);\r\n        _legendaryCore.craft(msg.sender, number);\r\n        _craftsmanProfile.addExperience(60066 * number, msg.sender);\r\n    }\r\n\r\n    function craftPotionEssence(uint256 number) external {\r\n        _darkMatter.consume(msg.sender, 50 * number);\r\n        _plasmaEnergy.consume(msg.sender, 200 * number);\r\n        _voidEssence.consume(msg.sender, 200 * number);\r\n        _potionEssence.craft(msg.sender, number);\r\n        _craftsmanProfile.addExperience(450 * number, msg.sender);\r\n    }\r\n\r\n    function craftLifeEssence(uint256 number) external {\r\n        require(_craftsmanProfile.getLevel(msg.sender) >= 3, \"Higher craft level required.\");\r\n        _darkMatter.consume(msg.sender, 500 * number);\r\n        _plasmaEnergy.consume(msg.sender, 1500 * number);\r\n        _voidEssence.consume(msg.sender, 3000 * number);\r\n        _lifeEssence.craft(msg.sender, number);\r\n        _craftsmanProfile.addExperience(5000 * number, msg.sender);\r\n    }\r\n\r\n    function craftEnergyShock(uint256 number) external {\r\n        require(_craftsmanProfile.getLevel(msg.sender) >= 2, \"Higher craft level required.\");\r\n        _darkMatter.consume(msg.sender, 400 * number);\r\n        _plasmaEnergy.consume(msg.sender, 1200 * number);\r\n        _voidEssence.consume(msg.sender, 400 * number);\r\n        _energyShock.craft(msg.sender, number);\r\n        _craftsmanProfile.addExperience(2000 * number, msg.sender);\r\n    }\r\n}",
  "sourcePath": "C:\\Users\\10404\\Documents\\projects\\blackhole-evm\\contracts\\game\\CraftManager.sol",
  "compiler": {
    "name": "solc",
    "version": "0.8.0+commit.c7dfd78e.Emscripten.clang"
  },
  "schemaVersion": "3.4.3",
  "updatedAt": "2021-12-19T10:45:24.019Z",
  "networkType": "ethereum",
  "devdoc": {
    "kind": "dev",
    "methods": {},
    "version": 1
  },
  "userdoc": {
    "kind": "user",
    "methods": {},
    "version": 1
  }
}