{
  "contractName": "GameManager",
  "abi": [
    {
      "inputs": [
        {
          "internalType": "address",
          "name": "blackHole",
          "type": "address"
        },
        {
          "internalType": "address",
          "name": "nokai",
          "type": "address"
        },
        {
          "internalType": "address",
          "name": "nokaiStats",
          "type": "address"
        },
        {
          "internalType": "address",
          "name": "battleLogic",
          "type": "address"
        },
        {
          "internalType": "address",
          "name": "uxonium",
          "type": "address"
        },
        {
          "internalType": "address",
          "name": "darkMatter",
          "type": "address"
        },
        {
          "internalType": "address",
          "name": "plasmaEnergy",
          "type": "address"
        },
        {
          "internalType": "address",
          "name": "voidEssence",
          "type": "address"
        }
      ],
      "stateMutability": "nonpayable",
      "type": "constructor"
    },
    {
      "anonymous": false,
      "inputs": [
        {
          "indexed": true,
          "internalType": "address",
          "name": "previousOwner",
          "type": "address"
        },
        {
          "indexed": true,
          "internalType": "address",
          "name": "newOwner",
          "type": "address"
        }
      ],
      "name": "OwnershipTransferred",
      "type": "event"
    },
    {
      "inputs": [],
      "name": "owner",
      "outputs": [
        {
          "internalType": "address",
          "name": "",
          "type": "address"
        }
      ],
      "stateMutability": "view",
      "type": "function",
      "constant": true
    },
    {
      "inputs": [],
      "name": "renounceOwnership",
      "outputs": [],
      "stateMutability": "nonpayable",
      "type": "function"
    },
    {
      "inputs": [
        {
          "internalType": "address",
          "name": "newOwner",
          "type": "address"
        }
      ],
      "name": "transferOwnership",
      "outputs": [],
      "stateMutability": "nonpayable",
      "type": "function"
    },
    {
      "inputs": [
        {
          "internalType": "address",
          "name": "battleLogic",
          "type": "address"
        }
      ],
      "name": "migrateBattleLogic",
      "outputs": [],
      "stateMutability": "nonpayable",
      "type": "function"
    },
    {
      "inputs": [
        {
          "internalType": "uint16",
          "name": "fromX",
          "type": "uint16"
        },
        {
          "internalType": "uint16",
          "name": "fromY",
          "type": "uint16"
        },
        {
          "internalType": "enum GameManager.PositionTarget",
          "name": "target",
          "type": "uint8"
        }
      ],
      "name": "move",
      "outputs": [],
      "stateMutability": "nonpayable",
      "type": "function"
    },
    {
      "inputs": [
        {
          "internalType": "uint16",
          "name": "fromX",
          "type": "uint16"
        },
        {
          "internalType": "uint16",
          "name": "fromY",
          "type": "uint16"
        },
        {
          "internalType": "enum GameManager.PositionTarget",
          "name": "target",
          "type": "uint8"
        }
      ],
      "name": "conquer",
      "outputs": [
        {
          "internalType": "uint256",
          "name": "",
          "type": "uint256"
        },
        {
          "internalType": "bool",
          "name": "",
          "type": "bool"
        }
      ],
      "stateMutability": "nonpayable",
      "type": "function"
    },
    {
      "inputs": [
        {
          "internalType": "uint16",
          "name": "fromX",
          "type": "uint16"
        },
        {
          "internalType": "uint16",
          "name": "fromY",
          "type": "uint16"
        },
        {
          "internalType": "uint16",
          "name": "toX",
          "type": "uint16"
        },
        {
          "internalType": "uint16",
          "name": "toY",
          "type": "uint16"
        }
      ],
      "name": "teleport",
      "outputs": [],
      "stateMutability": "nonpayable",
      "type": "function"
    },
    {
      "inputs": [
        {
          "internalType": "uint256",
          "name": "nokaiId",
          "type": "uint256"
        },
        {
          "internalType": "uint16",
          "name": "x",
          "type": "uint16"
        },
        {
          "internalType": "uint16",
          "name": "y",
          "type": "uint16"
        }
      ],
      "name": "assignNokaiToBoard",
      "outputs": [],
      "stateMutability": "nonpayable",
      "type": "function"
    },
    {
      "inputs": [
        {
          "internalType": "uint16",
          "name": "x",
          "type": "uint16"
        },
        {
          "internalType": "uint16",
          "name": "y",
          "type": "uint16"
        }
      ],
      "name": "upgradeExtractor",
      "outputs": [],
      "stateMutability": "nonpayable",
      "type": "function"
    },
    {
      "inputs": [
        {
          "internalType": "uint16",
          "name": "x",
          "type": "uint16"
        },
        {
          "internalType": "uint16",
          "name": "y",
          "type": "uint16"
        }
      ],
      "name": "collectResources",
      "outputs": [],
      "stateMutability": "nonpayable",
      "type": "function"
    },
    {
      "inputs": [
        {
          "components": [
            {
              "internalType": "uint16",
              "name": "x",
              "type": "uint16"
            },
            {
              "internalType": "uint16",
              "name": "y",
              "type": "uint16"
            }
          ],
          "internalType": "struct GameManager.Pos[]",
          "name": "positions",
          "type": "tuple[]"
        }
      ],
      "name": "collectResourcesBash",
      "outputs": [],
      "stateMutability": "nonpayable",
      "type": "function"
    }
  ],
  "bytecode": "0x60806040523480156200001157600080fd5b506040516200499938038062004999833981810160405281019062000037919062000362565b62000069620000546200027f640100000000026401000000009004565b62000287640100000000026401000000009004565b87600160006101000a81548173ffffffffffffffffffffffffffffffffffffffff021916908373ffffffffffffffffffffffffffffffffffffffff16021790555086600260006101000a81548173ffffffffffffffffffffffffffffffffffffffff021916908373ffffffffffffffffffffffffffffffffffffffff16021790555085600360006101000a81548173ffffffffffffffffffffffffffffffffffffffff021916908373ffffffffffffffffffffffffffffffffffffffff16021790555084600460006101000a81548173ffffffffffffffffffffffffffffffffffffffff021916908373ffffffffffffffffffffffffffffffffffffffff16021790555083600560006101000a81548173ffffffffffffffffffffffffffffffffffffffff021916908373ffffffffffffffffffffffffffffffffffffffff16021790555082600660006101000a81548173ffffffffffffffffffffffffffffffffffffffff021916908373ffffffffffffffffffffffffffffffffffffffff16021790555081600760006101000a81548173ffffffffffffffffffffffffffffffffffffffff021916908373ffffffffffffffffffffffffffffffffffffffff16021790555080600860006101000a81548173ffffffffffffffffffffffffffffffffffffffff021916908373ffffffffffffffffffffffffffffffffffffffff160217905550505050505050505062000473565b600033905090565b60008060009054906101000a900473ffffffffffffffffffffffffffffffffffffffff169050816000806101000a81548173ffffffffffffffffffffffffffffffffffffffff021916908373ffffffffffffffffffffffffffffffffffffffff1602179055508173ffffffffffffffffffffffffffffffffffffffff168173ffffffffffffffffffffffffffffffffffffffff167f8be0079c531659141344cd1fd0a4f28419497f9722a3daafe3b4186f6b6457e060405160405180910390a35050565b6000815190506200035c8162000459565b92915050565b600080600080600080600080610100898b0312156200038057600080fd5b6000620003908b828c016200034b565b9850506020620003a38b828c016200034b565b9750506040620003b68b828c016200034b565b9650506060620003c98b828c016200034b565b9550506080620003dc8b828c016200034b565b94505060a0620003ef8b828c016200034b565b93505060c0620004028b828c016200034b565b92505060e0620004158b828c016200034b565b9150509295985092959890939650565b6000620004328262000439565b9050919050565b600073ffffffffffffffffffffffffffffffffffffffff82169050919050565b620004648162000425565b81146200047057600080fd5b50565b61451680620004836000396000f3fe608060405234801561001057600080fd5b50600436106100c6576000357c0100000000000000000000000000000000000000000000000000000000900480638da5cb5b1161008e5780638da5cb5b146101455780638e1e63811461016357806392047b401461017f578063a871b990146101b0578063f1c911ed146101cc578063f2fde38b146101e8576100c6565b806302f93099146100cb5780630a3d6499146100e757806334b0085f1461010357806345ae41ed1461011f578063715018a61461013b575b600080fd5b6100e560048036038101906100e091906135af565b610204565b005b61010160048036038101906100fc91906136c2565b6102c4565b005b61011d600480360381019061011891906137d9565b610653565b005b6101396004803603810190610134919061374d565b610889565b005b610143610f36565b005b61014d610fbe565b60405161015a9190613da0565b60405180910390f35b61017d600480360381019061017891906136fe565b610fe7565b005b610199600480360381019061019491906136fe565b6116a7565b6040516101a7929190614059565b60405180910390f35b6101ca60048036038101906101c59190613601565b6124eb565b005b6101e660048036038101906101e191906136c2565b61297e565b005b61020260048036038101906101fd91906135af565b612c69565b005b61020c612d61565b73ffffffffffffffffffffffffffffffffffffffff1661022a610fbe565b73ffffffffffffffffffffffffffffffffffffffff1614610280576040517f08c379a000000000000000000000000000000000000000000000000000000000815260040161027790613ea4565b60405180910390fd5b80600460006101000a81548173ffffffffffffffffffffffffffffffffffffffff021916908373ffffffffffffffffffffffffffffffffffffffff16021790555050565b600080600080600160009054906101000a900473ffffffffffffffffffffffffffffffffffffffff1673ffffffffffffffffffffffffffffffffffffffff166308be8abb8787336040518463ffffffff167c010000000000000000000000000000000000000000000000000000000002815260040161034593929190613f38565b608060405180830381600087803b15801561035f57600080fd5b505af1158015610373573d6000803e3d6000fd5b505050506040513d601f19601f820116820180604052508101906103979190613877565b9350935093509350600560009054906101000a900473ffffffffffffffffffffffffffffffffffffffff1673ffffffffffffffffffffffffffffffffffffffff16636b8357ac33866040518363ffffffff167c0100000000000000000000000000000000000000000000000000000000028152600401610418929190613dbb565b600060405180830381600087803b15801561043257600080fd5b505af1158015610446573d6000803e3d6000fd5b50505050600660009054906101000a900473ffffffffffffffffffffffffffffffffffffffff1673ffffffffffffffffffffffffffffffffffffffff16636b8357ac33856040518363ffffffff167c01000000000000000000000000000000000000000000000000000000000281526004016104c3929190613dbb565b600060405180830381600087803b1580156104dd57600080fd5b505af11580156104f1573d6000803e3d6000fd5b50505050600760009054906101000a900473ffffffffffffffffffffffffffffffffffffffff1673ffffffffffffffffffffffffffffffffffffffff16636b8357ac33846040518363ffffffff167c010000000000000000000000000000000000000000000000000000000002815260040161056e929190613dbb565b600060405180830381600087803b15801561058857600080fd5b505af115801561059c573d6000803e3d6000fd5b50505050600860009054906101000a900473ffffffffffffffffffffffffffffffffffffffff1673ffffffffffffffffffffffffffffffffffffffff16636b8357ac33836040518363ffffffff167c0100000000000000000000000000000000000000000000000000000000028152600401610619929190613dbb565b600060405180830381600087803b15801561063357600080fd5b505af1158015610647573d6000803e3d6000fd5b50505050505050505050565b6107d58282600160009054906101000a900473ffffffffffffffffffffffffffffffffffffffff1673ffffffffffffffffffffffffffffffffffffffff166370d20d3e6040518163ffffffff167c010000000000000000000000000000000000000000000000000000000002815260040160206040518083038186803b1580156106dc57600080fd5b505afa1580156106f0573d6000803e3d6000fd5b505050506040513d601f19601f820116820180604052508101906107149190613699565b600160009054906101000a900473ffffffffffffffffffffffffffffffffffffffff1673ffffffffffffffffffffffffffffffffffffffff16638b04f6476040518163ffffffff167c010000000000000000000000000000000000000000000000000000000002815260040160206040518083038186803b15801561079857600080fd5b505afa1580156107ac573d6000803e3d6000fd5b505050506040513d601f19601f820116820180604052508101906107d09190613699565b612d69565b600160009054906101000a900473ffffffffffffffffffffffffffffffffffffffff1673ffffffffffffffffffffffffffffffffffffffff1663cad86e51838386336040518563ffffffff167c01000000000000000000000000000000000000000000000000000000000281526004016108529493929190613ff9565b600060405180830381600087803b15801561086c57600080fd5b505af1158015610880573d6000803e3d6000fd5b50505050505050565b610a0b8484600160009054906101000a900473ffffffffffffffffffffffffffffffffffffffff1673ffffffffffffffffffffffffffffffffffffffff166370d20d3e6040518163ffffffff167c010000000000000000000000000000000000000000000000000000000002815260040160206040518083038186803b15801561091257600080fd5b505afa158015610926573d6000803e3d6000fd5b505050506040513d601f19601f8201168201806040525081019061094a9190613699565b600160009054906101000a900473ffffffffffffffffffffffffffffffffffffffff1673ffffffffffffffffffffffffffffffffffffffff16638b04f6476040518163ffffffff167c010000000000000000000000000000000000000000000000000000000002815260040160206040518083038186803b1580156109ce57600080fd5b505afa1580156109e2573d6000803e3d6000fd5b505050506040513d601f19601f82011682018060405250810190610a069190613699565b612d69565b6000600160009054906101000a900473ffffffffffffffffffffffffffffffffffffffff1673ffffffffffffffffffffffffffffffffffffffff1663684fad9086866040518363ffffffff167c0100000000000000000000000000000000000000000000000000000000028152600401610a86929190613f0f565b60206040518083038186803b158015610a9e57600080fd5b505afa158015610ab2573d6000803e3d6000fd5b505050506040513d601f19601f82011682018060405250810190610ad691906137b0565b9050610c5a8383600160009054906101000a900473ffffffffffffffffffffffffffffffffffffffff1673ffffffffffffffffffffffffffffffffffffffff166370d20d3e6040518163ffffffff167c010000000000000000000000000000000000000000000000000000000002815260040160206040518083038186803b158015610b6157600080fd5b505afa158015610b75573d6000803e3d6000fd5b505050506040513d601f19601f82011682018060405250810190610b999190613699565b600160009054906101000a900473ffffffffffffffffffffffffffffffffffffffff1673ffffffffffffffffffffffffffffffffffffffff16638b04f6476040518163ffffffff167c010000000000000000000000000000000000000000000000000000000002815260040160206040518083038186803b158015610c1d57600080fd5b505afa158015610c31573d6000803e3d6000fd5b505050506040513d601f19601f82011682018060405250810190610c559190613699565b612d69565b6000811415610c9e576040517f08c379a0000000000000000000000000000000000000000000000000000000008152600401610c9590613e64565b60405180910390fd5b3373ffffffffffffffffffffffffffffffffffffffff16600260009054906101000a900473ffffffffffffffffffffffffffffffffffffffff1673ffffffffffffffffffffffffffffffffffffffff16636352211e836040518263ffffffff167c0100000000000000000000000000000000000000000000000000000000028152600401610d2c919061403e565b60206040518083038186803b158015610d4457600080fd5b505afa158015610d58573d6000803e3d6000fd5b505050506040513d601f19601f82011682018060405250810190610d7c91906135d8565b73ffffffffffffffffffffffffffffffffffffffff1614610dd2576040517f08c379a0000000000000000000000000000000000000000000000000000000008152600401610dc990613e84565b60405180910390fd5b600360009054906101000a900473ffffffffffffffffffffffffffffffffffffffff1673ffffffffffffffffffffffffffffffffffffffff16630cac7f7c8260056040518363ffffffff167c0100000000000000000000000000000000000000000000000000000000028152600401610e4c9291906140ab565b600060405180830381600087803b158015610e6657600080fd5b505af1158015610e7a573d6000803e3d6000fd5b50505050600160009054906101000a900473ffffffffffffffffffffffffffffffffffffffff1673ffffffffffffffffffffffffffffffffffffffff1663ff7ae6ee86868686336040518663ffffffff167c0100000000000000000000000000000000000000000000000000000000028152600401610efd959493929190613f6f565b600060405180830381600087803b158015610f1757600080fd5b505af1158015610f2b573d6000803e3d6000fd5b505050505050505050565b610f3e612d61565b73ffffffffffffffffffffffffffffffffffffffff16610f5c610fbe565b73ffffffffffffffffffffffffffffffffffffffff1614610fb2576040517f08c379a0000000000000000000000000000000000000000000000000000000008152600401610fa990613ea4565b60405180910390fd5b610fbc6000612e93565b565b60008060009054906101000a900473ffffffffffffffffffffffffffffffffffffffff16905090565b6111698383600160009054906101000a900473ffffffffffffffffffffffffffffffffffffffff1673ffffffffffffffffffffffffffffffffffffffff166370d20d3e6040518163ffffffff167c010000000000000000000000000000000000000000000000000000000002815260040160206040518083038186803b15801561107057600080fd5b505afa158015611084573d6000803e3d6000fd5b505050506040513d601f19601f820116820180604052508101906110a89190613699565b600160009054906101000a900473ffffffffffffffffffffffffffffffffffffffff1673ffffffffffffffffffffffffffffffffffffffff16638b04f6476040518163ffffffff167c010000000000000000000000000000000000000000000000000000000002815260040160206040518083038186803b15801561112c57600080fd5b505afa158015611140573d6000803e3d6000fd5b505050506040513d601f19601f820116820180604052508101906111649190613699565b612d69565b6000600160009054906101000a900473ffffffffffffffffffffffffffffffffffffffff1673ffffffffffffffffffffffffffffffffffffffff1663684fad9085856040518363ffffffff167c01000000000000000000000000000000000000000000000000000000000281526004016111e4929190613f0f565b60206040518083038186803b1580156111fc57600080fd5b505afa158015611210573d6000803e3d6000fd5b505050506040513d601f19601f8201168201806040525081019061123491906137b0565b9050600081141561127a576040517f08c379a000000000000000000000000000000000000000000000000000000000815260040161127190613e64565b60405180910390fd5b3373ffffffffffffffffffffffffffffffffffffffff16600260009054906101000a900473ffffffffffffffffffffffffffffffffffffffff1673ffffffffffffffffffffffffffffffffffffffff16636352211e836040518263ffffffff167c0100000000000000000000000000000000000000000000000000000000028152600401611308919061403e565b60206040518083038186803b15801561132057600080fd5b505afa158015611334573d6000803e3d6000fd5b505050506040513d601f19601f8201168201806040525081019061135891906135d8565b73ffffffffffffffffffffffffffffffffffffffff16146113ae576040517f08c379a00000000000000000000000000000000000000000000000000000000081526004016113a590613ec4565b60405180910390fd5b6000806113bc868686612f57565b915091506115428282600160009054906101000a900473ffffffffffffffffffffffffffffffffffffffff1673ffffffffffffffffffffffffffffffffffffffff166370d20d3e6040518163ffffffff167c010000000000000000000000000000000000000000000000000000000002815260040160206040518083038186803b15801561144957600080fd5b505afa15801561145d573d6000803e3d6000fd5b505050506040513d601f19601f820116820180604052508101906114819190613699565b600160009054906101000a900473ffffffffffffffffffffffffffffffffffffffff1673ffffffffffffffffffffffffffffffffffffffff16638b04f6476040518163ffffffff167c010000000000000000000000000000000000000000000000000000000002815260040160206040518083038186803b15801561150557600080fd5b505afa158015611519573d6000803e3d6000fd5b505050506040513d601f19601f8201168201806040525081019061153d9190613699565b612d69565b600360009054906101000a900473ffffffffffffffffffffffffffffffffffffffff1673ffffffffffffffffffffffffffffffffffffffff16630cac7f7c8460016040518363ffffffff167c01000000000000000000000000000000000000000000000000000000000281526004016115bc929190614082565b600060405180830381600087803b1580156115d657600080fd5b505af11580156115ea573d6000803e3d6000fd5b50505050600160009054906101000a900473ffffffffffffffffffffffffffffffffffffffff1673ffffffffffffffffffffffffffffffffffffffff166385fc694087878585336040518663ffffffff167c010000000000000000000000000000000000000000000000000000000002815260040161166d959493929190613f6f565b600060405180830381600087803b15801561168757600080fd5b505af115801561169b573d6000803e3d6000fd5b50505050505050505050565b60008061182c8585600160009054906101000a900473ffffffffffffffffffffffffffffffffffffffff1673ffffffffffffffffffffffffffffffffffffffff166370d20d3e6040518163ffffffff167c010000000000000000000000000000000000000000000000000000000002815260040160206040518083038186803b15801561173357600080fd5b505afa158015611747573d6000803e3d6000fd5b505050506040513d601f19601f8201168201806040525081019061176b9190613699565b600160009054906101000a900473ffffffffffffffffffffffffffffffffffffffff1673ffffffffffffffffffffffffffffffffffffffff16638b04f6476040518163ffffffff167c010000000000000000000000000000000000000000000000000000000002815260040160206040518083038186803b1580156117ef57600080fd5b505afa158015611803573d6000803e3d6000fd5b505050506040513d601f19601f820116820180604052508101906118279190613699565b612d69565b6000600160009054906101000a900473ffffffffffffffffffffffffffffffffffffffff1673ffffffffffffffffffffffffffffffffffffffff1663684fad9087876040518363ffffffff167c01000000000000000000000000000000000000000000000000000000000281526004016118a7929190613f0f565b60206040518083038186803b1580156118bf57600080fd5b505afa1580156118d3573d6000803e3d6000fd5b505050506040513d601f19601f820116820180604052508101906118f791906137b0565b9050600081141561193d576040517f08c379a000000000000000000000000000000000000000000000000000000000815260040161193490613e64565b60405180910390fd5b3373ffffffffffffffffffffffffffffffffffffffff16600260009054906101000a900473ffffffffffffffffffffffffffffffffffffffff1673ffffffffffffffffffffffffffffffffffffffff16636352211e836040518263ffffffff167c01000000000000000000000000000000000000000000000000000000000281526004016119cb919061403e565b60206040518083038186803b1580156119e357600080fd5b505afa1580156119f7573d6000803e3d6000fd5b505050506040513d601f19601f82011682018060405250810190611a1b91906135d8565b73ffffffffffffffffffffffffffffffffffffffff1614611a71576040517f08c379a0000000000000000000000000000000000000000000000000000000008152600401611a6890613ec4565b60405180910390fd5b600080611a7f888888612f57565b91509150611c058282600160009054906101000a900473ffffffffffffffffffffffffffffffffffffffff1673ffffffffffffffffffffffffffffffffffffffff166370d20d3e6040518163ffffffff167c010000000000000000000000000000000000000000000000000000000002815260040160206040518083038186803b158015611b0c57600080fd5b505afa158015611b20573d6000803e3d6000fd5b505050506040513d601f19601f82011682018060405250810190611b449190613699565b600160009054906101000a900473ffffffffffffffffffffffffffffffffffffffff1673ffffffffffffffffffffffffffffffffffffffff16638b04f6476040518163ffffffff167c010000000000000000000000000000000000000000000000000000000002815260040160206040518083038186803b158015611bc857600080fd5b505afa158015611bdc573d6000803e3d6000fd5b505050506040513d601f19601f82011682018060405250810190611c009190613699565b612d69565b6000600160009054906101000a900473ffffffffffffffffffffffffffffffffffffffff1673ffffffffffffffffffffffffffffffffffffffff1663684fad9084846040518363ffffffff167c0100000000000000000000000000000000000000000000000000000000028152600401611c80929190613f0f565b60206040518083038186803b158015611c9857600080fd5b505afa158015611cac573d6000803e3d6000fd5b505050506040513d601f19601f82011682018060405250810190611cd091906137b0565b90506000841415611d16576040517f08c379a0000000000000000000000000000000000000000000000000000000008152600401611d0d90613e04565b60405180910390fd5b3373ffffffffffffffffffffffffffffffffffffffff16600260009054906101000a900473ffffffffffffffffffffffffffffffffffffffff1673ffffffffffffffffffffffffffffffffffffffff16636352211e866040518263ffffffff167c0100000000000000000000000000000000000000000000000000000000028152600401611da4919061403e565b60206040518083038186803b158015611dbc57600080fd5b505afa158015611dd0573d6000803e3d6000fd5b505050506040513d601f19601f82011682018060405250810190611df491906135d8565b73ffffffffffffffffffffffffffffffffffffffff161415611e4b576040517f08c379a0000000000000000000000000000000000000000000000000000000008152600401611e4290613e24565b60405180910390fd5b6000806000600460009054906101000a900473ffffffffffffffffffffffffffffffffffffffff1673ffffffffffffffffffffffffffffffffffffffff1663731095b6600360009054906101000a900473ffffffffffffffffffffffffffffffffffffffff1673ffffffffffffffffffffffffffffffffffffffff166372cd2b1a8a6040518263ffffffff167c0100000000000000000000000000000000000000000000000000000000028152600401611f05919061403e565b6101e06040518083038186803b158015611f1e57600080fd5b505afa158015611f32573d6000803e3d6000fd5b505050506040513d601f19601f82011682018060405250810190611f569190613646565b600360009054906101000a900473ffffffffffffffffffffffffffffffffffffffff1673ffffffffffffffffffffffffffffffffffffffff166372cd2b1a8b6040518263ffffffff167c0100000000000000000000000000000000000000000000000000000000028152600401611fcd919061403e565b6101e06040518083038186803b158015611fe657600080fd5b505afa158015611ffa573d6000803e3d6000fd5b505050506040513d601f19601f8201168201806040525081019061201e9190613646565b6040518363ffffffff167c0100000000000000000000000000000000000000000000000000000000028152600401612057929190613ee4565b60606040518083038186803b15801561206f57600080fd5b505afa158015612083573d6000803e3d6000fd5b505050506040513d601f19601f820116820180604052508101906120a79190613828565b925092509250600360009054906101000a900473ffffffffffffffffffffffffffffffffffffffff1673ffffffffffffffffffffffffffffffffffffffff1663f3fc7b2488846040518363ffffffff167c01000000000000000000000000000000000000000000000000000000000281526004016121269291906140d4565b600060405180830381600087803b15801561214057600080fd5b505af1158015612154573d6000803e3d6000fd5b50505050600360009054906101000a900473ffffffffffffffffffffffffffffffffffffffff1673ffffffffffffffffffffffffffffffffffffffff1663f3fc7b2485836040518363ffffffff167c01000000000000000000000000000000000000000000000000000000000281526004016121d19291906140d4565b600060405180830381600087803b1580156121eb57600080fd5b505af11580156121ff573d6000803e3d6000fd5b50505050600360009054906101000a900473ffffffffffffffffffffffffffffffffffffffff1673ffffffffffffffffffffffffffffffffffffffff16630cac7f7c8860016040518363ffffffff167c010000000000000000000000000000000000000000000000000000000002815260040161227d929190614082565b600060405180830381600087803b15801561229757600080fd5b505af11580156122ab573d6000803e3d6000fd5b50505050600081141561241b57600160009054906101000a900473ffffffffffffffffffffffffffffffffffffffff1673ffffffffffffffffffffffffffffffffffffffff16638e817b418787876040518463ffffffff167c010000000000000000000000000000000000000000000000000000000002815260040161233393929190613fc2565b600060405180830381600087803b15801561234d57600080fd5b505af1158015612361573d6000803e3d6000fd5b50505050600160009054906101000a900473ffffffffffffffffffffffffffffffffffffffff1673ffffffffffffffffffffffffffffffffffffffff166385fc69408d8d8989336040518663ffffffff167c01000000000000000000000000000000000000000000000000000000000281526004016123e4959493929190613f6f565b600060405180830381600087803b1580156123fe57600080fd5b505af1158015612412573d6000803e3d6000fd5b505050506124d3565b60008214156124d257600160009054906101000a900473ffffffffffffffffffffffffffffffffffffffff1673ffffffffffffffffffffffffffffffffffffffff16638e817b418d8d8a6040518463ffffffff167c010000000000000000000000000000000000000000000000000000000002815260040161249f93929190613fc2565b600060405180830381600087803b1580156124b957600080fd5b505af11580156124cd573d6000803e3d6000fd5b505050505b5b82600082149850985050505050505050935093915050565b60008060008060005b868690508110156126c957600080600080600160009054906101000a900473ffffffffffffffffffffffffffffffffffffffff1673ffffffffffffffffffffffffffffffffffffffff166308be8abb8c8c8881811061257c577f4e487b7100000000000000000000000000000000000000000000000000000000600052603260045260246000fd5b90506040020160000160208101906125949190613670565b8d8d898181106125cd577f4e487b7100000000000000000000000000000000000000000000000000000000600052603260045260246000fd5b90506040020160200160208101906125e59190613670565b336040518463ffffffff167c010000000000000000000000000000000000000000000000000000000002815260040161262093929190613f38565b608060405180830381600087803b15801561263a57600080fd5b505af115801561264e573d6000803e3d6000fd5b505050506040513d601f19601f820116820180604052508101906126729190613877565b935093509350935083896126869190614177565b985082886126949190614177565b975081876126a29190614177565b965080866126b09190614177565b95505050505080806126c1906142f6565b9150506124f4565b50600560009054906101000a900473ffffffffffffffffffffffffffffffffffffffff1673ffffffffffffffffffffffffffffffffffffffff16636b8357ac33866040518363ffffffff167c0100000000000000000000000000000000000000000000000000000000028152600401612743929190613dbb565b600060405180830381600087803b15801561275d57600080fd5b505af1158015612771573d6000803e3d6000fd5b50505050600660009054906101000a900473ffffffffffffffffffffffffffffffffffffffff1673ffffffffffffffffffffffffffffffffffffffff16636b8357ac33856040518363ffffffff167c01000000000000000000000000000000000000000000000000000000000281526004016127ee929190613dbb565b600060405180830381600087803b15801561280857600080fd5b505af115801561281c573d6000803e3d6000fd5b50505050600760009054906101000a900473ffffffffffffffffffffffffffffffffffffffff1673ffffffffffffffffffffffffffffffffffffffff16636b8357ac33846040518363ffffffff167c0100000000000000000000000000000000000000000000000000000000028152600401612899929190613dbb565b600060405180830381600087803b1580156128b357600080fd5b505af11580156128c7573d6000803e3d6000fd5b50505050600860009054906101000a900473ffffffffffffffffffffffffffffffffffffffff1673ffffffffffffffffffffffffffffffffffffffff16636b8357ac33836040518363ffffffff167c0100000000000000000000000000000000000000000000000000000000028152600401612944929190613dbb565b600060405180830381600087803b15801561295e57600080fd5b505af1158015612972573d6000803e3d6000fd5b50505050505050505050565b61298882826102c4565b6000600160009054906101000a900473ffffffffffffffffffffffffffffffffffffffff1673ffffffffffffffffffffffffffffffffffffffff16639495155084846040518363ffffffff167c0100000000000000000000000000000000000000000000000000000000028152600401612a03929190613f0f565b60206040518083038186803b158015612a1b57600080fd5b505afa158015612a2f573d6000803e3d6000fd5b505050506040513d601f19601f82011682018060405250810190612a5391906137b0565b9050600660009054906101000a900473ffffffffffffffffffffffffffffffffffffffff1673ffffffffffffffffffffffffffffffffffffffff1663224b5c7233836040518363ffffffff167c0100000000000000000000000000000000000000000000000000000000028152600401612ace929190613dbb565b600060405180830381600087803b158015612ae857600080fd5b505af1158015612afc573d6000803e3d6000fd5b50505050600760009054906101000a900473ffffffffffffffffffffffffffffffffffffffff1673ffffffffffffffffffffffffffffffffffffffff1663224b5c7233600284612b4c91906141cd565b6040518363ffffffff167c0100000000000000000000000000000000000000000000000000000000028152600401612b85929190613dbb565b600060405180830381600087803b158015612b9f57600080fd5b505af1158015612bb3573d6000803e3d6000fd5b50505050600160009054906101000a900473ffffffffffffffffffffffffffffffffffffffff1673ffffffffffffffffffffffffffffffffffffffff16634be4f4868484336040518463ffffffff167c0100000000000000000000000000000000000000000000000000000000028152600401612c3293929190613f38565b600060405180830381600087803b158015612c4c57600080fd5b505af1158015612c60573d6000803e3d6000fd5b50505050505050565b612c71612d61565b73ffffffffffffffffffffffffffffffffffffffff16612c8f610fbe565b73ffffffffffffffffffffffffffffffffffffffff1614612ce5576040517f08c379a0000000000000000000000000000000000000000000000000000000008152600401612cdc90613ea4565b60405180910390fd5b600073ffffffffffffffffffffffffffffffffffffffff168173ffffffffffffffffffffffffffffffffffffffff161415612d55576040517f08c379a0000000000000000000000000000000000000000000000000000000008152600401612d4c90613de4565b60405180910390fd5b612d5e81612e93565b50565b600033905090565b60008461ffff161015612db1576040517f08c379a0000000000000000000000000000000000000000000000000000000008152600401612da890613e44565b60405180910390fd5b8161ffff168461ffff1610612dfb576040517f08c379a0000000000000000000000000000000000000000000000000000000008152600401612df290613e44565b60405180910390fd5b60008361ffff161015612e43576040517f08c379a0000000000000000000000000000000000000000000000000000000008152600401612e3a90613e44565b60405180910390fd5b8061ffff168361ffff1610612e8d576040517f08c379a0000000000000000000000000000000000000000000000000000000008152600401612e8490613e44565b60405180910390fd5b50505050565b60008060009054906101000a900473ffffffffffffffffffffffffffffffffffffffff169050816000806101000a81548173ffffffffffffffffffffffffffffffffffffffff021916908373ffffffffffffffffffffffffffffffffffffffff1602179055508173ffffffffffffffffffffffffffffffffffffffff168173ffffffffffffffffffffffffffffffffffffffff167f8be0079c531659141344cd1fd0a4f28419497f9722a3daafe3b4186f6b6457e060405160405180910390a35050565b600080600580811115612f93577f4e487b7100000000000000000000000000000000000000000000000000000000600052602160045260246000fd5b836005811115612fcc577f4e487b7100000000000000000000000000000000000000000000000000000000600052602160045260246000fd5b1415612fe957600185612fdf91906141fe565b84915091506132f8565b60006005811115613023577f4e487b7100000000000000000000000000000000000000000000000000000000600052602160045260246000fd5b83600581111561305c577f4e487b7100000000000000000000000000000000000000000000000000000000600052602160045260246000fd5b14156130a8576000600285613071919061433f565b61ffff1614613081576000613084565b60015b60ff168561309291906141fe565b60018561309f91906141fe565b915091506132f8565b600160058111156130e2577f4e487b7100000000000000000000000000000000000000000000000000000000600052602160045260246000fd5b83600581111561311b577f4e487b7100000000000000000000000000000000000000000000000000000000600052602160045260246000fd5b1415613167576000600285613130919061433f565b61ffff1614613140576001613143565b60005b60ff1685613151919061413f565b60018561315e91906141fe565b915091506132f8565b600260058111156131a1577f4e487b7100000000000000000000000000000000000000000000000000000000600052602160045260246000fd5b8360058111156131da577f4e487b7100000000000000000000000000000000000000000000000000000000600052602160045260246000fd5b14156131f7576001856131ed919061413f565b84915091506132f8565b60036005811115613231577f4e487b7100000000000000000000000000000000000000000000000000000000600052602160045260246000fd5b83600581111561326a577f4e487b7100000000000000000000000000000000000000000000000000000000600052602160045260246000fd5b14156132b657600060028561327f919061433f565b61ffff161461328f576001613292565b60005b60ff16856132a0919061413f565b6001856132ad919061413f565b915091506132f8565b60006002856132c5919061433f565b61ffff16146132d55760006132d8565b60015b60ff16856132e691906141fe565b6001856132f3919061413f565b915091505b935093915050565b60008135905061330f81614454565b92915050565b60008151905061332481614454565b92915050565b60008083601f84011261333c57600080fd5b8235905067ffffffffffffffff81111561335557600080fd5b60208301915083604082028301111561336d57600080fd5b9250929050565b6000815190506133838161446b565b92915050565b60008135905061339881614482565b92915050565b6000815190506133ad81614492565b92915050565b6000815190506133c2816144a2565b92915050565b60006101e082840312156133db57600080fd5b6133e560e06140fd565b905060006133f58482850161347f565b60008301525061012061340a8482850161359a565b60208301525061014061341f8482850161359a565b60408301525061016061343484828501613374565b60608301525061018061344984828501613374565b6080830152506101a061345e8482850161359a565b60a0830152506101c06134738482850161359a565b60c08301525092915050565b6000610120828403121561349257600080fd5b61349d6101206140fd565b905060006134ad8482850161359a565b60008301525060206134c18482850161359a565b60208301525060406134d58482850161359a565b60408301525060606134e98482850161359a565b60608301525060806134fd8482850161359a565b60808301525060a06135118482850161359a565b60a08301525060c06135258482850161339e565b60c08301525060e0613539848285016133b3565b60e08301525061010061354e848285016133b3565b6101008301525092915050565b60008135905061356a816144b2565b92915050565b60008151905061357f816144b2565b92915050565b600081359050613594816144c9565b92915050565b6000815190506135a9816144c9565b92915050565b6000602082840312156135c157600080fd5b60006135cf84828501613300565b91505092915050565b6000602082840312156135ea57600080fd5b60006135f884828501613315565b91505092915050565b6000806020838503121561361457600080fd5b600083013567ffffffffffffffff81111561362e57600080fd5b61363a8582860161332a565b92509250509250929050565b60006101e0828403121561365957600080fd5b6000613667848285016133c8565b91505092915050565b60006020828403121561368257600080fd5b60006136908482850161355b565b91505092915050565b6000602082840312156136ab57600080fd5b60006136b984828501613570565b91505092915050565b600080604083850312156136d557600080fd5b60006136e38582860161355b565b92505060206136f48582860161355b565b9150509250929050565b60008060006060848603121561371357600080fd5b60006137218682870161355b565b93505060206137328682870161355b565b925050604061374386828701613389565b9150509250925092565b6000806000806080858703121561376357600080fd5b60006137718782880161355b565b94505060206137828782880161355b565b93505060406137938782880161355b565b92505060606137a48782880161355b565b91505092959194509250565b6000602082840312156137c257600080fd5b60006137d08482850161359a565b91505092915050565b6000806000606084860312156137ee57600080fd5b60006137fc86828701613585565b935050602061380d8682870161355b565b925050604061381e8682870161355b565b9150509250925092565b60008060006060848603121561383d57600080fd5b600061384b8682870161359a565b935050602061385c8682870161359a565b925050604061386d8682870161359a565b9150509250925092565b6000806000806080858703121561388d57600080fd5b600061389b8782880161359a565b94505060206138ac8782880161359a565b93505060406138bd8782880161359a565b92505060606138ce8782880161359a565b91505092959194509250565b6138e381614232565b82525050565b6138f281614244565b82525050565b61390181614244565b82525050565b613910816142ae565b82525050565b61391f816142c0565b82525050565b61392e816142d2565b82525050565b61393d816142e4565b82525050565b600061395060268361412e565b91507f4f776e61626c653a206e6577206f776e657220697320746865207a65726f206160008301527f64647265737300000000000000000000000000000000000000000000000000006020830152604082019050919050565b60006139b6602a8361412e565b91507f5468657265206973206e6f204e6f6b6169206f6e20746865207461726765742060008301527f7465727269746f72792e000000000000000000000000000000000000000000006020830152604082019050919050565b6000613a1c60268361412e565b91507f596f75722061726520746865206f776e6572206f66207468652074617267657460008301527f204e6f6b616900000000000000000000000000000000000000000000000000006020830152604082019050919050565b6000613a8260158361412e565b91507f706f736974696f6e206f7574206f6620626f61726400000000000000000000006000830152602082019050919050565b6000613ac2602c8361412e565b91507f5468657265206973206e6f204e6f6b6169206f6e207468652073656c6563746560008301527f64207465727269746f72792e00000000000000000000000000000000000000006020830152604082019050919050565b6000613b28602c8361412e565b91507f796f757220617265206e6f7420746865206f776e6572206f662074686520736560008301527f6c6563746564204e6f6b616900000000000000000000000000000000000000006020830152604082019050919050565b6000613b8e60208361412e565b91507f4f776e61626c653a2063616c6c6572206973206e6f7420746865206f776e65726000830152602082019050919050565b6000613bce602c8361412e565b91507f596f757220617265206e6f7420746865206f776e6572206f662074686520736560008301527f6c6563746564204e6f6b616900000000000000000000000000000000000000006020830152604082019050919050565b6101e082016000820151613c3e6000850182613cbc565b506020820151613c52610120850182613d82565b506040820151613c66610140850182613d82565b506060820151613c7a6101608501826138e9565b506080820151613c8e6101808501826138e9565b5060a0820151613ca26101a0850182613d82565b5060c0820151613cb66101c0850182613d82565b50505050565b61012082016000820151613cd36000850182613d82565b506020820151613ce66020850182613d82565b506040820151613cf96040850182613d82565b506060820151613d0c6060850182613d82565b506080820151613d1f6080850182613d82565b5060a0820151613d3260a0850182613d82565b5060c0820151613d4560c0850182613907565b5060e0820151613d5860e0850182613916565b50610100820151613d6d610100850182613916565b50505050565b613d7c81614276565b82525050565b613d8b816142a4565b82525050565b613d9a816142a4565b82525050565b6000602082019050613db560008301846138da565b92915050565b6000604082019050613dd060008301856138da565b613ddd6020830184613d91565b9392505050565b60006020820190508181036000830152613dfd81613943565b9050919050565b60006020820190508181036000830152613e1d816139a9565b9050919050565b60006020820190508181036000830152613e3d81613a0f565b9050919050565b60006020820190508181036000830152613e5d81613a75565b9050919050565b60006020820190508181036000830152613e7d81613ab5565b9050919050565b60006020820190508181036000830152613e9d81613b1b565b9050919050565b60006020820190508181036000830152613ebd81613b81565b9050919050565b60006020820190508181036000830152613edd81613bc1565b9050919050565b60006103c082019050613efa6000830185613c27565b613f086101e0830184613c27565b9392505050565b6000604082019050613f246000830185613d73565b613f316020830184613d73565b9392505050565b6000606082019050613f4d6000830186613d73565b613f5a6020830185613d73565b613f6760408301846138da565b949350505050565b600060a082019050613f846000830188613d73565b613f916020830187613d73565b613f9e6040830186613d73565b613fab6060830185613d73565b613fb860808301846138da565b9695505050505050565b6000606082019050613fd76000830186613d73565b613fe46020830185613d73565b613ff16040830184613d91565b949350505050565b600060808201905061400e6000830187613d73565b61401b6020830186613d73565b6140286040830185613d91565b61403560608301846138da565b95945050505050565b60006020820190506140536000830184613d91565b92915050565b600060408201905061406e6000830185613d91565b61407b60208301846138f8565b9392505050565b60006040820190506140976000830185613d91565b6140a46020830184613925565b9392505050565b60006040820190506140c06000830185613d91565b6140cd6020830184613934565b9392505050565b60006040820190506140e96000830185613d91565b6140f66020830184613d91565b9392505050565b6000604051905081810181811067ffffffffffffffff82111715614124576141236143fd565b5b8060405250919050565b600082825260208201905092915050565b600061414a82614276565b915061415583614276565b92508261ffff0382111561416c5761416b614370565b5b828201905092915050565b6000614182826142a4565b915061418d836142a4565b9250827fffffffffffffffffffffffffffffffffffffffffffffffffffffffffffffffff038211156141c2576141c1614370565b5b828201905092915050565b60006141d8826142a4565b91506141e3836142a4565b9250826141f3576141f261439f565b5b828204905092915050565b600061420982614276565b915061421483614276565b92508282101561422757614226614370565b5b828203905092915050565b600061423d82614284565b9050919050565b60008115159050919050565b600081905061425e8261442c565b919050565b600081905061427182614440565b919050565b600061ffff82169050919050565b600073ffffffffffffffffffffffffffffffffffffffff82169050919050565b6000819050919050565b60006142b982614250565b9050919050565b60006142cb82614263565b9050919050565b60006142dd826142a4565b9050919050565b60006142ef826142a4565b9050919050565b6000614301826142a4565b91507fffffffffffffffffffffffffffffffffffffffffffffffffffffffffffffffff82141561433457614333614370565b5b600182019050919050565b600061434a82614276565b915061435583614276565b9250826143655761436461439f565b5b828206905092915050565b7f4e487b7100000000000000000000000000000000000000000000000000000000600052601160045260246000fd5b7f4e487b7100000000000000000000000000000000000000000000000000000000600052601260045260246000fd5b7f4e487b7100000000000000000000000000000000000000000000000000000000600052602160045260246000fd5b7f4e487b7100000000000000000000000000000000000000000000000000000000600052604160045260246000fd5b6006811061443d5761443c6143ce565b5b50565b600a8110614451576144506143ce565b5b50565b61445d81614232565b811461446857600080fd5b50565b61447481614244565b811461447f57600080fd5b50565b6006811061448f57600080fd5b50565b6006811061449f57600080fd5b50565b600a81106144af57600080fd5b50565b6144bb81614276565b81146144c657600080fd5b50565b6144d2816142a4565b81146144dd57600080fd5b5056fea2646970667358221220f52c3a1a2c0e650730f100d10cc2afb1d8027fbf4afdf01e8cb2b54133d044ea64736f6c63430008000033",
  "immutableReferences": {},
  "source": "pragma solidity ^0.8.0;\r\n\r\nimport \"@openzeppelin/contracts/access/Ownable.sol\";\r\nimport \"./BlackHole.sol\";\r\nimport \"../tokens/Resource.sol\";\r\nimport \"../character/NokaiStats.sol\";\r\nimport \"../character/Nokai.sol\";\r\nimport \"./BattleLogic.sol\";\r\n\r\n/**\r\n * Handle game interaction (move, build, battle) direct api to use from Web. no roles\r\n * will use the manager of different functionalities and check that everything is allowed before execute an action\r\n */\r\n// SPDX-License-Identifier: MIT\r\ncontract GameManager is Ownable {\r\n\r\n    BlackHole private _blackHole;\r\n    Nokai private _nokai;\r\n    NokaiStats private _nokaiStats;\r\n    BattleLogic private _battleLogic;\r\n    Resource private _uxonium;\r\n    Resource private _darkMatter;\r\n    Resource private _plasmaEnergy;\r\n    Resource private _voidEssence;\r\n\r\n    constructor(address blackHole, address nokai, address nokaiStats, address battleLogic, address uxonium, address darkMatter, address plasmaEnergy, address voidEssence) {\r\n        _blackHole = BlackHole(blackHole);\r\n        _nokai = Nokai(nokai);\r\n        _nokaiStats = NokaiStats(nokaiStats);\r\n        _battleLogic = BattleLogic(battleLogic);\r\n        _uxonium = Resource(uxonium);\r\n        _darkMatter = Resource(darkMatter);\r\n        _plasmaEnergy = Resource(plasmaEnergy);\r\n        _voidEssence = Resource(voidEssence);\r\n    }\r\n\r\n    function migrateBattleLogic(address battleLogic) external onlyOwner {\r\n        _battleLogic = BattleLogic(battleLogic);\r\n    }\r\n\r\n    enum PositionTarget {\r\n        TOP_LEFT,\r\n        TOP_RIGHT,\r\n        RIGHT,\r\n        BOT_RIGHT,\r\n        BOT_LEFT,\r\n        LEFT\r\n    }\r\n\r\n    /**\r\n     * Nokai Actions\r\n     */\r\n    function move(uint16 fromX, uint16 fromY, PositionTarget target) external {\r\n        _verifyPos(fromX, fromY, _blackHole.maxX(), _blackHole.maxY());\r\n        uint256 nokaiId = _blackHole.nokaiAt(fromX, fromY);\r\n        require(nokaiId != 0, \"There is no Nokai on the selected territory.\");\r\n        require(_nokai.ownerOf(nokaiId) == msg.sender, \"Your are not the owner of the selected Nokai\");\r\n        (uint16 targetX, uint16 targetY) = _getPos(fromX, fromY, target);\r\n        _verifyPos(targetX, targetY, _blackHole.maxX(), _blackHole.maxY());\r\n        _nokaiStats.didAction(nokaiId, 1);\r\n        _blackHole.conquest(fromX, fromY, targetX, targetY, msg.sender);\r\n    }\r\n\r\n    function conquer(uint16 fromX, uint16 fromY, PositionTarget target) external returns (uint256, bool) {\r\n        _verifyPos(fromX, fromY, _blackHole.maxX(), _blackHole.maxY());\r\n        uint256 attackerId = _blackHole.nokaiAt(fromX, fromY);\r\n        require(attackerId != 0, \"There is no Nokai on the selected territory.\");\r\n        require(_nokai.ownerOf(attackerId) == msg.sender, \"Your are not the owner of the selected Nokai\");\r\n\r\n        (uint16 targetX, uint16 targetY) = _getPos(fromX, fromY, target);\r\n        _verifyPos(targetX, targetY, _blackHole.maxX(), _blackHole.maxY());\r\n\r\n        uint256 defenderId = _blackHole.nokaiAt(targetX, targetY);\r\n        require(attackerId != 0, \"There is no Nokai on the target territory.\");\r\n        require(_nokai.ownerOf(attackerId) != msg.sender, \"Your are the owner of the target Nokai\");\r\n\r\n        (uint256 turns, uint256 attackerHp, uint256 defenderHp) = _battleLogic.battle(_nokaiStats.profile(attackerId), _nokaiStats.profile(attackerId));\r\n\r\n        _nokaiStats.damage(attackerId, attackerHp);\r\n        _nokaiStats.damage(defenderId, defenderHp);\r\n\r\n        _nokaiStats.didAction(attackerId, 1);\r\n        if (defenderHp == 0) {\r\n            _blackHole.withdrawDeadNokai(targetX, targetY, defenderId);\r\n            _blackHole.conquest(fromX, fromY, targetX, targetY, msg.sender);\r\n        } else if (attackerHp == 0) {\r\n            _blackHole.withdrawDeadNokai(fromX, fromY, attackerId);\r\n        }\r\n        return (turns, defenderHp == 0);\r\n    }\r\n\r\n    function teleport(uint16 fromX, uint16 fromY, uint16 toX, uint16 toY) external {\r\n        _verifyPos(fromX, fromY, _blackHole.maxX(), _blackHole.maxY());\r\n        uint256 nokaiId = _blackHole.nokaiAt(fromX, fromY);\r\n        _verifyPos(toX, toY, _blackHole.maxX(), _blackHole.maxY());\r\n        require(nokaiId != 0, \"There is no Nokai on the selected territory.\");\r\n        require(_nokai.ownerOf(nokaiId) == msg.sender, \"your are not the owner of the selected Nokai\");\r\n        _nokaiStats.didAction(nokaiId, 5);\r\n        _blackHole.move(fromX, fromY, toX, toY, msg.sender);\r\n    }\r\n\r\n    function assignNokaiToBoard(uint256 nokaiId, uint16 x, uint16 y) external {\r\n        _verifyPos(x, y, _blackHole.maxX(), _blackHole.maxY());\r\n        _blackHole.assignNokai(x, y, nokaiId, msg.sender);\r\n    }\r\n\r\n    function _verifyPos(uint16 x, uint16 y, uint16 maxX, uint16 maxY) internal pure {\r\n        require(x >= 0, \"position out of board\");\r\n        require(x < maxX, \"position out of board\");\r\n        require(y >= 0, \"position out of board\");\r\n        require(y < maxY, \"position out of board\");\r\n    }\r\n\r\n    function _getPos(uint16 fromX, uint16 fromY, PositionTarget target) internal pure returns (uint16, uint16) {\r\n        if (target == PositionTarget.LEFT) {\r\n            return (fromX - 1, fromY);\r\n        } else if (target == PositionTarget.TOP_LEFT) {\r\n            return (fromX - (fromY % 2 == 0 ? 1 : 0), fromY - 1);\r\n        } else if (target == PositionTarget.TOP_RIGHT) {\r\n            return (fromX + (fromY % 2 == 0 ? 0 : 1), fromY - 1);\r\n        } else if (target == PositionTarget.RIGHT) {\r\n            return (fromX + 1, fromY);\r\n        } else if (target == PositionTarget.BOT_RIGHT) {\r\n            return (fromX + (fromY % 2 == 0 ? 0 : 1), fromY + 1);\r\n        } else {\r\n            return (fromX - (fromY % 2 == 0 ? 1 : 0), fromY + 1);\r\n        }\r\n    }\r\n\r\n    /**\r\n     * Slot' Resource Actions\r\n     */\r\n    function upgradeExtractor(uint16 x, uint16 y) external {\r\n        collectResources(x, y);\r\n        uint256 cost = _blackHole.extractorCostAt(x, y);\r\n        _darkMatter.consume(msg.sender, cost);\r\n        _plasmaEnergy.consume(msg.sender, cost / 2);\r\n        _blackHole.upgradeExtractor(x, y, msg.sender);\r\n    }\r\n\r\n    function collectResources(uint16 x, uint16 y) public {\r\n        (uint256 uxonium, uint256 darkMatter, uint256 plasmaEnergy, uint256 voidEssence) = _blackHole.completeExtraction(x, y, msg.sender);\r\n        _uxonium.collect(msg.sender, uxonium);\r\n        _darkMatter.collect(msg.sender, darkMatter);\r\n        _plasmaEnergy.collect(msg.sender, plasmaEnergy);\r\n        _voidEssence.collect(msg.sender, voidEssence);\r\n    }\r\n\r\n    struct Pos {\r\n        uint16 x;\r\n        uint16 y;\r\n    }\r\n\r\n    function collectResourcesBash(Pos[] calldata positions) public {\r\n        uint256 totalUxonium;\r\n        uint256 totalDarkMatter;\r\n        uint256 totalPlasmaEnergy;\r\n        uint256 totalVoidEssence;\r\n\r\n        for (uint256 i = 0; i < positions.length; i++) {\r\n            (uint256 uxonium, uint256 darkMatter, uint256 plasmaEnergy, uint256 voidEssence) = _blackHole.completeExtraction(positions[i].x, positions[i].y, msg.sender);\r\n            totalUxonium += uxonium;\r\n            totalDarkMatter += darkMatter;\r\n            totalPlasmaEnergy += plasmaEnergy;\r\n            totalVoidEssence += voidEssence;\r\n        }\r\n        _uxonium.collect(msg.sender, totalUxonium);\r\n        _darkMatter.collect(msg.sender, totalDarkMatter);\r\n        _plasmaEnergy.collect(msg.sender, totalPlasmaEnergy);\r\n        _voidEssence.collect(msg.sender, totalVoidEssence);\r\n    }\r\n}\r\n",
  "sourcePath": "C:\\Users\\10404\\Documents\\projects\\blackhole-evm\\contracts\\game\\GameManager.sol",
  "compiler": {
    "name": "solc",
    "version": "0.8.0+commit.c7dfd78e.Emscripten.clang"
  },
  "schemaVersion": "3.4.3",
  "updatedAt": "2021-12-19T20:28:06.517Z",
  "networkType": "ethereum",
  "devdoc": {
    "kind": "dev",
    "methods": {
      "owner()": {
        "details": "Returns the address of the current owner."
      },
      "renounceOwnership()": {
        "details": "Leaves the contract without owner. It will not be possible to call `onlyOwner` functions anymore. Can only be called by the current owner. NOTE: Renouncing ownership will leave the contract without an owner, thereby removing any functionality that is only available to the owner."
      },
      "transferOwnership(address)": {
        "details": "Transfers ownership of the contract to a new account (`newOwner`). Can only be called by the current owner."
      }
    },
    "version": 1
  },
  "userdoc": {
    "kind": "user",
    "methods": {
      "move(uint16,uint16,uint8)": {
        "notice": "Nokai Actions"
      },
      "upgradeExtractor(uint16,uint16)": {
        "notice": "Slot' Resource Actions"
      }
    },
    "notice": "Handle game interaction (move, build, battle) direct api to use from Web. no roles will use the manager of different functionalities and check that everything is allowed before execute an action",
    "version": 1
  }
}