{
  "contractName": "GameManager",
  "abi": [
    {
      "inputs": [
        {
          "internalType": "address",
          "name": "_blackHole",
          "type": "address"
        },
        {
          "internalType": "address",
          "name": "_nokai",
          "type": "address"
        },
        {
          "internalType": "address",
          "name": "_nokaiStats",
          "type": "address"
        },
        {
          "internalType": "address",
          "name": "_battleLogic",
          "type": "address"
        },
        {
          "internalType": "address",
          "name": "_darkEnergy",
          "type": "address"
        },
        {
          "internalType": "address",
          "name": "_darkMatter",
          "type": "address"
        },
        {
          "internalType": "address",
          "name": "_plasmaEnergy",
          "type": "address"
        },
        {
          "internalType": "address",
          "name": "_voidEssence",
          "type": "address"
        }
      ],
      "stateMutability": "nonpayable",
      "type": "constructor"
    },
    {
      "anonymous": false,
      "inputs": [
        {
          "indexed": true,
          "internalType": "address",
          "name": "previousOwner",
          "type": "address"
        },
        {
          "indexed": true,
          "internalType": "address",
          "name": "newOwner",
          "type": "address"
        }
      ],
      "name": "OwnershipTransferred",
      "type": "event"
    },
    {
      "inputs": [],
      "name": "owner",
      "outputs": [
        {
          "internalType": "address",
          "name": "",
          "type": "address"
        }
      ],
      "stateMutability": "view",
      "type": "function",
      "constant": true
    },
    {
      "inputs": [],
      "name": "renounceOwnership",
      "outputs": [],
      "stateMutability": "nonpayable",
      "type": "function"
    },
    {
      "inputs": [
        {
          "internalType": "address",
          "name": "newOwner",
          "type": "address"
        }
      ],
      "name": "transferOwnership",
      "outputs": [],
      "stateMutability": "nonpayable",
      "type": "function"
    },
    {
      "inputs": [
        {
          "internalType": "address",
          "name": "_battleLogic",
          "type": "address"
        }
      ],
      "name": "migrateBattleLogic",
      "outputs": [],
      "stateMutability": "nonpayable",
      "type": "function"
    },
    {
      "inputs": [
        {
          "internalType": "uint16",
          "name": "fromX",
          "type": "uint16"
        },
        {
          "internalType": "uint16",
          "name": "fromY",
          "type": "uint16"
        },
        {
          "internalType": "uint16",
          "name": "target",
          "type": "uint16"
        }
      ],
      "name": "move",
      "outputs": [],
      "stateMutability": "nonpayable",
      "type": "function"
    },
    {
      "inputs": [
        {
          "internalType": "uint16",
          "name": "fromX",
          "type": "uint16"
        },
        {
          "internalType": "uint16",
          "name": "fromY",
          "type": "uint16"
        },
        {
          "internalType": "uint16",
          "name": "target",
          "type": "uint16"
        }
      ],
      "name": "conquer",
      "outputs": [
        {
          "internalType": "uint256",
          "name": "",
          "type": "uint256"
        },
        {
          "internalType": "bool",
          "name": "",
          "type": "bool"
        }
      ],
      "stateMutability": "nonpayable",
      "type": "function"
    },
    {
      "inputs": [
        {
          "internalType": "uint16",
          "name": "fromX",
          "type": "uint16"
        },
        {
          "internalType": "uint16",
          "name": "fromY",
          "type": "uint16"
        },
        {
          "internalType": "uint16",
          "name": "toX",
          "type": "uint16"
        },
        {
          "internalType": "uint16",
          "name": "toY",
          "type": "uint16"
        }
      ],
      "name": "teleport",
      "outputs": [],
      "stateMutability": "nonpayable",
      "type": "function"
    },
    {
      "inputs": [
        {
          "internalType": "uint256",
          "name": "nokaiId",
          "type": "uint256"
        },
        {
          "internalType": "uint16",
          "name": "x",
          "type": "uint16"
        },
        {
          "internalType": "uint16",
          "name": "y",
          "type": "uint16"
        }
      ],
      "name": "assignNokaiToBoard",
      "outputs": [],
      "stateMutability": "nonpayable",
      "type": "function"
    },
    {
      "inputs": [
        {
          "internalType": "uint16",
          "name": "x",
          "type": "uint16"
        },
        {
          "internalType": "uint16",
          "name": "y",
          "type": "uint16"
        }
      ],
      "name": "upgradeExtractor",
      "outputs": [],
      "stateMutability": "nonpayable",
      "type": "function"
    },
    {
      "inputs": [
        {
          "internalType": "uint16",
          "name": "x",
          "type": "uint16"
        },
        {
          "internalType": "uint16",
          "name": "y",
          "type": "uint16"
        }
      ],
      "name": "collectResources",
      "outputs": [],
      "stateMutability": "nonpayable",
      "type": "function"
    }
  ],
  "bytecode": "0x60806040523480156200001157600080fd5b506040516200407338038062004073833981810160405281019062000037919062000362565b62000069620000546200027f640100000000026401000000009004565b62000287640100000000026401000000009004565b87600160006101000a81548173ffffffffffffffffffffffffffffffffffffffff021916908373ffffffffffffffffffffffffffffffffffffffff16021790555086600260006101000a81548173ffffffffffffffffffffffffffffffffffffffff021916908373ffffffffffffffffffffffffffffffffffffffff16021790555085600360006101000a81548173ffffffffffffffffffffffffffffffffffffffff021916908373ffffffffffffffffffffffffffffffffffffffff16021790555084600460006101000a81548173ffffffffffffffffffffffffffffffffffffffff021916908373ffffffffffffffffffffffffffffffffffffffff16021790555083600560006101000a81548173ffffffffffffffffffffffffffffffffffffffff021916908373ffffffffffffffffffffffffffffffffffffffff16021790555082600660006101000a81548173ffffffffffffffffffffffffffffffffffffffff021916908373ffffffffffffffffffffffffffffffffffffffff16021790555081600760006101000a81548173ffffffffffffffffffffffffffffffffffffffff021916908373ffffffffffffffffffffffffffffffffffffffff16021790555080600860006101000a81548173ffffffffffffffffffffffffffffffffffffffff021916908373ffffffffffffffffffffffffffffffffffffffff160217905550505050505050505062000473565b600033905090565b60008060009054906101000a900473ffffffffffffffffffffffffffffffffffffffff169050816000806101000a81548173ffffffffffffffffffffffffffffffffffffffff021916908373ffffffffffffffffffffffffffffffffffffffff1602179055508173ffffffffffffffffffffffffffffffffffffffff168173ffffffffffffffffffffffffffffffffffffffff167f8be0079c531659141344cd1fd0a4f28419497f9722a3daafe3b4186f6b6457e060405160405180910390a35050565b6000815190506200035c8162000459565b92915050565b600080600080600080600080610100898b0312156200038057600080fd5b6000620003908b828c016200034b565b9850506020620003a38b828c016200034b565b9750506040620003b68b828c016200034b565b9650506060620003c98b828c016200034b565b9550506080620003dc8b828c016200034b565b94505060a0620003ef8b828c016200034b565b93505060c0620004028b828c016200034b565b92505060e0620004158b828c016200034b565b9150509295985092959890939650565b6000620004328262000439565b9050919050565b600073ffffffffffffffffffffffffffffffffffffffff82169050919050565b620004648162000425565b81146200047057600080fd5b50565b613bf080620004836000396000f3fe608060405234801561001057600080fd5b50600436106100bb576000357c0100000000000000000000000000000000000000000000000000000000900480638da5cb5b116100835780638da5cb5b1461013a578063b66ab50714610158578063ef58e6d314610174578063f1c911ed146101a5578063f2fde38b146101c1576100bb565b806302f93099146100c05780630a3d6499146100dc57806334b0085f146100f857806345ae41ed14610114578063715018a614610130575b600080fd5b6100da60048036038101906100d59190612dd7565b6101dd565b005b6100f660048036038101906100f19190612e7c565b61029d565b005b610112600480360381019061010d9190612f93565b61062c565b005b61012e60048036038101906101299190612f07565b610862565b005b610138610f0f565b005b610142610f97565b60405161014f919061355a565b60405180910390f35b610172600480360381019061016d9190612eb8565b610fc0565b005b61018e60048036038101906101899190612eb8565b611680565b60405161019c929190613813565b60405180910390f35b6101bf60048036038101906101ba9190612e7c565b6124c4565b005b6101db60048036038101906101d69190612dd7565b6127af565b005b6101e56128a7565b73ffffffffffffffffffffffffffffffffffffffff16610203610f97565b73ffffffffffffffffffffffffffffffffffffffff1614610259576040517f08c379a00000000000000000000000000000000000000000000000000000000081526004016102509061365e565b60405180910390fd5b80600460006101000a81548173ffffffffffffffffffffffffffffffffffffffff021916908373ffffffffffffffffffffffffffffffffffffffff16021790555050565b600080600080600160009054906101000a900473ffffffffffffffffffffffffffffffffffffffff1673ffffffffffffffffffffffffffffffffffffffff166308be8abb8787336040518463ffffffff167c010000000000000000000000000000000000000000000000000000000002815260040161031e939291906136f2565b608060405180830381600087803b15801561033857600080fd5b505af115801561034c573d6000803e3d6000fd5b505050506040513d601f19601f820116820180604052508101906103709190613031565b9350935093509350600560009054906101000a900473ffffffffffffffffffffffffffffffffffffffff1673ffffffffffffffffffffffffffffffffffffffff16636b8357ac33866040518363ffffffff167c01000000000000000000000000000000000000000000000000000000000281526004016103f1929190613575565b600060405180830381600087803b15801561040b57600080fd5b505af115801561041f573d6000803e3d6000fd5b50505050600660009054906101000a900473ffffffffffffffffffffffffffffffffffffffff1673ffffffffffffffffffffffffffffffffffffffff16636b8357ac33856040518363ffffffff167c010000000000000000000000000000000000000000000000000000000002815260040161049c929190613575565b600060405180830381600087803b1580156104b657600080fd5b505af11580156104ca573d6000803e3d6000fd5b50505050600760009054906101000a900473ffffffffffffffffffffffffffffffffffffffff1673ffffffffffffffffffffffffffffffffffffffff16636b8357ac33846040518363ffffffff167c0100000000000000000000000000000000000000000000000000000000028152600401610547929190613575565b600060405180830381600087803b15801561056157600080fd5b505af1158015610575573d6000803e3d6000fd5b50505050600860009054906101000a900473ffffffffffffffffffffffffffffffffffffffff1673ffffffffffffffffffffffffffffffffffffffff16636b8357ac33836040518363ffffffff167c01000000000000000000000000000000000000000000000000000000000281526004016105f2929190613575565b600060405180830381600087803b15801561060c57600080fd5b505af1158015610620573d6000803e3d6000fd5b50505050505050505050565b6107ae8282600160009054906101000a900473ffffffffffffffffffffffffffffffffffffffff1673ffffffffffffffffffffffffffffffffffffffff166370d20d3e6040518163ffffffff167c010000000000000000000000000000000000000000000000000000000002815260040160206040518083038186803b1580156106b557600080fd5b505afa1580156106c9573d6000803e3d6000fd5b505050506040513d601f19601f820116820180604052508101906106ed9190612e53565b600160009054906101000a900473ffffffffffffffffffffffffffffffffffffffff1673ffffffffffffffffffffffffffffffffffffffff16638b04f6476040518163ffffffff167c010000000000000000000000000000000000000000000000000000000002815260040160206040518083038186803b15801561077157600080fd5b505afa158015610785573d6000803e3d6000fd5b505050506040513d601f19601f820116820180604052508101906107a99190612e53565b6128af565b600160009054906101000a900473ffffffffffffffffffffffffffffffffffffffff1673ffffffffffffffffffffffffffffffffffffffff1663cad86e51838386336040518563ffffffff167c010000000000000000000000000000000000000000000000000000000002815260040161082b94939291906137b3565b600060405180830381600087803b15801561084557600080fd5b505af1158015610859573d6000803e3d6000fd5b50505050505050565b6109e48484600160009054906101000a900473ffffffffffffffffffffffffffffffffffffffff1673ffffffffffffffffffffffffffffffffffffffff166370d20d3e6040518163ffffffff167c010000000000000000000000000000000000000000000000000000000002815260040160206040518083038186803b1580156108eb57600080fd5b505afa1580156108ff573d6000803e3d6000fd5b505050506040513d601f19601f820116820180604052508101906109239190612e53565b600160009054906101000a900473ffffffffffffffffffffffffffffffffffffffff1673ffffffffffffffffffffffffffffffffffffffff16638b04f6476040518163ffffffff167c010000000000000000000000000000000000000000000000000000000002815260040160206040518083038186803b1580156109a757600080fd5b505afa1580156109bb573d6000803e3d6000fd5b505050506040513d601f19601f820116820180604052508101906109df9190612e53565b6128af565b6000600160009054906101000a900473ffffffffffffffffffffffffffffffffffffffff1673ffffffffffffffffffffffffffffffffffffffff1663684fad9086866040518363ffffffff167c0100000000000000000000000000000000000000000000000000000000028152600401610a5f9291906136c9565b60206040518083038186803b158015610a7757600080fd5b505afa158015610a8b573d6000803e3d6000fd5b505050506040513d601f19601f82011682018060405250810190610aaf9190612f6a565b9050610c338383600160009054906101000a900473ffffffffffffffffffffffffffffffffffffffff1673ffffffffffffffffffffffffffffffffffffffff166370d20d3e6040518163ffffffff167c010000000000000000000000000000000000000000000000000000000002815260040160206040518083038186803b158015610b3a57600080fd5b505afa158015610b4e573d6000803e3d6000fd5b505050506040513d601f19601f82011682018060405250810190610b729190612e53565b600160009054906101000a900473ffffffffffffffffffffffffffffffffffffffff1673ffffffffffffffffffffffffffffffffffffffff16638b04f6476040518163ffffffff167c010000000000000000000000000000000000000000000000000000000002815260040160206040518083038186803b158015610bf657600080fd5b505afa158015610c0a573d6000803e3d6000fd5b505050506040513d601f19601f82011682018060405250810190610c2e9190612e53565b6128af565b6000811415610c77576040517f08c379a0000000000000000000000000000000000000000000000000000000008152600401610c6e9061361e565b60405180910390fd5b3373ffffffffffffffffffffffffffffffffffffffff16600260009054906101000a900473ffffffffffffffffffffffffffffffffffffffff1673ffffffffffffffffffffffffffffffffffffffff16636352211e836040518263ffffffff167c0100000000000000000000000000000000000000000000000000000000028152600401610d0591906137f8565b60206040518083038186803b158015610d1d57600080fd5b505afa158015610d31573d6000803e3d6000fd5b505050506040513d601f19601f82011682018060405250810190610d559190612e00565b73ffffffffffffffffffffffffffffffffffffffff1614610dab576040517f08c379a0000000000000000000000000000000000000000000000000000000008152600401610da29061363e565b60405180910390fd5b600360009054906101000a900473ffffffffffffffffffffffffffffffffffffffff1673ffffffffffffffffffffffffffffffffffffffff16630cac7f7c8260056040518363ffffffff167c0100000000000000000000000000000000000000000000000000000000028152600401610e25929190613865565b600060405180830381600087803b158015610e3f57600080fd5b505af1158015610e53573d6000803e3d6000fd5b50505050600160009054906101000a900473ffffffffffffffffffffffffffffffffffffffff1673ffffffffffffffffffffffffffffffffffffffff1663ff7ae6ee86868686336040518663ffffffff167c0100000000000000000000000000000000000000000000000000000000028152600401610ed6959493929190613729565b600060405180830381600087803b158015610ef057600080fd5b505af1158015610f04573d6000803e3d6000fd5b505050505050505050565b610f176128a7565b73ffffffffffffffffffffffffffffffffffffffff16610f35610f97565b73ffffffffffffffffffffffffffffffffffffffff1614610f8b576040517f08c379a0000000000000000000000000000000000000000000000000000000008152600401610f829061365e565b60405180910390fd5b610f9560006129d9565b565b60008060009054906101000a900473ffffffffffffffffffffffffffffffffffffffff16905090565b6111428383600160009054906101000a900473ffffffffffffffffffffffffffffffffffffffff1673ffffffffffffffffffffffffffffffffffffffff166370d20d3e6040518163ffffffff167c010000000000000000000000000000000000000000000000000000000002815260040160206040518083038186803b15801561104957600080fd5b505afa15801561105d573d6000803e3d6000fd5b505050506040513d601f19601f820116820180604052508101906110819190612e53565b600160009054906101000a900473ffffffffffffffffffffffffffffffffffffffff1673ffffffffffffffffffffffffffffffffffffffff16638b04f6476040518163ffffffff167c010000000000000000000000000000000000000000000000000000000002815260040160206040518083038186803b15801561110557600080fd5b505afa158015611119573d6000803e3d6000fd5b505050506040513d601f19601f8201168201806040525081019061113d9190612e53565b6128af565b6000600160009054906101000a900473ffffffffffffffffffffffffffffffffffffffff1673ffffffffffffffffffffffffffffffffffffffff1663684fad9085856040518363ffffffff167c01000000000000000000000000000000000000000000000000000000000281526004016111bd9291906136c9565b60206040518083038186803b1580156111d557600080fd5b505afa1580156111e9573d6000803e3d6000fd5b505050506040513d601f19601f8201168201806040525081019061120d9190612f6a565b90506000811415611253576040517f08c379a000000000000000000000000000000000000000000000000000000000815260040161124a9061361e565b60405180910390fd5b3373ffffffffffffffffffffffffffffffffffffffff16600260009054906101000a900473ffffffffffffffffffffffffffffffffffffffff1673ffffffffffffffffffffffffffffffffffffffff16636352211e836040518263ffffffff167c01000000000000000000000000000000000000000000000000000000000281526004016112e191906137f8565b60206040518083038186803b1580156112f957600080fd5b505afa15801561130d573d6000803e3d6000fd5b505050506040513d601f19601f820116820180604052508101906113319190612e00565b73ffffffffffffffffffffffffffffffffffffffff1614611387576040517f08c379a000000000000000000000000000000000000000000000000000000000815260040161137e9061367e565b60405180910390fd5b600080611395868686612a9d565b9150915061151b8282600160009054906101000a900473ffffffffffffffffffffffffffffffffffffffff1673ffffffffffffffffffffffffffffffffffffffff166370d20d3e6040518163ffffffff167c010000000000000000000000000000000000000000000000000000000002815260040160206040518083038186803b15801561142257600080fd5b505afa158015611436573d6000803e3d6000fd5b505050506040513d601f19601f8201168201806040525081019061145a9190612e53565b600160009054906101000a900473ffffffffffffffffffffffffffffffffffffffff1673ffffffffffffffffffffffffffffffffffffffff16638b04f6476040518163ffffffff167c010000000000000000000000000000000000000000000000000000000002815260040160206040518083038186803b1580156114de57600080fd5b505afa1580156114f2573d6000803e3d6000fd5b505050506040513d601f19601f820116820180604052508101906115169190612e53565b6128af565b600360009054906101000a900473ffffffffffffffffffffffffffffffffffffffff1673ffffffffffffffffffffffffffffffffffffffff16630cac7f7c8460016040518363ffffffff167c010000000000000000000000000000000000000000000000000000000002815260040161159592919061383c565b600060405180830381600087803b1580156115af57600080fd5b505af11580156115c3573d6000803e3d6000fd5b50505050600160009054906101000a900473ffffffffffffffffffffffffffffffffffffffff1673ffffffffffffffffffffffffffffffffffffffff166385fc694087878585336040518663ffffffff167c0100000000000000000000000000000000000000000000000000000000028152600401611646959493929190613729565b600060405180830381600087803b15801561166057600080fd5b505af1158015611674573d6000803e3d6000fd5b50505050505050505050565b6000806118058585600160009054906101000a900473ffffffffffffffffffffffffffffffffffffffff1673ffffffffffffffffffffffffffffffffffffffff166370d20d3e6040518163ffffffff167c010000000000000000000000000000000000000000000000000000000002815260040160206040518083038186803b15801561170c57600080fd5b505afa158015611720573d6000803e3d6000fd5b505050506040513d601f19601f820116820180604052508101906117449190612e53565b600160009054906101000a900473ffffffffffffffffffffffffffffffffffffffff1673ffffffffffffffffffffffffffffffffffffffff16638b04f6476040518163ffffffff167c010000000000000000000000000000000000000000000000000000000002815260040160206040518083038186803b1580156117c857600080fd5b505afa1580156117dc573d6000803e3d6000fd5b505050506040513d601f19601f820116820180604052508101906118009190612e53565b6128af565b6000600160009054906101000a900473ffffffffffffffffffffffffffffffffffffffff1673ffffffffffffffffffffffffffffffffffffffff1663684fad9087876040518363ffffffff167c01000000000000000000000000000000000000000000000000000000000281526004016118809291906136c9565b60206040518083038186803b15801561189857600080fd5b505afa1580156118ac573d6000803e3d6000fd5b505050506040513d601f19601f820116820180604052508101906118d09190612f6a565b90506000811415611916576040517f08c379a000000000000000000000000000000000000000000000000000000000815260040161190d9061361e565b60405180910390fd5b3373ffffffffffffffffffffffffffffffffffffffff16600260009054906101000a900473ffffffffffffffffffffffffffffffffffffffff1673ffffffffffffffffffffffffffffffffffffffff16636352211e836040518263ffffffff167c01000000000000000000000000000000000000000000000000000000000281526004016119a491906137f8565b60206040518083038186803b1580156119bc57600080fd5b505afa1580156119d0573d6000803e3d6000fd5b505050506040513d601f19601f820116820180604052508101906119f49190612e00565b73ffffffffffffffffffffffffffffffffffffffff1614611a4a576040517f08c379a0000000000000000000000000000000000000000000000000000000008152600401611a419061367e565b60405180910390fd5b600080611a58888888612a9d565b91509150611bde8282600160009054906101000a900473ffffffffffffffffffffffffffffffffffffffff1673ffffffffffffffffffffffffffffffffffffffff166370d20d3e6040518163ffffffff167c010000000000000000000000000000000000000000000000000000000002815260040160206040518083038186803b158015611ae557600080fd5b505afa158015611af9573d6000803e3d6000fd5b505050506040513d601f19601f82011682018060405250810190611b1d9190612e53565b600160009054906101000a900473ffffffffffffffffffffffffffffffffffffffff1673ffffffffffffffffffffffffffffffffffffffff16638b04f6476040518163ffffffff167c010000000000000000000000000000000000000000000000000000000002815260040160206040518083038186803b158015611ba157600080fd5b505afa158015611bb5573d6000803e3d6000fd5b505050506040513d601f19601f82011682018060405250810190611bd99190612e53565b6128af565b6000600160009054906101000a900473ffffffffffffffffffffffffffffffffffffffff1673ffffffffffffffffffffffffffffffffffffffff1663684fad9084846040518363ffffffff167c0100000000000000000000000000000000000000000000000000000000028152600401611c599291906136c9565b60206040518083038186803b158015611c7157600080fd5b505afa158015611c85573d6000803e3d6000fd5b505050506040513d601f19601f82011682018060405250810190611ca99190612f6a565b90506000841415611cef576040517f08c379a0000000000000000000000000000000000000000000000000000000008152600401611ce6906135be565b60405180910390fd5b3373ffffffffffffffffffffffffffffffffffffffff16600260009054906101000a900473ffffffffffffffffffffffffffffffffffffffff1673ffffffffffffffffffffffffffffffffffffffff16636352211e866040518263ffffffff167c0100000000000000000000000000000000000000000000000000000000028152600401611d7d91906137f8565b60206040518083038186803b158015611d9557600080fd5b505afa158015611da9573d6000803e3d6000fd5b505050506040513d601f19601f82011682018060405250810190611dcd9190612e00565b73ffffffffffffffffffffffffffffffffffffffff161415611e24576040517f08c379a0000000000000000000000000000000000000000000000000000000008152600401611e1b906135de565b60405180910390fd5b6000806000600460009054906101000a900473ffffffffffffffffffffffffffffffffffffffff1673ffffffffffffffffffffffffffffffffffffffff1663731095b6600360009054906101000a900473ffffffffffffffffffffffffffffffffffffffff1673ffffffffffffffffffffffffffffffffffffffff166372cd2b1a8a6040518263ffffffff167c0100000000000000000000000000000000000000000000000000000000028152600401611ede91906137f8565b6101e06040518083038186803b158015611ef757600080fd5b505afa158015611f0b573d6000803e3d6000fd5b505050506040513d601f19601f82011682018060405250810190611f2f9190612e29565b600360009054906101000a900473ffffffffffffffffffffffffffffffffffffffff1673ffffffffffffffffffffffffffffffffffffffff166372cd2b1a8b6040518263ffffffff167c0100000000000000000000000000000000000000000000000000000000028152600401611fa691906137f8565b6101e06040518083038186803b158015611fbf57600080fd5b505afa158015611fd3573d6000803e3d6000fd5b505050506040513d601f19601f82011682018060405250810190611ff79190612e29565b6040518363ffffffff167c010000000000000000000000000000000000000000000000000000000002815260040161203092919061369e565b60606040518083038186803b15801561204857600080fd5b505afa15801561205c573d6000803e3d6000fd5b505050506040513d601f19601f820116820180604052508101906120809190612fe2565b925092509250600360009054906101000a900473ffffffffffffffffffffffffffffffffffffffff1673ffffffffffffffffffffffffffffffffffffffff1663f3fc7b2488846040518363ffffffff167c01000000000000000000000000000000000000000000000000000000000281526004016120ff92919061388e565b600060405180830381600087803b15801561211957600080fd5b505af115801561212d573d6000803e3d6000fd5b50505050600360009054906101000a900473ffffffffffffffffffffffffffffffffffffffff1673ffffffffffffffffffffffffffffffffffffffff1663f3fc7b2485836040518363ffffffff167c01000000000000000000000000000000000000000000000000000000000281526004016121aa92919061388e565b600060405180830381600087803b1580156121c457600080fd5b505af11580156121d8573d6000803e3d6000fd5b50505050600360009054906101000a900473ffffffffffffffffffffffffffffffffffffffff1673ffffffffffffffffffffffffffffffffffffffff16630cac7f7c8860016040518363ffffffff167c010000000000000000000000000000000000000000000000000000000002815260040161225692919061383c565b600060405180830381600087803b15801561227057600080fd5b505af1158015612284573d6000803e3d6000fd5b5050505060008114156123f457600160009054906101000a900473ffffffffffffffffffffffffffffffffffffffff1673ffffffffffffffffffffffffffffffffffffffff16638e817b418787876040518463ffffffff167c010000000000000000000000000000000000000000000000000000000002815260040161230c9392919061377c565b600060405180830381600087803b15801561232657600080fd5b505af115801561233a573d6000803e3d6000fd5b50505050600160009054906101000a900473ffffffffffffffffffffffffffffffffffffffff1673ffffffffffffffffffffffffffffffffffffffff166385fc69408d8d8989336040518663ffffffff167c01000000000000000000000000000000000000000000000000000000000281526004016123bd959493929190613729565b600060405180830381600087803b1580156123d757600080fd5b505af11580156123eb573d6000803e3d6000fd5b505050506124ac565b60008214156124ab57600160009054906101000a900473ffffffffffffffffffffffffffffffffffffffff1673ffffffffffffffffffffffffffffffffffffffff16638e817b418d8d8a6040518463ffffffff167c01000000000000000000000000000000000000000000000000000000000281526004016124789392919061377c565b600060405180830381600087803b15801561249257600080fd5b505af11580156124a6573d6000803e3d6000fd5b505050505b5b82600082149850985050505050505050935093915050565b6124ce828261029d565b6000600160009054906101000a900473ffffffffffffffffffffffffffffffffffffffff1673ffffffffffffffffffffffffffffffffffffffff16639495155084846040518363ffffffff167c01000000000000000000000000000000000000000000000000000000000281526004016125499291906136c9565b60206040518083038186803b15801561256157600080fd5b505afa158015612575573d6000803e3d6000fd5b505050506040513d601f19601f820116820180604052508101906125999190612f6a565b9050600660009054906101000a900473ffffffffffffffffffffffffffffffffffffffff1673ffffffffffffffffffffffffffffffffffffffff1663224b5c7233836040518363ffffffff167c0100000000000000000000000000000000000000000000000000000000028152600401612614929190613575565b600060405180830381600087803b15801561262e57600080fd5b505af1158015612642573d6000803e3d6000fd5b50505050600760009054906101000a900473ffffffffffffffffffffffffffffffffffffffff1673ffffffffffffffffffffffffffffffffffffffff1663224b5c72336002846126929190613931565b6040518363ffffffff167c01000000000000000000000000000000000000000000000000000000000281526004016126cb929190613575565b600060405180830381600087803b1580156126e557600080fd5b505af11580156126f9573d6000803e3d6000fd5b50505050600160009054906101000a900473ffffffffffffffffffffffffffffffffffffffff1673ffffffffffffffffffffffffffffffffffffffff16634be4f4868484336040518463ffffffff167c0100000000000000000000000000000000000000000000000000000000028152600401612778939291906136f2565b600060405180830381600087803b15801561279257600080fd5b505af11580156127a6573d6000803e3d6000fd5b50505050505050565b6127b76128a7565b73ffffffffffffffffffffffffffffffffffffffff166127d5610f97565b73ffffffffffffffffffffffffffffffffffffffff161461282b576040517f08c379a00000000000000000000000000000000000000000000000000000000081526004016128229061365e565b60405180910390fd5b600073ffffffffffffffffffffffffffffffffffffffff168173ffffffffffffffffffffffffffffffffffffffff16141561289b576040517f08c379a00000000000000000000000000000000000000000000000000000000081526004016128929061359e565b60405180910390fd5b6128a4816129d9565b50565b600033905090565b60008461ffff1610156128f7576040517f08c379a00000000000000000000000000000000000000000000000000000000081526004016128ee906135fe565b60405180910390fd5b8161ffff168461ffff1610612941576040517f08c379a0000000000000000000000000000000000000000000000000000000008152600401612938906135fe565b60405180910390fd5b60008361ffff161015612989576040517f08c379a0000000000000000000000000000000000000000000000000000000008152600401612980906135fe565b60405180910390fd5b8061ffff168361ffff16106129d3576040517f08c379a00000000000000000000000000000000000000000000000000000000081526004016129ca906135fe565b60405180910390fd5b50505050565b60008060009054906101000a900473ffffffffffffffffffffffffffffffffffffffff169050816000806101000a81548173ffffffffffffffffffffffffffffffffffffffff021916908373ffffffffffffffffffffffffffffffffffffffff1602179055508173ffffffffffffffffffffffffffffffffffffffff168173ffffffffffffffffffffffffffffffffffffffff167f8be0079c531659141344cd1fd0a4f28419497f9722a3daafe3b4186f6b6457e060405160405180910390a35050565b60008060008361ffff161415612ac457600185612aba9190613962565b8491509150612b7f565b60018361ffff161415612ae85784600185612adf9190613962565b91509150612b7f565b60018361ffff161415612b1857600185612b0291906138f9565b600185612b0f9190613962565b91509150612b7f565b60018361ffff161415612b3c57600185612b3291906138f9565b8491509150612b7f565b60018361ffff161415612b6c57600185612b5691906138f9565b600185612b6391906138f9565b91509150612b7f565b84600185612b7a91906138f9565b915091505b935093915050565b600081359050612b9681613b3e565b92915050565b600081519050612bab81613b3e565b92915050565b600081519050612bc081613b55565b92915050565b600081519050612bd581613b6c565b92915050565b600081519050612bea81613b7c565b92915050565b60006101e08284031215612c0357600080fd5b612c0d60e06138b7565b90506000612c1d84828501612ca7565b600083015250610120612c3284828501612dc2565b602083015250610140612c4784828501612dc2565b604083015250610160612c5c84828501612bb1565b606083015250610180612c7184828501612bb1565b6080830152506101a0612c8684828501612dc2565b60a0830152506101c0612c9b84828501612dc2565b60c08301525092915050565b60006101208284031215612cba57600080fd5b612cc56101206138b7565b90506000612cd584828501612dc2565b6000830152506020612ce984828501612dc2565b6020830152506040612cfd84828501612dc2565b6040830152506060612d1184828501612dc2565b6060830152506080612d2584828501612dc2565b60808301525060a0612d3984828501612dc2565b60a08301525060c0612d4d84828501612bc6565b60c08301525060e0612d6184828501612bdb565b60e083015250610100612d7684828501612bdb565b6101008301525092915050565b600081359050612d9281613b8c565b92915050565b600081519050612da781613b8c565b92915050565b600081359050612dbc81613ba3565b92915050565b600081519050612dd181613ba3565b92915050565b600060208284031215612de957600080fd5b6000612df784828501612b87565b91505092915050565b600060208284031215612e1257600080fd5b6000612e2084828501612b9c565b91505092915050565b60006101e08284031215612e3c57600080fd5b6000612e4a84828501612bf0565b91505092915050565b600060208284031215612e6557600080fd5b6000612e7384828501612d98565b91505092915050565b60008060408385031215612e8f57600080fd5b6000612e9d85828601612d83565b9250506020612eae85828601612d83565b9150509250929050565b600080600060608486031215612ecd57600080fd5b6000612edb86828701612d83565b9350506020612eec86828701612d83565b9250506040612efd86828701612d83565b9150509250925092565b60008060008060808587031215612f1d57600080fd5b6000612f2b87828801612d83565b9450506020612f3c87828801612d83565b9350506040612f4d87828801612d83565b9250506060612f5e87828801612d83565b91505092959194509250565b600060208284031215612f7c57600080fd5b6000612f8a84828501612dc2565b91505092915050565b600080600060608486031215612fa857600080fd5b6000612fb686828701612dad565b9350506020612fc786828701612d83565b9250506040612fd886828701612d83565b9150509250925092565b600080600060608486031215612ff757600080fd5b600061300586828701612dc2565b935050602061301686828701612dc2565b925050604061302786828701612dc2565b9150509250925092565b6000806000806080858703121561304757600080fd5b600061305587828801612dc2565b945050602061306687828801612dc2565b935050604061307787828801612dc2565b925050606061308887828801612dc2565b91505092959194509250565b61309d81613996565b82525050565b6130ac816139a8565b82525050565b6130bb816139a8565b82525050565b6130ca81613a12565b82525050565b6130d981613a24565b82525050565b6130e881613a36565b82525050565b6130f781613a48565b82525050565b600061310a6026836138e8565b91507f4f776e61626c653a206e6577206f776e657220697320746865207a65726f206160008301527f64647265737300000000000000000000000000000000000000000000000000006020830152604082019050919050565b6000613170602a836138e8565b91507f5468657265206973206e6f204e6f6b6169206f6e20746865207461726765742060008301527f7465727269746f72792e000000000000000000000000000000000000000000006020830152604082019050919050565b60006131d66026836138e8565b91507f596f75722061726520746865206f776e6572206f66207468652074617267657460008301527f204e6f6b616900000000000000000000000000000000000000000000000000006020830152604082019050919050565b600061323c6015836138e8565b91507f706f736974696f6e206f7574206f6620626f61726400000000000000000000006000830152602082019050919050565b600061327c602c836138e8565b91507f5468657265206973206e6f204e6f6b6169206f6e207468652073656c6563746560008301527f64207465727269746f72792e00000000000000000000000000000000000000006020830152604082019050919050565b60006132e2602c836138e8565b91507f796f757220617265206e6f7420746865206f776e6572206f662074686520736560008301527f6c6563746564204e6f6b616900000000000000000000000000000000000000006020830152604082019050919050565b60006133486020836138e8565b91507f4f776e61626c653a2063616c6c6572206973206e6f7420746865206f776e65726000830152602082019050919050565b6000613388602c836138e8565b91507f596f757220617265206e6f7420746865206f776e6572206f662074686520736560008301527f6c6563746564204e6f6b616900000000000000000000000000000000000000006020830152604082019050919050565b6101e0820160008201516133f86000850182613476565b50602082015161340c61012085018261353c565b50604082015161342061014085018261353c565b5060608201516134346101608501826130a3565b5060808201516134486101808501826130a3565b5060a082015161345c6101a085018261353c565b5060c08201516134706101c085018261353c565b50505050565b6101208201600082015161348d600085018261353c565b5060208201516134a0602085018261353c565b5060408201516134b3604085018261353c565b5060608201516134c6606085018261353c565b5060808201516134d9608085018261353c565b5060a08201516134ec60a085018261353c565b5060c08201516134ff60c08501826130c1565b5060e082015161351260e08501826130d0565b506101008201516135276101008501826130d0565b50505050565b613536816139da565b82525050565b61354581613a08565b82525050565b61355481613a08565b82525050565b600060208201905061356f6000830184613094565b92915050565b600060408201905061358a6000830185613094565b613597602083018461354b565b9392505050565b600060208201905081810360008301526135b7816130fd565b9050919050565b600060208201905081810360008301526135d781613163565b9050919050565b600060208201905081810360008301526135f7816131c9565b9050919050565b600060208201905081810360008301526136178161322f565b9050919050565b600060208201905081810360008301526136378161326f565b9050919050565b60006020820190508181036000830152613657816132d5565b9050919050565b600060208201905081810360008301526136778161333b565b9050919050565b600060208201905081810360008301526136978161337b565b9050919050565b60006103c0820190506136b460008301856133e1565b6136c26101e08301846133e1565b9392505050565b60006040820190506136de600083018561352d565b6136eb602083018461352d565b9392505050565b6000606082019050613707600083018661352d565b613714602083018561352d565b6137216040830184613094565b949350505050565b600060a08201905061373e600083018861352d565b61374b602083018761352d565b613758604083018661352d565b613765606083018561352d565b6137726080830184613094565b9695505050505050565b6000606082019050613791600083018661352d565b61379e602083018561352d565b6137ab604083018461354b565b949350505050565b60006080820190506137c8600083018761352d565b6137d5602083018661352d565b6137e2604083018561354b565b6137ef6060830184613094565b95945050505050565b600060208201905061380d600083018461354b565b92915050565b6000604082019050613828600083018561354b565b61383560208301846130b2565b9392505050565b6000604082019050613851600083018561354b565b61385e60208301846130df565b9392505050565b600060408201905061387a600083018561354b565b61388760208301846130ee565b9392505050565b60006040820190506138a3600083018561354b565b6138b0602083018461354b565b9392505050565b6000604051905081810181811067ffffffffffffffff821117156138de576138dd613ae7565b5b8060405250919050565b600082825260208201905092915050565b6000613904826139da565b915061390f836139da565b92508261ffff0382111561392657613925613a5a565b5b828201905092915050565b600061393c82613a08565b915061394783613a08565b92508261395757613956613a89565b5b828204905092915050565b600061396d826139da565b9150613978836139da565b92508282101561398b5761398a613a5a565b5b828203905092915050565b60006139a1826139e8565b9050919050565b60008115159050919050565b60008190506139c282613b16565b919050565b60008190506139d582613b2a565b919050565b600061ffff82169050919050565b600073ffffffffffffffffffffffffffffffffffffffff82169050919050565b6000819050919050565b6000613a1d826139b4565b9050919050565b6000613a2f826139c7565b9050919050565b6000613a4182613a08565b9050919050565b6000613a5382613a08565b9050919050565b7f4e487b7100000000000000000000000000000000000000000000000000000000600052601160045260246000fd5b7f4e487b7100000000000000000000000000000000000000000000000000000000600052601260045260246000fd5b7f4e487b7100000000000000000000000000000000000000000000000000000000600052602160045260246000fd5b7f4e487b7100000000000000000000000000000000000000000000000000000000600052604160045260246000fd5b60068110613b2757613b26613ab8565b5b50565b600a8110613b3b57613b3a613ab8565b5b50565b613b4781613996565b8114613b5257600080fd5b50565b613b5e816139a8565b8114613b6957600080fd5b50565b60068110613b7957600080fd5b50565b600a8110613b8957600080fd5b50565b613b95816139da565b8114613ba057600080fd5b50565b613bac81613a08565b8114613bb757600080fd5b5056fea2646970667358221220729422ef42ade26921a69f3f3ab4ec7301c6c18dfee6d29eed005e4025331c0664736f6c63430008000033",
  "immutableReferences": {},
  "source": "pragma solidity ^0.8.0;\r\n\r\nimport \"@openzeppelin/contracts/access/Ownable.sol\";\r\nimport \"./BlackHole.sol\";\r\nimport \"../tokens/Resource.sol\";\r\nimport \"../character/NokaiStats.sol\";\r\nimport \"../character/Nokai.sol\";\r\nimport \"./BattleLogic.sol\";\r\n\r\n/**\r\n * Handle game interaction (move, build, battle) direct api to use from Web. no roles\r\n * will use the manager of different functionalities and check that everything is allowed before execute an action\r\n */\r\n// SPDX-License-Identifier: MIT\r\ncontract GameManager is Ownable {\r\n\r\n    BlackHole private blackHole;\r\n    Nokai private nokai;\r\n    NokaiStats private nokaiStats;\r\n    BattleLogic private battleLogic;\r\n    Resource private darkEnergy;\r\n    Resource private darkMatter;\r\n    Resource private plasmaEnergy;\r\n    Resource private voidEssence;\r\n\r\n    constructor(address _blackHole, address _nokai, address _nokaiStats, address _battleLogic, address _darkEnergy, address _darkMatter, address _plasmaEnergy, address _voidEssence) {\r\n        blackHole = BlackHole(_blackHole);\r\n        nokai = Nokai(_nokai);\r\n        nokaiStats = NokaiStats(_nokaiStats);\r\n        battleLogic = BattleLogic(_battleLogic);\r\n        darkEnergy = Resource(_darkEnergy);\r\n        darkMatter = Resource(_darkMatter);\r\n        plasmaEnergy = Resource(_plasmaEnergy);\r\n        voidEssence = Resource(_voidEssence);\r\n    }\r\n\r\n    function migrateBattleLogic(address _battleLogic) external onlyOwner {\r\n        battleLogic = BattleLogic(_battleLogic);\r\n    }\r\n\r\n    /**\r\n     * Nokai Actions\r\n     */\r\n    function move(uint16 fromX, uint16 fromY, uint16 target) external {\r\n        _verifyPos(fromX, fromY, blackHole.maxX(), blackHole.maxY());\r\n        uint256 nokaiId = blackHole.nokaiAt(fromX, fromY);\r\n        require(nokaiId != 0, \"There is no Nokai on the selected territory.\");\r\n        require(nokai.ownerOf(nokaiId) == msg.sender, \"Your are not the owner of the selected Nokai\");\r\n        (uint16 targetX, uint16 targetY) = _getPos(fromX, fromY, target);\r\n        _verifyPos(targetX, targetY, blackHole.maxX(), blackHole.maxY());\r\n        nokaiStats.didAction(nokaiId, 1);\r\n        blackHole.conquest(fromX, fromY, targetX, targetY, msg.sender);\r\n    }\r\n\r\n    function conquer(uint16 fromX, uint16 fromY, uint16 target) external returns (uint256, bool) {\r\n        _verifyPos(fromX, fromY, blackHole.maxX(), blackHole.maxY());\r\n        uint256 attackerId = blackHole.nokaiAt(fromX, fromY);\r\n        require(attackerId != 0, \"There is no Nokai on the selected territory.\");\r\n        require(nokai.ownerOf(attackerId) == msg.sender, \"Your are not the owner of the selected Nokai\");\r\n\r\n        (uint16 targetX, uint16 targetY) = _getPos(fromX, fromY, target);\r\n        _verifyPos(targetX, targetY, blackHole.maxX(), blackHole.maxY());\r\n\r\n        uint256 defenderId = blackHole.nokaiAt(targetX, targetY);\r\n        require(attackerId != 0, \"There is no Nokai on the target territory.\");\r\n        require(nokai.ownerOf(attackerId) != msg.sender, \"Your are the owner of the target Nokai\");\r\n\r\n        (uint256 turns, uint256 attackerHp, uint256 defenderHp) = battleLogic.battle(nokaiStats.profile(attackerId), nokaiStats.profile(attackerId));\r\n\r\n        nokaiStats.damage(attackerId, attackerHp);\r\n        nokaiStats.damage(defenderId, defenderHp);\r\n\r\n        nokaiStats.didAction(attackerId, 1);\r\n        if (defenderHp == 0) {\r\n            blackHole.withdrawDeadNokai(targetX, targetY, defenderId);\r\n            blackHole.conquest(fromX, fromY, targetX, targetY, msg.sender);\r\n        } else if (attackerHp == 0) {\r\n            blackHole.withdrawDeadNokai(fromX, fromY, attackerId);\r\n        }\r\n        return (turns, defenderHp == 0);\r\n    }\r\n\r\n    function teleport(uint16 fromX, uint16 fromY, uint16 toX, uint16 toY) external {\r\n        _verifyPos(fromX, fromY, blackHole.maxX(), blackHole.maxY());\r\n        uint256 nokaiId = blackHole.nokaiAt(fromX, fromY);\r\n        _verifyPos(toX, toY, blackHole.maxX(), blackHole.maxY());\r\n        require(nokaiId != 0, \"There is no Nokai on the selected territory.\");\r\n        require(nokai.ownerOf(nokaiId) == msg.sender, \"your are not the owner of the selected Nokai\");\r\n        nokaiStats.didAction(nokaiId, 5);\r\n        blackHole.move(fromX, fromY, toX, toY, msg.sender);\r\n    }\r\n\r\n    function assignNokaiToBoard(uint256 nokaiId, uint16 x, uint16 y) external {\r\n        _verifyPos(x, y, blackHole.maxX(), blackHole.maxY());\r\n        blackHole.assignNokai(x, y, nokaiId, msg.sender);\r\n    }\r\n\r\n    function _verifyPos(uint16 x, uint16 y, uint16 maxX, uint16 maxY) internal pure {\r\n        require(x >= 0, \"position out of board\");\r\n        require(x < maxX, \"position out of board\");\r\n        require(y >= 0, \"position out of board\");\r\n        require(y < maxY, \"position out of board\");\r\n    }\r\n\r\n    function _getPos(uint16 fromX, uint16 fromY, uint16 target) internal pure returns (uint16, uint16) {\r\n        if (target == 0) {\r\n            return (fromX - 1, fromY);\r\n        } else if (target == 1) {\r\n            return (fromX, fromY - 1);\r\n        } else if (target == 1) {\r\n            return (fromX + 1, fromY - 1);\r\n        } else if (target == 1) {\r\n            return (fromX + 1, fromY);\r\n        } else if (target == 1) {\r\n            return (fromX + 1, fromY + 1);\r\n        } else {\r\n            return (fromX, fromY + 1);\r\n        }\r\n    }\r\n\r\n    /**\r\n     * Slot' Resource Actions\r\n     */\r\n    function upgradeExtractor(uint16 x, uint16 y) external {\r\n        collectResources(x, y);\r\n        uint256 cost = blackHole.extractorCostAt(x, y);\r\n        darkMatter.consume(msg.sender, cost);\r\n        plasmaEnergy.consume(msg.sender, cost / 2);\r\n        blackHole.upgradeExtractor(x, y, msg.sender);\r\n    }\r\n\r\n    function collectResources(uint16 x, uint16 y) public {\r\n        (uint256 _darkEnergy, uint256 _darkMatter, uint256 _plasmaEnergy, uint256 _voidEssence) = blackHole.completeExtraction(x, y, msg.sender);\r\n        darkEnergy.collect(msg.sender, _darkEnergy);\r\n        darkMatter.collect(msg.sender, _darkMatter);\r\n        plasmaEnergy.collect(msg.sender, _plasmaEnergy);\r\n        voidEssence.collect(msg.sender, _voidEssence);\r\n    }\r\n}\r\n",
  "sourcePath": "C:\\Users\\KevinGeorgesAndres\\Documents\\projects\\perso\\blackhole-evm\\contracts\\game\\GameManager.sol",
  "compiler": {
    "name": "solc",
    "version": "0.8.0+commit.c7dfd78e.Emscripten.clang"
  },
  "schemaVersion": "3.4.3",
  "updatedAt": "2021-12-08T10:03:38.743Z",
  "networkType": "ethereum",
  "devdoc": {
    "kind": "dev",
    "methods": {
      "owner()": {
        "details": "Returns the address of the current owner."
      },
      "renounceOwnership()": {
        "details": "Leaves the contract without owner. It will not be possible to call `onlyOwner` functions anymore. Can only be called by the current owner. NOTE: Renouncing ownership will leave the contract without an owner, thereby removing any functionality that is only available to the owner."
      },
      "transferOwnership(address)": {
        "details": "Transfers ownership of the contract to a new account (`newOwner`). Can only be called by the current owner."
      }
    },
    "version": 1
  },
  "userdoc": {
    "kind": "user",
    "methods": {
      "move(uint16,uint16,uint16)": {
        "notice": "Nokai Actions"
      },
      "upgradeExtractor(uint16,uint16)": {
        "notice": "Slot' Resource Actions"
      }
    },
    "notice": "Handle game interaction (move, build, battle) direct api to use from Web. no roles will use the manager of different functionalities and check that everything is allowed before execute an action",
    "version": 1
  }
}