{
  "contractName": "GameManager",
  "abi": [
    {
      "inputs": [
        {
          "internalType": "address",
          "name": "blackHole",
          "type": "address"
        },
        {
          "internalType": "address",
          "name": "nokai",
          "type": "address"
        },
        {
          "internalType": "address",
          "name": "nokaiStats",
          "type": "address"
        },
        {
          "internalType": "address",
          "name": "battleLogic",
          "type": "address"
        },
        {
          "internalType": "address",
          "name": "uxonium",
          "type": "address"
        },
        {
          "internalType": "address",
          "name": "darkMatter",
          "type": "address"
        },
        {
          "internalType": "address",
          "name": "plasmaEnergy",
          "type": "address"
        },
        {
          "internalType": "address",
          "name": "voidEssence",
          "type": "address"
        }
      ],
      "stateMutability": "nonpayable",
      "type": "constructor"
    },
    {
      "anonymous": false,
      "inputs": [
        {
          "indexed": true,
          "internalType": "address",
          "name": "previousOwner",
          "type": "address"
        },
        {
          "indexed": true,
          "internalType": "address",
          "name": "newOwner",
          "type": "address"
        }
      ],
      "name": "OwnershipTransferred",
      "type": "event"
    },
    {
      "inputs": [],
      "name": "owner",
      "outputs": [
        {
          "internalType": "address",
          "name": "",
          "type": "address"
        }
      ],
      "stateMutability": "view",
      "type": "function",
      "constant": true
    },
    {
      "inputs": [],
      "name": "renounceOwnership",
      "outputs": [],
      "stateMutability": "nonpayable",
      "type": "function"
    },
    {
      "inputs": [
        {
          "internalType": "address",
          "name": "newOwner",
          "type": "address"
        }
      ],
      "name": "transferOwnership",
      "outputs": [],
      "stateMutability": "nonpayable",
      "type": "function"
    },
    {
      "inputs": [
        {
          "internalType": "address",
          "name": "battleLogic",
          "type": "address"
        }
      ],
      "name": "migrateBattleLogic",
      "outputs": [],
      "stateMutability": "nonpayable",
      "type": "function"
    },
    {
      "inputs": [
        {
          "internalType": "uint16",
          "name": "fromX",
          "type": "uint16"
        },
        {
          "internalType": "uint16",
          "name": "fromY",
          "type": "uint16"
        },
        {
          "internalType": "uint16",
          "name": "target",
          "type": "uint16"
        }
      ],
      "name": "move",
      "outputs": [],
      "stateMutability": "nonpayable",
      "type": "function"
    },
    {
      "inputs": [
        {
          "internalType": "uint16",
          "name": "fromX",
          "type": "uint16"
        },
        {
          "internalType": "uint16",
          "name": "fromY",
          "type": "uint16"
        },
        {
          "internalType": "uint16",
          "name": "target",
          "type": "uint16"
        }
      ],
      "name": "conquer",
      "outputs": [
        {
          "internalType": "uint256",
          "name": "",
          "type": "uint256"
        },
        {
          "internalType": "bool",
          "name": "",
          "type": "bool"
        }
      ],
      "stateMutability": "nonpayable",
      "type": "function"
    },
    {
      "inputs": [
        {
          "internalType": "uint16",
          "name": "fromX",
          "type": "uint16"
        },
        {
          "internalType": "uint16",
          "name": "fromY",
          "type": "uint16"
        },
        {
          "internalType": "uint16",
          "name": "toX",
          "type": "uint16"
        },
        {
          "internalType": "uint16",
          "name": "toY",
          "type": "uint16"
        }
      ],
      "name": "teleport",
      "outputs": [],
      "stateMutability": "nonpayable",
      "type": "function"
    },
    {
      "inputs": [
        {
          "internalType": "uint256",
          "name": "nokaiId",
          "type": "uint256"
        },
        {
          "internalType": "uint16",
          "name": "x",
          "type": "uint16"
        },
        {
          "internalType": "uint16",
          "name": "y",
          "type": "uint16"
        }
      ],
      "name": "assignNokaiToBoard",
      "outputs": [],
      "stateMutability": "nonpayable",
      "type": "function"
    },
    {
      "inputs": [
        {
          "internalType": "uint16",
          "name": "x",
          "type": "uint16"
        },
        {
          "internalType": "uint16",
          "name": "y",
          "type": "uint16"
        }
      ],
      "name": "upgradeExtractor",
      "outputs": [],
      "stateMutability": "nonpayable",
      "type": "function"
    },
    {
      "inputs": [
        {
          "internalType": "uint16",
          "name": "x",
          "type": "uint16"
        },
        {
          "internalType": "uint16",
          "name": "y",
          "type": "uint16"
        }
      ],
      "name": "collectResources",
      "outputs": [],
      "stateMutability": "nonpayable",
      "type": "function"
    },
    {
      "inputs": [
        {
          "components": [
            {
              "internalType": "uint16",
              "name": "x",
              "type": "uint16"
            },
            {
              "internalType": "uint16",
              "name": "y",
              "type": "uint16"
            }
          ],
          "internalType": "struct GameManager.Pos[]",
          "name": "positions",
          "type": "tuple[]"
        }
      ],
      "name": "collectResources",
      "outputs": [],
      "stateMutability": "nonpayable",
      "type": "function"
    }
  ],
  "bytecode": "0x60806040523480156200001157600080fd5b506040516200468438038062004684833981810160405281019062000037919062000362565b62000069620000546200027f640100000000026401000000009004565b62000287640100000000026401000000009004565b87600160006101000a81548173ffffffffffffffffffffffffffffffffffffffff021916908373ffffffffffffffffffffffffffffffffffffffff16021790555086600260006101000a81548173ffffffffffffffffffffffffffffffffffffffff021916908373ffffffffffffffffffffffffffffffffffffffff16021790555085600360006101000a81548173ffffffffffffffffffffffffffffffffffffffff021916908373ffffffffffffffffffffffffffffffffffffffff16021790555084600460006101000a81548173ffffffffffffffffffffffffffffffffffffffff021916908373ffffffffffffffffffffffffffffffffffffffff16021790555083600560006101000a81548173ffffffffffffffffffffffffffffffffffffffff021916908373ffffffffffffffffffffffffffffffffffffffff16021790555082600660006101000a81548173ffffffffffffffffffffffffffffffffffffffff021916908373ffffffffffffffffffffffffffffffffffffffff16021790555081600760006101000a81548173ffffffffffffffffffffffffffffffffffffffff021916908373ffffffffffffffffffffffffffffffffffffffff16021790555080600860006101000a81548173ffffffffffffffffffffffffffffffffffffffff021916908373ffffffffffffffffffffffffffffffffffffffff160217905550505050505050505062000473565b600033905090565b60008060009054906101000a900473ffffffffffffffffffffffffffffffffffffffff169050816000806101000a81548173ffffffffffffffffffffffffffffffffffffffff021916908373ffffffffffffffffffffffffffffffffffffffff1602179055508173ffffffffffffffffffffffffffffffffffffffff168173ffffffffffffffffffffffffffffffffffffffff167f8be0079c531659141344cd1fd0a4f28419497f9722a3daafe3b4186f6b6457e060405160405180910390a35050565b6000815190506200035c8162000459565b92915050565b600080600080600080600080610100898b0312156200038057600080fd5b6000620003908b828c016200034b565b9850506020620003a38b828c016200034b565b9750506040620003b68b828c016200034b565b9650506060620003c98b828c016200034b565b9550506080620003dc8b828c016200034b565b94505060a0620003ef8b828c016200034b565b93505060c0620004028b828c016200034b565b92505060e0620004158b828c016200034b565b9150509295985092959890939650565b6000620004328262000439565b9050919050565b600073ffffffffffffffffffffffffffffffffffffffff82169050919050565b620004648162000425565b81146200047057600080fd5b50565b61420180620004836000396000f3fe608060405234801561001057600080fd5b50600436106100c6576000357c0100000000000000000000000000000000000000000000000000000000900480638da5cb5b1161008e5780638da5cb5b14610145578063b66ab50714610163578063c97df2e91461017f578063ef58e6d31461019b578063f1c911ed146101cc578063f2fde38b146101e8576100c6565b806302f93099146100cb5780630a3d6499146100e757806334b0085f1461010357806345ae41ed1461011f578063715018a61461013b575b600080fd5b6100e560048036038101906100e091906132db565b610204565b005b61010160048036038101906100fc91906133ee565b6102c4565b005b61011d60048036038101906101189190613505565b610653565b005b61013960048036038101906101349190613479565b610889565b005b610143610f36565b005b61014d610fbe565b60405161015a9190613acc565b60405180910390f35b61017d6004803603810190610178919061342a565b610fe7565b005b6101996004803603810190610194919061332d565b6116a7565b005b6101b560048036038101906101b0919061342a565b611b3a565b6040516101c3929190613d85565b60405180910390f35b6101e660048036038101906101e191906133ee565b61297e565b005b61020260048036038101906101fd91906132db565b612c69565b005b61020c612d61565b73ffffffffffffffffffffffffffffffffffffffff1661022a610fbe565b73ffffffffffffffffffffffffffffffffffffffff1614610280576040517f08c379a000000000000000000000000000000000000000000000000000000000815260040161027790613bd0565b60405180910390fd5b80600460006101000a81548173ffffffffffffffffffffffffffffffffffffffff021916908373ffffffffffffffffffffffffffffffffffffffff16021790555050565b600080600080600160009054906101000a900473ffffffffffffffffffffffffffffffffffffffff1673ffffffffffffffffffffffffffffffffffffffff166308be8abb8787336040518463ffffffff167c010000000000000000000000000000000000000000000000000000000002815260040161034593929190613c64565b608060405180830381600087803b15801561035f57600080fd5b505af1158015610373573d6000803e3d6000fd5b505050506040513d601f19601f8201168201806040525081019061039791906135a3565b9350935093509350600560009054906101000a900473ffffffffffffffffffffffffffffffffffffffff1673ffffffffffffffffffffffffffffffffffffffff16636b8357ac33866040518363ffffffff167c0100000000000000000000000000000000000000000000000000000000028152600401610418929190613ae7565b600060405180830381600087803b15801561043257600080fd5b505af1158015610446573d6000803e3d6000fd5b50505050600660009054906101000a900473ffffffffffffffffffffffffffffffffffffffff1673ffffffffffffffffffffffffffffffffffffffff16636b8357ac33856040518363ffffffff167c01000000000000000000000000000000000000000000000000000000000281526004016104c3929190613ae7565b600060405180830381600087803b1580156104dd57600080fd5b505af11580156104f1573d6000803e3d6000fd5b50505050600760009054906101000a900473ffffffffffffffffffffffffffffffffffffffff1673ffffffffffffffffffffffffffffffffffffffff16636b8357ac33846040518363ffffffff167c010000000000000000000000000000000000000000000000000000000002815260040161056e929190613ae7565b600060405180830381600087803b15801561058857600080fd5b505af115801561059c573d6000803e3d6000fd5b50505050600860009054906101000a900473ffffffffffffffffffffffffffffffffffffffff1673ffffffffffffffffffffffffffffffffffffffff16636b8357ac33836040518363ffffffff167c0100000000000000000000000000000000000000000000000000000000028152600401610619929190613ae7565b600060405180830381600087803b15801561063357600080fd5b505af1158015610647573d6000803e3d6000fd5b50505050505050505050565b6107d58282600160009054906101000a900473ffffffffffffffffffffffffffffffffffffffff1673ffffffffffffffffffffffffffffffffffffffff166370d20d3e6040518163ffffffff167c010000000000000000000000000000000000000000000000000000000002815260040160206040518083038186803b1580156106dc57600080fd5b505afa1580156106f0573d6000803e3d6000fd5b505050506040513d601f19601f8201168201806040525081019061071491906133c5565b600160009054906101000a900473ffffffffffffffffffffffffffffffffffffffff1673ffffffffffffffffffffffffffffffffffffffff16638b04f6476040518163ffffffff167c010000000000000000000000000000000000000000000000000000000002815260040160206040518083038186803b15801561079857600080fd5b505afa1580156107ac573d6000803e3d6000fd5b505050506040513d601f19601f820116820180604052508101906107d091906133c5565b612d69565b600160009054906101000a900473ffffffffffffffffffffffffffffffffffffffff1673ffffffffffffffffffffffffffffffffffffffff1663cad86e51838386336040518563ffffffff167c01000000000000000000000000000000000000000000000000000000000281526004016108529493929190613d25565b600060405180830381600087803b15801561086c57600080fd5b505af1158015610880573d6000803e3d6000fd5b50505050505050565b610a0b8484600160009054906101000a900473ffffffffffffffffffffffffffffffffffffffff1673ffffffffffffffffffffffffffffffffffffffff166370d20d3e6040518163ffffffff167c010000000000000000000000000000000000000000000000000000000002815260040160206040518083038186803b15801561091257600080fd5b505afa158015610926573d6000803e3d6000fd5b505050506040513d601f19601f8201168201806040525081019061094a91906133c5565b600160009054906101000a900473ffffffffffffffffffffffffffffffffffffffff1673ffffffffffffffffffffffffffffffffffffffff16638b04f6476040518163ffffffff167c010000000000000000000000000000000000000000000000000000000002815260040160206040518083038186803b1580156109ce57600080fd5b505afa1580156109e2573d6000803e3d6000fd5b505050506040513d601f19601f82011682018060405250810190610a0691906133c5565b612d69565b6000600160009054906101000a900473ffffffffffffffffffffffffffffffffffffffff1673ffffffffffffffffffffffffffffffffffffffff1663684fad9086866040518363ffffffff167c0100000000000000000000000000000000000000000000000000000000028152600401610a86929190613c3b565b60206040518083038186803b158015610a9e57600080fd5b505afa158015610ab2573d6000803e3d6000fd5b505050506040513d601f19601f82011682018060405250810190610ad691906134dc565b9050610c5a8383600160009054906101000a900473ffffffffffffffffffffffffffffffffffffffff1673ffffffffffffffffffffffffffffffffffffffff166370d20d3e6040518163ffffffff167c010000000000000000000000000000000000000000000000000000000002815260040160206040518083038186803b158015610b6157600080fd5b505afa158015610b75573d6000803e3d6000fd5b505050506040513d601f19601f82011682018060405250810190610b9991906133c5565b600160009054906101000a900473ffffffffffffffffffffffffffffffffffffffff1673ffffffffffffffffffffffffffffffffffffffff16638b04f6476040518163ffffffff167c010000000000000000000000000000000000000000000000000000000002815260040160206040518083038186803b158015610c1d57600080fd5b505afa158015610c31573d6000803e3d6000fd5b505050506040513d601f19601f82011682018060405250810190610c5591906133c5565b612d69565b6000811415610c9e576040517f08c379a0000000000000000000000000000000000000000000000000000000008152600401610c9590613b90565b60405180910390fd5b3373ffffffffffffffffffffffffffffffffffffffff16600260009054906101000a900473ffffffffffffffffffffffffffffffffffffffff1673ffffffffffffffffffffffffffffffffffffffff16636352211e836040518263ffffffff167c0100000000000000000000000000000000000000000000000000000000028152600401610d2c9190613d6a565b60206040518083038186803b158015610d4457600080fd5b505afa158015610d58573d6000803e3d6000fd5b505050506040513d601f19601f82011682018060405250810190610d7c9190613304565b73ffffffffffffffffffffffffffffffffffffffff1614610dd2576040517f08c379a0000000000000000000000000000000000000000000000000000000008152600401610dc990613bb0565b60405180910390fd5b600360009054906101000a900473ffffffffffffffffffffffffffffffffffffffff1673ffffffffffffffffffffffffffffffffffffffff16630cac7f7c8260056040518363ffffffff167c0100000000000000000000000000000000000000000000000000000000028152600401610e4c929190613dd7565b600060405180830381600087803b158015610e6657600080fd5b505af1158015610e7a573d6000803e3d6000fd5b50505050600160009054906101000a900473ffffffffffffffffffffffffffffffffffffffff1673ffffffffffffffffffffffffffffffffffffffff1663ff7ae6ee86868686336040518663ffffffff167c0100000000000000000000000000000000000000000000000000000000028152600401610efd959493929190613c9b565b600060405180830381600087803b158015610f1757600080fd5b505af1158015610f2b573d6000803e3d6000fd5b505050505050505050565b610f3e612d61565b73ffffffffffffffffffffffffffffffffffffffff16610f5c610fbe565b73ffffffffffffffffffffffffffffffffffffffff1614610fb2576040517f08c379a0000000000000000000000000000000000000000000000000000000008152600401610fa990613bd0565b60405180910390fd5b610fbc6000612e93565b565b60008060009054906101000a900473ffffffffffffffffffffffffffffffffffffffff16905090565b6111698383600160009054906101000a900473ffffffffffffffffffffffffffffffffffffffff1673ffffffffffffffffffffffffffffffffffffffff166370d20d3e6040518163ffffffff167c010000000000000000000000000000000000000000000000000000000002815260040160206040518083038186803b15801561107057600080fd5b505afa158015611084573d6000803e3d6000fd5b505050506040513d601f19601f820116820180604052508101906110a891906133c5565b600160009054906101000a900473ffffffffffffffffffffffffffffffffffffffff1673ffffffffffffffffffffffffffffffffffffffff16638b04f6476040518163ffffffff167c010000000000000000000000000000000000000000000000000000000002815260040160206040518083038186803b15801561112c57600080fd5b505afa158015611140573d6000803e3d6000fd5b505050506040513d601f19601f8201168201806040525081019061116491906133c5565b612d69565b6000600160009054906101000a900473ffffffffffffffffffffffffffffffffffffffff1673ffffffffffffffffffffffffffffffffffffffff1663684fad9085856040518363ffffffff167c01000000000000000000000000000000000000000000000000000000000281526004016111e4929190613c3b565b60206040518083038186803b1580156111fc57600080fd5b505afa158015611210573d6000803e3d6000fd5b505050506040513d601f19601f8201168201806040525081019061123491906134dc565b9050600081141561127a576040517f08c379a000000000000000000000000000000000000000000000000000000000815260040161127190613b90565b60405180910390fd5b3373ffffffffffffffffffffffffffffffffffffffff16600260009054906101000a900473ffffffffffffffffffffffffffffffffffffffff1673ffffffffffffffffffffffffffffffffffffffff16636352211e836040518263ffffffff167c01000000000000000000000000000000000000000000000000000000000281526004016113089190613d6a565b60206040518083038186803b15801561132057600080fd5b505afa158015611334573d6000803e3d6000fd5b505050506040513d601f19601f820116820180604052508101906113589190613304565b73ffffffffffffffffffffffffffffffffffffffff16146113ae576040517f08c379a00000000000000000000000000000000000000000000000000000000081526004016113a590613bf0565b60405180910390fd5b6000806113bc868686612f57565b915091506115428282600160009054906101000a900473ffffffffffffffffffffffffffffffffffffffff1673ffffffffffffffffffffffffffffffffffffffff166370d20d3e6040518163ffffffff167c010000000000000000000000000000000000000000000000000000000002815260040160206040518083038186803b15801561144957600080fd5b505afa15801561145d573d6000803e3d6000fd5b505050506040513d601f19601f8201168201806040525081019061148191906133c5565b600160009054906101000a900473ffffffffffffffffffffffffffffffffffffffff1673ffffffffffffffffffffffffffffffffffffffff16638b04f6476040518163ffffffff167c010000000000000000000000000000000000000000000000000000000002815260040160206040518083038186803b15801561150557600080fd5b505afa158015611519573d6000803e3d6000fd5b505050506040513d601f19601f8201168201806040525081019061153d91906133c5565b612d69565b600360009054906101000a900473ffffffffffffffffffffffffffffffffffffffff1673ffffffffffffffffffffffffffffffffffffffff16630cac7f7c8460016040518363ffffffff167c01000000000000000000000000000000000000000000000000000000000281526004016115bc929190613dae565b600060405180830381600087803b1580156115d657600080fd5b505af11580156115ea573d6000803e3d6000fd5b50505050600160009054906101000a900473ffffffffffffffffffffffffffffffffffffffff1673ffffffffffffffffffffffffffffffffffffffff166385fc694087878585336040518663ffffffff167c010000000000000000000000000000000000000000000000000000000002815260040161166d959493929190613c9b565b600060405180830381600087803b15801561168757600080fd5b505af115801561169b573d6000803e3d6000fd5b50505050505050505050565b60008060008060005b8686905081101561188557600080600080600160009054906101000a900473ffffffffffffffffffffffffffffffffffffffff1673ffffffffffffffffffffffffffffffffffffffff166308be8abb8c8c88818110611738577f4e487b7100000000000000000000000000000000000000000000000000000000600052603260045260246000fd5b9050604002016000016020810190611750919061339c565b8d8d89818110611789577f4e487b7100000000000000000000000000000000000000000000000000000000600052603260045260246000fd5b90506040020160200160208101906117a1919061339c565b336040518463ffffffff167c01000000000000000000000000000000000000000000000000000000000281526004016117dc93929190613c64565b608060405180830381600087803b1580156117f657600080fd5b505af115801561180a573d6000803e3d6000fd5b505050506040513d601f19601f8201168201806040525081019061182e91906135a3565b935093509350935083896118429190613ea3565b985082886118509190613ea3565b9750818761185e9190613ea3565b9650808661186c9190613ea3565b955050505050808061187d90614022565b9150506116b0565b50600560009054906101000a900473ffffffffffffffffffffffffffffffffffffffff1673ffffffffffffffffffffffffffffffffffffffff16636b8357ac33866040518363ffffffff167c01000000000000000000000000000000000000000000000000000000000281526004016118ff929190613ae7565b600060405180830381600087803b15801561191957600080fd5b505af115801561192d573d6000803e3d6000fd5b50505050600660009054906101000a900473ffffffffffffffffffffffffffffffffffffffff1673ffffffffffffffffffffffffffffffffffffffff16636b8357ac33856040518363ffffffff167c01000000000000000000000000000000000000000000000000000000000281526004016119aa929190613ae7565b600060405180830381600087803b1580156119c457600080fd5b505af11580156119d8573d6000803e3d6000fd5b50505050600760009054906101000a900473ffffffffffffffffffffffffffffffffffffffff1673ffffffffffffffffffffffffffffffffffffffff16636b8357ac33846040518363ffffffff167c0100000000000000000000000000000000000000000000000000000000028152600401611a55929190613ae7565b600060405180830381600087803b158015611a6f57600080fd5b505af1158015611a83573d6000803e3d6000fd5b50505050600860009054906101000a900473ffffffffffffffffffffffffffffffffffffffff1673ffffffffffffffffffffffffffffffffffffffff16636b8357ac33836040518363ffffffff167c0100000000000000000000000000000000000000000000000000000000028152600401611b00929190613ae7565b600060405180830381600087803b158015611b1a57600080fd5b505af1158015611b2e573d6000803e3d6000fd5b50505050505050505050565b600080611cbf8585600160009054906101000a900473ffffffffffffffffffffffffffffffffffffffff1673ffffffffffffffffffffffffffffffffffffffff166370d20d3e6040518163ffffffff167c010000000000000000000000000000000000000000000000000000000002815260040160206040518083038186803b158015611bc657600080fd5b505afa158015611bda573d6000803e3d6000fd5b505050506040513d601f19601f82011682018060405250810190611bfe91906133c5565b600160009054906101000a900473ffffffffffffffffffffffffffffffffffffffff1673ffffffffffffffffffffffffffffffffffffffff16638b04f6476040518163ffffffff167c010000000000000000000000000000000000000000000000000000000002815260040160206040518083038186803b158015611c8257600080fd5b505afa158015611c96573d6000803e3d6000fd5b505050506040513d601f19601f82011682018060405250810190611cba91906133c5565b612d69565b6000600160009054906101000a900473ffffffffffffffffffffffffffffffffffffffff1673ffffffffffffffffffffffffffffffffffffffff1663684fad9087876040518363ffffffff167c0100000000000000000000000000000000000000000000000000000000028152600401611d3a929190613c3b565b60206040518083038186803b158015611d5257600080fd5b505afa158015611d66573d6000803e3d6000fd5b505050506040513d601f19601f82011682018060405250810190611d8a91906134dc565b90506000811415611dd0576040517f08c379a0000000000000000000000000000000000000000000000000000000008152600401611dc790613b90565b60405180910390fd5b3373ffffffffffffffffffffffffffffffffffffffff16600260009054906101000a900473ffffffffffffffffffffffffffffffffffffffff1673ffffffffffffffffffffffffffffffffffffffff16636352211e836040518263ffffffff167c0100000000000000000000000000000000000000000000000000000000028152600401611e5e9190613d6a565b60206040518083038186803b158015611e7657600080fd5b505afa158015611e8a573d6000803e3d6000fd5b505050506040513d601f19601f82011682018060405250810190611eae9190613304565b73ffffffffffffffffffffffffffffffffffffffff1614611f04576040517f08c379a0000000000000000000000000000000000000000000000000000000008152600401611efb90613bf0565b60405180910390fd5b600080611f12888888612f57565b915091506120988282600160009054906101000a900473ffffffffffffffffffffffffffffffffffffffff1673ffffffffffffffffffffffffffffffffffffffff166370d20d3e6040518163ffffffff167c010000000000000000000000000000000000000000000000000000000002815260040160206040518083038186803b158015611f9f57600080fd5b505afa158015611fb3573d6000803e3d6000fd5b505050506040513d601f19601f82011682018060405250810190611fd791906133c5565b600160009054906101000a900473ffffffffffffffffffffffffffffffffffffffff1673ffffffffffffffffffffffffffffffffffffffff16638b04f6476040518163ffffffff167c010000000000000000000000000000000000000000000000000000000002815260040160206040518083038186803b15801561205b57600080fd5b505afa15801561206f573d6000803e3d6000fd5b505050506040513d601f19601f8201168201806040525081019061209391906133c5565b612d69565b6000600160009054906101000a900473ffffffffffffffffffffffffffffffffffffffff1673ffffffffffffffffffffffffffffffffffffffff1663684fad9084846040518363ffffffff167c0100000000000000000000000000000000000000000000000000000000028152600401612113929190613c3b565b60206040518083038186803b15801561212b57600080fd5b505afa15801561213f573d6000803e3d6000fd5b505050506040513d601f19601f8201168201806040525081019061216391906134dc565b905060008414156121a9576040517f08c379a00000000000000000000000000000000000000000000000000000000081526004016121a090613b30565b60405180910390fd5b3373ffffffffffffffffffffffffffffffffffffffff16600260009054906101000a900473ffffffffffffffffffffffffffffffffffffffff1673ffffffffffffffffffffffffffffffffffffffff16636352211e866040518263ffffffff167c01000000000000000000000000000000000000000000000000000000000281526004016122379190613d6a565b60206040518083038186803b15801561224f57600080fd5b505afa158015612263573d6000803e3d6000fd5b505050506040513d601f19601f820116820180604052508101906122879190613304565b73ffffffffffffffffffffffffffffffffffffffff1614156122de576040517f08c379a00000000000000000000000000000000000000000000000000000000081526004016122d590613b50565b60405180910390fd5b6000806000600460009054906101000a900473ffffffffffffffffffffffffffffffffffffffff1673ffffffffffffffffffffffffffffffffffffffff1663731095b6600360009054906101000a900473ffffffffffffffffffffffffffffffffffffffff1673ffffffffffffffffffffffffffffffffffffffff166372cd2b1a8a6040518263ffffffff167c01000000000000000000000000000000000000000000000000000000000281526004016123989190613d6a565b6101e06040518083038186803b1580156123b157600080fd5b505afa1580156123c5573d6000803e3d6000fd5b505050506040513d601f19601f820116820180604052508101906123e99190613372565b600360009054906101000a900473ffffffffffffffffffffffffffffffffffffffff1673ffffffffffffffffffffffffffffffffffffffff166372cd2b1a8b6040518263ffffffff167c01000000000000000000000000000000000000000000000000000000000281526004016124609190613d6a565b6101e06040518083038186803b15801561247957600080fd5b505afa15801561248d573d6000803e3d6000fd5b505050506040513d601f19601f820116820180604052508101906124b19190613372565b6040518363ffffffff167c01000000000000000000000000000000000000000000000000000000000281526004016124ea929190613c10565b60606040518083038186803b15801561250257600080fd5b505afa158015612516573d6000803e3d6000fd5b505050506040513d601f19601f8201168201806040525081019061253a9190613554565b925092509250600360009054906101000a900473ffffffffffffffffffffffffffffffffffffffff1673ffffffffffffffffffffffffffffffffffffffff1663f3fc7b2488846040518363ffffffff167c01000000000000000000000000000000000000000000000000000000000281526004016125b9929190613e00565b600060405180830381600087803b1580156125d357600080fd5b505af11580156125e7573d6000803e3d6000fd5b50505050600360009054906101000a900473ffffffffffffffffffffffffffffffffffffffff1673ffffffffffffffffffffffffffffffffffffffff1663f3fc7b2485836040518363ffffffff167c0100000000000000000000000000000000000000000000000000000000028152600401612664929190613e00565b600060405180830381600087803b15801561267e57600080fd5b505af1158015612692573d6000803e3d6000fd5b50505050600360009054906101000a900473ffffffffffffffffffffffffffffffffffffffff1673ffffffffffffffffffffffffffffffffffffffff16630cac7f7c8860016040518363ffffffff167c0100000000000000000000000000000000000000000000000000000000028152600401612710929190613dae565b600060405180830381600087803b15801561272a57600080fd5b505af115801561273e573d6000803e3d6000fd5b5050505060008114156128ae57600160009054906101000a900473ffffffffffffffffffffffffffffffffffffffff1673ffffffffffffffffffffffffffffffffffffffff16638e817b418787876040518463ffffffff167c01000000000000000000000000000000000000000000000000000000000281526004016127c693929190613cee565b600060405180830381600087803b1580156127e057600080fd5b505af11580156127f4573d6000803e3d6000fd5b50505050600160009054906101000a900473ffffffffffffffffffffffffffffffffffffffff1673ffffffffffffffffffffffffffffffffffffffff166385fc69408d8d8989336040518663ffffffff167c0100000000000000000000000000000000000000000000000000000000028152600401612877959493929190613c9b565b600060405180830381600087803b15801561289157600080fd5b505af11580156128a5573d6000803e3d6000fd5b50505050612966565b600082141561296557600160009054906101000a900473ffffffffffffffffffffffffffffffffffffffff1673ffffffffffffffffffffffffffffffffffffffff16638e817b418d8d8a6040518463ffffffff167c010000000000000000000000000000000000000000000000000000000002815260040161293293929190613cee565b600060405180830381600087803b15801561294c57600080fd5b505af1158015612960573d6000803e3d6000fd5b505050505b5b82600082149850985050505050505050935093915050565b61298882826102c4565b6000600160009054906101000a900473ffffffffffffffffffffffffffffffffffffffff1673ffffffffffffffffffffffffffffffffffffffff16639495155084846040518363ffffffff167c0100000000000000000000000000000000000000000000000000000000028152600401612a03929190613c3b565b60206040518083038186803b158015612a1b57600080fd5b505afa158015612a2f573d6000803e3d6000fd5b505050506040513d601f19601f82011682018060405250810190612a5391906134dc565b9050600660009054906101000a900473ffffffffffffffffffffffffffffffffffffffff1673ffffffffffffffffffffffffffffffffffffffff1663224b5c7233836040518363ffffffff167c0100000000000000000000000000000000000000000000000000000000028152600401612ace929190613ae7565b600060405180830381600087803b158015612ae857600080fd5b505af1158015612afc573d6000803e3d6000fd5b50505050600760009054906101000a900473ffffffffffffffffffffffffffffffffffffffff1673ffffffffffffffffffffffffffffffffffffffff1663224b5c7233600284612b4c9190613ef9565b6040518363ffffffff167c0100000000000000000000000000000000000000000000000000000000028152600401612b85929190613ae7565b600060405180830381600087803b158015612b9f57600080fd5b505af1158015612bb3573d6000803e3d6000fd5b50505050600160009054906101000a900473ffffffffffffffffffffffffffffffffffffffff1673ffffffffffffffffffffffffffffffffffffffff16634be4f4868484336040518463ffffffff167c0100000000000000000000000000000000000000000000000000000000028152600401612c3293929190613c64565b600060405180830381600087803b158015612c4c57600080fd5b505af1158015612c60573d6000803e3d6000fd5b50505050505050565b612c71612d61565b73ffffffffffffffffffffffffffffffffffffffff16612c8f610fbe565b73ffffffffffffffffffffffffffffffffffffffff1614612ce5576040517f08c379a0000000000000000000000000000000000000000000000000000000008152600401612cdc90613bd0565b60405180910390fd5b600073ffffffffffffffffffffffffffffffffffffffff168173ffffffffffffffffffffffffffffffffffffffff161415612d55576040517f08c379a0000000000000000000000000000000000000000000000000000000008152600401612d4c90613b10565b60405180910390fd5b612d5e81612e93565b50565b600033905090565b60008461ffff161015612db1576040517f08c379a0000000000000000000000000000000000000000000000000000000008152600401612da890613b70565b60405180910390fd5b8161ffff168461ffff1610612dfb576040517f08c379a0000000000000000000000000000000000000000000000000000000008152600401612df290613b70565b60405180910390fd5b60008361ffff161015612e43576040517f08c379a0000000000000000000000000000000000000000000000000000000008152600401612e3a90613b70565b60405180910390fd5b8061ffff168361ffff1610612e8d576040517f08c379a0000000000000000000000000000000000000000000000000000000008152600401612e8490613b70565b60405180910390fd5b50505050565b60008060009054906101000a900473ffffffffffffffffffffffffffffffffffffffff169050816000806101000a81548173ffffffffffffffffffffffffffffffffffffffff021916908373ffffffffffffffffffffffffffffffffffffffff1602179055508173ffffffffffffffffffffffffffffffffffffffff168173ffffffffffffffffffffffffffffffffffffffff167f8be0079c531659141344cd1fd0a4f28419497f9722a3daafe3b4186f6b6457e060405160405180910390a35050565b60008060008361ffff161415612f7e57600185612f749190613f2a565b8491509150613039565b60018361ffff161415612fa25784600185612f999190613f2a565b91509150613039565b60018361ffff161415612fd257600185612fbc9190613e6b565b600185612fc99190613f2a565b91509150613039565b60018361ffff161415612ff657600185612fec9190613e6b565b8491509150613039565b60018361ffff161415613026576001856130109190613e6b565b60018561301d9190613e6b565b91509150613039565b846001856130349190613e6b565b915091505b935093915050565b6000813590506130508161414f565b92915050565b6000815190506130658161414f565b92915050565b60008083601f84011261307d57600080fd5b8235905067ffffffffffffffff81111561309657600080fd5b6020830191508360408202830111156130ae57600080fd5b9250929050565b6000815190506130c481614166565b92915050565b6000815190506130d98161417d565b92915050565b6000815190506130ee8161418d565b92915050565b60006101e0828403121561310757600080fd5b61311160e0613e29565b90506000613121848285016131ab565b600083015250610120613136848285016132c6565b60208301525061014061314b848285016132c6565b604083015250610160613160848285016130b5565b606083015250610180613175848285016130b5565b6080830152506101a061318a848285016132c6565b60a0830152506101c061319f848285016132c6565b60c08301525092915050565b600061012082840312156131be57600080fd5b6131c9610120613e29565b905060006131d9848285016132c6565b60008301525060206131ed848285016132c6565b6020830152506040613201848285016132c6565b6040830152506060613215848285016132c6565b6060830152506080613229848285016132c6565b60808301525060a061323d848285016132c6565b60a08301525060c0613251848285016130ca565b60c08301525060e0613265848285016130df565b60e08301525061010061327a848285016130df565b6101008301525092915050565b6000813590506132968161419d565b92915050565b6000815190506132ab8161419d565b92915050565b6000813590506132c0816141b4565b92915050565b6000815190506132d5816141b4565b92915050565b6000602082840312156132ed57600080fd5b60006132fb84828501613041565b91505092915050565b60006020828403121561331657600080fd5b600061332484828501613056565b91505092915050565b6000806020838503121561334057600080fd5b600083013567ffffffffffffffff81111561335a57600080fd5b6133668582860161306b565b92509250509250929050565b60006101e0828403121561338557600080fd5b6000613393848285016130f4565b91505092915050565b6000602082840312156133ae57600080fd5b60006133bc84828501613287565b91505092915050565b6000602082840312156133d757600080fd5b60006133e58482850161329c565b91505092915050565b6000806040838503121561340157600080fd5b600061340f85828601613287565b925050602061342085828601613287565b9150509250929050565b60008060006060848603121561343f57600080fd5b600061344d86828701613287565b935050602061345e86828701613287565b925050604061346f86828701613287565b9150509250925092565b6000806000806080858703121561348f57600080fd5b600061349d87828801613287565b94505060206134ae87828801613287565b93505060406134bf87828801613287565b92505060606134d087828801613287565b91505092959194509250565b6000602082840312156134ee57600080fd5b60006134fc848285016132c6565b91505092915050565b60008060006060848603121561351a57600080fd5b6000613528868287016132b1565b935050602061353986828701613287565b925050604061354a86828701613287565b9150509250925092565b60008060006060848603121561356957600080fd5b6000613577868287016132c6565b9350506020613588868287016132c6565b9250506040613599868287016132c6565b9150509250925092565b600080600080608085870312156135b957600080fd5b60006135c7878288016132c6565b94505060206135d8878288016132c6565b93505060406135e9878288016132c6565b92505060606135fa878288016132c6565b91505092959194509250565b61360f81613f5e565b82525050565b61361e81613f70565b82525050565b61362d81613f70565b82525050565b61363c81613fda565b82525050565b61364b81613fec565b82525050565b61365a81613ffe565b82525050565b61366981614010565b82525050565b600061367c602683613e5a565b91507f4f776e61626c653a206e6577206f776e657220697320746865207a65726f206160008301527f64647265737300000000000000000000000000000000000000000000000000006020830152604082019050919050565b60006136e2602a83613e5a565b91507f5468657265206973206e6f204e6f6b6169206f6e20746865207461726765742060008301527f7465727269746f72792e000000000000000000000000000000000000000000006020830152604082019050919050565b6000613748602683613e5a565b91507f596f75722061726520746865206f776e6572206f66207468652074617267657460008301527f204e6f6b616900000000000000000000000000000000000000000000000000006020830152604082019050919050565b60006137ae601583613e5a565b91507f706f736974696f6e206f7574206f6620626f61726400000000000000000000006000830152602082019050919050565b60006137ee602c83613e5a565b91507f5468657265206973206e6f204e6f6b6169206f6e207468652073656c6563746560008301527f64207465727269746f72792e00000000000000000000000000000000000000006020830152604082019050919050565b6000613854602c83613e5a565b91507f796f757220617265206e6f7420746865206f776e6572206f662074686520736560008301527f6c6563746564204e6f6b616900000000000000000000000000000000000000006020830152604082019050919050565b60006138ba602083613e5a565b91507f4f776e61626c653a2063616c6c6572206973206e6f7420746865206f776e65726000830152602082019050919050565b60006138fa602c83613e5a565b91507f596f757220617265206e6f7420746865206f776e6572206f662074686520736560008301527f6c6563746564204e6f6b616900000000000000000000000000000000000000006020830152604082019050919050565b6101e08201600082015161396a60008501826139e8565b50602082015161397e610120850182613aae565b506040820151613992610140850182613aae565b5060608201516139a6610160850182613615565b5060808201516139ba610180850182613615565b5060a08201516139ce6101a0850182613aae565b5060c08201516139e26101c0850182613aae565b50505050565b610120820160008201516139ff6000850182613aae565b506020820151613a126020850182613aae565b506040820151613a256040850182613aae565b506060820151613a386060850182613aae565b506080820151613a4b6080850182613aae565b5060a0820151613a5e60a0850182613aae565b5060c0820151613a7160c0850182613633565b5060e0820151613a8460e0850182613642565b50610100820151613a99610100850182613642565b50505050565b613aa881613fa2565b82525050565b613ab781613fd0565b82525050565b613ac681613fd0565b82525050565b6000602082019050613ae16000830184613606565b92915050565b6000604082019050613afc6000830185613606565b613b096020830184613abd565b9392505050565b60006020820190508181036000830152613b298161366f565b9050919050565b60006020820190508181036000830152613b49816136d5565b9050919050565b60006020820190508181036000830152613b698161373b565b9050919050565b60006020820190508181036000830152613b89816137a1565b9050919050565b60006020820190508181036000830152613ba9816137e1565b9050919050565b60006020820190508181036000830152613bc981613847565b9050919050565b60006020820190508181036000830152613be9816138ad565b9050919050565b60006020820190508181036000830152613c09816138ed565b9050919050565b60006103c082019050613c266000830185613953565b613c346101e0830184613953565b9392505050565b6000604082019050613c506000830185613a9f565b613c5d6020830184613a9f565b9392505050565b6000606082019050613c796000830186613a9f565b613c866020830185613a9f565b613c936040830184613606565b949350505050565b600060a082019050613cb06000830188613a9f565b613cbd6020830187613a9f565b613cca6040830186613a9f565b613cd76060830185613a9f565b613ce46080830184613606565b9695505050505050565b6000606082019050613d036000830186613a9f565b613d106020830185613a9f565b613d1d6040830184613abd565b949350505050565b6000608082019050613d3a6000830187613a9f565b613d476020830186613a9f565b613d546040830185613abd565b613d616060830184613606565b95945050505050565b6000602082019050613d7f6000830184613abd565b92915050565b6000604082019050613d9a6000830185613abd565b613da76020830184613624565b9392505050565b6000604082019050613dc36000830185613abd565b613dd06020830184613651565b9392505050565b6000604082019050613dec6000830185613abd565b613df96020830184613660565b9392505050565b6000604082019050613e156000830185613abd565b613e226020830184613abd565b9392505050565b6000604051905081810181811067ffffffffffffffff82111715613e5057613e4f6140f8565b5b8060405250919050565b600082825260208201905092915050565b6000613e7682613fa2565b9150613e8183613fa2565b92508261ffff03821115613e9857613e9761406b565b5b828201905092915050565b6000613eae82613fd0565b9150613eb983613fd0565b9250827fffffffffffffffffffffffffffffffffffffffffffffffffffffffffffffffff03821115613eee57613eed61406b565b5b828201905092915050565b6000613f0482613fd0565b9150613f0f83613fd0565b925082613f1f57613f1e61409a565b5b828204905092915050565b6000613f3582613fa2565b9150613f4083613fa2565b925082821015613f5357613f5261406b565b5b828203905092915050565b6000613f6982613fb0565b9050919050565b60008115159050919050565b6000819050613f8a82614127565b919050565b6000819050613f9d8261413b565b919050565b600061ffff82169050919050565b600073ffffffffffffffffffffffffffffffffffffffff82169050919050565b6000819050919050565b6000613fe582613f7c565b9050919050565b6000613ff782613f8f565b9050919050565b600061400982613fd0565b9050919050565b600061401b82613fd0565b9050919050565b600061402d82613fd0565b91507fffffffffffffffffffffffffffffffffffffffffffffffffffffffffffffffff8214156140605761405f61406b565b5b600182019050919050565b7f4e487b7100000000000000000000000000000000000000000000000000000000600052601160045260246000fd5b7f4e487b7100000000000000000000000000000000000000000000000000000000600052601260045260246000fd5b7f4e487b7100000000000000000000000000000000000000000000000000000000600052602160045260246000fd5b7f4e487b7100000000000000000000000000000000000000000000000000000000600052604160045260246000fd5b60068110614138576141376140c9565b5b50565b600a811061414c5761414b6140c9565b5b50565b61415881613f5e565b811461416357600080fd5b50565b61416f81613f70565b811461417a57600080fd5b50565b6006811061418a57600080fd5b50565b600a811061419a57600080fd5b50565b6141a681613fa2565b81146141b157600080fd5b50565b6141bd81613fd0565b81146141c857600080fd5b5056fea2646970667358221220ac78e4570f7ad689c16708224d6ab4c30d6a301106d4b912430de56d3704c89164736f6c63430008000033",
  "immutableReferences": {},
  "source": "pragma solidity ^0.8.0;\r\n\r\nimport \"@openzeppelin/contracts/access/Ownable.sol\";\r\nimport \"./BlackHole.sol\";\r\nimport \"../tokens/Resource.sol\";\r\nimport \"../character/NokaiStats.sol\";\r\nimport \"../character/Nokai.sol\";\r\nimport \"./BattleLogic.sol\";\r\n\r\n/**\r\n * Handle game interaction (move, build, battle) direct api to use from Web. no roles\r\n * will use the manager of different functionalities and check that everything is allowed before execute an action\r\n */\r\n// SPDX-License-Identifier: MIT\r\ncontract GameManager is Ownable {\r\n\r\n    BlackHole private _blackHole;\r\n    Nokai private _nokai;\r\n    NokaiStats private _nokaiStats;\r\n    BattleLogic private _battleLogic;\r\n    Resource private _uxonium;\r\n    Resource private _darkMatter;\r\n    Resource private _plasmaEnergy;\r\n    Resource private _voidEssence;\r\n\r\n    constructor(address blackHole, address nokai, address nokaiStats, address battleLogic, address uxonium, address darkMatter, address plasmaEnergy, address voidEssence) {\r\n        _blackHole = BlackHole(blackHole);\r\n        _nokai = Nokai(nokai);\r\n        _nokaiStats = NokaiStats(nokaiStats);\r\n        _battleLogic = BattleLogic(battleLogic);\r\n        _uxonium = Resource(uxonium);\r\n        _darkMatter = Resource(darkMatter);\r\n        _plasmaEnergy = Resource(plasmaEnergy);\r\n        _voidEssence = Resource(voidEssence);\r\n    }\r\n\r\n    function migrateBattleLogic(address battleLogic) external onlyOwner {\r\n        _battleLogic = BattleLogic(battleLogic);\r\n    }\r\n\r\n    /**\r\n     * Nokai Actions\r\n     */\r\n    function move(uint16 fromX, uint16 fromY, uint16 target) external {\r\n        _verifyPos(fromX, fromY, _blackHole.maxX(), _blackHole.maxY());\r\n        uint256 nokaiId = _blackHole.nokaiAt(fromX, fromY);\r\n        require(nokaiId != 0, \"There is no Nokai on the selected territory.\");\r\n        require(_nokai.ownerOf(nokaiId) == msg.sender, \"Your are not the owner of the selected Nokai\");\r\n        (uint16 targetX, uint16 targetY) = _getPos(fromX, fromY, target);\r\n        _verifyPos(targetX, targetY, _blackHole.maxX(), _blackHole.maxY());\r\n        _nokaiStats.didAction(nokaiId, 1);\r\n        _blackHole.conquest(fromX, fromY, targetX, targetY, msg.sender);\r\n    }\r\n\r\n    function conquer(uint16 fromX, uint16 fromY, uint16 target) external returns (uint256, bool) {\r\n        _verifyPos(fromX, fromY, _blackHole.maxX(), _blackHole.maxY());\r\n        uint256 attackerId = _blackHole.nokaiAt(fromX, fromY);\r\n        require(attackerId != 0, \"There is no Nokai on the selected territory.\");\r\n        require(_nokai.ownerOf(attackerId) == msg.sender, \"Your are not the owner of the selected Nokai\");\r\n\r\n        (uint16 targetX, uint16 targetY) = _getPos(fromX, fromY, target);\r\n        _verifyPos(targetX, targetY, _blackHole.maxX(), _blackHole.maxY());\r\n\r\n        uint256 defenderId = _blackHole.nokaiAt(targetX, targetY);\r\n        require(attackerId != 0, \"There is no Nokai on the target territory.\");\r\n        require(_nokai.ownerOf(attackerId) != msg.sender, \"Your are the owner of the target Nokai\");\r\n\r\n        (uint256 turns, uint256 attackerHp, uint256 defenderHp) = _battleLogic.battle(_nokaiStats.profile(attackerId), _nokaiStats.profile(attackerId));\r\n\r\n        _nokaiStats.damage(attackerId, attackerHp);\r\n        _nokaiStats.damage(defenderId, defenderHp);\r\n\r\n        _nokaiStats.didAction(attackerId, 1);\r\n        if (defenderHp == 0) {\r\n            _blackHole.withdrawDeadNokai(targetX, targetY, defenderId);\r\n            _blackHole.conquest(fromX, fromY, targetX, targetY, msg.sender);\r\n        } else if (attackerHp == 0) {\r\n            _blackHole.withdrawDeadNokai(fromX, fromY, attackerId);\r\n        }\r\n        return (turns, defenderHp == 0);\r\n    }\r\n\r\n    function teleport(uint16 fromX, uint16 fromY, uint16 toX, uint16 toY) external {\r\n        _verifyPos(fromX, fromY, _blackHole.maxX(), _blackHole.maxY());\r\n        uint256 nokaiId = _blackHole.nokaiAt(fromX, fromY);\r\n        _verifyPos(toX, toY, _blackHole.maxX(), _blackHole.maxY());\r\n        require(nokaiId != 0, \"There is no Nokai on the selected territory.\");\r\n        require(_nokai.ownerOf(nokaiId) == msg.sender, \"your are not the owner of the selected Nokai\");\r\n        _nokaiStats.didAction(nokaiId, 5);\r\n        _blackHole.move(fromX, fromY, toX, toY, msg.sender);\r\n    }\r\n\r\n    function assignNokaiToBoard(uint256 nokaiId, uint16 x, uint16 y) external {\r\n        _verifyPos(x, y, _blackHole.maxX(), _blackHole.maxY());\r\n        _blackHole.assignNokai(x, y, nokaiId, msg.sender);\r\n    }\r\n\r\n    function _verifyPos(uint16 x, uint16 y, uint16 maxX, uint16 maxY) internal pure {\r\n        require(x >= 0, \"position out of board\");\r\n        require(x < maxX, \"position out of board\");\r\n        require(y >= 0, \"position out of board\");\r\n        require(y < maxY, \"position out of board\");\r\n    }\r\n\r\n    function _getPos(uint16 fromX, uint16 fromY, uint16 target) internal pure returns (uint16, uint16) {\r\n        if (target == 0) {\r\n            return (fromX - 1, fromY);\r\n        } else if (target == 1) {\r\n            return (fromX, fromY - 1);\r\n        } else if (target == 1) {\r\n            return (fromX + 1, fromY - 1);\r\n        } else if (target == 1) {\r\n            return (fromX + 1, fromY);\r\n        } else if (target == 1) {\r\n            return (fromX + 1, fromY + 1);\r\n        } else {\r\n            return (fromX, fromY + 1);\r\n        }\r\n    }\r\n\r\n    /**\r\n     * Slot' Resource Actions\r\n     */\r\n    function upgradeExtractor(uint16 x, uint16 y) external {\r\n        collectResources(x, y);\r\n        uint256 cost = _blackHole.extractorCostAt(x, y);\r\n        _darkMatter.consume(msg.sender, cost);\r\n        _plasmaEnergy.consume(msg.sender, cost / 2);\r\n        _blackHole.upgradeExtractor(x, y, msg.sender);\r\n    }\r\n\r\n    function collectResources(uint16 x, uint16 y) public {\r\n        (uint256 uxonium, uint256 darkMatter, uint256 plasmaEnergy, uint256 voidEssence) = _blackHole.completeExtraction(x, y, msg.sender);\r\n        _uxonium.collect(msg.sender, uxonium);\r\n        _darkMatter.collect(msg.sender, darkMatter);\r\n        _plasmaEnergy.collect(msg.sender, plasmaEnergy);\r\n        _voidEssence.collect(msg.sender, voidEssence);\r\n    }\r\n\r\n    struct Pos {\r\n        uint16 x;\r\n        uint16 y;\r\n    }\r\n\r\n    function collectResources(Pos[] calldata positions) public {\r\n        uint256 totalUxonium;\r\n        uint256 totalDarkMatter;\r\n        uint256 totalPlasmaEnergy;\r\n        uint256 totalVoidEssence;\r\n\r\n        for (uint256 i = 0; i < positions.length; i++) {\r\n            (uint256 uxonium, uint256 darkMatter, uint256 plasmaEnergy, uint256 voidEssence) = _blackHole.completeExtraction(positions[i].x, positions[i].y, msg.sender);\r\n            totalUxonium += uxonium;\r\n            totalDarkMatter += darkMatter;\r\n            totalPlasmaEnergy += plasmaEnergy;\r\n            totalVoidEssence += voidEssence;\r\n        }\r\n        _uxonium.collect(msg.sender, totalUxonium);\r\n        _darkMatter.collect(msg.sender, totalDarkMatter);\r\n        _plasmaEnergy.collect(msg.sender, totalPlasmaEnergy);\r\n        _voidEssence.collect(msg.sender, totalVoidEssence);\r\n    }\r\n}\r\n",
  "sourcePath": "C:\\Users\\10404\\Documents\\projects\\blackhole-evm\\contracts\\game\\GameManager.sol",
  "compiler": {
    "name": "solc",
    "version": "0.8.0+commit.c7dfd78e.Emscripten.clang"
  },
  "schemaVersion": "3.4.3",
  "updatedAt": "2021-12-17T23:10:59.189Z",
  "networkType": "ethereum",
  "devdoc": {
    "kind": "dev",
    "methods": {
      "owner()": {
        "details": "Returns the address of the current owner."
      },
      "renounceOwnership()": {
        "details": "Leaves the contract without owner. It will not be possible to call `onlyOwner` functions anymore. Can only be called by the current owner. NOTE: Renouncing ownership will leave the contract without an owner, thereby removing any functionality that is only available to the owner."
      },
      "transferOwnership(address)": {
        "details": "Transfers ownership of the contract to a new account (`newOwner`). Can only be called by the current owner."
      }
    },
    "version": 1
  },
  "userdoc": {
    "kind": "user",
    "methods": {
      "move(uint16,uint16,uint16)": {
        "notice": "Nokai Actions"
      },
      "upgradeExtractor(uint16,uint16)": {
        "notice": "Slot' Resource Actions"
      }
    },
    "notice": "Handle game interaction (move, build, battle) direct api to use from Web. no roles will use the manager of different functionalities and check that everything is allowed before execute an action",
    "version": 1
  }
}