{
  "contractName": "HolyCore",
  "abi": [
    {
      "inputs": [
        {
          "internalType": "uint256",
          "name": "cost",
          "type": "uint256"
        }
      ],
      "stateMutability": "nonpayable",
      "type": "constructor"
    },
    {
      "anonymous": false,
      "inputs": [
        {
          "indexed": true,
          "internalType": "address",
          "name": "owner",
          "type": "address"
        },
        {
          "indexed": true,
          "internalType": "address",
          "name": "spender",
          "type": "address"
        },
        {
          "indexed": false,
          "internalType": "uint256",
          "name": "value",
          "type": "uint256"
        }
      ],
      "name": "Approval",
      "type": "event"
    },
    {
      "anonymous": false,
      "inputs": [
        {
          "indexed": true,
          "internalType": "address",
          "name": "previousOwner",
          "type": "address"
        },
        {
          "indexed": true,
          "internalType": "address",
          "name": "newOwner",
          "type": "address"
        }
      ],
      "name": "OwnershipTransferred",
      "type": "event"
    },
    {
      "anonymous": false,
      "inputs": [
        {
          "indexed": true,
          "internalType": "bytes32",
          "name": "role",
          "type": "bytes32"
        },
        {
          "indexed": true,
          "internalType": "bytes32",
          "name": "previousAdminRole",
          "type": "bytes32"
        },
        {
          "indexed": true,
          "internalType": "bytes32",
          "name": "newAdminRole",
          "type": "bytes32"
        }
      ],
      "name": "RoleAdminChanged",
      "type": "event"
    },
    {
      "anonymous": false,
      "inputs": [
        {
          "indexed": true,
          "internalType": "bytes32",
          "name": "role",
          "type": "bytes32"
        },
        {
          "indexed": true,
          "internalType": "address",
          "name": "account",
          "type": "address"
        },
        {
          "indexed": true,
          "internalType": "address",
          "name": "sender",
          "type": "address"
        }
      ],
      "name": "RoleGranted",
      "type": "event"
    },
    {
      "anonymous": false,
      "inputs": [
        {
          "indexed": true,
          "internalType": "bytes32",
          "name": "role",
          "type": "bytes32"
        },
        {
          "indexed": true,
          "internalType": "address",
          "name": "account",
          "type": "address"
        },
        {
          "indexed": true,
          "internalType": "address",
          "name": "sender",
          "type": "address"
        }
      ],
      "name": "RoleRevoked",
      "type": "event"
    },
    {
      "anonymous": false,
      "inputs": [
        {
          "indexed": true,
          "internalType": "address",
          "name": "from",
          "type": "address"
        },
        {
          "indexed": true,
          "internalType": "address",
          "name": "to",
          "type": "address"
        },
        {
          "indexed": false,
          "internalType": "uint256",
          "name": "value",
          "type": "uint256"
        }
      ],
      "name": "Transfer",
      "type": "event"
    },
    {
      "inputs": [],
      "name": "BURN_ROLE",
      "outputs": [
        {
          "internalType": "bytes32",
          "name": "",
          "type": "bytes32"
        }
      ],
      "stateMutability": "view",
      "type": "function",
      "constant": true
    },
    {
      "inputs": [],
      "name": "DEFAULT_ADMIN_ROLE",
      "outputs": [
        {
          "internalType": "bytes32",
          "name": "",
          "type": "bytes32"
        }
      ],
      "stateMutability": "view",
      "type": "function",
      "constant": true
    },
    {
      "inputs": [],
      "name": "MINT_ROLE",
      "outputs": [
        {
          "internalType": "bytes32",
          "name": "",
          "type": "bytes32"
        }
      ],
      "stateMutability": "view",
      "type": "function",
      "constant": true
    },
    {
      "inputs": [],
      "name": "MODERATOR_ROLE",
      "outputs": [
        {
          "internalType": "bytes32",
          "name": "",
          "type": "bytes32"
        }
      ],
      "stateMutability": "view",
      "type": "function",
      "constant": true
    },
    {
      "inputs": [],
      "name": "WITHDRAW_ROLE",
      "outputs": [
        {
          "internalType": "bytes32",
          "name": "",
          "type": "bytes32"
        }
      ],
      "stateMutability": "view",
      "type": "function",
      "constant": true
    },
    {
      "inputs": [
        {
          "internalType": "uint256",
          "name": "cost",
          "type": "uint256"
        }
      ],
      "name": "adjustCost",
      "outputs": [],
      "stateMutability": "nonpayable",
      "type": "function"
    },
    {
      "inputs": [
        {
          "internalType": "bool",
          "name": "value",
          "type": "bool"
        }
      ],
      "name": "allowPurchase",
      "outputs": [],
      "stateMutability": "nonpayable",
      "type": "function"
    },
    {
      "inputs": [
        {
          "internalType": "address",
          "name": "owner",
          "type": "address"
        },
        {
          "internalType": "address",
          "name": "spender",
          "type": "address"
        }
      ],
      "name": "allowance",
      "outputs": [
        {
          "internalType": "uint256",
          "name": "",
          "type": "uint256"
        }
      ],
      "stateMutability": "view",
      "type": "function",
      "constant": true
    },
    {
      "inputs": [
        {
          "internalType": "address",
          "name": "spender",
          "type": "address"
        },
        {
          "internalType": "uint256",
          "name": "amount",
          "type": "uint256"
        }
      ],
      "name": "approve",
      "outputs": [
        {
          "internalType": "bool",
          "name": "",
          "type": "bool"
        }
      ],
      "stateMutability": "nonpayable",
      "type": "function"
    },
    {
      "inputs": [
        {
          "internalType": "address",
          "name": "account",
          "type": "address"
        }
      ],
      "name": "balanceOf",
      "outputs": [
        {
          "internalType": "uint256",
          "name": "",
          "type": "uint256"
        }
      ],
      "stateMutability": "view",
      "type": "function",
      "constant": true
    },
    {
      "inputs": [
        {
          "internalType": "address",
          "name": "user",
          "type": "address"
        },
        {
          "internalType": "uint256",
          "name": "number",
          "type": "uint256"
        }
      ],
      "name": "consume",
      "outputs": [],
      "stateMutability": "nonpayable",
      "type": "function"
    },
    {
      "inputs": [],
      "name": "costPerUnit",
      "outputs": [
        {
          "internalType": "uint256",
          "name": "",
          "type": "uint256"
        }
      ],
      "stateMutability": "view",
      "type": "function",
      "constant": true
    },
    {
      "inputs": [
        {
          "internalType": "address",
          "name": "user",
          "type": "address"
        },
        {
          "internalType": "uint256",
          "name": "number",
          "type": "uint256"
        }
      ],
      "name": "craft",
      "outputs": [],
      "stateMutability": "nonpayable",
      "type": "function"
    },
    {
      "inputs": [],
      "name": "decimals",
      "outputs": [
        {
          "internalType": "uint8",
          "name": "",
          "type": "uint8"
        }
      ],
      "stateMutability": "view",
      "type": "function",
      "constant": true
    },
    {
      "inputs": [
        {
          "internalType": "address",
          "name": "spender",
          "type": "address"
        },
        {
          "internalType": "uint256",
          "name": "subtractedValue",
          "type": "uint256"
        }
      ],
      "name": "decreaseAllowance",
      "outputs": [
        {
          "internalType": "bool",
          "name": "",
          "type": "bool"
        }
      ],
      "stateMutability": "nonpayable",
      "type": "function"
    },
    {
      "inputs": [
        {
          "internalType": "bytes32",
          "name": "role",
          "type": "bytes32"
        }
      ],
      "name": "getRoleAdmin",
      "outputs": [
        {
          "internalType": "bytes32",
          "name": "",
          "type": "bytes32"
        }
      ],
      "stateMutability": "view",
      "type": "function",
      "constant": true
    },
    {
      "inputs": [
        {
          "internalType": "address",
          "name": "user",
          "type": "address"
        },
        {
          "internalType": "uint256",
          "name": "number",
          "type": "uint256"
        }
      ],
      "name": "gift",
      "outputs": [],
      "stateMutability": "nonpayable",
      "type": "function"
    },
    {
      "inputs": [
        {
          "internalType": "bytes32",
          "name": "role",
          "type": "bytes32"
        },
        {
          "internalType": "address",
          "name": "account",
          "type": "address"
        }
      ],
      "name": "grantRole",
      "outputs": [],
      "stateMutability": "nonpayable",
      "type": "function"
    },
    {
      "inputs": [
        {
          "internalType": "bytes32",
          "name": "role",
          "type": "bytes32"
        },
        {
          "internalType": "address",
          "name": "account",
          "type": "address"
        }
      ],
      "name": "hasRole",
      "outputs": [
        {
          "internalType": "bool",
          "name": "",
          "type": "bool"
        }
      ],
      "stateMutability": "view",
      "type": "function",
      "constant": true
    },
    {
      "inputs": [
        {
          "internalType": "address",
          "name": "spender",
          "type": "address"
        },
        {
          "internalType": "uint256",
          "name": "addedValue",
          "type": "uint256"
        }
      ],
      "name": "increaseAllowance",
      "outputs": [
        {
          "internalType": "bool",
          "name": "",
          "type": "bool"
        }
      ],
      "stateMutability": "nonpayable",
      "type": "function"
    },
    {
      "inputs": [],
      "name": "isPurchaseAllowed",
      "outputs": [
        {
          "internalType": "bool",
          "name": "",
          "type": "bool"
        }
      ],
      "stateMutability": "view",
      "type": "function",
      "constant": true
    },
    {
      "inputs": [],
      "name": "name",
      "outputs": [
        {
          "internalType": "string",
          "name": "",
          "type": "string"
        }
      ],
      "stateMutability": "view",
      "type": "function",
      "constant": true
    },
    {
      "inputs": [],
      "name": "owner",
      "outputs": [
        {
          "internalType": "address",
          "name": "",
          "type": "address"
        }
      ],
      "stateMutability": "view",
      "type": "function",
      "constant": true
    },
    {
      "inputs": [
        {
          "internalType": "uint256",
          "name": "number",
          "type": "uint256"
        }
      ],
      "name": "purchase",
      "outputs": [],
      "stateMutability": "payable",
      "type": "function",
      "payable": true
    },
    {
      "inputs": [],
      "name": "renounceOwnership",
      "outputs": [],
      "stateMutability": "nonpayable",
      "type": "function"
    },
    {
      "inputs": [
        {
          "internalType": "bytes32",
          "name": "role",
          "type": "bytes32"
        },
        {
          "internalType": "address",
          "name": "account",
          "type": "address"
        }
      ],
      "name": "renounceRole",
      "outputs": [],
      "stateMutability": "nonpayable",
      "type": "function"
    },
    {
      "inputs": [
        {
          "internalType": "bytes32",
          "name": "role",
          "type": "bytes32"
        },
        {
          "internalType": "address",
          "name": "account",
          "type": "address"
        }
      ],
      "name": "revokeRole",
      "outputs": [],
      "stateMutability": "nonpayable",
      "type": "function"
    },
    {
      "inputs": [
        {
          "internalType": "bytes4",
          "name": "interfaceId",
          "type": "bytes4"
        }
      ],
      "name": "supportsInterface",
      "outputs": [
        {
          "internalType": "bool",
          "name": "",
          "type": "bool"
        }
      ],
      "stateMutability": "view",
      "type": "function",
      "constant": true
    },
    {
      "inputs": [],
      "name": "symbol",
      "outputs": [
        {
          "internalType": "string",
          "name": "",
          "type": "string"
        }
      ],
      "stateMutability": "view",
      "type": "function",
      "constant": true
    },
    {
      "inputs": [],
      "name": "totalSupply",
      "outputs": [
        {
          "internalType": "uint256",
          "name": "",
          "type": "uint256"
        }
      ],
      "stateMutability": "view",
      "type": "function",
      "constant": true
    },
    {
      "inputs": [
        {
          "internalType": "address",
          "name": "recipient",
          "type": "address"
        },
        {
          "internalType": "uint256",
          "name": "amount",
          "type": "uint256"
        }
      ],
      "name": "transfer",
      "outputs": [
        {
          "internalType": "bool",
          "name": "",
          "type": "bool"
        }
      ],
      "stateMutability": "nonpayable",
      "type": "function"
    },
    {
      "inputs": [
        {
          "internalType": "address",
          "name": "sender",
          "type": "address"
        },
        {
          "internalType": "address",
          "name": "recipient",
          "type": "address"
        },
        {
          "internalType": "uint256",
          "name": "amount",
          "type": "uint256"
        }
      ],
      "name": "transferFrom",
      "outputs": [
        {
          "internalType": "bool",
          "name": "",
          "type": "bool"
        }
      ],
      "stateMutability": "nonpayable",
      "type": "function"
    },
    {
      "inputs": [
        {
          "internalType": "address",
          "name": "newOwner",
          "type": "address"
        }
      ],
      "name": "transferOwnership",
      "outputs": [],
      "stateMutability": "nonpayable",
      "type": "function"
    },
    {
      "inputs": [],
      "name": "withdraw",
      "outputs": [],
      "stateMutability": "nonpayable",
      "type": "function"
    }
  ],
  "bytecode": "0x60806040523480156200001157600080fd5b506040516200391338038062003913833981810160405281019062000037919062000494565b6040518060400160405280600881526020017f486f6c79436f72650000000000000000000000000000000000000000000000008152506040518060400160405280600481526020017f434f5245000000000000000000000000000000000000000000000000000000008152508160039080519060200190620000bb929190620003cd565b508060049080519060200190620000d4929190620003cd565b50505062000109620000f462000171640100000000026401000000009004565b62000179640100000000026401000000009004565b806006819055506200012f6000600102336200023f640100000000026401000000009004565b6200016a7f5d8e12c39142ff96d79d04d15d1ba1269e4fe57bb9d26f43523628b34ba108ec336200025e640100000000026401000000009004565b5062000549565b600033905090565b6000600760019054906101000a900473ffffffffffffffffffffffffffffffffffffffff16905081600760016101000a81548173ffffffffffffffffffffffffffffffffffffffff021916908373ffffffffffffffffffffffffffffffffffffffff1602179055508173ffffffffffffffffffffffffffffffffffffffff168173ffffffffffffffffffffffffffffffffffffffff167f8be0079c531659141344cd1fd0a4f28419497f9722a3daafe3b4186f6b6457e060405160405180910390a35050565b6200025a82826200025e640100000000026401000000009004565b5050565b62000279828262000362640100000000026401000000009004565b6200035e5760016005600084815260200190815260200160002060000160008373ffffffffffffffffffffffffffffffffffffffff1673ffffffffffffffffffffffffffffffffffffffff16815260200190815260200160002060006101000a81548160ff0219169083151502179055506200030362000171640100000000026401000000009004565b73ffffffffffffffffffffffffffffffffffffffff168173ffffffffffffffffffffffffffffffffffffffff16837f2f8788117e7eff1d82e926ec794901d17c78024a50270940304540a733656f0d60405160405180910390a45b5050565b60006005600084815260200190815260200160002060000160008373ffffffffffffffffffffffffffffffffffffffff1673ffffffffffffffffffffffffffffffffffffffff16815260200190815260200160002060009054906101000a900460ff16905092915050565b828054620003db90620004ca565b90600052602060002090601f016020900481019282620003ff57600085556200044b565b82601f106200041a57805160ff19168380011785556200044b565b828001600101855582156200044b579182015b828111156200044a5782518255916020019190600101906200042d565b5b5090506200045a91906200045e565b5090565b5b80821115620004795760008160009055506001016200045f565b5090565b6000815190506200048e816200052f565b92915050565b600060208284031215620004a757600080fd5b6000620004b7848285016200047d565b91505092915050565b6000819050919050565b60006002820490506001821680620004e357607f821691505b60208210811415620004fa57620004f962000500565b5b50919050565b7f4e487b7100000000000000000000000000000000000000000000000000000000600052602260045260246000fd5b6200053a81620004c0565b81146200054657600080fd5b50565b6133ba80620005596000396000f3fe608060405260043610610216576000357c010000000000000000000000000000000000000000000000000000000090048063797669c91161012a578063c1d942c1116100bd578063e02023a11161008c578063e02023a114610778578063e9a9c850146107a3578063efef39a1146107ce578063f2fde38b146107ea578063f8ebef8a1461081357610216565b8063c1d942c1146106c0578063cbce4c97146106e9578063d547741f14610712578063dd62ed3e1461073b57610216565b8063a217fddf116100f9578063a217fddf146105f0578063a457c2d71461061b578063a9059cbb14610658578063b930908f1461069557610216565b8063797669c9146105325780638da5cb5b1461055d57806391d148541461058857806395d89b41146105c557610216565b80632f2ff15d116101ad578063388eea561161017c578063388eea561461045f578063395093511461048a5780633ccfd60b146104c757806370a08231146104de578063715018a61461051b57610216565b80632f2ff15d146103b7578063313ce567146103e0578063332df3bf1461040b57806336568abe1461043657610216565b8063209ec9eb116101e9578063209ec9eb146102eb578063224b5c721461031457806323b872dd1461033d578063248a9ca31461037a57610216565b806301ffc9a71461021b57806306fdde0314610258578063095ea7b31461028357806318160ddd146102c0575b600080fd5b34801561022757600080fd5b50610242600480360381019061023d9190612505565b61083c565b60405161024f9190612da4565b60405180910390f35b34801561026457600080fd5b5061026d6108b6565b60405161027a9190612dda565b60405180910390f35b34801561028f57600080fd5b506102aa60048036038101906102a5919061243b565b610948565b6040516102b79190612da4565b60405180910390f35b3480156102cc57600080fd5b506102d5610966565b6040516102e2919061303c565b60405180910390f35b3480156102f757600080fd5b50610312600480360381019061030d919061252e565b610970565b005b34801561032057600080fd5b5061033b6004803603810190610336919061243b565b6109ad565b005b34801561034957600080fd5b50610364600480360381019061035f91906123ec565b610a39565b6040516103719190612da4565b60405180910390f35b34801561038657600080fd5b506103a1600480360381019061039c91906124a0565b610b31565b6040516103ae9190612dbf565b60405180910390f35b3480156103c357600080fd5b506103de60048036038101906103d991906124c9565b610b51565b005b3480156103ec57600080fd5b506103f5610b7a565b6040516104029190613057565b60405180910390f35b34801561041757600080fd5b50610420610b83565b60405161042d919061303c565b60405180910390f35b34801561044257600080fd5b5061045d600480360381019061045891906124c9565b610b89565b005b34801561046b57600080fd5b50610474610c0c565b6040516104819190612da4565b60405180910390f35b34801561049657600080fd5b506104b160048036038101906104ac919061243b565b610c1f565b6040516104be9190612da4565b60405180910390f35b3480156104d357600080fd5b506104dc610ccb565b005b3480156104ea57600080fd5b5061050560048036038101906105009190612387565b610dc4565b604051610512919061303c565b60405180910390f35b34801561052757600080fd5b50610530610e0c565b005b34801561053e57600080fd5b50610547610e94565b6040516105549190612dbf565b60405180910390f35b34801561056957600080fd5b50610572610eb8565b60405161057f9190612d89565b60405180910390f35b34801561059457600080fd5b506105af60048036038101906105aa91906124c9565b610ee2565b6040516105bc9190612da4565b60405180910390f35b3480156105d157600080fd5b506105da610f4d565b6040516105e79190612dda565b60405180910390f35b3480156105fc57600080fd5b50610605610fdf565b6040516106129190612dbf565b60405180910390f35b34801561062757600080fd5b50610642600480360381019061063d919061243b565b610fe7565b60405161064f9190612da4565b60405180910390f35b34801561066457600080fd5b5061067f600480360381019061067a919061243b565b6110d2565b60405161068c9190612da4565b60405180910390f35b3480156106a157600080fd5b506106aa6110f0565b6040516106b79190612dbf565b60405180910390f35b3480156106cc57600080fd5b506106e760048036038101906106e2919061243b565b611114565b005b3480156106f557600080fd5b50610710600480360381019061070b919061243b565b611155565b005b34801561071e57600080fd5b50610739600480360381019061073491906124c9565b6111df565b005b34801561074757600080fd5b50610762600480360381019061075d91906123b0565b611208565b60405161076f919061303c565b60405180910390f35b34801561078457600080fd5b5061078d61128f565b60405161079a9190612dbf565b60405180910390f35b3480156107af57600080fd5b506107b86112b3565b6040516107c59190612dbf565b60405180910390f35b6107e860048036038101906107e3919061252e565b6112d7565b005b3480156107f657600080fd5b50610811600480360381019061080c9190612387565b61138f565b005b34801561081f57600080fd5b5061083a60048036038101906108359190612477565b611487565b005b60007f7965db0b000000000000000000000000000000000000000000000000000000007bffffffffffffffffffffffffffffffffffffffffffffffffffffffff1916827bffffffffffffffffffffffffffffffffffffffffffffffffffffffff191614806108af57506108ae826114d7565b5b9050919050565b6060600380546108c590613270565b80601f01602080910402602001604051908101604052809291908181526020018280546108f190613270565b801561093e5780601f106109135761010080835404028352916020019161093e565b820191906000526020600020905b81548152906001019060200180831161092157829003601f168201915b5050505050905090565b600061095c610955611541565b8484611549565b6001905092915050565b6000600254905090565b7f71f3d55856e4058ed06ee057d79ada615f65cdf5f9ee88181b914225088f834f6109a28161099d611541565b611714565b816006819055505050565b7fe97b137254058bd94f28d2f3eb79e2d34074ffb488d042e3bc958e0a57d2fa226109df816109da611541565b611714565b816109e984610dc4565b1015610a2a576040517f08c379a0000000000000000000000000000000000000000000000000000000008152600401610a2190612edc565b60405180910390fd5b610a3483836117b2565b505050565b6000610a46848484611989565b6000600160008673ffffffffffffffffffffffffffffffffffffffff1673ffffffffffffffffffffffffffffffffffffffff1681526020019081526020016000206000610a91611541565b73ffffffffffffffffffffffffffffffffffffffff1673ffffffffffffffffffffffffffffffffffffffff16815260200190815260200160002054905082811015610b11576040517f08c379a0000000000000000000000000000000000000000000000000000000008152600401610b0890612efc565b60405180910390fd5b610b2585610b1d611541565b858403611549565b60019150509392505050565b600060056000838152602001908152602001600020600101549050919050565b610b5a82610b31565b610b6b81610b66611541565b611714565b610b758383611c0a565b505050565b60006012905090565b60065481565b610b91611541565b73ffffffffffffffffffffffffffffffffffffffff168173ffffffffffffffffffffffffffffffffffffffff1614610bfe576040517f08c379a0000000000000000000000000000000000000000000000000000000008152600401610bf590612ffc565b60405180910390fd5b610c088282611ceb565b5050565b600760009054906101000a900460ff1681565b6000610cc1610c2c611541565b848460016000610c3a611541565b73ffffffffffffffffffffffffffffffffffffffff1673ffffffffffffffffffffffffffffffffffffffff16815260200190815260200160002060008873ffffffffffffffffffffffffffffffffffffffff1673ffffffffffffffffffffffffffffffffffffffff16815260200190815260200160002054610cbc91906130a4565b611549565b6001905092915050565b7f5d8e12c39142ff96d79d04d15d1ba1269e4fe57bb9d26f43523628b34ba108ec610cfd81610cf8611541565b611714565b60003373ffffffffffffffffffffffffffffffffffffffff163073ffffffffffffffffffffffffffffffffffffffff1631604051610d3a90612d3a565b60006040518083038185875af1925050503d8060008114610d77576040519150601f19603f3d011682016040523d82523d6000602084013e610d7c565b606091505b5050905080610dc0576040517f08c379a0000000000000000000000000000000000000000000000000000000008152600401610db790612fbc565b60405180910390fd5b5050565b60008060008373ffffffffffffffffffffffffffffffffffffffff1673ffffffffffffffffffffffffffffffffffffffff168152602001908152602001600020549050919050565b610e14611541565b73ffffffffffffffffffffffffffffffffffffffff16610e32610eb8565b73ffffffffffffffffffffffffffffffffffffffff1614610e88576040517f08c379a0000000000000000000000000000000000000000000000000000000008152600401610e7f90612f1c565b60405180910390fd5b610e926000611dcd565b565b7f71f3d55856e4058ed06ee057d79ada615f65cdf5f9ee88181b914225088f834f81565b6000600760019054906101000a900473ffffffffffffffffffffffffffffffffffffffff16905090565b60006005600084815260200190815260200160002060000160008373ffffffffffffffffffffffffffffffffffffffff1673ffffffffffffffffffffffffffffffffffffffff16815260200190815260200160002060009054906101000a900460ff16905092915050565b606060048054610f5c90613270565b80601f0160208091040260200160405190810160405280929190818152602001828054610f8890613270565b8015610fd55780601f10610faa57610100808354040283529160200191610fd5565b820191906000526020600020905b815481529060010190602001808311610fb857829003601f168201915b5050505050905090565b600060010281565b60008060016000610ff6611541565b73ffffffffffffffffffffffffffffffffffffffff1673ffffffffffffffffffffffffffffffffffffffff16815260200190815260200160002060008573ffffffffffffffffffffffffffffffffffffffff1673ffffffffffffffffffffffffffffffffffffffff168152602001908152602001600020549050828110156110b3576040517f08c379a00000000000000000000000000000000000000000000000000000000081526004016110aa90612fdc565b60405180910390fd5b6110c76110be611541565b85858403611549565b600191505092915050565b60006110e66110df611541565b8484611989565b6001905092915050565b7fe97b137254058bd94f28d2f3eb79e2d34074ffb488d042e3bc958e0a57d2fa2281565b7f154c00819833dac601ee5ddded6fda79d9d8b506b911b3dbd54cdb95fe6c368661114681611141611541565b611714565b6111508383611e93565b505050565b61115d611541565b73ffffffffffffffffffffffffffffffffffffffff1661117b610eb8565b73ffffffffffffffffffffffffffffffffffffffff16146111d1576040517f08c379a00000000000000000000000000000000000000000000000000000000081526004016111c890612f1c565b60405180910390fd5b6111db8282611e93565b5050565b6111e882610b31565b6111f9816111f4611541565b611714565b6112038383611ceb565b505050565b6000600160008473ffffffffffffffffffffffffffffffffffffffff1673ffffffffffffffffffffffffffffffffffffffff16815260200190815260200160002060008373ffffffffffffffffffffffffffffffffffffffff1673ffffffffffffffffffffffffffffffffffffffff16815260200190815260200160002054905092915050565b7f5d8e12c39142ff96d79d04d15d1ba1269e4fe57bb9d26f43523628b34ba108ec81565b7f154c00819833dac601ee5ddded6fda79d9d8b506b911b3dbd54cdb95fe6c368681565b60011515600760009054906101000a900460ff1615151461132d576040517f08c379a000000000000000000000000000000000000000000000000000000000815260040161132490612f3c565b60405180910390fd5b60008160065461133d91906130fa565b9050803414611381576040517f08c379a000000000000000000000000000000000000000000000000000000000815260040161137890612e5c565b60405180910390fd5b61138b3383611e93565b5050565b611397611541565b73ffffffffffffffffffffffffffffffffffffffff166113b5610eb8565b73ffffffffffffffffffffffffffffffffffffffff161461140b576040517f08c379a000000000000000000000000000000000000000000000000000000000815260040161140290612f1c565b60405180910390fd5b600073ffffffffffffffffffffffffffffffffffffffff168173ffffffffffffffffffffffffffffffffffffffff16141561147b576040517f08c379a000000000000000000000000000000000000000000000000000000000815260040161147290612e7c565b60405180910390fd5b61148481611dcd565b50565b7f71f3d55856e4058ed06ee057d79ada615f65cdf5f9ee88181b914225088f834f6114b9816114b4611541565b611714565b81600760006101000a81548160ff0219169083151502179055505050565b60007f01ffc9a7000000000000000000000000000000000000000000000000000000007bffffffffffffffffffffffffffffffffffffffffffffffffffffffff1916827bffffffffffffffffffffffffffffffffffffffffffffffffffffffff1916149050919050565b600033905090565b600073ffffffffffffffffffffffffffffffffffffffff168373ffffffffffffffffffffffffffffffffffffffff1614156115b9576040517f08c379a00000000000000000000000000000000000000000000000000000000081526004016115b090612f9c565b60405180910390fd5b600073ffffffffffffffffffffffffffffffffffffffff168273ffffffffffffffffffffffffffffffffffffffff161415611629576040517f08c379a000000000000000000000000000000000000000000000000000000000815260040161162090612e9c565b60405180910390fd5b80600160008573ffffffffffffffffffffffffffffffffffffffff1673ffffffffffffffffffffffffffffffffffffffff16815260200190815260200160002060008473ffffffffffffffffffffffffffffffffffffffff1673ffffffffffffffffffffffffffffffffffffffff168152602001908152602001600020819055508173ffffffffffffffffffffffffffffffffffffffff168373ffffffffffffffffffffffffffffffffffffffff167f8c5be1e5ebec7d5bd14f71427d1e84f3dd0314c0f7b2291e5b200ac8c7c3b92583604051611707919061303c565b60405180910390a3505050565b61171e8282610ee2565b6117ae576117438173ffffffffffffffffffffffffffffffffffffffff166014611ff3565b61175283600190046020611ff3565b604051602001611763929190612d4f565b6040516020818303038152906040526040517f08c379a00000000000000000000000000000000000000000000000000000000081526004016117a59190612dda565b60405180910390fd5b5050565b600073ffffffffffffffffffffffffffffffffffffffff168273ffffffffffffffffffffffffffffffffffffffff161415611822576040517f08c379a000000000000000000000000000000000000000000000000000000000815260040161181990612f5c565b60405180910390fd5b61182e82600083612314565b60008060008473ffffffffffffffffffffffffffffffffffffffff1673ffffffffffffffffffffffffffffffffffffffff168152602001908152602001600020549050818110156118b4576040517f08c379a00000000000000000000000000000000000000000000000000000000081526004016118ab90612e3c565b60405180910390fd5b8181036000808573ffffffffffffffffffffffffffffffffffffffff1673ffffffffffffffffffffffffffffffffffffffff16815260200190815260200160002081905550816002600082825461190b9190613154565b92505081905550600073ffffffffffffffffffffffffffffffffffffffff168373ffffffffffffffffffffffffffffffffffffffff167fddf252ad1be2c89b69c2b068fc378daa952ba7f163c4a11628f55a4df523b3ef84604051611970919061303c565b60405180910390a361198483600084612319565b505050565b600073ffffffffffffffffffffffffffffffffffffffff168373ffffffffffffffffffffffffffffffffffffffff1614156119f9576040517f08c379a00000000000000000000000000000000000000000000000000000000081526004016119f090612f7c565b60405180910390fd5b600073ffffffffffffffffffffffffffffffffffffffff168273ffffffffffffffffffffffffffffffffffffffff161415611a69576040517f08c379a0000000000000000000000000000000000000000000000000000000008152600401611a6090612e1c565b60405180910390fd5b611a74838383612314565b60008060008573ffffffffffffffffffffffffffffffffffffffff1673ffffffffffffffffffffffffffffffffffffffff16815260200190815260200160002054905081811015611afa576040517f08c379a0000000000000000000000000000000000000000000000000000000008152600401611af190612ebc565b60405180910390fd5b8181036000808673ffffffffffffffffffffffffffffffffffffffff1673ffffffffffffffffffffffffffffffffffffffff16815260200190815260200160002081905550816000808573ffffffffffffffffffffffffffffffffffffffff1673ffffffffffffffffffffffffffffffffffffffff1681526020019081526020016000206000828254611b8d91906130a4565b925050819055508273ffffffffffffffffffffffffffffffffffffffff168473ffffffffffffffffffffffffffffffffffffffff167fddf252ad1be2c89b69c2b068fc378daa952ba7f163c4a11628f55a4df523b3ef84604051611bf1919061303c565b60405180910390a3611c04848484612319565b50505050565b611c148282610ee2565b611ce75760016005600084815260200190815260200160002060000160008373ffffffffffffffffffffffffffffffffffffffff1673ffffffffffffffffffffffffffffffffffffffff16815260200190815260200160002060006101000a81548160ff021916908315150217905550611c8c611541565b73ffffffffffffffffffffffffffffffffffffffff168173ffffffffffffffffffffffffffffffffffffffff16837f2f8788117e7eff1d82e926ec794901d17c78024a50270940304540a733656f0d60405160405180910390a45b5050565b611cf58282610ee2565b15611dc95760006005600084815260200190815260200160002060000160008373ffffffffffffffffffffffffffffffffffffffff1673ffffffffffffffffffffffffffffffffffffffff16815260200190815260200160002060006101000a81548160ff021916908315150217905550611d6e611541565b73ffffffffffffffffffffffffffffffffffffffff168173ffffffffffffffffffffffffffffffffffffffff16837ff6391f5c32d9c69d2a47ea670b442974b53935d1edc7fd64eb21e047a839171b60405160405180910390a45b5050565b6000600760019054906101000a900473ffffffffffffffffffffffffffffffffffffffff16905081600760016101000a81548173ffffffffffffffffffffffffffffffffffffffff021916908373ffffffffffffffffffffffffffffffffffffffff1602179055508173ffffffffffffffffffffffffffffffffffffffff168173ffffffffffffffffffffffffffffffffffffffff167f8be0079c531659141344cd1fd0a4f28419497f9722a3daafe3b4186f6b6457e060405160405180910390a35050565b600073ffffffffffffffffffffffffffffffffffffffff168273ffffffffffffffffffffffffffffffffffffffff161415611f03576040517f08c379a0000000000000000000000000000000000000000000000000000000008152600401611efa9061301c565b60405180910390fd5b611f0f60008383612314565b8060026000828254611f2191906130a4565b92505081905550806000808473ffffffffffffffffffffffffffffffffffffffff1673ffffffffffffffffffffffffffffffffffffffff1681526020019081526020016000206000828254611f7691906130a4565b925050819055508173ffffffffffffffffffffffffffffffffffffffff16600073ffffffffffffffffffffffffffffffffffffffff167fddf252ad1be2c89b69c2b068fc378daa952ba7f163c4a11628f55a4df523b3ef83604051611fdb919061303c565b60405180910390a3611fef60008383612319565b5050565b60606000600283600261200691906130fa565b61201091906130a4565b67ffffffffffffffff81111561204f577f4e487b7100000000000000000000000000000000000000000000000000000000600052604160045260246000fd5b6040519080825280601f01601f1916602001820160405280156120815781602001600182028036833780820191505090505b5090507f3000000000000000000000000000000000000000000000000000000000000000816000815181106120df577f4e487b7100000000000000000000000000000000000000000000000000000000600052603260045260246000fd5b60200101907effffffffffffffffffffffffffffffffffffffffffffffffffffffffffffff1916908160001a9053507f780000000000000000000000000000000000000000000000000000000000000081600181518110612169577f4e487b7100000000000000000000000000000000000000000000000000000000600052603260045260246000fd5b60200101907effffffffffffffffffffffffffffffffffffffffffffffffffffffffffffff1916908160001a905350600060018460026121a991906130fa565b6121b391906130a4565b90505b60018111156122c6577f3031323334353637383961626364656600000000000000000000000000000000600f86166010811061221b577f4e487b7100000000000000000000000000000000000000000000000000000000600052603260045260246000fd5b1a7f010000000000000000000000000000000000000000000000000000000000000002828281518110612277577f4e487b7100000000000000000000000000000000000000000000000000000000600052603260045260246000fd5b60200101907effffffffffffffffffffffffffffffffffffffffffffffffffffffffffffff1916908160001a905350600485908060020a82049150509450806122bf90613246565b90506121b6565b506000841461230a576040517f08c379a000000000000000000000000000000000000000000000000000000000815260040161230190612dfc565b60405180910390fd5b8091505092915050565b505050565b505050565b60008135905061232d81613311565b92915050565b60008135905061234281613328565b92915050565b6000813590506123578161333f565b92915050565b60008135905061236c81613356565b92915050565b6000813590506123818161336d565b92915050565b60006020828403121561239957600080fd5b60006123a78482850161231e565b91505092915050565b600080604083850312156123c357600080fd5b60006123d18582860161231e565b92505060206123e28582860161231e565b9150509250929050565b60008060006060848603121561240157600080fd5b600061240f8682870161231e565b93505060206124208682870161231e565b925050604061243186828701612372565b9150509250925092565b6000806040838503121561244e57600080fd5b600061245c8582860161231e565b925050602061246d85828601612372565b9150509250929050565b60006020828403121561248957600080fd5b600061249784828501612333565b91505092915050565b6000602082840312156124b257600080fd5b60006124c084828501612348565b91505092915050565b600080604083850312156124dc57600080fd5b60006124ea85828601612348565b92505060206124fb8582860161231e565b9150509250929050565b60006020828403121561251757600080fd5b60006125258482850161235d565b91505092915050565b60006020828403121561254057600080fd5b600061254e84828501612372565b91505092915050565b61256081613188565b82525050565b61256f8161319a565b82525050565b61257e816131a6565b82525050565b600061258f82613072565b6125998185613088565b93506125a9818560208601613213565b6125b281613300565b840191505092915050565b60006125c882613072565b6125d28185613099565b93506125e2818560208601613213565b80840191505092915050565b60006125fb602083613088565b91507f537472696e67733a20686578206c656e67746820696e73756666696369656e746000830152602082019050919050565b600061263b602383613088565b91507f45524332303a207472616e7366657220746f20746865207a65726f206164647260008301527f65737300000000000000000000000000000000000000000000000000000000006020830152604082019050919050565b60006126a1602283613088565b91507f45524332303a206275726e20616d6f756e7420657863656564732062616c616e60008301527f63650000000000000000000000000000000000000000000000000000000000006020830152604082019050919050565b6000612707602b83613088565b91507f46756e6420696e73756666696369656e7420746f2076616c696461746520746860008301527f652070757263686173652e0000000000000000000000000000000000000000006020830152604082019050919050565b600061276d602683613088565b91507f4f776e61626c653a206e6577206f776e657220697320746865207a65726f206160008301527f64647265737300000000000000000000000000000000000000000000000000006020830152604082019050919050565b60006127d3602283613088565b91507f45524332303a20617070726f766520746f20746865207a65726f20616464726560008301527f73730000000000000000000000000000000000000000000000000000000000006020830152604082019050919050565b6000612839602683613088565b91507f45524332303a207472616e7366657220616d6f756e742065786365656473206260008301527f616c616e636500000000000000000000000000000000000000000000000000006020830152604082019050919050565b600061289f601e83613088565b91507f5573657220646f206e6f74206f776e20656e6f75676820746f6b656e732e00006000830152602082019050919050565b60006128df600e8361307d565b91507f77697468647261772073656c6c730000000000000000000000000000000000006000830152600e82019050919050565b600061291f602883613088565b91507f45524332303a207472616e7366657220616d6f756e742065786365656473206160008301527f6c6c6f77616e63650000000000000000000000000000000000000000000000006020830152604082019050919050565b6000612985602083613088565b91507f4f776e61626c653a2063616c6c6572206973206e6f7420746865206f776e65726000830152602082019050919050565b60006129c5602183613088565b91507f507572636861736520697320636c6f73656420617420746865206d6f6d656e7460008301527f2e000000000000000000000000000000000000000000000000000000000000006020830152604082019050919050565b6000612a2b602183613088565b91507f45524332303a206275726e2066726f6d20746865207a65726f2061646472657360008301527f73000000000000000000000000000000000000000000000000000000000000006020830152604082019050919050565b6000612a91602583613088565b91507f45524332303a207472616e736665722066726f6d20746865207a65726f20616460008301527f64726573730000000000000000000000000000000000000000000000000000006020830152604082019050919050565b6000612af7602483613088565b91507f45524332303a20617070726f76652066726f6d20746865207a65726f2061646460008301527f72657373000000000000000000000000000000000000000000000000000000006020830152604082019050919050565b6000612b5d601783613099565b91507f416363657373436f6e74726f6c3a206163636f756e74200000000000000000006000830152601782019050919050565b6000612b9d600f83613088565b91507f7769746864726177206661696c656400000000000000000000000000000000006000830152602082019050919050565b6000612bdd602583613088565b91507f45524332303a2064656372656173656420616c6c6f77616e63652062656c6f7760008301527f207a65726f0000000000000000000000000000000000000000000000000000006020830152604082019050919050565b6000612c43601183613099565b91507f206973206d697373696e6720726f6c65200000000000000000000000000000006000830152601182019050919050565b6000612c83602f83613088565b91507f416363657373436f6e74726f6c3a2063616e206f6e6c792072656e6f756e636560008301527f20726f6c657320666f722073656c6600000000000000000000000000000000006020830152604082019050919050565b6000612ce9601f83613088565b91507f45524332303a206d696e7420746f20746865207a65726f2061646472657373006000830152602082019050919050565b612d25816131fc565b82525050565b612d3481613206565b82525050565b6000612d45826128d2565b9150819050919050565b6000612d5a82612b50565b9150612d6682856125bd565b9150612d7182612c36565b9150612d7d82846125bd565b91508190509392505050565b6000602082019050612d9e6000830184612557565b92915050565b6000602082019050612db96000830184612566565b92915050565b6000602082019050612dd46000830184612575565b92915050565b60006020820190508181036000830152612df48184612584565b905092915050565b60006020820190508181036000830152612e15816125ee565b9050919050565b60006020820190508181036000830152612e358161262e565b9050919050565b60006020820190508181036000830152612e5581612694565b9050919050565b60006020820190508181036000830152612e75816126fa565b9050919050565b60006020820190508181036000830152612e9581612760565b9050919050565b60006020820190508181036000830152612eb5816127c6565b9050919050565b60006020820190508181036000830152612ed58161282c565b9050919050565b60006020820190508181036000830152612ef581612892565b9050919050565b60006020820190508181036000830152612f1581612912565b9050919050565b60006020820190508181036000830152612f3581612978565b9050919050565b60006020820190508181036000830152612f55816129b8565b9050919050565b60006020820190508181036000830152612f7581612a1e565b9050919050565b60006020820190508181036000830152612f9581612a84565b9050919050565b60006020820190508181036000830152612fb581612aea565b9050919050565b60006020820190508181036000830152612fd581612b90565b9050919050565b60006020820190508181036000830152612ff581612bd0565b9050919050565b6000602082019050818103600083015261301581612c76565b9050919050565b6000602082019050818103600083015261303581612cdc565b9050919050565b60006020820190506130516000830184612d1c565b92915050565b600060208201905061306c6000830184612d2b565b92915050565b600081519050919050565b600081905092915050565b600082825260208201905092915050565b600081905092915050565b60006130af826131fc565b91506130ba836131fc565b9250827fffffffffffffffffffffffffffffffffffffffffffffffffffffffffffffffff038211156130ef576130ee6132a2565b5b828201905092915050565b6000613105826131fc565b9150613110836131fc565b9250817fffffffffffffffffffffffffffffffffffffffffffffffffffffffffffffffff0483118215151615613149576131486132a2565b5b828202905092915050565b600061315f826131fc565b915061316a836131fc565b92508282101561317d5761317c6132a2565b5b828203905092915050565b6000613193826131dc565b9050919050565b60008115159050919050565b6000819050919050565b60007fffffffff0000000000000000000000000000000000000000000000000000000082169050919050565b600073ffffffffffffffffffffffffffffffffffffffff82169050919050565b6000819050919050565b600060ff82169050919050565b60005b83811015613231578082015181840152602081019050613216565b83811115613240576000848401525b50505050565b6000613251826131fc565b91506000821415613265576132646132a2565b5b600182039050919050565b6000600282049050600182168061328857607f821691505b6020821081141561329c5761329b6132d1565b5b50919050565b7f4e487b7100000000000000000000000000000000000000000000000000000000600052601160045260246000fd5b7f4e487b7100000000000000000000000000000000000000000000000000000000600052602260045260246000fd5b6000601f19601f8301169050919050565b61331a81613188565b811461332557600080fd5b50565b6133318161319a565b811461333c57600080fd5b50565b613348816131a6565b811461335357600080fd5b50565b61335f816131b0565b811461336a57600080fd5b50565b613376816131fc565b811461338157600080fd5b5056fea2646970667358221220c75cd04d5f83eadf558be3dd9aaf379d2577637e34774e439620c206b519b50d64736f6c63430008000033",
  "immutableReferences": {},
  "source": "pragma solidity ^0.8.0;\r\n\r\nimport \"../BuyableToken.sol\";\r\nimport \"../BurnableToken.sol\";\r\nimport \"../GiftableToken.sol\";\r\nimport \"../CraftableToken.sol\";\r\n\r\n// SPDX-License-Identifier: MIT\r\ncontract HolyCore is BuyableToken, BurnableToken, CraftableToken, GiftableToken {\r\n    constructor(uint256 cost) ERC20(\"HolyCore\", \"CORE\") {\r\n        costPerUnit = cost;\r\n        _setupRole(DEFAULT_ADMIN_ROLE, msg.sender);\r\n        _grantRole(WITHDRAW_ROLE, msg.sender);\r\n    }\r\n}",
  "sourcePath": "C:\\Users\\10404\\Documents\\projects\\blackhole-evm\\contracts\\tokens\\ticket\\HolyCore.sol",
  "compiler": {
    "name": "solc",
    "version": "0.8.0+commit.c7dfd78e.Emscripten.clang"
  },
  "schemaVersion": "3.4.3",
  "updatedAt": "2021-12-19T10:45:24.157Z",
  "networkType": "ethereum",
  "devdoc": {
    "kind": "dev",
    "methods": {
      "allowance(address,address)": {
        "details": "See {IERC20-allowance}."
      },
      "approve(address,uint256)": {
        "details": "See {IERC20-approve}. Requirements: - `spender` cannot be the zero address."
      },
      "balanceOf(address)": {
        "details": "See {IERC20-balanceOf}."
      },
      "decimals()": {
        "details": "Returns the number of decimals used to get its user representation. For example, if `decimals` equals `2`, a balance of `505` tokens should be displayed to a user as `5.05` (`505 / 10 ** 2`). Tokens usually opt for a value of 18, imitating the relationship between Ether and Wei. This is the value {ERC20} uses, unless this function is overridden; NOTE: This information is only used for _display_ purposes: it in no way affects any of the arithmetic of the contract, including {IERC20-balanceOf} and {IERC20-transfer}."
      },
      "decreaseAllowance(address,uint256)": {
        "details": "Atomically decreases the allowance granted to `spender` by the caller. This is an alternative to {approve} that can be used as a mitigation for problems described in {IERC20-approve}. Emits an {Approval} event indicating the updated allowance. Requirements: - `spender` cannot be the zero address. - `spender` must have allowance for the caller of at least `subtractedValue`."
      },
      "getRoleAdmin(bytes32)": {
        "details": "Returns the admin role that controls `role`. See {grantRole} and {revokeRole}. To change a role's admin, use {_setRoleAdmin}."
      },
      "grantRole(bytes32,address)": {
        "details": "Grants `role` to `account`. If `account` had not been already granted `role`, emits a {RoleGranted} event. Requirements: - the caller must have ``role``'s admin role."
      },
      "hasRole(bytes32,address)": {
        "details": "Returns `true` if `account` has been granted `role`."
      },
      "increaseAllowance(address,uint256)": {
        "details": "Atomically increases the allowance granted to `spender` by the caller. This is an alternative to {approve} that can be used as a mitigation for problems described in {IERC20-approve}. Emits an {Approval} event indicating the updated allowance. Requirements: - `spender` cannot be the zero address."
      },
      "name()": {
        "details": "Returns the name of the token."
      },
      "owner()": {
        "details": "Returns the address of the current owner."
      },
      "renounceOwnership()": {
        "details": "Leaves the contract without owner. It will not be possible to call `onlyOwner` functions anymore. Can only be called by the current owner. NOTE: Renouncing ownership will leave the contract without an owner, thereby removing any functionality that is only available to the owner."
      },
      "renounceRole(bytes32,address)": {
        "details": "Revokes `role` from the calling account. Roles are often managed via {grantRole} and {revokeRole}: this function's purpose is to provide a mechanism for accounts to lose their privileges if they are compromised (such as when a trusted device is misplaced). If the calling account had been revoked `role`, emits a {RoleRevoked} event. Requirements: - the caller must be `account`."
      },
      "revokeRole(bytes32,address)": {
        "details": "Revokes `role` from `account`. If `account` had been granted `role`, emits a {RoleRevoked} event. Requirements: - the caller must have ``role``'s admin role."
      },
      "supportsInterface(bytes4)": {
        "details": "See {IERC165-supportsInterface}."
      },
      "symbol()": {
        "details": "Returns the symbol of the token, usually a shorter version of the name."
      },
      "totalSupply()": {
        "details": "See {IERC20-totalSupply}."
      },
      "transfer(address,uint256)": {
        "details": "See {IERC20-transfer}. Requirements: - `recipient` cannot be the zero address. - the caller must have a balance of at least `amount`."
      },
      "transferFrom(address,address,uint256)": {
        "details": "See {IERC20-transferFrom}. Emits an {Approval} event indicating the updated allowance. This is not required by the EIP. See the note at the beginning of {ERC20}. Requirements: - `sender` and `recipient` cannot be the zero address. - `sender` must have a balance of at least `amount`. - the caller must have allowance for ``sender``'s tokens of at least `amount`."
      },
      "transferOwnership(address)": {
        "details": "Transfers ownership of the contract to a new account (`newOwner`). Can only be called by the current owner."
      }
    },
    "version": 1
  },
  "userdoc": {
    "kind": "user",
    "methods": {
      "withdraw()": {
        "notice": "Withdraw earnings from the purchase of cores only available for given WITHDRAW_ROLE"
      }
    },
    "version": 1
  }
}