{
  "contractName": "Inventory",
  "abi": [
    {
      "inputs": [
        {
          "internalType": "address",
          "name": "nokaiStats",
          "type": "address"
        },
        {
          "internalType": "address",
          "name": "potionEssence",
          "type": "address"
        },
        {
          "internalType": "address",
          "name": "lifeEssence",
          "type": "address"
        },
        {
          "internalType": "address",
          "name": "energyShock",
          "type": "address"
        }
      ],
      "stateMutability": "nonpayable",
      "type": "constructor"
    },
    {
      "inputs": [
        {
          "internalType": "uint256",
          "name": "nokaiId",
          "type": "uint256"
        },
        {
          "internalType": "uint256",
          "name": "amount",
          "type": "uint256"
        }
      ],
      "name": "healNokai",
      "outputs": [],
      "stateMutability": "nonpayable",
      "type": "function"
    },
    {
      "inputs": [
        {
          "internalType": "uint256",
          "name": "nokaiId",
          "type": "uint256"
        }
      ],
      "name": "reviveNokai",
      "outputs": [],
      "stateMutability": "nonpayable",
      "type": "function"
    },
    {
      "inputs": [
        {
          "internalType": "uint256",
          "name": "nokaiId",
          "type": "uint256"
        },
        {
          "internalType": "uint256",
          "name": "amount",
          "type": "uint256"
        }
      ],
      "name": "energizeNokai",
      "outputs": [],
      "stateMutability": "nonpayable",
      "type": "function"
    }
  ],
  "bytecode": "0x608060405260646004556005805534801561001957600080fd5b5060405161094f38038061094f833981810160405281019061003b919061015c565b836000806101000a81548173ffffffffffffffffffffffffffffffffffffffff021916908373ffffffffffffffffffffffffffffffffffffffff16021790555082600160006101000a81548173ffffffffffffffffffffffffffffffffffffffff021916908373ffffffffffffffffffffffffffffffffffffffff16021790555081600260006101000a81548173ffffffffffffffffffffffffffffffffffffffff021916908373ffffffffffffffffffffffffffffffffffffffff16021790555080600360006101000a81548173ffffffffffffffffffffffffffffffffffffffff021916908373ffffffffffffffffffffffffffffffffffffffff16021790555050505050610208565b600081519050610156816101f1565b92915050565b6000806000806080858703121561017257600080fd5b600061018087828801610147565b945050602061019187828801610147565b93505060406101a287828801610147565b92505060606101b387828801610147565b91505092959194509250565b60006101ca826101d1565b9050919050565b600073ffffffffffffffffffffffffffffffffffffffff82169050919050565b6101fa816101bf565b811461020557600080fd5b50565b610738806102176000396000f3fe608060405234801561001057600080fd5b506004361061005e576000357c010000000000000000000000000000000000000000000000000000000090048063a1b6f96f14610063578063d1df6dd11461007f578063e9944d481461009b575b600080fd5b61007d60048036038101906100789190610515565b6100b7565b005b61009960048036038101906100949190610515565b61021c565b005b6100b560048036038101906100b091906104ec565b610381565b005b600360009054906101000a900473ffffffffffffffffffffffffffffffffffffffff1673ffffffffffffffffffffffffffffffffffffffff1663224b5c7233836040518363ffffffff167c01000000000000000000000000000000000000000000000000000000000281526004016101309291906105a7565b600060405180830381600087803b15801561014a57600080fd5b505af115801561015e573d6000803e3d6000fd5b5050505060008054906101000a900473ffffffffffffffffffffffffffffffffffffffff1673ffffffffffffffffffffffffffffffffffffffff1663599ecd8583600554846101ad9190610614565b6040518363ffffffff167c01000000000000000000000000000000000000000000000000000000000281526004016101e69291906105eb565b600060405180830381600087803b15801561020057600080fd5b505af1158015610214573d6000803e3d6000fd5b505050505050565b600160009054906101000a900473ffffffffffffffffffffffffffffffffffffffff1673ffffffffffffffffffffffffffffffffffffffff1663224b5c7233836040518363ffffffff167c01000000000000000000000000000000000000000000000000000000000281526004016102959291906105a7565b600060405180830381600087803b1580156102af57600080fd5b505af11580156102c3573d6000803e3d6000fd5b5050505060008054906101000a900473ffffffffffffffffffffffffffffffffffffffff1673ffffffffffffffffffffffffffffffffffffffff1663bddb95c183600454846103129190610614565b6040518363ffffffff167c010000000000000000000000000000000000000000000000000000000002815260040161034b9291906105eb565b600060405180830381600087803b15801561036557600080fd5b505af1158015610379573d6000803e3d6000fd5b505050505050565b600260009054906101000a900473ffffffffffffffffffffffffffffffffffffffff1673ffffffffffffffffffffffffffffffffffffffff1663224b5c723360016040518363ffffffff167c01000000000000000000000000000000000000000000000000000000000281526004016103fb92919061057e565b600060405180830381600087803b15801561041557600080fd5b505af1158015610429573d6000803e3d6000fd5b5050505060008054906101000a900473ffffffffffffffffffffffffffffffffffffffff1673ffffffffffffffffffffffffffffffffffffffff1663eebb92f5826040518263ffffffff167c01000000000000000000000000000000000000000000000000000000000281526004016104a291906105d0565b600060405180830381600087803b1580156104bc57600080fd5b505af11580156104d0573d6000803e3d6000fd5b5050505050565b6000813590506104e6816106eb565b92915050565b6000602082840312156104fe57600080fd5b600061050c848285016104d7565b91505092915050565b6000806040838503121561052857600080fd5b6000610536858286016104d7565b9250506020610547858286016104d7565b9150509250929050565b61055a8161066e565b82525050565b610569816106aa565b82525050565b610578816106a0565b82525050565b60006040820190506105936000830185610551565b6105a06020830184610560565b9392505050565b60006040820190506105bc6000830185610551565b6105c9602083018461056f565b9392505050565b60006020820190506105e5600083018461056f565b92915050565b6000604082019050610600600083018561056f565b61060d602083018461056f565b9392505050565b600061061f826106a0565b915061062a836106a0565b9250817fffffffffffffffffffffffffffffffffffffffffffffffffffffffffffffffff0483118215151615610663576106626106bc565b5b828202905092915050565b600061067982610680565b9050919050565b600073ffffffffffffffffffffffffffffffffffffffff82169050919050565b6000819050919050565b60006106b5826106a0565b9050919050565b7f4e487b7100000000000000000000000000000000000000000000000000000000600052601160045260246000fd5b6106f4816106a0565b81146106ff57600080fd5b5056fea2646970667358221220e872c83588ba1152c5b35b712d9b0571d9a4f17febd85e3c0ccaf4d53d6f66a264736f6c63430008000033",
  "immutableReferences": {},
  "source": "pragma solidity ^0.8.0;\r\n\r\nimport \"../tokens/Item.sol\";\r\nimport \"../character/Nokai.sol\";\r\n\r\n// SPDX-License-Identifier: MIT\r\ncontract Inventory {\r\n    NokaiStats private _nokaiStats;\r\n    Item private _potionEssence;\r\n    Item private _lifeEssence;\r\n    Item private _energyShock;\r\n\r\n    uint256 healPerPotion = 100;\r\n    uint256 paPerShock = 5;\r\n\r\n    constructor(address nokaiStats, address potionEssence, address lifeEssence, address energyShock) {\r\n        _nokaiStats = NokaiStats(nokaiStats);\r\n        _potionEssence = Item(potionEssence);\r\n        _lifeEssence = Item(lifeEssence);\r\n        _energyShock = Item(energyShock);\r\n    }\r\n\r\n    function healNokai(uint256 nokaiId, uint256 amount) external {\r\n        _potionEssence.consume(msg.sender, amount);\r\n        _nokaiStats.heal(nokaiId, amount * healPerPotion);\r\n    }\r\n\r\n    function reviveNokai(uint256 nokaiId) external {\r\n        _lifeEssence.consume(msg.sender, 1);\r\n        _nokaiStats.reborn(nokaiId);\r\n    }\r\n\r\n    function energizeNokai(uint256 nokaiId, uint256 amount) external {\r\n        _energyShock.consume(msg.sender, amount);\r\n        _nokaiStats.energize(nokaiId, amount * paPerShock);\r\n    }\r\n}\r\n",
  "sourcePath": "C:\\Users\\KevinGeorgesAndres\\Documents\\projects\\perso\\blackhole-evm\\contracts\\game\\Inventory.sol",
  "compiler": {
    "name": "solc",
    "version": "0.8.0+commit.c7dfd78e.Emscripten.clang"
  },
  "schemaVersion": "3.4.3",
  "updatedAt": "2021-12-13T07:48:41.925Z",
  "networkType": "ethereum",
  "devdoc": {
    "kind": "dev",
    "methods": {},
    "version": 1
  },
  "userdoc": {
    "kind": "user",
    "methods": {},
    "version": 1
  }
}