{
  "contractName": "NokaiStats",
  "abi": [
    {
      "inputs": [
        {
          "internalType": "address",
          "name": "techniquePicker",
          "type": "address"
        }
      ],
      "stateMutability": "nonpayable",
      "type": "constructor"
    },
    {
      "anonymous": false,
      "inputs": [
        {
          "indexed": true,
          "internalType": "uint256",
          "name": "nokaiId",
          "type": "uint256"
        },
        {
          "indexed": false,
          "internalType": "uint256",
          "name": "newHp",
          "type": "uint256"
        }
      ],
      "name": "NokaiDamaged",
      "type": "event"
    },
    {
      "anonymous": false,
      "inputs": [
        {
          "indexed": true,
          "internalType": "uint256",
          "name": "nokaiId",
          "type": "uint256"
        }
      ],
      "name": "NokaiEmptyEnergy",
      "type": "event"
    },
    {
      "anonymous": false,
      "inputs": [
        {
          "indexed": true,
          "internalType": "uint256",
          "name": "nokaiId",
          "type": "uint256"
        }
      ],
      "name": "NokaiEnergized",
      "type": "event"
    },
    {
      "anonymous": false,
      "inputs": [
        {
          "indexed": true,
          "internalType": "uint256",
          "name": "nokaiId",
          "type": "uint256"
        },
        {
          "indexed": false,
          "internalType": "uint256",
          "name": "amount",
          "type": "uint256"
        }
      ],
      "name": "NokaiHealed",
      "type": "event"
    },
    {
      "anonymous": false,
      "inputs": [
        {
          "indexed": true,
          "internalType": "uint256",
          "name": "nokaiId",
          "type": "uint256"
        }
      ],
      "name": "NokaiKilled",
      "type": "event"
    },
    {
      "anonymous": false,
      "inputs": [
        {
          "indexed": true,
          "internalType": "uint256",
          "name": "nokaiId",
          "type": "uint256"
        }
      ],
      "name": "NokaiReborn",
      "type": "event"
    },
    {
      "anonymous": false,
      "inputs": [
        {
          "indexed": true,
          "internalType": "bytes32",
          "name": "role",
          "type": "bytes32"
        },
        {
          "indexed": true,
          "internalType": "bytes32",
          "name": "previousAdminRole",
          "type": "bytes32"
        },
        {
          "indexed": true,
          "internalType": "bytes32",
          "name": "newAdminRole",
          "type": "bytes32"
        }
      ],
      "name": "RoleAdminChanged",
      "type": "event"
    },
    {
      "anonymous": false,
      "inputs": [
        {
          "indexed": true,
          "internalType": "bytes32",
          "name": "role",
          "type": "bytes32"
        },
        {
          "indexed": true,
          "internalType": "address",
          "name": "account",
          "type": "address"
        },
        {
          "indexed": true,
          "internalType": "address",
          "name": "sender",
          "type": "address"
        }
      ],
      "name": "RoleGranted",
      "type": "event"
    },
    {
      "anonymous": false,
      "inputs": [
        {
          "indexed": true,
          "internalType": "bytes32",
          "name": "role",
          "type": "bytes32"
        },
        {
          "indexed": true,
          "internalType": "address",
          "name": "account",
          "type": "address"
        },
        {
          "indexed": true,
          "internalType": "address",
          "name": "sender",
          "type": "address"
        }
      ],
      "name": "RoleRevoked",
      "type": "event"
    },
    {
      "inputs": [],
      "name": "DEFAULT_ADMIN_ROLE",
      "outputs": [
        {
          "internalType": "bytes32",
          "name": "",
          "type": "bytes32"
        }
      ],
      "stateMutability": "view",
      "type": "function",
      "constant": true
    },
    {
      "inputs": [],
      "name": "GAME_MANAGER_ROLE",
      "outputs": [
        {
          "internalType": "bytes32",
          "name": "",
          "type": "bytes32"
        }
      ],
      "stateMutability": "view",
      "type": "function",
      "constant": true
    },
    {
      "inputs": [],
      "name": "INVENTORY_MANAGER_ROLE",
      "outputs": [
        {
          "internalType": "bytes32",
          "name": "",
          "type": "bytes32"
        }
      ],
      "stateMutability": "view",
      "type": "function",
      "constant": true
    },
    {
      "inputs": [],
      "name": "NOKAI_MANAGER_ROLE",
      "outputs": [
        {
          "internalType": "bytes32",
          "name": "",
          "type": "bytes32"
        }
      ],
      "stateMutability": "view",
      "type": "function",
      "constant": true
    },
    {
      "inputs": [
        {
          "internalType": "bytes32",
          "name": "role",
          "type": "bytes32"
        }
      ],
      "name": "getRoleAdmin",
      "outputs": [
        {
          "internalType": "bytes32",
          "name": "",
          "type": "bytes32"
        }
      ],
      "stateMutability": "view",
      "type": "function",
      "constant": true
    },
    {
      "inputs": [
        {
          "internalType": "bytes32",
          "name": "role",
          "type": "bytes32"
        },
        {
          "internalType": "address",
          "name": "account",
          "type": "address"
        }
      ],
      "name": "grantRole",
      "outputs": [],
      "stateMutability": "nonpayable",
      "type": "function"
    },
    {
      "inputs": [
        {
          "internalType": "bytes32",
          "name": "role",
          "type": "bytes32"
        },
        {
          "internalType": "address",
          "name": "account",
          "type": "address"
        }
      ],
      "name": "hasRole",
      "outputs": [
        {
          "internalType": "bool",
          "name": "",
          "type": "bool"
        }
      ],
      "stateMutability": "view",
      "type": "function",
      "constant": true
    },
    {
      "inputs": [
        {
          "internalType": "bytes32",
          "name": "role",
          "type": "bytes32"
        },
        {
          "internalType": "address",
          "name": "account",
          "type": "address"
        }
      ],
      "name": "renounceRole",
      "outputs": [],
      "stateMutability": "nonpayable",
      "type": "function"
    },
    {
      "inputs": [
        {
          "internalType": "bytes32",
          "name": "role",
          "type": "bytes32"
        },
        {
          "internalType": "address",
          "name": "account",
          "type": "address"
        }
      ],
      "name": "revokeRole",
      "outputs": [],
      "stateMutability": "nonpayable",
      "type": "function"
    },
    {
      "inputs": [
        {
          "internalType": "bytes4",
          "name": "interfaceId",
          "type": "bytes4"
        }
      ],
      "name": "supportsInterface",
      "outputs": [
        {
          "internalType": "bool",
          "name": "",
          "type": "bool"
        }
      ],
      "stateMutability": "view",
      "type": "function",
      "constant": true
    },
    {
      "inputs": [
        {
          "internalType": "address",
          "name": "techniquePicker",
          "type": "address"
        }
      ],
      "name": "migrateNokaiTechnique",
      "outputs": [],
      "stateMutability": "nonpayable",
      "type": "function"
    },
    {
      "inputs": [
        {
          "internalType": "uint256",
          "name": "newNokaiId",
          "type": "uint256"
        }
      ],
      "name": "generateNokai",
      "outputs": [],
      "stateMutability": "nonpayable",
      "type": "function"
    },
    {
      "inputs": [
        {
          "internalType": "uint256",
          "name": "newNokaiId",
          "type": "uint256"
        }
      ],
      "name": "generateHighNokai",
      "outputs": [],
      "stateMutability": "nonpayable",
      "type": "function"
    },
    {
      "inputs": [
        {
          "internalType": "uint256",
          "name": "newNokaiId",
          "type": "uint256"
        }
      ],
      "name": "generateGodNokai",
      "outputs": [],
      "stateMutability": "nonpayable",
      "type": "function"
    },
    {
      "inputs": [
        {
          "internalType": "uint256",
          "name": "nokaiId",
          "type": "uint256"
        },
        {
          "internalType": "uint256",
          "name": "targetId",
          "type": "uint256"
        },
        {
          "internalType": "enum NokaiStats.StatType",
          "name": "upgradeChoice",
          "type": "uint8"
        }
      ],
      "name": "upgradeFromNokaiBurn",
      "outputs": [],
      "stateMutability": "nonpayable",
      "type": "function"
    },
    {
      "inputs": [
        {
          "internalType": "uint256",
          "name": "nokaiId",
          "type": "uint256"
        },
        {
          "internalType": "uint256",
          "name": "newHp",
          "type": "uint256"
        }
      ],
      "name": "damage",
      "outputs": [],
      "stateMutability": "nonpayable",
      "type": "function"
    },
    {
      "inputs": [
        {
          "internalType": "uint256",
          "name": "nokaiId",
          "type": "uint256"
        }
      ],
      "name": "reborn",
      "outputs": [],
      "stateMutability": "nonpayable",
      "type": "function"
    },
    {
      "inputs": [
        {
          "internalType": "uint256",
          "name": "nokaiId",
          "type": "uint256"
        },
        {
          "internalType": "uint256",
          "name": "amount",
          "type": "uint256"
        }
      ],
      "name": "heal",
      "outputs": [],
      "stateMutability": "nonpayable",
      "type": "function"
    },
    {
      "inputs": [
        {
          "internalType": "uint256",
          "name": "nokaiId",
          "type": "uint256"
        },
        {
          "internalType": "uint256",
          "name": "pa",
          "type": "uint256"
        }
      ],
      "name": "energize",
      "outputs": [],
      "stateMutability": "nonpayable",
      "type": "function"
    },
    {
      "inputs": [
        {
          "internalType": "uint256",
          "name": "nokaiId",
          "type": "uint256"
        },
        {
          "internalType": "uint256",
          "name": "_pa",
          "type": "uint256"
        }
      ],
      "name": "didAction",
      "outputs": [],
      "stateMutability": "nonpayable",
      "type": "function"
    },
    {
      "inputs": [
        {
          "internalType": "uint256",
          "name": "nokaiId",
          "type": "uint256"
        }
      ],
      "name": "profile",
      "outputs": [
        {
          "components": [
            {
              "components": [
                {
                  "internalType": "uint256",
                  "name": "hp",
                  "type": "uint256"
                },
                {
                  "internalType": "uint256",
                  "name": "attack",
                  "type": "uint256"
                },
                {
                  "internalType": "uint256",
                  "name": "defense",
                  "type": "uint256"
                },
                {
                  "internalType": "uint256",
                  "name": "regen",
                  "type": "uint256"
                },
                {
                  "internalType": "uint256",
                  "name": "pa",
                  "type": "uint256"
                },
                {
                  "internalType": "uint256",
                  "name": "gradeValue",
                  "type": "uint256"
                },
                {
                  "internalType": "enum NokaiStats.Rarity",
                  "name": "grade",
                  "type": "uint8"
                },
                {
                  "internalType": "enum NokaiTechnique.Technique",
                  "name": "technique1",
                  "type": "uint8"
                },
                {
                  "internalType": "enum NokaiTechnique.Technique",
                  "name": "technique2",
                  "type": "uint8"
                }
              ],
              "internalType": "struct NokaiStats.Stats",
              "name": "stats",
              "type": "tuple"
            },
            {
              "internalType": "uint256",
              "name": "currentHp",
              "type": "uint256"
            },
            {
              "internalType": "uint256",
              "name": "currentPa",
              "type": "uint256"
            },
            {
              "internalType": "bool",
              "name": "dead",
              "type": "bool"
            },
            {
              "internalType": "bool",
              "name": "burned",
              "type": "bool"
            },
            {
              "internalType": "uint256",
              "name": "lastHpSet",
              "type": "uint256"
            },
            {
              "internalType": "uint256",
              "name": "lastPaSet",
              "type": "uint256"
            }
          ],
          "internalType": "struct NokaiStats.Profile",
          "name": "",
          "type": "tuple"
        }
      ],
      "stateMutability": "view",
      "type": "function",
      "constant": true
    },
    {
      "inputs": [
        {
          "internalType": "uint256[]",
          "name": "nokaiIds",
          "type": "uint256[]"
        }
      ],
      "name": "profiles",
      "outputs": [
        {
          "components": [
            {
              "components": [
                {
                  "internalType": "uint256",
                  "name": "hp",
                  "type": "uint256"
                },
                {
                  "internalType": "uint256",
                  "name": "attack",
                  "type": "uint256"
                },
                {
                  "internalType": "uint256",
                  "name": "defense",
                  "type": "uint256"
                },
                {
                  "internalType": "uint256",
                  "name": "regen",
                  "type": "uint256"
                },
                {
                  "internalType": "uint256",
                  "name": "pa",
                  "type": "uint256"
                },
                {
                  "internalType": "uint256",
                  "name": "gradeValue",
                  "type": "uint256"
                },
                {
                  "internalType": "enum NokaiStats.Rarity",
                  "name": "grade",
                  "type": "uint8"
                },
                {
                  "internalType": "enum NokaiTechnique.Technique",
                  "name": "technique1",
                  "type": "uint8"
                },
                {
                  "internalType": "enum NokaiTechnique.Technique",
                  "name": "technique2",
                  "type": "uint8"
                }
              ],
              "internalType": "struct NokaiStats.Stats",
              "name": "stats",
              "type": "tuple"
            },
            {
              "internalType": "uint256",
              "name": "currentHp",
              "type": "uint256"
            },
            {
              "internalType": "uint256",
              "name": "currentPa",
              "type": "uint256"
            },
            {
              "internalType": "bool",
              "name": "dead",
              "type": "bool"
            },
            {
              "internalType": "bool",
              "name": "burned",
              "type": "bool"
            },
            {
              "internalType": "uint256",
              "name": "lastHpSet",
              "type": "uint256"
            },
            {
              "internalType": "uint256",
              "name": "lastPaSet",
              "type": "uint256"
            }
          ],
          "internalType": "struct NokaiStats.Profile[]",
          "name": "",
          "type": "tuple[]"
        }
      ],
      "stateMutability": "view",
      "type": "function",
      "constant": true
    }
  ],
  "bytecode": "0x60806040523480156200001157600080fd5b50604051620047b0380380620047b0833981810160405281019062000037919062000249565b80600160006101000a81548173ffffffffffffffffffffffffffffffffffffffff021916908373ffffffffffffffffffffffffffffffffffffffff160217905550620000976000600102336200009e640100000000026401000000009004565b50620002c3565b620000b98282620000bd640100000000026401000000009004565b5050565b620000d88282620001c0640100000000026401000000009004565b620001bc57600160008084815260200190815260200160002060000160008373ffffffffffffffffffffffffffffffffffffffff1673ffffffffffffffffffffffffffffffffffffffff16815260200190815260200160002060006101000a81548160ff021916908315150217905550620001616200022a640100000000026401000000009004565b73ffffffffffffffffffffffffffffffffffffffff168173ffffffffffffffffffffffffffffffffffffffff16837f2f8788117e7eff1d82e926ec794901d17c78024a50270940304540a733656f0d60405160405180910390a45b5050565b600080600084815260200190815260200160002060000160008373ffffffffffffffffffffffffffffffffffffffff1673ffffffffffffffffffffffffffffffffffffffff16815260200190815260200160002060009054906101000a900460ff16905092915050565b600033905090565b6000815190506200024381620002a9565b92915050565b6000602082840312156200025c57600080fd5b60006200026c8482850162000232565b91505092915050565b6000620002828262000289565b9050919050565b600073ffffffffffffffffffffffffffffffffffffffff82169050919050565b620002b48162000275565b8114620002c057600080fd5b50565b6144dd80620002d36000396000f3fe608060405234801561001057600080fd5b506004361061015f576000357c0100000000000000000000000000000000000000000000000000000000900480636b2084b5116100d5578063bddb95c111610099578063bddb95c11461038e578063d547741f146103aa578063eebb92f5146103c6578063f3fc7b24146103e2578063f6e253e3146103fe578063ff6fcdbd1461041a5761015f565b80636b2084b5146102c457806372cd2b1a146102f457806376c312dd1461032457806391d1485414610340578063a217fddf146103705761015f565b8063248a9ca311610127578063248a9ca3146102065780632b54c4c1146102365780632f2ff15d1461025257806336568abe1461026e5780633dc9dcaf1461028a578063599ecd85146102a85761015f565b806301ffc9a7146101645780630cac7f7c146101945780631093a012146101b0578063125fcabe146101cc57806315a2bf6f146101ea575b600080fd5b61017e600480360381019061017991906136b7565b610438565b60405161018b9190613e7b565b60405180910390f35b6101ae60048036038101906101a99190613732565b6104b2565b005b6101ca60048036038101906101c5919061376e565b61059a565b005b6101d4610cf7565b6040516101e19190613e96565b60405180910390f35b61020460048036038101906101ff91906135e4565b610d1b565b005b610220600480360381019061021b9190613652565b610d76565b60405161022d9190613e96565b60405180910390f35b610250600480360381019061024b9190613709565b610d95565b005b61026c6004803603810190610267919061367b565b611338565b005b6102886004803603810190610283919061367b565b611361565b005b6102926113e4565b60405161029f9190613e96565b60405180910390f35b6102c260048036038101906102bd9190613732565b611408565b005b6102de60048036038101906102d9919061360d565b6115f5565b6040516102eb9190613e59565b60405180910390f35b61030e60048036038101906103099190613709565b611b4c565b60405161031b9190613fd3565b60405180910390f35b61033e60048036038101906103399190613709565b611e06565b005b61035a6004803603810190610355919061367b565b611f4e565b6040516103679190613e7b565b60405180910390f35b610378611fb8565b6040516103859190613e96565b60405180910390f35b6103a860048036038101906103a39190613732565b611fc0565b005b6103c460048036038101906103bf919061367b565b6121b8565b005b6103e060048036038101906103db9190613709565b6121e1565b005b6103fc60048036038101906103f79190613732565b612396565b005b61041860048036038101906104139190613709565b612596565b005b6104226126c6565b60405161042f9190613e96565b60405180910390f35b60007f7965db0b000000000000000000000000000000000000000000000000000000007bffffffffffffffffffffffffffffffffffffffffffffffffffffffff1916827bffffffffffffffffffffffffffffffffffffffffffffffffffffffff191614806104ab57506104aa826126ea565b5b9050919050565b7fef17b1f3c5a412f9c8e887e3abd186802afec7dc657fd3b7002bf87b128dd0b16104e4816104df612754565b61275c565b60006104ef846127fa565b90504260026000868152602001908152602001600020600b01819055506000838261051a919061414b565b1161056d5760006002600086815260200190815260200160002060080181905550837f1aa643fe068ff179d442fe9f05de8dafb322853165c2d669796210e44cdd41e060405160405180910390a2610594565b8281610579919061414b565b60026000868152602001908152602001600020600801819055505b50505050565b7f8148235029d65678fdc6628a7b47cd99e73930cd0850fa4f5f1371b66f605a896105cc816105c7612754565b61275c565b600015156002600086815260200190815260200160002060090160009054906101000a900460ff16151514610636576040517f08c379a000000000000000000000000000000000000000000000000000000000815260040161062d90613f93565b60405180910390fd5b600015156002600085815260200190815260200160002060090160009054906101000a900460ff161515146106a0576040517f08c379a000000000000000000000000000000000000000000000000000000000815260040161069790613f13565b60405180910390fd5b600015156002600086815260200190815260200160002060090160019054906101000a900460ff1615151461070a576040517f08c379a000000000000000000000000000000000000000000000000000000000815260040161070190613f33565b60405180910390fd5b600015156002600085815260200190815260200160002060090160019054906101000a900460ff16151514610774576040517f08c379a000000000000000000000000000000000000000000000000000000000815260040161076b90613ef3565b60405180910390fd5b6002600084815260200190815260200160002060000160050154600260008681526020019081526020016000206000016005015410156107e9576040517f08c379a00000000000000000000000000000000000000000000000000000000081526004016107e090613f53565b60405180910390fd5b60016002600085815260200190815260200160002060090160016101000a81548160ff02191690831515021790555060006004811115610852577f4e487b7100000000000000000000000000000000000000000000000000000000600052602160045260246000fd5b82600481111561088b577f4e487b7100000000000000000000000000000000000000000000000000000000600052602160045260246000fd5b141561091a5760646002806000868152602001908152602001600020600001600501546108b891906140f1565b60026000868152602001908152602001600020600001600001546108dc91906140f1565b6108e691906140c0565b60026000868152602001908152602001600020600001600001600082825461090e919061406a565b92505081905550610cf1565b60016004811115610954577f4e487b7100000000000000000000000000000000000000000000000000000000600052602160045260246000fd5b82600481111561098d577f4e487b7100000000000000000000000000000000000000000000000000000000600052602160045260246000fd5b1415610a1c5760646002806000868152602001908152602001600020600001600501546109ba91906140f1565b60026000868152602001908152602001600020600001600101546109de91906140f1565b6109e891906140c0565b600260008681526020019081526020016000206000016001016000828254610a10919061406a565b92505081905550610cf0565b60026004811115610a56577f4e487b7100000000000000000000000000000000000000000000000000000000600052602160045260246000fd5b826004811115610a8f577f4e487b7100000000000000000000000000000000000000000000000000000000600052602160045260246000fd5b1415610b1e576064600280600086815260200190815260200160002060000160050154610abc91906140f1565b6002600086815260200190815260200160002060000160020154610ae091906140f1565b610aea91906140c0565b600260008681526020019081526020016000206000016002016000828254610b12919061406a565b92505081905550610cef565b60036004811115610b58577f4e487b7100000000000000000000000000000000000000000000000000000000600052602160045260246000fd5b826004811115610b91577f4e487b7100000000000000000000000000000000000000000000000000000000600052602160045260246000fd5b1415610c20576064600280600086815260200190815260200160002060000160050154610bbe91906140f1565b6002600086815260200190815260200160002060000160030154610be291906140f1565b610bec91906140c0565b600260008681526020019081526020016000206000016003016000828254610c14919061406a565b92505081905550610cee565b600480811115610c59577f4e487b7100000000000000000000000000000000000000000000000000000000600052602160045260246000fd5b826004811115610c92577f4e487b7100000000000000000000000000000000000000000000000000000000600052602160045260246000fd5b1415610ced57600280600085815260200190815260200160002060000160050154610cbd91906140c0565b600260008681526020019081526020016000206000016004016000828254610ce5919061406a565b925050819055505b5b5b5b5b50505050565b7f70d2ef7b36d4d736c45b93d416eb05228e962106468d1bcabdf09a53d30ad8f681565b6000600102610d3181610d2c612754565b61275c565b81600160006101000a81548173ffffffffffffffffffffffffffffffffffffffff021916908373ffffffffffffffffffffffffffffffffffffffff1602179055505050565b6000806000838152602001908152602001600020600101549050919050565b7f8148235029d65678fdc6628a7b47cd99e73930cd0850fa4f5f1371b66f605a89610dc781610dc2612754565b61275c565b60006103b66002610dd9856064612853565b610de391906140c0565b610ded919061406a565b90506040518060e0016040528060405180610120016040528084815260200160b46002610e2760018a610e20919061406a565b600a612853565b610e3191906140f1565b610e3b919061406a565b8152602001605a610e59600389610e52919061406a565b600a612853565b610e63919061406a565b8152602001605a610e81600389610e7a919061406a565b600a612853565b610e8b919061406a565b8152602001600a81526020016001600580811115610ed2577f4e487b7100000000000000000000000000000000000000000000000000000000600052602160045260246000fd5b610edc919061406a565b8152602001600580811115610f1a577f4e487b7100000000000000000000000000000000000000000000000000000000600052602160045260246000fd5b8152602001600160009054906101000a900473ffffffffffffffffffffffffffffffffffffffff1673ffffffffffffffffffffffffffffffffffffffff16639507d39a600589610f6a919061406a565b6040518263ffffffff167c0100000000000000000000000000000000000000000000000000000000028152600401610fa29190613fef565b60206040518083038186803b158015610fba57600080fd5b505afa158015610fce573d6000803e3d6000fd5b505050506040513d601f19601f82011682018060405250810190610ff291906136e0565b600981111561102a577f4e487b7100000000000000000000000000000000000000000000000000000000600052602160045260246000fd5b8152602001600160009054906101000a900473ffffffffffffffffffffffffffffffffffffffff1673ffffffffffffffffffffffffffffffffffffffff16639507d39a60068961107a919061406a565b6040518263ffffffff167c01000000000000000000000000000000000000000000000000000000000281526004016110b29190613fef565b60206040518083038186803b1580156110ca57600080fd5b505afa1580156110de573d6000803e3d6000fd5b505050506040513d601f19601f8201168201806040525081019061110291906136e0565b600981111561113a577f4e487b7100000000000000000000000000000000000000000000000000000000600052602160045260246000fd5b8152508152602001828152602001600a81526020016000151581526020016000151581526020014281526020014281525060026000858152602001908152602001600020600082015181600001600082015181600001556020820151816001015560408201518160020155606082015181600301556080820151816004015560a0820151816005015560c08201518160060160006101000a81548160ff02191690836005811115611214577f4e487b7100000000000000000000000000000000000000000000000000000000600052602160045260246000fd5b021790555060e08201518160060160016101000a81548160ff0219169083600981111561126a577f4e487b7100000000000000000000000000000000000000000000000000000000600052602160045260246000fd5b02179055506101008201518160060160026101000a81548160ff021916908360098111156112c1577f4e487b7100000000000000000000000000000000000000000000000000000000600052602160045260246000fd5b02179055505050602082015181600701556040820151816008015560608201518160090160006101000a81548160ff02191690831515021790555060808201518160090160016101000a81548160ff02191690831515021790555060a082015181600a015560c082015181600b0155905050505050565b61134182610d76565b6113528161134d612754565b61275c565b61135c8383612897565b505050565b611369612754565b73ffffffffffffffffffffffffffffffffffffffff168173ffffffffffffffffffffffffffffffffffffffff16146113d6576040517f08c379a00000000000000000000000000000000000000000000000000000000081526004016113cd90613fb3565b60405180910390fd5b6113e08282612977565b5050565b7f8148235029d65678fdc6628a7b47cd99e73930cd0850fa4f5f1371b66f605a8981565b7f70d2ef7b36d4d736c45b93d416eb05228e962106468d1bcabdf09a53d30ad8f661143a81611435612754565b61275c565b600015156002600085815260200190815260200160002060090160009054906101000a900460ff161515146114a4576040517f08c379a000000000000000000000000000000000000000000000000000000000815260040161149b90613f93565b60405180910390fd5b600015156002600085815260200190815260200160002060090160019054906101000a900460ff1615151461150e576040517f08c379a000000000000000000000000000000000000000000000000000000000815260040161150590613f33565b60405180910390fd5b6000611519846127fa565b90504260026000868152602001908152602001600020600b01819055506002600085815260200190815260200160002060000160040154838261155c919061406a565b111561159b57600260008581526020019081526020016000206000016004015460026000868152602001908152602001600020600801819055506115c2565b82816115a7919061406a565b60026000868152602001908152602001600020600801819055505b837f7b1c614d83562a30b8f2320242e1bf3883fcbb15dec65aa139fdef6a93f8870660405160405180910390a250505050565b606060008383905067ffffffffffffffff81111561163c577f4e487b7100000000000000000000000000000000000000000000000000000000600052604160045260246000fd5b60405190808252806020026020018201604052801561167557816020015b6116626133e1565b81526020019060019003908161165a5790505b50905060005b84849050811015611b41576040518060e00160405280600260008888868181106116ce577f4e487b7100000000000000000000000000000000000000000000000000000000600052603260045260246000fd5b905060200201358152602001908152602001600020600001604051806101200160405290816000820154815260200160018201548152602001600282015481526020016003820154815260200160048201548152602001600582015481526020016006820160009054906101000a900460ff166005811115611779577f4e487b7100000000000000000000000000000000000000000000000000000000600052602160045260246000fd5b60058111156117b1577f4e487b7100000000000000000000000000000000000000000000000000000000600052602160045260246000fd5b81526020016006820160019054906101000a900460ff166009811115611800577f4e487b7100000000000000000000000000000000000000000000000000000000600052602160045260246000fd5b6009811115611838577f4e487b7100000000000000000000000000000000000000000000000000000000600052602160045260246000fd5b81526020016006820160029054906101000a900460ff166009811115611887577f4e487b7100000000000000000000000000000000000000000000000000000000600052602160045260246000fd5b60098111156118bf577f4e487b7100000000000000000000000000000000000000000000000000000000600052602160045260246000fd5b815250508152602001611910878785818110611904577f4e487b7100000000000000000000000000000000000000000000000000000000600052603260045260246000fd5b90506020020135612a58565b815260200161195d878785818110611951577f4e487b7100000000000000000000000000000000000000000000000000000000600052603260045260246000fd5b905060200201356127fa565b81526020016002600088888681811061199f577f4e487b7100000000000000000000000000000000000000000000000000000000600052603260045260246000fd5b90506020020135815260200190815260200160002060090160009054906101000a900460ff161515815260200160026000888886818110611a09577f4e487b7100000000000000000000000000000000000000000000000000000000600052603260045260246000fd5b90506020020135815260200190815260200160002060090160019054906101000a900460ff161515815260200160026000888886818110611a73577f4e487b7100000000000000000000000000000000000000000000000000000000600052603260045260246000fd5b905060200201358152602001908152602001600020600a0154815260200160026000888886818110611ace577f4e487b7100000000000000000000000000000000000000000000000000000000600052603260045260246000fd5b905060200201358152602001908152602001600020600b0154815250828281518110611b23577f4e487b7100000000000000000000000000000000000000000000000000000000600052603260045260246000fd5b60200260200101819052508080611b39906142a4565b91505061167b565b508091505092915050565b611b546133e1565b6040518060e0016040528060026000858152602001908152602001600020600001604051806101200160405290816000820154815260200160018201548152602001600282015481526020016003820154815260200160048201548152602001600582015481526020016006820160009054906101000a900460ff166005811115611c08577f4e487b7100000000000000000000000000000000000000000000000000000000600052602160045260246000fd5b6005811115611c40577f4e487b7100000000000000000000000000000000000000000000000000000000600052602160045260246000fd5b81526020016006820160019054906101000a900460ff166009811115611c8f577f4e487b7100000000000000000000000000000000000000000000000000000000600052602160045260246000fd5b6009811115611cc7577f4e487b7100000000000000000000000000000000000000000000000000000000600052602160045260246000fd5b81526020016006820160029054906101000a900460ff166009811115611d16577f4e487b7100000000000000000000000000000000000000000000000000000000600052602160045260246000fd5b6009811115611d4e577f4e487b7100000000000000000000000000000000000000000000000000000000600052602160045260246000fd5b815250508152602001611d6084612a58565b8152602001611d6e846127fa565b81526020016002600085815260200190815260200160002060090160009054906101000a900460ff16151581526020016002600085815260200190815260200160002060090160019054906101000a900460ff161515815260200160026000858152602001908152602001600020600a0154815260200160026000858152602001908152602001600020600b01548152509050919050565b7f8148235029d65678fdc6628a7b47cd99e73930cd0850fa4f5f1371b66f605a89611e3881611e33612754565b61275c565b611f4a82611e6b6102bc6003611e4f876064612853565b611e5991906140f1565b611e63919061406a565b6103e8612ad5565b611ea460966005611e89600189611e82919061406a565b600a612853565b611e9391906140f1565b611e9d919061406a565b60c8612ad5565b611edd60466003611ec260028a611ebb919061406a565b600a612853565b611ecc91906140f1565b611ed6919061406a565b6064612ad5565b611f1660466003611efb60038b611ef4919061406a565b600a612853565b611f0591906140f1565b611f0f919061406a565b6064612ad5565b60056002611f3160048b611f2a919061406a565b600a612853565b611f3b91906140c0565b611f45919061406a565b612aee565b5050565b600080600084815260200190815260200160002060000160008373ffffffffffffffffffffffffffffffffffffffff1673ffffffffffffffffffffffffffffffffffffffff16815260200190815260200160002060009054906101000a900460ff16905092915050565b600060010281565b7f70d2ef7b36d4d736c45b93d416eb05228e962106468d1bcabdf09a53d30ad8f6611ff281611fed612754565b61275c565b600015156002600085815260200190815260200160002060090160009054906101000a900460ff1615151461205c576040517f08c379a000000000000000000000000000000000000000000000000000000000815260040161205390613f93565b60405180910390fd5b600015156002600085815260200190815260200160002060090160019054906101000a900460ff161515146120c6576040517f08c379a00000000000000000000000000000000000000000000000000000000081526004016120bd90613f33565b60405180910390fd5b60006120d184612a58565b90504260026000868152602001908152602001600020600a018190555060026000858152602001908152602001600020600001600001548382612114919061406a565b1115612153576002600085815260200190815260200160002060000160000154600260008681526020019081526020016000206007018190555061217a565b828161215f919061406a565b60026000868152602001908152602001600020600701819055505b837f768c62cbb4f04d72e0da3f6fdc173729920788d5f0ece38ec2439b68c1e5cd5c846040516121aa9190613fef565b60405180910390a250505050565b6121c182610d76565b6121d2816121cd612754565b61275c565b6121dc8383612977565b505050565b7f70d2ef7b36d4d736c45b93d416eb05228e962106468d1bcabdf09a53d30ad8f66122138161220e612754565b61275c565b600115156002600084815260200190815260200160002060090160009054906101000a900460ff1615151461227d576040517f08c379a000000000000000000000000000000000000000000000000000000000815260040161227490613f73565b60405180910390fd5b600015156002600084815260200190815260200160002060090160019054906101000a900460ff161515146122e7576040517f08c379a00000000000000000000000000000000000000000000000000000000081526004016122de90613f33565b60405180910390fd5b4260026000848152602001908152602001600020600a01819055506002600083815260200190815260200160002060000160000154600260008481526020019081526020016000206007018190555060006002600084815260200190815260200160002060090160006101000a81548160ff021916908315150217905550817fb9361f9981ef0c1c1f7eb5f84ddc5c86856399e50544a74c4974cf0b31ad80d360405160405180910390a25050565b7fef17b1f3c5a412f9c8e887e3abd186802afec7dc657fd3b7002bf87b128dd0b16123c8816123c3612754565b61275c565b600015156002600085815260200190815260200160002060090160009054906101000a900460ff16151514612432576040517f08c379a000000000000000000000000000000000000000000000000000000000815260040161242990613f93565b60405180910390fd5b600015156002600085815260200190815260200160002060090160019054906101000a900460ff1615151461249c576040517f08c379a000000000000000000000000000000000000000000000000000000000815260040161249390613f33565b60405180910390fd5b4260026000858152602001908152602001600020600a0181905550600082141561253d576000600260008581526020019081526020016000206007018190555060016002600085815260200190815260200160002060090160006101000a81548160ff021916908315150217905550827fbf807412a0d12ad8247319f96b9e2e6e6550c7fac3563024db59ae868b9bdd1560405160405180910390a2612591565b816002600085815260200190815260200160002060070181905550827f963956ffc98b7d1f745416434f4737fb6e8b1316f26e96a9c04431f2235b6421836040516125889190613fef565b60405180910390a25b505050565b7f8148235029d65678fdc6628a7b47cd99e73930cd0850fa4f5f1371b66f605a896125c8816125c3612754565b61275c565b6126c2826125fa60c860086125de876064612853565b6125e891906140f1565b6125f2919061406a565b6103e8612ad5565b61263460146008612618600189612611919061406a565b600a612853565b61262291906140f1565b61262c919061406a565b610898612ad5565b61266d600a600961265260028a61264b919061406a565b600a612853565b61265c91906140f1565b612666919061406a565b6064612ad5565b6126a66014600861268b60038b612684919061406a565b600a612853565b61269591906140f1565b61269f919061406a565b6064612ad5565b6126bd6004896126b6919061406a565b600a612853565b612aee565b5050565b7fef17b1f3c5a412f9c8e887e3abd186802afec7dc657fd3b7002bf87b128dd0b181565b60007f01ffc9a7000000000000000000000000000000000000000000000000000000007bffffffffffffffffffffffffffffffffffffffffffffffffffffffff1916827bffffffffffffffffffffffffffffffffffffffffffffffffffffffff1916149050919050565b600033905090565b6127668282611f4e565b6127f65761278b8173ffffffffffffffffffffffffffffffffffffffff166014612fff565b61279a83600190046020612fff565b6040516020016127ab929190613de2565b6040516020818303038152906040526040517f08c379a00000000000000000000000000000000000000000000000000000000081526004016127ed9190613eb1565b60405180910390fd5b5050565b6000611c2060026000848152602001908152602001600020600a015442612821919061414b565b61282b91906140c0565b600260008481526020019081526020016000206008015461284c919061406a565b9050919050565b60008142338560405160200161286b93929190613e1c565b604051602081830303815290604052805190602001206001900461288f919061431b565b905092915050565b6128a18282611f4e565b61297357600160008084815260200190815260200160002060000160008373ffffffffffffffffffffffffffffffffffffffff1673ffffffffffffffffffffffffffffffffffffffff16815260200190815260200160002060006101000a81548160ff021916908315150217905550612918612754565b73ffffffffffffffffffffffffffffffffffffffff168173ffffffffffffffffffffffffffffffffffffffff16837f2f8788117e7eff1d82e926ec794901d17c78024a50270940304540a733656f0d60405160405180910390a45b5050565b6129818282611f4e565b15612a5457600080600084815260200190815260200160002060000160008373ffffffffffffffffffffffffffffffffffffffff1673ffffffffffffffffffffffffffffffffffffffff16815260200190815260200160002060006101000a81548160ff0219169083151502179055506129f9612754565b73ffffffffffffffffffffffffffffffffffffffff168173ffffffffffffffffffffffffffffffffffffffff16837ff6391f5c32d9c69d2a47ea670b442974b53935d1edc7fd64eb21e047a839171b60405160405180910390a45b5050565b6000610e1060026000848152602001908152602001600020600a015442612a7f919061414b565b612a8991906140c0565b6002600084815260200190815260200160002060000160030154612aad91906140f1565b6002600084815260200190815260200160002060070154612ace919061406a565b9050919050565b6000818310612ae45781612ae6565b825b905092915050565b60008190506002821015612b055760029050612b14565b6008821115612b1357600890505b5b6000612b238787878786613320565b90506040518060e001604052806040518061012001604052808a81526020018981526020018881526020018781526020018581526020016001856005811115612b95577f4e487b7100000000000000000000000000000000000000000000000000000000600052602160045260246000fd5b612b9f919061406a565b8152602001846005811115612bdd577f4e487b7100000000000000000000000000000000000000000000000000000000600052602160045260246000fd5b8152602001600160009054906101000a900473ffffffffffffffffffffffffffffffffffffffff1673ffffffffffffffffffffffffffffffffffffffff16639507d39a60058e612c2d919061406a565b6040518263ffffffff167c0100000000000000000000000000000000000000000000000000000000028152600401612c659190613fef565b60206040518083038186803b158015612c7d57600080fd5b505afa158015612c91573d6000803e3d6000fd5b505050506040513d601f19601f82011682018060405250810190612cb591906136e0565b6009811115612ced577f4e487b7100000000000000000000000000000000000000000000000000000000600052602160045260246000fd5b8152602001600160009054906101000a900473ffffffffffffffffffffffffffffffffffffffff1673ffffffffffffffffffffffffffffffffffffffff16639507d39a60068e612d3d919061406a565b6040518263ffffffff167c0100000000000000000000000000000000000000000000000000000000028152600401612d759190613fef565b60206040518083038186803b158015612d8d57600080fd5b505afa158015612da1573d6000803e3d6000fd5b505050506040513d601f19601f82011682018060405250810190612dc591906136e0565b6009811115612dfd577f4e487b7100000000000000000000000000000000000000000000000000000000600052602160045260246000fd5b815250815260200188815260200183815260200160001515815260200160001515815260200142815260200142815250600260008a8152602001908152602001600020600082015181600001600082015181600001556020820151816001015560408201518160020155606082015181600301556080820151816004015560a0820151816005015560c08201518160060160006101000a81548160ff02191690836005811115612ed6577f4e487b7100000000000000000000000000000000000000000000000000000000600052602160045260246000fd5b021790555060e08201518160060160016101000a81548160ff02191690836009811115612f2c577f4e487b7100000000000000000000000000000000000000000000000000000000600052602160045260246000fd5b02179055506101008201518160060160026101000a81548160ff02191690836009811115612f83577f4e487b7100000000000000000000000000000000000000000000000000000000600052602160045260246000fd5b02179055505050602082015181600701556040820151816008015560608201518160090160006101000a81548160ff02191690831515021790555060808201518160090160016101000a81548160ff02191690831515021790555060a082015181600a015560c082015181600b01559050505050505050505050565b60606000600283600261301291906140f1565b61301c919061406a565b67ffffffffffffffff81111561305b577f4e487b7100000000000000000000000000000000000000000000000000000000600052604160045260246000fd5b6040519080825280601f01601f19166020018201604052801561308d5781602001600182028036833780820191505090505b5090507f3000000000000000000000000000000000000000000000000000000000000000816000815181106130eb577f4e487b7100000000000000000000000000000000000000000000000000000000600052603260045260246000fd5b60200101907effffffffffffffffffffffffffffffffffffffffffffffffffffffffffffff1916908160001a9053507f780000000000000000000000000000000000000000000000000000000000000081600181518110613175577f4e487b7100000000000000000000000000000000000000000000000000000000600052603260045260246000fd5b60200101907effffffffffffffffffffffffffffffffffffffffffffffffffffffffffffff1916908160001a905350600060018460026131b591906140f1565b6131bf919061406a565b90505b60018111156132d2577f3031323334353637383961626364656600000000000000000000000000000000600f861660108110613227577f4e487b7100000000000000000000000000000000000000000000000000000000600052603260045260246000fd5b1a7f010000000000000000000000000000000000000000000000000000000000000002828281518110613283577f4e487b7100000000000000000000000000000000000000000000000000000000600052603260045260246000fd5b60200101907effffffffffffffffffffffffffffffffffffffffffffffffffffffffffffff1916908160001a905350600485908060020a82049150509450806132cb9061427a565b90506131c2565b5060008414613316576040517f08c379a000000000000000000000000000000000000000000000000000000000815260040161330d90613ed3565b60405180910390fd5b8091505092915050565b600080600a8461333091906140f1565b60648461333d91906140f1565b600a8761334a91906140f1565b60058961335791906140f1565b8a613362919061406a565b61336c919061406a565b613376919061406a565b613380919061406a565b90506111f88111156133965760049150506133d8565b610fa08111156133aa5760039150506133d8565b610bb88111156133be5760029150506133d8565b6105dc8111156133d25760019150506133d8565b60009150505b95945050505050565b6040518060e001604052806133f4613428565b8152602001600081526020016000815260200160001515815260200160001515815260200160008152602001600081525090565b60405180610120016040528060008152602001600081526020016000815260200160008152602001600081526020016000815260200160006005811115613498577f4e487b7100000000000000000000000000000000000000000000000000000000600052602160045260246000fd5b8152602001600060098111156134d7577f4e487b7100000000000000000000000000000000000000000000000000000000600052602160045260246000fd5b815260200160006009811115613516577f4e487b7100000000000000000000000000000000000000000000000000000000600052602160045260246000fd5b81525090565b60008135905061352b8161442b565b92915050565b60008083601f84011261354357600080fd5b8235905067ffffffffffffffff81111561355c57600080fd5b60208301915083602082028301111561357457600080fd5b9250929050565b60008135905061358a81614442565b92915050565b60008135905061359f81614459565b92915050565b6000813590506135b481614470565b92915050565b6000815190506135c981614480565b92915050565b6000813590506135de81614490565b92915050565b6000602082840312156135f657600080fd5b60006136048482850161351c565b91505092915050565b6000806020838503121561362057600080fd5b600083013567ffffffffffffffff81111561363a57600080fd5b61364685828601613531565b92509250509250929050565b60006020828403121561366457600080fd5b60006136728482850161357b565b91505092915050565b6000806040838503121561368e57600080fd5b600061369c8582860161357b565b92505060206136ad8582860161351c565b9150509250929050565b6000602082840312156136c957600080fd5b60006136d784828501613590565b91505092915050565b6000602082840312156136f257600080fd5b6000613700848285016135ba565b91505092915050565b60006020828403121561371b57600080fd5b6000613729848285016135cf565b91505092915050565b6000806040838503121561374557600080fd5b6000613753858286016135cf565b9250506020613764858286016135cf565b9150509250929050565b60008060006060848603121561378357600080fd5b6000613791868287016135cf565b93505060206137a2868287016135cf565b92505060406137b3868287016135a5565b9150509250925092565b60006137c98383613bcc565b6101e08301905092915050565b6137e76137e28261417f565b6142ed565b82525050565b60006137f88261401a565b613802818561403d565b935061380d8361400a565b8060005b8381101561383e57815161382588826137bd565b975061383083614030565b925050600181019050613811565b5085935050505092915050565b61385481614191565b82525050565b61386381614191565b82525050565b6138728161419d565b82525050565b61388181614223565b82525050565b61389081614235565b82525050565b60006138a182614025565b6138ab818561404e565b93506138bb818560208601614247565b6138c4816143d9565b840191505092915050565b60006138da82614025565b6138e4818561405f565b93506138f4818560208601614247565b80840191505092915050565b600061390d60208361404e565b91507f537472696e67733a20686578206c656e67746820696e73756666696369656e746000830152602082019050919050565b600061394d601f8361404e565b91507f676976656e2074617267657420697320616c7265616479206275726e65642e006000830152602082019050919050565b600061398d601d8361404e565b91507f676976656e2074617267657420697320616c726561647920646561642e0000006000830152602082019050919050565b60006139cd601e8361404e565b91507f676976656e204e6f6b616920697320616c7265616479206275726e65642e00006000830152602082019050919050565b6000613a0d60228361404e565b91507f7461726765742073686f756c64206265206f662061206c6f776572206772616460008301527f652e0000000000000000000000000000000000000000000000000000000000006020830152604082019050919050565b6000613a7360178361405f565b91507f416363657373436f6e74726f6c3a206163636f756e74200000000000000000006000830152601782019050919050565b6000613ab360188361404e565b91507f676976656e204e6f6b6169206973206e6f7420646561642e00000000000000006000830152602082019050919050565b6000613af360118361405f565b91507f206973206d697373696e6720726f6c65200000000000000000000000000000006000830152601182019050919050565b6000613b33601c8361404e565b91507f676976656e204e6f6b616920697320616c726561647920646561642e000000006000830152602082019050919050565b6000613b73602f8361404e565b91507f416363657373436f6e74726f6c3a2063616e206f6e6c792072656e6f756e636560008301527f20726f6c657320666f722073656c6600000000000000000000000000000000006020830152604082019050919050565b6101e082016000820151613be36000850182613cf6565b506020820151613bf7610120850182613dad565b506040820151613c0b610140850182613dad565b506060820151613c1f61016085018261384b565b506080820151613c3361018085018261384b565b5060a0820151613c476101a0850182613dad565b5060c0820151613c5b6101c0850182613dad565b50505050565b6101e082016000820151613c786000850182613cf6565b506020820151613c8c610120850182613dad565b506040820151613ca0610140850182613dad565b506060820151613cb461016085018261384b565b506080820151613cc861018085018261384b565b5060a0820151613cdc6101a0850182613dad565b5060c0820151613cf06101c0850182613dad565b50505050565b61012082016000820151613d0d6000850182613dad565b506020820151613d206020850182613dad565b506040820151613d336040850182613dad565b506060820151613d466060850182613dad565b506080820151613d596080850182613dad565b5060a0820151613d6c60a0850182613dad565b5060c0820151613d7f60c0850182613878565b5060e0820151613d9260e0850182613887565b50610100820151613da7610100850182613887565b50505050565b613db681614219565b82525050565b613dc581614219565b82525050565b613ddc613dd782614219565b614311565b82525050565b6000613ded82613a66565b9150613df982856138cf565b9150613e0482613ae6565b9150613e1082846138cf565b91508190509392505050565b6000613e288286613dcb565b602082019150613e3882856137d6565b601482019150613e488284613dcb565b602082019150819050949350505050565b60006020820190508181036000830152613e7381846137ed565b905092915050565b6000602082019050613e90600083018461385a565b92915050565b6000602082019050613eab6000830184613869565b92915050565b60006020820190508181036000830152613ecb8184613896565b905092915050565b60006020820190508181036000830152613eec81613900565b9050919050565b60006020820190508181036000830152613f0c81613940565b9050919050565b60006020820190508181036000830152613f2c81613980565b9050919050565b60006020820190508181036000830152613f4c816139c0565b9050919050565b60006020820190508181036000830152613f6c81613a00565b9050919050565b60006020820190508181036000830152613f8c81613aa6565b9050919050565b60006020820190508181036000830152613fac81613b26565b9050919050565b60006020820190508181036000830152613fcc81613b66565b9050919050565b60006101e082019050613fe96000830184613c61565b92915050565b60006020820190506140046000830184613dbc565b92915050565b6000819050602082019050919050565b600081519050919050565b600081519050919050565b6000602082019050919050565b600082825260208201905092915050565b600082825260208201905092915050565b600081905092915050565b600061407582614219565b915061408083614219565b9250827fffffffffffffffffffffffffffffffffffffffffffffffffffffffffffffffff038211156140b5576140b461434c565b5b828201905092915050565b60006140cb82614219565b91506140d683614219565b9250826140e6576140e561437b565b5b828204905092915050565b60006140fc82614219565b915061410783614219565b9250817fffffffffffffffffffffffffffffffffffffffffffffffffffffffffffffffff04831182151516156141405761413f61434c565b5b828202905092915050565b600061415682614219565b915061416183614219565b9250828210156141745761417361434c565b5b828203905092915050565b600061418a826141f9565b9050919050565b60008115159050919050565b6000819050919050565b60007fffffffff0000000000000000000000000000000000000000000000000000000082169050919050565b60008190506141e182614403565b919050565b60008190506141f482614417565b919050565b600073ffffffffffffffffffffffffffffffffffffffff82169050919050565b6000819050919050565b600061422e826141d3565b9050919050565b6000614240826141e6565b9050919050565b60005b8381101561426557808201518184015260208101905061424a565b83811115614274576000848401525b50505050565b600061428582614219565b915060008214156142995761429861434c565b5b600182039050919050565b60006142af82614219565b91507fffffffffffffffffffffffffffffffffffffffffffffffffffffffffffffffff8214156142e2576142e161434c565b5b600182019050919050565b60006142f8826142ff565b9050919050565b600061430a826143ea565b9050919050565b6000819050919050565b600061432682614219565b915061433183614219565b9250826143415761434061437b565b5b828206905092915050565b7f4e487b7100000000000000000000000000000000000000000000000000000000600052601160045260246000fd5b7f4e487b7100000000000000000000000000000000000000000000000000000000600052601260045260246000fd5b7f4e487b7100000000000000000000000000000000000000000000000000000000600052602160045260246000fd5b6000601f19601f8301169050919050565b60006c0100000000000000000000000082029050919050565b60068110614414576144136143aa565b5b50565b600a8110614428576144276143aa565b5b50565b6144348161417f565b811461443f57600080fd5b50565b61444b8161419d565b811461445657600080fd5b50565b614462816141a7565b811461446d57600080fd5b50565b6005811061447d57600080fd5b50565b600a811061448d57600080fd5b50565b61449981614219565b81146144a457600080fd5b5056fea264697066735822122014fc82622e153ccbd655a5a815105edd7d9b885ce29fc4db16cdfbe45ebd10af64736f6c63430008000033",
  "immutableReferences": {},
  "source": "pragma solidity ^0.8.0;\r\npragma experimental ABIEncoderV2;\r\n\r\nimport \"@openzeppelin/contracts/access/AccessControl.sol\";\r\nimport \"@openzeppelin/contracts/utils/math/Math.sol\";\r\nimport \"../utils/RandomUtils.sol\";\r\nimport \"./NokaiTechnique.sol\";\r\n\r\n// SPDX-License-Identifier: MIT\r\ncontract NokaiStats is AccessControl {\r\n    bytes32 public constant NOKAI_MANAGER_ROLE = keccak256(\"NOKAI_MANAGER_ROLE\");\r\n    bytes32 public constant GAME_MANAGER_ROLE = keccak256(\"GAME_MANAGER_ROLE\");\r\n    bytes32 public constant INVENTORY_MANAGER_ROLE = keccak256(\"INVENTORY_MANAGER_ROLE\");\r\n\r\n    enum Rarity {\r\n        Spirit,\r\n        Champion,\r\n        Overlord,\r\n        Astral,\r\n        Legend,\r\n        God\r\n    }\r\n\r\n    enum StatType {\r\n        HP,\r\n        ATTACK,\r\n        DEFENSE,\r\n        REGEN,\r\n        PA\r\n    }\r\n\r\n    struct Profile {\r\n        Stats stats;\r\n        uint256 currentHp;\r\n        uint256 currentPa;\r\n        bool dead;\r\n        bool burned;\r\n        uint256 lastHpSet;\r\n        uint256 lastPaSet;\r\n    }\r\n\r\n    struct Stats {\r\n        uint256 hp;\r\n        uint256 attack;\r\n        uint256 defense;\r\n        uint256 regen;\r\n        uint256 pa;\r\n        uint256 gradeValue;\r\n        Rarity grade;\r\n        NokaiTechnique.Technique technique1;\r\n        NokaiTechnique.Technique technique2;\r\n    }\r\n\r\n    NokaiTechnique private _techniquePicker;\r\n    mapping(uint256 => Profile) private _profiles;\r\n\r\n    constructor(address techniquePicker) {\r\n        _techniquePicker = NokaiTechnique(techniquePicker);\r\n        _setupRole(DEFAULT_ADMIN_ROLE, msg.sender);\r\n    }\r\n\r\n    function migrateNokaiTechnique(address techniquePicker) external onlyRole(DEFAULT_ADMIN_ROLE) {\r\n        _techniquePicker = NokaiTechnique(techniquePicker);\r\n    }\r\n\r\n    function generateNokai(uint256 newNokaiId) external onlyRole(NOKAI_MANAGER_ROLE) {\r\n        _saveNokaiProfile(\r\n            newNokaiId,\r\n            Math.min(RandomUtils._rand(newNokaiId, 100) * 8 + 200, 1000),\r\n            Math.min(RandomUtils._rand(newNokaiId + 1, 10) * 8 + 20, 2200),\r\n            Math.min(RandomUtils._rand(newNokaiId + 2, 10) * 9 + 10, 100),\r\n            Math.min(RandomUtils._rand(newNokaiId + 3, 10) * 8 + 20, 100),\r\n            RandomUtils._rand(newNokaiId + 4, 10)\r\n        );\r\n    }\r\n\r\n    function generateHighNokai(uint256 newNokaiId) external onlyRole(NOKAI_MANAGER_ROLE) {\r\n        _saveNokaiProfile(\r\n            newNokaiId,\r\n            Math.min(RandomUtils._rand(newNokaiId, 100) * 3 + 700, 1000),\r\n            Math.min(RandomUtils._rand(newNokaiId + 1, 10) * 5 + 150, 200),\r\n            Math.min(RandomUtils._rand(newNokaiId + 2, 10) * 3 + 70, 100),\r\n            Math.min(RandomUtils._rand(newNokaiId + 3, 10) * 3 + 70, 100),\r\n            RandomUtils._rand(newNokaiId + 4, 10) / 2 + 5\r\n        );\r\n    }\r\n\r\n    function generateGodNokai(uint256 newNokaiId) external onlyRole(NOKAI_MANAGER_ROLE) {\r\n        uint256 hp = (RandomUtils._rand(newNokaiId, 100) / 2) + 950;\r\n        _profiles[newNokaiId] = Profile({\r\n        stats : Stats({\r\n        hp : hp,\r\n        attack : RandomUtils._rand(newNokaiId + 1, 10) * 2 + 180,\r\n        defense : RandomUtils._rand(newNokaiId + 3, 10) + 90,\r\n        regen : RandomUtils._rand(newNokaiId + 3, 10) + 90,\r\n        pa : 10,\r\n        technique1 : _techniquePicker.get(newNokaiId + 5),\r\n        technique2 : _techniquePicker.get(newNokaiId + 6),\r\n        grade : Rarity.God,\r\n        gradeValue : uint256(Rarity.God) + 1\r\n        }),\r\n        currentHp : hp,\r\n        currentPa : 10,\r\n        dead : false,\r\n        burned : false,\r\n        lastHpSet : block.timestamp,\r\n        lastPaSet : block.timestamp\r\n        });\r\n    }\r\n\r\n    function _saveNokaiProfile(uint256 newNokaiId, uint256 hp, uint256 attack, uint256 defense, uint256 regen, uint256 pa) private {\r\n        uint256 _pa = pa;\r\n        if (pa < 2) {\r\n            _pa = 2;\r\n        } else if (pa > 8) {\r\n            _pa = 8;\r\n        }\r\n        Rarity grade = _getBirthGrade(hp, attack, defense, regen, _pa);\r\n\r\n        _profiles[newNokaiId] = Profile({\r\n        stats : Stats({\r\n        hp : hp,\r\n        attack : attack,\r\n        defense : defense,\r\n        regen : regen,\r\n        pa : _pa,\r\n        technique1 : _techniquePicker.get(newNokaiId + 5),\r\n        technique2 : _techniquePicker.get(newNokaiId + 6),\r\n        grade : grade,\r\n        gradeValue : uint256(grade) + 1\r\n        }),\r\n        currentHp : hp,\r\n        currentPa : _pa,\r\n        dead : false,\r\n        burned : false,\r\n        lastHpSet : block.timestamp,\r\n        lastPaSet : block.timestamp\r\n        });\r\n    }\r\n\r\n    function upgradeFromNokaiBurn(uint256 nokaiId, uint256 targetId, StatType upgradeChoice) external onlyRole(NOKAI_MANAGER_ROLE) {\r\n        require(_profiles[nokaiId].dead == false, \"given Nokai is already dead.\");\r\n        require(_profiles[targetId].dead == false, \"given target is already dead.\");\r\n        require(_profiles[nokaiId].burned == false, \"given Nokai is already burned.\");\r\n        require(_profiles[targetId].burned == false, \"given target is already burned.\");\r\n        require(_profiles[nokaiId].stats.gradeValue >= _profiles[targetId].stats.gradeValue, \"target should be of a lower grade.\");\r\n\r\n        _profiles[targetId].burned = true;\r\n\r\n        if (upgradeChoice == StatType.HP) {\r\n            _profiles[nokaiId].stats.hp += _profiles[targetId].stats.hp * (_profiles[targetId].stats.gradeValue * 2) / 100;\r\n        } else if (upgradeChoice == StatType.ATTACK) {\r\n            _profiles[nokaiId].stats.attack += _profiles[targetId].stats.attack * (_profiles[targetId].stats.gradeValue * 2) / 100;\r\n        } else if (upgradeChoice == StatType.DEFENSE) {\r\n            _profiles[nokaiId].stats.defense += _profiles[targetId].stats.defense * (_profiles[targetId].stats.gradeValue * 2) / 100;\r\n        } else if (upgradeChoice == StatType.REGEN) {\r\n            _profiles[nokaiId].stats.regen += _profiles[targetId].stats.regen * (_profiles[targetId].stats.gradeValue * 2) / 100;\r\n        } else if (upgradeChoice == StatType.PA) {\r\n            _profiles[nokaiId].stats.pa += _profiles[targetId].stats.gradeValue / 2;\r\n        }\r\n    }\r\n\r\n    function _getBirthGrade(uint256 hp, uint256 attack, uint256 defense, uint256 regen, uint256 pa) private pure returns (Rarity) {\r\n        uint256 total = hp + (attack * 5) + (defense * 10) + (pa * 100) + (regen * 10);\r\n        // max should be 5000\r\n        if (total > 4600) {\r\n            return Rarity.Legend;\r\n        } else if (total > 4000) {\r\n            return Rarity.Astral;\r\n        } else if (total > 3000) {\r\n            return Rarity.Overlord;\r\n        } else if (total > 1500) {\r\n            return Rarity.Champion;\r\n        } else {\r\n            return Rarity.Spirit;\r\n        }\r\n    }\r\n\r\n    function damage(uint256 nokaiId, uint256 newHp) external onlyRole(GAME_MANAGER_ROLE) {\r\n        require(_profiles[nokaiId].dead == false, \"given Nokai is already dead.\");\r\n        require(_profiles[nokaiId].burned == false, \"given Nokai is already burned.\");\r\n        _profiles[nokaiId].lastHpSet = block.timestamp;\r\n        if (newHp == 0) {\r\n            _profiles[nokaiId].currentHp = 0;\r\n            _profiles[nokaiId].dead = true;\r\n            emit NokaiKilled(nokaiId);\r\n        } else {\r\n            _profiles[nokaiId].currentHp = newHp;\r\n            emit NokaiDamaged(nokaiId, newHp);\r\n        }\r\n    }\r\n\r\n    function reborn(uint256 nokaiId) external onlyRole(INVENTORY_MANAGER_ROLE) {\r\n        require(_profiles[nokaiId].dead == true, \"given Nokai is not dead.\");\r\n        require(_profiles[nokaiId].burned == false, \"given Nokai is already burned.\");\r\n        _profiles[nokaiId].lastHpSet = block.timestamp;\r\n        _profiles[nokaiId].currentHp = _profiles[nokaiId].stats.hp;\r\n        _profiles[nokaiId].dead = false;\r\n        emit NokaiReborn(nokaiId);\r\n    }\r\n\r\n    function heal(uint256 nokaiId, uint256 amount) external onlyRole(INVENTORY_MANAGER_ROLE) {\r\n        require(_profiles[nokaiId].dead == false, \"given Nokai is already dead.\");\r\n        require(_profiles[nokaiId].burned == false, \"given Nokai is already burned.\");\r\n        uint256 currentHp = _calculateHp(nokaiId);\r\n        _profiles[nokaiId].lastHpSet = block.timestamp;\r\n        if (currentHp + amount > _profiles[nokaiId].stats.hp) {\r\n            _profiles[nokaiId].currentHp = _profiles[nokaiId].stats.hp;\r\n        } else {\r\n            _profiles[nokaiId].currentHp = currentHp + amount;\r\n        }\r\n        emit NokaiHealed(nokaiId, amount);\r\n    }\r\n\r\n    function energize(uint256 nokaiId, uint256 pa) external onlyRole(INVENTORY_MANAGER_ROLE) {\r\n        require(_profiles[nokaiId].dead == false, \"given Nokai is already dead.\");\r\n        require(_profiles[nokaiId].burned == false, \"given Nokai is already burned.\");\r\n        uint256 currentPa = _calculatePa(nokaiId);\r\n        _profiles[nokaiId].lastPaSet = block.timestamp;\r\n        if (currentPa + pa > _profiles[nokaiId].stats.pa) {\r\n            _profiles[nokaiId].currentPa = _profiles[nokaiId].stats.pa;\r\n        } else {\r\n            _profiles[nokaiId].currentPa = currentPa + pa;\r\n        }\r\n        emit NokaiEnergized(nokaiId);\r\n    }\r\n\r\n    function didAction(uint256 nokaiId, uint256 _pa) external onlyRole(GAME_MANAGER_ROLE) {\r\n        uint256 currentPa = _calculatePa(nokaiId);\r\n        _profiles[nokaiId].lastPaSet = block.timestamp;\r\n        if (currentPa - _pa <= 0) {\r\n            _profiles[nokaiId].currentPa = 0;\r\n            emit NokaiEmptyEnergy(nokaiId);\r\n        } else {\r\n            _profiles[nokaiId].currentPa = currentPa - _pa;\r\n        }\r\n    }\r\n\r\n    function _calculateHp(uint256 nokaiId) internal view returns (uint256) {\r\n        return _profiles[nokaiId].currentHp + (_profiles[nokaiId].stats.regen * ((block.timestamp - _profiles[nokaiId].lastHpSet) / 3600));\r\n    }\r\n\r\n    function _calculatePa(uint256 nokaiId) internal view returns (uint256) {\r\n        return _profiles[nokaiId].currentPa + ((block.timestamp - _profiles[nokaiId].lastHpSet) / 7200);\r\n    }\r\n\r\n    function profile(uint256 nokaiId) external view returns (Profile memory) {\r\n        return Profile({\r\n        stats : _profiles[nokaiId].stats,\r\n        currentHp : _calculateHp(nokaiId),\r\n        currentPa : _calculatePa(nokaiId),\r\n        dead : _profiles[nokaiId].dead,\r\n        burned : _profiles[nokaiId].burned,\r\n        lastHpSet : _profiles[nokaiId].lastHpSet,\r\n        lastPaSet : _profiles[nokaiId].lastPaSet\r\n        });\r\n    }\r\n\r\n    function profiles(uint256[] calldata nokaiIds) external view returns (Profile[] memory) {\r\n        Profile[] memory nokais = new Profile[](nokaiIds.length);\r\n\r\n        for (uint256 i = 0; i < nokaiIds.length; i++) {\r\n            nokais[i] = Profile({\r\n            stats : _profiles[nokaiIds[i]].stats,\r\n            currentHp : _calculateHp(nokaiIds[i]),\r\n            currentPa : _calculatePa(nokaiIds[i]),\r\n            dead : _profiles[nokaiIds[i]].dead,\r\n            burned : _profiles[nokaiIds[i]].burned,\r\n            lastHpSet : _profiles[nokaiIds[i]].lastHpSet,\r\n            lastPaSet : _profiles[nokaiIds[i]].lastPaSet\r\n            });\r\n        }\r\n        return nokais;\r\n    }\r\n\r\n    event NokaiDamaged(uint256 indexed nokaiId, uint256 newHp);\r\n    event NokaiKilled(uint256 indexed nokaiId);\r\n    event NokaiReborn(uint256 indexed nokaiId);\r\n    event NokaiHealed(uint256 indexed nokaiId, uint256 amount);\r\n    event NokaiEnergized(uint256 indexed nokaiId);\r\n    event NokaiEmptyEnergy(uint256 indexed nokaiId);\r\n}\r\n",
  "sourcePath": "C:\\Users\\KevinGeorgesAndres\\Documents\\projects\\perso\\blackhole-evm\\contracts\\character\\NokaiStats.sol",
  "compiler": {
    "name": "solc",
    "version": "0.8.0+commit.c7dfd78e.Emscripten.clang"
  },
  "schemaVersion": "3.4.3",
  "updatedAt": "2021-12-13T06:35:22.445Z",
  "networkType": "ethereum",
  "devdoc": {
    "kind": "dev",
    "methods": {
      "getRoleAdmin(bytes32)": {
        "details": "Returns the admin role that controls `role`. See {grantRole} and {revokeRole}. To change a role's admin, use {_setRoleAdmin}."
      },
      "grantRole(bytes32,address)": {
        "details": "Grants `role` to `account`. If `account` had not been already granted `role`, emits a {RoleGranted} event. Requirements: - the caller must have ``role``'s admin role."
      },
      "hasRole(bytes32,address)": {
        "details": "Returns `true` if `account` has been granted `role`."
      },
      "renounceRole(bytes32,address)": {
        "details": "Revokes `role` from the calling account. Roles are often managed via {grantRole} and {revokeRole}: this function's purpose is to provide a mechanism for accounts to lose their privileges if they are compromised (such as when a trusted device is misplaced). If the calling account had been revoked `role`, emits a {RoleRevoked} event. Requirements: - the caller must be `account`."
      },
      "revokeRole(bytes32,address)": {
        "details": "Revokes `role` from `account`. If `account` had been granted `role`, emits a {RoleRevoked} event. Requirements: - the caller must have ``role``'s admin role."
      },
      "supportsInterface(bytes4)": {
        "details": "See {IERC165-supportsInterface}."
      }
    },
    "version": 1
  },
  "userdoc": {
    "kind": "user",
    "methods": {},
    "version": 1
  }
}