{
  "contractName": "NokaiStats",
  "abi": [
    {
      "inputs": [
        {
          "internalType": "address",
          "name": "_techniquePicker",
          "type": "address"
        }
      ],
      "stateMutability": "nonpayable",
      "type": "constructor"
    },
    {
      "anonymous": false,
      "inputs": [
        {
          "indexed": true,
          "internalType": "uint256",
          "name": "nokaiId",
          "type": "uint256"
        },
        {
          "indexed": false,
          "internalType": "uint256",
          "name": "newHp",
          "type": "uint256"
        }
      ],
      "name": "NokaiDamaged",
      "type": "event"
    },
    {
      "anonymous": false,
      "inputs": [
        {
          "indexed": true,
          "internalType": "uint256",
          "name": "nokaiId",
          "type": "uint256"
        }
      ],
      "name": "NokaiEmptyEnergy",
      "type": "event"
    },
    {
      "anonymous": false,
      "inputs": [
        {
          "indexed": true,
          "internalType": "uint256",
          "name": "nokaiId",
          "type": "uint256"
        }
      ],
      "name": "NokaiEnergized",
      "type": "event"
    },
    {
      "anonymous": false,
      "inputs": [
        {
          "indexed": true,
          "internalType": "uint256",
          "name": "nokaiId",
          "type": "uint256"
        },
        {
          "indexed": false,
          "internalType": "uint256",
          "name": "amount",
          "type": "uint256"
        }
      ],
      "name": "NokaiHealed",
      "type": "event"
    },
    {
      "anonymous": false,
      "inputs": [
        {
          "indexed": true,
          "internalType": "uint256",
          "name": "nokaiId",
          "type": "uint256"
        }
      ],
      "name": "NokaiKilled",
      "type": "event"
    },
    {
      "anonymous": false,
      "inputs": [
        {
          "indexed": true,
          "internalType": "uint256",
          "name": "nokaiId",
          "type": "uint256"
        }
      ],
      "name": "NokaiReborn",
      "type": "event"
    },
    {
      "anonymous": false,
      "inputs": [
        {
          "indexed": true,
          "internalType": "bytes32",
          "name": "role",
          "type": "bytes32"
        },
        {
          "indexed": true,
          "internalType": "bytes32",
          "name": "previousAdminRole",
          "type": "bytes32"
        },
        {
          "indexed": true,
          "internalType": "bytes32",
          "name": "newAdminRole",
          "type": "bytes32"
        }
      ],
      "name": "RoleAdminChanged",
      "type": "event"
    },
    {
      "anonymous": false,
      "inputs": [
        {
          "indexed": true,
          "internalType": "bytes32",
          "name": "role",
          "type": "bytes32"
        },
        {
          "indexed": true,
          "internalType": "address",
          "name": "account",
          "type": "address"
        },
        {
          "indexed": true,
          "internalType": "address",
          "name": "sender",
          "type": "address"
        }
      ],
      "name": "RoleGranted",
      "type": "event"
    },
    {
      "anonymous": false,
      "inputs": [
        {
          "indexed": true,
          "internalType": "bytes32",
          "name": "role",
          "type": "bytes32"
        },
        {
          "indexed": true,
          "internalType": "address",
          "name": "account",
          "type": "address"
        },
        {
          "indexed": true,
          "internalType": "address",
          "name": "sender",
          "type": "address"
        }
      ],
      "name": "RoleRevoked",
      "type": "event"
    },
    {
      "inputs": [],
      "name": "DEFAULT_ADMIN_ROLE",
      "outputs": [
        {
          "internalType": "bytes32",
          "name": "",
          "type": "bytes32"
        }
      ],
      "stateMutability": "view",
      "type": "function",
      "constant": true
    },
    {
      "inputs": [],
      "name": "GAME_MANAGER_ROLE",
      "outputs": [
        {
          "internalType": "bytes32",
          "name": "",
          "type": "bytes32"
        }
      ],
      "stateMutability": "view",
      "type": "function",
      "constant": true
    },
    {
      "inputs": [],
      "name": "INVENTORY_MANAGER_ROLE",
      "outputs": [
        {
          "internalType": "bytes32",
          "name": "",
          "type": "bytes32"
        }
      ],
      "stateMutability": "view",
      "type": "function",
      "constant": true
    },
    {
      "inputs": [],
      "name": "NOKAI_MANAGER_ROLE",
      "outputs": [
        {
          "internalType": "bytes32",
          "name": "",
          "type": "bytes32"
        }
      ],
      "stateMutability": "view",
      "type": "function",
      "constant": true
    },
    {
      "inputs": [
        {
          "internalType": "bytes32",
          "name": "role",
          "type": "bytes32"
        }
      ],
      "name": "getRoleAdmin",
      "outputs": [
        {
          "internalType": "bytes32",
          "name": "",
          "type": "bytes32"
        }
      ],
      "stateMutability": "view",
      "type": "function",
      "constant": true
    },
    {
      "inputs": [
        {
          "internalType": "bytes32",
          "name": "role",
          "type": "bytes32"
        },
        {
          "internalType": "address",
          "name": "account",
          "type": "address"
        }
      ],
      "name": "grantRole",
      "outputs": [],
      "stateMutability": "nonpayable",
      "type": "function"
    },
    {
      "inputs": [
        {
          "internalType": "bytes32",
          "name": "role",
          "type": "bytes32"
        },
        {
          "internalType": "address",
          "name": "account",
          "type": "address"
        }
      ],
      "name": "hasRole",
      "outputs": [
        {
          "internalType": "bool",
          "name": "",
          "type": "bool"
        }
      ],
      "stateMutability": "view",
      "type": "function",
      "constant": true
    },
    {
      "inputs": [
        {
          "internalType": "uint256",
          "name": "",
          "type": "uint256"
        }
      ],
      "name": "profiles",
      "outputs": [
        {
          "components": [
            {
              "internalType": "uint256",
              "name": "hp",
              "type": "uint256"
            },
            {
              "internalType": "uint256",
              "name": "attack",
              "type": "uint256"
            },
            {
              "internalType": "uint256",
              "name": "defense",
              "type": "uint256"
            },
            {
              "internalType": "uint256",
              "name": "regen",
              "type": "uint256"
            },
            {
              "internalType": "uint256",
              "name": "pa",
              "type": "uint256"
            },
            {
              "internalType": "uint256",
              "name": "gradeValue",
              "type": "uint256"
            },
            {
              "internalType": "enum NokaiStats.Rarity",
              "name": "grade",
              "type": "uint8"
            },
            {
              "internalType": "enum NokaiTechnique.Technique",
              "name": "technique1",
              "type": "uint8"
            },
            {
              "internalType": "enum NokaiTechnique.Technique",
              "name": "technique2",
              "type": "uint8"
            }
          ],
          "internalType": "struct NokaiStats.Stats",
          "name": "stats",
          "type": "tuple"
        },
        {
          "internalType": "uint256",
          "name": "currentHp",
          "type": "uint256"
        },
        {
          "internalType": "uint256",
          "name": "currentPa",
          "type": "uint256"
        },
        {
          "internalType": "bool",
          "name": "dead",
          "type": "bool"
        },
        {
          "internalType": "bool",
          "name": "burned",
          "type": "bool"
        },
        {
          "internalType": "uint256",
          "name": "lastHpSet",
          "type": "uint256"
        },
        {
          "internalType": "uint256",
          "name": "lastPaSet",
          "type": "uint256"
        }
      ],
      "stateMutability": "view",
      "type": "function",
      "constant": true
    },
    {
      "inputs": [
        {
          "internalType": "bytes32",
          "name": "role",
          "type": "bytes32"
        },
        {
          "internalType": "address",
          "name": "account",
          "type": "address"
        }
      ],
      "name": "renounceRole",
      "outputs": [],
      "stateMutability": "nonpayable",
      "type": "function"
    },
    {
      "inputs": [
        {
          "internalType": "bytes32",
          "name": "role",
          "type": "bytes32"
        },
        {
          "internalType": "address",
          "name": "account",
          "type": "address"
        }
      ],
      "name": "revokeRole",
      "outputs": [],
      "stateMutability": "nonpayable",
      "type": "function"
    },
    {
      "inputs": [
        {
          "internalType": "bytes4",
          "name": "interfaceId",
          "type": "bytes4"
        }
      ],
      "name": "supportsInterface",
      "outputs": [
        {
          "internalType": "bool",
          "name": "",
          "type": "bool"
        }
      ],
      "stateMutability": "view",
      "type": "function",
      "constant": true
    },
    {
      "inputs": [
        {
          "internalType": "address",
          "name": "_techniquePicker",
          "type": "address"
        }
      ],
      "name": "migrateNokaiTechnique",
      "outputs": [],
      "stateMutability": "nonpayable",
      "type": "function"
    },
    {
      "inputs": [
        {
          "internalType": "uint256",
          "name": "newNokaiId",
          "type": "uint256"
        }
      ],
      "name": "generateNokai",
      "outputs": [],
      "stateMutability": "nonpayable",
      "type": "function"
    },
    {
      "inputs": [
        {
          "internalType": "uint256",
          "name": "newNokaiId",
          "type": "uint256"
        }
      ],
      "name": "generateHighNokai",
      "outputs": [],
      "stateMutability": "nonpayable",
      "type": "function"
    },
    {
      "inputs": [
        {
          "internalType": "uint256",
          "name": "newNokaiId",
          "type": "uint256"
        }
      ],
      "name": "generateGodNokai",
      "outputs": [],
      "stateMutability": "nonpayable",
      "type": "function"
    },
    {
      "inputs": [
        {
          "internalType": "uint256",
          "name": "nokaiId",
          "type": "uint256"
        },
        {
          "internalType": "uint256",
          "name": "targetId",
          "type": "uint256"
        },
        {
          "internalType": "enum NokaiStats.StatType",
          "name": "upgradeChoice",
          "type": "uint8"
        }
      ],
      "name": "upgradeFromNokaiBurn",
      "outputs": [],
      "stateMutability": "nonpayable",
      "type": "function"
    },
    {
      "inputs": [
        {
          "internalType": "uint256",
          "name": "nokaiId",
          "type": "uint256"
        },
        {
          "internalType": "uint256",
          "name": "newHp",
          "type": "uint256"
        }
      ],
      "name": "damage",
      "outputs": [],
      "stateMutability": "nonpayable",
      "type": "function"
    },
    {
      "inputs": [
        {
          "internalType": "uint256",
          "name": "nokaiId",
          "type": "uint256"
        }
      ],
      "name": "reborn",
      "outputs": [],
      "stateMutability": "nonpayable",
      "type": "function"
    },
    {
      "inputs": [
        {
          "internalType": "uint256",
          "name": "nokaiId",
          "type": "uint256"
        },
        {
          "internalType": "uint256",
          "name": "amount",
          "type": "uint256"
        }
      ],
      "name": "heal",
      "outputs": [],
      "stateMutability": "nonpayable",
      "type": "function"
    },
    {
      "inputs": [
        {
          "internalType": "uint256",
          "name": "nokaiId",
          "type": "uint256"
        },
        {
          "internalType": "uint256",
          "name": "pa",
          "type": "uint256"
        }
      ],
      "name": "energize",
      "outputs": [],
      "stateMutability": "nonpayable",
      "type": "function"
    },
    {
      "inputs": [
        {
          "internalType": "uint256",
          "name": "nokaiId",
          "type": "uint256"
        },
        {
          "internalType": "uint256",
          "name": "_pa",
          "type": "uint256"
        }
      ],
      "name": "didAction",
      "outputs": [],
      "stateMutability": "nonpayable",
      "type": "function"
    },
    {
      "inputs": [
        {
          "internalType": "uint256",
          "name": "nokaiId",
          "type": "uint256"
        }
      ],
      "name": "profile",
      "outputs": [
        {
          "components": [
            {
              "components": [
                {
                  "internalType": "uint256",
                  "name": "hp",
                  "type": "uint256"
                },
                {
                  "internalType": "uint256",
                  "name": "attack",
                  "type": "uint256"
                },
                {
                  "internalType": "uint256",
                  "name": "defense",
                  "type": "uint256"
                },
                {
                  "internalType": "uint256",
                  "name": "regen",
                  "type": "uint256"
                },
                {
                  "internalType": "uint256",
                  "name": "pa",
                  "type": "uint256"
                },
                {
                  "internalType": "uint256",
                  "name": "gradeValue",
                  "type": "uint256"
                },
                {
                  "internalType": "enum NokaiStats.Rarity",
                  "name": "grade",
                  "type": "uint8"
                },
                {
                  "internalType": "enum NokaiTechnique.Technique",
                  "name": "technique1",
                  "type": "uint8"
                },
                {
                  "internalType": "enum NokaiTechnique.Technique",
                  "name": "technique2",
                  "type": "uint8"
                }
              ],
              "internalType": "struct NokaiStats.Stats",
              "name": "stats",
              "type": "tuple"
            },
            {
              "internalType": "uint256",
              "name": "currentHp",
              "type": "uint256"
            },
            {
              "internalType": "uint256",
              "name": "currentPa",
              "type": "uint256"
            },
            {
              "internalType": "bool",
              "name": "dead",
              "type": "bool"
            },
            {
              "internalType": "bool",
              "name": "burned",
              "type": "bool"
            },
            {
              "internalType": "uint256",
              "name": "lastHpSet",
              "type": "uint256"
            },
            {
              "internalType": "uint256",
              "name": "lastPaSet",
              "type": "uint256"
            }
          ],
          "internalType": "struct NokaiStats.Profile",
          "name": "",
          "type": "tuple"
        }
      ],
      "stateMutability": "view",
      "type": "function",
      "constant": true
    }
  ],
  "bytecode": "0x60806040523480156200001157600080fd5b506040516200438538038062004385833981810160405281019062000037919062000249565b80600160006101000a81548173ffffffffffffffffffffffffffffffffffffffff021916908373ffffffffffffffffffffffffffffffffffffffff160217905550620000976000600102336200009e640100000000026401000000009004565b50620002c3565b620000b98282620000bd640100000000026401000000009004565b5050565b620000d88282620001c0640100000000026401000000009004565b620001bc57600160008084815260200190815260200160002060000160008373ffffffffffffffffffffffffffffffffffffffff1673ffffffffffffffffffffffffffffffffffffffff16815260200190815260200160002060006101000a81548160ff021916908315150217905550620001616200022a640100000000026401000000009004565b73ffffffffffffffffffffffffffffffffffffffff168173ffffffffffffffffffffffffffffffffffffffff16837f2f8788117e7eff1d82e926ec794901d17c78024a50270940304540a733656f0d60405160405180910390a45b5050565b600080600084815260200190815260200160002060000160008373ffffffffffffffffffffffffffffffffffffffff1673ffffffffffffffffffffffffffffffffffffffff16815260200190815260200160002060009054906101000a900460ff16905092915050565b600033905090565b6000815190506200024381620002a9565b92915050565b6000602082840312156200025c57600080fd5b60006200026c8482850162000232565b91505092915050565b6000620002828262000289565b9050919050565b600073ffffffffffffffffffffffffffffffffffffffff82169050919050565b620002b48162000275565b8114620002c057600080fd5b50565b6140b280620002d36000396000f3fe608060405234801561001057600080fd5b506004361061015f576000357c01000000000000000000000000000000000000000000000000000000009004806372cd2b1a116100d5578063c36fe3d611610099578063c36fe3d61461037a578063d547741f146103b0578063eebb92f5146103cc578063f3fc7b24146103e8578063f6e253e314610404578063ff6fcdbd146104205761015f565b806372cd2b1a146102c457806376c312dd146102f457806391d1485414610310578063a217fddf14610340578063bddb95c11461035e5761015f565b8063248a9ca311610127578063248a9ca3146102065780632b54c4c1146102365780632f2ff15d1461025257806336568abe1461026e5780633dc9dcaf1461028a578063599ecd85146102a85761015f565b806301ffc9a7146101645780630cac7f7c146101945780631093a012146101b0578063125fcabe146101cc57806315a2bf6f146101ea575b600080fd5b61017e6004803603810190610179919061330f565b61043e565b60405161018b9190613a5c565b60405180910390f35b6101ae60048036038101906101a9919061338a565b6104b8565b005b6101ca60048036038101906101c591906133c6565b6105a0565b005b6101d4610cfd565b6040516101e19190613a77565b60405180910390f35b61020460048036038101906101ff9190613281565b610d21565b005b610220600480360381019061021b91906132aa565b610d7c565b60405161022d9190613a77565b60405180910390f35b610250600480360381019061024b9190613361565b610d9b565b005b61026c600480360381019061026791906132d3565b61133e565b005b610288600480360381019061028391906132d3565b611367565b005b6102926113ea565b60405161029f9190613a77565b60405180910390f35b6102c260048036038101906102bd919061338a565b61140e565b005b6102de60048036038101906102d99190613361565b6115fb565b6040516102eb9190613bb4565b60405180910390f35b61030e60048036038101906103099190613361565b6118b5565b005b61032a600480360381019061032591906132d3565b6119fd565b6040516103379190613a5c565b60405180910390f35b610348611a67565b6040516103559190613a77565b60405180910390f35b6103786004803603810190610373919061338a565b611a6f565b005b610394600480360381019061038f9190613361565b611c67565b6040516103a79796959493929190613bd0565b60405180910390f35b6103ca60048036038101906103c591906132d3565b611e9f565b005b6103e660048036038101906103e19190613361565b611ec8565b005b61040260048036038101906103fd919061338a565b61207d565b005b61041e60048036038101906104199190613361565b61227d565b005b6104286123ad565b6040516104359190613a77565b60405180910390f35b60007f7965db0b000000000000000000000000000000000000000000000000000000007bffffffffffffffffffffffffffffffffffffffffffffffffffffffff1916827bffffffffffffffffffffffffffffffffffffffffffffffffffffffff191614806104b157506104b0826123d1565b5b9050919050565b7fef17b1f3c5a412f9c8e887e3abd186802afec7dc657fd3b7002bf87b128dd0b16104ea816104e561243b565b612443565b60006104f5846124e1565b90504260026000868152602001908152602001600020600b0181905550600083826105209190613d69565b116105735760006002600086815260200190815260200160002060080181905550837f1aa643fe068ff179d442fe9f05de8dafb322853165c2d669796210e44cdd41e060405160405180910390a261059a565b828161057f9190613d69565b60026000868152602001908152602001600020600801819055505b50505050565b7f8148235029d65678fdc6628a7b47cd99e73930cd0850fa4f5f1371b66f605a896105d2816105cd61243b565b612443565b600015156002600086815260200190815260200160002060090160009054906101000a900460ff1615151461063c576040517f08c379a000000000000000000000000000000000000000000000000000000000815260040161063390613b74565b60405180910390fd5b600015156002600085815260200190815260200160002060090160009054906101000a900460ff161515146106a6576040517f08c379a000000000000000000000000000000000000000000000000000000000815260040161069d90613af4565b60405180910390fd5b600015156002600086815260200190815260200160002060090160019054906101000a900460ff16151514610710576040517f08c379a000000000000000000000000000000000000000000000000000000000815260040161070790613b14565b60405180910390fd5b600015156002600085815260200190815260200160002060090160019054906101000a900460ff1615151461077a576040517f08c379a000000000000000000000000000000000000000000000000000000000815260040161077190613ad4565b60405180910390fd5b6002600084815260200190815260200160002060000160050154600260008681526020019081526020016000206000016005015410156107ef576040517f08c379a00000000000000000000000000000000000000000000000000000000081526004016107e690613b34565b60405180910390fd5b60016002600085815260200190815260200160002060090160016101000a81548160ff02191690831515021790555060006004811115610858577f4e487b7100000000000000000000000000000000000000000000000000000000600052602160045260246000fd5b826004811115610891577f4e487b7100000000000000000000000000000000000000000000000000000000600052602160045260246000fd5b14156109205760646002806000868152602001908152602001600020600001600501546108be9190613d0f565b60026000868152602001908152602001600020600001600001546108e29190613d0f565b6108ec9190613cde565b6002600086815260200190815260200160002060000160000160008282546109149190613c88565b92505081905550610cf7565b6001600481111561095a577f4e487b7100000000000000000000000000000000000000000000000000000000600052602160045260246000fd5b826004811115610993577f4e487b7100000000000000000000000000000000000000000000000000000000600052602160045260246000fd5b1415610a225760646002806000868152602001908152602001600020600001600501546109c09190613d0f565b60026000868152602001908152602001600020600001600101546109e49190613d0f565b6109ee9190613cde565b600260008681526020019081526020016000206000016001016000828254610a169190613c88565b92505081905550610cf6565b60026004811115610a5c577f4e487b7100000000000000000000000000000000000000000000000000000000600052602160045260246000fd5b826004811115610a95577f4e487b7100000000000000000000000000000000000000000000000000000000600052602160045260246000fd5b1415610b24576064600280600086815260200190815260200160002060000160050154610ac29190613d0f565b6002600086815260200190815260200160002060000160020154610ae69190613d0f565b610af09190613cde565b600260008681526020019081526020016000206000016002016000828254610b189190613c88565b92505081905550610cf5565b60036004811115610b5e577f4e487b7100000000000000000000000000000000000000000000000000000000600052602160045260246000fd5b826004811115610b97577f4e487b7100000000000000000000000000000000000000000000000000000000600052602160045260246000fd5b1415610c26576064600280600086815260200190815260200160002060000160050154610bc49190613d0f565b6002600086815260200190815260200160002060000160030154610be89190613d0f565b610bf29190613cde565b600260008681526020019081526020016000206000016003016000828254610c1a9190613c88565b92505081905550610cf4565b600480811115610c5f577f4e487b7100000000000000000000000000000000000000000000000000000000600052602160045260246000fd5b826004811115610c98577f4e487b7100000000000000000000000000000000000000000000000000000000600052602160045260246000fd5b1415610cf357600280600085815260200190815260200160002060000160050154610cc39190613cde565b600260008681526020019081526020016000206000016004016000828254610ceb9190613c88565b925050819055505b5b5b5b5b50505050565b7f70d2ef7b36d4d736c45b93d416eb05228e962106468d1bcabdf09a53d30ad8f681565b6000600102610d3781610d3261243b565b612443565b81600160006101000a81548173ffffffffffffffffffffffffffffffffffffffff021916908373ffffffffffffffffffffffffffffffffffffffff1602179055505050565b6000806000838152602001908152602001600020600101549050919050565b7f8148235029d65678fdc6628a7b47cd99e73930cd0850fa4f5f1371b66f605a89610dcd81610dc861243b565b612443565b60006103b66002610ddf85606461253a565b610de99190613cde565b610df39190613c88565b90506040518060e0016040528060405180610120016040528084815260200160b46002610e2d60018a610e269190613c88565b600a61253a565b610e379190613d0f565b610e419190613c88565b8152602001605a610e5f600389610e589190613c88565b600a61253a565b610e699190613c88565b8152602001605a610e87600389610e809190613c88565b600a61253a565b610e919190613c88565b8152602001600a81526020016001600580811115610ed8577f4e487b7100000000000000000000000000000000000000000000000000000000600052602160045260246000fd5b610ee29190613c88565b8152602001600580811115610f20577f4e487b7100000000000000000000000000000000000000000000000000000000600052602160045260246000fd5b8152602001600160009054906101000a900473ffffffffffffffffffffffffffffffffffffffff1673ffffffffffffffffffffffffffffffffffffffff16639507d39a600589610f709190613c88565b6040518263ffffffff167c0100000000000000000000000000000000000000000000000000000000028152600401610fa89190613c46565b60206040518083038186803b158015610fc057600080fd5b505afa158015610fd4573d6000803e3d6000fd5b505050506040513d601f19601f82011682018060405250810190610ff89190613338565b6009811115611030577f4e487b7100000000000000000000000000000000000000000000000000000000600052602160045260246000fd5b8152602001600160009054906101000a900473ffffffffffffffffffffffffffffffffffffffff1673ffffffffffffffffffffffffffffffffffffffff16639507d39a6006896110809190613c88565b6040518263ffffffff167c01000000000000000000000000000000000000000000000000000000000281526004016110b89190613c46565b60206040518083038186803b1580156110d057600080fd5b505afa1580156110e4573d6000803e3d6000fd5b505050506040513d601f19601f820116820180604052508101906111089190613338565b6009811115611140577f4e487b7100000000000000000000000000000000000000000000000000000000600052602160045260246000fd5b8152508152602001828152602001600a81526020016000151581526020016000151581526020014281526020014281525060026000858152602001908152602001600020600082015181600001600082015181600001556020820151816001015560408201518160020155606082015181600301556080820151816004015560a0820151816005015560c08201518160060160006101000a81548160ff0219169083600581111561121a577f4e487b7100000000000000000000000000000000000000000000000000000000600052602160045260246000fd5b021790555060e08201518160060160016101000a81548160ff02191690836009811115611270577f4e487b7100000000000000000000000000000000000000000000000000000000600052602160045260246000fd5b02179055506101008201518160060160026101000a81548160ff021916908360098111156112c7577f4e487b7100000000000000000000000000000000000000000000000000000000600052602160045260246000fd5b02179055505050602082015181600701556040820151816008015560608201518160090160006101000a81548160ff02191690831515021790555060808201518160090160016101000a81548160ff02191690831515021790555060a082015181600a015560c082015181600b0155905050505050565b61134782610d7c565b6113588161135361243b565b612443565b611362838361257e565b505050565b61136f61243b565b73ffffffffffffffffffffffffffffffffffffffff168173ffffffffffffffffffffffffffffffffffffffff16146113dc576040517f08c379a00000000000000000000000000000000000000000000000000000000081526004016113d390613b94565b60405180910390fd5b6113e6828261265e565b5050565b7f8148235029d65678fdc6628a7b47cd99e73930cd0850fa4f5f1371b66f605a8981565b7f70d2ef7b36d4d736c45b93d416eb05228e962106468d1bcabdf09a53d30ad8f66114408161143b61243b565b612443565b600015156002600085815260200190815260200160002060090160009054906101000a900460ff161515146114aa576040517f08c379a00000000000000000000000000000000000000000000000000000000081526004016114a190613b74565b60405180910390fd5b600015156002600085815260200190815260200160002060090160019054906101000a900460ff16151514611514576040517f08c379a000000000000000000000000000000000000000000000000000000000815260040161150b90613b14565b60405180910390fd5b600061151f846124e1565b90504260026000868152602001908152602001600020600b0181905550600260008581526020019081526020016000206000016004015483826115629190613c88565b11156115a157600260008581526020019081526020016000206000016004015460026000868152602001908152602001600020600801819055506115c8565b82816115ad9190613c88565b60026000868152602001908152602001600020600801819055505b837f7b1c614d83562a30b8f2320242e1bf3883fcbb15dec65aa139fdef6a93f8870660405160405180910390a250505050565b6116036130c8565b6040518060e0016040528060026000858152602001908152602001600020600001604051806101200160405290816000820154815260200160018201548152602001600282015481526020016003820154815260200160048201548152602001600582015481526020016006820160009054906101000a900460ff1660058111156116b7577f4e487b7100000000000000000000000000000000000000000000000000000000600052602160045260246000fd5b60058111156116ef577f4e487b7100000000000000000000000000000000000000000000000000000000600052602160045260246000fd5b81526020016006820160019054906101000a900460ff16600981111561173e577f4e487b7100000000000000000000000000000000000000000000000000000000600052602160045260246000fd5b6009811115611776577f4e487b7100000000000000000000000000000000000000000000000000000000600052602160045260246000fd5b81526020016006820160029054906101000a900460ff1660098111156117c5577f4e487b7100000000000000000000000000000000000000000000000000000000600052602160045260246000fd5b60098111156117fd577f4e487b7100000000000000000000000000000000000000000000000000000000600052602160045260246000fd5b81525050815260200161180f8461273f565b815260200161181d846124e1565b81526020016002600085815260200190815260200160002060090160009054906101000a900460ff16151581526020016002600085815260200190815260200160002060090160019054906101000a900460ff161515815260200160026000858152602001908152602001600020600a0154815260200160026000858152602001908152602001600020600b01548152509050919050565b7f8148235029d65678fdc6628a7b47cd99e73930cd0850fa4f5f1371b66f605a896118e7816118e261243b565b612443565b6119f98261191a6102bc60036118fe87606461253a565b6119089190613d0f565b6119129190613c88565b6103e86127bc565b611953609660056119386001896119319190613c88565b600a61253a565b6119429190613d0f565b61194c9190613c88565b60c86127bc565b61198c6046600361197160028a61196a9190613c88565b600a61253a565b61197b9190613d0f565b6119859190613c88565b60646127bc565b6119c5604660036119aa60038b6119a39190613c88565b600a61253a565b6119b49190613d0f565b6119be9190613c88565b60646127bc565b600560026119e060048b6119d99190613c88565b600a61253a565b6119ea9190613cde565b6119f49190613c88565b6127d5565b5050565b600080600084815260200190815260200160002060000160008373ffffffffffffffffffffffffffffffffffffffff1673ffffffffffffffffffffffffffffffffffffffff16815260200190815260200160002060009054906101000a900460ff16905092915050565b600060010281565b7f70d2ef7b36d4d736c45b93d416eb05228e962106468d1bcabdf09a53d30ad8f6611aa181611a9c61243b565b612443565b600015156002600085815260200190815260200160002060090160009054906101000a900460ff16151514611b0b576040517f08c379a0000000000000000000000000000000000000000000000000000000008152600401611b0290613b74565b60405180910390fd5b600015156002600085815260200190815260200160002060090160019054906101000a900460ff16151514611b75576040517f08c379a0000000000000000000000000000000000000000000000000000000008152600401611b6c90613b14565b60405180910390fd5b6000611b808461273f565b90504260026000868152602001908152602001600020600a018190555060026000858152602001908152602001600020600001600001548382611bc39190613c88565b1115611c025760026000858152602001908152602001600020600001600001546002600086815260200190815260200160002060070181905550611c29565b8281611c0e9190613c88565b60026000868152602001908152602001600020600701819055505b837f768c62cbb4f04d72e0da3f6fdc173729920788d5f0ece38ec2439b68c1e5cd5c84604051611c599190613c46565b60405180910390a250505050565b600260205280600052604060002060009150905080600001604051806101200160405290816000820154815260200160018201548152602001600282015481526020016003820154815260200160048201548152602001600582015481526020016006820160009054906101000a900460ff166005811115611d12577f4e487b7100000000000000000000000000000000000000000000000000000000600052602160045260246000fd5b6005811115611d4a577f4e487b7100000000000000000000000000000000000000000000000000000000600052602160045260246000fd5b81526020016006820160019054906101000a900460ff166009811115611d99577f4e487b7100000000000000000000000000000000000000000000000000000000600052602160045260246000fd5b6009811115611dd1577f4e487b7100000000000000000000000000000000000000000000000000000000600052602160045260246000fd5b81526020016006820160029054906101000a900460ff166009811115611e20577f4e487b7100000000000000000000000000000000000000000000000000000000600052602160045260246000fd5b6009811115611e58577f4e487b7100000000000000000000000000000000000000000000000000000000600052602160045260246000fd5b81525050908060070154908060080154908060090160009054906101000a900460ff16908060090160019054906101000a900460ff169080600a01549080600b0154905087565b611ea882610d7c565b611eb981611eb461243b565b612443565b611ec3838361265e565b505050565b7f70d2ef7b36d4d736c45b93d416eb05228e962106468d1bcabdf09a53d30ad8f6611efa81611ef561243b565b612443565b600115156002600084815260200190815260200160002060090160009054906101000a900460ff16151514611f64576040517f08c379a0000000000000000000000000000000000000000000000000000000008152600401611f5b90613b54565b60405180910390fd5b600015156002600084815260200190815260200160002060090160019054906101000a900460ff16151514611fce576040517f08c379a0000000000000000000000000000000000000000000000000000000008152600401611fc590613b14565b60405180910390fd5b4260026000848152602001908152602001600020600a01819055506002600083815260200190815260200160002060000160000154600260008481526020019081526020016000206007018190555060006002600084815260200190815260200160002060090160006101000a81548160ff021916908315150217905550817fb9361f9981ef0c1c1f7eb5f84ddc5c86856399e50544a74c4974cf0b31ad80d360405160405180910390a25050565b7fef17b1f3c5a412f9c8e887e3abd186802afec7dc657fd3b7002bf87b128dd0b16120af816120aa61243b565b612443565b600015156002600085815260200190815260200160002060090160009054906101000a900460ff16151514612119576040517f08c379a000000000000000000000000000000000000000000000000000000000815260040161211090613b74565b60405180910390fd5b600015156002600085815260200190815260200160002060090160019054906101000a900460ff16151514612183576040517f08c379a000000000000000000000000000000000000000000000000000000000815260040161217a90613b14565b60405180910390fd5b4260026000858152602001908152602001600020600a01819055506000821415612224576000600260008581526020019081526020016000206007018190555060016002600085815260200190815260200160002060090160006101000a81548160ff021916908315150217905550827fbf807412a0d12ad8247319f96b9e2e6e6550c7fac3563024db59ae868b9bdd1560405160405180910390a2612278565b816002600085815260200190815260200160002060070181905550827f963956ffc98b7d1f745416434f4737fb6e8b1316f26e96a9c04431f2235b64218360405161226f9190613c46565b60405180910390a25b505050565b7f8148235029d65678fdc6628a7b47cd99e73930cd0850fa4f5f1371b66f605a896122af816122aa61243b565b612443565b6123a9826122e160c860086122c587606461253a565b6122cf9190613d0f565b6122d99190613c88565b6103e86127bc565b61231b601460086122ff6001896122f89190613c88565b600a61253a565b6123099190613d0f565b6123139190613c88565b6108986127bc565b612354600a600961233960028a6123329190613c88565b600a61253a565b6123439190613d0f565b61234d9190613c88565b60646127bc565b61238d6014600861237260038b61236b9190613c88565b600a61253a565b61237c9190613d0f565b6123869190613c88565b60646127bc565b6123a460048961239d9190613c88565b600a61253a565b6127d5565b5050565b7fef17b1f3c5a412f9c8e887e3abd186802afec7dc657fd3b7002bf87b128dd0b181565b60007f01ffc9a7000000000000000000000000000000000000000000000000000000007bffffffffffffffffffffffffffffffffffffffffffffffffffffffff1916827bffffffffffffffffffffffffffffffffffffffffffffffffffffffff1916149050919050565b600033905090565b61244d82826119fd565b6124dd576124728173ffffffffffffffffffffffffffffffffffffffff166014612ce6565b61248183600190046020612ce6565b6040516020016124929291906139e5565b6040516020818303038152906040526040517f08c379a00000000000000000000000000000000000000000000000000000000081526004016124d49190613a92565b60405180910390fd5b5050565b6000611c2060026000848152602001908152602001600020600a0154426125089190613d69565b6125129190613cde565b60026000848152602001908152602001600020600801546125339190613c88565b9050919050565b60008142338560405160200161255293929190613a1f565b60405160208183030381529060405280519060200120600190046125769190613ef0565b905092915050565b61258882826119fd565b61265a57600160008084815260200190815260200160002060000160008373ffffffffffffffffffffffffffffffffffffffff1673ffffffffffffffffffffffffffffffffffffffff16815260200190815260200160002060006101000a81548160ff0219169083151502179055506125ff61243b565b73ffffffffffffffffffffffffffffffffffffffff168173ffffffffffffffffffffffffffffffffffffffff16837f2f8788117e7eff1d82e926ec794901d17c78024a50270940304540a733656f0d60405160405180910390a45b5050565b61266882826119fd565b1561273b57600080600084815260200190815260200160002060000160008373ffffffffffffffffffffffffffffffffffffffff1673ffffffffffffffffffffffffffffffffffffffff16815260200190815260200160002060006101000a81548160ff0219169083151502179055506126e061243b565b73ffffffffffffffffffffffffffffffffffffffff168173ffffffffffffffffffffffffffffffffffffffff16837ff6391f5c32d9c69d2a47ea670b442974b53935d1edc7fd64eb21e047a839171b60405160405180910390a45b5050565b6000610e1060026000848152602001908152602001600020600a0154426127669190613d69565b6127709190613cde565b60026000848152602001908152602001600020600001600301546127949190613d0f565b60026000848152602001908152602001600020600701546127b59190613c88565b9050919050565b60008183106127cb57816127cd565b825b905092915050565b600081905060028210156127ec57600290506127fb565b60088211156127fa57600890505b5b600061280a8787878786613007565b90506040518060e001604052806040518061012001604052808a8152602001898152602001888152602001878152602001858152602001600185600581111561287c577f4e487b7100000000000000000000000000000000000000000000000000000000600052602160045260246000fd5b6128869190613c88565b81526020018460058111156128c4577f4e487b7100000000000000000000000000000000000000000000000000000000600052602160045260246000fd5b8152602001600160009054906101000a900473ffffffffffffffffffffffffffffffffffffffff1673ffffffffffffffffffffffffffffffffffffffff16639507d39a60058e6129149190613c88565b6040518263ffffffff167c010000000000000000000000000000000000000000000000000000000002815260040161294c9190613c46565b60206040518083038186803b15801561296457600080fd5b505afa158015612978573d6000803e3d6000fd5b505050506040513d601f19601f8201168201806040525081019061299c9190613338565b60098111156129d4577f4e487b7100000000000000000000000000000000000000000000000000000000600052602160045260246000fd5b8152602001600160009054906101000a900473ffffffffffffffffffffffffffffffffffffffff1673ffffffffffffffffffffffffffffffffffffffff16639507d39a60068e612a249190613c88565b6040518263ffffffff167c0100000000000000000000000000000000000000000000000000000000028152600401612a5c9190613c46565b60206040518083038186803b158015612a7457600080fd5b505afa158015612a88573d6000803e3d6000fd5b505050506040513d601f19601f82011682018060405250810190612aac9190613338565b6009811115612ae4577f4e487b7100000000000000000000000000000000000000000000000000000000600052602160045260246000fd5b815250815260200188815260200183815260200160001515815260200160001515815260200142815260200142815250600260008a8152602001908152602001600020600082015181600001600082015181600001556020820151816001015560408201518160020155606082015181600301556080820151816004015560a0820151816005015560c08201518160060160006101000a81548160ff02191690836005811115612bbd577f4e487b7100000000000000000000000000000000000000000000000000000000600052602160045260246000fd5b021790555060e08201518160060160016101000a81548160ff02191690836009811115612c13577f4e487b7100000000000000000000000000000000000000000000000000000000600052602160045260246000fd5b02179055506101008201518160060160026101000a81548160ff02191690836009811115612c6a577f4e487b7100000000000000000000000000000000000000000000000000000000600052602160045260246000fd5b02179055505050602082015181600701556040820151816008015560608201518160090160006101000a81548160ff02191690831515021790555060808201518160090160016101000a81548160ff02191690831515021790555060a082015181600a015560c082015181600b01559050505050505050505050565b606060006002836002612cf99190613d0f565b612d039190613c88565b67ffffffffffffffff811115612d42577f4e487b7100000000000000000000000000000000000000000000000000000000600052604160045260246000fd5b6040519080825280601f01601f191660200182016040528015612d745781602001600182028036833780820191505090505b5090507f300000000000000000000000000000000000000000000000000000000000000081600081518110612dd2577f4e487b7100000000000000000000000000000000000000000000000000000000600052603260045260246000fd5b60200101907effffffffffffffffffffffffffffffffffffffffffffffffffffffffffffff1916908160001a9053507f780000000000000000000000000000000000000000000000000000000000000081600181518110612e5c577f4e487b7100000000000000000000000000000000000000000000000000000000600052603260045260246000fd5b60200101907effffffffffffffffffffffffffffffffffffffffffffffffffffffffffffff1916908160001a90535060006001846002612e9c9190613d0f565b612ea69190613c88565b90505b6001811115612fb9577f3031323334353637383961626364656600000000000000000000000000000000600f861660108110612f0e577f4e487b7100000000000000000000000000000000000000000000000000000000600052603260045260246000fd5b1a7f010000000000000000000000000000000000000000000000000000000000000002828281518110612f6a577f4e487b7100000000000000000000000000000000000000000000000000000000600052603260045260246000fd5b60200101907effffffffffffffffffffffffffffffffffffffffffffffffffffffffffffff1916908160001a905350600485908060020a8204915050945080612fb290613e98565b9050612ea9565b5060008414612ffd576040517f08c379a0000000000000000000000000000000000000000000000000000000008152600401612ff490613ab4565b60405180910390fd5b8091505092915050565b600080600a846130179190613d0f565b6064846130249190613d0f565b600a876130319190613d0f565b60058961303e9190613d0f565b8a6130499190613c88565b6130539190613c88565b61305d9190613c88565b6130679190613c88565b90506111f881111561307d5760049150506130bf565b610fa08111156130915760039150506130bf565b610bb88111156130a55760029150506130bf565b6105dc8111156130b95760019150506130bf565b60009150505b95945050505050565b6040518060e001604052806130db61310f565b8152602001600081526020016000815260200160001515815260200160001515815260200160008152602001600081525090565b6040518061012001604052806000815260200160008152602001600081526020016000815260200160008152602001600081526020016000600581111561317f577f4e487b7100000000000000000000000000000000000000000000000000000000600052602160045260246000fd5b8152602001600060098111156131be577f4e487b7100000000000000000000000000000000000000000000000000000000600052602160045260246000fd5b8152602001600060098111156131fd577f4e487b7100000000000000000000000000000000000000000000000000000000600052602160045260246000fd5b81525090565b60008135905061321281614000565b92915050565b60008135905061322781614017565b92915050565b60008135905061323c8161402e565b92915050565b60008135905061325181614045565b92915050565b60008151905061326681614055565b92915050565b60008135905061327b81614065565b92915050565b60006020828403121561329357600080fd5b60006132a184828501613203565b91505092915050565b6000602082840312156132bc57600080fd5b60006132ca84828501613218565b91505092915050565b600080604083850312156132e657600080fd5b60006132f485828601613218565b925050602061330585828601613203565b9150509250929050565b60006020828403121561332157600080fd5b600061332f8482850161322d565b91505092915050565b60006020828403121561334a57600080fd5b600061335884828501613257565b91505092915050565b60006020828403121561337357600080fd5b60006133818482850161326c565b91505092915050565b6000806040838503121561339d57600080fd5b60006133ab8582860161326c565b92505060206133bc8582860161326c565b9150509250929050565b6000806000606084860312156133db57600080fd5b60006133e98682870161326c565b93505060206133fa8682870161326c565b925050604061340b86828701613242565b9150509250925092565b61342661342182613d9d565b613ec2565b82525050565b61343581613daf565b82525050565b61344481613daf565b82525050565b61345381613dbb565b82525050565b61346281613e41565b82525050565b61347181613e53565b82525050565b600061348282613c61565b61348c8185613c6c565b935061349c818560208601613e65565b6134a581613fae565b840191505092915050565b60006134bb82613c61565b6134c58185613c7d565b93506134d5818560208601613e65565b80840191505092915050565b60006134ee602083613c6c565b91507f537472696e67733a20686578206c656e67746820696e73756666696369656e746000830152602082019050919050565b600061352e601f83613c6c565b91507f676976656e2074617267657420697320616c7265616479206275726e65642e006000830152602082019050919050565b600061356e601d83613c6c565b91507f676976656e2074617267657420697320616c726561647920646561642e0000006000830152602082019050919050565b60006135ae601e83613c6c565b91507f676976656e204e6f6b616920697320616c7265616479206275726e65642e00006000830152602082019050919050565b60006135ee602283613c6c565b91507f7461726765742073686f756c64206265206f662061206c6f776572206772616460008301527f652e0000000000000000000000000000000000000000000000000000000000006020830152604082019050919050565b6000613654601783613c7d565b91507f416363657373436f6e74726f6c3a206163636f756e74200000000000000000006000830152601782019050919050565b6000613694601883613c6c565b91507f676976656e204e6f6b6169206973206e6f7420646561642e00000000000000006000830152602082019050919050565b60006136d4601183613c7d565b91507f206973206d697373696e6720726f6c65200000000000000000000000000000006000830152601182019050919050565b6000613714601c83613c6c565b91507f676976656e204e6f6b616920697320616c726561647920646561642e000000006000830152602082019050919050565b6000613754602f83613c6c565b91507f416363657373436f6e74726f6c3a2063616e206f6e6c792072656e6f756e636560008301527f20726f6c657320666f722073656c6600000000000000000000000000000000006020830152604082019050919050565b6101e0820160008201516137c46000850182613842565b5060208201516137d86101208501826139b0565b5060408201516137ec6101408501826139b0565b50606082015161380061016085018261342c565b50608082015161381461018085018261342c565b5060a08201516138286101a08501826139b0565b5060c082015161383c6101c08501826139b0565b50505050565b6101208201600082015161385960008501826139b0565b50602082015161386c60208501826139b0565b50604082015161387f60408501826139b0565b50606082015161389260608501826139b0565b5060808201516138a560808501826139b0565b5060a08201516138b860a08501826139b0565b5060c08201516138cb60c0850182613459565b5060e08201516138de60e0850182613468565b506101008201516138f3610100850182613468565b50505050565b6101208201600082015161391060008501826139b0565b50602082015161392360208501826139b0565b50604082015161393660408501826139b0565b50606082015161394960608501826139b0565b50608082015161395c60808501826139b0565b5060a082015161396f60a08501826139b0565b5060c082015161398260c0850182613459565b5060e082015161399560e0850182613468565b506101008201516139aa610100850182613468565b50505050565b6139b981613e37565b82525050565b6139c881613e37565b82525050565b6139df6139da82613e37565b613ee6565b82525050565b60006139f082613647565b91506139fc82856134b0565b9150613a07826136c7565b9150613a1382846134b0565b91508190509392505050565b6000613a2b82866139ce565b602082019150613a3b8285613415565b601482019150613a4b82846139ce565b602082019150819050949350505050565b6000602082019050613a71600083018461343b565b92915050565b6000602082019050613a8c600083018461344a565b92915050565b60006020820190508181036000830152613aac8184613477565b905092915050565b60006020820190508181036000830152613acd816134e1565b9050919050565b60006020820190508181036000830152613aed81613521565b9050919050565b60006020820190508181036000830152613b0d81613561565b9050919050565b60006020820190508181036000830152613b2d816135a1565b9050919050565b60006020820190508181036000830152613b4d816135e1565b9050919050565b60006020820190508181036000830152613b6d81613687565b9050919050565b60006020820190508181036000830152613b8d81613707565b9050919050565b60006020820190508181036000830152613bad81613747565b9050919050565b60006101e082019050613bca60008301846137ad565b92915050565b60006101e082019050613be6600083018a6138f9565b613bf46101208301896139bf565b613c026101408301886139bf565b613c1061016083018761343b565b613c1e61018083018661343b565b613c2c6101a08301856139bf565b613c3a6101c08301846139bf565b98975050505050505050565b6000602082019050613c5b60008301846139bf565b92915050565b600081519050919050565b600082825260208201905092915050565b600081905092915050565b6000613c9382613e37565b9150613c9e83613e37565b9250827fffffffffffffffffffffffffffffffffffffffffffffffffffffffffffffffff03821115613cd357613cd2613f21565b5b828201905092915050565b6000613ce982613e37565b9150613cf483613e37565b925082613d0457613d03613f50565b5b828204905092915050565b6000613d1a82613e37565b9150613d2583613e37565b9250817fffffffffffffffffffffffffffffffffffffffffffffffffffffffffffffffff0483118215151615613d5e57613d5d613f21565b5b828202905092915050565b6000613d7482613e37565b9150613d7f83613e37565b925082821015613d9257613d91613f21565b5b828203905092915050565b6000613da882613e17565b9050919050565b60008115159050919050565b6000819050919050565b60007fffffffff0000000000000000000000000000000000000000000000000000000082169050919050565b6000819050613dff82613fd8565b919050565b6000819050613e1282613fec565b919050565b600073ffffffffffffffffffffffffffffffffffffffff82169050919050565b6000819050919050565b6000613e4c82613df1565b9050919050565b6000613e5e82613e04565b9050919050565b60005b83811015613e83578082015181840152602081019050613e68565b83811115613e92576000848401525b50505050565b6000613ea382613e37565b91506000821415613eb757613eb6613f21565b5b600182039050919050565b6000613ecd82613ed4565b9050919050565b6000613edf82613fbf565b9050919050565b6000819050919050565b6000613efb82613e37565b9150613f0683613e37565b925082613f1657613f15613f50565b5b828206905092915050565b7f4e487b7100000000000000000000000000000000000000000000000000000000600052601160045260246000fd5b7f4e487b7100000000000000000000000000000000000000000000000000000000600052601260045260246000fd5b7f4e487b7100000000000000000000000000000000000000000000000000000000600052602160045260246000fd5b6000601f19601f8301169050919050565b60006c0100000000000000000000000082029050919050565b60068110613fe957613fe8613f7f565b5b50565b600a8110613ffd57613ffc613f7f565b5b50565b61400981613d9d565b811461401457600080fd5b50565b61402081613dbb565b811461402b57600080fd5b50565b61403781613dc5565b811461404257600080fd5b50565b6005811061405257600080fd5b50565b600a811061406257600080fd5b50565b61406e81613e37565b811461407957600080fd5b5056fea26469706673582212204788feea427037822b1b31dce8fdcbd78f7996d4e4cdf2208dbde1d09136157664736f6c63430008000033",
  "immutableReferences": {},
  "source": "pragma solidity ^0.8.0;\r\npragma experimental ABIEncoderV2;\r\n\r\nimport \"@openzeppelin/contracts/access/AccessControl.sol\";\r\nimport \"@openzeppelin/contracts/utils/math/Math.sol\";\r\nimport \"../utils/RandomUtils.sol\";\r\nimport \"./NokaiTechnique.sol\";\r\n\r\n// SPDX-License-Identifier: MIT\r\ncontract NokaiStats is AccessControl {\r\n    bytes32 public constant NOKAI_MANAGER_ROLE = keccak256(\"NOKAI_MANAGER_ROLE\");\r\n    bytes32 public constant GAME_MANAGER_ROLE = keccak256(\"GAME_MANAGER_ROLE\");\r\n    bytes32 public constant INVENTORY_MANAGER_ROLE = keccak256(\"INVENTORY_MANAGER_ROLE\");\r\n\r\n    enum Rarity {\r\n        Spirit,\r\n        Champion,\r\n        Overlord,\r\n        Astral,\r\n        Legend,\r\n        God\r\n    }\r\n\r\n    enum StatType {\r\n        HP,\r\n        ATTACK,\r\n        DEFENSE,\r\n        REGEN,\r\n        PA\r\n    }\r\n\r\n    struct Profile {\r\n        Stats stats;\r\n        uint256 currentHp;\r\n        uint256 currentPa;\r\n        bool dead;\r\n        bool burned;\r\n        uint256 lastHpSet;\r\n        uint256 lastPaSet;\r\n    }\r\n\r\n    struct Stats {\r\n        uint256 hp;\r\n        uint256 attack;\r\n        uint256 defense;\r\n        uint256 regen;\r\n        uint256 pa;\r\n        uint256 gradeValue;\r\n        Rarity grade;\r\n        NokaiTechnique.Technique technique1;\r\n        NokaiTechnique.Technique technique2;\r\n    }\r\n\r\n    NokaiTechnique private techniquePicker;\r\n    mapping(uint256 => Profile) public profiles;\r\n\r\n    constructor(address _techniquePicker) {\r\n        techniquePicker = NokaiTechnique(_techniquePicker);\r\n        _setupRole(DEFAULT_ADMIN_ROLE, msg.sender);\r\n    }\r\n\r\n    function migrateNokaiTechnique(address _techniquePicker) external onlyRole(DEFAULT_ADMIN_ROLE) {\r\n        techniquePicker = NokaiTechnique(_techniquePicker);\r\n    }\r\n\r\n    function generateNokai(uint256 newNokaiId) external onlyRole(NOKAI_MANAGER_ROLE) {\r\n        _saveNokaiProfile(\r\n            newNokaiId,\r\n            Math.min(RandomUtils._rand(newNokaiId, 100) * 8 + 200, 1000),\r\n            Math.min(RandomUtils._rand(newNokaiId + 1, 10) * 8 + 20, 2200),\r\n            Math.min(RandomUtils._rand(newNokaiId + 2, 10) * 9 + 10, 100),\r\n            Math.min(RandomUtils._rand(newNokaiId + 3, 10) * 8 + 20, 100),\r\n            RandomUtils._rand(newNokaiId + 4, 10)\r\n        );\r\n    }\r\n\r\n    function generateHighNokai(uint256 newNokaiId) external onlyRole(NOKAI_MANAGER_ROLE) {\r\n        _saveNokaiProfile(\r\n            newNokaiId,\r\n            Math.min(RandomUtils._rand(newNokaiId, 100) * 3 + 700, 1000),\r\n            Math.min(RandomUtils._rand(newNokaiId + 1, 10) * 5 + 150, 200),\r\n            Math.min(RandomUtils._rand(newNokaiId + 2, 10) * 3 + 70, 100),\r\n            Math.min(RandomUtils._rand(newNokaiId + 3, 10) * 3 + 70, 100),\r\n            RandomUtils._rand(newNokaiId + 4, 10) / 2 + 5\r\n        );\r\n    }\r\n\r\n    function generateGodNokai(uint256 newNokaiId) external onlyRole(NOKAI_MANAGER_ROLE) {\r\n        uint256 hp = (RandomUtils._rand(newNokaiId, 100) / 2) + 950;\r\n        profiles[newNokaiId] = Profile({\r\n        stats : Stats({\r\n        hp : hp,\r\n        attack : RandomUtils._rand(newNokaiId + 1, 10) * 2 + 180,\r\n        defense : RandomUtils._rand(newNokaiId + 3, 10) + 90,\r\n        regen : RandomUtils._rand(newNokaiId + 3, 10) + 90,\r\n        pa : 10,\r\n        technique1 : techniquePicker.get(newNokaiId + 5),\r\n        technique2 : techniquePicker.get(newNokaiId + 6),\r\n        grade : Rarity.God,\r\n        gradeValue : uint256(Rarity.God) + 1\r\n        }),\r\n        currentHp : hp,\r\n        currentPa : 10,\r\n        dead : false,\r\n        burned : false,\r\n        lastHpSet : block.timestamp,\r\n        lastPaSet : block.timestamp\r\n        });\r\n    }\r\n\r\n    function _saveNokaiProfile(uint256 newNokaiId, uint256 hp, uint256 attack, uint256 defense, uint256 regen, uint256 pa) private {\r\n        uint256 _pa = pa;\r\n        if (pa < 2) {\r\n            _pa = 2;\r\n        } else if (pa > 8) {\r\n            _pa = 8;\r\n        }\r\n        Rarity grade = _getBirthGrade(hp, attack, defense, regen, _pa);\r\n\r\n        profiles[newNokaiId] = Profile({\r\n        stats : Stats({\r\n        hp : hp,\r\n        attack : attack,\r\n        defense : defense,\r\n        regen : regen,\r\n        pa : _pa,\r\n        technique1 : techniquePicker.get(newNokaiId + 5),\r\n        technique2 : techniquePicker.get(newNokaiId + 6),\r\n        grade : grade,\r\n        gradeValue : uint256(grade) + 1\r\n        }),\r\n        currentHp : hp,\r\n        currentPa : _pa,\r\n        dead : false,\r\n        burned : false,\r\n        lastHpSet : block.timestamp,\r\n        lastPaSet : block.timestamp\r\n        });\r\n    }\r\n\r\n    function upgradeFromNokaiBurn(uint256 nokaiId, uint256 targetId, StatType upgradeChoice) external onlyRole(NOKAI_MANAGER_ROLE) {\r\n        require(profiles[nokaiId].dead == false, \"given Nokai is already dead.\");\r\n        require(profiles[targetId].dead == false, \"given target is already dead.\");\r\n        require(profiles[nokaiId].burned == false, \"given Nokai is already burned.\");\r\n        require(profiles[targetId].burned == false, \"given target is already burned.\");\r\n        require(profiles[nokaiId].stats.gradeValue >= profiles[targetId].stats.gradeValue, \"target should be of a lower grade.\");\r\n\r\n        profiles[targetId].burned = true;\r\n\r\n        if (upgradeChoice == StatType.HP) {\r\n            profiles[nokaiId].stats.hp += profiles[targetId].stats.hp * (profiles[targetId].stats.gradeValue * 2) / 100;\r\n        } else if (upgradeChoice == StatType.ATTACK) {\r\n            profiles[nokaiId].stats.attack += profiles[targetId].stats.attack * (profiles[targetId].stats.gradeValue * 2) / 100;\r\n        } else if (upgradeChoice == StatType.DEFENSE) {\r\n            profiles[nokaiId].stats.defense += profiles[targetId].stats.defense * (profiles[targetId].stats.gradeValue * 2) / 100;\r\n        } else if (upgradeChoice == StatType.REGEN) {\r\n            profiles[nokaiId].stats.regen += profiles[targetId].stats.regen * (profiles[targetId].stats.gradeValue * 2) / 100;\r\n        } else if (upgradeChoice == StatType.PA) {\r\n            profiles[nokaiId].stats.pa += profiles[targetId].stats.gradeValue / 2;\r\n        }\r\n    }\r\n\r\n    function _getBirthGrade(uint256 hp, uint256 attack, uint256 defense, uint256 regen, uint256 pa) private pure returns (Rarity) {\r\n        uint256 total = hp + (attack * 5) + (defense * 10) + (pa * 100) + (regen * 10);\r\n        // max should be 5000\r\n        if (total > 4600) {\r\n            return Rarity.Legend;\r\n        } else if (total > 4000) {\r\n            return Rarity.Astral;\r\n        } else if (total > 3000) {\r\n            return Rarity.Overlord;\r\n        } else if (total > 1500) {\r\n            return Rarity.Champion;\r\n        } else {\r\n            return Rarity.Spirit;\r\n        }\r\n    }\r\n\r\n    function damage(uint256 nokaiId, uint256 newHp) external onlyRole(GAME_MANAGER_ROLE) {\r\n        require(profiles[nokaiId].dead == false, \"given Nokai is already dead.\");\r\n        require(profiles[nokaiId].burned == false, \"given Nokai is already burned.\");\r\n        profiles[nokaiId].lastHpSet = block.timestamp;\r\n        if (newHp == 0) {\r\n            profiles[nokaiId].currentHp = 0;\r\n            profiles[nokaiId].dead = true;\r\n            emit NokaiKilled(nokaiId);\r\n        } else {\r\n            profiles[nokaiId].currentHp = newHp;\r\n            emit NokaiDamaged(nokaiId, newHp);\r\n        }\r\n    }\r\n\r\n    function reborn(uint256 nokaiId) external onlyRole(INVENTORY_MANAGER_ROLE) {\r\n        require(profiles[nokaiId].dead == true, \"given Nokai is not dead.\");\r\n        require(profiles[nokaiId].burned == false, \"given Nokai is already burned.\");\r\n        profiles[nokaiId].lastHpSet = block.timestamp;\r\n        profiles[nokaiId].currentHp = profiles[nokaiId].stats.hp;\r\n        profiles[nokaiId].dead = false;\r\n        emit NokaiReborn(nokaiId);\r\n    }\r\n\r\n    function heal(uint256 nokaiId, uint256 amount) external onlyRole(INVENTORY_MANAGER_ROLE) {\r\n        require(profiles[nokaiId].dead == false, \"given Nokai is already dead.\");\r\n        require(profiles[nokaiId].burned == false, \"given Nokai is already burned.\");\r\n        uint256 currentHp = _calculateHp(nokaiId);\r\n        profiles[nokaiId].lastHpSet = block.timestamp;\r\n        if (currentHp + amount > profiles[nokaiId].stats.hp) {\r\n            profiles[nokaiId].currentHp = profiles[nokaiId].stats.hp;\r\n        } else {\r\n            profiles[nokaiId].currentHp = currentHp + amount;\r\n        }\r\n        emit NokaiHealed(nokaiId, amount);\r\n    }\r\n\r\n    function energize(uint256 nokaiId, uint256 pa) external onlyRole(INVENTORY_MANAGER_ROLE) {\r\n        require(profiles[nokaiId].dead == false, \"given Nokai is already dead.\");\r\n        require(profiles[nokaiId].burned == false, \"given Nokai is already burned.\");\r\n        uint256 currentPa = _calculatePa(nokaiId);\r\n        profiles[nokaiId].lastPaSet = block.timestamp;\r\n        if (currentPa + pa > profiles[nokaiId].stats.pa) {\r\n            profiles[nokaiId].currentPa = profiles[nokaiId].stats.pa;\r\n        } else {\r\n            profiles[nokaiId].currentPa = currentPa + pa;\r\n        }\r\n        emit NokaiEnergized(nokaiId);\r\n    }\r\n\r\n    function didAction(uint256 nokaiId, uint256 _pa) external onlyRole(GAME_MANAGER_ROLE) {\r\n        uint256 currentPa = _calculatePa(nokaiId);\r\n        profiles[nokaiId].lastPaSet = block.timestamp;\r\n        if (currentPa - _pa <= 0) {\r\n            profiles[nokaiId].currentPa = 0;\r\n            emit NokaiEmptyEnergy(nokaiId);\r\n        } else {\r\n            profiles[nokaiId].currentPa = currentPa - _pa;\r\n        }\r\n    }\r\n\r\n    function _calculateHp(uint256 nokaiId) internal view returns (uint256) {\r\n        return profiles[nokaiId].currentHp + (profiles[nokaiId].stats.regen * ((block.timestamp - profiles[nokaiId].lastHpSet) / 3600));\r\n    }\r\n\r\n    function _calculatePa(uint256 nokaiId) internal view returns (uint256) {\r\n        return profiles[nokaiId].currentPa + ((block.timestamp - profiles[nokaiId].lastHpSet) / 7200);\r\n    }\r\n\r\n    function profile(uint256 nokaiId) external view returns (Profile memory) {\r\n        return Profile({\r\n        stats : profiles[nokaiId].stats,\r\n        currentHp : _calculateHp(nokaiId),\r\n        currentPa : _calculatePa(nokaiId),\r\n        dead : profiles[nokaiId].dead,\r\n        burned : profiles[nokaiId].burned,\r\n        lastHpSet : profiles[nokaiId].lastHpSet,\r\n        lastPaSet : profiles[nokaiId].lastPaSet\r\n        });\r\n    }\r\n\r\n    event NokaiDamaged(uint256 indexed nokaiId, uint256 newHp);\r\n    event NokaiKilled(uint256 indexed nokaiId);\r\n    event NokaiReborn(uint256 indexed nokaiId);\r\n    event NokaiHealed(uint256 indexed nokaiId, uint256 amount);\r\n    event NokaiEnergized(uint256 indexed nokaiId);\r\n    event NokaiEmptyEnergy(uint256 indexed nokaiId);\r\n}\r\n",
  "sourcePath": "C:\\Users\\KevinGeorgesAndres\\Documents\\projects\\perso\\blackhole-evm\\contracts\\character\\NokaiStats.sol",
  "compiler": {
    "name": "solc",
    "version": "0.8.0+commit.c7dfd78e.Emscripten.clang"
  },
  "schemaVersion": "3.4.3",
  "updatedAt": "2021-12-10T09:11:25.643Z",
  "networkType": "ethereum",
  "devdoc": {
    "kind": "dev",
    "methods": {
      "getRoleAdmin(bytes32)": {
        "details": "Returns the admin role that controls `role`. See {grantRole} and {revokeRole}. To change a role's admin, use {_setRoleAdmin}."
      },
      "grantRole(bytes32,address)": {
        "details": "Grants `role` to `account`. If `account` had not been already granted `role`, emits a {RoleGranted} event. Requirements: - the caller must have ``role``'s admin role."
      },
      "hasRole(bytes32,address)": {
        "details": "Returns `true` if `account` has been granted `role`."
      },
      "renounceRole(bytes32,address)": {
        "details": "Revokes `role` from the calling account. Roles are often managed via {grantRole} and {revokeRole}: this function's purpose is to provide a mechanism for accounts to lose their privileges if they are compromised (such as when a trusted device is misplaced). If the calling account had been revoked `role`, emits a {RoleRevoked} event. Requirements: - the caller must be `account`."
      },
      "revokeRole(bytes32,address)": {
        "details": "Revokes `role` from `account`. If `account` had been granted `role`, emits a {RoleRevoked} event. Requirements: - the caller must have ``role``'s admin role."
      },
      "supportsInterface(bytes4)": {
        "details": "See {IERC165-supportsInterface}."
      }
    },
    "version": 1
  },
  "userdoc": {
    "kind": "user",
    "methods": {},
    "version": 1
  }
}