{
  "contractName": "NokaiGacha",
  "abi": [
    {
      "inputs": [
        {
          "internalType": "address",
          "name": "_nokai",
          "type": "address"
        },
        {
          "internalType": "address",
          "name": "_holyCore",
          "type": "address"
        },
        {
          "internalType": "address",
          "name": "_holyArtefact",
          "type": "address"
        }
      ],
      "stateMutability": "nonpayable",
      "type": "constructor"
    },
    {
      "inputs": [
        {
          "internalType": "uint256",
          "name": "_number",
          "type": "uint256"
        }
      ],
      "name": "openCore",
      "outputs": [
        {
          "internalType": "uint256[]",
          "name": "",
          "type": "uint256[]"
        }
      ],
      "stateMutability": "nonpayable",
      "type": "function"
    },
    {
      "inputs": [
        {
          "internalType": "uint256",
          "name": "_number",
          "type": "uint256"
        }
      ],
      "name": "openArtefact",
      "outputs": [
        {
          "internalType": "uint256[]",
          "name": "",
          "type": "uint256[]"
        }
      ],
      "stateMutability": "nonpayable",
      "type": "function"
    },
    {
      "inputs": [],
      "name": "available",
      "outputs": [
        {
          "internalType": "uint256",
          "name": "",
          "type": "uint256"
        }
      ],
      "stateMutability": "view",
      "type": "function",
      "constant": true
    },
    {
      "inputs": [],
      "name": "availableSpecial",
      "outputs": [
        {
          "internalType": "uint256",
          "name": "",
          "type": "uint256"
        }
      ],
      "stateMutability": "view",
      "type": "function",
      "constant": true
    }
  ],
  "bytecode": "0x60806040523480156200001157600080fd5b506040516200106a3803806200106a833981810160405281019062000037919062000119565b826000806101000a81548173ffffffffffffffffffffffffffffffffffffffff021916908373ffffffffffffffffffffffffffffffffffffffff16021790555081600160006101000a81548173ffffffffffffffffffffffffffffffffffffffff021916908373ffffffffffffffffffffffffffffffffffffffff16021790555080600260006101000a81548173ffffffffffffffffffffffffffffffffffffffff021916908373ffffffffffffffffffffffffffffffffffffffff160217905550505050620001bd565b6000815190506200011381620001a3565b92915050565b6000806000606084860312156200012f57600080fd5b60006200013f8682870162000102565b9350506020620001528682870162000102565b9250506040620001658682870162000102565b9150509250925092565b60006200017c8262000183565b9050919050565b600073ffffffffffffffffffffffffffffffffffffffff82169050919050565b620001ae816200016f565b8114620001ba57600080fd5b50565b610e9d80620001cd6000396000f3fe608060405234801561001057600080fd5b5060043610610069576000357c010000000000000000000000000000000000000000000000000000000090048063207e31061461006e57806348a0d7541461008c5780636d23353c146100aa578063c84327c3146100da575b600080fd5b61007661010a565b6040516100839190610d2b565b60405180910390f35b6100946101d8565b6040516100a19190610d2b565b60405180910390f35b6100c460048036038101906100bf9190610a14565b6102a6565b6040516100d19190610c8e565b60405180910390f35b6100f460048036038101906100ef9190610a14565b610648565b6040516101019190610c8e565b60405180910390f35b6000600260009054906101000a900473ffffffffffffffffffffffffffffffffffffffff1673ffffffffffffffffffffffffffffffffffffffff166370a08231336040518263ffffffff167c01000000000000000000000000000000000000000000000000000000000281526004016101839190610c4a565b60206040518083038186803b15801561019b57600080fd5b505afa1580156101af573d6000803e3d6000fd5b505050506040513d601f19601f820116820180604052508101906101d39190610a3d565b905090565b6000600160009054906101000a900473ffffffffffffffffffffffffffffffffffffffff1673ffffffffffffffffffffffffffffffffffffffff166370a08231336040518263ffffffff167c01000000000000000000000000000000000000000000000000000000000281526004016102519190610c4a565b60206040518083038186803b15801561026957600080fd5b505afa15801561027d573d6000803e3d6000fd5b505050506040513d601f19601f820116820180604052508101906102a19190610a3d565b905090565b6060600a8211156102ec576040517f08c379a00000000000000000000000000000000000000000000000000000000081526004016102e390610d0b565b60405180910390fd5b81600260009054906101000a900473ffffffffffffffffffffffffffffffffffffffff1673ffffffffffffffffffffffffffffffffffffffff166370a08231336040518263ffffffff167c01000000000000000000000000000000000000000000000000000000000281526004016103649190610c4a565b60206040518083038186803b15801561037c57600080fd5b505afa158015610390573d6000803e3d6000fd5b505050506040513d601f19601f820116820180604052508101906103b49190610a3d565b10156103f5576040517f08c379a00000000000000000000000000000000000000000000000000000000081526004016103ec90610ccb565b60405180910390fd5b600260009054906101000a900473ffffffffffffffffffffffffffffffffffffffff1673ffffffffffffffffffffffffffffffffffffffff1663224b5c7233846040518363ffffffff167c010000000000000000000000000000000000000000000000000000000002815260040161046e929190610c65565b600060405180830381600087803b15801561048857600080fd5b505af115801561049c573d6000803e3d6000fd5b5050505060008267ffffffffffffffff8111156104e2577f4e487b7100000000000000000000000000000000000000000000000000000000600052604160045260246000fd5b6040519080825280602002602001820160405280156105105781602001602082028036833780820191505090505b50905060005b8381101561063e5760008054906101000a900473ffffffffffffffffffffffffffffffffffffffff1673ffffffffffffffffffffffffffffffffffffffff166346e482e460016040518263ffffffff167c01000000000000000000000000000000000000000000000000000000000281526004016105949190610cb0565b602060405180830381600087803b1580156105ae57600080fd5b505af11580156105c2573d6000803e3d6000fd5b505050506040513d601f19601f820116820180604052508101906105e69190610a3d565b82828151811061061f577f4e487b7100000000000000000000000000000000000000000000000000000000600052603260045260246000fd5b602002602001018181525050808061063690610dd8565b915050610516565b5080915050919050565b6060600a82111561068e576040517f08c379a000000000000000000000000000000000000000000000000000000000815260040161068590610d0b565b60405180910390fd5b81600160009054906101000a900473ffffffffffffffffffffffffffffffffffffffff1673ffffffffffffffffffffffffffffffffffffffff166370a08231336040518263ffffffff167c01000000000000000000000000000000000000000000000000000000000281526004016107069190610c4a565b60206040518083038186803b15801561071e57600080fd5b505afa158015610732573d6000803e3d6000fd5b505050506040513d601f19601f820116820180604052508101906107569190610a3d565b1015610797576040517f08c379a000000000000000000000000000000000000000000000000000000000815260040161078e90610ceb565b60405180910390fd5b600160009054906101000a900473ffffffffffffffffffffffffffffffffffffffff1673ffffffffffffffffffffffffffffffffffffffff1663224b5c7233846040518363ffffffff167c0100000000000000000000000000000000000000000000000000000000028152600401610810929190610c65565b600060405180830381600087803b15801561082a57600080fd5b505af115801561083e573d6000803e3d6000fd5b5050505060008267ffffffffffffffff811115610884577f4e487b7100000000000000000000000000000000000000000000000000000000600052604160045260246000fd5b6040519080825280602002602001820160405280156108b25781602001602082028036833780820191505090505b50905060005b838110156109e05760008054906101000a900473ffffffffffffffffffffffffffffffffffffffff1673ffffffffffffffffffffffffffffffffffffffff166346e482e460006040518263ffffffff167c01000000000000000000000000000000000000000000000000000000000281526004016109369190610cb0565b602060405180830381600087803b15801561095057600080fd5b505af1158015610964573d6000803e3d6000fd5b505050506040513d601f19601f820116820180604052508101906109889190610a3d565b8282815181106109c1577f4e487b7100000000000000000000000000000000000000000000000000000000600052603260045260246000fd5b60200260200101818152505080806109d890610dd8565b9150506108b8565b5080915050919050565b6000813590506109f981610e50565b92915050565b600081519050610a0e81610e50565b92915050565b600060208284031215610a2657600080fd5b6000610a34848285016109ea565b91505092915050565b600060208284031215610a4f57600080fd5b6000610a5d848285016109ff565b91505092915050565b6000610a728383610c2c565b60208301905092915050565b610a8781610d90565b82525050565b6000610a9882610d56565b610aa28185610d6e565b9350610aad83610d46565b8060005b83811015610ade578151610ac58882610a66565b9750610ad083610d61565b925050600181019050610ab1565b5085935050505092915050565b610af481610da2565b82525050565b6000610b07603683610d7f565b91507f496e73756666696369656e74206e756d626572206f6620486f6c79417274656660008301527f61637420696e20796f757220706f7373657373696f6e000000000000000000006020830152604082019050919050565b6000610b6d603283610d7f565b91507f496e73756666696369656e74206e756d626572206f6620486f6c79436f72652060008301527f696e20796f757220706f7373657373696f6e00000000000000000000000000006020830152604082019050919050565b6000610bd3602283610d7f565b91507f6761636861206f70656e6572206c696d6974656420746f203130206174206f6e60008301527f63650000000000000000000000000000000000000000000000000000000000006020830152604082019050919050565b610c3581610dce565b82525050565b610c4481610dce565b82525050565b6000602082019050610c5f6000830184610a7e565b92915050565b6000604082019050610c7a6000830185610a7e565b610c876020830184610c3b565b9392505050565b60006020820190508181036000830152610ca88184610a8d565b905092915050565b6000602082019050610cc56000830184610aeb565b92915050565b60006020820190508181036000830152610ce481610afa565b9050919050565b60006020820190508181036000830152610d0481610b60565b9050919050565b60006020820190508181036000830152610d2481610bc6565b9050919050565b6000602082019050610d406000830184610c3b565b92915050565b6000819050602082019050919050565b600081519050919050565b6000602082019050919050565b600082825260208201905092915050565b600082825260208201905092915050565b6000610d9b82610dae565b9050919050565b60008115159050919050565b600073ffffffffffffffffffffffffffffffffffffffff82169050919050565b6000819050919050565b6000610de382610dce565b91507fffffffffffffffffffffffffffffffffffffffffffffffffffffffffffffffff821415610e1657610e15610e21565b5b600182019050919050565b7f4e487b7100000000000000000000000000000000000000000000000000000000600052601160045260246000fd5b610e5981610dce565b8114610e6457600080fd5b5056fea2646970667358221220fc52ff31d3f4ff06b2eba53afff6aaaae4fbf85186892cdfc2e439035de8227b64736f6c63430008000033",
  "immutableReferences": {},
  "source": "pragma solidity ^0.8.0;\r\n\r\nimport \"../character/Nokai.sol\";\r\nimport \"../tokens/ticket/HolyCore.sol\";\r\nimport \"../tokens/ticket/HolyArtefact.sol\";\r\n\r\n// SPDX-License-Identifier: MIT\r\ncontract NokaiGacha {\r\n    Nokai private nokai;\r\n    HolyCore private holyCore;\r\n    HolyArtefact private holyArtefact;\r\n\r\n    constructor(address _nokai, address _holyCore, address _holyArtefact) {\r\n        nokai = Nokai(_nokai);\r\n        holyCore = HolyCore(_holyCore);\r\n        holyArtefact = HolyArtefact(_holyArtefact);\r\n    }\r\n\r\n    function openCore(uint256 _number) external returns (uint256[] memory) {\r\n        require(_number <= 10, \"gacha opener limited to 10 at once\");\r\n        require(holyCore.balanceOf(msg.sender) >= _number, \"Insufficient number of HolyCore in your possession\");\r\n        holyCore.consume(msg.sender, _number);\r\n        uint256[] memory ids = new uint256[](_number);\r\n        for (uint256 i = 0; i < _number; i++) {\r\n            ids[i] = nokai.generateNokai(false);\r\n        }\r\n        return ids;\r\n    }\r\n\r\n    function openArtefact(uint256 _number) external returns (uint256[] memory) {\r\n        require(_number <= 10, \"gacha opener limited to 10 at once\");\r\n        require(holyArtefact.balanceOf(msg.sender) >= _number, \"Insufficient number of HolyArtefact in your possession\");\r\n        holyArtefact.consume(msg.sender, _number);\r\n        uint256[] memory ids = new uint256[](_number);\r\n        for (uint256 i = 0; i < _number; i++) {\r\n            ids[i] = nokai.generateNokai(true);\r\n        }\r\n        return ids;\r\n    }\r\n\r\n    function available() external view returns (uint256) {\r\n        return holyCore.balanceOf(msg.sender);\r\n    }\r\n\r\n    function availableSpecial() external view returns (uint256) {\r\n        return holyArtefact.balanceOf(msg.sender);\r\n    }\r\n}\r\n",
  "sourcePath": "C:\\Users\\KevinGeorgesAndres\\Documents\\projects\\perso\\blackhole-evm\\contracts\\tokenomics\\NokaiGacha.sol",
  "compiler": {
    "name": "solc",
    "version": "0.8.0+commit.c7dfd78e.Emscripten.clang"
  },
  "schemaVersion": "3.4.3",
  "updatedAt": "2021-12-08T10:03:38.757Z",
  "networkType": "ethereum",
  "devdoc": {
    "kind": "dev",
    "methods": {},
    "version": 1
  },
  "userdoc": {
    "kind": "user",
    "methods": {},
    "version": 1
  }
}