{
  "contractName": "NokaiStats",
  "abi": [
    {
      "inputs": [
        {
          "internalType": "address",
          "name": "techniquePicker",
          "type": "address"
        }
      ],
      "stateMutability": "nonpayable",
      "type": "constructor"
    },
    {
      "anonymous": false,
      "inputs": [
        {
          "indexed": true,
          "internalType": "uint256",
          "name": "nokaiId",
          "type": "uint256"
        },
        {
          "indexed": false,
          "internalType": "uint256",
          "name": "newHp",
          "type": "uint256"
        }
      ],
      "name": "NokaiDamaged",
      "type": "event"
    },
    {
      "anonymous": false,
      "inputs": [
        {
          "indexed": true,
          "internalType": "uint256",
          "name": "nokaiId",
          "type": "uint256"
        }
      ],
      "name": "NokaiEmptyEnergy",
      "type": "event"
    },
    {
      "anonymous": false,
      "inputs": [
        {
          "indexed": true,
          "internalType": "uint256",
          "name": "nokaiId",
          "type": "uint256"
        }
      ],
      "name": "NokaiEnergized",
      "type": "event"
    },
    {
      "anonymous": false,
      "inputs": [
        {
          "indexed": true,
          "internalType": "uint256",
          "name": "nokaiId",
          "type": "uint256"
        },
        {
          "indexed": false,
          "internalType": "uint256",
          "name": "amount",
          "type": "uint256"
        }
      ],
      "name": "NokaiHealed",
      "type": "event"
    },
    {
      "anonymous": false,
      "inputs": [
        {
          "indexed": true,
          "internalType": "uint256",
          "name": "nokaiId",
          "type": "uint256"
        }
      ],
      "name": "NokaiKilled",
      "type": "event"
    },
    {
      "anonymous": false,
      "inputs": [
        {
          "indexed": true,
          "internalType": "uint256",
          "name": "nokaiId",
          "type": "uint256"
        }
      ],
      "name": "NokaiReborn",
      "type": "event"
    },
    {
      "anonymous": false,
      "inputs": [
        {
          "indexed": true,
          "internalType": "bytes32",
          "name": "role",
          "type": "bytes32"
        },
        {
          "indexed": true,
          "internalType": "bytes32",
          "name": "previousAdminRole",
          "type": "bytes32"
        },
        {
          "indexed": true,
          "internalType": "bytes32",
          "name": "newAdminRole",
          "type": "bytes32"
        }
      ],
      "name": "RoleAdminChanged",
      "type": "event"
    },
    {
      "anonymous": false,
      "inputs": [
        {
          "indexed": true,
          "internalType": "bytes32",
          "name": "role",
          "type": "bytes32"
        },
        {
          "indexed": true,
          "internalType": "address",
          "name": "account",
          "type": "address"
        },
        {
          "indexed": true,
          "internalType": "address",
          "name": "sender",
          "type": "address"
        }
      ],
      "name": "RoleGranted",
      "type": "event"
    },
    {
      "anonymous": false,
      "inputs": [
        {
          "indexed": true,
          "internalType": "bytes32",
          "name": "role",
          "type": "bytes32"
        },
        {
          "indexed": true,
          "internalType": "address",
          "name": "account",
          "type": "address"
        },
        {
          "indexed": true,
          "internalType": "address",
          "name": "sender",
          "type": "address"
        }
      ],
      "name": "RoleRevoked",
      "type": "event"
    },
    {
      "inputs": [],
      "name": "DEFAULT_ADMIN_ROLE",
      "outputs": [
        {
          "internalType": "bytes32",
          "name": "",
          "type": "bytes32"
        }
      ],
      "stateMutability": "view",
      "type": "function",
      "constant": true
    },
    {
      "inputs": [],
      "name": "GAME_MANAGER_ROLE",
      "outputs": [
        {
          "internalType": "bytes32",
          "name": "",
          "type": "bytes32"
        }
      ],
      "stateMutability": "view",
      "type": "function",
      "constant": true
    },
    {
      "inputs": [],
      "name": "INVENTORY_MANAGER_ROLE",
      "outputs": [
        {
          "internalType": "bytes32",
          "name": "",
          "type": "bytes32"
        }
      ],
      "stateMutability": "view",
      "type": "function",
      "constant": true
    },
    {
      "inputs": [],
      "name": "NOKAI_MANAGER_ROLE",
      "outputs": [
        {
          "internalType": "bytes32",
          "name": "",
          "type": "bytes32"
        }
      ],
      "stateMutability": "view",
      "type": "function",
      "constant": true
    },
    {
      "inputs": [
        {
          "internalType": "bytes32",
          "name": "role",
          "type": "bytes32"
        }
      ],
      "name": "getRoleAdmin",
      "outputs": [
        {
          "internalType": "bytes32",
          "name": "",
          "type": "bytes32"
        }
      ],
      "stateMutability": "view",
      "type": "function",
      "constant": true
    },
    {
      "inputs": [
        {
          "internalType": "bytes32",
          "name": "role",
          "type": "bytes32"
        },
        {
          "internalType": "address",
          "name": "account",
          "type": "address"
        }
      ],
      "name": "grantRole",
      "outputs": [],
      "stateMutability": "nonpayable",
      "type": "function"
    },
    {
      "inputs": [
        {
          "internalType": "bytes32",
          "name": "role",
          "type": "bytes32"
        },
        {
          "internalType": "address",
          "name": "account",
          "type": "address"
        }
      ],
      "name": "hasRole",
      "outputs": [
        {
          "internalType": "bool",
          "name": "",
          "type": "bool"
        }
      ],
      "stateMutability": "view",
      "type": "function",
      "constant": true
    },
    {
      "inputs": [
        {
          "internalType": "bytes32",
          "name": "role",
          "type": "bytes32"
        },
        {
          "internalType": "address",
          "name": "account",
          "type": "address"
        }
      ],
      "name": "renounceRole",
      "outputs": [],
      "stateMutability": "nonpayable",
      "type": "function"
    },
    {
      "inputs": [
        {
          "internalType": "bytes32",
          "name": "role",
          "type": "bytes32"
        },
        {
          "internalType": "address",
          "name": "account",
          "type": "address"
        }
      ],
      "name": "revokeRole",
      "outputs": [],
      "stateMutability": "nonpayable",
      "type": "function"
    },
    {
      "inputs": [
        {
          "internalType": "bytes4",
          "name": "interfaceId",
          "type": "bytes4"
        }
      ],
      "name": "supportsInterface",
      "outputs": [
        {
          "internalType": "bool",
          "name": "",
          "type": "bool"
        }
      ],
      "stateMutability": "view",
      "type": "function",
      "constant": true
    },
    {
      "inputs": [
        {
          "internalType": "address",
          "name": "techniquePicker",
          "type": "address"
        }
      ],
      "name": "migrateNokaiTechnique",
      "outputs": [],
      "stateMutability": "nonpayable",
      "type": "function"
    },
    {
      "inputs": [
        {
          "internalType": "uint256",
          "name": "newNokaiId",
          "type": "uint256"
        }
      ],
      "name": "generateNokai",
      "outputs": [],
      "stateMutability": "nonpayable",
      "type": "function"
    },
    {
      "inputs": [
        {
          "internalType": "uint256",
          "name": "newNokaiId",
          "type": "uint256"
        }
      ],
      "name": "generateHighNokai",
      "outputs": [],
      "stateMutability": "nonpayable",
      "type": "function"
    },
    {
      "inputs": [
        {
          "internalType": "uint256",
          "name": "newNokaiId",
          "type": "uint256"
        }
      ],
      "name": "generateGodNokai",
      "outputs": [],
      "stateMutability": "nonpayable",
      "type": "function"
    },
    {
      "inputs": [
        {
          "internalType": "uint256",
          "name": "nokaiId",
          "type": "uint256"
        },
        {
          "internalType": "uint256",
          "name": "targetId",
          "type": "uint256"
        },
        {
          "internalType": "enum NokaiStats.StatType",
          "name": "upgradeChoice",
          "type": "uint8"
        }
      ],
      "name": "upgradeFromNokaiBurn",
      "outputs": [],
      "stateMutability": "nonpayable",
      "type": "function"
    },
    {
      "inputs": [
        {
          "internalType": "uint256",
          "name": "nokaiId",
          "type": "uint256"
        },
        {
          "internalType": "uint256",
          "name": "newHp",
          "type": "uint256"
        }
      ],
      "name": "damage",
      "outputs": [],
      "stateMutability": "nonpayable",
      "type": "function"
    },
    {
      "inputs": [
        {
          "internalType": "uint256",
          "name": "nokaiId",
          "type": "uint256"
        }
      ],
      "name": "reborn",
      "outputs": [],
      "stateMutability": "nonpayable",
      "type": "function"
    },
    {
      "inputs": [
        {
          "internalType": "uint256",
          "name": "nokaiId",
          "type": "uint256"
        },
        {
          "internalType": "uint256",
          "name": "amount",
          "type": "uint256"
        }
      ],
      "name": "heal",
      "outputs": [],
      "stateMutability": "nonpayable",
      "type": "function"
    },
    {
      "inputs": [
        {
          "internalType": "uint256",
          "name": "nokaiId",
          "type": "uint256"
        },
        {
          "internalType": "uint256",
          "name": "pa",
          "type": "uint256"
        }
      ],
      "name": "energize",
      "outputs": [],
      "stateMutability": "nonpayable",
      "type": "function"
    },
    {
      "inputs": [
        {
          "internalType": "uint256",
          "name": "nokaiId",
          "type": "uint256"
        },
        {
          "internalType": "uint256",
          "name": "_pa",
          "type": "uint256"
        }
      ],
      "name": "didAction",
      "outputs": [],
      "stateMutability": "nonpayable",
      "type": "function"
    },
    {
      "inputs": [
        {
          "internalType": "uint256",
          "name": "nokaiId",
          "type": "uint256"
        }
      ],
      "name": "profile",
      "outputs": [
        {
          "components": [
            {
              "components": [
                {
                  "internalType": "uint256",
                  "name": "hp",
                  "type": "uint256"
                },
                {
                  "internalType": "uint256",
                  "name": "attack",
                  "type": "uint256"
                },
                {
                  "internalType": "uint256",
                  "name": "defense",
                  "type": "uint256"
                },
                {
                  "internalType": "uint256",
                  "name": "regen",
                  "type": "uint256"
                },
                {
                  "internalType": "uint256",
                  "name": "pa",
                  "type": "uint256"
                },
                {
                  "internalType": "uint256",
                  "name": "gradeValue",
                  "type": "uint256"
                },
                {
                  "internalType": "enum NokaiStats.Rarity",
                  "name": "grade",
                  "type": "uint8"
                },
                {
                  "internalType": "enum NokaiTechnique.Technique",
                  "name": "technique1",
                  "type": "uint8"
                },
                {
                  "internalType": "enum NokaiTechnique.Technique",
                  "name": "technique2",
                  "type": "uint8"
                }
              ],
              "internalType": "struct NokaiStats.Stats",
              "name": "stats",
              "type": "tuple"
            },
            {
              "internalType": "uint256",
              "name": "currentHp",
              "type": "uint256"
            },
            {
              "internalType": "uint256",
              "name": "currentPa",
              "type": "uint256"
            },
            {
              "internalType": "bool",
              "name": "dead",
              "type": "bool"
            },
            {
              "internalType": "bool",
              "name": "burned",
              "type": "bool"
            },
            {
              "internalType": "uint256",
              "name": "lastHpSet",
              "type": "uint256"
            },
            {
              "internalType": "uint256",
              "name": "lastPaSet",
              "type": "uint256"
            }
          ],
          "internalType": "struct NokaiStats.Profile",
          "name": "",
          "type": "tuple"
        }
      ],
      "stateMutability": "view",
      "type": "function",
      "constant": true
    },
    {
      "inputs": [
        {
          "internalType": "uint256[]",
          "name": "nokaiIds",
          "type": "uint256[]"
        }
      ],
      "name": "profiles",
      "outputs": [
        {
          "components": [
            {
              "internalType": "uint256",
              "name": "nokaiId",
              "type": "uint256"
            },
            {
              "components": [
                {
                  "internalType": "uint256",
                  "name": "hp",
                  "type": "uint256"
                },
                {
                  "internalType": "uint256",
                  "name": "attack",
                  "type": "uint256"
                },
                {
                  "internalType": "uint256",
                  "name": "defense",
                  "type": "uint256"
                },
                {
                  "internalType": "uint256",
                  "name": "regen",
                  "type": "uint256"
                },
                {
                  "internalType": "uint256",
                  "name": "pa",
                  "type": "uint256"
                },
                {
                  "internalType": "uint256",
                  "name": "gradeValue",
                  "type": "uint256"
                },
                {
                  "internalType": "enum NokaiStats.Rarity",
                  "name": "grade",
                  "type": "uint8"
                },
                {
                  "internalType": "enum NokaiTechnique.Technique",
                  "name": "technique1",
                  "type": "uint8"
                },
                {
                  "internalType": "enum NokaiTechnique.Technique",
                  "name": "technique2",
                  "type": "uint8"
                }
              ],
              "internalType": "struct NokaiStats.Stats",
              "name": "stats",
              "type": "tuple"
            },
            {
              "internalType": "uint256",
              "name": "currentHp",
              "type": "uint256"
            },
            {
              "internalType": "uint256",
              "name": "currentPa",
              "type": "uint256"
            },
            {
              "internalType": "bool",
              "name": "dead",
              "type": "bool"
            },
            {
              "internalType": "bool",
              "name": "burned",
              "type": "bool"
            },
            {
              "internalType": "uint256",
              "name": "lastHpSet",
              "type": "uint256"
            },
            {
              "internalType": "uint256",
              "name": "lastPaSet",
              "type": "uint256"
            }
          ],
          "internalType": "struct NokaiStats.ProfileDTO[]",
          "name": "",
          "type": "tuple[]"
        }
      ],
      "stateMutability": "view",
      "type": "function",
      "constant": true
    }
  ],
  "bytecode": "0x60806040523480156200001157600080fd5b506040516200485738038062004857833981810160405281019062000037919062000249565b80600160006101000a81548173ffffffffffffffffffffffffffffffffffffffff021916908373ffffffffffffffffffffffffffffffffffffffff160217905550620000976000600102336200009e640100000000026401000000009004565b50620002c3565b620000b98282620000bd640100000000026401000000009004565b5050565b620000d88282620001c0640100000000026401000000009004565b620001bc57600160008084815260200190815260200160002060000160008373ffffffffffffffffffffffffffffffffffffffff1673ffffffffffffffffffffffffffffffffffffffff16815260200190815260200160002060006101000a81548160ff021916908315150217905550620001616200022a640100000000026401000000009004565b73ffffffffffffffffffffffffffffffffffffffff168173ffffffffffffffffffffffffffffffffffffffff16837f2f8788117e7eff1d82e926ec794901d17c78024a50270940304540a733656f0d60405160405180910390a45b5050565b600080600084815260200190815260200160002060000160008373ffffffffffffffffffffffffffffffffffffffff1673ffffffffffffffffffffffffffffffffffffffff16815260200190815260200160002060009054906101000a900460ff16905092915050565b600033905090565b6000815190506200024381620002a9565b92915050565b6000602082840312156200025c57600080fd5b60006200026c8482850162000232565b91505092915050565b6000620002828262000289565b9050919050565b600073ffffffffffffffffffffffffffffffffffffffff82169050919050565b620002b48162000275565b8114620002c057600080fd5b50565b61458480620002d36000396000f3fe608060405234801561001057600080fd5b506004361061015f576000357c0100000000000000000000000000000000000000000000000000000000900480636b2084b5116100d5578063bddb95c111610099578063bddb95c11461038e578063d547741f146103aa578063eebb92f5146103c6578063f3fc7b24146103e2578063f6e253e3146103fe578063ff6fcdbd1461041a5761015f565b80636b2084b5146102c457806372cd2b1a146102f457806376c312dd1461032457806391d1485414610340578063a217fddf146103705761015f565b8063248a9ca311610127578063248a9ca3146102065780632b54c4c1146102365780632f2ff15d1461025257806336568abe1461026e5780633dc9dcaf1461028a578063599ecd85146102a85761015f565b806301ffc9a7146101645780630cac7f7c146101945780631093a012146101b0578063125fcabe146101cc57806315a2bf6f146101ea575b600080fd5b61017e6004803603810190610179919061374b565b610438565b60405161018b9190613f22565b60405180910390f35b6101ae60048036038101906101a991906137c6565b6104b2565b005b6101ca60048036038101906101c59190613802565b61059a565b005b6101d4610cf7565b6040516101e19190613f3d565b60405180910390f35b61020460048036038101906101ff9190613678565b610d1b565b005b610220600480360381019061021b91906136e6565b610d76565b60405161022d9190613f3d565b60405180910390f35b610250600480360381019061024b919061379d565b610d95565b005b61026c6004803603810190610267919061370f565b611338565b005b6102886004803603810190610283919061370f565b611361565b005b6102926113e4565b60405161029f9190613f3d565b60405180910390f35b6102c260048036038101906102bd91906137c6565b611408565b005b6102de60048036038101906102d991906136a1565b6115f5565b6040516102eb9190613f00565b60405180910390f35b61030e6004803603810190610309919061379d565b611b92565b60405161031b919061407a565b60405180910390f35b61033e6004803603810190610339919061379d565b611e4c565b005b61035a6004803603810190610355919061370f565b611f94565b6040516103679190613f22565b60405180910390f35b610378611ffe565b6040516103859190613f3d565b60405180910390f35b6103a860048036038101906103a391906137c6565b612006565b005b6103c460048036038101906103bf919061370f565b6121fe565b005b6103e060048036038101906103db919061379d565b612227565b005b6103fc60048036038101906103f791906137c6565b6123dc565b005b6104186004803603810190610413919061379d565b6125dc565b005b61042261270b565b60405161042f9190613f3d565b60405180910390f35b60007f7965db0b000000000000000000000000000000000000000000000000000000007bffffffffffffffffffffffffffffffffffffffffffffffffffffffff1916827bffffffffffffffffffffffffffffffffffffffffffffffffffffffff191614806104ab57506104aa8261272f565b5b9050919050565b7fef17b1f3c5a412f9c8e887e3abd186802afec7dc657fd3b7002bf87b128dd0b16104e4816104df612799565b6127a1565b60006104ef8461283f565b90504260026000868152602001908152602001600020600b01819055506000838261051a91906141f2565b1161056d5760006002600086815260200190815260200160002060080181905550837f1aa643fe068ff179d442fe9f05de8dafb322853165c2d669796210e44cdd41e060405160405180910390a2610594565b828161057991906141f2565b60026000868152602001908152602001600020600801819055505b50505050565b7f8148235029d65678fdc6628a7b47cd99e73930cd0850fa4f5f1371b66f605a896105cc816105c7612799565b6127a1565b600015156002600086815260200190815260200160002060090160009054906101000a900460ff16151514610636576040517f08c379a000000000000000000000000000000000000000000000000000000000815260040161062d9061403a565b60405180910390fd5b600015156002600085815260200190815260200160002060090160009054906101000a900460ff161515146106a0576040517f08c379a000000000000000000000000000000000000000000000000000000000815260040161069790613fba565b60405180910390fd5b600015156002600086815260200190815260200160002060090160019054906101000a900460ff1615151461070a576040517f08c379a000000000000000000000000000000000000000000000000000000000815260040161070190613fda565b60405180910390fd5b600015156002600085815260200190815260200160002060090160019054906101000a900460ff16151514610774576040517f08c379a000000000000000000000000000000000000000000000000000000000815260040161076b90613f9a565b60405180910390fd5b6002600084815260200190815260200160002060000160050154600260008681526020019081526020016000206000016005015410156107e9576040517f08c379a00000000000000000000000000000000000000000000000000000000081526004016107e090613ffa565b60405180910390fd5b60016002600085815260200190815260200160002060090160016101000a81548160ff02191690831515021790555060006004811115610852577f4e487b7100000000000000000000000000000000000000000000000000000000600052602160045260246000fd5b82600481111561088b577f4e487b7100000000000000000000000000000000000000000000000000000000600052602160045260246000fd5b141561091a5760646002806000868152602001908152602001600020600001600501546108b89190614198565b60026000868152602001908152602001600020600001600001546108dc9190614198565b6108e69190614167565b60026000868152602001908152602001600020600001600001600082825461090e9190614111565b92505081905550610cf1565b60016004811115610954577f4e487b7100000000000000000000000000000000000000000000000000000000600052602160045260246000fd5b82600481111561098d577f4e487b7100000000000000000000000000000000000000000000000000000000600052602160045260246000fd5b1415610a1c5760646002806000868152602001908152602001600020600001600501546109ba9190614198565b60026000868152602001908152602001600020600001600101546109de9190614198565b6109e89190614167565b600260008681526020019081526020016000206000016001016000828254610a109190614111565b92505081905550610cf0565b60026004811115610a56577f4e487b7100000000000000000000000000000000000000000000000000000000600052602160045260246000fd5b826004811115610a8f577f4e487b7100000000000000000000000000000000000000000000000000000000600052602160045260246000fd5b1415610b1e576064600280600086815260200190815260200160002060000160050154610abc9190614198565b6002600086815260200190815260200160002060000160020154610ae09190614198565b610aea9190614167565b600260008681526020019081526020016000206000016002016000828254610b129190614111565b92505081905550610cef565b60036004811115610b58577f4e487b7100000000000000000000000000000000000000000000000000000000600052602160045260246000fd5b826004811115610b91577f4e487b7100000000000000000000000000000000000000000000000000000000600052602160045260246000fd5b1415610c20576064600280600086815260200190815260200160002060000160050154610bbe9190614198565b6002600086815260200190815260200160002060000160030154610be29190614198565b610bec9190614167565b600260008681526020019081526020016000206000016003016000828254610c149190614111565b92505081905550610cee565b600480811115610c59577f4e487b7100000000000000000000000000000000000000000000000000000000600052602160045260246000fd5b826004811115610c92577f4e487b7100000000000000000000000000000000000000000000000000000000600052602160045260246000fd5b1415610ced57600280600085815260200190815260200160002060000160050154610cbd9190614167565b600260008681526020019081526020016000206000016004016000828254610ce59190614111565b925050819055505b5b5b5b5b50505050565b7f70d2ef7b36d4d736c45b93d416eb05228e962106468d1bcabdf09a53d30ad8f681565b6000600102610d3181610d2c612799565b6127a1565b81600160006101000a81548173ffffffffffffffffffffffffffffffffffffffff021916908373ffffffffffffffffffffffffffffffffffffffff1602179055505050565b6000806000838152602001908152602001600020600101549050919050565b7f8148235029d65678fdc6628a7b47cd99e73930cd0850fa4f5f1371b66f605a89610dc781610dc2612799565b6127a1565b60006103b66002610dd9856064612898565b610de39190614167565b610ded9190614111565b90506040518060e0016040528060405180610120016040528084815260200160b46002610e2760018a610e209190614111565b600a612898565b610e319190614198565b610e3b9190614111565b8152602001605a610e59600389610e529190614111565b600a612898565b610e639190614111565b8152602001605a610e81600389610e7a9190614111565b600a612898565b610e8b9190614111565b8152602001600a81526020016001600580811115610ed2577f4e487b7100000000000000000000000000000000000000000000000000000000600052602160045260246000fd5b610edc9190614111565b8152602001600580811115610f1a577f4e487b7100000000000000000000000000000000000000000000000000000000600052602160045260246000fd5b8152602001600160009054906101000a900473ffffffffffffffffffffffffffffffffffffffff1673ffffffffffffffffffffffffffffffffffffffff16639507d39a600589610f6a9190614111565b6040518263ffffffff167c0100000000000000000000000000000000000000000000000000000000028152600401610fa29190614096565b60206040518083038186803b158015610fba57600080fd5b505afa158015610fce573d6000803e3d6000fd5b505050506040513d601f19601f82011682018060405250810190610ff29190613774565b600981111561102a577f4e487b7100000000000000000000000000000000000000000000000000000000600052602160045260246000fd5b8152602001600160009054906101000a900473ffffffffffffffffffffffffffffffffffffffff1673ffffffffffffffffffffffffffffffffffffffff16639507d39a60068961107a9190614111565b6040518263ffffffff167c01000000000000000000000000000000000000000000000000000000000281526004016110b29190614096565b60206040518083038186803b1580156110ca57600080fd5b505afa1580156110de573d6000803e3d6000fd5b505050506040513d601f19601f820116820180604052508101906111029190613774565b600981111561113a577f4e487b7100000000000000000000000000000000000000000000000000000000600052602160045260246000fd5b8152508152602001828152602001600a81526020016000151581526020016000151581526020014281526020014281525060026000858152602001908152602001600020600082015181600001600082015181600001556020820151816001015560408201518160020155606082015181600301556080820151816004015560a0820151816005015560c08201518160060160006101000a81548160ff02191690836005811115611214577f4e487b7100000000000000000000000000000000000000000000000000000000600052602160045260246000fd5b021790555060e08201518160060160016101000a81548160ff0219169083600981111561126a577f4e487b7100000000000000000000000000000000000000000000000000000000600052602160045260246000fd5b02179055506101008201518160060160026101000a81548160ff021916908360098111156112c1577f4e487b7100000000000000000000000000000000000000000000000000000000600052602160045260246000fd5b02179055505050602082015181600701556040820151816008015560608201518160090160006101000a81548160ff02191690831515021790555060808201518160090160016101000a81548160ff02191690831515021790555060a082015181600a015560c082015181600b0155905050505050565b61134182610d76565b6113528161134d612799565b6127a1565b61135c83836128dc565b505050565b611369612799565b73ffffffffffffffffffffffffffffffffffffffff168173ffffffffffffffffffffffffffffffffffffffff16146113d6576040517f08c379a00000000000000000000000000000000000000000000000000000000081526004016113cd9061405a565b60405180910390fd5b6113e082826129bc565b5050565b7f8148235029d65678fdc6628a7b47cd99e73930cd0850fa4f5f1371b66f605a8981565b7f70d2ef7b36d4d736c45b93d416eb05228e962106468d1bcabdf09a53d30ad8f661143a81611435612799565b6127a1565b600015156002600085815260200190815260200160002060090160009054906101000a900460ff161515146114a4576040517f08c379a000000000000000000000000000000000000000000000000000000000815260040161149b9061403a565b60405180910390fd5b600015156002600085815260200190815260200160002060090160019054906101000a900460ff1615151461150e576040517f08c379a000000000000000000000000000000000000000000000000000000000815260040161150590613fda565b60405180910390fd5b60006115198461283f565b90504260026000868152602001908152602001600020600b01819055506002600085815260200190815260200160002060000160040154838261155c9190614111565b111561159b57600260008581526020019081526020016000206000016004015460026000868152602001908152602001600020600801819055506115c2565b82816115a79190614111565b60026000868152602001908152602001600020600801819055505b837f7b1c614d83562a30b8f2320242e1bf3883fcbb15dec65aa139fdef6a93f8870660405160405180910390a250505050565b606060008383905067ffffffffffffffff81111561163c577f4e487b7100000000000000000000000000000000000000000000000000000000600052604160045260246000fd5b60405190808252806020026020018201604052801561167557816020015b611662613426565b81526020019060019003908161165a5790505b50905060005b84849050811015611b87576040518061010001604052808686848181106116cb577f4e487b7100000000000000000000000000000000000000000000000000000000600052603260045260246000fd5b90506020020135815260200160026000888886818110611714577f4e487b7100000000000000000000000000000000000000000000000000000000600052603260045260246000fd5b905060200201358152602001908152602001600020600001604051806101200160405290816000820154815260200160018201548152602001600282015481526020016003820154815260200160048201548152602001600582015481526020016006820160009054906101000a900460ff1660058111156117bf577f4e487b7100000000000000000000000000000000000000000000000000000000600052602160045260246000fd5b60058111156117f7577f4e487b7100000000000000000000000000000000000000000000000000000000600052602160045260246000fd5b81526020016006820160019054906101000a900460ff166009811115611846577f4e487b7100000000000000000000000000000000000000000000000000000000600052602160045260246000fd5b600981111561187e577f4e487b7100000000000000000000000000000000000000000000000000000000600052602160045260246000fd5b81526020016006820160029054906101000a900460ff1660098111156118cd577f4e487b7100000000000000000000000000000000000000000000000000000000600052602160045260246000fd5b6009811115611905577f4e487b7100000000000000000000000000000000000000000000000000000000600052602160045260246000fd5b81525050815260200161195687878581811061194a577f4e487b7100000000000000000000000000000000000000000000000000000000600052603260045260246000fd5b90506020020135612a9d565b81526020016119a3878785818110611997577f4e487b7100000000000000000000000000000000000000000000000000000000600052603260045260246000fd5b9050602002013561283f565b8152602001600260008888868181106119e5577f4e487b7100000000000000000000000000000000000000000000000000000000600052603260045260246000fd5b90506020020135815260200190815260200160002060090160009054906101000a900460ff161515815260200160026000888886818110611a4f577f4e487b7100000000000000000000000000000000000000000000000000000000600052603260045260246000fd5b90506020020135815260200190815260200160002060090160019054906101000a900460ff161515815260200160026000888886818110611ab9577f4e487b7100000000000000000000000000000000000000000000000000000000600052603260045260246000fd5b905060200201358152602001908152602001600020600a0154815260200160026000888886818110611b14577f4e487b7100000000000000000000000000000000000000000000000000000000600052603260045260246000fd5b905060200201358152602001908152602001600020600b0154815250828281518110611b69577f4e487b7100000000000000000000000000000000000000000000000000000000600052603260045260246000fd5b60200260200101819052508080611b7f9061434b565b91505061167b565b508091505092915050565b611b9a613475565b6040518060e0016040528060026000858152602001908152602001600020600001604051806101200160405290816000820154815260200160018201548152602001600282015481526020016003820154815260200160048201548152602001600582015481526020016006820160009054906101000a900460ff166005811115611c4e577f4e487b7100000000000000000000000000000000000000000000000000000000600052602160045260246000fd5b6005811115611c86577f4e487b7100000000000000000000000000000000000000000000000000000000600052602160045260246000fd5b81526020016006820160019054906101000a900460ff166009811115611cd5577f4e487b7100000000000000000000000000000000000000000000000000000000600052602160045260246000fd5b6009811115611d0d577f4e487b7100000000000000000000000000000000000000000000000000000000600052602160045260246000fd5b81526020016006820160029054906101000a900460ff166009811115611d5c577f4e487b7100000000000000000000000000000000000000000000000000000000600052602160045260246000fd5b6009811115611d94577f4e487b7100000000000000000000000000000000000000000000000000000000600052602160045260246000fd5b815250508152602001611da684612a9d565b8152602001611db48461283f565b81526020016002600085815260200190815260200160002060090160009054906101000a900460ff16151581526020016002600085815260200190815260200160002060090160019054906101000a900460ff161515815260200160026000858152602001908152602001600020600a0154815260200160026000858152602001908152602001600020600b01548152509050919050565b7f8148235029d65678fdc6628a7b47cd99e73930cd0850fa4f5f1371b66f605a89611e7e81611e79612799565b6127a1565b611f9082611eb16102bc6003611e95876064612898565b611e9f9190614198565b611ea99190614111565b6103e8612b1a565b611eea60966005611ecf600189611ec89190614111565b600a612898565b611ed99190614198565b611ee39190614111565b60c8612b1a565b611f2360466003611f0860028a611f019190614111565b600a612898565b611f129190614198565b611f1c9190614111565b6064612b1a565b611f5c60466003611f4160038b611f3a9190614111565b600a612898565b611f4b9190614198565b611f559190614111565b6064612b1a565b60056002611f7760048b611f709190614111565b600a612898565b611f819190614167565b611f8b9190614111565b612b33565b5050565b600080600084815260200190815260200160002060000160008373ffffffffffffffffffffffffffffffffffffffff1673ffffffffffffffffffffffffffffffffffffffff16815260200190815260200160002060009054906101000a900460ff16905092915050565b600060010281565b7f70d2ef7b36d4d736c45b93d416eb05228e962106468d1bcabdf09a53d30ad8f661203881612033612799565b6127a1565b600015156002600085815260200190815260200160002060090160009054906101000a900460ff161515146120a2576040517f08c379a00000000000000000000000000000000000000000000000000000000081526004016120999061403a565b60405180910390fd5b600015156002600085815260200190815260200160002060090160019054906101000a900460ff1615151461210c576040517f08c379a000000000000000000000000000000000000000000000000000000000815260040161210390613fda565b60405180910390fd5b600061211784612a9d565b90504260026000868152602001908152602001600020600a01819055506002600085815260200190815260200160002060000160000154838261215a9190614111565b111561219957600260008581526020019081526020016000206000016000015460026000868152602001908152602001600020600701819055506121c0565b82816121a59190614111565b60026000868152602001908152602001600020600701819055505b837f768c62cbb4f04d72e0da3f6fdc173729920788d5f0ece38ec2439b68c1e5cd5c846040516121f09190614096565b60405180910390a250505050565b61220782610d76565b61221881612213612799565b6127a1565b61222283836129bc565b505050565b7f70d2ef7b36d4d736c45b93d416eb05228e962106468d1bcabdf09a53d30ad8f661225981612254612799565b6127a1565b600115156002600084815260200190815260200160002060090160009054906101000a900460ff161515146122c3576040517f08c379a00000000000000000000000000000000000000000000000000000000081526004016122ba9061401a565b60405180910390fd5b600015156002600084815260200190815260200160002060090160019054906101000a900460ff1615151461232d576040517f08c379a000000000000000000000000000000000000000000000000000000000815260040161232490613fda565b60405180910390fd5b4260026000848152602001908152602001600020600a01819055506002600083815260200190815260200160002060000160000154600260008481526020019081526020016000206007018190555060006002600084815260200190815260200160002060090160006101000a81548160ff021916908315150217905550817fb9361f9981ef0c1c1f7eb5f84ddc5c86856399e50544a74c4974cf0b31ad80d360405160405180910390a25050565b7fef17b1f3c5a412f9c8e887e3abd186802afec7dc657fd3b7002bf87b128dd0b161240e81612409612799565b6127a1565b600015156002600085815260200190815260200160002060090160009054906101000a900460ff16151514612478576040517f08c379a000000000000000000000000000000000000000000000000000000000815260040161246f9061403a565b60405180910390fd5b600015156002600085815260200190815260200160002060090160019054906101000a900460ff161515146124e2576040517f08c379a00000000000000000000000000000000000000000000000000000000081526004016124d990613fda565b60405180910390fd5b4260026000858152602001908152602001600020600a01819055506000821415612583576000600260008581526020019081526020016000206007018190555060016002600085815260200190815260200160002060090160006101000a81548160ff021916908315150217905550827fbf807412a0d12ad8247319f96b9e2e6e6550c7fac3563024db59ae868b9bdd1560405160405180910390a26125d7565b816002600085815260200190815260200160002060070181905550827f963956ffc98b7d1f745416434f4737fb6e8b1316f26e96a9c04431f2235b6421836040516125ce9190614096565b60405180910390a25b505050565b7f8148235029d65678fdc6628a7b47cd99e73930cd0850fa4f5f1371b66f605a8961260e81612609612799565b6127a1565b6127078261264060c86008612624876064612898565b61262e9190614198565b6126389190614111565b6103e8612b1a565b6126796014600861265e6001896126579190614111565b600a612898565b6126689190614198565b6126729190614111565b60c8612b1a565b6126b2600a600961269760028a6126909190614111565b600a612898565b6126a19190614198565b6126ab9190614111565b6064612b1a565b6126eb601460086126d060038b6126c99190614111565b600a612898565b6126da9190614198565b6126e49190614111565b6064612b1a565b6127026004896126fb9190614111565b600a612898565b612b33565b5050565b7fef17b1f3c5a412f9c8e887e3abd186802afec7dc657fd3b7002bf87b128dd0b181565b60007f01ffc9a7000000000000000000000000000000000000000000000000000000007bffffffffffffffffffffffffffffffffffffffffffffffffffffffff1916827bffffffffffffffffffffffffffffffffffffffffffffffffffffffff1916149050919050565b600033905090565b6127ab8282611f94565b61283b576127d08173ffffffffffffffffffffffffffffffffffffffff166014613044565b6127df83600190046020613044565b6040516020016127f0929190613e89565b6040516020818303038152906040526040517f08c379a00000000000000000000000000000000000000000000000000000000081526004016128329190613f58565b60405180910390fd5b5050565b6000611c2060026000848152602001908152602001600020600a01544261286691906141f2565b6128709190614167565b60026000848152602001908152602001600020600801546128919190614111565b9050919050565b6000814233856040516020016128b093929190613ec3565b60405160208183030381529060405280519060200120600190046128d491906143c2565b905092915050565b6128e68282611f94565b6129b857600160008084815260200190815260200160002060000160008373ffffffffffffffffffffffffffffffffffffffff1673ffffffffffffffffffffffffffffffffffffffff16815260200190815260200160002060006101000a81548160ff02191690831515021790555061295d612799565b73ffffffffffffffffffffffffffffffffffffffff168173ffffffffffffffffffffffffffffffffffffffff16837f2f8788117e7eff1d82e926ec794901d17c78024a50270940304540a733656f0d60405160405180910390a45b5050565b6129c68282611f94565b15612a9957600080600084815260200190815260200160002060000160008373ffffffffffffffffffffffffffffffffffffffff1673ffffffffffffffffffffffffffffffffffffffff16815260200190815260200160002060006101000a81548160ff021916908315150217905550612a3e612799565b73ffffffffffffffffffffffffffffffffffffffff168173ffffffffffffffffffffffffffffffffffffffff16837ff6391f5c32d9c69d2a47ea670b442974b53935d1edc7fd64eb21e047a839171b60405160405180910390a45b5050565b6000610e1060026000848152602001908152602001600020600a015442612ac491906141f2565b612ace9190614167565b6002600084815260200190815260200160002060000160030154612af29190614198565b6002600084815260200190815260200160002060070154612b139190614111565b9050919050565b6000818310612b295781612b2b565b825b905092915050565b60008190506002821015612b4a5760029050612b59565b6008821115612b5857600890505b5b6000612b688787878786613365565b90506040518060e001604052806040518061012001604052808a81526020018981526020018881526020018781526020018581526020016001856005811115612bda577f4e487b7100000000000000000000000000000000000000000000000000000000600052602160045260246000fd5b612be49190614111565b8152602001846005811115612c22577f4e487b7100000000000000000000000000000000000000000000000000000000600052602160045260246000fd5b8152602001600160009054906101000a900473ffffffffffffffffffffffffffffffffffffffff1673ffffffffffffffffffffffffffffffffffffffff16639507d39a60058e612c729190614111565b6040518263ffffffff167c0100000000000000000000000000000000000000000000000000000000028152600401612caa9190614096565b60206040518083038186803b158015612cc257600080fd5b505afa158015612cd6573d6000803e3d6000fd5b505050506040513d601f19601f82011682018060405250810190612cfa9190613774565b6009811115612d32577f4e487b7100000000000000000000000000000000000000000000000000000000600052602160045260246000fd5b8152602001600160009054906101000a900473ffffffffffffffffffffffffffffffffffffffff1673ffffffffffffffffffffffffffffffffffffffff16639507d39a60068e612d829190614111565b6040518263ffffffff167c0100000000000000000000000000000000000000000000000000000000028152600401612dba9190614096565b60206040518083038186803b158015612dd257600080fd5b505afa158015612de6573d6000803e3d6000fd5b505050506040513d601f19601f82011682018060405250810190612e0a9190613774565b6009811115612e42577f4e487b7100000000000000000000000000000000000000000000000000000000600052602160045260246000fd5b815250815260200188815260200183815260200160001515815260200160001515815260200142815260200142815250600260008a8152602001908152602001600020600082015181600001600082015181600001556020820151816001015560408201518160020155606082015181600301556080820151816004015560a0820151816005015560c08201518160060160006101000a81548160ff02191690836005811115612f1b577f4e487b7100000000000000000000000000000000000000000000000000000000600052602160045260246000fd5b021790555060e08201518160060160016101000a81548160ff02191690836009811115612f71577f4e487b7100000000000000000000000000000000000000000000000000000000600052602160045260246000fd5b02179055506101008201518160060160026101000a81548160ff02191690836009811115612fc8577f4e487b7100000000000000000000000000000000000000000000000000000000600052602160045260246000fd5b02179055505050602082015181600701556040820151816008015560608201518160090160006101000a81548160ff02191690831515021790555060808201518160090160016101000a81548160ff02191690831515021790555060a082015181600a015560c082015181600b01559050505050505050505050565b6060600060028360026130579190614198565b6130619190614111565b67ffffffffffffffff8111156130a0577f4e487b7100000000000000000000000000000000000000000000000000000000600052604160045260246000fd5b6040519080825280601f01601f1916602001820160405280156130d25781602001600182028036833780820191505090505b5090507f300000000000000000000000000000000000000000000000000000000000000081600081518110613130577f4e487b7100000000000000000000000000000000000000000000000000000000600052603260045260246000fd5b60200101907effffffffffffffffffffffffffffffffffffffffffffffffffffffffffffff1916908160001a9053507f7800000000000000000000000000000000000000000000000000000000000000816001815181106131ba577f4e487b7100000000000000000000000000000000000000000000000000000000600052603260045260246000fd5b60200101907effffffffffffffffffffffffffffffffffffffffffffffffffffffffffffff1916908160001a905350600060018460026131fa9190614198565b6132049190614111565b90505b6001811115613317577f3031323334353637383961626364656600000000000000000000000000000000600f86166010811061326c577f4e487b7100000000000000000000000000000000000000000000000000000000600052603260045260246000fd5b1a7f0100000000000000000000000000000000000000000000000000000000000000028282815181106132c8577f4e487b7100000000000000000000000000000000000000000000000000000000600052603260045260246000fd5b60200101907effffffffffffffffffffffffffffffffffffffffffffffffffffffffffffff1916908160001a905350600485908060020a820491505094508061331090614321565b9050613207565b506000841461335b576040517f08c379a000000000000000000000000000000000000000000000000000000000815260040161335290613f7a565b60405180910390fd5b8091505092915050565b600080600a846133759190614198565b6064846133829190614198565b600a8761338f9190614198565b60058961339c9190614198565b8a6133a79190614111565b6133b19190614111565b6133bb9190614111565b6133c59190614111565b90506111f88111156133db57600491505061341d565b610fa08111156133ef57600391505061341d565b610bb881111561340357600291505061341d565b6105dc81111561341757600191505061341d565b60009150505b95945050505050565b604051806101000160405280600081526020016134416134bc565b8152602001600081526020016000815260200160001515815260200160001515815260200160008152602001600081525090565b6040518060e001604052806134886134bc565b8152602001600081526020016000815260200160001515815260200160001515815260200160008152602001600081525090565b6040518061012001604052806000815260200160008152602001600081526020016000815260200160008152602001600081526020016000600581111561352c577f4e487b7100000000000000000000000000000000000000000000000000000000600052602160045260246000fd5b81526020016000600981111561356b577f4e487b7100000000000000000000000000000000000000000000000000000000600052602160045260246000fd5b8152602001600060098111156135aa577f4e487b7100000000000000000000000000000000000000000000000000000000600052602160045260246000fd5b81525090565b6000813590506135bf816144d2565b92915050565b60008083601f8401126135d757600080fd5b8235905067ffffffffffffffff8111156135f057600080fd5b60208301915083602082028301111561360857600080fd5b9250929050565b60008135905061361e816144e9565b92915050565b60008135905061363381614500565b92915050565b60008135905061364881614517565b92915050565b60008151905061365d81614527565b92915050565b60008135905061367281614537565b92915050565b60006020828403121561368a57600080fd5b6000613698848285016135b0565b91505092915050565b600080602083850312156136b457600080fd5b600083013567ffffffffffffffff8111156136ce57600080fd5b6136da858286016135c5565b92509250509250929050565b6000602082840312156136f857600080fd5b60006137068482850161360f565b91505092915050565b6000806040838503121561372257600080fd5b60006137308582860161360f565b9250506020613741858286016135b0565b9150509250929050565b60006020828403121561375d57600080fd5b600061376b84828501613624565b91505092915050565b60006020828403121561378657600080fd5b60006137948482850161364e565b91505092915050565b6000602082840312156137af57600080fd5b60006137bd84828501613663565b91505092915050565b600080604083850312156137d957600080fd5b60006137e785828601613663565b92505060206137f885828601613663565b9150509250929050565b60008060006060848603121561381757600080fd5b600061382586828701613663565b935050602061383686828701613663565b925050604061384786828701613639565b9150509250925092565b600061385d8383613c60565b6102008301905092915050565b61387b61387682614226565b614394565b82525050565b600061388c826140c1565b61389681856140e4565b93506138a1836140b1565b8060005b838110156138d25781516138b98882613851565b97506138c4836140d7565b9250506001810190506138a5565b5085935050505092915050565b6138e881614238565b82525050565b6138f781614238565b82525050565b61390681614244565b82525050565b613915816142ca565b82525050565b613924816142dc565b82525050565b6000613935826140cc565b61393f81856140f5565b935061394f8185602086016142ee565b61395881614480565b840191505092915050565b600061396e826140cc565b6139788185614106565b93506139888185602086016142ee565b80840191505092915050565b60006139a16020836140f5565b91507f537472696e67733a20686578206c656e67746820696e73756666696369656e746000830152602082019050919050565b60006139e1601f836140f5565b91507f676976656e2074617267657420697320616c7265616479206275726e65642e006000830152602082019050919050565b6000613a21601d836140f5565b91507f676976656e2074617267657420697320616c726561647920646561642e0000006000830152602082019050919050565b6000613a61601e836140f5565b91507f676976656e204e6f6b616920697320616c7265616479206275726e65642e00006000830152602082019050919050565b6000613aa16022836140f5565b91507f7461726765742073686f756c64206265206f662061206c6f776572206772616460008301527f652e0000000000000000000000000000000000000000000000000000000000006020830152604082019050919050565b6000613b07601783614106565b91507f416363657373436f6e74726f6c3a206163636f756e74200000000000000000006000830152601782019050919050565b6000613b476018836140f5565b91507f676976656e204e6f6b6169206973206e6f7420646561642e00000000000000006000830152602082019050919050565b6000613b87601183614106565b91507f206973206d697373696e6720726f6c65200000000000000000000000000000006000830152601182019050919050565b6000613bc7601c836140f5565b91507f676976656e204e6f6b616920697320616c726561647920646561642e000000006000830152602082019050919050565b6000613c07602f836140f5565b91507f416363657373436f6e74726f6c3a2063616e206f6e6c792072656e6f756e636560008301527f20726f6c657320666f722073656c6600000000000000000000000000000000006020830152604082019050919050565b61020082016000820151613c776000850182613e54565b506020820151613c8a6020850182613d9d565b506040820151613c9e610140850182613e54565b506060820151613cb2610160850182613e54565b506080820151613cc66101808501826138df565b5060a0820151613cda6101a08501826138df565b5060c0820151613cee6101c0850182613e54565b5060e0820151613d026101e0850182613e54565b50505050565b6101e082016000820151613d1f6000850182613d9d565b506020820151613d33610120850182613e54565b506040820151613d47610140850182613e54565b506060820151613d5b6101608501826138df565b506080820151613d6f6101808501826138df565b5060a0820151613d836101a0850182613e54565b5060c0820151613d976101c0850182613e54565b50505050565b61012082016000820151613db46000850182613e54565b506020820151613dc76020850182613e54565b506040820151613dda6040850182613e54565b506060820151613ded6060850182613e54565b506080820151613e006080850182613e54565b5060a0820151613e1360a0850182613e54565b5060c0820151613e2660c085018261390c565b5060e0820151613e3960e085018261391b565b50610100820151613e4e61010085018261391b565b50505050565b613e5d816142c0565b82525050565b613e6c816142c0565b82525050565b613e83613e7e826142c0565b6143b8565b82525050565b6000613e9482613afa565b9150613ea08285613963565b9150613eab82613b7a565b9150613eb78284613963565b91508190509392505050565b6000613ecf8286613e72565b602082019150613edf828561386a565b601482019150613eef8284613e72565b602082019150819050949350505050565b60006020820190508181036000830152613f1a8184613881565b905092915050565b6000602082019050613f3760008301846138ee565b92915050565b6000602082019050613f5260008301846138fd565b92915050565b60006020820190508181036000830152613f72818461392a565b905092915050565b60006020820190508181036000830152613f9381613994565b9050919050565b60006020820190508181036000830152613fb3816139d4565b9050919050565b60006020820190508181036000830152613fd381613a14565b9050919050565b60006020820190508181036000830152613ff381613a54565b9050919050565b6000602082019050818103600083015261401381613a94565b9050919050565b6000602082019050818103600083015261403381613b3a565b9050919050565b6000602082019050818103600083015261405381613bba565b9050919050565b6000602082019050818103600083015261407381613bfa565b9050919050565b60006101e0820190506140906000830184613d08565b92915050565b60006020820190506140ab6000830184613e63565b92915050565b6000819050602082019050919050565b600081519050919050565b600081519050919050565b6000602082019050919050565b600082825260208201905092915050565b600082825260208201905092915050565b600081905092915050565b600061411c826142c0565b9150614127836142c0565b9250827fffffffffffffffffffffffffffffffffffffffffffffffffffffffffffffffff0382111561415c5761415b6143f3565b5b828201905092915050565b6000614172826142c0565b915061417d836142c0565b92508261418d5761418c614422565b5b828204905092915050565b60006141a3826142c0565b91506141ae836142c0565b9250817fffffffffffffffffffffffffffffffffffffffffffffffffffffffffffffffff04831182151516156141e7576141e66143f3565b5b828202905092915050565b60006141fd826142c0565b9150614208836142c0565b92508282101561421b5761421a6143f3565b5b828203905092915050565b6000614231826142a0565b9050919050565b60008115159050919050565b6000819050919050565b60007fffffffff0000000000000000000000000000000000000000000000000000000082169050919050565b6000819050614288826144aa565b919050565b600081905061429b826144be565b919050565b600073ffffffffffffffffffffffffffffffffffffffff82169050919050565b6000819050919050565b60006142d58261427a565b9050919050565b60006142e78261428d565b9050919050565b60005b8381101561430c5780820151818401526020810190506142f1565b8381111561431b576000848401525b50505050565b600061432c826142c0565b915060008214156143405761433f6143f3565b5b600182039050919050565b6000614356826142c0565b91507fffffffffffffffffffffffffffffffffffffffffffffffffffffffffffffffff821415614389576143886143f3565b5b600182019050919050565b600061439f826143a6565b9050919050565b60006143b182614491565b9050919050565b6000819050919050565b60006143cd826142c0565b91506143d8836142c0565b9250826143e8576143e7614422565b5b828206905092915050565b7f4e487b7100000000000000000000000000000000000000000000000000000000600052601160045260246000fd5b7f4e487b7100000000000000000000000000000000000000000000000000000000600052601260045260246000fd5b7f4e487b7100000000000000000000000000000000000000000000000000000000600052602160045260246000fd5b6000601f19601f8301169050919050565b60006c0100000000000000000000000082029050919050565b600681106144bb576144ba614451565b5b50565b600a81106144cf576144ce614451565b5b50565b6144db81614226565b81146144e657600080fd5b50565b6144f281614244565b81146144fd57600080fd5b50565b6145098161424e565b811461451457600080fd5b50565b6005811061452457600080fd5b50565b600a811061453457600080fd5b50565b614540816142c0565b811461454b57600080fd5b5056fea2646970667358221220440b4e51d9b3897c88d5b9033d65073b75b05a52fa3a98f2c8a7a1526a643f7964736f6c63430008000033",
  "immutableReferences": {},
  "source": "pragma solidity ^0.8.0;\r\npragma experimental ABIEncoderV2;\r\n\r\nimport \"@openzeppelin/contracts/access/AccessControl.sol\";\r\nimport \"@openzeppelin/contracts/utils/math/Math.sol\";\r\nimport \"../utils/RandomUtils.sol\";\r\nimport \"./NokaiTechnique.sol\";\r\n\r\n// SPDX-License-Identifier: MIT\r\ncontract NokaiStats is AccessControl {\r\n    bytes32 public constant NOKAI_MANAGER_ROLE = keccak256(\"NOKAI_MANAGER_ROLE\");\r\n    bytes32 public constant GAME_MANAGER_ROLE = keccak256(\"GAME_MANAGER_ROLE\");\r\n    bytes32 public constant INVENTORY_MANAGER_ROLE = keccak256(\"INVENTORY_MANAGER_ROLE\");\r\n\r\n    enum Rarity {\r\n        Spirit,\r\n        Champion,\r\n        Overlord,\r\n        Astral,\r\n        Legend,\r\n        God\r\n    }\r\n\r\n    enum StatType {\r\n        HP,\r\n        ATTACK,\r\n        DEFENSE,\r\n        REGEN,\r\n        PA\r\n    }\r\n\r\n    struct Profile {\r\n        Stats stats;\r\n        uint256 currentHp;\r\n        uint256 currentPa;\r\n        bool dead;\r\n        bool burned;\r\n        uint256 lastHpSet;\r\n        uint256 lastPaSet;\r\n    }\r\n\r\n    struct Stats {\r\n        uint256 hp;\r\n        uint256 attack;\r\n        uint256 defense;\r\n        uint256 regen;\r\n        uint256 pa;\r\n        uint256 gradeValue;\r\n        Rarity grade;\r\n        NokaiTechnique.Technique technique1;\r\n        NokaiTechnique.Technique technique2;\r\n    }\r\n\r\n    NokaiTechnique private _techniquePicker;\r\n    mapping(uint256 => Profile) private _profiles;\r\n\r\n    constructor(address techniquePicker) {\r\n        _techniquePicker = NokaiTechnique(techniquePicker);\r\n        _setupRole(DEFAULT_ADMIN_ROLE, msg.sender);\r\n    }\r\n\r\n    function migrateNokaiTechnique(address techniquePicker) external onlyRole(DEFAULT_ADMIN_ROLE) {\r\n        _techniquePicker = NokaiTechnique(techniquePicker);\r\n    }\r\n\r\n    function generateNokai(uint256 newNokaiId) external onlyRole(NOKAI_MANAGER_ROLE) {\r\n        _saveNokaiProfile(\r\n            newNokaiId,\r\n            Math.min(RandomUtils._rand(newNokaiId, 100) * 8 + 200, 1000),\r\n            Math.min(RandomUtils._rand(newNokaiId + 1, 10) * 8 + 20, 200),\r\n            Math.min(RandomUtils._rand(newNokaiId + 2, 10) * 9 + 10, 100),\r\n            Math.min(RandomUtils._rand(newNokaiId + 3, 10) * 8 + 20, 100),\r\n            RandomUtils._rand(newNokaiId + 4, 10)\r\n        );\r\n    }\r\n\r\n    function generateHighNokai(uint256 newNokaiId) external onlyRole(NOKAI_MANAGER_ROLE) {\r\n        _saveNokaiProfile(\r\n            newNokaiId,\r\n            Math.min(RandomUtils._rand(newNokaiId, 100) * 3 + 700, 1000),\r\n            Math.min(RandomUtils._rand(newNokaiId + 1, 10) * 5 + 150, 200),\r\n            Math.min(RandomUtils._rand(newNokaiId + 2, 10) * 3 + 70, 100),\r\n            Math.min(RandomUtils._rand(newNokaiId + 3, 10) * 3 + 70, 100),\r\n            RandomUtils._rand(newNokaiId + 4, 10) / 2 + 5\r\n        );\r\n    }\r\n\r\n    function generateGodNokai(uint256 newNokaiId) external onlyRole(NOKAI_MANAGER_ROLE) {\r\n        uint256 hp = (RandomUtils._rand(newNokaiId, 100) / 2) + 950;\r\n        _profiles[newNokaiId] = Profile({\r\n        stats : Stats({\r\n        hp : hp,\r\n        attack : RandomUtils._rand(newNokaiId + 1, 10) * 2 + 180,\r\n        defense : RandomUtils._rand(newNokaiId + 3, 10) + 90,\r\n        regen : RandomUtils._rand(newNokaiId + 3, 10) + 90,\r\n        pa : 10,\r\n        technique1 : _techniquePicker.get(newNokaiId + 5),\r\n        technique2 : _techniquePicker.get(newNokaiId + 6),\r\n        grade : Rarity.God,\r\n        gradeValue : uint256(Rarity.God) + 1\r\n        }),\r\n        currentHp : hp,\r\n        currentPa : 10,\r\n        dead : false,\r\n        burned : false,\r\n        lastHpSet : block.timestamp,\r\n        lastPaSet : block.timestamp\r\n        });\r\n    }\r\n\r\n    function _saveNokaiProfile(uint256 newNokaiId, uint256 hp, uint256 attack, uint256 defense, uint256 regen, uint256 pa) private {\r\n        uint256 _pa = pa;\r\n        if (pa < 2) {\r\n            _pa = 2;\r\n        } else if (pa > 8) {\r\n            _pa = 8;\r\n        }\r\n        Rarity grade = _getBirthGrade(hp, attack, defense, regen, _pa);\r\n\r\n        _profiles[newNokaiId] = Profile({\r\n        stats : Stats({\r\n        hp : hp,\r\n        attack : attack,\r\n        defense : defense,\r\n        regen : regen,\r\n        pa : _pa,\r\n        technique1 : _techniquePicker.get(newNokaiId + 5),\r\n        technique2 : _techniquePicker.get(newNokaiId + 6),\r\n        grade : grade,\r\n        gradeValue : uint256(grade) + 1\r\n        }),\r\n        currentHp : hp,\r\n        currentPa : _pa,\r\n        dead : false,\r\n        burned : false,\r\n        lastHpSet : block.timestamp,\r\n        lastPaSet : block.timestamp\r\n        });\r\n    }\r\n\r\n    function upgradeFromNokaiBurn(uint256 nokaiId, uint256 targetId, StatType upgradeChoice) external onlyRole(NOKAI_MANAGER_ROLE) {\r\n        require(_profiles[nokaiId].dead == false, \"given Nokai is already dead.\");\r\n        require(_profiles[targetId].dead == false, \"given target is already dead.\");\r\n        require(_profiles[nokaiId].burned == false, \"given Nokai is already burned.\");\r\n        require(_profiles[targetId].burned == false, \"given target is already burned.\");\r\n        require(_profiles[nokaiId].stats.gradeValue >= _profiles[targetId].stats.gradeValue, \"target should be of a lower grade.\");\r\n\r\n        _profiles[targetId].burned = true;\r\n\r\n        if (upgradeChoice == StatType.HP) {\r\n            _profiles[nokaiId].stats.hp += _profiles[targetId].stats.hp * (_profiles[targetId].stats.gradeValue * 2) / 100;\r\n        } else if (upgradeChoice == StatType.ATTACK) {\r\n            _profiles[nokaiId].stats.attack += _profiles[targetId].stats.attack * (_profiles[targetId].stats.gradeValue * 2) / 100;\r\n        } else if (upgradeChoice == StatType.DEFENSE) {\r\n            _profiles[nokaiId].stats.defense += _profiles[targetId].stats.defense * (_profiles[targetId].stats.gradeValue * 2) / 100;\r\n        } else if (upgradeChoice == StatType.REGEN) {\r\n            _profiles[nokaiId].stats.regen += _profiles[targetId].stats.regen * (_profiles[targetId].stats.gradeValue * 2) / 100;\r\n        } else if (upgradeChoice == StatType.PA) {\r\n            _profiles[nokaiId].stats.pa += _profiles[targetId].stats.gradeValue / 2;\r\n        }\r\n    }\r\n\r\n    function _getBirthGrade(uint256 hp, uint256 attack, uint256 defense, uint256 regen, uint256 pa) private pure returns (Rarity) {\r\n        uint256 total = hp + (attack * 5) + (defense * 10) + (pa * 100) + (regen * 10);\r\n        // max should be 5000\r\n        if (total > 4600) {\r\n            return Rarity.Legend;\r\n        } else if (total > 4000) {\r\n            return Rarity.Astral;\r\n        } else if (total > 3000) {\r\n            return Rarity.Overlord;\r\n        } else if (total > 1500) {\r\n            return Rarity.Champion;\r\n        } else {\r\n            return Rarity.Spirit;\r\n        }\r\n    }\r\n\r\n    function damage(uint256 nokaiId, uint256 newHp) external onlyRole(GAME_MANAGER_ROLE) {\r\n        require(_profiles[nokaiId].dead == false, \"given Nokai is already dead.\");\r\n        require(_profiles[nokaiId].burned == false, \"given Nokai is already burned.\");\r\n        _profiles[nokaiId].lastHpSet = block.timestamp;\r\n        if (newHp == 0) {\r\n            _profiles[nokaiId].currentHp = 0;\r\n            _profiles[nokaiId].dead = true;\r\n            emit NokaiKilled(nokaiId);\r\n        } else {\r\n            _profiles[nokaiId].currentHp = newHp;\r\n            emit NokaiDamaged(nokaiId, newHp);\r\n        }\r\n    }\r\n\r\n    function reborn(uint256 nokaiId) external onlyRole(INVENTORY_MANAGER_ROLE) {\r\n        require(_profiles[nokaiId].dead == true, \"given Nokai is not dead.\");\r\n        require(_profiles[nokaiId].burned == false, \"given Nokai is already burned.\");\r\n        _profiles[nokaiId].lastHpSet = block.timestamp;\r\n        _profiles[nokaiId].currentHp = _profiles[nokaiId].stats.hp;\r\n        _profiles[nokaiId].dead = false;\r\n        emit NokaiReborn(nokaiId);\r\n    }\r\n\r\n    function heal(uint256 nokaiId, uint256 amount) external onlyRole(INVENTORY_MANAGER_ROLE) {\r\n        require(_profiles[nokaiId].dead == false, \"given Nokai is already dead.\");\r\n        require(_profiles[nokaiId].burned == false, \"given Nokai is already burned.\");\r\n        uint256 currentHp = _calculateHp(nokaiId);\r\n        _profiles[nokaiId].lastHpSet = block.timestamp;\r\n        if (currentHp + amount > _profiles[nokaiId].stats.hp) {\r\n            _profiles[nokaiId].currentHp = _profiles[nokaiId].stats.hp;\r\n        } else {\r\n            _profiles[nokaiId].currentHp = currentHp + amount;\r\n        }\r\n        emit NokaiHealed(nokaiId, amount);\r\n    }\r\n\r\n    function energize(uint256 nokaiId, uint256 pa) external onlyRole(INVENTORY_MANAGER_ROLE) {\r\n        require(_profiles[nokaiId].dead == false, \"given Nokai is already dead.\");\r\n        require(_profiles[nokaiId].burned == false, \"given Nokai is already burned.\");\r\n        uint256 currentPa = _calculatePa(nokaiId);\r\n        _profiles[nokaiId].lastPaSet = block.timestamp;\r\n        if (currentPa + pa > _profiles[nokaiId].stats.pa) {\r\n            _profiles[nokaiId].currentPa = _profiles[nokaiId].stats.pa;\r\n        } else {\r\n            _profiles[nokaiId].currentPa = currentPa + pa;\r\n        }\r\n        emit NokaiEnergized(nokaiId);\r\n    }\r\n\r\n    function didAction(uint256 nokaiId, uint256 _pa) external onlyRole(GAME_MANAGER_ROLE) {\r\n        uint256 currentPa = _calculatePa(nokaiId);\r\n        _profiles[nokaiId].lastPaSet = block.timestamp;\r\n        if (currentPa - _pa <= 0) {\r\n            _profiles[nokaiId].currentPa = 0;\r\n            emit NokaiEmptyEnergy(nokaiId);\r\n        } else {\r\n            _profiles[nokaiId].currentPa = currentPa - _pa;\r\n        }\r\n    }\r\n\r\n    function _calculateHp(uint256 nokaiId) internal view returns (uint256) {\r\n        return _profiles[nokaiId].currentHp + (_profiles[nokaiId].stats.regen * ((block.timestamp - _profiles[nokaiId].lastHpSet) / 3600));\r\n    }\r\n\r\n    function _calculatePa(uint256 nokaiId) internal view returns (uint256) {\r\n        return _profiles[nokaiId].currentPa + ((block.timestamp - _profiles[nokaiId].lastHpSet) / 7200);\r\n    }\r\n\r\n    function profile(uint256 nokaiId) external view returns (Profile memory) {\r\n        return Profile({\r\n        stats : _profiles[nokaiId].stats,\r\n        currentHp : _calculateHp(nokaiId),\r\n        currentPa : _calculatePa(nokaiId),\r\n        dead : _profiles[nokaiId].dead,\r\n        burned : _profiles[nokaiId].burned,\r\n        lastHpSet : _profiles[nokaiId].lastHpSet,\r\n        lastPaSet : _profiles[nokaiId].lastPaSet\r\n        });\r\n    }\r\n\r\n    struct ProfileDTO {\r\n        uint256 nokaiId;\r\n        Stats stats;\r\n        uint256 currentHp;\r\n        uint256 currentPa;\r\n        bool dead;\r\n        bool burned;\r\n        uint256 lastHpSet;\r\n        uint256 lastPaSet;\r\n    }\r\n    function profiles(uint256[] calldata nokaiIds) external view returns (ProfileDTO[] memory) {\r\n        ProfileDTO[] memory nokais = new ProfileDTO[](nokaiIds.length);\r\n\r\n        for (uint256 i = 0; i < nokaiIds.length; i++) {\r\n            nokais[i] = ProfileDTO({\r\n            nokaiId : nokaiIds[i],\r\n            stats : _profiles[nokaiIds[i]].stats,\r\n            currentHp : _calculateHp(nokaiIds[i]),\r\n            currentPa : _calculatePa(nokaiIds[i]),\r\n            dead : _profiles[nokaiIds[i]].dead,\r\n            burned : _profiles[nokaiIds[i]].burned,\r\n            lastHpSet : _profiles[nokaiIds[i]].lastHpSet,\r\n            lastPaSet : _profiles[nokaiIds[i]].lastPaSet\r\n            });\r\n        }\r\n        return nokais;\r\n    }\r\n\r\n    event NokaiDamaged(uint256 indexed nokaiId, uint256 newHp);\r\n    event NokaiKilled(uint256 indexed nokaiId);\r\n    event NokaiReborn(uint256 indexed nokaiId);\r\n    event NokaiHealed(uint256 indexed nokaiId, uint256 amount);\r\n    event NokaiEnergized(uint256 indexed nokaiId);\r\n    event NokaiEmptyEnergy(uint256 indexed nokaiId);\r\n}\r\n",
  "sourcePath": "C:\\Users\\10404\\Documents\\projects\\blackhole-evm\\contracts\\character\\NokaiStats.sol",
  "compiler": {
    "name": "solc",
    "version": "0.8.0+commit.c7dfd78e.Emscripten.clang"
  },
  "schemaVersion": "3.4.3",
  "updatedAt": "2021-12-19T20:28:06.373Z",
  "networkType": "ethereum",
  "devdoc": {
    "kind": "dev",
    "methods": {
      "getRoleAdmin(bytes32)": {
        "details": "Returns the admin role that controls `role`. See {grantRole} and {revokeRole}. To change a role's admin, use {_setRoleAdmin}."
      },
      "grantRole(bytes32,address)": {
        "details": "Grants `role` to `account`. If `account` had not been already granted `role`, emits a {RoleGranted} event. Requirements: - the caller must have ``role``'s admin role."
      },
      "hasRole(bytes32,address)": {
        "details": "Returns `true` if `account` has been granted `role`."
      },
      "renounceRole(bytes32,address)": {
        "details": "Revokes `role` from the calling account. Roles are often managed via {grantRole} and {revokeRole}: this function's purpose is to provide a mechanism for accounts to lose their privileges if they are compromised (such as when a trusted device is misplaced). If the calling account had been revoked `role`, emits a {RoleRevoked} event. Requirements: - the caller must be `account`."
      },
      "revokeRole(bytes32,address)": {
        "details": "Revokes `role` from `account`. If `account` had been granted `role`, emits a {RoleRevoked} event. Requirements: - the caller must have ``role``'s admin role."
      },
      "supportsInterface(bytes4)": {
        "details": "See {IERC165-supportsInterface}."
      }
    },
    "version": 1
  },
  "userdoc": {
    "kind": "user",
    "methods": {},
    "version": 1
  }
}