{
  "contractName": "Nokai",
  "abi": [
    {
      "inputs": [
        {
          "internalType": "address",
          "name": "nokaiStats",
          "type": "address"
        },
        {
          "internalType": "string",
          "name": "baseUri",
          "type": "string"
        }
      ],
      "stateMutability": "nonpayable",
      "type": "constructor"
    },
    {
      "anonymous": false,
      "inputs": [
        {
          "indexed": true,
          "internalType": "address",
          "name": "owner",
          "type": "address"
        },
        {
          "indexed": true,
          "internalType": "address",
          "name": "approved",
          "type": "address"
        },
        {
          "indexed": true,
          "internalType": "uint256",
          "name": "tokenId",
          "type": "uint256"
        }
      ],
      "name": "Approval",
      "type": "event"
    },
    {
      "anonymous": false,
      "inputs": [
        {
          "indexed": true,
          "internalType": "address",
          "name": "owner",
          "type": "address"
        },
        {
          "indexed": true,
          "internalType": "address",
          "name": "operator",
          "type": "address"
        },
        {
          "indexed": false,
          "internalType": "bool",
          "name": "approved",
          "type": "bool"
        }
      ],
      "name": "ApprovalForAll",
      "type": "event"
    },
    {
      "anonymous": false,
      "inputs": [
        {
          "indexed": true,
          "internalType": "uint256",
          "name": "nokaiId",
          "type": "uint256"
        },
        {
          "indexed": true,
          "internalType": "address",
          "name": "owner",
          "type": "address"
        }
      ],
      "name": "NokaiBorn",
      "type": "event"
    },
    {
      "anonymous": false,
      "inputs": [
        {
          "indexed": true,
          "internalType": "uint256",
          "name": "nokaiId",
          "type": "uint256"
        },
        {
          "indexed": true,
          "internalType": "address",
          "name": "owner",
          "type": "address"
        }
      ],
      "name": "NokaiUpgraded",
      "type": "event"
    },
    {
      "anonymous": false,
      "inputs": [
        {
          "indexed": true,
          "internalType": "bytes32",
          "name": "role",
          "type": "bytes32"
        },
        {
          "indexed": true,
          "internalType": "bytes32",
          "name": "previousAdminRole",
          "type": "bytes32"
        },
        {
          "indexed": true,
          "internalType": "bytes32",
          "name": "newAdminRole",
          "type": "bytes32"
        }
      ],
      "name": "RoleAdminChanged",
      "type": "event"
    },
    {
      "anonymous": false,
      "inputs": [
        {
          "indexed": true,
          "internalType": "bytes32",
          "name": "role",
          "type": "bytes32"
        },
        {
          "indexed": true,
          "internalType": "address",
          "name": "account",
          "type": "address"
        },
        {
          "indexed": true,
          "internalType": "address",
          "name": "sender",
          "type": "address"
        }
      ],
      "name": "RoleGranted",
      "type": "event"
    },
    {
      "anonymous": false,
      "inputs": [
        {
          "indexed": true,
          "internalType": "bytes32",
          "name": "role",
          "type": "bytes32"
        },
        {
          "indexed": true,
          "internalType": "address",
          "name": "account",
          "type": "address"
        },
        {
          "indexed": true,
          "internalType": "address",
          "name": "sender",
          "type": "address"
        }
      ],
      "name": "RoleRevoked",
      "type": "event"
    },
    {
      "anonymous": false,
      "inputs": [
        {
          "indexed": true,
          "internalType": "address",
          "name": "from",
          "type": "address"
        },
        {
          "indexed": true,
          "internalType": "address",
          "name": "to",
          "type": "address"
        },
        {
          "indexed": true,
          "internalType": "uint256",
          "name": "tokenId",
          "type": "uint256"
        }
      ],
      "name": "Transfer",
      "type": "event"
    },
    {
      "inputs": [],
      "name": "DEFAULT_ADMIN_ROLE",
      "outputs": [
        {
          "internalType": "bytes32",
          "name": "",
          "type": "bytes32"
        }
      ],
      "stateMutability": "view",
      "type": "function",
      "constant": true
    },
    {
      "inputs": [],
      "name": "MINT_ROLE",
      "outputs": [
        {
          "internalType": "bytes32",
          "name": "",
          "type": "bytes32"
        }
      ],
      "stateMutability": "view",
      "type": "function",
      "constant": true
    },
    {
      "inputs": [
        {
          "internalType": "address",
          "name": "to",
          "type": "address"
        },
        {
          "internalType": "uint256",
          "name": "tokenId",
          "type": "uint256"
        }
      ],
      "name": "approve",
      "outputs": [],
      "stateMutability": "nonpayable",
      "type": "function"
    },
    {
      "inputs": [
        {
          "internalType": "address",
          "name": "owner",
          "type": "address"
        }
      ],
      "name": "balanceOf",
      "outputs": [
        {
          "internalType": "uint256",
          "name": "",
          "type": "uint256"
        }
      ],
      "stateMutability": "view",
      "type": "function",
      "constant": true
    },
    {
      "inputs": [
        {
          "internalType": "uint256",
          "name": "tokenId",
          "type": "uint256"
        }
      ],
      "name": "getApproved",
      "outputs": [
        {
          "internalType": "address",
          "name": "",
          "type": "address"
        }
      ],
      "stateMutability": "view",
      "type": "function",
      "constant": true
    },
    {
      "inputs": [
        {
          "internalType": "bytes32",
          "name": "role",
          "type": "bytes32"
        }
      ],
      "name": "getRoleAdmin",
      "outputs": [
        {
          "internalType": "bytes32",
          "name": "",
          "type": "bytes32"
        }
      ],
      "stateMutability": "view",
      "type": "function",
      "constant": true
    },
    {
      "inputs": [
        {
          "internalType": "bytes32",
          "name": "role",
          "type": "bytes32"
        },
        {
          "internalType": "address",
          "name": "account",
          "type": "address"
        }
      ],
      "name": "grantRole",
      "outputs": [],
      "stateMutability": "nonpayable",
      "type": "function"
    },
    {
      "inputs": [
        {
          "internalType": "bytes32",
          "name": "role",
          "type": "bytes32"
        },
        {
          "internalType": "address",
          "name": "account",
          "type": "address"
        }
      ],
      "name": "hasRole",
      "outputs": [
        {
          "internalType": "bool",
          "name": "",
          "type": "bool"
        }
      ],
      "stateMutability": "view",
      "type": "function",
      "constant": true
    },
    {
      "inputs": [
        {
          "internalType": "address",
          "name": "owner",
          "type": "address"
        },
        {
          "internalType": "address",
          "name": "operator",
          "type": "address"
        }
      ],
      "name": "isApprovedForAll",
      "outputs": [
        {
          "internalType": "bool",
          "name": "",
          "type": "bool"
        }
      ],
      "stateMutability": "view",
      "type": "function",
      "constant": true
    },
    {
      "inputs": [],
      "name": "name",
      "outputs": [
        {
          "internalType": "string",
          "name": "",
          "type": "string"
        }
      ],
      "stateMutability": "view",
      "type": "function",
      "constant": true
    },
    {
      "inputs": [
        {
          "internalType": "uint256",
          "name": "tokenId",
          "type": "uint256"
        }
      ],
      "name": "ownerOf",
      "outputs": [
        {
          "internalType": "address",
          "name": "",
          "type": "address"
        }
      ],
      "stateMutability": "view",
      "type": "function",
      "constant": true
    },
    {
      "inputs": [
        {
          "internalType": "bytes32",
          "name": "role",
          "type": "bytes32"
        },
        {
          "internalType": "address",
          "name": "account",
          "type": "address"
        }
      ],
      "name": "renounceRole",
      "outputs": [],
      "stateMutability": "nonpayable",
      "type": "function"
    },
    {
      "inputs": [
        {
          "internalType": "bytes32",
          "name": "role",
          "type": "bytes32"
        },
        {
          "internalType": "address",
          "name": "account",
          "type": "address"
        }
      ],
      "name": "revokeRole",
      "outputs": [],
      "stateMutability": "nonpayable",
      "type": "function"
    },
    {
      "inputs": [
        {
          "internalType": "address",
          "name": "from",
          "type": "address"
        },
        {
          "internalType": "address",
          "name": "to",
          "type": "address"
        },
        {
          "internalType": "uint256",
          "name": "tokenId",
          "type": "uint256"
        }
      ],
      "name": "safeTransferFrom",
      "outputs": [],
      "stateMutability": "nonpayable",
      "type": "function"
    },
    {
      "inputs": [
        {
          "internalType": "address",
          "name": "from",
          "type": "address"
        },
        {
          "internalType": "address",
          "name": "to",
          "type": "address"
        },
        {
          "internalType": "uint256",
          "name": "tokenId",
          "type": "uint256"
        },
        {
          "internalType": "bytes",
          "name": "_data",
          "type": "bytes"
        }
      ],
      "name": "safeTransferFrom",
      "outputs": [],
      "stateMutability": "nonpayable",
      "type": "function"
    },
    {
      "inputs": [
        {
          "internalType": "address",
          "name": "operator",
          "type": "address"
        },
        {
          "internalType": "bool",
          "name": "approved",
          "type": "bool"
        }
      ],
      "name": "setApprovalForAll",
      "outputs": [],
      "stateMutability": "nonpayable",
      "type": "function"
    },
    {
      "inputs": [],
      "name": "symbol",
      "outputs": [
        {
          "internalType": "string",
          "name": "",
          "type": "string"
        }
      ],
      "stateMutability": "view",
      "type": "function",
      "constant": true
    },
    {
      "inputs": [
        {
          "internalType": "uint256",
          "name": "index",
          "type": "uint256"
        }
      ],
      "name": "tokenByIndex",
      "outputs": [
        {
          "internalType": "uint256",
          "name": "",
          "type": "uint256"
        }
      ],
      "stateMutability": "view",
      "type": "function",
      "constant": true
    },
    {
      "inputs": [
        {
          "internalType": "address",
          "name": "owner",
          "type": "address"
        },
        {
          "internalType": "uint256",
          "name": "index",
          "type": "uint256"
        }
      ],
      "name": "tokenOfOwnerByIndex",
      "outputs": [
        {
          "internalType": "uint256",
          "name": "",
          "type": "uint256"
        }
      ],
      "stateMutability": "view",
      "type": "function",
      "constant": true
    },
    {
      "inputs": [
        {
          "internalType": "uint256",
          "name": "tokenId",
          "type": "uint256"
        }
      ],
      "name": "tokenURI",
      "outputs": [
        {
          "internalType": "string",
          "name": "",
          "type": "string"
        }
      ],
      "stateMutability": "view",
      "type": "function",
      "constant": true
    },
    {
      "inputs": [],
      "name": "totalSupply",
      "outputs": [
        {
          "internalType": "uint256",
          "name": "",
          "type": "uint256"
        }
      ],
      "stateMutability": "view",
      "type": "function",
      "constant": true
    },
    {
      "inputs": [
        {
          "internalType": "address",
          "name": "from",
          "type": "address"
        },
        {
          "internalType": "address",
          "name": "to",
          "type": "address"
        },
        {
          "internalType": "uint256",
          "name": "tokenId",
          "type": "uint256"
        }
      ],
      "name": "transferFrom",
      "outputs": [],
      "stateMutability": "nonpayable",
      "type": "function"
    },
    {
      "inputs": [
        {
          "internalType": "bytes4",
          "name": "interfaceId",
          "type": "bytes4"
        }
      ],
      "name": "supportsInterface",
      "outputs": [
        {
          "internalType": "bool",
          "name": "",
          "type": "bool"
        }
      ],
      "stateMutability": "view",
      "type": "function",
      "constant": true
    },
    {
      "inputs": [
        {
          "internalType": "bool",
          "name": "isRare",
          "type": "bool"
        }
      ],
      "name": "generateNokai",
      "outputs": [
        {
          "internalType": "uint256",
          "name": "",
          "type": "uint256"
        }
      ],
      "stateMutability": "nonpayable",
      "type": "function"
    },
    {
      "inputs": [
        {
          "internalType": "address",
          "name": "owner",
          "type": "address"
        }
      ],
      "name": "listFor",
      "outputs": [
        {
          "internalType": "uint256[]",
          "name": "",
          "type": "uint256[]"
        }
      ],
      "stateMutability": "view",
      "type": "function",
      "constant": true
    },
    {
      "inputs": [
        {
          "internalType": "uint256",
          "name": "nokaiId",
          "type": "uint256"
        },
        {
          "internalType": "uint256",
          "name": "targetId",
          "type": "uint256"
        },
        {
          "internalType": "enum NokaiStats.StatType",
          "name": "upgradeChoice",
          "type": "uint8"
        }
      ],
      "name": "absorb",
      "outputs": [],
      "stateMutability": "nonpayable",
      "type": "function"
    },
    {
      "inputs": [
        {
          "internalType": "uint256",
          "name": "nbGods",
          "type": "uint256"
        }
      ],
      "name": "setup",
      "outputs": [],
      "stateMutability": "nonpayable",
      "type": "function"
    },
    {
      "inputs": [],
      "name": "lockMint",
      "outputs": [],
      "stateMutability": "nonpayable",
      "type": "function"
    },
    {
      "inputs": [],
      "name": "unlockMint",
      "outputs": [],
      "stateMutability": "nonpayable",
      "type": "function"
    },
    {
      "inputs": [],
      "name": "lockTransfer",
      "outputs": [],
      "stateMutability": "nonpayable",
      "type": "function"
    },
    {
      "inputs": [],
      "name": "unlockTransfer",
      "outputs": [],
      "stateMutability": "nonpayable",
      "type": "function"
    },
    {
      "inputs": [
        {
          "internalType": "string",
          "name": "baseUri",
          "type": "string"
        }
      ],
      "name": "setUri",
      "outputs": [],
      "stateMutability": "nonpayable",
      "type": "function"
    }
  ],
  "bytecode": "0x60806040523480156200001157600080fd5b506040516200525338038062005253833981810160405281019062000037919062000427565b6040518060400160405280600581526020017f4e6f6b61690000000000000000000000000000000000000000000000000000008152506040518060400160405280600381526020017f4b414900000000000000000000000000000000000000000000000000000000008152508160009080519060200190620000bb929190620002ee565b508060019080519060200190620000d4929190620002ee565b50505081600c60006101000a81548173ffffffffffffffffffffffffffffffffffffffff021916908373ffffffffffffffffffffffffffffffffffffffff1602179055506200013760006001023362000158640100000000026401000000009004565b80600d90805190602001906200014f929190620002ee565b50505062000600565b62000173828262000177640100000000026401000000009004565b5050565b6200019282826200027b640100000000026401000000009004565b62000277576001600a600084815260200190815260200160002060000160008373ffffffffffffffffffffffffffffffffffffffff1673ffffffffffffffffffffffffffffffffffffffff16815260200190815260200160002060006101000a81548160ff0219169083151502179055506200021c620002e6640100000000026401000000009004565b73ffffffffffffffffffffffffffffffffffffffff168173ffffffffffffffffffffffffffffffffffffffff16837f2f8788117e7eff1d82e926ec794901d17c78024a50270940304540a733656f0d60405160405180910390a45b5050565b6000600a600084815260200190815260200160002060000160008373ffffffffffffffffffffffffffffffffffffffff1673ffffffffffffffffffffffffffffffffffffffff16815260200190815260200160002060009054906101000a900460ff16905092915050565b600033905090565b828054620002fc9062000552565b90600052602060002090601f0160209004810192826200032057600085556200036c565b82601f106200033b57805160ff19168380011785556200036c565b828001600101855582156200036c579182015b828111156200036b5782518255916020019190600101906200034e565b5b5090506200037b91906200037f565b5090565b5b808211156200039a57600081600090555060010162000380565b5090565b6000620003b5620003af84620004b5565b62000481565b905082815260208101848484011115620003ce57600080fd5b620003db8482856200051c565b509392505050565b600081519050620003f481620005e6565b92915050565b600082601f8301126200040c57600080fd5b81516200041e8482602086016200039e565b91505092915050565b600080604083850312156200043b57600080fd5b60006200044b85828601620003e3565b925050602083015167ffffffffffffffff8111156200046957600080fd5b6200047785828601620003fa565b9150509250929050565b6000604051905081810181811067ffffffffffffffff82111715620004ab57620004aa620005b7565b5b8060405250919050565b600067ffffffffffffffff821115620004d357620004d2620005b7565b5b601f19601f8301169050602081019050919050565b6000620004f582620004fc565b9050919050565b600073ffffffffffffffffffffffffffffffffffffffff82169050919050565b60005b838110156200053c5780820151818401526020810190506200051f565b838111156200054c576000848401525b50505050565b600060028204905060018216806200056b57607f821691505b6020821081141562000582576200058162000588565b5b50919050565b7f4e487b7100000000000000000000000000000000000000000000000000000000600052602260045260246000fd5b7f4e487b7100000000000000000000000000000000000000000000000000000000600052604160045260246000fd5b620005f181620004e8565b8114620005fd57600080fd5b50565b614c4380620006106000396000f3fe608060405234801561001057600080fd5b506004361061020d576000357c0100000000000000000000000000000000000000000000000000000000900480635a9a664f1161012c578063b88d4fde116100bf578063e0b6bb671161008e578063e0b6bb67146105bc578063e985e9c5146105c6578063e9a9c850146105f6578063f341b74b146106145761020d565b8063b88d4fde1461054a578063bf6d9abd14610566578063c87b56dd14610570578063d547741f146105a05761020d565b806395d89b41116100fb57806395d89b41146104d65780639b642de1146104f4578063a217fddf14610510578063a22cb4651461052e5761020d565b80635a9a664f1461043c5780636352211e1461044657806370a082311461047657806391d14854146104a65761020d565b80632f2ff15d116101a45780634313b9e5116101735780634313b9e5146103a457806346e482e4146103c05780634f6ccce7146103f05780634fd17c6d146104205761020d565b80632f2ff15d146103205780632f745c591461033c57806336568abe1461036c57806342842e0e146103885761020d565b806318160ddd116101e057806318160ddd146102ac5780631a9aea0a146102ca57806323b872dd146102d4578063248a9ca3146102f05761020d565b806301ffc9a71461021257806306fdde0314610242578063081812fc14610260578063095ea7b314610290575b600080fd5b61022c600480360381019061022791906136da565b610644565b6040516102399190614323565b60405180910390f35b61024a610656565b6040516102579190614359565b60405180910390f35b61027a60048036038101906102759190613771565b6106e8565b604051610287919061429a565b60405180910390f35b6102aa60048036038101906102a59190613610565b61076d565b005b6102b4610885565b6040516102c1919061467b565b60405180910390f35b6102d2610892565b005b6102ee60048036038101906102e9919061350a565b6108c6565b005b61030a60048036038101906103059190613675565b610926565b604051610317919061433e565b60405180910390f35b61033a6004803603810190610335919061369e565b610946565b005b61035660048036038101906103519190613610565b61096f565b604051610363919061467b565b60405180910390f35b6103866004803603810190610381919061369e565b610a14565b005b6103a2600480360381019061039d919061350a565b610a97565b005b6103be60048036038101906103b99190613771565b610ab7565b005b6103da60048036038101906103d5919061364c565b610c2d565b6040516103e7919061467b565b60405180910390f35b61040a60048036038101906104059190613771565b610ee2565b604051610417919061467b565b60405180910390f35b61043a6004803603810190610435919061379a565b610f79565b005b610444611164565b005b610460600480360381019061045b9190613771565b611198565b60405161046d919061429a565b60405180910390f35b610490600480360381019061048b91906134a5565b61124a565b60405161049d919061467b565b60405180910390f35b6104c060048036038101906104bb919061369e565b611302565b6040516104cd9190614323565b60405180910390f35b6104de61136d565b6040516104eb9190614359565b60405180910390f35b61050e6004803603810190610509919061372c565b6113ff565b005b61051861142c565b604051610525919061433e565b60405180910390f35b610548600480360381019061054391906135d4565b611434565b005b610564600480360381019061055f9190613559565b61144a565b005b61056e6114ac565b005b61058a60048036038101906105859190613771565b6114e0565b6040516105979190614359565b60405180910390f35b6105ba60048036038101906105b5919061369e565b611587565b005b6105c46115b0565b005b6105e060048036038101906105db91906134ce565b6115e4565b6040516105ed9190614323565b60405180910390f35b6105fe611678565b60405161060b919061433e565b60405180910390f35b61062e600480360381019061062991906134a5565b61169c565b60405161063b9190614301565b60405180910390f35b600061064f82611818565b9050919050565b606060008054610665906149ce565b80601f0160208091040260200160405190810160405280929190818152602001828054610691906149ce565b80156106de5780601f106106b3576101008083540402835291602001916106de565b820191906000526020600020905b8154815290600101906020018083116106c157829003601f168201915b5050505050905090565b60006106f382611892565b610732576040517f08c379a00000000000000000000000000000000000000000000000000000000081526004016107299061455b565b60405180910390fd5b6004600083815260200190815260200160002060009054906101000a900473ffffffffffffffffffffffffffffffffffffffff169050919050565b600061077882611198565b90508073ffffffffffffffffffffffffffffffffffffffff168373ffffffffffffffffffffffffffffffffffffffff1614156107e9576040517f08c379a00000000000000000000000000000000000000000000000000000000081526004016107e0906145bb565b60405180910390fd5b8073ffffffffffffffffffffffffffffffffffffffff166108086118fe565b73ffffffffffffffffffffffffffffffffffffffff1614806108375750610836816108316118fe565b6115e4565b5b610876576040517f08c379a000000000000000000000000000000000000000000000000000000000815260040161086d9061449b565b60405180910390fd5b6108808383611906565b505050565b6000600880549050905090565b60006001026108a8816108a36118fe565b6119bf565b6001600c60166101000a81548160ff02191690831515021790555050565b6108d76108d16118fe565b82611a5d565b610916576040517f08c379a000000000000000000000000000000000000000000000000000000000815260040161090d906145fb565b60405180910390fd5b610921838383611b3b565b505050565b6000600a6000838152602001908152602001600020600101549050919050565b61094f82610926565b6109608161095b6118fe565b6119bf565b61096a8383611d97565b505050565b600061097a8361124a565b82106109bb576040517f08c379a00000000000000000000000000000000000000000000000000000000081526004016109b2906143bb565b60405180910390fd5b600660008473ffffffffffffffffffffffffffffffffffffffff1673ffffffffffffffffffffffffffffffffffffffff168152602001908152602001600020600083815260200190815260200160002054905092915050565b610a1c6118fe565b73ffffffffffffffffffffffffffffffffffffffff168173ffffffffffffffffffffffffffffffffffffffff1614610a89576040517f08c379a0000000000000000000000000000000000000000000000000000000008152600401610a809061465b565b60405180910390fd5b610a938282611e78565b5050565b610ab28383836040518060200160405280600081525061144a565b505050565b6000600102610acd81610ac86118fe565b6119bf565b60001515600c60149054906101000a900460ff16151514610b23576040517f08c379a0000000000000000000000000000000000000000000000000000000008152600401610b1a9061463b565b60405180910390fd5b6001600c60146101000a81548160ff02191690831515021790555060005b82811015610c2857610b53600b611f5a565b6000610b5f600b611f70565b9050610b6b3382611f7e565b600c60009054906101000a900473ffffffffffffffffffffffffffffffffffffffff1673ffffffffffffffffffffffffffffffffffffffff16632b54c4c1826040518263ffffffff167c0100000000000000000000000000000000000000000000000000000000028152600401610be2919061467b565b600060405180830381600087803b158015610bfc57600080fd5b505af1158015610c10573d6000803e3d6000fd5b50505050508080610c2090614a00565b915050610b41565b505050565b60007f154c00819833dac601ee5ddded6fda79d9d8b506b911b3dbd54cdb95fe6c3686610c6181610c5c6118fe565b6119bf565b60011515600c60149054906101000a900460ff16151514610cb7576040517f08c379a0000000000000000000000000000000000000000000000000000000008152600401610cae9061439b565b60405180910390fd5b60001515600c60159054906101000a900460ff16151514610d0d576040517f08c379a0000000000000000000000000000000000000000000000000000000008152600401610d049061453b565b60405180910390fd5b610d17600b611f5a565b6000610d23600b611f70565b9050610d2f3382611f7e565b600115158415151415610dea57600c60009054906101000a900473ffffffffffffffffffffffffffffffffffffffff1673ffffffffffffffffffffffffffffffffffffffff166376c312dd826040518263ffffffff167c0100000000000000000000000000000000000000000000000000000000028152600401610db3919061467b565b600060405180830381600087803b158015610dcd57600080fd5b505af1158015610de1573d6000803e3d6000fd5b50505050610e94565b600c60009054906101000a900473ffffffffffffffffffffffffffffffffffffffff1673ffffffffffffffffffffffffffffffffffffffff1663f6e253e3826040518263ffffffff167c0100000000000000000000000000000000000000000000000000000000028152600401610e61919061467b565b600060405180830381600087803b158015610e7b57600080fd5b505af1158015610e8f573d6000803e3d6000fd5b505050505b3373ffffffffffffffffffffffffffffffffffffffff16817f52da863152d7e18ffbf279f989249d1ee34ca632b946f9c653faff86ee0ade4a60405160405180910390a38092505050919050565b6000610eec610885565b8210610f2d576040517f08c379a0000000000000000000000000000000000000000000000000000000008152600401610f249061461b565b60405180910390fd5b60088281548110610f67577f4e487b7100000000000000000000000000000000000000000000000000000000600052603260045260246000fd5b90600052602060002001549050919050565b3373ffffffffffffffffffffffffffffffffffffffff16610f9984611198565b73ffffffffffffffffffffffffffffffffffffffff1614610fef576040517f08c379a0000000000000000000000000000000000000000000000000000000008152600401610fe6906144fb565b60405180910390fd5b3373ffffffffffffffffffffffffffffffffffffffff1661100f83611198565b73ffffffffffffffffffffffffffffffffffffffff1614611065576040517f08c379a000000000000000000000000000000000000000000000000000000000815260040161105c9061447b565b60405180910390fd5b61106e82611f9c565b600c60009054906101000a900473ffffffffffffffffffffffffffffffffffffffff1673ffffffffffffffffffffffffffffffffffffffff16631093a0128484846040518463ffffffff167c01000000000000000000000000000000000000000000000000000000000281526004016110e993929190614696565b600060405180830381600087803b15801561110357600080fd5b505af1158015611117573d6000803e3d6000fd5b505050503373ffffffffffffffffffffffffffffffffffffffff16837f656148db9f7b42d4b7ab953b1dc9b571383b10640555cb126aad2db21502793460405160405180910390a3505050565b600060010261117a816111756118fe565b6119bf565b6001600c60156101000a81548160ff02191690831515021790555050565b6000806002600084815260200190815260200160002060009054906101000a900473ffffffffffffffffffffffffffffffffffffffff169050600073ffffffffffffffffffffffffffffffffffffffff168173ffffffffffffffffffffffffffffffffffffffff161415611241576040517f08c379a0000000000000000000000000000000000000000000000000000000008152600401611238906144db565b60405180910390fd5b80915050919050565b60008073ffffffffffffffffffffffffffffffffffffffff168273ffffffffffffffffffffffffffffffffffffffff1614156112bb576040517f08c379a00000000000000000000000000000000000000000000000000000000081526004016112b2906144bb565b60405180910390fd5b600360008373ffffffffffffffffffffffffffffffffffffffff1673ffffffffffffffffffffffffffffffffffffffff168152602001908152602001600020549050919050565b6000600a600084815260200190815260200160002060000160008373ffffffffffffffffffffffffffffffffffffffff1673ffffffffffffffffffffffffffffffffffffffff16815260200190815260200160002060009054906101000a900460ff16905092915050565b60606001805461137c906149ce565b80601f01602080910402602001604051908101604052809291908181526020018280546113a8906149ce565b80156113f55780601f106113ca576101008083540402835291602001916113f5565b820191906000526020600020905b8154815290600101906020018083116113d857829003601f168201915b5050505050905090565b6000600102611415816114106118fe565b6119bf565b8282600d91906114269291906132bd565b50505050565b600060010281565b61144661143f6118fe565b83836120ad565b5050565b61145b6114556118fe565b83611a5d565b61149a576040517f08c379a0000000000000000000000000000000000000000000000000000000008152600401611491906145fb565b60405180910390fd5b6114a68484848461221a565b50505050565b60006001026114c2816114bd6118fe565b6119bf565b6000600c60166101000a81548160ff02191690831515021790555050565b60606114eb82611892565b61152a576040517f08c379a00000000000000000000000000000000000000000000000000000000081526004016115219061459b565b60405180910390fd5b6000611534612276565b90506000815111611554576040518060200160405280600081525061157f565b8061155e84612308565b60405160200161156f92919061423c565b6040516020818303038152906040525b915050919050565b61159082610926565b6115a18161159c6118fe565b6119bf565b6115ab8383611e78565b505050565b60006001026115c6816115c16118fe565b6119bf565b6001600c60156101000a81548160ff02191690831515021790555050565b6000600560008473ffffffffffffffffffffffffffffffffffffffff1673ffffffffffffffffffffffffffffffffffffffff16815260200190815260200160002060008373ffffffffffffffffffffffffffffffffffffffff1673ffffffffffffffffffffffffffffffffffffffff16815260200190815260200160002060009054906101000a900460ff16905092915050565b7f154c00819833dac601ee5ddded6fda79d9d8b506b911b3dbd54cdb95fe6c368681565b606060006116a98361124a565b9050600081141561172c57600067ffffffffffffffff8111156116f5577f4e487b7100000000000000000000000000000000000000000000000000000000600052604160045260246000fd5b6040519080825280602002602001820160405280156117235781602001602082028036833780820191505090505b50915050611813565b60008167ffffffffffffffff81111561176e577f4e487b7100000000000000000000000000000000000000000000000000000000600052604160045260246000fd5b60405190808252806020026020018201604052801561179c5781602001602082028036833780820191505090505b50905060005b8281101561180c576117b4858261096f565b8282815181106117ed577f4e487b7100000000000000000000000000000000000000000000000000000000600052603260045260246000fd5b602002602001018181525050808061180490614a00565b9150506117a2565b5080925050505b919050565b60007f7965db0b000000000000000000000000000000000000000000000000000000007bffffffffffffffffffffffffffffffffffffffffffffffffffffffff1916827bffffffffffffffffffffffffffffffffffffffffffffffffffffffff1916148061188b575061188a826124d4565b5b9050919050565b60008073ffffffffffffffffffffffffffffffffffffffff166002600084815260200190815260200160002060009054906101000a900473ffffffffffffffffffffffffffffffffffffffff1673ffffffffffffffffffffffffffffffffffffffff1614159050919050565b600033905090565b816004600083815260200190815260200160002060006101000a81548173ffffffffffffffffffffffffffffffffffffffff021916908373ffffffffffffffffffffffffffffffffffffffff160217905550808273ffffffffffffffffffffffffffffffffffffffff1661197983611198565b73ffffffffffffffffffffffffffffffffffffffff167f8c5be1e5ebec7d5bd14f71427d1e84f3dd0314c0f7b2291e5b200ac8c7c3b92560405160405180910390a45050565b6119c98282611302565b611a59576119ee8173ffffffffffffffffffffffffffffffffffffffff16601461254e565b6119fd8360019004602061254e565b604051602001611a0e929190614260565b6040516020818303038152906040526040517f08c379a0000000000000000000000000000000000000000000000000000000008152600401611a509190614359565b60405180910390fd5b5050565b6000611a6882611892565b611aa7576040517f08c379a0000000000000000000000000000000000000000000000000000000008152600401611a9e9061445b565b60405180910390fd5b6000611ab283611198565b90508073ffffffffffffffffffffffffffffffffffffffff168473ffffffffffffffffffffffffffffffffffffffff161480611b2157508373ffffffffffffffffffffffffffffffffffffffff16611b09846106e8565b73ffffffffffffffffffffffffffffffffffffffff16145b80611b325750611b3181856115e4565b5b91505092915050565b8273ffffffffffffffffffffffffffffffffffffffff16611b5b82611198565b73ffffffffffffffffffffffffffffffffffffffff1614611bb1576040517f08c379a0000000000000000000000000000000000000000000000000000000008152600401611ba89061457b565b60405180910390fd5b600073ffffffffffffffffffffffffffffffffffffffff168273ffffffffffffffffffffffffffffffffffffffff161415611c21576040517f08c379a0000000000000000000000000000000000000000000000000000000008152600401611c189061441b565b60405180910390fd5b611c2c83838361286f565b611c37600082611906565b6001600360008573ffffffffffffffffffffffffffffffffffffffff1673ffffffffffffffffffffffffffffffffffffffff1681526020019081526020016000206000828254611c87919061488b565b925050819055506001600360008473ffffffffffffffffffffffffffffffffffffffff1673ffffffffffffffffffffffffffffffffffffffff1681526020019081526020016000206000828254611cde91906147aa565b92505081905550816002600083815260200190815260200160002060006101000a81548173ffffffffffffffffffffffffffffffffffffffff021916908373ffffffffffffffffffffffffffffffffffffffff160217905550808273ffffffffffffffffffffffffffffffffffffffff168473ffffffffffffffffffffffffffffffffffffffff167fddf252ad1be2c89b69c2b068fc378daa952ba7f163c4a11628f55a4df523b3ef60405160405180910390a4505050565b611da18282611302565b611e74576001600a600084815260200190815260200160002060000160008373ffffffffffffffffffffffffffffffffffffffff1673ffffffffffffffffffffffffffffffffffffffff16815260200190815260200160002060006101000a81548160ff021916908315150217905550611e196118fe565b73ffffffffffffffffffffffffffffffffffffffff168173ffffffffffffffffffffffffffffffffffffffff16837f2f8788117e7eff1d82e926ec794901d17c78024a50270940304540a733656f0d60405160405180910390a45b5050565b611e828282611302565b15611f56576000600a600084815260200190815260200160002060000160008373ffffffffffffffffffffffffffffffffffffffff1673ffffffffffffffffffffffffffffffffffffffff16815260200190815260200160002060006101000a81548160ff021916908315150217905550611efb6118fe565b73ffffffffffffffffffffffffffffffffffffffff168173ffffffffffffffffffffffffffffffffffffffff16837ff6391f5c32d9c69d2a47ea670b442974b53935d1edc7fd64eb21e047a839171b60405160405180910390a45b5050565b6001816000016000828254019250508190555050565b600081600001549050919050565b611f988282604051806020016040528060008152506128d5565b5050565b6000611fa782611198565b9050611fb58160008461286f565b611fc0600083611906565b6001600360008373ffffffffffffffffffffffffffffffffffffffff1673ffffffffffffffffffffffffffffffffffffffff1681526020019081526020016000206000828254612010919061488b565b925050819055506002600083815260200190815260200160002060006101000a81549073ffffffffffffffffffffffffffffffffffffffff021916905581600073ffffffffffffffffffffffffffffffffffffffff168273ffffffffffffffffffffffffffffffffffffffff167fddf252ad1be2c89b69c2b068fc378daa952ba7f163c4a11628f55a4df523b3ef60405160405180910390a45050565b8173ffffffffffffffffffffffffffffffffffffffff168373ffffffffffffffffffffffffffffffffffffffff16141561211c576040517f08c379a00000000000000000000000000000000000000000000000000000000081526004016121139061443b565b60405180910390fd5b80600560008573ffffffffffffffffffffffffffffffffffffffff1673ffffffffffffffffffffffffffffffffffffffff16815260200190815260200160002060008473ffffffffffffffffffffffffffffffffffffffff1673ffffffffffffffffffffffffffffffffffffffff16815260200190815260200160002060006101000a81548160ff0219169083151502179055508173ffffffffffffffffffffffffffffffffffffffff168373ffffffffffffffffffffffffffffffffffffffff167f17307eab39ab6107e8899845ad3d59bd9653f200f220920489ca2b5937696c318360405161220d9190614323565b60405180910390a3505050565b612225848484611b3b565b61223184848484612930565b612270576040517f08c379a0000000000000000000000000000000000000000000000000000000008152600401612267906143db565b60405180910390fd5b50505050565b6060600d8054612285906149ce565b80601f01602080910402602001604051908101604052809291908181526020018280546122b1906149ce565b80156122fe5780601f106122d3576101008083540402835291602001916122fe565b820191906000526020600020905b8154815290600101906020018083116122e157829003601f168201915b5050505050905090565b60606000821415612350576040518060400160405280600181526020017f300000000000000000000000000000000000000000000000000000000000000081525090506124cf565b600082905060005b6000821461238257808061236b90614a00565b915050600a8261237b9190614800565b9150612358565b60008167ffffffffffffffff8111156123c4577f4e487b7100000000000000000000000000000000000000000000000000000000600052604160045260246000fd5b6040519080825280601f01601f1916602001820160405280156123f65781602001600182028036833780820191505090505b5090505b600085146124c85760018261240f919061488b565b9150600a8561241e9190614a49565b603061242a91906147aa565b7f010000000000000000000000000000000000000000000000000000000000000002818381518110612485577f4e487b7100000000000000000000000000000000000000000000000000000000600052603260045260246000fd5b60200101907effffffffffffffffffffffffffffffffffffffffffffffffffffffffffffff1916908160001a905350600a856124c19190614800565b94506123fa565b8093505050505b919050565b60007f780e9d63000000000000000000000000000000000000000000000000000000007bffffffffffffffffffffffffffffffffffffffffffffffffffffffff1916827bffffffffffffffffffffffffffffffffffffffffffffffffffffffff19161480612547575061254682612aff565b5b9050919050565b6060600060028360026125619190614831565b61256b91906147aa565b67ffffffffffffffff8111156125aa577f4e487b7100000000000000000000000000000000000000000000000000000000600052604160045260246000fd5b6040519080825280601f01601f1916602001820160405280156125dc5781602001600182028036833780820191505090505b5090507f30000000000000000000000000000000000000000000000000000000000000008160008151811061263a577f4e487b7100000000000000000000000000000000000000000000000000000000600052603260045260246000fd5b60200101907effffffffffffffffffffffffffffffffffffffffffffffffffffffffffffff1916908160001a9053507f7800000000000000000000000000000000000000000000000000000000000000816001815181106126c4577f4e487b7100000000000000000000000000000000000000000000000000000000600052603260045260246000fd5b60200101907effffffffffffffffffffffffffffffffffffffffffffffffffffffffffffff1916908160001a905350600060018460026127049190614831565b61270e91906147aa565b90505b6001811115612821577f3031323334353637383961626364656600000000000000000000000000000000600f861660108110612776577f4e487b7100000000000000000000000000000000000000000000000000000000600052603260045260246000fd5b1a7f0100000000000000000000000000000000000000000000000000000000000000028282815181106127d2577f4e487b7100000000000000000000000000000000000000000000000000000000600052603260045260246000fd5b60200101907effffffffffffffffffffffffffffffffffffffffffffffffffffffffffffff1916908160001a905350600485908060020a820491505094508061281a906149a4565b9050612711565b5060008414612865576040517f08c379a000000000000000000000000000000000000000000000000000000000815260040161285c9061437b565b60405180910390fd5b8091505092915050565b60001515600c60169054906101000a900460ff161515146128c5576040517f08c379a00000000000000000000000000000000000000000000000000000000081526004016128bc906145db565b60405180910390fd5b6128d0838383612be1565b505050565b6128df8383612cf5565b6128ec6000848484612930565b61292b576040517f08c379a0000000000000000000000000000000000000000000000000000000008152600401612922906143db565b60405180910390fd5b505050565b60006129518473ffffffffffffffffffffffffffffffffffffffff16612ec3565b15612af2578373ffffffffffffffffffffffffffffffffffffffff1663150b7a0261297a6118fe565b8786866040518563ffffffff167c01000000000000000000000000000000000000000000000000000000000281526004016129b894939291906142b5565b602060405180830381600087803b1580156129d257600080fd5b505af1925050508015612a0357506040513d601f19601f82011682018060405250810190612a009190613703565b60015b612a86573d8060008114612a33576040519150601f19603f3d011682016040523d82523d6000602084013e612a38565b606091505b50600081511415612a7e576040517f08c379a0000000000000000000000000000000000000000000000000000000008152600401612a75906143db565b60405180910390fd5b805181602001fd5b63150b7a027c0100000000000000000000000000000000000000000000000000000000027bffffffffffffffffffffffffffffffffffffffffffffffffffffffff1916817bffffffffffffffffffffffffffffffffffffffffffffffffffffffff191614915050612af7565b600190505b949350505050565b60007f80ac58cd000000000000000000000000000000000000000000000000000000007bffffffffffffffffffffffffffffffffffffffffffffffffffffffff1916827bffffffffffffffffffffffffffffffffffffffffffffffffffffffff19161480612bca57507f5b5e139f000000000000000000000000000000000000000000000000000000007bffffffffffffffffffffffffffffffffffffffffffffffffffffffff1916827bffffffffffffffffffffffffffffffffffffffffffffffffffffffff1916145b80612bda5750612bd982612ed6565b5b9050919050565b612bec838383612f40565b600073ffffffffffffffffffffffffffffffffffffffff168373ffffffffffffffffffffffffffffffffffffffff161415612c2f57612c2a81612f45565b612c6e565b8173ffffffffffffffffffffffffffffffffffffffff168373ffffffffffffffffffffffffffffffffffffffff1614612c6d57612c6c8382612f8e565b5b5b600073ffffffffffffffffffffffffffffffffffffffff168273ffffffffffffffffffffffffffffffffffffffff161415612cb157612cac816130fb565b612cf0565b8273ffffffffffffffffffffffffffffffffffffffff168273ffffffffffffffffffffffffffffffffffffffff1614612cef57612cee828261323e565b5b5b505050565b600073ffffffffffffffffffffffffffffffffffffffff168273ffffffffffffffffffffffffffffffffffffffff161415612d65576040517f08c379a0000000000000000000000000000000000000000000000000000000008152600401612d5c9061451b565b60405180910390fd5b612d6e81611892565b15612dae576040517f08c379a0000000000000000000000000000000000000000000000000000000008152600401612da5906143fb565b60405180910390fd5b612dba6000838361286f565b6001600360008473ffffffffffffffffffffffffffffffffffffffff1673ffffffffffffffffffffffffffffffffffffffff1681526020019081526020016000206000828254612e0a91906147aa565b92505081905550816002600083815260200190815260200160002060006101000a81548173ffffffffffffffffffffffffffffffffffffffff021916908373ffffffffffffffffffffffffffffffffffffffff160217905550808273ffffffffffffffffffffffffffffffffffffffff16600073ffffffffffffffffffffffffffffffffffffffff167fddf252ad1be2c89b69c2b068fc378daa952ba7f163c4a11628f55a4df523b3ef60405160405180910390a45050565b600080823b905060008111915050919050565b60007f01ffc9a7000000000000000000000000000000000000000000000000000000007bffffffffffffffffffffffffffffffffffffffffffffffffffffffff1916827bffffffffffffffffffffffffffffffffffffffffffffffffffffffff1916149050919050565b505050565b6008805490506009600083815260200190815260200160002081905550600881908060018154018082558091505060019003906000526020600020016000909190919091505550565b60006001612f9b8461124a565b612fa5919061488b565b905060006007600084815260200190815260200160002054905081811461308a576000600660008673ffffffffffffffffffffffffffffffffffffffff1673ffffffffffffffffffffffffffffffffffffffff168152602001908152602001600020600084815260200190815260200160002054905080600660008773ffffffffffffffffffffffffffffffffffffffff1673ffffffffffffffffffffffffffffffffffffffff168152602001908152602001600020600084815260200190815260200160002081905550816007600083815260200190815260200160002081905550505b6007600084815260200190815260200160002060009055600660008573ffffffffffffffffffffffffffffffffffffffff1673ffffffffffffffffffffffffffffffffffffffff16815260200190815260200160002060008381526020019081526020016000206000905550505050565b6000600160088054905061310f919061488b565b9050600060096000848152602001908152602001600020549050600060088381548110613165577f4e487b7100000000000000000000000000000000000000000000000000000000600052603260045260246000fd5b9060005260206000200154905080600883815481106131ad577f4e487b7100000000000000000000000000000000000000000000000000000000600052603260045260246000fd5b906000526020600020018190555081600960008381526020019081526020016000208190555060096000858152602001908152602001600020600090556008805480613222577f4e487b7100000000000000000000000000000000000000000000000000000000600052603160045260246000fd5b6001900381819060005260206000200160009055905550505050565b60006132498361124a565b905081600660008573ffffffffffffffffffffffffffffffffffffffff1673ffffffffffffffffffffffffffffffffffffffff168152602001908152602001600020600083815260200190815260200160002081905550806007600084815260200190815260200160002081905550505050565b8280546132c9906149ce565b90600052602060002090601f0160209004810192826132eb5760008555613332565b82601f1061330457803560ff1916838001178555613332565b82800160010185558215613332579182015b82811115613331578235825591602001919060010190613316565b5b50905061333f9190613343565b5090565b5b8082111561335c576000816000905550600101613344565b5090565b600061337361336e846146fe565b6146cd565b90508281526020810184848401111561338b57600080fd5b613396848285614962565b509392505050565b6000813590506133ad81614b8a565b92915050565b6000813590506133c281614ba1565b92915050565b6000813590506133d781614bb8565b92915050565b6000813590506133ec81614bcf565b92915050565b60008151905061340181614bcf565b92915050565b600082601f83011261341857600080fd5b8135613428848260208601613360565b91505092915050565b60008135905061344081614be6565b92915050565b60008083601f84011261345857600080fd5b8235905067ffffffffffffffff81111561347157600080fd5b60208301915083600182028301111561348957600080fd5b9250929050565b60008135905061349f81614bf6565b92915050565b6000602082840312156134b757600080fd5b60006134c58482850161339e565b91505092915050565b600080604083850312156134e157600080fd5b60006134ef8582860161339e565b92505060206135008582860161339e565b9150509250929050565b60008060006060848603121561351f57600080fd5b600061352d8682870161339e565b935050602061353e8682870161339e565b925050604061354f86828701613490565b9150509250925092565b6000806000806080858703121561356f57600080fd5b600061357d8782880161339e565b945050602061358e8782880161339e565b935050604061359f87828801613490565b925050606085013567ffffffffffffffff8111156135bc57600080fd5b6135c887828801613407565b91505092959194509250565b600080604083850312156135e757600080fd5b60006135f58582860161339e565b9250506020613606858286016133b3565b9150509250929050565b6000806040838503121561362357600080fd5b60006136318582860161339e565b925050602061364285828601613490565b9150509250929050565b60006020828403121561365e57600080fd5b600061366c848285016133b3565b91505092915050565b60006020828403121561368757600080fd5b6000613695848285016133c8565b91505092915050565b600080604083850312156136b157600080fd5b60006136bf858286016133c8565b92505060206136d08582860161339e565b9150509250929050565b6000602082840312156136ec57600080fd5b60006136fa848285016133dd565b91505092915050565b60006020828403121561371557600080fd5b6000613723848285016133f2565b91505092915050565b6000806020838503121561373f57600080fd5b600083013567ffffffffffffffff81111561375957600080fd5b61376585828601613446565b92509250509250929050565b60006020828403121561378357600080fd5b600061379184828501613490565b91505092915050565b6000806000606084860312156137af57600080fd5b60006137bd86828701613490565b93505060206137ce86828701613490565b92505060406137df86828701613431565b9150509250925092565b60006137f5838361421e565b60208301905092915050565b61380a816148bf565b82525050565b600061381b8261473e565b613825818561476c565b93506138308361472e565b8060005b8381101561386157815161384888826137e9565b97506138538361475f565b925050600181019050613834565b5085935050505092915050565b613877816148d1565b82525050565b613886816148dd565b82525050565b600061389782614749565b6138a1818561477d565b93506138b1818560208601614971565b6138ba81614b65565b840191505092915050565b6138ce81614950565b82525050565b60006138df82614754565b6138e9818561478e565b93506138f9818560208601614971565b61390281614b65565b840191505092915050565b600061391882614754565b613922818561479f565b9350613932818560208601614971565b80840191505092915050565b600061394b60208361478e565b91507f537472696e67733a20686578206c656e67746820696e73756666696369656e746000830152602082019050919050565b600061398b601a8361478e565b91507f6d696e74206973206e6f7420617661696c61626c65207965742e0000000000006000830152602082019050919050565b60006139cb602b8361478e565b91507f455243373231456e756d657261626c653a206f776e657220696e646578206f7560008301527f74206f6620626f756e64730000000000000000000000000000000000000000006020830152604082019050919050565b6000613a3160328361478e565b91507f4552433732313a207472616e7366657220746f206e6f6e20455243373231526560008301527f63656976657220696d706c656d656e74657200000000000000000000000000006020830152604082019050919050565b6000613a97601c8361478e565b91507f4552433732313a20746f6b656e20616c7265616479206d696e746564000000006000830152602082019050919050565b6000613ad760248361478e565b91507f4552433732313a207472616e7366657220746f20746865207a65726f2061646460008301527f72657373000000000000000000000000000000000000000000000000000000006020830152604082019050919050565b6000613b3d60198361478e565b91507f4552433732313a20617070726f766520746f2063616c6c6572000000000000006000830152602082019050919050565b6000613b7d602c8361478e565b91507f4552433732313a206f70657261746f7220717565727920666f72206e6f6e657860008301527f697374656e7420746f6b656e00000000000000000000000000000000000000006020830152604082019050919050565b6000613be360298361478e565b91507f796f7520646f206e6f742068617665206f776e657273686970206f6e2074686960008301527f73207461726765742e00000000000000000000000000000000000000000000006020830152604082019050919050565b6000613c4960388361478e565b91507f4552433732313a20617070726f76652063616c6c6572206973206e6f74206f7760008301527f6e6572206e6f7220617070726f76656420666f7220616c6c00000000000000006020830152604082019050919050565b6000613caf602a8361478e565b91507f4552433732313a2062616c616e636520717565727920666f7220746865207a6560008301527f726f2061646472657373000000000000000000000000000000000000000000006020830152604082019050919050565b6000613d1560298361478e565b91507f4552433732313a206f776e657220717565727920666f72206e6f6e657869737460008301527f656e7420746f6b656e00000000000000000000000000000000000000000000006020830152604082019050919050565b6000613d7b60288361478e565b91507f796f7520646f206e6f742068617665206f776e657273686970206f6e2074686960008301527f73204e6f6b61692e0000000000000000000000000000000000000000000000006020830152604082019050919050565b6000613de160208361478e565b91507f4552433732313a206d696e7420746f20746865207a65726f20616464726573736000830152602082019050919050565b6000613e2160158361478e565b91507f6d696e7420686173206265656e206c6f636b65642e00000000000000000000006000830152602082019050919050565b6000613e61602c8361478e565b91507f4552433732313a20617070726f76656420717565727920666f72206e6f6e657860008301527f697374656e7420746f6b656e00000000000000000000000000000000000000006020830152604082019050919050565b6000613ec760298361478e565b91507f4552433732313a207472616e73666572206f6620746f6b656e2074686174206960008301527f73206e6f74206f776e00000000000000000000000000000000000000000000006020830152604082019050919050565b6000613f2d602f8361478e565b91507f4552433732314d657461646174613a2055524920717565727920666f72206e6f60008301527f6e6578697374656e7420746f6b656e00000000000000000000000000000000006020830152604082019050919050565b6000613f9360218361478e565b91507f4552433732313a20617070726f76616c20746f2063757272656e74206f776e6560008301527f72000000000000000000000000000000000000000000000000000000000000006020830152604082019050919050565b6000613ff960198361478e565b91507f7472616e7366657220686173206265656e206c6f636b65642e000000000000006000830152602082019050919050565b600061403960318361478e565b91507f4552433732313a207472616e736665722063616c6c6572206973206e6f74206f60008301527f776e6572206e6f7220617070726f7665640000000000000000000000000000006020830152604082019050919050565b600061409f602c8361478e565b91507f455243373231456e756d657261626c653a20676c6f62616c20696e646578206f60008301527f7574206f6620626f756e647300000000000000000000000000000000000000006020830152604082019050919050565b600061410560188361478e565b91507f736574757020616c726561647920636f6d706c657465642e00000000000000006000830152602082019050919050565b600061414560178361479f565b91507f416363657373436f6e74726f6c3a206163636f756e74200000000000000000006000830152601782019050919050565b600061418560118361479f565b91507f206973206d697373696e6720726f6c65200000000000000000000000000000006000830152601182019050919050565b60006141c5602f8361478e565b91507f416363657373436f6e74726f6c3a2063616e206f6e6c792072656e6f756e636560008301527f20726f6c657320666f722073656c6600000000000000000000000000000000006020830152604082019050919050565b61422781614946565b82525050565b61423681614946565b82525050565b6000614248828561390d565b9150614254828461390d565b91508190509392505050565b600061426b82614138565b9150614277828561390d565b915061428282614178565b915061428e828461390d565b91508190509392505050565b60006020820190506142af6000830184613801565b92915050565b60006080820190506142ca6000830187613801565b6142d76020830186613801565b6142e4604083018561422d565b81810360608301526142f6818461388c565b905095945050505050565b6000602082019050818103600083015261431b8184613810565b905092915050565b6000602082019050614338600083018461386e565b92915050565b6000602082019050614353600083018461387d565b92915050565b6000602082019050818103600083015261437381846138d4565b905092915050565b600060208201905081810360008301526143948161393e565b9050919050565b600060208201905081810360008301526143b48161397e565b9050919050565b600060208201905081810360008301526143d4816139be565b9050919050565b600060208201905081810360008301526143f481613a24565b9050919050565b6000602082019050818103600083015261441481613a8a565b9050919050565b6000602082019050818103600083015261443481613aca565b9050919050565b6000602082019050818103600083015261445481613b30565b9050919050565b6000602082019050818103600083015261447481613b70565b9050919050565b6000602082019050818103600083015261449481613bd6565b9050919050565b600060208201905081810360008301526144b481613c3c565b9050919050565b600060208201905081810360008301526144d481613ca2565b9050919050565b600060208201905081810360008301526144f481613d08565b9050919050565b6000602082019050818103600083015261451481613d6e565b9050919050565b6000602082019050818103600083015261453481613dd4565b9050919050565b6000602082019050818103600083015261455481613e14565b9050919050565b6000602082019050818103600083015261457481613e54565b9050919050565b6000602082019050818103600083015261459481613eba565b9050919050565b600060208201905081810360008301526145b481613f20565b9050919050565b600060208201905081810360008301526145d481613f86565b9050919050565b600060208201905081810360008301526145f481613fec565b9050919050565b600060208201905081810360008301526146148161402c565b9050919050565b6000602082019050818103600083015261463481614092565b9050919050565b60006020820190508181036000830152614654816140f8565b9050919050565b60006020820190508181036000830152614674816141b8565b9050919050565b6000602082019050614690600083018461422d565b92915050565b60006060820190506146ab600083018661422d565b6146b8602083018561422d565b6146c560408301846138c5565b949350505050565b6000604051905081810181811067ffffffffffffffff821117156146f4576146f3614b36565b5b8060405250919050565b600067ffffffffffffffff82111561471957614718614b36565b5b601f19601f8301169050602081019050919050565b6000819050602082019050919050565b600081519050919050565b600081519050919050565b600081519050919050565b6000602082019050919050565b600082825260208201905092915050565b600082825260208201905092915050565b600082825260208201905092915050565b600081905092915050565b60006147b582614946565b91506147c083614946565b9250827fffffffffffffffffffffffffffffffffffffffffffffffffffffffffffffffff038211156147f5576147f4614a7a565b5b828201905092915050565b600061480b82614946565b915061481683614946565b92508261482657614825614aa9565b5b828204905092915050565b600061483c82614946565b915061484783614946565b9250817fffffffffffffffffffffffffffffffffffffffffffffffffffffffffffffffff04831182151516156148805761487f614a7a565b5b828202905092915050565b600061489682614946565b91506148a183614946565b9250828210156148b4576148b3614a7a565b5b828203905092915050565b60006148ca82614926565b9050919050565b60008115159050919050565b6000819050919050565b60007fffffffff0000000000000000000000000000000000000000000000000000000082169050919050565b600081905061492182614b76565b919050565b600073ffffffffffffffffffffffffffffffffffffffff82169050919050565b6000819050919050565b600061495b82614913565b9050919050565b82818337600083830152505050565b60005b8381101561498f578082015181840152602081019050614974565b8381111561499e576000848401525b50505050565b60006149af82614946565b915060008214156149c3576149c2614a7a565b5b600182039050919050565b600060028204905060018216806149e657607f821691505b602082108114156149fa576149f9614b07565b5b50919050565b6000614a0b82614946565b91507fffffffffffffffffffffffffffffffffffffffffffffffffffffffffffffffff821415614a3e57614a3d614a7a565b5b600182019050919050565b6000614a5482614946565b9150614a5f83614946565b925082614a6f57614a6e614aa9565b5b828206905092915050565b7f4e487b7100000000000000000000000000000000000000000000000000000000600052601160045260246000fd5b7f4e487b7100000000000000000000000000000000000000000000000000000000600052601260045260246000fd5b7f4e487b7100000000000000000000000000000000000000000000000000000000600052602160045260246000fd5b7f4e487b7100000000000000000000000000000000000000000000000000000000600052602260045260246000fd5b7f4e487b7100000000000000000000000000000000000000000000000000000000600052604160045260246000fd5b6000601f19601f8301169050919050565b60058110614b8757614b86614ad8565b5b50565b614b93816148bf565b8114614b9e57600080fd5b50565b614baa816148d1565b8114614bb557600080fd5b50565b614bc1816148dd565b8114614bcc57600080fd5b50565b614bd8816148e7565b8114614be357600080fd5b50565b60058110614bf357600080fd5b50565b614bff81614946565b8114614c0a57600080fd5b5056fea2646970667358221220e1e65ab2ed4f2490e05f6d6d7db3e07acf31ff007184bae5e95118e9717c964264736f6c63430008000033",
  "immutableReferences": {},
  "source": "pragma solidity ^0.8.0;\r\npragma experimental ABIEncoderV2;\r\n\r\nimport \"@openzeppelin/contracts/access/AccessControl.sol\";\r\nimport \"@openzeppelin/contracts/token/ERC721/extensions/ERC721Enumerable.sol\";\r\nimport \"@openzeppelin/contracts/utils/Counters.sol\";\r\nimport \"./NokaiStats.sol\";\r\n\r\n// SPDX-License-Identifier: MIT\r\ncontract Nokai is ERC721Enumerable, AccessControl {\r\n    bytes32 public constant MINT_ROLE = keccak256(\"MINT_ROLE\");\r\n\r\n    using Counters for Counters.Counter;\r\n    Counters.Counter private _tokenIds;\r\n\r\n    NokaiStats private _nokaiStats;\r\n\r\n    bool isSetup;\r\n    bool mintLocked;\r\n    bool transferLocked;\r\n    string uri;\r\n\r\n    constructor(address nokaiStats, string memory baseUri) ERC721(\"Nokai\", \"KAI\") {\r\n        _nokaiStats = NokaiStats(nokaiStats);\r\n        _setupRole(DEFAULT_ADMIN_ROLE, msg.sender);\r\n        uri = baseUri;\r\n    }\r\n\r\n    function supportsInterface(bytes4 interfaceId) public view virtual override(ERC721Enumerable, AccessControl) returns (bool) {\r\n        return super.supportsInterface(interfaceId);\r\n    }\r\n\r\n    function generateNokai(bool isRare) external onlyRole(MINT_ROLE) returns (uint256) {\r\n        require(isSetup == true, \"mint is not available yet.\");\r\n        require(mintLocked == false, \"mint has been locked.\");\r\n        _tokenIds.increment();\r\n\r\n        uint256 _newNokaiId = _tokenIds.current();\r\n        _safeMint(msg.sender, _newNokaiId);\r\n\r\n        if (isRare == true) {\r\n            _nokaiStats.generateHighNokai(_newNokaiId);\r\n        } else {\r\n            _nokaiStats.generateNokai(_newNokaiId);\r\n        }\r\n        emit NokaiBorn(_newNokaiId, msg.sender);\r\n        return _newNokaiId;\r\n    }\r\n\r\n    function listFor(address owner) external view returns (uint256[] memory) {\r\n        uint256 total = balanceOf(owner);\r\n        if (total == 0) {\r\n            return new uint256[](0);\r\n        } else {\r\n            uint256[] memory result = new uint256[](total);\r\n\r\n            for (uint256 i = 0; i < total; i++) {\r\n                result[i] = tokenOfOwnerByIndex(owner, i);\r\n            }\r\n            return result;\r\n        }\r\n    }\r\n\r\n    function absorb(uint256 nokaiId, uint256 targetId, NokaiStats.StatType upgradeChoice) external {\r\n        require(ownerOf(nokaiId) == msg.sender, \"you do not have ownership on this Nokai.\");\r\n        require(ownerOf(targetId) == msg.sender, \"you do not have ownership on this target.\");\r\n\r\n        _burn(targetId);\r\n\r\n        _nokaiStats.upgradeFromNokaiBurn(nokaiId, targetId, upgradeChoice);\r\n\r\n        emit NokaiUpgraded(nokaiId, msg.sender);\r\n    }\r\n\r\n    function setup(uint256 nbGods) external onlyRole(DEFAULT_ADMIN_ROLE) {\r\n        require(isSetup == false, \"setup already completed.\");\r\n\r\n        isSetup = true;\r\n        for (uint256 i = 0; i < nbGods; i++) {\r\n            _tokenIds.increment();\r\n            uint256 _newNokaiId = _tokenIds.current();\r\n            _safeMint(msg.sender, _newNokaiId);\r\n            _nokaiStats.generateGodNokai(_newNokaiId);\r\n        }\r\n    }\r\n\r\n    function lockMint() external onlyRole(DEFAULT_ADMIN_ROLE) {\r\n        mintLocked = true;\r\n    }\r\n\r\n    function unlockMint() external onlyRole(DEFAULT_ADMIN_ROLE) {\r\n        mintLocked = true;\r\n    }\r\n\r\n    function lockTransfer() external onlyRole(DEFAULT_ADMIN_ROLE) {\r\n        transferLocked = true;\r\n    }\r\n\r\n    function unlockTransfer() external onlyRole(DEFAULT_ADMIN_ROLE) {\r\n        transferLocked = false;\r\n    }\r\n\r\n    function setUri(string calldata baseUri) external onlyRole(DEFAULT_ADMIN_ROLE) {\r\n        uri = baseUri;\r\n    }\r\n\r\n    function _baseURI() internal view override returns (string memory) {\r\n        return uri;\r\n    }\r\n\r\n    function _beforeTokenTransfer(\r\n        address from,\r\n        address to,\r\n        uint256 tokenId\r\n    ) internal virtual override {\r\n        require(transferLocked == false, \"transfer has been locked.\");\r\n        super._beforeTokenTransfer(from, to, tokenId);\r\n    }\r\n\r\n    event NokaiBorn(uint256 indexed nokaiId, address indexed owner);\r\n    event NokaiUpgraded(uint256 indexed nokaiId, address indexed owner);\r\n}",
  "sourcePath": "C:\\Users\\KevinGeorgesAndres\\Documents\\projects\\perso\\blackhole-evm\\contracts\\character\\Nokai.sol",
  "compiler": {
    "name": "solc",
    "version": "0.8.0+commit.c7dfd78e.Emscripten.clang"
  },
  "schemaVersion": "3.4.3",
  "updatedAt": "2021-12-13T06:35:22.428Z",
  "networkType": "ethereum",
  "devdoc": {
    "kind": "dev",
    "methods": {
      "approve(address,uint256)": {
        "details": "See {IERC721-approve}."
      },
      "balanceOf(address)": {
        "details": "See {IERC721-balanceOf}."
      },
      "getApproved(uint256)": {
        "details": "See {IERC721-getApproved}."
      },
      "getRoleAdmin(bytes32)": {
        "details": "Returns the admin role that controls `role`. See {grantRole} and {revokeRole}. To change a role's admin, use {_setRoleAdmin}."
      },
      "grantRole(bytes32,address)": {
        "details": "Grants `role` to `account`. If `account` had not been already granted `role`, emits a {RoleGranted} event. Requirements: - the caller must have ``role``'s admin role."
      },
      "hasRole(bytes32,address)": {
        "details": "Returns `true` if `account` has been granted `role`."
      },
      "isApprovedForAll(address,address)": {
        "details": "See {IERC721-isApprovedForAll}."
      },
      "name()": {
        "details": "See {IERC721Metadata-name}."
      },
      "ownerOf(uint256)": {
        "details": "See {IERC721-ownerOf}."
      },
      "renounceRole(bytes32,address)": {
        "details": "Revokes `role` from the calling account. Roles are often managed via {grantRole} and {revokeRole}: this function's purpose is to provide a mechanism for accounts to lose their privileges if they are compromised (such as when a trusted device is misplaced). If the calling account had been revoked `role`, emits a {RoleRevoked} event. Requirements: - the caller must be `account`."
      },
      "revokeRole(bytes32,address)": {
        "details": "Revokes `role` from `account`. If `account` had been granted `role`, emits a {RoleRevoked} event. Requirements: - the caller must have ``role``'s admin role."
      },
      "safeTransferFrom(address,address,uint256)": {
        "details": "See {IERC721-safeTransferFrom}."
      },
      "safeTransferFrom(address,address,uint256,bytes)": {
        "details": "See {IERC721-safeTransferFrom}."
      },
      "setApprovalForAll(address,bool)": {
        "details": "See {IERC721-setApprovalForAll}."
      },
      "symbol()": {
        "details": "See {IERC721Metadata-symbol}."
      },
      "tokenByIndex(uint256)": {
        "details": "See {IERC721Enumerable-tokenByIndex}."
      },
      "tokenOfOwnerByIndex(address,uint256)": {
        "details": "See {IERC721Enumerable-tokenOfOwnerByIndex}."
      },
      "tokenURI(uint256)": {
        "details": "See {IERC721Metadata-tokenURI}."
      },
      "totalSupply()": {
        "details": "See {IERC721Enumerable-totalSupply}."
      },
      "transferFrom(address,address,uint256)": {
        "details": "See {IERC721-transferFrom}."
      }
    },
    "version": 1
  },
  "userdoc": {
    "kind": "user",
    "methods": {},
    "version": 1
  }
}