{
  "contractName": "NokaiTechnique",
  "abi": [
    {
      "inputs": [
        {
          "internalType": "uint256",
          "name": "_newNokaiId",
          "type": "uint256"
        }
      ],
      "name": "get",
      "outputs": [
        {
          "internalType": "enum NokaiTechnique.Technique",
          "name": "",
          "type": "uint8"
        }
      ],
      "stateMutability": "view",
      "type": "function",
      "constant": true
    }
  ],
  "bytecode": "0x608060405234801561001057600080fd5b50610364806100206000396000f3fe608060405234801561001057600080fd5b5060043610610048576000357c0100000000000000000000000000000000000000000000000000000000900480639507d39a1461004d575b600080fd5b6100676004803603810190610062919061010e565b61007d565b60405161007491906101b1565b60405180910390f35b6000600a42338460405160200161009693929190610174565b60405160208183030381529060405280519060200120600190046100ba919061025b565b60098111156100f2577f4e487b7100000000000000000000000000000000000000000000000000000000600052602160045260246000fd5b9050919050565b60008135905061010881610317565b92915050565b60006020828403121561012057600080fd5b600061012e848285016100f9565b91505092915050565b610148610143826101cc565b61022d565b82525050565b6101578161021b565b82525050565b61016e61016982610211565b610251565b82525050565b6000610180828661015d565b6020820191506101908285610137565b6014820191506101a0828461015d565b602082019150819050949350505050565b60006020820190506101c6600083018461014e565b92915050565b60006101d7826101f1565b9050919050565b60008190506101ec82610303565b919050565b600073ffffffffffffffffffffffffffffffffffffffff82169050919050565b6000819050919050565b6000610226826101de565b9050919050565b60006102388261023f565b9050919050565b600061024a826102ea565b9050919050565b6000819050919050565b600061026682610211565b915061027183610211565b9250826102815761028061028c565b5b828206905092915050565b7f4e487b7100000000000000000000000000000000000000000000000000000000600052601260045260246000fd5b7f4e487b7100000000000000000000000000000000000000000000000000000000600052602160045260246000fd5b60006c0100000000000000000000000082029050919050565b600a8110610314576103136102bb565b5b50565b61032081610211565b811461032b57600080fd5b5056fea2646970667358221220efc29d271121e9a4c19365023c8ca3e9a9800cddfb9dcb26914f114f25ab53b664736f6c63430008000033",
  "immutableReferences": {},
  "source": "pragma solidity ^0.8.0;\r\n\r\n// SPDX-License-Identifier: MIT\r\ncontract NokaiTechnique {\r\n\r\n    enum Technique {\r\n        SPECIALIST, // hit twice at 75%\r\n        GUARDIAN, // block 40% dmg after defense\r\n        GLUTTON, // steal 30% opponent's attack stat\r\n        BUFFOON, // reduce opponent's attack and defence by 20%\r\n        DESTROYER, // break 50% opponent's defense\r\n        FOOL, // cancel opponent's passives\r\n        DEADLY, // critical hit - deal +40% dmg\r\n        AUTHORITY, // survive with 1hp if killed by lower class Nokai\r\n        REVENGER, // hit twice at 100% on death\r\n        MIMIC // copy opponent technique\r\n    }\r\n\r\n    function get(uint256 _newNokaiId) external view returns (Technique) {\r\n        return Technique(uint(keccak256(abi.encodePacked(block.timestamp, msg.sender, _newNokaiId))) % 10);\r\n    }\r\n}\r\n",
  "sourcePath": "C:\\Users\\10404\\Documents\\projects\\blackhole-evm\\contracts\\character\\NokaiTechnique.sol",
  "compiler": {
    "name": "solc",
    "version": "0.8.0+commit.c7dfd78e.Emscripten.clang"
  },
  "schemaVersion": "3.4.3",
  "updatedAt": "2021-12-19T20:17:45.359Z",
  "networkType": "ethereum",
  "devdoc": {
    "kind": "dev",
    "methods": {},
    "version": 1
  },
  "userdoc": {
    "kind": "user",
    "methods": {},
    "version": 1
  }
}