{
  "contractName": "NokaiGacha",
  "abi": [
    {
      "inputs": [
        {
          "internalType": "address",
          "name": "nokai",
          "type": "address"
        },
        {
          "internalType": "address",
          "name": "holyCore",
          "type": "address"
        },
        {
          "internalType": "address",
          "name": "legendaryCore",
          "type": "address"
        }
      ],
      "stateMutability": "nonpayable",
      "type": "constructor"
    },
    {
      "anonymous": false,
      "inputs": [
        {
          "indexed": true,
          "internalType": "address",
          "name": "previousOwner",
          "type": "address"
        },
        {
          "indexed": true,
          "internalType": "address",
          "name": "newOwner",
          "type": "address"
        }
      ],
      "name": "OwnershipTransferred",
      "type": "event"
    },
    {
      "inputs": [],
      "name": "owner",
      "outputs": [
        {
          "internalType": "address",
          "name": "",
          "type": "address"
        }
      ],
      "stateMutability": "view",
      "type": "function",
      "constant": true
    },
    {
      "inputs": [],
      "name": "renounceOwnership",
      "outputs": [],
      "stateMutability": "nonpayable",
      "type": "function"
    },
    {
      "inputs": [
        {
          "internalType": "address",
          "name": "newOwner",
          "type": "address"
        }
      ],
      "name": "transferOwnership",
      "outputs": [],
      "stateMutability": "nonpayable",
      "type": "function"
    },
    {
      "inputs": [
        {
          "internalType": "uint256",
          "name": "number",
          "type": "uint256"
        }
      ],
      "name": "quickOpen",
      "outputs": [
        {
          "internalType": "uint256[]",
          "name": "",
          "type": "uint256[]"
        }
      ],
      "stateMutability": "payable",
      "type": "function",
      "payable": true
    },
    {
      "inputs": [
        {
          "internalType": "uint256",
          "name": "number",
          "type": "uint256"
        }
      ],
      "name": "openCore",
      "outputs": [
        {
          "internalType": "uint256[]",
          "name": "",
          "type": "uint256[]"
        }
      ],
      "stateMutability": "nonpayable",
      "type": "function"
    },
    {
      "inputs": [
        {
          "internalType": "uint256",
          "name": "number",
          "type": "uint256"
        }
      ],
      "name": "openArtefact",
      "outputs": [
        {
          "internalType": "uint256[]",
          "name": "",
          "type": "uint256[]"
        }
      ],
      "stateMutability": "nonpayable",
      "type": "function"
    },
    {
      "inputs": [],
      "name": "available",
      "outputs": [
        {
          "internalType": "uint256",
          "name": "",
          "type": "uint256"
        }
      ],
      "stateMutability": "view",
      "type": "function",
      "constant": true
    },
    {
      "inputs": [],
      "name": "availableSpecial",
      "outputs": [
        {
          "internalType": "uint256",
          "name": "",
          "type": "uint256"
        }
      ],
      "stateMutability": "view",
      "type": "function",
      "constant": true
    },
    {
      "inputs": [],
      "name": "withdraw",
      "outputs": [],
      "stateMutability": "nonpayable",
      "type": "function"
    }
  ],
  "bytecode": "0x60806040523480156200001157600080fd5b5060405162001df338038062001df3833981810160405281019062000037919062000218565b620000696200005462000135640100000000026401000000009004565b6200013d640100000000026401000000009004565b82600160006101000a81548173ffffffffffffffffffffffffffffffffffffffff021916908373ffffffffffffffffffffffffffffffffffffffff16021790555081600260006101000a81548173ffffffffffffffffffffffffffffffffffffffff021916908373ffffffffffffffffffffffffffffffffffffffff16021790555080600360006101000a81548173ffffffffffffffffffffffffffffffffffffffff021916908373ffffffffffffffffffffffffffffffffffffffff160217905550505050620002bc565b600033905090565b60008060009054906101000a900473ffffffffffffffffffffffffffffffffffffffff169050816000806101000a81548173ffffffffffffffffffffffffffffffffffffffff021916908373ffffffffffffffffffffffffffffffffffffffff1602179055508173ffffffffffffffffffffffffffffffffffffffff168173ffffffffffffffffffffffffffffffffffffffff167f8be0079c531659141344cd1fd0a4f28419497f9722a3daafe3b4186f6b6457e060405160405180910390a35050565b6000815190506200021281620002a2565b92915050565b6000806000606084860312156200022e57600080fd5b60006200023e8682870162000201565b9350506020620002518682870162000201565b9250506040620002648682870162000201565b9150509250925092565b60006200027b8262000282565b9050919050565b600073ffffffffffffffffffffffffffffffffffffffff82169050919050565b620002ad816200026e565b8114620002b957600080fd5b50565b611b2780620002cc6000396000f3fe6080604052600436106100a3576000357c010000000000000000000000000000000000000000000000000000000090048063715018a611610076578063715018a6146101525780638da5cb5b14610169578063b9560bb314610194578063c84327c3146101c4578063f2fde38b14610201576100a3565b8063207e3106146100a85780633ccfd60b146100d357806348a0d754146100ea5780636d23353c14610115575b600080fd5b3480156100b457600080fd5b506100bd61022a565b6040516100ca9190611922565b60405180910390f35b3480156100df57600080fd5b506100e86102f8565b005b3480156100f657600080fd5b506100ff61043a565b60405161010c9190611922565b60405180910390f35b34801561012157600080fd5b5061013c60048036038101906101379190611364565b610508565b60405161014991906117e5565b60405180910390f35b34801561015e57600080fd5b506101676108ac565b005b34801561017557600080fd5b5061017e610934565b60405161018b91906117a1565b60405180910390f35b6101ae60048036038101906101a99190611364565b61095d565b6040516101bb91906117e5565b60405180910390f35b3480156101d057600080fd5b506101eb60048036038101906101e69190611364565b610d56565b6040516101f891906117e5565b60405180910390f35b34801561020d57600080fd5b5061022860048036038101906102239190611312565b6110fa565b005b6000600360009054906101000a900473ffffffffffffffffffffffffffffffffffffffff1673ffffffffffffffffffffffffffffffffffffffff166370a08231336040518263ffffffff167c01000000000000000000000000000000000000000000000000000000000281526004016102a391906117a1565b60206040518083038186803b1580156102bb57600080fd5b505afa1580156102cf573d6000803e3d6000fd5b505050506040513d601f19601f820116820180604052508101906102f3919061138d565b905090565b6103006111f2565b73ffffffffffffffffffffffffffffffffffffffff1661031e610934565b73ffffffffffffffffffffffffffffffffffffffff1614610374576040517f08c379a000000000000000000000000000000000000000000000000000000000815260040161036b906118a2565b60405180910390fd5b60003373ffffffffffffffffffffffffffffffffffffffff163073ffffffffffffffffffffffffffffffffffffffff16316040516103b19061178c565b60006040518083038185875af1925050503d80600081146103ee576040519150601f19603f3d011682016040523d82523d6000602084013e6103f3565b606091505b5050905080610437576040517f08c379a000000000000000000000000000000000000000000000000000000000815260040161042e90611902565b60405180910390fd5b50565b6000600260009054906101000a900473ffffffffffffffffffffffffffffffffffffffff1673ffffffffffffffffffffffffffffffffffffffff166370a08231336040518263ffffffff167c01000000000000000000000000000000000000000000000000000000000281526004016104b391906117a1565b60206040518083038186803b1580156104cb57600080fd5b505afa1580156104df573d6000803e3d6000fd5b505050506040513d601f19601f82011682018060405250810190610503919061138d565b905090565b6060600a82111561054e576040517f08c379a0000000000000000000000000000000000000000000000000000000008152600401610545906118e2565b60405180910390fd5b81600360009054906101000a900473ffffffffffffffffffffffffffffffffffffffff1673ffffffffffffffffffffffffffffffffffffffff166370a08231336040518263ffffffff167c01000000000000000000000000000000000000000000000000000000000281526004016105c691906117a1565b60206040518083038186803b1580156105de57600080fd5b505afa1580156105f2573d6000803e3d6000fd5b505050506040513d601f19601f82011682018060405250810190610616919061138d565b1015610657576040517f08c379a000000000000000000000000000000000000000000000000000000000815260040161064e90611842565b60405180910390fd5b600360009054906101000a900473ffffffffffffffffffffffffffffffffffffffff1673ffffffffffffffffffffffffffffffffffffffff1663224b5c7233846040518363ffffffff167c01000000000000000000000000000000000000000000000000000000000281526004016106d09291906117bc565b600060405180830381600087803b1580156106ea57600080fd5b505af11580156106fe573d6000803e3d6000fd5b5050505060008267ffffffffffffffff811115610744577f4e487b7100000000000000000000000000000000000000000000000000000000600052604160045260246000fd5b6040519080825280602002602001820160405280156107725781602001602082028036833780820191505090505b50905060005b838110156108a257600160009054906101000a900473ffffffffffffffffffffffffffffffffffffffff1673ffffffffffffffffffffffffffffffffffffffff166346e482e460016040518263ffffffff167c01000000000000000000000000000000000000000000000000000000000281526004016107f89190611807565b602060405180830381600087803b15801561081257600080fd5b505af1158015610826573d6000803e3d6000fd5b505050506040513d601f19601f8201168201806040525081019061084a919061138d565b828281518110610883577f4e487b7100000000000000000000000000000000000000000000000000000000600052603260045260246000fd5b602002602001018181525050808061089a90611a34565b915050610778565b5080915050919050565b6108b46111f2565b73ffffffffffffffffffffffffffffffffffffffff166108d2610934565b73ffffffffffffffffffffffffffffffffffffffff1614610928576040517f08c379a000000000000000000000000000000000000000000000000000000000815260040161091f906118a2565b60405180910390fd5b61093260006111fa565b565b60008060009054906101000a900473ffffffffffffffffffffffffffffffffffffffff16905090565b6060600a8211156109a3576040517f08c379a000000000000000000000000000000000000000000000000000000000815260040161099a906118e2565b60405180910390fd5b600260009054906101000a900473ffffffffffffffffffffffffffffffffffffffff1673ffffffffffffffffffffffffffffffffffffffff1663388eea566040518163ffffffff167c010000000000000000000000000000000000000000000000000000000002815260040160206040518083038186803b158015610a2757600080fd5b505afa158015610a3b573d6000803e3d6000fd5b505050506040513d601f19601f82011682018060405250810190610a5f919061133b565b610a9e576040517f08c379a0000000000000000000000000000000000000000000000000000000008152600401610a95906118c2565b60405180910390fd5b600082600260009054906101000a900473ffffffffffffffffffffffffffffffffffffffff1673ffffffffffffffffffffffffffffffffffffffff1663332df3bf6040518163ffffffff167c010000000000000000000000000000000000000000000000000000000002815260040160206040518083038186803b158015610b2557600080fd5b505afa158015610b39573d6000803e3d6000fd5b505050506040513d601f19601f82011682018060405250810190610b5d919061138d565b610b679190611992565b9050803414610bab576040517f08c379a0000000000000000000000000000000000000000000000000000000008152600401610ba290611822565b60405180910390fd5b60008367ffffffffffffffff811115610bed577f4e487b7100000000000000000000000000000000000000000000000000000000600052604160045260246000fd5b604051908082528060200260200182016040528015610c1b5781602001602082028036833780820191505090505b50905060005b84811015610d4b57600160009054906101000a900473ffffffffffffffffffffffffffffffffffffffff1673ffffffffffffffffffffffffffffffffffffffff166346e482e460006040518263ffffffff167c0100000000000000000000000000000000000000000000000000000000028152600401610ca19190611807565b602060405180830381600087803b158015610cbb57600080fd5b505af1158015610ccf573d6000803e3d6000fd5b505050506040513d601f19601f82011682018060405250810190610cf3919061138d565b828281518110610d2c577f4e487b7100000000000000000000000000000000000000000000000000000000600052603260045260246000fd5b6020026020010181815250508080610d4390611a34565b915050610c21565b508092505050919050565b6060600a821115610d9c576040517f08c379a0000000000000000000000000000000000000000000000000000000008152600401610d93906118e2565b60405180910390fd5b81600260009054906101000a900473ffffffffffffffffffffffffffffffffffffffff1673ffffffffffffffffffffffffffffffffffffffff166370a08231336040518263ffffffff167c0100000000000000000000000000000000000000000000000000000000028152600401610e1491906117a1565b60206040518083038186803b158015610e2c57600080fd5b505afa158015610e40573d6000803e3d6000fd5b505050506040513d601f19601f82011682018060405250810190610e64919061138d565b1015610ea5576040517f08c379a0000000000000000000000000000000000000000000000000000000008152600401610e9c90611882565b60405180910390fd5b600260009054906101000a900473ffffffffffffffffffffffffffffffffffffffff1673ffffffffffffffffffffffffffffffffffffffff1663224b5c7233846040518363ffffffff167c0100000000000000000000000000000000000000000000000000000000028152600401610f1e9291906117bc565b600060405180830381600087803b158015610f3857600080fd5b505af1158015610f4c573d6000803e3d6000fd5b5050505060008267ffffffffffffffff811115610f92577f4e487b7100000000000000000000000000000000000000000000000000000000600052604160045260246000fd5b604051908082528060200260200182016040528015610fc05781602001602082028036833780820191505090505b50905060005b838110156110f057600160009054906101000a900473ffffffffffffffffffffffffffffffffffffffff1673ffffffffffffffffffffffffffffffffffffffff166346e482e460006040518263ffffffff167c01000000000000000000000000000000000000000000000000000000000281526004016110469190611807565b602060405180830381600087803b15801561106057600080fd5b505af1158015611074573d6000803e3d6000fd5b505050506040513d601f19601f82011682018060405250810190611098919061138d565b8282815181106110d1577f4e487b7100000000000000000000000000000000000000000000000000000000600052603260045260246000fd5b60200260200101818152505080806110e890611a34565b915050610fc6565b5080915050919050565b6111026111f2565b73ffffffffffffffffffffffffffffffffffffffff16611120610934565b73ffffffffffffffffffffffffffffffffffffffff1614611176576040517f08c379a000000000000000000000000000000000000000000000000000000000815260040161116d906118a2565b60405180910390fd5b600073ffffffffffffffffffffffffffffffffffffffff168173ffffffffffffffffffffffffffffffffffffffff1614156111e6576040517f08c379a00000000000000000000000000000000000000000000000000000000081526004016111dd90611862565b60405180910390fd5b6111ef816111fa565b50565b600033905090565b60008060009054906101000a900473ffffffffffffffffffffffffffffffffffffffff169050816000806101000a81548173ffffffffffffffffffffffffffffffffffffffff021916908373ffffffffffffffffffffffffffffffffffffffff1602179055508173ffffffffffffffffffffffffffffffffffffffff168173ffffffffffffffffffffffffffffffffffffffff167f8be0079c531659141344cd1fd0a4f28419497f9722a3daafe3b4186f6b6457e060405160405180910390a35050565b6000813590506112cd81611aac565b92915050565b6000815190506112e281611ac3565b92915050565b6000813590506112f781611ada565b92915050565b60008151905061130c81611ada565b92915050565b60006020828403121561132457600080fd5b6000611332848285016112be565b91505092915050565b60006020828403121561134d57600080fd5b600061135b848285016112d3565b91505092915050565b60006020828403121561137657600080fd5b6000611384848285016112e8565b91505092915050565b60006020828403121561139f57600080fd5b60006113ad848285016112fd565b91505092915050565b60006113c2838361176e565b60208301905092915050565b6113d7816119ec565b82525050565b60006113e88261194d565b6113f28185611965565b93506113fd8361193d565b8060005b8381101561142e57815161141588826113b6565b975061142083611958565b925050600181019050611401565b5085935050505092915050565b611444816119fe565b82525050565b6000611457602b83611981565b91507f46756e6420696e73756666696369656e7420746f2076616c696461746520746860008301527f652070757263686173652e0000000000000000000000000000000000000000006020830152604082019050919050565b60006114bd603883611981565b91507f496e73756666696369656e74206e756d626572206f66204c6567656e6461727960008301527f436f726520696e20796f757220706f7373657373696f6e2e00000000000000006020830152604082019050919050565b6000611523602683611981565b91507f4f776e61626c653a206e6577206f776e657220697320746865207a65726f206160008301527f64647265737300000000000000000000000000000000000000000000000000006020830152604082019050919050565b6000611589600e83611976565b91507f77697468647261772073656c6c730000000000000000000000000000000000006000830152600e82019050919050565b60006115c9603383611981565b91507f496e73756666696369656e74206e756d626572206f6620486f6c79436f72652060008301527f696e20796f757220706f7373657373696f6e2e000000000000000000000000006020830152604082019050919050565b600061162f602083611981565b91507f4f776e61626c653a2063616c6c6572206973206e6f7420746865206f776e65726000830152602082019050919050565b600061166f602183611981565b91507f507572636861736520697320636c6f73656420617420746865206d6f6d656e7460008301527f2e000000000000000000000000000000000000000000000000000000000000006020830152604082019050919050565b60006116d5602383611981565b91507f4761636861206f70656e6572206c696d6974656420746f203130206174206f6e60008301527f63652e00000000000000000000000000000000000000000000000000000000006020830152604082019050919050565b600061173b600f83611981565b91507f7769746864726177206661696c656400000000000000000000000000000000006000830152602082019050919050565b61177781611a2a565b82525050565b61178681611a2a565b82525050565b60006117978261157c565b9150819050919050565b60006020820190506117b660008301846113ce565b92915050565b60006040820190506117d160008301856113ce565b6117de602083018461177d565b9392505050565b600060208201905081810360008301526117ff81846113dd565b905092915050565b600060208201905061181c600083018461143b565b92915050565b6000602082019050818103600083015261183b8161144a565b9050919050565b6000602082019050818103600083015261185b816114b0565b9050919050565b6000602082019050818103600083015261187b81611516565b9050919050565b6000602082019050818103600083015261189b816115bc565b9050919050565b600060208201905081810360008301526118bb81611622565b9050919050565b600060208201905081810360008301526118db81611662565b9050919050565b600060208201905081810360008301526118fb816116c8565b9050919050565b6000602082019050818103600083015261191b8161172e565b9050919050565b6000602082019050611937600083018461177d565b92915050565b6000819050602082019050919050565b600081519050919050565b6000602082019050919050565b600082825260208201905092915050565b600081905092915050565b600082825260208201905092915050565b600061199d82611a2a565b91506119a883611a2a565b9250817fffffffffffffffffffffffffffffffffffffffffffffffffffffffffffffffff04831182151516156119e1576119e0611a7d565b5b828202905092915050565b60006119f782611a0a565b9050919050565b60008115159050919050565b600073ffffffffffffffffffffffffffffffffffffffff82169050919050565b6000819050919050565b6000611a3f82611a2a565b91507fffffffffffffffffffffffffffffffffffffffffffffffffffffffffffffffff821415611a7257611a71611a7d565b5b600182019050919050565b7f4e487b7100000000000000000000000000000000000000000000000000000000600052601160045260246000fd5b611ab5816119ec565b8114611ac057600080fd5b50565b611acc816119fe565b8114611ad757600080fd5b50565b611ae381611a2a565b8114611aee57600080fd5b5056fea2646970667358221220502343c93b9a233feed9c843ec7e301e6b9045ad3675b8fb77b3bb74d20ca27864736f6c63430008000033",
  "immutableReferences": {},
  "source": "pragma solidity ^0.8.0;\r\n\r\nimport \"../character/Nokai.sol\";\r\nimport \"../tokens/ticket/HolyCore.sol\";\r\nimport \"../tokens/ticket/LegendaryCore.sol\";\r\nimport \"@openzeppelin/contracts/access/Ownable.sol\";\r\n\r\n// SPDX-License-Identifier: MIT\r\ncontract NokaiGacha is Ownable {\r\n    Nokai private _nokai;\r\n    HolyCore private _holyCore;\r\n    LegendaryCore private _legendaryCore;\r\n\r\n    constructor(address nokai, address holyCore, address legendaryCore) {\r\n        _nokai = Nokai(nokai);\r\n        _holyCore = HolyCore(holyCore);\r\n        _legendaryCore = LegendaryCore(legendaryCore);\r\n    }\r\n\r\n    function quickOpen(uint256 number) external payable returns (uint256[] memory) {\r\n        require(number <= 10, \"Gacha opener limited to 10 at once.\");\r\n        require(_holyCore.isPurchaseAllowed(), \"Purchase is closed at the moment.\");\r\n        uint256 cost = _holyCore.costPerUnit() * number;\r\n        require(msg.value == cost, \"Fund insufficient to validate the purchase.\");\r\n\r\n        uint256[] memory ids = new uint256[](number);\r\n        for (uint256 i = 0; i < number; i++) {\r\n            ids[i] = _nokai.generateNokai(false);\r\n        }\r\n        return ids;\r\n    }\r\n\r\n    function openCore(uint256 number) external returns (uint256[] memory) {\r\n        require(number <= 10, \"Gacha opener limited to 10 at once.\");\r\n        require(_holyCore.balanceOf(msg.sender) >= number, \"Insufficient number of HolyCore in your possession.\");\r\n        _holyCore.consume(msg.sender, number);\r\n        uint256[] memory ids = new uint256[](number);\r\n        for (uint256 i = 0; i < number; i++) {\r\n            ids[i] = _nokai.generateNokai(false);\r\n        }\r\n        return ids;\r\n    }\r\n\r\n    function openArtefact(uint256 number) external returns (uint256[] memory) {\r\n        require(number <= 10, \"Gacha opener limited to 10 at once.\");\r\n        require(_legendaryCore.balanceOf(msg.sender) >= number, \"Insufficient number of LegendaryCore in your possession.\");\r\n        _legendaryCore.consume(msg.sender, number);\r\n        uint256[] memory ids = new uint256[](number);\r\n        for (uint256 i = 0; i < number; i++) {\r\n            ids[i] = _nokai.generateNokai(true);\r\n        }\r\n        return ids;\r\n    }\r\n\r\n    function available() external view returns (uint256) {\r\n        return _holyCore.balanceOf(msg.sender);\r\n    }\r\n\r\n    function availableSpecial() external view returns (uint256) {\r\n        return _legendaryCore.balanceOf(msg.sender);\r\n    }\r\n\r\n    /**\r\n     * Withdraw earnings from the purchase of Nokai through quickOpen\r\n     */\r\n    function withdraw() external onlyOwner {\r\n        (bool success,) = msg.sender.call{value : address(this).balance}(\"withdraw sells\");\r\n        require(success, \"withdraw failed\");\r\n    }\r\n}\r\n",
  "sourcePath": "C:\\Users\\10404\\Documents\\projects\\blackhole-evm\\contracts\\tokenomics\\NokaiGacha.sol",
  "compiler": {
    "name": "solc",
    "version": "0.8.0+commit.c7dfd78e.Emscripten.clang"
  },
  "schemaVersion": "3.4.3",
  "updatedAt": "2021-12-19T20:08:50.121Z",
  "networkType": "ethereum",
  "devdoc": {
    "kind": "dev",
    "methods": {
      "owner()": {
        "details": "Returns the address of the current owner."
      },
      "renounceOwnership()": {
        "details": "Leaves the contract without owner. It will not be possible to call `onlyOwner` functions anymore. Can only be called by the current owner. NOTE: Renouncing ownership will leave the contract without an owner, thereby removing any functionality that is only available to the owner."
      },
      "transferOwnership(address)": {
        "details": "Transfers ownership of the contract to a new account (`newOwner`). Can only be called by the current owner."
      }
    },
    "version": 1
  },
  "userdoc": {
    "kind": "user",
    "methods": {
      "withdraw()": {
        "notice": "Withdraw earnings from the purchase of Nokai through quickOpen"
      }
    },
    "version": 1
  }
}